:020000040000FA
:10000000580200204B010000570100005901000078
:1000100000000000000000000000000000000000E0
:100020000000000000000000000000005B01000074
:1000300000000000000000005D010000F92F00003A
:100040006101000061010000610100006101000028
:100050006101000061010000610100006101000018
:100060006101000061010000610100006101000008
:10007000A53000004D3100004F3100003D0D000063
:1000800061010000610100006101000061010000E8
:10009000610100006101000081270000A927000024
:1000A000B1230000FD230000610100006101000098
:1000B00061010000610100006101000061010000B8
:1000C00000F002F800F030F80CA030C8083824180E
:1000D0002D18A246671EAB4654465D46AC4201D180
:1000E00000F022F87E460F3E0FCCB6460126334282
:1000F00000D0FB1AA246AB46334318477480000079
:10010000948000000023002400250026103A01D32B
:1001100078C1FBD8520700D330C100D50B607047BF
:100120001FB51FBD10B510BD00F0B5FD1146FFF79E
:10013000F7FF04F0D5FE00F0CDFD03B4FFF7F2FFAA
:1001400003BC03F012F800007047094880470948D3
:10015000804709480047FEE7FEE7FEE7FEE7FEE7C7
:10016000FEE7000005480649044A064B70470000B8
:100170004D30000049010000C1000000580100207E
:1001800058020020580100207047000030B5441C80
:1001900003E00178401C00290DD08107F9D10B4BF9
:1001A000DD0104C8D11A91432940FAD0001B0A0688
:1001B00003D0C01E30BD001B30BD0A0401D0801E1C
:1001C00030BD0902FCD0401E30BD0000010101011C
:1001D00001E004C0091F0429FBD28B0701D502806E
:1001E000801CC90700D00270704700290BD0C307DC
:1001F00002D00270401C491E022904D3830702D595
:100200000280801C891EE3E70022EEE70022DFE780
:10021000002203098B422CD3030A8B4211D3002303
:100220009C464EE003460B433CD4002243088B42DD
:1002300031D303098B421CD3030A8B4201D394466A
:100240003FE0C3098B4201D3CB01C01A524183095D
:100250008B4201D38B01C01A524143098B4201D317
:100260004B01C01A524103098B4201D30B01C01A42
:100270005241C3088B4201D3CB00C01A52418308BC
:100280008B4201D38B00C01A524143088B4201D3E9
:100290004B00C01A5241411A00D201465241104649
:1002A00070475DE0CA0F00D04942031000D34042BE
:1002B000534000229C4603098B422DD3030A8B42F4
:1002C00012D3FC22890112BA030A8B420CD3890192
:1002D00092118B4208D3890192118B4204D3890178
:1002E0003AD0921100E08909C3098B4201D3CB01B6
:1002F000C01A524183098B4201D38B01C01A52416B
:1003000043098B4201D34B01C01A524103098B426E
:1003100001D30B01C01A5241C3088B4201D3CB0059
:10032000C01A524183088B4201D38B00C01A52413C
:10033000D9D243088B4201D34B00C01A5241411A13
:1003400000D20146634652415B10104601D3404241
:10035000002B00D54942704763465B1000D34042F2
:1003600001B50020C046C04602BD704770477047C7
:100370000246C80FC00781434B0030B54B405B00BD
:100380009B0D20D01923DB06C91801231B059942B8
:1003900020DB0324A40704251346AB400BD3002B1A
:1003A00004D1EB0613409B00E34204D4012464070C
:1003B000002312195941FF231B0599420BD2C90092
:1003C0000143500F09E0CB0204D501430803024367
:1003D00005D0054830BDFF21C905084330BD08469A
:1003E00007210905884330BD0000C07F7047000029
:1003F00000487047F400002010B504F0E1FD10BD86
:10040000FFFFFFFFFFFFFFFFFFFFFFFFFFFFFEFEFE
:10041000F0B50C46871A9C410D46861A9D4103D2C1
:10042000C01BA141D21963410D0D1F0DC94EEC1B1C
:10043000AE435CD07F057F0D0026002F51D02D05E7
:10044000AC46A943DD020123ED0A1B051D43202311
:100450001B1B24D41746E740381871412F46E7404C
:10046000CC199D402818314661410C0D27D16144BB
:100470009A4013D50023401C594152000ED1400828
:10048000400001224B005205D34207D3052040070C
:10049000C14201D5B04900E0B0493046F0BD6B0023
:1004A000002A00D001229A181F23203C1B1B01D5D3
:1004B000002302E0E540281871410C0DD7D001243B
:1004C00024050919C407CD0740084908E40F28434B
:1004D0006144002CD5D00024401C61419A40D0D109
:1004E000CDE76A05520DD9D1C90FC907D5E79C4D93
:1004F0004E00002801D0012400E0002434195F00E0
:10050000002A01D0012600E00026BE19954FAC421A
:100510000CD8AE420AD8B44206D001256D05EC4293
:10052000BCD010461946F0BD9942FCD00020394697
:10053000F0BDF0B51FB40C460F46811A9F41254609
:10054000861A9D4106D20125ED076F40401ABC4135
:1005500052187B41210D1E0D8D1BAC467D4D8D43E8
:100560007ED075056D0D7CD00D05AE46AC431B03EA
:100570001B0B794D52429D41202366469B1B14D391
:100580001746F740381800260090744160462F4601
:100590000741E41900989D402818664116D4714619
:1005A00071189A4025D5012320E093182A466A4104
:1005B0005200002B00D0521C1E23203E9B1B002B00
:1005C00061DD3541EE1728186641E8D500187641FF
:1005D0005B1C9A4000D3401C4B05F3181524E340E4
:1005E00010D3002B52D071467118D30FC01802D30C
:1005F000491C05B0F0BD0123DB079A42F9D1400840
:100600004000F6E701225205B21801D1002853D06C
:100610000123CC0ADB029943891E002A08D1020C6F
:1006200003D0020C0004103902E0024600202039F9
:100630000023550B05D112020823550B01D152019D
:100640000D23550C01D112011B1DD50C01D19200B7
:100650009B1C150D01D152005B1C2025EE1A01E0F8
:100660002CE022E00546F54015439840CA1AE10700
:1006700069181305C918002ABBDA032040070818B7
:10068000C10FC9070FE071466118B2E7F1074008D2
:100690000843711071444A000CD001235B059A4253
:1006A000A7D2C90FC9070020A3E74905490D26D1E4
:1006B000002001E00028F4D100219AE7284D6600CF
:1006C000002801D0012100E0002171185F00002AFC
:1006D00001D0012600E00026BE19224FA94210D801
:1006E000AE420ED8B14208D001256D05E94206D0D0
:1006F0001946A802414010467BE79C4201D02146A2
:1007000077E70020394674E710B50C465C4005D504
:100710000124E4076340FFF70CFF10BDFFF778FEEC
:1007200010BD30B40C465C4004D50124E40763409E
:1007300030BC6DE630BCFCE670B50124E4076140D6
:100740000D465D4002D4FFF763FE70BD6340FFF7C6
:10075000F0FE70BDFF0700000000F0FF0000F07F1A
:100760000000E0FF0000F87F1F22030C02D10F22DF
:10077000000402D0030E03D004E0002001467047BD
:100780000002083A030F01D10001121F830F01D1AB
:100790008000921E002801DB4000521E12055118F5
:1007A0004205C012411810467047C10FC90700D05A
:1007B0004042012292071143D6E701218907D3E77E
:1007C000F0B58B4C0F09254689B0BD437BD01D0980
:1007D0002646AE43FAD00E465E402740F60F3E4313
:1007E000254071D024012142FBD0FF24AD19A4047F
:1007F0002D1B039501252D05DB02DB0AC9022B43C6
:10080000C90A29431E010901040F130F05012143E1
:100810001701880B820391432D098C46A90B1E43B7
:100820008A039543B30B9A0396433F09BA0B94038B
:10083000A74302962E467E430497B6464E19D71913
:100840000C460196544305977E43371B7646BF1BE3
:100850003601B646BE0B361900967646BC043719EB
:10086000009C01D3641C00946400002F01D0012679
:100870003443029E049F754366467E430496760089
:1008800034196E0034190094029C019E1C196643B1
:10089000751BAE46069465464519059C05956C4347
:1008A000594375460891691A0191049E01465143C6
:1008B000A41B0491611A009C0791E10605D061090F
:1008C0000122114302E072E06EE06109089D0027F9
:1008D0002C0A2D066918049D7C412A0A2D066918E8
:1008E000019D6241AC0DAD026D185441079A910D06
:1008F000920255196141029A644658435443069B3B
:10090000059A5A43121A131B9A0E9B015B187A41DF
:10091000010B0005C3185141220A200644195A410F
:100920009A4200D2491C01204002814203D3152380
:100930000226F64302E014230326F6432020C51ABC
:10094000A9401746AF40DA400A4320460399D840F1
:100950000914731819055118039A3843D2075140E6
:10096000AC4009D00122944006D30022401C5141E2
:10097000002C01D1400840001E4A934212D30122AC
:1009800003989206904207DB0520400709181A4891
:100990000143C012414004E0032040070818C10F82
:1009A000C907002009B0F0BD0020F107FAE70518DB
:1009B0000C464C4111486D42A04115D394181A467B
:1009C0005A410E48644290410ED301204A0040052E
:1009D000824209D35A00824206D35940C90F084ABD
:1009E000C90700201143DDE700200649DAE70000CF
:1009F0000000FF07FE070000FFFFFF7F0000E0FF91
:100A00000000F07F0000F87F0121C9050123411893
:100A100042001B06D3185B0E0AD0C1100722D20673
:100A2000891840075242D14201D5520089187047B7
:100A3000090208D50146002A03D0C10FC9070020CA
:100A4000704710467047420202D0002002497047AA
:100A5000072109050143F4E70000F87FF0B5FF2501
:100A60002D04C609C209FF2704462E400137CB09D1
:100A70003E4348402A402B400746002A6BD0002BBB
:100A800069D0AA4267D0AB4265D0002800DA32466E
:100A90000125ED0529432C4309022002090AD21A37
:100AA0004B0C7F24E31A434C000A7C44E35C7D2416
:100AB0002404121914145B00A218884201D3521C9A
:100AC00000E0400049420C465C4324115C43DB01DA
:100AD0006415E318040A5C43C502200D0C46444328
:100AE0006419250A5D432303EC0C0D46654300039E
:100AF0000019EB184C42A34201D35B18401CD405EB
:100B00002018002B07D05B00C91804D3401C002913
:100B100001D1400840003F2189048A4209D3002ABC
:100B200008DC1106090F04D0032149074018C00F43
:100B3000C007F0BD01224100120689187F2252062B
:100B40009142F6D205214907C84201D59010F0BD67
:100B5000FF20C005F0BD002F00DA32461648AA4239
:100B600007D2AB4205D21902090E17D0F80FC00701
:100B7000F0BDFF2563002D06AB42F9D84900A9421C
:100B8000F6D8AB4201D1A942F2D0A94201D100214D
:100B900001E061004908D0050843F0BD1102090ECB
:100BA000FBD0FF200243D005F0BD0A4601461046A7
:100BB00054E70000487400000000C07F10B50146F3
:100BC0009E240002CA15A307002A02D01843002A57
:100BD00004DBA21A002A0CDDD04010BD1206120E52
:100BE00001D140004008A21A03D4D040404200285E
:100BF000F3DDFF2248001206904201D9002010BD0B
:100C0000C817C043584010BD0102C21504D00123CB
:100C1000DB071943002A0ADB9E239A1A02D40846EE
:100C2000D0407047FF2241001206914201D90020B6
:100C30007047C017C04370471F22030C02D10F2218
:100C400000041CD0030E01D10002083A030F01D1A9
:100C50000001121F830F01D18000921E002801DBCA
:100C60004000521ED205511802125118192290400C
:100C700004D3491C002801D149084900084670479F
:100C8000C10FC90700D04042012292071143D3E7A8
:100C900001218907D0E77546FFF7AAFBAE4605009C
:100CA00069465346C008C000854618B020B5FFF716
:100CB00059FA60BC00274908B6460026C0C5C0C521
:100CC000C0C5C0C5C0C5C0C5C0C5C0C5403D490040
:100CD0008D46704710B50446C046C0462046FFF713
:100CE0002CFA10BD70B58C180578401C6B075B0F93
:100CF00001D10378401C2A1106D10278401C03E080
:100D00000678401C0E70491C5B1EF9D12B0705D4D8
:100D10000023521E0DD40B70491CFAE70378401CC7
:100D2000CB1A921C03E01D780D70491C5B1C521EEF
:100D3000F9D5A142D8D3002070BD000030B5094AD2
:100D40000020064C0649137804E022694500401C47
:100D50004A53C0B29842F8D330BD000000B00340FF
:100D600098F2FF1F48F0FF1F70B52348007B022850
:100D700004D90021084602F077FC70BD1F4C608B3F
:100D8000401C60836088401C608000F031FAA08ABB
:100D9000401CA08200F08EF8608B0025030002F05A
:100DA000D7F906240407121D202402F03FFA70BD73
:100DB0002088401C80B220800228F8D325806580DE
:100DC00000F0D0F970BD608A401C00B2608201283A
:100DD000F8DB6582A58200F027F870BD02F0A0FF65
:100DE00070BD00F0DDF8658370BD65836582258088
:100DF0006580A58270BD000064F2FF1F00F0FF1F38
:100E000010B50121024A084603F062F810BD000047
:100E1000690D000010B50021252003F08FFE012090
:100E200003F0C8F810BD0000F8B51E481E49066B57
:100E3000304604F0F5FB1D4C0090E16A04F048FCDC
:100E4000184D0246803DE88D0B2809D228464030D7
:100E5000C08A0B2804D22846A030017B491C0173AC
:100E6000E08A20831046A96804F0DAFB0746009860
:100E7000296804F0D5FB394604F08CFBFFF79EFE91
:100E8000E0820B49304604F0CBFB8121C905884242
:100E900005DA7F21C905C84201D20020E08200980E
:100EA000E062F8BD44F2FF1F0000204100F0FF1F88
:100EB0000000C84270B5074D1421E88A2C8B695E8A
:100EC000001B00B2491C48430521FFF7ABF900198C
:100ED000288270BD00F0FF1FF8B5FFF7D1FE26494C
:100EE000096C04F0F5FB254D0446E869FFF78CFD1D
:100EF000234A244BFFF764FCFFF73AFA00902046A0
:100F0000FFF782FD204A214BFFF75AFC06460F46A9
:100F10000098FFF779FD32463B46FFF7F5FBFFF7F8
:100F200027FA0646E8611A48844204DB19488442DD
:100F300001D9286A04E03146286A04F02BFB2862B4
:100F40001549884202DC1549884200D929620A4CB9
:100F5000286A803CE16904F063FB05460121A06931
:100F6000C9074840314604F05BFB294604F0B0FB5A
:100F7000FFF724FE00B2F8BD44F2FF1F00F0FF1F90
:100F8000666666666666E63F333333333333D33F94
:100F90000000C8420000C8C200803B4500803BC53D
:100FA00010B5114A114B1089118AD2894018511A73
:100FB00010229A5E00B2544209B223B2824201DA90
:100FC000104602E0844200DD18468A4201DA1146EA
:100FD00002E08C4200DD1946044A803AD087403254
:100FE000118002F041FB10BD00F0FF1F84F2FF1FD3
:100FF000F0B5254800227F2102638902054642633D
:10100000803D0C682C604C686C608C68AC60CC686F
:10101000EC600C692C614C696C618C69AC61CC69C9
:10102000EC61096AFD2613467602296214215143B8
:1010300049190C460B872034237363735400CB8506
:10104000A4194B6327880F86521C2489D2B24C8680
:10105000042AEBD30C490A2240398A87CB870380C4
:101060004380838083600949C1630164C360416434
:10107000437403740448192149014030018201215D
:1010800020380173F0BD000044F2FF1F0000A041B2
:10109000F8B5FFF7F5FD2649496C04F019FB254D1D
:1010A0000446686AFFF7B0FC234A244BFFF788FB2D
:1010B000FFF75EF900902046FFF7A6FC204A214B7F
:1010C000FFF77EFB06460F460098FFF79DFC324671
:1010D0003B46FFF719FBFFF74BF9064668621A48D3
:1010E000844204DB1948844201D9A86A04E03146ED
:1010F000A86A04F04FFAA8621549884202DC154933
:10110000884200D9A9620A4CA86A803CE16904F0CF
:1011100087FA05460121A069C9074840314604F015
:101120007FFA294604F0D4FAFFF748FD00B2F8BD73
:1011300044F2FF1F00F0FF1F666666666666E63FC4
:10114000333333333333D33F00002041000020C119
:1011500000803B4500803BC510B5022002F040FAFC
:1011600010BD0000F8B51F4C6088FFF726FB002279
:101170001D4BFFF725FBFFF7FBF8A0600A2003F0EB
:10118000C1FC0126F607002802D1A0687040A060CB
:101190000027164D6780A888E880A068FFF70EFD3D
:1011A00000B2FFF799FEA880A088FFF706FB002297
:1011B0000D4BFFF705FBFFF7DBF8E060262003F09F
:1011C000A1FC012802D1E0687040E060A780688936
:1011D000A881E068FFF7F2FC00B2FFF759FF6881D1
:1011E000F8BD000044F2FF1F0000C93F00F0FF1FE0
:1011F00070B50C4C0A21A088E6886588801B00B277
:101200006D1C6843FFF70EF8801920816089A6895C
:101210000A21801B00B26843FFF704F88019E081BF
:1012200070BD000000F0FF1FFEB55C4C6089002817
:1012300016D15E495AA088615D48806820620846E0
:1012400001F050F82046243000F053FC20463C309A
:1012500000F04FFC2046543000F04BFC0120608130
:1012600054483F2700783F0618250C26012824D033
:1012700003282CD0072850D0092859D004287ED024
:1012800046480121243000F088FB444801213C30CD
:1012900000F083FB0C2348A210211420009503F0DA
:1012A000EDFF206AFFF7B0FC0246042310213A202C
:1012B0000096019503F04EFFFEBD38480021243012
:1012C00000F06BFB3946206A04F064F92EE03348E5
:1012D0000021243000F061FB384F18E03F2109065F
:1012E000206A04F057F920620A2002F031FE3946E4
:1012F000206A04F095F9FFF787FC024604231021C9
:101300003A200096019503F025FF00F058FF1B20BE
:1013100003F0F8FB0028E1D0BCE7204800213C3076
:1013200000F03BFB3946206A04F0D2F92062B1E7B5
:101330001A4800213C3000F030FB204F18E03F21DC
:101340000906206A04F0C4F920620A2002F000FEB7
:101350003946206A04F064F9FFF756FC024604237C
:1013600010213A200096019503F0F4FE00F027FFCB
:10137000242003F0C7FB0028E1D08BE7FFE70C48EF
:10138000216A816003F0D4FF0020608103F006F938
:10139000022003F0DBFFFFF733FD7BE718F1FF1FAF
:1013A0004469726374696F6E204B6400D8F0FF1F4C
:1013B000C4F1FF1F15F1FF1F4B643A0000002041EC
:1013C000FEB55E4C2089002816D160495CA088617A
:1013D0005F484068E061084600F084FF2046243002
:1013E00000F087FB20463C3000F083FB2046543061
:1013F00000F07FFB0120208156483F2700783F0600
:1014000018250C26012827D003282FD0072853D0D1
:1014100009285CD004287CD048480121243000F001
:10142000BCFA464801213C3000F0B7FA0C234AA22E
:1014300010211420009503F021FF4849E06904F0D1
:10144000EFF8FFF7E1FB0246042310213A20009653
:10145000019503F07FFEFEBD38480021243000F0E6
:101460009CFA3946E06904F095F82EE033480021F3
:10147000243000F092FA394F18E03F210906E06964
:1014800004F088F8E0610A2002F062FD3946E06964
:1014900004F0C6F8FFF7B8FB0246042310213A20F7
:1014A0000096019503F056FE00F089FE1B2003F024
:1014B00029FB0028E1D0B9E7204800213C3000F0AA
:1014C0006CFA3946E06904F003F9E061AEE71B48C5
:1014D00000213C3000F061FA204F18E03F2109065E
:1014E000E06904F0F5F8E0610A2002F031FD3946C8
:1014F000E06904F095F8FFF787FB0246042310210A
:101500003A200096019503F025FE00F058FE2420B5
:1015100000E004E003F0F6FA0028DFD086E70C488C
:10152000E169416003F004FF0020208103F036F8F8
:10153000022003F00BFFFFF763FC77E718F1FF1FB2
:101540004469726374696F6E204B6900D8F0FF1FA5
:10155000C4F1FF1F15F1FF1F4B693A000000204145
:10156000FEB55E4CE088002816D160495CA0886119
:101570005F480068A061084600F0B4FE20462430B1
:1015800000F0B7FA20463C3000F0B3FA2046543061
:1015900000F0AFFA0120E08056483F2700783F0670
:1015A00018250C26012827D003282FD0072853D030
:1015B00009285CD004287CD048480121243000F060
:1015C000ECF9464801213C3000F0E7F90C234AA22F
:1015D00010211420009503F051FE4849A06904F041
:1015E0001FF8FFF711FB0246042310213A20009652
:1015F000019503F0AFFDFEBD38480021243000F016
:10160000CCF93946A06903F0C5FF2EE0334800212C
:10161000243000F0C2F9394F18E03F210906A069D3
:1016200003F0B8FFA0610A2002F092FC3946A069DD
:1016300003F0F6FFFFF7E8FA0246042310213A20F0
:101640000096019503F086FD00F0B9FD1B2003F024
:1016500059FA0028E1D0B9E7204800213C3000F0D9
:101660009CF93946A06904F033F8A061AEE71B4845
:1016700000213C3000F091F9204F18E03F2109068D
:10168000A06904F025F8A0610A2002F061FC394647
:10169000A06903F0C5FFFFF7B7FA02460423102143
:1016A0003A200096019503F055FD00F088FD2420B6
:1016B00000E004E003F026FA0028DFD086E70C48BB
:1016C000A169016003F034FE0020E08002F066FFB3
:1016D000022003F03BFEFFF793FB77E718F1FF1FB3
:1016E0004469726374696F6E204B7000D8F0FF1FFD
:1016F000C4F1FF1F15F1FF1F4B703A00000020419D
:10170000F8B5244C05462078002841D0284603F03F
:1017100068FB60610021A0616956814201DD002003
:1017200028701C482978007D1A4C401AC6B25834DB
:1017300068782169884200D80026164866615830CA
:1017400000F0D0FD1348743086616978016100F0C3
:101750003BFD20696978C7B2814200D20F46002460
:101760000AE030191C21484342192001011B1E20A8
:10177000133100F049FC641CBC42F2DB05491C2219
:101780008869504340190122086182700020087066
:10179000F8BD000080F0FF1FF8B5002A7ED054008D
:1017A00054438718012B41D0861A022B7BD0032B80
:1017B00076D0042B72D11546002600910098069A27
:1017C000C1B2B8B200F057FC0098761C401E0090E1
:1017D0006800024671006A4371435118091B081AD8
:1017E000401C002801DD6D1E7F1EAE42E6DB009826
:1017F000069AC1B2B8B200F03EFC28464100700023
:101800006D1E891E0246694372438918091B081818
:10181000401C7F1E002803DC0098401E761C0090B0
:10182000002DE4DC0098C1B2B8B276E000970D4616
:10183000164600270098E9B280B2069A00F01BFC19
:1018400070007F1C01467A0071437A438918091B96
:10185000081A401C6D1C002803DD0098401E761EEF
:101860000090B742E6DB0098E9B280B2069A00F039
:1018700002FC00993046491E009141007800761E16
:10188000891E024671437A438918091B0818401CB7
:10189000002801DC6D1C7F1C002E02E040E002E00D
:1018A0003FE0E0DC75E01546002700910098069ABD
:1018B000C1B2B0B200F0DFFB00987F1C401C00906A
:1018C0006800024679006A4379435118091B081AD7
:1018D000401C002801DD6D1E761CAF42E6DB00983F
:1018E000069AC1B2B0B200F0C6FB284641007800AB
:1018F0006D1E891E024669437A438918091B081820
:10190000401C761C002803DC0098401C7F1C0090C3
:10191000002DE4DC0098C1B2B0B2069A00F0ABFB37
:10192000F8BD00960D46164600270098E9B280B231
:10193000069A00F0A0FB70007F1C024679007243FB
:1019400079435118091B081A401C6D1E002803DD3D
:101950000098401C761E0090B742E6DB0098E9B282
:1019600080B2069A00F087FB00993046491C00912E
:1019700041007800761E891E024671437A43891819
:10198000091B0818401C002801DC6D1E7F1C002E5E
:10199000E4DC0098E9B280B2BFE77CB50446C068D9
:1019A0000D460E287DD3A0681E287AD3206903F047
:1019B00011FAA168884274D825750C2661682068E0
:1019C000002D11D00122801D891D00F02AF9206907
:1019D00003F000FAA168081A218840084018002185
:1019E00080B2009601916CE00022801D891D00F0FC
:1019F00018F9012500952068616803230622801DDF
:101A0000891DFFF7C9FE0095A1682068421861682A
:101A1000801D0B46D21F00F090FA0095A168206847
:101A20000423401861680622C01F891DFFF7B4FE19
:101A30000095E1686068A268411820684B1E821812
:101A4000801D491ED21F00F078FA0095E168606899
:101A5000A26841182068012380180622C01FC91FF0
:101A6000FFF79AFE00956168E0680B182068891DF1
:101A70000246DB1F00F061FA0095E168606802230E
:101A8000411820680622801DC91FFFF785FE0095BA
:101A90006168E068A2680B1820688018421E401E2A
:101AA00000E018E0891DDB1F00F047FA206903F011
:101AB00091F9A168081A21884008401880B2009660
:101AC0000195E168A2880C394908511889B20C23A4
:101AD000226903F0D1FC7CBD38B51446C9B280B28E
:101AE0006A4600F005FB68460178012061408843A2
:101AF00038BD7CB50446C0680E287BD3A0681E287C
:101B000078D3206903F066F9A168884272D801256C
:101B100000952068616803230622801D891DFFF758
:101B20003BFE0095A168206842186168801D0B4645
:101B3000D21F00F002FA0095A16820680423401823
:101B400061680622C01F891DFFF726FE0095E16827
:101B50006068A268411820684B1E8218801D491ECB
:101B6000D21F00F0EAF90095E1686068A2684118A8
:101B70002068012380180622C01FC91FFFF70CFE32
:101B800000956168E0680B182068891D0246DB1F1C
:101B900000F0D3F90095E1686068022341182068DD
:101BA0000622801DC91FFFF7F7FD00956168E068F8
:101BB000A2680B182068891D8018421E401EDB1F7A
:101BC00000F0BBF9207D0C26002814D02068616845
:101BD0000122801D891D00F024F8206903F0FAF825
:101BE000A168081A218840084018002180B2009698
:101BF00001910BE014E0206903F0ECF8A168081AE9
:101C000021884008401880B200960195E168A288BA
:101C10000C394908511889B20C23226903F02CFCB5
:101C20007CBDF7B5D8B00C460546802874D2402C50
:101C300072D2E1B2A8B250AA00F05AFA50A80278C3
:101C40005A98D107C007C90FC00F814264D02146FE
:101C50002846559400F027FA0646569050A8027878
:101C60002146284600F04CFA5490801940082994E7
:101C70000194289001240090254601E0002D7BD09E
:101C8000E90028A808188038816F5291C66F50A8C3
:101C90006D1E0278EDB23146529800F004FA53906E
:101CA00050A802783146529800F02AFA519050A874
:101CB0000278761C31465298FFF70EFF002804D0B8
:101CC00050A802783146529815E0539F08E050A87A
:101CD000027831463846FFF7FFFE002803D17F1C0B
:101CE00051988742F3D951988742C7D850A8529744
:101CF00002783146384600F003FA519050A8027835
:101D00003146529800F0CFF95390142C1FD2471E41
:101D100058975990074617E07EE050A80278711E48
:101D20003846FFF7D9FE002827D05999589888429D
:101D300007D05891E00069460F504018641CE4B287
:101D40004660142C03D27F1C51988742E5D95399E1
:101D500051985A9B4018400852905198F1B282B263
:101D6000539880B200F0D5F8142DA0D2539F599704
:101D70007F1E5897599F19E01FE05997E1E750A837
:101D80000278711C3846FFF7A7FE002813D0599936
:101D90005898884207D05891E80028A90F50401859
:101DA0006D1CEDB24660142D81D27F1C5198874284
:101DB00000D97CE7E3E75997F5E7002C20D0E10054
:101DC000684608188038816F5291C66F50A8641E0B
:101DD0000278E4B23146529800F065F9539050A869
:101DE00002783146529800F08BF9074650A80278E5
:101DF000761E31465298FFF76FFE00280ED020E085
:101E0000002D00D03AE754985A9B82B25598C1B23F
:101E1000569880B200F07DF85BB0F0BD539809E0B1
:101E200050A8027831465198FFF756FE002804D199
:101E30005198401C5190B842F2D95198B842BCD840
:101E4000529050A802783146529800F059F907464E
:101E500050A802783146529800F025F95390142D7D
:101E600020D25990401E5890599818E050A80278F6
:101E7000711C5198FFF730FE002826D059995898C8
:101E8000884208D05891E80028A9519A0A50401871
:101E90006D1CEDB24660142D04D25198401C519037
:101EA000B842E3D95398BAB23818400852905398C0
:101EB000F1B280B25A9B00F02CF8142C96D25398B1
:101EC0005990401E589059981BE051985990E2E75C
:101ED00050A80278711E5198FFF7FEFD002815D01A
:101EE00059995898884208D05891E0006946519A0B
:101EF0000A504018641CE4B24660142CDED251989B
:101F0000401C5190B84200D970E7E1E751985990D0
:101F1000F3E7F8B515461E460F460446A84202D917
:101F2000D0B22546044632463946204600F0A3F892
:101F3000641CA4B2A542F6D2F8BDFFB583B0054635
:101F400005980C46411B06980027021BFF430029F9
:101F500002DD0120029002E0002904DA0297002A43
:101F600009DD012711E0C2B2E1B2A8B20C9B00F07A
:101F700087F807B0F0BD002A07DB0598E1B282B20E
:101F8000A8B20C9BFFF7C5FFF3E702984843394618
:101F90005143420000924A00019288421CDB161A0B
:101FA0000098101A00900EE0E1B2A8B20C9A00F06E
:101FB00062F802982D18002E02DA0198361802E015
:101FC00000988619E41905988542EDD1E1B2A8B2CE
:101FD0000C9A00F050F8CCE70098461A801A01904D
:101FE0000EE0E1B2A8B20C9A00F045F8E419002E18
:101FF00002DA0098361803E00198861902982D1825
:1020000006988442EDD1E1E7FEB514460D4606463A
:10201000802805D8402D03D8022D01D3122E01D2DD
:102020000020FEBDE0680028FBD0A27830461023D7
:10203000A91E12380C27002A12D06268002A04D088
:10204000C9B2C0B2009303F0C2F80020019000971B
:10205000A9B2B0B20C23E26803F00EFA0120FEBD73
:10206000A268002A05D00093C9B2C0B2102303F0C1
:10207000AEF80120EAE710B5C0B202F0B7FF10BD1C
:10208000F8B515461E4607460C46A94201D90D462D
:102090001446324621463846FFF7EDFF641CE4B291
:1020A000A542F6D2F8BDF8B5D507441EED0F0E4691
:1020B000002C0ED0F1B2A0B26A4600F019F86846C2
:1020C0000078C007C00FA84201D0601CF8BD641E94
:1020D000F0D1F1B200206A4600F00AF868460078B4
:1020E000C007C00FA84201D00120F8BD0020F8BDF4
:1020F00010B51446C0B202F095FF2070002010BD4C
:10210000F8B5441CD5070E46ED0F0DE0F1B2A0B2B4
:102110006A46FFF7EDFF68460078C007C00FA84287
:1021200001D0601EF8BD641C802CEFD38020F8BD68
:10213000F8B51C4615460E46074692B2C9B280B2A3
:10214000069BFFF7E6FEAAB2E1B2B8B2069BFFF724
:10215000E0FEE2B2F1B2B8B2069BFFF791FFE2B245
:10216000F1B2A8B2069BFFF78BFFF8BDF8B5174692
:102170001E460C460546B84201D915460746B442EC
:1021800001D91C460E46B44206D1BAB2E1B2A8B299
:10219000069BFFF7BEFEF8BDBD420DD1F2B2E1B223
:1021A000A8B2069BFFF76CFFF8BDBAB2E1B2A8B2C5
:1021B000069BFFF7AEFE641CB442F6D9F8BD10B51D
:1021C00002F044FF10BD0000F8B5040052D0A26830
:1021D0000A2A4FD3E06814284CD301250095616882
:1021E0000B1820685B1E8218521EFFF7A1FF0826FD
:1021F0000096208921780838400808182179C0B253
:10220000491CC9B233461C4A02F0E1FF009620790E
:10221000217B227840180938C1B220890823083868
:1022200040081018144AC0B2083202F0D0FF0095DE
:10223000A168206842186168521E09310B46FFF7F9
:102240007CFE0095E1686068A268411820680A3940
:1022500082180B46521EFFF770FEE0686269216922
:1022600014388A4202D25043FDF7D2FFE061204683
:1022700000F004F8F8BD0000C67E0000FEB504467C
:102280008189808B091A14398EB22188491C8AB23F
:102290000192A188721E0A318DB280182189002214
:1022A0000092C91E019A89B280B257182B183A467B
:1022B00029460198FFF75AFF21696069814201D8D8
:1022C000002005E0A069491E7043FDF7A1FF80B220
:1022D000012100912918E269019853183A46FFF745
:1022E00045FFFEBDFEB58168044614293BD3E36873
:1022F000142B38D320684218802A34D86168CB1850
:10230000402B30D80025521E5B1E0095FFF72EFF94
:10231000012600966168E068A2680B1820685B1EC1
:102320008218521EFFF704FF20882189174B41189D
:10233000491E8AB2217980B20E31C9B21B78FFF7EB
:10234000E8FD0096A168206842186168521E0B469D
:102350000D33FFF70BFFA06902F051FD0246A068A4
:10236000811E8A4201D90020FEBD80B20C21019558
:1023700000910290A0880C23401C81B22088A269A1
:1023800080B203F0D1F80120FEBD000076F0FF1FFF
:1023900010B5242002F0B6FB10BD10B51C2002F0D1
:1023A000B1FB10BD10B51B2002F0ACFB10BD00004E
:1023B000F8B50F4D0024A8680E4E000712D50E4F39
:1023C000387884420ED2E96820460C2250433258B5
:1023D000114204D080198068002800D08047641C16
:1023E000E4B2EDE7A86824210843A860F8BD000026
:1023F0000090074028F3FF1F62F0FF1FF8B50F4D54
:102400000024A8680E4E000712D50E4F387884427B
:102410000ED2E96820460C2250433258114204D0B3
:1024200080198068002800D08047641CE4B2EDE782
:10243000A86824210843A860F8BD000000A0074058
:1024400028F3FF1F62F0FF1F10B52C2002F05AFB8B
:1024500010BD10B501212D2002F070FB10BD10B58C
:1024600000212D2002F06AFB10BD10B501212C20A7
:1024700002F064FB10BD10B500212C2002F05EFBC1
:1024800010BD08B500206946C87048702C2008703F
:1024900001208870684602F071FA08BD08B5002076
:1024A0006A46D070012050702C21117090706846DF
:1024B00002F064FA08BD0000F0B500210F4D104F86
:1024C000104B0A4605261C204843401946708C00D4
:1024D0008270476082601C5902614261491CC9B226
:1024E000C46082610529EED30120A87006482861E6
:1024F0000648E86201488C306863F0BDE0FEFF1FCB
:10250000D67E0000B8F0FF1F3D4E00000D4E0000CB
:10251000F8B5674E7068FFF7F3F86649002708784A
:10252000002800D0F760624C583401285BD007289F
:1025300054D13E237522122101200097FFF716FE89
:10254000B0691C2148437168401830618770B069D8
:10255000401CB06172685178491E814200DCB16153
:10256000B0691C2148438018012130618170726874
:102570001078401C43B21370204651782469A14260
:1025800005D80D468B420EDB491E11700BE0E5B2FB
:10259000641EA34207D914700269891A42699142E4
:1025A00001D9521C4261002410E041481C215830DE
:1025B00040694843716841181C2060430A18200193
:1025C000011B1E201331FFF71FFD641CAC42ECDB26
:1025D0003748B16974308161FFF750FE35480078A3
:1025E000042849D04DE03E23752212210120009796
:1025F000FFF7BCFDB1691C22514372688818306135
:102600008770B069401EB061002800DCB761B06916
:102610001C21484371684018012130618170716844
:102620000878401E42B20A704D78236920469D42C8
:1026300003D8002A0ADA0F7008E0DDB2002A05DAB2
:102640000F704169002901D0491E6161002410E02A
:1026500017481C21583040694843716841181C20B4
:1026600060430A182001011B1E201331FFF7CCFC28
:10267000641CAC42ECDBABE730690069002800D099
:102680008047F068411CF16064280FDDF760306915
:102690004169002908D0877070691C21484371681E
:1026A000401801213061817002F070FBF8BD00001C
:1026B00080F0FF1F15F1FF1F8307FF22DB0E9A40FA
:1026C0008907090E994000280BDA0007000F083827
:1026D000830808489B001818C36993430B43C361E0
:1026E0007047830804489B001818036893430B4302
:1026F0000360704700ED00E000E400E0F0B5002169
:10270000154B164C164E0A4607251C204843C01888
:1027100082610261446082608F0082704570426114
:10272000491CF759C9B2C7600729EED30120987038
:102730000C4818610C48D8620C4898640C485866DC
:1027400005480C49803001600B49C16102498C3950
:1027500001640A498163F0BDF8FFFF1FD67E0000C7
:102760009CF0FF1FC94E0000B14E0000994E0000C2
:10277000814E0000694E0000514E00000D4E0000D9
:1027800010B5074CE068C00704D006480068002870
:1027900000D08047E06801210843E06010BD0000E0
:1027A0000071034040F0FF1F10B5074CE069C007FF
:1027B00004D006484068002800D08047E069012125
:1027C0000843E06110BD00000071034040F0FF1FAE
:1027D000F0B50021104C114B114E0A4603251C2068
:1027E0004843001945708261026143608F00826036
:1027F00082704261491CF759C9B2C7600329EED300
:1028000001200549A0708C31A1610648FF39206183
:1028100019392165A064F0BD6CFFFF1FD67E000052
:10282000CCF0FF1F0D4E000010B5074C607800285B
:1028300008D0201DFFF756FD20462030FFF7C4FCCE
:102840000020607010BD000084F1FF1FFEB5FFF78F
:10285000EBFF7A487A4D00782E460C240627403E3E
:10286000002802D0012868D0C5E0062375A20F21F8
:102870000320009402F002FD714800978038019413
:10288000C28D03230F211B2002F064FC06236FA2DC
:102890000F214120009402F0F1FC00970194F28A8C
:1028A00003230F215F2002F055FC062369A221219A
:1028B0000320009402F0E2FC009701947288032345
:1028C00021211B2002F046FC062364A22121412085
:1028D000009402F0D3FC00970194728D0323212110
:1028E0005F2002F037FC06235EA232210320009411
:1028F00002F0C4FC5D4E286B314602F091FEFEF7FB
:102900005DF902B2032332211B200097019402F0EB
:1029100021FC062356A232214120009402F0AEFC95
:102920003146686B02F07CFEFEF748F902B20323E1
:1029300032215F20009701945BE006234EA20F2115
:102940000320009402F09AFC009701946A88042303
:102950000F211B2002F0FEFB062349A20F21372086
:10296000009402F08BFC00970194AA8804230F21A5
:10297000552002F0EFFB062343A2212103200094FF
:1029800002F07CFC3E2200970194B25E04232121D8
:102990001B2002F0DFFB06233DA2212137200094FB
:1029A00002F06CFC002200970194AA5E042321210E
:1029B000552002F0CFFB062337A2322103200094DA
:1029C00002F05CFC1E4D0097803D01942A8E03238B
:1029D00032211B2002F0BEFB06232FA2322137201A
:1029E000009402F04BFC009701942A8E03233221BD
:1029F000552002F0AFFB2A48104A00780121121D31
:102A0000072809D001280FD0042804D1101F4170D5
:102A1000002002F09BFCFEBD08480378002BFAD191
:102A2000017041701FA007E004480378012BF2D128
:102A300000230370417020A09061FEBD84F1FF1F50
:102A400044F2FF1F485F4C3A00000000485F523AD2
:102A500000000000565F4C3A00000000565F523AFA
:102A6000000000004841453A000000000000C84254
:102A70005641453A000000004C5F453A0000000016
:102A8000525F453A000000004C5F503A00000000E1
:102A9000525F503A000000004E6F723A0000000092
:102AA00015F1FF1F4D6F746F7220506172616D657B
:102AB000746572730000000053656E736F7220506E
:102AC0006172616D6574657273000000F0B5034654
:102AD000084649008C465C5A15E0521E904203DAC3
:102AE0005100595AA142F8D25100904204DA5D5A7D
:102AF000A54201D8401CF8E7904204DA46009D5BED
:102B00005F5A9F535D529042E8DB41005D5A624636
:102B10009D525C52F0BD0000FEB55E4CA0880028BE
:102B200016D160495CA088615F48006A6061084610
:102B3000FFF7D8FB20462430FEF7DBFF20463C3071
:102B4000FEF7D7FF20465430FEF7D3FF0120A080C8
:102B500056483F2700783F0618250C26012827D025
:102B600003282FD0072853D009285CD004287CD014
:102B7000484801212430FEF710FF464801213C302F
:102B8000FEF70BFF0C234AA210211420009502F03F
:102B900075FB4849606902F043FDFEF735F80246CF
:102BA000042310213A200096019502F0D3FAFEBDCD
:102BB000384800212430FEF7F0FE3946606902F003
:102BC000E9FC2EE0334800212430FEF7E6FE394FC1
:102BD00018E03F210906606902F0DCFC60610A2010
:102BE00001F0B6F93946606902F01AFDFEF70CF8FB
:102BF0000246042310213A200096019502F0AAFA19
:102C0000FFF7DDFA1B2001F07DFF0028E1D0B9E7D6
:102C1000204800213C30FEF7C0FE3946606902F0D2
:102C200057FD6061AEE71B4800213C30FEF7B5FE62
:102C3000204F18E03F210906606902F049FD6061FC
:102C40000A2001F085F93946606902F0E9FCFDF7D8
:102C5000DBFF0246042310213A200096019502F082
:102C600079FAFFF7ACFA242000E004E001F04AFF13
:102C70000028DFD086E70C486169016202F058FB4A
:102C80000020A08001F08AFC022002F05FFBFEF72A
:102C9000B7F877E718F1FF1F5370656564204B6440
:102CA00000000000D8F0FF1FC4F1FF1F15F1FF1F47
:102CB0004B643A0000002041FEB55E4C608800285D
:102CC00016D160495CA088615F48C06920610846F0
:102CD000FFF708FB20462430FEF70BFF20463C3070
:102CE000FEF707FF20465430FEF703FF0120608007
:102CF00056483F2700783F0618250C26012827D084
:102D000003282FD0072853D009285CD004287CD072
:102D1000484801212430FEF740FE464801213C305E
:102D2000FEF73BFE0C234AA210211420009502F06E
:102D3000A5FA4849206902F073FCFDF765FF0246D9
:102D4000042310213A200096019502F003FAFEBDFB
:102D5000384800212430FEF720FE3946206902F071
:102D600019FC2EE0334800212430FEF716FE394FBF
:102D700018E03F210906206902F00CFC20610A20BE
:102D800001F0E6F83946206902F04AFCFDF73CFF05
:102D90000246042310213A200096019502F0DAF948
:102DA000FFF70DFA1B2001F0ADFE0028E1D0B9E7D6
:102DB000204800213C30FEF7F0FD3946206902F042
:102DC00087FC2061AEE71B4800213C30FEF7E5FDA3
:102DD000204F18E03F210906206902F079FC2061AC
:102DE0000A2001F0B5F83946206902F019FCFDF718
:102DF0000BFF0246042310213A200096019502F0B1
:102E0000A9F9FFF7DCF9242000E004E001F07AFEE4
:102E10000028DFD086E70C482169C16102F088FAFA
:102E20000020608001F0BAFB022002F08FFAFDF76B
:102E3000E7FF77E718F1FF1F5370656564204B6962
:102E400000000000D8F0FF1FC4F1FF1F15F1FF1FA5
:102E50004B693A0000002041FEB55E4C20880028F6
:102E600016D160495CA088615F488069E0600846CF
:102E7000FFF738FA20462430FEF73BFE20463C3070
:102E8000FEF737FE20465430FEF733FE0120208047
:102E900056483F2700783F0618250C26012827D0E2
:102EA00003282FD0072853D009285CD004287CD0D1
:102EB000484801212430FEF770FD464801213C308E
:102EC000FEF76BFD0C234AA210211420009502F09E
:102ED000D5F94849E06802F0A3FBFDF795FE0246EC
:102EE000042310213A200096019502F033F9FEBD2B
:102EF000384800212430FEF750FD3946E06802F0E2
:102F000049FB2EE0334800212430FEF746FD394FBF
:102F100018E03F210906E06802F03CFBE0600A206F
:102F200001F016F83946E06802F07AFBFDF76CFE16
:102F30000246042310213A200096019502F00AF976
:102F4000FFF73DF91B2001F0DDFD0028E1D0B9E7D6
:102F5000204800213C30FEF720FD3946E06802F0B1
:102F6000B7FBE060AEE71B4800213C30FEF715FDE3
:102F7000204F18E03F210906E06802F0A9FBE0605D
:102F80000A2000F0E5FF3946E06802F049FBFDF752
:102F90003BFE0246042310213A200096019502F0E0
:102FA000D9F8FFF70CF9242000E004E001F0AAFDB5
:102FB0000028DFD086E70C48E168816102F0B8F9AB
:102FC0000020208001F0EAFA022002F0BFF9FDF7AC
:102FD00017FF77E718F1FF1F5370656564204B708A
:102FE00000000000D8F0FF1FC4F1FF1F15F1FF1F04
:102FF0004B703A000000204110B500F001F810BD00
:1030000070B50F4900244868002805D04868401E64
:10301000486001D1012008708868401C8860886879
:10302000084A904201D100208860074D1420604377
:10303000401901F009F8641CE4B2062CF6D370BD07
:1030400068F0FF1FFFFFFF7F08F8FF1F10480F49C0
:103050008180012141702321017011200D4900055B
:1030600048620D48002141700C4A962111701A21C6
:1030700001700179C906FCD401790907890FFBD1D8
:1030800007490868400848608860704703E8000006
:1030900000200540008004400040064000500640EB
:1030A00034F0FF1FF8B5254A002013790146137943
:1030B0009B063ED5D279224D00262B78214C002B41
:1030C00014D0012B17D0022B1DD0032B1ED0E77874
:1030D0007F1D9F4202D9E2545B1C2B70E3782F784E
:1030E0005A1DBA4225D12E701A1D17E0AA2AF5D111
:1030F0002270012205E0AF2A01D02E70EEE7627047
:1031000002222A70EAE7A2700322FAE7E2700422A0
:10311000F7E7275C7918401CC9B2C0B28242F8D8E0
:103120000848001D185C884201D06E7001E0A0784C
:103130006870054800F0D6FFF8BD000000A006400A
:1031400074F0FF1FE0FCFF1FE0F5FF1F70477047A2
:1031500030B47446641E2578641CAB4200D21D4610
:10316000635D5B00E31830BC18470020704710B562
:1031700001F00CFB00F036FF00F07CFF00F01EFCBD
:1031800000F004FA00F025F900F04CFE00F09CFA83
:1031900000F038FA00F004F800F092FD62B610BDBD
:1031A00038B51F484169202211434161C16803229B
:1031B00012069143C160C168012212061143C16029
:1031C00018490A68920892000A600A6818231A438C
:1031D0000A6000224A604169402421434161C1687C
:1031E000DC05A143C160C1680124E4062143C1603C
:1031F0000D48016801600168194301604260694639
:10320000CA704A700A20087001208870684601F070
:10321000B5FB262069460870684601F0AFFB38BD53
:1032200000800440008003400090034010B5074830
:10323000074A81885368C9188180064B41885C68B9
:103240000919418000205060586010BD44F2FF1FF2
:103250000080034000900340F8B5089C0D461E46D0
:10326000079FA047A847B047052000F081FEB84758
:10327000052000F07DFEA047F8BDF8B5089C0D467E
:103280001646079FA047A847B047052000F070FEEC
:10329000B847052000F06CFEA047F8BD0FB4FEB59E
:1032A000002508982C460D9F0C9E80470E9880475D
:1032B000052000F05DFEB8476006040EB047012807
:1032C00001D1641CE4B2032000F052FE6D1CEDB28B
:1032D000082DEBD30F9808AD00280E9801970096A3
:1032E00002900FCD06D0FFF7B7FF2046FEBC08BC0A
:1032F00004B01847FFF7C1FFF7E70FB4F8B517465A
:1033000000240C9E0D9D8847B047E80901D0B847BE
:1033100001E0099880476806050E052000F028FEA8
:103320000B988047052000F023FEB047022000F0F4
:103330001FFE641CE4B2082CE7D3F8BC08BC04B040
:103340001847F8B514461D46089F079E8847A047B2
:10335000B047042000F00CFEA847042000F008FE4F
:10336000B847F8BDF8B514461D46089F079E884724
:10337000B847A847042000F0FBFDB047A047042051
:1033800000F0F6FDF8BD0FB4FEB50CACE0CC08982B
:10339000002480470A988047012000F0E9FDB047EB
:1033A000012000F0E5FD0EE0641CE4B2FA2C0AD91D
:1033B0006846E0C008AC0FCCFFF7D4FF0120FEBC8C
:1033C00008BC04B01847A8470028EDD1B847002032
:1033D000F5E708B51B206A461070002050700121E7
:1033E0009170D070684601F0C9FA01211B2001F0EC
:1033F000A5FB1C206A461070684601F0BFFA012147
:103400001C2001F09BFB24206A461070684601F0E6
:10341000B5FA0121242001F091FB00F057F808BD16
:1034200070B505460C202849684344182068804739
:103430006A0005210026AB180028207903D0052852
:1034400030D921713CE0052801D2217170BD0A28D4
:1034500002D2401C207170BD690060796D186D1C2E
:10346000012803D16671E8B200F06AF8608900288B
:1034700009D02089401C80B2208161898842EAD12C
:10348000DB1CD8B20BE0A0790028E4D0E079401C26
:10349000C0B2E071A1798842DDD3E671E8B200F0F4
:1034A0004FF870BD002802D0401E207108E06079FE
:1034B000002805D1012060719B1CD8B200F040F8B3
:1034C000E671268170BD0000A0F8FF1F70B50F489F
:1034D00000218172C172012403460170322510332C
:1034E0000A46047302260C204843C0184581067121
:1034F0004471491CC271C9B282710329F3D30448D3
:1035000018600448D8600448986170BD90F8FF1FA7
:10351000A52300009B23000091230000074A917A15
:10352000D07A814201D100207047505C491CC9B259
:1035300091720A29F8D300219172704790F8FF1F09
:1035400009280AD80549CA7A8854C87A401CC0B2EA
:10355000C8720A2801D30020C872704790F8FF1F74
:1035600010B5002401211B2001F0E8FA01211C20E4
:1035700001F0E4FA0121242001F0E0FA2046FFF7EF
:103580004FFF641CE4B2032CF8D310BD08B518201B
:10359000694608700120887048700020C87068462D
:1035A00001F0ECF9192069460870684601F0E6F967
:1035B000002000F001F808BD10B5002804D0012853
:1035C0000BD0022808D103E00021182001F0B6FA40
:1035D0000021192001F0B2FA10BD00211820F9E7EE
:1035E00010B5002804D0012809D0022806D102E035
:1035F000182001F095FA192001F092FA10BD182058
:10360000FAE700003EB500246946CC7201204872FA
:10361000252008728C7202A801F0B0F90021252043
:1036200001F08CFA0E48694608800F200871CC80A2
:10363000684601F007F90A48694642300880684642
:1036400001F000F9074869460880684601F0FAF879
:1036500003486946E8300880684601F0F3F83EBD4B
:1036600030A40000F6A80000F8B5154F0546144830
:10367000423703260C46002905DBCC1CA1B201F021
:1036800063F9032104E0032101F05EF9301B81B2EC
:10369000384601F059F90A4C0A48E834002D05DB98
:1036A000ED1CA9B201F050F9032104E0032101F05F
:1036B0004BF9701B81B2204601F046F9F8BD0000BD
:1036C00030A40000F6A8000010B500F039F8802101
:1036D0006B2000F011F9C82000F03AFC00216B20AB
:1036E00000F00AF9032000F0CEF8002000F0C4F842
:1036F000142000F0E9F800216A2000F0FDF8002114
:10370000232000F0F9F88021372000F0F5F800219F
:10371000382000F0F1F8752000F044F8682801D056
:10372000012010BD01216B2000F0E6F800216C2083
:1037300000F0E2F8322000F0C7F8002010BD0000D1
:1037400008B500206A46D070012050702C211170FD
:103750009070684601F012F92D206A461070684694
:1037600001F00CF90848074941610849816108499D
:1037700081600849C1600849016008494160084901
:10378000016108BD53240000C4FCFF1F5F2400003A
:103790006B24000077240000832400009D24000097
:1037A000492400007FB5334C05462046103007C839
:1037B0006B4607C30FCC103CFFF7C3FDD02010347D
:1037C000039007CC6B4607C31C3C0FCC103CFFF7A3
:1037D00094FD103407CC6B4607C31C3C0FCC103C47
:1037E000FFF7D1FD1034039507CC6B4607C31C3C93
:1037F0000FCC103CFFF781FD103407CC6B4607C39C
:103800001C3C0FCC103CFFF7BEFD103407CC6B46C0
:1038100007C31C3C0FCC103CFFF793FDD1201034A4
:10382000039007CC6B4607C31C3C0FCC103CFFF742
:1038300064FD103407CC6B4607C31C3C0FCC103C16
:10384000FFF7A1FD00201034039007CC6B4607C39F
:103850001C3C0FCC103CFFF721FD0546103407CC73
:103860006B4607C31C3C0FCCFFF77CFD284604B019
:1038700070BD0000C4FCFF1FC00610B5010E1C2067
:1038800000F03AF810BDC00610B5010E1B2000F084
:1038900033F810BD10B5BC2801D3012110E0622817
:1038A00001D302210CE02A2801D3032108E01428C7
:1038B00001D3042104E00A2801D3052100E00621F8
:1038C0001A2000F019F810BD10B504467D20C00084
:1038D000844201D9044602E0042C00D2042421468B
:1038E000FCF796FC401EC1B2192000F005F86008F4
:1038F000FFF7D0FF10BD00007FB52F4C06462046D5
:103900000D46103007C86B4607C30FCC103CFFF7BD
:1039100018FDD0201034039007CC6B4607C31C3C25
:103920000FCC103CFFF7E9FC103407CC6B4607C303
:103930001C3C0FCC103CFFF726FD002827D1204669
:103940001030039607C86B4607C30FCC103CFFF737
:10395000D4FC103407CC6B4607C31C3C0FCC103C86
:10396000FFF711FD1034039507CC6B4607C31C3CD1
:103970000FCC103CFFF7C1FC103407CC6B4607C3DB
:103980001C3C0FCC103CFFF7FEFC00280AD0204660
:10399000103007C86B4607C30FCCFFF7E3FC0120CC
:1039A00004B070BD2046103007C86B4607C30FCC6B
:1039B000FFF7D8FC0020F3E7C4FCFF1F10B500F0B0
:1039C0007DF80121432001F0B9F8642000F0C0FA2D
:1039D0000021432001F0B2F8642000F0B9FA01217F
:1039E000432001F0ABF80021AE2001F075FC00216E
:1039F000D52001F071FC0021502001F06DFC002168
:103A0000A82001F069FC00213F2001F065FC0021A5
:103A1000D32001F061FC0021084601F05DFC00218B
:103A2000402001F059FC00218D2001F055FC0021BF
:103A3000142001F051FC0021202001F04DFC002158
:103A4000022001F049FC0021A12001F045FC0021E9
:103A5000C02001F041FC0021DA2001F03DFC0021F2
:103A6000122001F039FC0021812001F035FC0021F9
:103A7000EF2001F031FC0021D92001F02DFC0021C4
:103A8000F12001F029FC0021DB2001F025FC0021C0
:103A9000302001F021FC0021A42001F01DFC0021B8
:103AA000A62001F019FC0021AF2001F015FC01F067
:103AB00087FA0021084600F026F810BD08B500205E
:103AC0006A46D070012151702321117090706846B0
:103AD00000F054FF42206A461070684600F04EFF26
:103AE00017206A461070684600F048FF43206A4677
:103AF0001070684600F042FF16206A461070684653
:103B000000F03CFF08BD10B50446B031C8B200213A
:103B100001F0E2FB20090021103001F0DDFB20075D
:103B2000000F01210843002101F0D6FB10BD000069
:103B3000F0B587B0002005900190029003900490AA
:103B4000102000210090082353A2084601F096FBA4
:103B500001F07CFA544F00203D464035142141438A
:103B60000022C919401C0A8680B24A860428F5D36F
:103B700005984E49884269D20026002E06D0012EB3
:103B800013D0022E1FD0032E3AD12AE001200021AB
:103B9000800300F043FD444920314A7B5200D21992
:103BA0001087487B401C48732AE0012000218002D6
:103BB00000F034FD69784900C9194031888168787E
:103BC000401C68701CE001200021C00200F026FDAE
:103BD000697D4900C91940310884687D401C6875B9
:103BE0000EE001200021C00300F018FD2E496031D5
:103BF0004A7A5200D21940329086487A401C487264
:103C000014207043C41920462030417B042901D37D
:103C100000214173204638300322002101F0A7FC27
:103C2000218EE08F814200D22086618E208F8142DA
:103C300000D96086761CB6B2042E9ED3052000F013
:103C400087F90598401C80B2059092E7002001ABEF
:103C500014214143C91942000C8E9C528031D21864
:103C6000401C498880B211810428F1D310200090B3
:103C700008230FA20221002001F000FB01F0E6F969
:103C8000FD2000F06FFD0023102201A9FD2000F0AF
:103C9000AFFD07B0F0BD000043616C6962726174F2
:103CA000696F6E2E2E2E0000C4F1FF1FB80B0000AE
:103CB00043616C6962726174696F6E204F4B2100C1
:103CC0000EB533208002009001216A461171002058
:103CD00090721072507120235372D172D071684665
:103CE00000F0C4FC0EBD0000F8B5002414202146ED
:103CF00041430A480D18288E6E8E801BFCF7C0FFCA
:103D00000746E88D801BFCF7BBFF3946FCF7A6FE93
:103D1000641CE4B26863042CE8D3F8BDC4F1FF1F4F
:103D2000F8B53F4E002534464034002D06D0012D15
:103D300013D0022D1FD0032D3AD12AE001200021FB
:103D4000800300F06BFC364920314A7B5200921907
:103D50001087487B401C48732AE001200021800224
:103D600000F05CFC617849008919403188816078F5
:103D7000401C60701CE001200021C00200F04EFCDD
:103D8000617D4900891940310884607D401C60755F
:103D90000EE001200021C00300F040FC204960310A
:103DA0004A7A5200921940329086487A401C4872F2
:103DB000142068438019014620314A7B042A01D32C
:103DC00000224A7301462E310422383000F0F0FF01
:103DD000FFF78AFF6D1CEDB2042DA6D3756BF46D51
:103DE0002946204601F0D6FB07462946204601F029
:103DF0006FFC3946FCF732FE094C80342063356F86
:103E0000B66C2946304601F0C5FB074629463046C8
:103E100001F05EFC3946FCF721FE6063F8BD00004E
:103E2000C4F1FF1F08B500206946C87048702820FB
:103E3000087001208870684600F0A0FD012128204C
:103E400000F022FE0121282000F078FE292069469A
:103E50000870684600F092FD0121292000F014FE50
:103E60000121292000F06AFE342069460870684666
:103E700000F084FD0121342000F006FE01213420F1
:103E800000F05CFE372069460870684600F076FD59
:103E90000121372000F0F8FD0121372000F04EFE0F
:103EA00008BD70B5282000F02DFE0446292000F042
:103EB00029FE40000443E4B2342000F023FE8500D4
:103EC000372000F01FFEC0000543E8B2204370BD5C
:103ED000F0B585B01546022803D90020C04305B0CF
:103EE000F0BD0C4EC400325D012A0FD06A4610703E
:103EF000012757700320107268460395019100F066
:103F000033FE3755A01945600020E8E70120C04383
:103F1000E5E7000080F8FF1F70B5062802D90020F1
:103F2000C04370BD1424094D60434419267B012E03
:103F300009D06160002666702B5401202073A160B7
:103F40003046226170BD0120C04370BD08F8FF1FDC
:103F5000002809D0012800D102200449486000202F
:103F6000087008780128FCD17047000068F0FF1F36
:103F7000F8B50D4E0746756900240D480B490068D9
:103F8000FCF746F97843B1690246B0698842FCD033
:103F9000884201D2091A01E02B1A59180C1901465E
:103FA0009442F2D3F8BD000000E000E040420F0070
:103FB00034F0FF1F70B5022802D90020C04370BD45
:103FC000074DC400295D002906D000F029FE00201D
:103FD00028556119486070BD0120C04370BD0000C4
:103FE00080F8FF1F70B50021124B0C4614224A4383
:103FF000D0184460846044709C54491C0461C9B268
:1040000004730629F2D30C487D21C9000068FCF72F
:10401000FFF80A49401E88420BD8094948610948FF
:104020000723C2691202120A4D042A43C2618C613D
:104030000B6170BD08F8FF1F34F0FF1FFFFFFF008A
:1040400000E000E004ED00E04168002910D0416884
:10405000491E41600CD1012141700178012903D131
:1040600081684160002141700069002800D000474C
:10407000704700001FB50121022000F005FD01215D
:10408000032000F001FD00F051F8E1204002009013
:10409000012003900C206946488100200881C880D7
:1040A000094C8880204600F0F3FD08480168C87874
:1040B00020221043C8700649D00108600121204623
:1040C00000F0CAFD1FBD000000A00640E0F5FF1F84
:1040D00000E100E0012801D000207047004870474F
:1040E000E0F5FF1F01680A79120701D50A79CA793C
:1040F0000A790A79120612D5828A002A10D0438AD8
:104100004268D25CCA71418A491C89B24182828963
:10411000914201D300214182818A491E81827047E8
:10412000C8784006400EC870704700000B480A4926
:1041300001600B498160014628314160FF21013156
:10414000C1818181002141830183C18281824182B9
:104150004162C1610162704700A00640E0F5FF1FA7
:1041600008F7FF1FF8B50023FFF7B4FF002820D0A1
:10417000002517E08489878A6E4637803688B442E6
:10418000F9D9CC5C078A4668F455048A641CA4B249
:1041900004828689B44200D30582848A641C8482A6
:1041A0005B1C9BB29342E5D30068C1788022114327
:1041B000C170F8BD10B5074C2078012809D0012046
:1041C000207000F009F800F0ABF900F05DF8002075
:1041D000207010BD67F0FF1F10B5104C60780028EC
:1041E0001AD0132814D008DC02280BD010280CD0C9
:1041F00011280DD012280DD10AE0142808D0152856
:1042000008D105E000F004F904E000F085F8102082
:1042100000F062F90020607010BD000074F0FF1F14
:1042200070B588B00E460446154620216846FBF757
:10423000EDFF1B2D02D9002008B070BDAA206946F1
:10424000087048708E70CD7000216846431908E0F0
:10425000625C461832711A79465C9219491C1A71CF
:10426000C9B2A942F4D32C462A1D05E01979065D8E
:104270008919641C1971E4B29442F7D301466A1D8E
:104280000120FFF76FFFD6E710B588B02021684600
:10429000FBF7BCFF1E486946C08F1D4C02120A7016
:1042A00048704034208802128A70C870002008715B
:1042B00048716088020A8A71C871002008724872C9
:1042C000A088020A8A72C8721249A06801F0A8F98F
:1042D000FCF774FC020E69460A7302144A73021258
:1042E0008A73C8730B49E06801F09AF9FCF766FC21
:1042F000020E69460A7402144A7402128A74C8745F
:104300001422F1216846FFF78BFF08B010BD0000B2
:1043100004F2FF1F0000204170B53A48417902794C
:104320000802104340BA00B2FCF7AAFC364D2946F9
:10433000FCF794FB354C20603248C1798279080241
:10434000104340BA00B2FCF79BFC2946FCF786FB01
:1043500060602C48417A027A0802104340BA00B2E9
:10436000FCF78EFCA0602748C17A827A08021043CD
:1043700040BA00B2FCF784FC2946FCF76FFBE06012
:104380002048417B027B0802104340BA00B2FCF790
:1043900077FC2946FCF762FB20611A48C17B827BCF
:1043A0000802104340BA00B2FCF76AFC606115488D
:1043B000417C027C0802104340BA00B2FCF760FC6A
:1043C0002946FCF74BFBA0610E48C17C827C0802A9
:1043D000104340BA00B2FCF753FC2946FCF73EFB01
:1043E000E0610848417D027D0802104340BA00B2F6
:1043F000FCF746FC2946FCF731FB206200F098FFF1
:1044000070BD0000E0FCFF1F00002041C4F1FF1F51
:1044100030B585B014216846FBF7F8FE2C4C2D4DC5
:104420002068294601F0FCF8FCF7C8FB0212694637
:104430000A7048702946606801F0F2F8FCF7BEFB8C
:10444000021269468A70C870A068FCF7B7FB0212B6
:1044500069460A7148712946E06801F0E1F8FCF705
:10446000ADFB021269468A71C8712946206901F0C4
:10447000D7F8FCF7A3FB021269460A72487260691A
:10448000FCF79CFB021269468A72C8722946A06931
:1044900001F0C6F8FCF792FB021269460A734873F2
:1044A0002946E06901F0BCF8FCF788FB0212694676
:1044B0008A73C873206AFCF781FB021269460A748A
:1044C0004874122210216846FFF7AAFE05B030BDDD
:1044D000C4F1FF1F000020411CB500210091019193
:1044E000AA216A4611705170EF2191700721D17095
:1044F00010710A48C178001D085C5071002069469F
:104500000B5C8A79401CD218C0B28A710728F7D395
:1045100007220120FFF726FE1CBD0000E0FCFF1F64
:1045200030B585B014216846FBF770FE19486A461D
:10453000C08D184C010A117050701648164D40304D
:10454000418880340B0A9370D170C18A0B0A1371B1
:104550005171408D010A9171D0712946206B01F093
:104560005FF8FCF72BFB0104090E6A4611725072CA
:104570002946606B01F054F8FCF720FB0104090E9A
:104580006A469172D0720C22F2216846FFF748FE0B
:1045900005B030BDC4F1FF1F0000C84210B5FDF7E3
:1045A0008BFFFEF715F9FEF7A9F810BD10B5FEF761
:1045B000B5FF194C0028607007D02078002804D17E
:1045C000022000F0C3FE0020607020780300FEF798
:1045D000BFFD0A09200C060F1215181B1E20FEF73E
:1045E00035F916E000F0B4FC13E0FDF791FF10E0A0
:1045F000FEF732FC0DE0FEF75FFB0AE0FEF78CFAF7
:1046000007E0FCF7ADFF04E0FCF7DAFE01E0FCF7A1
:104610000BFEFDF7D4FD10BD14F1FF1F0022034671
:10462000D340DB0703D1521C92B2102AF7D3C30345
:1046300000D51022800300D516220B4B9868084342
:104640009860986898609868986058685860D00634
:10465000C00E186018680006FCD51869196880B289
:10466000802291431960704700B00340F8B50026DE
:104670000546012134463746480700F0E1FA354B3C
:1046800098692968084398619868A97908439860EF
:104690009868697A084398609868A97A084398608E
:1046A0005868E97A08435860287A012800D1202602
:1046B00069794020012903D10643274A410211604C
:1046C000E979002902D0D9680143D9602868D968FE
:1046D0002A79521ED2B21143D96020490246E240E3
:1046E000D207D20F11D0E206D20E1A4B32431A6013
:1046F0001B4B01221B78A2409C469B00CA5063467C
:104700005B1C174A7F1C1370FFB22A79BA4203D987
:10471000641CE4B2102CE1D3C2030BD510220D4B64
:1047200032431A600E4B01241A78240495004C5130
:10473000521C1A7080030BD51620064305480660EC
:10474000074A012310785B0484000B51401C107051
:10475000F8BD000000B0034000E100E0C8F2FF1F18
:1047600048F0FF1F410210B50748002242700A239B
:1047700043720B0C037201234370090A41720272E7
:1047800000F020F8002010BD0000024010B501210B
:10479000080300F055FA084C60790006FCD508487B
:1047A00006490068FBF734FD401E8006800E40304D
:1047B000E0703020607110BD0000024040420F00E8
:1047C00038F0FF1F10B572B63020074C60710749F2
:1047D000481F0160601D884762B660793321084038
:1047E00000D0012010BD00000000024055F0FF1F66
:1047F000F8B50026400217460C46C5181CE01048C4
:104800000021417006214172290C01720121417081
:10481000290A417205720221417021780172617882
:10482000417203214170A1780172E1784172241D27
:104830002D1DFFF7C7FF361DBE42E0D30020F8BD97
:1048400000000240F1B582B0029800240088820680
:10485000930F8205120F0092010702058504090FCC
:10486000920FAD0FC00B8446334847696E1D01207F
:10487000B040314E074377616046002815D007D01D
:1048800030698B409843306130698A401043306111
:104890002A480668029801797D20C00041430F46EE
:1048A000300CFBF7B5FC01460BE0234EF0688B4063
:1048B0009843F060F0688A401043F060E8E7641CB9
:1048C000E4B20846E040FAD1072C33D830463946E6
:1048D000E040FBF79DFC86B2194968000E52029831
:1048E000711CC08848437D21C900FBF79BFC80B246
:1048F0008646144AA80011588E6000991358C900C2
:104900008C460C315E580427BE435E50165828234F
:1049100073506107490F1358083119600021022DA7
:1049200001D19368D9641558634674461033EC502E
:1049300010584160FEBD00000080044038F0FF1FA9
:104940004AF0FF1FAC57000070B58205150F8004B8
:10495000840F084A6000105A401C48437D21C9005A
:10496000FBF760FC044AA1005258E90080B2103104
:10497000505070BD4AF0FF1FAC570000F0B50178F1
:104980003E4BCD064A09ED0E92009C58A6690121C6
:10499000A9400E43A6619C5865698D4365614478C2
:1049A000002C02D0012C05D00EE09C58A5698D4347
:1049B000A56109E09C58A6690D463543A5619C5840
:1049C00066690D463543656185782D4E2D4C012D68
:1049D00015D12B4F9D58403FBD4203D1A5680D43D3
:1049E000A5600CE0B54203D1E5680D43E56006E043
:1049F000234F4037BD4202D125690D432561C1785F
:104A000001293AD19958B1420BD10278382A04D001
:104A1000392A06D16269802301E0626940231A4382
:104A20006261B1420BD10278202A04D0212A06D13A
:104A30006269202301E0626910231A436261104B0E
:104A4000403B99420BD10278182A04D0192A06D18A
:104A50006269082501E0626904252A43626199427E
:104A60000BD100780C2804D00D2806D160690221F2
:104A700001E06069012108436061F0BDA0570000BA
:104A800040F00F4000900440F0B51C4D1B4E430910
:104A90001B4F9B00184A194C4035403EFB580029DB
:104AA00015D0C106C90E01208840B34203D19168D8
:104AB00001439160F0BDA34203D1D1680143D160AD
:104AC000F0BDAB42FCD1116901431161F0BD012180
:104AD0008140B34203D1906888439060F0BDA34207
:104AE00003D1D0688843D060F0BDAB42FCD11069DF
:104AF00088431061F0BD00000090044040F00F407A
:104B0000A0570000C2064109D20E88000349085888
:104B10000069D040C007C00F70470000A0570000D8
:104B2000C1064209C90E044892008058C268012398
:104B30008B401A43C2607047A0570000420910B56D
:104B40009300C006074C0122C00E8240E0580029A5
:104B500003D041681143416010BD816811438160F9
:104B600010BD0000A057000070B5044601210220CE
:104B700000F066F8254801680225A9430160244831
:104B80007D21C9000068FBF743FB61684143207841
:104B90000201204812181160217809010918CB6818
:104BA00001221343CB602178090109188B689343D4
:104BB0008B602178090109188B68AB438B602178E1
:104BC000090109188B6813438B606178012916D19C
:104BD00021780901081881682943816021780E4AEB
:104BE0008900E068505020780C49002808D001283E
:104BF00005D1C0050860217A1720FDF75DFD70BD65
:104C0000012080050860217A1620F6E70070034035
:104C100038F0FF1F0071034040F0FF1F00E100E08B
:104C2000012809D8010105480818C168012211436B
:104C3000C16081689143816070470000007103404A
:104C4000044A0029516901D0014300E081435161C8
:104C500070470000008004400A4A10B5904202D11B
:104C60000120000504E0084A904204D101204005DB
:104C7000FFF7E6FF10BD054A9042FBD101208005F9
:104C8000F6E7000000A0064000B0064000C0064065
:104C9000F8B5044623480D46844202D10121080597
:104CA0000AE02148844202D10121480504E01F485E
:104CB000844203D101218805FFF7C2FF297B2046EA
:104CC00000F03AF8E078F3210840E070A078297A03
:104CD0000843A070A07829790843A070A078A9792A
:104CE0000843A07012480068009029680609480827
:104CF0003018FBF78DFA81B20E48814200D9014687
:104D000020784009400120702078CA04D20E104358
:104D100020706170E078AA7A1043E0703046FBF7AB
:104D200077FAF8BD00A0064000B0064000C006407B
:104D300038F0FF1FFF1F000001290ED80E4B0F4A4D
:104D400098420BD1D068CB011843D060012904D11F
:104D50000B4881680C22114381607047094B9842CF
:104D600002D11069090304E0074B9842F5D110699C
:104D7000490308431061704700A0064000800440CA
:104D80000090044000B0064000C0064010B5074C3B
:104D90000548606021465831A0688861002000F015
:104DA000D5FA0120207010BDE0FEFF1F80F0FF1F2C
:104DB00070B50C4603460021084604E04D005D5BDB
:104DC0002818491C89B29142F8D31146FBF720FA02
:104DD000208070BD10B5FBF7D9F90621484380B299
:104DE00010BD0021427806E01C234B431B189B7822
:104DF000012B02D0491C8A42F6DCC8B2704710B5BC
:104E0000FBF7C4F90621484380B210BD0A4A106975
:104E10008169002908D05160C06811465831801C52
:104E2000886101201070704701690029FBD040693A
:104E30000028F8D10847000080F0FF1F10B50320BC
:104E400000F084FA01490120087010BD80F0FF1FB6
:104E500010B5FBF7DFFF092000F078FA01490120C7
:104E6000087010BD80F0FF1F10B5FBF7D3FF0820BE
:104E700000F06CFA01490120087010BD80F0FF1F9E
:104E800010B5FBF7C7FF072000F060FA01490120C9
:104E9000087010BD80F0FF1F10B5FBF7BBFF0620A8
:104EA00000F054FA01490120087010BD80F0FF1F86
:104EB00010B5FBF7AFFF052000F048FA01490120CB
:104EC000087010BD80F0FF1F10B5FBF7A3FF042092
:104ED00000F03CFA01490120087010BD80F0FF1F6E
:104EE000FEF745F9FCF784F8FFF758FBFEF7D9FF0A
:104EF0000E2801D1FEF71CFE0123114A33210020A8
:104F0000FFF70AF801230F4A15211846FFF704F8A6
:104F100001230D4AC8210220FEF7FEFF01210B4AA2
:104F20000846FEF7D5FF01212520FFF707FE0020E8
:104F300000F00CFAFFF73AFB6420FFF709F8F9E7F5
:104F4000B54100006135000059110000690D0000F5
:104F500038B50120FEF744FB0F4C2078002819D00B
:104F6000102000900A230D4A04216C2000F02FF934
:104F70001620002100901823094A084600F027F95E
:104F8000182000900C2307A21E211A2000F076F9A9
:104F90000020207038BD000016F1FF1FB27E000017
:104FA0007A7D0000566563746F720000034601202D
:104FB00000E058430A46491EC9B2002AF9D1704799
:104FC00010B50021084C0A460020C3001B195A5492
:104FD000401CC0B28028F8D3491CC9B20829F3D3B9
:104FE00000F034F810BD0000C4F8FF1F10B57F2892
:104FF00014D83F2912D8CB080724E31A2140641A99
:105000000121A140064CC0000019DBB2002AC25C9D
:10501000C9B201D00A4300E08A43C25410BD000067
:10502000C4F8FF1F3F22511AC9B2CA084907490FE5
:1050300001238B40D9B2044BC000C018805C0840EB
:1050400000D0012070470000C4F8FF1F70B5104E5B
:1050500000252846B030C0B2002100F03DF9002103
:10506000084600F039F90021102000F035F900243D
:10507000E0008019405D012100F02EF9641CE4B2CB
:10508000802CF5D36D1CEDB2082DE2D370BD00006D
:10509000C4F8FF1FFFB583B00C9F0E460191F908BD
:1050A000780700D00120081806994843C0B2203A7A
:1050B0000290D0B20025059040E0069806280FD057
:1050C0000C283ED1182F3CD10598242148431E4975
:1050D0004018445D0020009020060FD50D9A11E085
:1050E000082F06D00C2F2CD105980C2148431749C6
:1050F000EEE70598062148431549E9E70D98002891
:1051000012D0002231460398FFF770FF6006040EAC
:10511000761C0198F6B2301AB84207D10398019E66
:10512000401CC0B2039007E00122EBE70098401C4E
:10513000C0B200900828CFD36D1CEDB20298854212
:10514000BBD307B0F0BD0000665E0000F25900005E
:10515000B8570000FFB583B000261D4634460C9FAB
:1051600031E0281B401EC1B20A20FFF71FFF014695
:105170000598FBF74DF80A21FBF74AF8002E05D1F8
:10518000681E844202DA00290DD0012601220D9802
:10519000303101920090CAB23846039960434018FA
:1051A000C0B23B460AE001210D98019100903846BB
:1051B000039960434018C0B23B4620220499FFF790
:1051C00069FF641CE4B2AC42CBD307B0F0BDFFB5BD
:1051D00086B00F980C460193009106990290C91869
:1051E000802903D98021C91AC9B201912118402907
:1051F00003D94021091AC9B20291C108400700D061
:105200000120081804900298C108400700D001202E
:105210000818059000202BE0002723E0049948435C
:105220000899C919465C0025300601D5012200E025
:10523000002221460698FFF7D9FE7006060E641C70
:105240000098E4B2211A0298814205D10698009C88
:10525000401CC0B2069003E06D1CEDB2082DE3D3F4
:105260007F1CFFB2059887420398D7D3401CC0B279
:10527000019903908842CFD30AB0F0BDFFB585B045
:1052800004460D4608988021081A0E9F039040207E
:10529000C01B1646029019E00398A04202DA0024CF
:1052A000E819C5B20298A84203DA00242546FFF7A0
:1052B00087FE012001900097327829462046089BFE
:1052C000FFF7E8FE08982018C4B2761C3078203822
:1052D0005E28E1D909B0F0BD70B50546002900D0BF
:1052E00001211620FFF72AFC00211720FFF726FCDA
:1052F000002400212320FFF721FC280601D50121ED
:1053000000E000214220FFF719FC01212320FFF7D4
:1053100015FC6806641C050EE4B2082CE9D30121D3
:105320001720FFF70BFC01211620FFF707FC70BDCB
:1053300010B5FE20FFF716FA002330220249FE20A6
:10534000FFF756FA10BD0000C4F1FF1F10B5054964
:105350000028087002D1044901200870FBF74CF8BE
:1053600010BD000014F1FF1F16F1FF1FFFB585B03F
:105370000E9F0C460291F9081646780700D00120CE
:10538000081808994843C0B20390084637490C28CA
:1053900007D0182868D1182F66D1486800250090DA
:1053A00011E00C2F60D10868F8E7009968000A5CEA
:1053B00031788A4205D1009940184178707881424D
:1053C00007D06D1CADB20098FAF7E0FE4008A84285
:1053D000EBD80098FAF7DAFE4008A84244D900203A
:1053E0003EE008980C2802D0182806D00DE00C2FBB
:1053F0000BD1182068431E4904E0182F05D148201E
:105400001C496843411800980E5C0020019030064A
:1054100004D50598E1B2C0B20F9A06E00F980028B3
:1054200013D000220598E1B2C0B2FFF7DFFD70068D
:10543000060E641C0298A4B2201AB84207D105983F
:10544000029C401C80B2059007E00122EAE7019827
:10545000401CC0B201900828D9D30098401CC0B2AB
:10546000039900908842BCD309B0F0BD78F0FF1FCB
:10547000C26B0000627A0000FFB587B004460020CE
:10548000109E0D460590700802A931C117461EE016
:105490000598002820D0002005900398801B8030BC
:1054A000A04203DAA819801C039C85B20498801BD3
:1054B0004030A8420EDB1198009601903A462946EA
:1054C00020460A9BFFF752FFA01984B2BF1C3A780E
:1054D000002ADDD10BB0F0BD802A02D90120059051
:1054E000F5E703990298081A8030A04202DAA81959
:1054F00085B20C460498801B4030A842EADB0D2A96
:105500000DD01198009601900A98E9B24308E0B2D4
:10551000FFF7C0FD0298001984B27F1CD7E7A819D5
:1055200085B20C467F1CF5E7FFB583B007460D9E9C
:105530000E9D0C9C0598FAF729FE6108414388B23C
:10554000A84205D904AD019600940ECD38460AE074
:10555000281AC10F0818C0030196009404A9000C72
:105560000EC9C01980B2FFF787FF07B0F0BDF0B5D4
:1055700015460E460746A9420BDAFDF7A7FA044680
:10558000421E31463846FFF7F2FF2A46611C384674
:10559000EEE7F0BD70B501250400ED074C4020D4C6
:1055A000441A01D2001B0919C60D4B00F2B2FF2AA2
:1055B00029D01B0E2CD000020C02D31A2C43DC4045
:1055C0002843051910D2280A02D3401C6D0611D0B9
:1055D000761EF6058019FF2A00DA70BDC00DC005E1
:1055E00070BD694000F07AF801200543C541521CA6
:1055F000761CE8E764089C40C90161408900E7D156
:105600000124A043E4E71B0E440200D0034870BD10
:10561000002AFCD1C00FC00770BD00BF0000C07FD2
:1056200070B5420064414B005C41120E39D01B0E34
:1056300038D0FF2A3CD0FF2B3AD040024902400A22
:10564000490A060045184E43000A090AD218484381
:10565000ED017F3A0104731A4019190C4318990F90
:1056600004D001215B0849075B1A521CD80904D3F6
:10567000401CF50301D19D0607D0FF2A08D2D505AD
:1056800006D0E4072043401970BD0125A843F4E784
:10569000002A01DCE00770BD2402FF202043C00582
:1056A00070BD1B0EFF2A03D0FF2B01D0E00770BD99
:1056B000FF2645003606B54206D84D00B54203D850
:1056C000D218FF2A00D0E7E7004870BD0000C07F75
:1056D00070B501250400ED074C4022D4441A02D2D3
:1056E0006C40001B0919C60D4B00F2B2FF2A4BD0CB
:1056F0001B0E50D000020C02D31A2C43DC40A843EE
:10570000051B05D5AD0019D36D08761E521E37D086
:10571000F605280A01D2801970BD70416D0603D0CC
:1057200070BD6940FFF73CFF9C40090261404900A1
:1057300001D0401E70BD0124A04370BD6D081DD076
:1057400001202B0C01D12D0410302B0E01D12D0284
:1057500008302B0F01D12D01001DAB0F01D1AD0081
:10576000801CEB0F01D16D00401C6D00361A121A1F
:10577000680AF5054019012A02DB70BD002070BDE2
:10578000C036300AC00770BD1B0E440201D1FF2B8A
:1057900000D1024870BD002AF0D070BD0000C07F6B
:1057A00000F00F4040F00F4080F00F4000800340B9
:1057B0000090034000A00340000000000000000033
:1057C00060FA600000E0C000E0C000247E247E2477
:1057D0000024D456480000C6C81026C6006C926A41
:1057E000040A0000E0C0000000007C82000000000D
:1057F000827C000000107C387C100010107C10109F
:10580000000007060000001010101010000006062F
:105810000000000408102040007C8A92A27C000056
:1058200042FE020000468A92926200449292926C7A
:1058300000182848FE0800F49292928C003C529284
:10584000920C00808E90A0C0006C9292926C0060CE
:10585000929294780000363600000000373600003F
:1058600000102844820000242424242400008244C0
:1058700028100040809A9060007C82BAAA78007E4E
:105880008888887E00FE9292926C007C828282449C
:1058900000FE8282827C00FE9292928200FE9090B4
:1058A0009080007C8292925E00FE101010FE00003C
:1058B00082FE8200000C020202FC00FE10284482DC
:1058C00000FE0202020200FE402040FE00FE4020D8
:1058D00010FE007C8282827C00FE90909060007CB2
:1058E000828A847A00FE9090986600649292924C2C
:1058F000008080FE808000FC020202FC00F80402AE
:1059000004F800FC023C02FC00C6281028C600E097
:10591000100E10E0008E92A2C2000000FE828200F3
:1059200000402010080400008282FE000020408019
:1059300040200101010101010000C0E0000000045D
:105940002A2A2A1E00FE2222221C001C22222214A5
:10595000001C222222FE001C2A2A2A1000107E90FF
:10596000900000182525253E00FE20201E00000086
:1059700000BE020000020121BE0000FE0814220049
:10598000000000FE0200003E2018201E003E2020E5
:105990001E00001C2222221C003F2222221C001C6E
:1059A0002222223F00221E22201000102A2A2A042E
:1059B00000207C222400003C02043E000038040247
:1059C0000438003C060C063C003608083600003956
:1059D00005063C0000262A2A320000107C82820044
:1059E000000000EE0000000082827C100040804039
:1059F0008000000000000000000000000000000027
:105A000000003F40000000000000000030004000A7
:105A100030004000000009000BC03D000BC03D00FD
:105A2000090018C024407FE02240318000001800A7
:105A300024C01B000D803240018003801C402740A1
:105A40001C800740004010006000000000000000C3
:105A500000000000000000001F80204040200000E7
:105A6000402020401F8000000000090006001F8029
:105A7000060009000000040004003F800400040048
:105A800000000010006000000000000000000400A2
:105A900004000400040004000000000000400000B6
:105AA000000000000000002001C006003800400097
:105AB00000001F802040204020401F800000000088
:105AC00010403FC000400000000018C021402240AC
:105AD00024401840000010802040244024401B80B7
