:020000040000FA
:10000000300800204B01000057010000590100009A
:1000100000000000000000000000000000000000E0
:100020000000000000000000000000005B01000074
:1000300000000000000000005D010000F12B000046
:100040006101000061010000610100006101000028
:100050006101000061010000610100006101000018
:100060006101000061010000610100006101000008
:10007000892D0000312E0000332E00007107000092
:1000800061010000610100006101000061010000E8
:1000900061010000610100003922000061220000BE
:1000A000251E0000711E00006101000061010000BA
:1000B00061010000610100006101000061010000B8
:1000C00000F002F800F030F80CA030C8083824180E
:1000D0002D18A246671EAB4654465D46AC4201D180
:1000E00000F022F87E460F3E0FCCB6460126334282
:1000F00000D0FB1AA246AB46334318471C850000CC
:100100003C8500000023002400250026103A01D37E
:1001100078C1FBD8520700D330C100D50B607047BF
:100120001FB51FBD10B510BD00F0A0FA1146FFF7B6
:10013000F7FF05F027F800F0B8FA03B4FFF7F2FF75
:1001400003BC02F084FE000070470948804709485C
:10015000804709480047FEE7FEE7FEE7FEE7FEE7C7
:10016000FEE7000005480649044A064B70470000B8
:10017000852C000049010000C1000000300700206C
:1001800030080020300700207047000030B5441CC4
:1001900003E00178401C00290DD08107F9D10B4BF9
:1001A000DD0104C8D11A91432940FAD0001B0A0688
:1001B00003D0C01E30BD001B30BD0A0401D0801E1C
:1001C00030BD0902FCD0401E30BD0000010101011C
:1001D00001E004C0091F0429FBD28B0701D502806E
:1001E000801CC90700D00270704700290BD0C307DC
:1001F00002D00270401C491E022904D3830702D595
:100200000280801C891EE3E70022EEE70022DFE780
:10021000002203098B422CD3030A8B4211D3002303
:100220009C464EE003460B433CD4002243088B42DD
:1002300031D303098B421CD3030A8B4201D394466A
:100240003FE0C3098B4201D3CB01C01A524183095D
:100250008B4201D38B01C01A524143098B4201D317
:100260004B01C01A524103098B4201D30B01C01A42
:100270005241C3088B4201D3CB00C01A52418308BC
:100280008B4201D38B00C01A524143088B4201D3E9
:100290004B00C01A5241411A00D201465241104649
:1002A00070475DE0CA0F00D04942031000D34042BE
:1002B000534000229C4603098B422DD3030A8B42F4
:1002C00012D3FC22890112BA030A8B420CD3890192
:1002D00092118B4208D3890192118B4204D3890178
:1002E0003AD0921100E08909C3098B4201D3CB01B6
:1002F000C01A524183098B4201D38B01C01A52416B
:1003000043098B4201D34B01C01A524103098B426E
:1003100001D30B01C01A5241C3088B4201D3CB0059
:10032000C01A524183088B4201D38B00C01A52413C
:10033000D9D243088B4201D34B00C01A5241411A13
:1003400000D20146634652415B10104601D3404241
:10035000002B00D54942704763465B1000D34042F2
:1003600001B50020C046C04602BD704770477047C7
:1003700010B501469E240002CA15A307002A02D028
:100380001843002A04DBA21A002A0CDDD04010BD5D
:100390001206120E01D140004008A21A03D4D04028
:1003A00040420028F3DDFF2248001206904201D9A6
:1003B000002010BDC817C043584010BD0102C2152F
:1003C00004D00123DB071943002A0ADB9E239A1A73
:1003D00002D40846D0407047FF22410012069142E5
:1003E00001D900207047C017C04370477047000014
:1003F00010B5024800F061F910BD00000000C07F98
:10040000FFFFFFFFFFFFFFFFFFFFFFFFFFFFFEFEFE
:10041000F0B5FF252D04C609C209FF2704462E406A
:100420000137CB093E4348402A402B400746002A6B
:100430006BD0002B69D0AA4267D0AB4265D00028B0
:1004400000DA32460125ED0529432C43090220023A
:10045000090AD21A4B0C7F24E31A434C000A7C444D
:10046000E35C7D242404121914145B00A218884252
:1004700001D3521C00E0400049420C465C43241169
:100480005C43DB016415E318040A5C43C502200DDC
:100490000C4644436419250A5D432303EC0C0D46C6
:1004A000654300030019EB184C42A34201D35B18CB
:1004B000401CD4052018002B07D05B00C91804D3BA
:1004C000401C002901D1400840003F2189048A4294
:1004D00009D3002A08DC1106090F04D003214907BB
:1004E0004018C00FC007F0BD012241001206891854
:1004F0007F2252069142F6D205214907C84201D512
:100500009010F0BDFF20C005F0BD002F00DA32468C
:100510001648AA4207D2AB4205D21902090E17D0DB
:10052000F80FC007F0BDFF2563002D06AB42F9D8D8
:100530004900A942F6D8AB4201D1A942F2D0A94262
:1005400001D1002101E061004908D0050843F0BD58
:100550001102090EFBD0FF200243D005F0BD0A4670
:100560000146104654E700001C7F00000000C07FD9
:100570001F22030C02D10F2200041CD0030E01D154
:100580000002083A030F01D10001121F830F01D1AD
:100590008000921E002801DB4000521ED205511837
:1005A000021251181922904004D3491C002801D18D
:1005B0004908490008467047C10FC90700D04042AA
:1005C000012292071143D3E701218907D0E70000F8
:1005D00010B5FF231B0644009C421DD84C009C42D2
:1005E0001AD80346124A0B4307D4401A02D3EFF33A
:1005F000008010BDEFF3008010BD081A06D2EFF3A3
:10060000008001219043C907084302E0EFF3008016
:10061000904380F3008810BD0D231B041A4204D0C0
:100620001146002000F006F810BDFFF7E1FE10BDF6
:1006300000000090C80212D54803400F002804D0E3
:10064000C803C043012188407047EFF300800001D8
:10065000000903210907084380F300887047002040
:100660007047000000487047CC0600207546FFF731
:10067000F9FFAE46050069465346C008C0008546EE
:1006800018B020B5FFF76EFD60BC00274908B646DC
:100690000026C0C5C0C5C0C5C0C5C0C5C0C5C0C591
:1006A000C0C5403D49008D46704710B50446C04660
:1006B000C0462046FFF741FD10BD10B50C4611079E
:1006C000090F092904D00A290AD008290CD104E00D
:1006D00011460820FFF7AEFF06E0510606D501E0FF
:1006E000510601D50120C007214610BDD10607D50E
:1006F00001010909CC084907000E0006044309E07E
:10070000410F20024907000A0143200E00061D2266
:10071000D14101430846E7E770B58C180578401CC5
:100720006B075B0F01D10378401C2A1106D10278B8
:10073000401C03E00678401C0E70491C5B1EF9D17A
:100740002B0705D40023521E0DD40B70491CFAE769
:100750000378401CCB1A921C03E01D780D70491CD5
:100760005B1C521EF9D5A142D8D3002070BD0000F9
:1007700030B5094A0020064C0649137804E0226986
:100780004500401C4A53C0B29842F8D330BD000027
:1007900000B00340F0F5FF1F58F0FF1F70B5204C6C
:1007A000208A401C2082E088401CE08000F00AFB88
:1007B0006089401C608100F0CDF8208A002503008C
:1007C00002F038FB0624040F10152024608A401C18
:1007D00080B26082062804D32078012801D1658286
:1007E000E58070BD03F030F900F0DAF970BDA08A41
:1007F000401C0004000CA082F8D0A582658100F0A6
:1008000025F870BD00F0DEF8258270BD2582A58236
:100810006582E58065810021252004F049F8FEE726
:1008200000F0FF1F10B5034A0121002003F01EFA5B
:1008300010BD00009D07000010B50021252004F028
:1008400037F8012003F08CFA10BD0000F0B53A48EB
:100850003A4C017E002585B0A0782E460B0002F0B0
:10086000E9FA050412120A0E120026642663A67025
:10087000E670A68107E0012805D1314802E0012891
:1008800001D1304820632C492A202039085E1D30D0
:10089000FFF792FE284F0390284C603FF86F216BC2
:1008A00005F054F80190A16B05F050F90246009054
:1008B00038465C38019904F0CDF938468038C16C6F
:1008C000214B1A029942C16C00D35140446D9C42A5
:1008D000446D00D354402846184DE863019805F054
:1008E000A5F802902146009805F0A0F8009017495D
:1008F000039805F09BF80446A86AE862144900983A
:1009000005F094F80146002005F020F8029905F062
:100910001DF8214605F01AF8A8628121F86FC90573
:10092000884204DA7F21C905C84200D2AE6201982C
:10093000A86305B0F0BD0000B8F5FF1F00F0FF1F71
:100940000000F0C10000F04100008080CDCCCC3D23
:100950003333333F70B50B4CE16AA06A0D4605F0A6
:10096000F5F806466089401CFFF72EFE314605F07B
:100970005DF80549FFF74CFD294604F0E7FF60628A
:1009800070BD000000F0FF1F0000A04010B5002166
:10099000022003F0FBFCFFF717FE064905F046F8BE
:1009A0000549FFF735FD0549FFF732FD0449486168
:1009B00010BD00000000A04000007F434A0CC23E72
:1009C000D8F5FF1FFEB500206946888008802E4CB0
:1009D0000C20205EFFF7F0FD06460820205EFFF7A2
:1009E000EBFD616A05460291A069074604F0AEFF7F
:1009F000294604F0ABFF314604F0A8FFFFF7B8FC2E
:100A0000694688803846029905F0A0F8294604F026
:100A10009DFF314605F09AF8FFF7AAFC6946088069
:100A20001A491020085E69460423CB5E424211B287
:100A3000984202DA6B46988005E06D460423EB5E2F
:100A40009A4200DDA9806D460023EB5E984201DAF0
:100A5000288005E00020285E2B46824200DD1980B8
:100A6000A9880A484038418129888181E089022883
:100A700002D90021084603E00021695E0420285EB7
:100A800002F022FCFEBD000000F0FF1FD8F5FF1FA2
:100A9000FEB50024224E244F347077632148B4639E
:100AA000F0632248B0622248706222482546F06412
:100AB000214870652148F565B065214830663046AB
:100AC000243004F07DFA00952B462A461D49304615
:100AD000019504F0CFFDFD235B02142060438119D2
:100AE000084640300A460586603215715571C58446
:100AF000CD66E100C9180A880285641C8988E4B2C1
:100B00004185052CE9D30648642180300182818427
:100B10004582C58480300C49C7600182FEBD00005B
:100B2000D8F4FF1F0000C841000070410000F041F0
:100B30000000B44200004041000034430000E041A6
:100B40000000F0430000A142B603000000B589B0E8
:100B500020216846FFF75AFB0748C068009072B62C
:100B6000FC2003F0B9FC042200236946FC2003F0BA
:100B7000F9FC62B609B000BDD8F5FF1F064805496B
:100B800001607F21C9058160FF3004490130C160E7
:100B90007047000000007543D8F4FF1F000090412B
:100BA000F8B54248424EC18C102905D2408F10281A
:100BB00002D2F089401CF0813D483C4DC17840355F
:100BC0008C4629468039CC1DEB8E4278F9340127BA
:100BD000E03120682D2B01D9002A02D0012A16D03D
:100BE00032E0344A904207D903220A760021316369
:100BF0003149E160777010E0304A904224DD0422F0
:100C00000A76002131632C49E160777011E0097E9A
:100C1000032902D004290CD016E0FF21C905C842DF
:100C200012D2604600280FD1012002F0F5FAB77009
:100C30000AE00121C905884206DA6046002803D18E
:100C4000B770022002F0E8FAE889698C401A04F0D3
:100C500095FA1B490A280BDDB078012808D1E88EE7
:100C6000232805D2F770377100203063E16002E07D
:100C70003079012807D1E88E282804D90020707027
:100C80000D48E060F8BDE88E2328FBD220684000C4
:100C9000000EF7D170780028F4D1B070377130634E
:100CA000F070E16002F0A4FAF8BD000018F5FF1F33
:100CB00000F0FF1F000020C2000020410000204281
:100CC000000070417CB5354C354DA089002815D108
:100CD000384934A08861E868A062084601F02EF81F
:100CE00020462C3000F08DFB2046443000F089FB7C
:100CF00020465C3000F085FB0120A0812E487F2635
:100D00000078F605012822D007282AD0042837D0F9
:100D1000224801212C3000F0C4FA2048012144303F
:100D200000F0BFFA18250C2324A210210A200095F8
:100D300004F046FCA06AFFF741FB02460C2000903D
:100D4000022310210195582004F0A6FB7CBD134816
:100D500000212C3000F0A5FA3146A06A04F0F6FD1F
:100D60000CE00E480021443000F09BFA0121A06AFB
:100D7000C9058842D6DB314604F0E8FEA062D1E71F
:100D8000A06AE8600020A081FFF7E0FE03F0BEFA51
:100D9000022004F09DFCFFF745FDC3E724F4FF1F8C
:100DA000D8F5FF1F536574205461726765745370E2
:100DB00070656400C4F3FF1F21F4FF1F5370656565
:100DC000643A000038B50E4C216AE0690D4604F023
:100DD000BDFE0090E088401CFFF7F6FB009904F090
:100DE00025FE0849FFF714FB294604F0AFFD06492C
:100DF000A061884202DC0549884200D9A16138BD62
:100E000000F0FF1F0000F04100001644000016C46F
:100E10007CB5334C334D6089002815D1364932A05A
:100E20008861286E6062084600F088FF20462C30FA
:100E300000F0E7FA2046443000F0E3FA20465C3048
:100E400000F0DFFA012060812C482D4E0078012847
:100E500022D007282AD0042833D0214801212C3061
:100E600000F01FFA1E480121443000F01AFA18253C
:100E70000C2324A210211420009504F0A1FB606A29
:100E8000FFF79CFA02460C200090042310210195E4
:100E90003A2004F001FB7CBD114800212C3000F009
:100EA00000FA3146606A04F051FD08E00C48002168
:100EB000443000F0F6F93146606A04F047FE6062A3
:100EC000D5E7606A286604F0E1FB0020608103F04A
:100ED0001DFA022004F0FCFBFFF7A4FCC7E70000AA
:100EE00024F4FF1FD8F4FF1F446972656374696FAF
:100EF0006E204B6400000000C4F3FF1F21F4FF1FAD
:100F00000000A0404B643A007CB5354C354DE0887C
:100F1000002815D1384934A08861A86DE0610846E1
:100F200000F00CFF20462C3000F06BFA20464430D5
:100F300000F067FA20465C3000F063FA0120E080A0
:100F40002E483F2600783606012825D007282DD0C8
:100F5000042836D0224801212C3000F0A2F9204884
:100F60000121443000F09DF918250C2324A2102102
:100F70001420009504F024FB2249E06904F056FD9A
:100F8000FFF71CFA02460C20009004231021019563
:100F90003A2004F081FA7CBD114800212C3000F089
:100FA00080F93146E06904F0D1FC08E00C480021EA
:100FB000443000F076F93146E06904F0C7FDE061A5
:100FC000D2E7E069A86504F061FB0020E08003F04F
:100FD0009DF9022004F07CFBFFF724FCC4E700002D
:100FE00024F4FF1FD8F4FF1F446972656374696FAE
:100FF0006E204B7000000000C4F3FF1F21F4FF1FA0
:101000004B703A0000002041F8B5244C054620788A
:10101000002841D0284604F02DF8E061002120622C
:101020006956814201DD002028701C482978007F24
:101030001A4C401AC6B2603468782169884200D8D8
:10104000002616486661603000F078FE13487C3058
:1010500086616978016100F0E3FD20696978C7B2B3
:10106000814200D20F4600240AE030191C21484377
:1010700042192001011B1E20133100F04DFC641C9D
:10108000BC42F2DB05491C22086A50434019012288
:101090008861827000200870F8BD000064F3FF1FB3
:1010A000F8B5002A7ED0540054438718012B41D054
:1010B000861A022B7BD0032B76D0042B72D11546D7
:1010C000002600910098069AC1B2B8B200F000FD67
:1010D0000098761C401E00906800024671006A432A
:1010E00071435118091B081A401C002801DD6D1EB0
:1010F0007F1EAE42E6DB0098069AC1B2B8B200F09D
:10110000E7FC2846410070006D1E891E02466943B7
:1011100072438918091B0818401C7F1E002803DC35
:101120000098401E761C0090002DE4DC0098C1B2AF
:10113000B8B276E000970D46164600270098E9B24F
:1011400080B2069A00F0C4FC70007F1C01467A0051
:1011500071437A438918091B081A401C6D1C00282A
:1011600003DD0098401E761E0090B742E6DB009833
:10117000E9B280B2069A00F0ABFC00993046491EF5
:10118000009141007800761E891E024671437A4321
:101190008918091B0818401C002801DC6D1C7F1CE5
:1011A000002E02E040E002E03FE0E0DC75E01546A2
:1011B000002700910098069AC1B2B0B200F088FCF6
:1011C00000987F1C401C00906800024679006A432A
:1011D00079435118091B081A401C002801DD6D1EB7
:1011E000761CAF42E6DB0098069AC1B2B0B200F0BE
:1011F0006FFC2846410078006D1E891E0246694337
:101200007A438918091B0818401C761C002803DC47
:101210000098401C7F1C0090002DE4DC0098C1B2B7
:10122000B0B2069A00F054FCF8BD00960D46164682
:1012300000270098E9B280B2069A00F049FC7000DD
:101240007F1C02467900724379435118091B081A22
:10125000401C6D1E002803DD0098401C761E009087
:10126000B742E6DB0098E9B280B2069A00F030FCA3
:1012700000993046491C009141007800761E891E75
:10128000024671437A438918091B0818401C00283C
:1012900001DC6D1E7F1C002EE4DC0098E9B280B2F8
:1012A000BFE77CB50446C0680D460E287DD3A06814
:1012B0001E287AD3206903F0D6FEA168884274D82C
:1012C00025750C2661682068002D11D00122801D33
:1012D000891D00F02EF9206903F0C5FEA168081AE7
:1012E000218840084018002180B2009601916CE0EE
:1012F0000022801D891D00F01CF901250095206841
:10130000616803230622801D891DFFF7C9FE009531
:10131000A168206842186168801D0B46D21F00F04A
:1013200094FA0095A1682068042340186168062299
:10133000C01F891DFFF7B4FE0095E1686068A268D0
:10134000411820684B1E8218801D491ED21F00F0D4
:101350007CFA0095E1686068A26841182068012362
:1013600080180622C01FC91FFFF79AFE009561680A
:10137000E0680B182068891D0246DB1F00F065FA43
:101380000095E16860680223411820680622801DEC
:10139000C91FFFF785FE00956168E068A2680B1819
:1013A00020688018421E401E00E018E0891DDB1FE7
:1013B00000F04BFA206903F056FEA168081A218854
:1013C0004008401880B200960195E168A2880C3967
:1013D0004908511889B20C23226904F029FA7CBD0E
:1013E00010B503F08FFF10BD38B51446C9B280B2F6
:1013F0006A4600F0AAFB68460178012061408843F4
:1014000038BD7CB50446C0680E287BD3A0681E2872
:1014100078D3206903F027FEA168884272D801259D
:1014200000952068616803230622801D891DFFF74F
:1014300037FE0095A168206842186168801D0B4640
:10144000D21F00F002FA0095A1682068042340181A
:1014500061680622C01F891DFFF722FE0095E16822
:101460006068A268411820684B1E8218801D491EC2
:10147000D21F00F0EAF90095E1686068A26841189F
:101480002068012380180622C01FC91FFFF708FE2D
:1014900000956168E0680B182068891D0246DB1F13
:1014A00000F0D3F90095E1686068022341182068D4
:1014B0000622801DC91FFFF7F3FD00956168E068F3
:1014C000A2680B182068891D8018421E401EDB1F71
:1014D00000F0BBF9207D0C26002814D0206861683C
:1014E0000122801D891D00F024F8206903F0BBFD56
:1014F000A168081A218840084018002180B200968F
:1015000001910BE014E0206903F0ADFDA168081A19
:1015100021884008401880B200960195E168A288B1
:101520000C394908511889B20C23226904F080F95A
:101530007CBDF7B5D8B00C460546802874D2402C47
:1015400072D2E1B2A8B250AA00F0FFFA50A8027815
:101550005A98D107C007C90FC00F814264D02146F5
:101560002846559400F0CCFA0646569050A80278CA
:101570002146284600F0F1FA549080194008299439
:101580000194289001240090254601E0002D7BD095
:10159000E90028A808188038816F5291C66F50A8BA
:1015A0006D1E0278EDB23146529800F0A9FA5390C0
:1015B00050A802783146529800F0CFFA519050A8C6
:1015C0000278761C31465298FFF70EFF002804D0AF
:1015D00050A802783146529815E0539F08E050A871
:1015E000027831463846FFF7FFFE002803D17F1C02
:1015F00051988742F3D951988742C7D850A852973B
:1016000002783146384600F0A8FA519050A8027886
:101610003146529800F074FA5390142C1FD2471E92
:1016200058975990074617E07EE050A80278711E3F
:101630003846FFF7D9FE002827D059995898884294
:1016400007D05891E00069460F504018641CE4B27E
:101650004660142C03D27F1C51988742E5D95399D8
:1016600051985A9B4018400852905198F1B282B25A
:10167000539880B200F0D5F8142DA0D2539F5997FB
:101680007F1E5897599F19E01FE05997E1E750A82E
:101690000278711C3846FFF7A7FE002813D059992D
:1016A0005898884207D05891E80028A90F50401850
:1016B0006D1CEDB24660142D81D27F1C519887427B
:1016C00000D97CE7E3E75997F5E7002C20D0E1004B
:1016D000684608188038816F5291C66F50A8641E02
:1016E0000278E4B23146529800F00AFA539050A8BA
:1016F00002783146529800F030FA074650A8027836
:10170000761E31465298FFF76FFE00280ED020E07B
:10171000002D00D03AE754985A9B82B25598C1B236
:10172000569880B200F07DF85BB0F0BD539809E0A8
:1017300050A8027831465198FFF756FE002804D190
:101740005198401C5190B842F2D95198B842BCD837
:10175000529050A802783146529800F0FEF90746A0
:1017600050A802783146529800F0CAF95390142DCF
:1017700020D25990401E5890599818E050A80278ED
:10178000711C5198FFF730FE002826D059995898BF
:10179000884208D05891E80028A9519A0A50401868
:1017A0006D1CEDB24660142D04D25198401C51902E
:1017B000B842E3D95398BAB23818400852905398B7
:1017C000F1B280B25A9B00F02CF8142C96D25398A8
:1017D0005990401E589059981BE051985990E2E753
:1017E00050A80278711E5198FFF7FEFD002815D011
:1017F00059995898884208D05891E0006946519A02
:101800000A504018641CE4B24660142CDED2519891
:10181000401C5190B84200D970E7E1E751985990C7
:10182000F3E7F8B515461E460F460446A84202D90E
:10183000D0B22546044632463946204600F048F9E3
:10184000641CA4B2A542F6D2F8BDFFB583B005462C
:1018500005980C46411B06980027021BFF430029F0
:1018600002DD0120029002E0002904DA0297002A3A
:1018700009DD012711E0C2B2E1B2A8B20C9B00F071
:101880002CF907B0F0BD002A07DB0598E1B282B25F
:10189000A8B20C9BFFF7C5FFF3E70298484339460F
:1018A0005143420000924A00019288421CDB161A02
:1018B0000098101A00900EE0E1B2A8B20C9A00F065
:1018C00007F902982D18002E02DA0198361802E066
:1018D00000988619E41905988542EDD1E1B2A8B2C5
:1018E0000C9A00F0F5F8CCE70098461A801A01909F
:1018F0000EE0E1B2A8B20C9A00F0EAF8E419002E6A
:1019000002DA0098361803E00198861902982D181B
:1019100006988442EDD1E1E7FEB514460D46064631
:10192000802805D8402D03D8022D01D3122E01D2D4
:101930000020FEBDE0680028FBD0A27830461023CE
:10194000A91E12380C27002A12D06268002A04D07F
:10195000C9B2C0B2009303F0DCFD002001900097F3
:10196000A9B2B0B20C23E26803F062FF0120FEBD11
:10197000A268002A05D00093C9B2C0B2102303F0B8
:10198000C8FD0120EAE7000010B5002902D00121BE
:10199000002401E0002101240448FFF782FC0348F1
:1019A00021461830FFF77DFC10BD00002CF3FF1F0F
:1019B000FEB58168044614293CD3E068142839D365
:1019C00025686A18802A35D861680B18402B31D8F1
:1019D00000272846521E5B1E009700F0F4F80125F0
:1019E00000956168E068A2680B1820685B1E821889
:1019F000521E00F0CAF820882189304B4118491E38
:101A00008AB2217980B20E31C9B21B78FFF709FF83
:101A10000095A168206842186168521E0B460D337C
:101A200000F0D1F8206903F033FB0246A068811E64
:101A30008A4201D90020FEBD80B20C260197009693
:101A40000290A0883346401C81B22088226980B26F
:101A500003F046FF1A480775A16901612168491D15
:101A60000160E26861688918C268891A091F4160CB
:101A7000FFF7C7FC124818300575E1690161A268DB
:101A8000216889188268891A891F0160E268616883
:101A90008918C268891A091F4160FFF7B2FC0096D5
:101AA0000195A0880C23113081B220886269801DC5
:101AB00080B203F0BDFE0120FEBD000028F3FF1F31
:101AC0002CF3FF1F0148007D704700002CF3FF1F1F
:101AD00010B5C0B203F02CFC10BDF8B515461E467B
:101AE00007460C46A94201D90D4614463246214606
:101AF0003846FFF7EDFF641CE4B2A542F6D2F8BD0C
:101B0000F8B5D507441EED0F0E46002C0ED0F1B2ED
:101B1000A0B26A4600F019F868460078C007C00F06
:101B2000A84201D0601CF8BD641EF0D1F1B20020C3
:101B30006A4600F00AF868460078C007C00FA8425D
:101B400001D00120F8BD0020F8BD10B51446C0B288
:101B500003F00AFC2070002010BDF8B5441CD50726
:101B60000E46ED0F0DE0F1B2A0B26A46FFF7EDFFB1
:101B700068460078C007C00FA84201D0601EF8BDBB
:101B8000641C802CEFD38020F8BDF8B51C461546A8
:101B90000E46074692B2C9B280B2069BFFF741FEDD
:101BA000AAB2E1B2B8B2069BFFF73BFEE2B2F1B2D5
:101BB000B8B2069BFFF791FFE2B2F1B2A8B2069B62
:101BC000FFF78BFFF8BDF8B517461E460C460546D5
:101BD000B84201D915460746B44201D91C460E4603
:101BE000B44206D1BAB2E1B2A8B2069BFFF719FE21
:101BF000F8BDBD420DD1F2B2E1B2A8B2069BFFF72B
:101C00006CFFF8BDBAB2E1B2A8B2069BFFF709FEBD
:101C1000641CB442F6D9F8BD10B503F0B9FB10BD91
:101C2000F8B5040052D0A2680A2A4FD3E0681428FD
:101C30004CD30125009561680B1820685B1E821843
:101C4000521EFFF7A2FF0826009620892178083847
:101C5000400808182179C0B2491CC9B233461C4A51
:101C600003F057FC00962079217B22784018093830
:101C7000C1B220890823083840081018144AC0B29D
:101C8000083203F046FC0095A1682068421861689C
:101C9000521E09310B46FFF7D8FD0095E1686068D8
:101CA000A268411820680A3982180B46521EFFF7B5
:101CB000CCFDE0686269216914388A4202D250433F
:101CC000FEF7A6FAE061204600F004F8F8BD000037
:101CD0004E830000FEB504468189808B091A1439B1
:101CE0008EB22188491C8AB20192A188721E0A31E3
:101CF0008DB28018218900220092C91E019A89B2F2
:101D000080B257182B183A4629460198FFF75BFF17
:101D100021696069814201D8002005E0A069491E5F
:101D20007043FEF775FA80B2012100912918E2692B
:101D3000019853183A46FFF746FFFEBDFEB581688D
:101D4000044614293BD3E368142B38D32068421887
:101D5000802A34D86168CB18402B30D80025521E19
:101D60005B1E0095FFF72FFF012600966168E06873
:101D7000A2680B1820685B1E8218521EFFF705FF31
:101D800020882189174B4118491E8AB2217980B2D7
:101D90000E31C9B21B78FFF744FD0096A168206898
:101DA00042186168521E0B460D33FFF70CFFA06905
:101DB00003F075F90246A068811E8A4201D900200D
:101DC000FEBD80B20C21019500910290A0880C23E9
:101DD000401C81B22088A26980B203F081FD0120FD
:101DE000FEBD000028F3FF1F10B5242002F044FDC3
:101DF000012801D0012010BD002010BD10B51C200D
:101E000002F03AFD012801D0012010BD002010BDD4
:101E100010B51B2002F030FD012801D0012010BDBB
:101E2000002010BDF8B50F4D0024A8680E4E000725
:101E300012D50E4F387884420ED2E96820460C2223
:101E400050433258114204D080198068002800D0D5
:101E50008047641CE4B2EDE7A86824210843A86029
:101E6000F8BD00000090074080F6FF1F72F0FF1FD2
:101E7000F8B50F4D0024A8680E4E000712D50E4F7E
:101E8000387884420ED2E96820460C2250433258FA
:101E9000114204D080198068002800D08047641C5B
:101EA000E4B2EDE7A86824210843A860F8BD00006B
:101EB00000A0074080F6FF1F72F0FF1F10B52C2016
:101EC00002F0DAFC10BD10B501212D2002F0F0FC6B
:101ED00010BD10B500212D2002F0EAFC10BD10B598
:101EE00001212C2002F0E4FC10BD10B500212C20B3
:101EF00002F0DEFC10BD08B500206A46D0705070BC
:101F00002C2111709070684602F0F2FB08BD08B5F4
:101F100000206A46D070012151702C211170907000
:101F2000684602F0E5FB08BDF0B50021124D134FE5
:101F3000134B0A4605261C204843401946708C0066
:101F40008270476082601C5902614261491CC9B2BB
:101F5000C46082610529EED30120A8700948286178
:101F60000948E86204480A498C3068630748686693
:101F7000014880300160F0BDB80400205E8300009D
:101F8000A4F3FF1FF5500000C5500000F1560000FB
:101F9000AD500000F8B5674E7068FFF735F8664938
:101FA00000270878002800D07761624C603401284F
:101FB00002D0072855D159E03E2375221221012075
:101FC0000097FFF700FE306A1C21484371684018F3
:101FD000B0618770306A401C306272685178491E67
:101FE000814200DC3162306A1C21484380180121A3
:101FF000B061817072681078401C43B21370204643
:1020000051782469A14205D80D468B420EDB491E4A
:1020100011700BE0E5B2641EA34207D91470026987
:10202000891A4269914201D9521C4261002410E090
:1020300040481C21603040694843716841181C20A9
:1020400060430A182001011B1E201331FFF764FCB6
:10205000641CAC42ECDB3748316A7C308161FFF7AD
:1020600039FE35480078042849D04DE03E237522DA
:10207000122101200097FFF7A6FD316A1C2251436F
:1020800072688818B0618770306A401E306200281C
:1020900000DC3762306A1C21484371684018012116
:1020A000B061817071680878401E42B20A704D7844
:1020B000236920469D4203D8002A0ADA0F7008E0FF
:1020C000DDB2002A05DA0F704169002901D0491EEE
:1020D0006161002410E017481C21603040694843CA
:1020E000716841181C2060430A182001011B1E2042
:1020F0001331FFF711FC641CAC42ECDBABE7B069B9
:102100000069002800D080477069411C7161642813
:102110000FDD7761B0694169002908D08770F069E7
:102120001C214843716840180121B061817002F0A0
:10213000E7FCF8BD64F3FF1F21F4FF1F8307FF22B4
:10214000DB0E9A408907090E994000280BDA000738
:10215000000F0838830808489B001818C369934388
:102160000B43C3617047830804489B001818036839
:1021700093430B430360704700ED00E000E400E090
:102180008307FF22DB0E9A408907090E9940002839
:102190000BDA0007000F0838830808489B0018185E
:1021A000C36993430B43C3617047830804489B0092
:1021B0001818036893430B430360704700ED00E079
:1021C00000E400E0F0B50021134B144C144E0A4615
:1021D00005251C204843C01882610261446082606A
:1021E0008F00827045704261491CF759C9B2C760BF
:1021F0000529EED3012098700A4818610A48D86270
:102200000A4898640A480449586603488C39803063
:10221000816008490160F0BDD00500205E830000A8
:1022200088F3FF1F51510000395100002151000077
:1022300009510000C550000010B5074CE068C00708
:1022400004D006480068002800D08047E0680121DB
:102250000843E06010BD00000071034050F0FF1F14
:1022600010B5074CE069C00704D006484068002854
:1022700000D08047E06901210843E06110BD000003
:102280000071034050F0FF1FF0B50021114C124BBC
:10229000124E0A4603251C204843001945708261EE
:1022A000026143608F00826082704261491CF7596D
:1022B000C9B2C7600329EED301200649A0708C3152
:1022C000A161074820610749E16202498C39216513
:1022D000A064F0BD440500205E830000B8F3FF1F3A
:1022E000C55000006951000010B5074C6078002807
:1022F00008D0201DFFF722FD20462030FFF790FC7C
:102300000020607010BD000098F4FF1FF0B585B08C
:10231000FFF7EAFFFC4EFB490020F71D0856062593
:102320000C210124F9378036002806D0012870D00E
:1023300002286FD003286ED0BFE20C200090062345
:10234000F2A20F21032003F03BF90C200190EE488C
:10235000009540300290C28C03230F211B2003F014
:102360009BF80C2000900623EAA20F21412003F0E5
:1023700027F90C20019002980095428F03230F212A
:102380005F2003F089F80C2000900623E3A21B21B4
:10239000032003F015F90C20019000951B21F28910
:1023A0000323084603F078F80C2000900623DDA2F2
:1023B0001B21412003F004F90C2001900095728C40
:1023C00003231B215F2003F067F80C2000900623F5
:1023D000D6A22721032003F0F3F8FF21F06FC905EF
:1023E000C84219D30C20009006232D2227210194E6
:1023F0001B2002F0F1FF0121F06FC9074840FDF7F3
:10240000B7FF02B20C200323272101900095212061
:102410000BE07AE0CCE11AE2FDF7AAFF02B20C2051
:1024200001900423272100951B2003F035F80C2090
:1024300000900623BFA22721412003F0C1F8FF210D
:102440003868C905C84216D30C20009006232D22F7
:10245000272101945A2002F0BFFF01213868C907E3
:102460004840FDF785FF02B20C200323272101908D
:102470000095602008E0FDF77BFF02B20C20019080
:102480000423272100955A2003F006F80C20009021
:102490000623AAA23321032003F092F80C20019016
:1024A00036220095B25E032333211B2002F0F4FF95
:1024B0000C2000900623A2A23321412003F080F8D3
:1024C000FF207968C005C1420CD30C2606232D22BB
:1024D00033215A200096019402F07EFF786871073C
:1024E000484009E00C260623202233215A2000967A
:1024F000019402F071FF7868FDF73AFF02B20323FE
:102500003321602001960095D5E10C200090062330
:102510008CA20F21032003F053F8306D00280EDA4F
:102520000C20009006232D220F210194152002F08B
:1025300053FF0C2000950190306D42420CE00C20BE
:102540000090062320220F210194152002F044FF61
:102550000C2000950190326D04230F211B2002F006
:102560009BFF0C200090062377A20F213D2003F053
:1025700027F8706D00280EDA0C20009006232D221B
:102580000F2101944F2002F027FF0C2000950190AD
:10259000706D42420CE00C200090062320220F2197
:1025A00001944F2002F018FF0C2000950190726DED
:1025B00004230F21552002F06FFF0C20009006230A
:1025C00062A22121032002F0FBFF4F4E0A20C036F9
:1025D000305E002812DA0C20009006232D223221D2
:1025E0000194152002F0F8FE0C20019000950A20BD
:1025F000305E042342423221252010E00C2000905E
:102600000623202232210194152002F0E5FE0C2041
:1026100001900A220095B25E042321211B2002F0C2
:102620003BFF0C200090062349A221213D2002F00F
:10263000C7FF0C20305E002810DA0C200090062323
:102640002D22322101944F2002F0C6FE0C2000956D
:102650000190305E0423424232210EE00C200090B3
:1026600006232022212101944F2002F0B5FE0C20E8
:1026700000950190325E04232121552002F00CFFC9
:10268000BE683046FDF774FE0A2102904843FDF70C
:1026900093FF314603F04EFA2E4903F0C7F9FDF7D8
:1026A00067FE0C26039006232BA2332100960320FD
:1026B00002F086FFFF20B968C005C14250D30298DE
:1026C00006234042029003982D22474233212720BF
:1026D0000096019402F080FE0223019600953321BA
:1026E0002D20029A02F0D8FE06232E223321392013
:1026F0000096019402F070FE02233A46019600957E
:102700004AE0000098F4FF1FD8F4FF1F48464C3AF7
:10271000000000004846523A0000000048424C3A8F
:10272000000000004842523A000000004841453A8B
:10273000000000005641453A00000000484D3A00B4
:1027400041453A004C453A0052453A004C503A0057
:1027500052503A000000C84253706565643A000068
:1027600006232022332127200096019402F034FE14
:1027700002230196009533212D20029A02F08CFE4F
:1027800006232E22332139200096019402F024FEE4
:10279000039A02230196009533213F2002F07CFE2C
:1027A000062363A233214E20009602F009FF84E045
:1027B0000E46009106235FA20F21032002F000FFC6
:1027C0005E4F5F49386803F031F9FDF7F7FD0246C7
:1027D00004230F211B200196009502F05DFE0623C5
:1027E00058A20F213720009602F0EAFE544978687B
:1027F00003F01CF9FDF7E2FD024604230F215520EA
:102800000196009502F048FE062350A221210320E4
:10281000009602F0D5FEB86DFDF7D0FD0246042308
:1028200021211B200196009502F036FE062349A2C5
:1028300021213720009602F0C3FE386EFDF7BEFD61
:1028400002460423212155200196009533E00E46CF
:10285000009114210623414A084602F0B1FE79682E
:10286000FF20C005C142009601940AD306232D2201
:102870001421262002F0B0FD01217868C9074840E4
:1028800006E0062320221421262002F0A5FD786808
:10289000FDF794FD0246022314212C200196009599
:1028A00002F0FAFD1820019024480096E030027EE4
:1028B0001E210123084602F0EFFD2948294900782E
:1028C00007280AD0012820D0042804D1081F44700A
:1028D000002002F0FDFE05B0F0BD224A121F107864
:1028E000401E40B210705470002801DA032016E038
:1028F00000201056002816D0012812D0022814D02B
:102900000328E8D118A08861E5E7164A121F10785D
:10291000401C40B2107054700328E9DD0020107094
:10292000E6E714A0EFE718A0EDE71CA0EBE7000036
:10293000522F5300534B503A00000000D8F4FF1FB1
:1029400000002041534B493A00000000444B503AEC
:1029500000000000444B443A000000004027000003
:1029600021F4FF1F9CF4FF1F526F616420446574C3
:10297000656374004D6F746F7220506172616D6594
:10298000746572730000000053656E736F7220509F
:102990006172616D65746572730000005049442076
:1029A000506172616D65746572730000F0B5034625
:1029B000084649008C465C5A15E0521E904203DAE4
:1029C0005100595AA142F8D25100904204DA5D5A9E
:1029D000A54201D8401CF8E7904204DA46009D5B0E
:1029E0005F5A9F535D529042E8DB41005D5A624658
:1029F0009D525C52F0BD00007CB5354C354D608871
:102A0000002815D1374934A088616868606108469C
:102A1000FFF794F920462C30FEF7F3FC20464430B3
:102A2000FEF7EFFC20465C30FEF7EBFC01206080F7
:102A30002D483F2600783606012825D007282DD0BE
:102A4000042836D0224801212C30FEF72AFC2048E9
:102A500001214430FEF725FC18250C2323A2102168
:102A60001420009502F0ACFD2149606902F0DEFF00
:102A7000FDF7A4FC02460C200090042310210195D0
:102A80003A2002F009FD7CBD114800212C30FEF7F0
:102A900008FC3146606902F059FF08E00C4800214B
:102AA0004430FEF7FEFB3146606903F04FF8606189
:102AB000D2E76069686002F0E9FD0020608001F003
:102AC00025FC022002F004FEFDF7ACFEC4E7000086
:102AD00024F4FF1FD8F4FF1F5370656564204B6911
:102AE00000000000C4F3FF1F21F4FF1F4B693A00F0
:102AF000000020417CB5354C354D2088002815D18B
:102B0000374934A08861286820610846FFF716F924
:102B100020462C30FEF775FC20464430FEF771FC51
:102B200020465C30FEF76DFC012020802D483F26BA
:102B300000783606012825D007282DD0042836D065
:102B4000224801212C30FEF7ACFB20480121443003
:102B5000FEF7A7FB18250C2323A2102114200095B3
:102B600002F02EFD2149206902F060FFFDF726FCEE
:102B700002460C2000900423102101953A2002F017
:102B80008BFC7CBD114800212C30FEF78AFB3146BE
:102B9000206902F0DBFE08E00C4800214430FEF71B
:102BA00080FB3146206902F0D1FF2061D2E7206925
:102BB000286002F06BFD0020208001F0A7FB0220BE
:102BC00002F086FDFDF72EFEC4E7000024F4FF1F8F
:102BD000D8F4FF1F5370656564204B70000000003F
:102BE000C4F3FF1F21F4FF1F4B703A000000204187
:102BF00010B500F001F810BD70B51E4A00245068F1
:102C0000002805D05068401E506001D1012010708E
:102C10009068401C9060916817480025814200D15F
:102C2000956016499068FDF7FDFA1548002902D114
:102C30008188491C818081883B2903D9858041880E
:102C4000491C418041883B2903D945800188491CA2
:102C500001800188172900D90580094D883D14207D
:102C60006043401901F0C6F8641CE4B2062CF6D3A8
:102C700070BD000078F0FF1FFFFFFF7FDE03000044
:102C8000E8FBFF1F10480F4981800121417023217B
:102C9000017011200D49000548620D480021417066
:102CA0000C4A962111701A2101700179C906FCD4D1
:102CB00001790907890FFBD1074908684008486076
:102CC0008860704703E80000002005400080044051
:102CD000004006400050064044F0FF1F70B5284CED
:102CE0006078002805D10120607020469C30FEF7F6
:102CF0005FFE244D2878072810D1214800219C3000
:102D0000FEF742FE1E4800219C30FEF73DFEFEF716
:102D100083FF1B2001F0B0FD0028FAD0287801289D
:102D200010D1174801219C30FEF72EFE14480121D6
:102D30009C30FEF729FEFEF76FFF242001F09CFD7A
:102D40000028FAD02878042811D1002060701C20B7
:102D500001F092FD0028FAD009489C30FEF7B2FE3F
:102D6000012805D001F0D2FA022002F0B1FC70BDBA
:102D700001F0CCFA022002F0ABFCFDF7FFFE70BDC3
:102D800064F3FF1F21F4FF1FF8B5254A00201379D3
:102D9000014613799B063ED5D279224D00262B7829
:102DA000214C002B14D0012B17D0022B1DD0032B4C
:102DB0001ED0E7787F1D9F4202D9E2545B1C2B7026
:102DC000E3782F785A1DBA4225D12E701A1D17E0CC
:102DD000AA2AF5D12270012205E0AF2A01D02E7077
:102DE000EEE7627002222A70EAE7A2700322FAE795
:102DF000E2700422F7E7275C7918401CC9B2C0B220
:102E00008242F8D80848001D185C884201D06E70D4
:102E100001E0A0786870054801F032F8F8BD0000C4
:102E200000A0064084F0FF1F4802002038F9FF1F71
:102E30007047704730B47446641E2578641CAB42FA
:102E400000D21D46635D5B00E31830BC18470020CC
:102E5000704710B501F054FB00F09AFF62B600F025
:102E6000DFFF00F0F1FB00F0ADF900F0E9F800F051
:102E7000BDFE00F0F7F900F005F800F0CFFD00F01E
:102E800057FA10BD08B500206946C87048700A207E
:102E9000087001208870684601F02AFC26206946E7
:102EA0000870684601F024FC002001F09BFE012020
:102EB00001F098FE01210A2001F0A0FC012126204A
:102EC00001F09CFC08BDF8B5089C0D461E46079F06
:102ED000A047A847B047052000F020FFB8470520CD
:102EE00000F01CFFA047F8BDF8B5089C0D4616463B
:102EF000079FA047A847B047052000F00FFFB8473D
:102F0000052000F00BFFA047F8BD0FB4FEB500256B
:102F100008982C460D9F0C9E80470E9880470520F0
:102F200000F0FCFEB8476006040EB047012801D14E
:102F3000641CE4B2032000F0F1FE6D1CEDB2082D1C
:102F4000EBD30F9808AD00280E98019700960290D9
:102F50000FCD06D0FFF7B7FF2046FEBC08BC04B07B
:102F60001847FFF7C1FFF7E70FB4F8B5174600247D
:102F70000C9E0D9D8847B047E80901D0B84701E095
:102F8000099880476806050E052000F0C7FE0B98DB
:102F90008047052000F0C2FEB047022000F0BEFED0
:102FA000641CE4B2082CE7D3F8BC08BC04B0184792
:102FB000F8B514461D46089F079E8847A047B047AE
:102FC000042000F0ABFEA847042000F0A7FEB8479D
:102FD000F8BDF8B514461D46089F079E8847B847B8
:102FE000A847042000F09AFEB047A047042000F054
:102FF00095FEF8BD0FB4FEB50CACE0CC08980024EB
:1030000080470A988047012000F088FEB0470120E1
:1030100000F084FE0EE0641CE4B2FA2C0AD9684683
:10302000E0C008AC0FCCFFF7D4FF0120FEBC08BC09
:1030300004B01847A8470028EDD1B8470020F5E7AD
:1030400010B500F081F800F059F810BD70B50546D4
:1030500029490001441820688047690005226B183F
:103060000026002832D02179052901D2227170BDB5
:103070000A2902D2491C217170BD6900A07A6D181D
:103080006D1C002804D10120A072E8B200F082F883
:1030900021890029F0D0E088884208D2401C80B203
:1030A000E08021898842E7D1DB1CD8B20BE0E07ACE
:1030B0000028E1D0207B401CC0B22073E17A884216
:1030C000DAD32673E8B200F065F870BD20790528E0
:1030D00001D922710CE0002802D0401E207107E0C7
:1030E000A07A012804D19B1CA672D8B200F052F835
:1030F0002673E68070BD000000FCFF1F70B50E480F
:1031000000210346817232240C3302250A46C17223
:103110000A260801C018048105718272491C0273D5
:10312000C9B2C6720329F4D3044818600448186170
:103130000448186270BD0000F4FBFF1F111E000060
:10314000FD1D0000E91D000008B51B200090684629
:1031500001F0CEFA1C2069460870684601F0C8FAF2
:10316000242069460870684601F0C2FA08BD0000D4
:10317000074A917AD07A814201D100207047505C91
:10318000491CC9B291720A29F8D300219172704783
:10319000F4FBFF1F0549CA7A8854C87A401CC0B2A4
:1031A000C8720A2801D30020C8727047F4FBFF1FC1
:1031B00010B500242046FFF749FF641CE4B2032C3D
:1031C000F8D310BD08B51820694608700120887032
:1031D00048700020C870684601F08AFA19206946D4
:1031E0000870684601F084FA002000F001F808BD7C
:1031F00010B5002804D001280BD0022808D103E024
:103200000021182001F054FB0021192001F050FB8F
:1032100010BD00211820F9E710B5002804D00128BE
:103220000BD0022808D103E00121182001F040FB57
:103230000121192001F03CFB10BD01211820F9E704
:1032400010B5002804D0012809D0022806D102E0D8
:10325000182001F01FFB192001F01CFB10BD1820E5
:10326000FAE700003EB500246946CC72012048729E
:10327000252008728C7202A801F03AFA002125205C
:1032800001F016FB0E486946088014200871CC80B6
:10329000684601F091F90A4869464230088068465C
:1032A00001F08AF9074869460880684601F084F908
:1032B00003486946E8300880684601F07DF93EBD64
:1032C00030A40000F6A8000070B50C4605460021A9
:1032D000252001F0EDFA1448144E002D04DBA9B2AC
:1032E00001F0ECF9002104E0002101F0E7F9684267
:1032F00081B2304601F0E2F90C480C4DE838A63DA9
:10330000002C04DBA1B201F0D9F9002104E0002176
:1033100001F0D4F9604281B2284601F0CFF90121D1
:10332000252001F0C5FA70BDF6A8000018A5000020
:1033300010B500F03DF800F0D7F8032000F0E5F8F4
:10334000002000F0D7F8642000F004F900216A2082
:1033500000F018F90021232000F014F98021372013
:1033600000F010F90021382000F00CF9752000F071
:1033700051F8682801D0012010BD01216B2000F018
:1033800001F900216C2000F0FDF8642000F0E2F863
:10339000064801F0C7FB0548A83801F0C3FB034805
:1033A000A83001F0BFFB002010BD0000F800002095
:1033B00008B500206A46D070012151702C2111708F
:1033C0009070684601F094F92D206A4610706846A6
:1033D00001F08EF9084807494161084981610849AF
:1033E00081600849C1600849016008494160084995
:1033F000016108BDC71E000030000020D31E000080
:10340000DF1E0000EB1E0000F71E00000F1F000073
:10341000BD1E00007FB5334C05462046103007C85E
:103420006B4607C30FCC103CFFF7C2FDD020103411
:10343000039007CC6B4607C31C3C0FCC103CFFF736
:1034400093FD103407CC6B4607C31C3C0FCC103CDB
:10345000FFF7D0FD1034039507CC6B4607C31C3C27
:103460000FCC103CFFF780FD103407CC6B4607C330
:103470001C3C0FCC103CFFF7BDFD103407CC6B4655
:1034800007C31C3C0FCC103CFFF792FDD120103439
:10349000039007CC6B4607C31C3C0FCC103CFFF7D6
:1034A00063FD103407CC6B4607C31C3C0FCC103CAB
:1034B000FFF7A0FD00201034039007CC6B4607C334
:1034C0001C3C0FCC103CFFF720FD0546103407CC08
:1034D0006B4607C31C3C0FCCFFF77BFD284604B0AE
:1034E00070BD00003000002010B580216B2000F07E
:1034F00049F810BD10B5032801D9012010BDC00640
:10350000010E1C2000F03EF810BD10B5032801D9B3
:10351000012010BDC006010E1B2000F033F810BDC5
:1035200010B5BC2801D3012110E0622801D302218B
:103530000CE02A2801D3032108E0142801D3042138
:1035400004E00A2801D3052100E006211A2000F03A
:1035500019F810BD10B504467D20C000844201D981
:10356000044602E0042C00D204242146FCF750FE5D
:10357000401EC1B2192000F005F86008FFF7D0FF27
:1035800010BD00007FB52F4C064620460D4610307A
:1035900007C86B4607C30FCC103CFFF709FDD020CE
:1035A0001034039007CC6B4607C31C3C0FCC103C77
:1035B000FFF7DAFC103407CC6B4607C31C3C0FCC7A
:1035C000103CFFF717FD002827D120461030039646
:1035D00007C86B4607C30FCC103CFFF7C5FC10347F
:1035E00007CC6B4607C31C3C0FCC103CFFF702FD19
:1035F0001034039507CC6B4607C31C3C0FCC103C22
:10360000FFF7B2FC103407CC6B4607C31C3C0FCC51
:10361000103CFFF7EFFC00280AD02046103007C806
:103620006B4607C30FCCFFF7D4FC012004B070BD7C
:103630002046103007C86B4607C30FCCFFF7C9FC04
:103640000020F3E73000002010B500F07DF80121E4
:10365000432001F02DF9642000F050FB00214320AD
:1036600001F026F9642000F049FB0121432001F01C
:103670001FF90021AE2001F0D1FF0021D52001F07B
:10368000CDFF0021502001F0C9FF0021A82001F04A
:10369000C5FF00213F2001F0C1FF0021D32001F030
:1036A000BDFF0021084601F0B9FF0021402001F0D4
:1036B000B5FF00218D2001F0B1FF0021142001F0A1
:1036C000ADFF0021202001F0A9FF0021084601F0F4
:1036D000A5FF0021A02001F0A1FF0021CF2001F0D3
:1036E0009DFF0021DA2001F099FF0021122001F056
:1036F00095FF0021812001F091FF0021EF2001F0D2
:103700008DFF0021D92001F089FF0021F12001F077
:1037100085FF0021DB2001F081FF0021302001F036
:103720007DFF0021A42001F079FF0021A62001F0F7
:1037300075FF0021AF2001F071FF01F0E3FD0021D2
:10374000084600F026F810BD08B500206A46D07083
:1037500001215170232111709070684600F0C8FF5C
:1037600042206A461070684600F0C2FF17206A4681
:103770001070684600F0BCFF43206A46107068462F
:1037800000F0B6FF16206A461070684600F0B0FFE1
:1037900008BD10B50446B031C8B2002101F03EFFAB
:1037A00020090021103001F039FF2007000F01210E
:1037B0000843002101F032FF10BD0000F0B58DB0CC
:1037C0000027282102A80C97FCF720FD0C240021DB
:1037D000062383A20846009401F0F2FE0120019026
:1037E0000623252200210094642001F0F5FD01F05C
:1037F000CFFD0020800000227F1C02A9BFB20A502A
:103800000A2FF9D37A4B00201D46A0351C466034A0
:10381000014614267143C91800224031401C0A8514
:1038200080B24A850528F3D398E000263300FFF7DD
:1038300001FB050413223444520001200021C00280
:1038400000F0A4FD61794A006949511840310886A9
:103850006079401C60713EE001200021800300F08F
:1038600095FD617E4A006249511880318880607EF2
:10387000401C60762FE001200021800200F086FDD0
:1038800001465B488030427B5300594A9A18803287
:103890001183417B491C41731DE001200021C003BD
:1038A00000F074FD014668784200514810188030DD
:1038B00081856878401C68700DE00120002140027D
:1038C00000F064FD697D4A0049495118C031088003
:1038D000687D401C687514203146414344480818EF
:1038E000009060304179042901D300214171009892
:1038F00003220021703002F016F800984030028D4B
:10390000C18E8A4200D20185428D018E8A4200D941
:103910004185761CB6B2052E88D30C980A21401C2E
:1039200080B20C90FCF774FC002904D10020FFF752
:1039300087FC01F02DFD1E21781CFCF769FC024676
:103940000C2106200191009003230021542001F056
:10395000A3FD052000F0D2F97F1CBFB225488742A5
:1039600000D262E7224C002002AB14214143091926
:10397000C20040310D8D9D50D218401C498D80B23F
:1039800051600528F1D30C2406231BA221460020F8
:10399000009401F015FE06231BA2182100200094BC
:1039A00001F00EFE01F0F4FC7D25ED00284600F04C
:1039B000A5F9FD2000F090FD0023282202A9FD209A
:1039C00000F0D0FD062313A224210020009401F072
:1039D000F7FD01F0DDFC284600F090F90DB0F0BDD8
:1039E00043616C6962726174696F6E2E2E2E0000E5
:1039F000D8F4FF1FB80B000043616C6962726174F8
:103A0000696F6E204F4B2100536176696E672E2ED1
:103A10002E00000053617665642121000EB509482F
:103A2000009000206A46907101211171917210720C
:103A3000507160235372D172D071684600F0C0FC9F
:103A40000EBD000002CF0000F0B5644E00273446E2
:103A5000203C254685B0203D3B00FFF7EBF90504EF
:103A600014243444530001200021C00200F08EFCD5
:103A700069794A005949A039511840310886687956
:103A8000401C68713EE001200021800300F07EFCB4
:103A9000697E4A005149A039511880318880687E7A
:103AA000401C68762EE001200021800200F06EFCB0
:103AB000617B4A004949A039511880310883607BF5
:103AC000401C60731EE001200021C00300F05EFC7A
:103AD00071784A004149A039511880318885707841
:103AE000401C70700EE001200021400200F04EFCEE
:103AF000717D4A003949A0395118C0310880707D64
:103B0000401C70751420394641433448A0380818C9
:103B1000009060304179042901D30021417100995E
:103B2000042208467030663101F04AF8E089052821
:103B300001D20520E081608C052801D20520608437
:103B4000009840300190018D408D0290081AFCF7DA
:103B500033FD03900198C18C0298081AFCF72CFDE4
:103B60000399FCF755FC00997F1CFFB2C866052F2E
:103B700000D271E719482568A038C66E284631463C
:103B800001F0E4FE07463146284601F0DFFF3946E2
:103B9000FCF73EFC124E314601F048FFE0676569D4
:103BA000A46A2946204601F0D1FE07462946204650
:103BB00001F0CCFF3946FCF72BFC314601F036FF13
:103BC0000649084A60310860904204DA064A904289
:103BD00001D20020086005B0F0BD000078F5FF1F9D
:103BE0000000C84200000C4200000CC208B50020D2
:103BF0006946C8704870282008700120887068469F
:103C000000F076FD0121282000F0F8FD0121282098
:103C100000F04EFE292069460870684600F068FDF5
:103C20000121292000F0EAFD0121292000F040FEB9
:103C3000342069460870684600F05AFD012134209E
:103C400000F0DCFD0121342000F032FE372069460F
:103C50000870684600F04CFD0121372000F0CEFDD1
:103C60000121372000F024FE08BD0000F0B585B02A
:103C70001546022803D90020C04305B0F0BD104E00
:103C8000C400325D012A17D06A46107001275770B0
:103C90000320107268460395019100F01FFE37550E
:103CA000A019456001211620FEF76AFA03211720AA
:103CB000FEF766FA0020E0E70120C043DDE70000E0
:103CC000D8FBFF1F70B5062802D90020C04370BD85
:103CD0001424094D60434419267B012E09D06160EC
:103CE000002666702B5401202073A16030462261AB
:103CF00070BD0120C04370BD60FBFF1F002809D0CC
:103D0000012800D10220044948600020087008788A
:103D10000128FCD17047000078F0FF1FF8B50D4E68
:103D20000746756900240D480B490068FCF770FAD6
:103D30007843B1690246B0698842FCD0884201D21A
:103D4000091A01E02B1A59180C1901469442F2D3B2
:103D5000F8BD000000E000E040420F0044F0FF1F0B
:103D600070B5022802D90020C04370BD074DC400C1
:103D7000295D002906D000F00DFE002028556119AC
:103D8000486070BD0120C04370BD0000D8FBFF1F1C
:103D900070B50021134B0C4614224A43D0184460DE
:103DA000846044709C54491C0461C9B204730629A0
:103DB000F2D30C487D2188300480448084800A48F6
:103DC000C9000068FCF724FA0849401E884208D858
:103DD000074D68610321081FFEF7D2F9AC61072087
:103DE000286170BD60FBFF1F44F0FF1FFFFFFF0055
:103DF00000E000E04168002910D04168491E4160A0
:103E00000CD1012141700178012903D18168416001
:103E1000002141700069002800D000477047000071
:103E20001FB500F051F8E1204002009001200390FE
:103E30000C206946488100200881C880094C888090
:103E4000204600F0DFFD08480168C87820221043B2
:103E5000C8700649D00108600121204600F0B6FD77
:103E60001FBD000000A0064038F9FF1F00E100E080
:103E7000012801D0002070470048704738F9FF1F23
:103E800001680A79120701D50A79CA790A790A798B
:103E9000120612D5828A002A10D0438A4268D25C68
:103EA000CA71418A491C89B241828289914201D3F7
:103EB00000214182818A491E81827047C87840066C
:103EC000400EC870704700000B480A4901600B495A
:103ED0008160014628314160FF210131C18181812A
:103EE000002141830183C182818241824162C1619B
:103EF0000162704700A0064038F9FF1F60FAFF1FFB
:103F0000F8B50023FFF7B4FF002820D0002517E004
:103F10008489878A6E4637803688B442F9D9CC5C6A
:103F2000078A4668F455048A641CA4B20482868910
:103F3000B44200D30582848A641C84825B1C9BB2D9
:103F40009342E5D30068C17880221143C170F8BD67
:103F500010B500F007F800F097F900F0B1F800F0A4
:103F600059F810BD10B5104C607800281AD01328ED
:103F700014D008DC02280BD010280CD011280DD04A
:103F800012280DD10AE0142808D0152808D105E020
:103F900000F024F904E000F0EDF8102000F050F9F2
:103FA0000020607010BD000084F0FF1F70B588B065
:103FB0000E460446154620216846FCF727F91B2DBE
:103FC00002D9002008B070BDAA2069460870487068
:103FD0008E70CD7000216846431908E0625C461877
:103FE00032711A79465C9219491C1A71C9B2A942F8
:103FF000F4D32C462A1D05E01979065D8919641C45
:104000001971E4B29442F7D301466A1D0120FFF70B
:1040100077FFD6E730B589B020216846FCF7F6F87F
:1040200024486A46018C0B1213705170418C0B129C
:104030009370D170818C0B1213715171C18C0B1262
:104040009371D171018D0B1213725172408D011257
:104050009172D072122202216846FFF7A7FF154C19
:10406000154D403C2946206F01F0E0FCFCF780F93B
:104070000104090E6A46117050702946E06E01F085
:10408000D5FCFCF775F90104090E6A469170D070F1
:104090000A49606F01F0CAFCFCF76AF90104090ED5
:1040A0006A46117150710C2201216846FFF77EFFAC
:1040B00009B030BD98F5FF1F0000C8420000204144
:1040C00000B589B020216846FCF7A0F8274869466A
:1040D000428913120B704A70808902128A70234A37
:1040E000C870403A106D030E0B7103144B7103122C
:1040F0008B71C871506D020E0A7202144A7202125C
:104100008A72C87219481A494030806801F08EFCE2
:10411000FCF72EF901040A0E69460A734873134826
:10412000C038C06CFCF724F90004000E694688739F
:104130000E48C038C06CFCF71BF96946C8730B48C1
:10414000C038406DFCF714F90004000E694608748D
:104150000648C038406DFCF70BF9694648741222D6
:10416000F1216846FFF722FF09B000BD98F5FF1F57
:104170000000C84270B51648417902790802104320
:1041800040BA00B2FCF718FA124D2946FCF740F984
:10419000114C20600E48C17982790802104340BA60
:1041A00000B2FCF709FA2946FCF732F960600848CA
:1041B000417A027A0802104340BA00B2FCF7FCF9D7
:1041C0002946FCF725F9A06001F060FA70BD0000F7
:1041D000480200200000C842D8F4FF1F30B585B067
:1041E00014216846FCF712F8134C144D2068294638
:1041F00001F01CFCFCF7BCF8021269468A71C87118
:104200002946606801F012FCFCF7B2F80212694618
:104210000A7248722946A06801F008FCFCF7A8F869
:10422000021269468A72C872122210216846FFF78C
:10423000BDFE05B030BD0000D8F4FF1F0000C8422D
:104240001CB5002100910191AA216A46117051709C
:10425000EF2191700721D17010710A48C178001DBB
:10426000085C5071002069460B5C8A79401CD218AA
:10427000C0B28A710728F7D307220120FFF740FE5A
:104280001CBD00004802002030B589B020216846DE
:10429000FBF7BCFF1C486A46C18C04460B0A13702E
:1042A00051704034E1890B0A9370D170618C0B0A14
:1042B00013715171408F010A9171D071E06FFCF759
:1042C00057F80104090E6A4611722546507280356E
:1042D0002868FCF74DF80104090E6A469172D07205
:1042E0006868FCF745F80104090E6A4611735073BB
:1042F000E08E010A9173D0731022F2216846FFF715
:1043000055FE09B030BD000018F5FF1F10B5FDF7D0
:104310000BFEFDF7B9FFFDF755FF10BD10B5FEF719
:1043200027FF194C0028607007D02078002804D19E
:10433000022001F0CDF90020607020780300FEF724
:1043400079FD0A09200C060F1215181B1E20FDF717
:10435000DDFF16E000F04AFF13E0FDF71BFE10E062
:10436000FEF7C8FB0DE0FEF747FB0AE0FCF7CCFDCB
:1043700007E0FCF74DFD04E0FCF7A4FC01E0FEF7CC
:10438000ADFCFDF749FC10BD20F4FF1F00220346E1
:10439000D340DB0703D1521C92B2102AF7D307484F
:1043A000836849000B438360D106C90E0160016830
:1043B0000906FCD500690005000D704700B00340F8
:1043C000F8B50546002069460880064604460746BB
:1043D0000121480700F0EEFA3B4B986969460880D6
:1043E0000888002802D00888C043088068462988C9
:1043F00000880143684601800088C1436846018007
:104400009969008801409961A879697A400001435F
:10441000A87A084398605868E97A08435860287A6F
:10442000012800D1202669794020012903D10643C3
:10443000264A41021160E979002902D0D968014376
:10444000D9602868D9682A79521ED2B21143D9603E
:104450001F490246E240D207D20F11D0E206D20E27
:10446000194B32431A601B4B01221B78A2409C4619
:104470009B00CA5063465B1C164A7F1C1370FFB238
:104480002A79BA4203D9641CE4B2102CE1D3C203E6
:104490000BD510220C4B32431A600E4B01241A78B4
:1044A000240495004C51521C1A7080030BD5162021
:1044B000064305480660074A012310785B04840020
:1044C0000B51401C1070F8BD00B0034000E100E04B
:1044D00020F6FF1F58F0FF1F410210B507480022C9
:1044E00042700A2343720B0C037201234370090AC2
:1044F0004172027200F020F8002010BD000002405E
:1045000010B50121080300F055FA084C6079000647
:10451000FCD5084806490068FBF77AFE401E800675
:10452000800E4030E0703020607110BD000002400D
:1045300040420F0048F0FF1F10B572B63020074C04
:1045400060710749481F0160601D884762B6607945
:104550003321084000D0012010BD000000000240BF
:1045600065F0FF1FF8B50026400217460C46C51837
:104570001CE010480021417006214172290C017293
:1045800001214170290A417205720221417021788E
:1045900001726178417203214170A1780172E17862
:1045A0004172241D2D1DFFF7C7FF361DBE42E0D30B
:1045B0000020F8BD00000240F1B582B0029800244E
:1045C00000888206930F8205120F009201070205F0
:1045D0008504090F920FAD0FC00B8446334847691D
:1045E0006E1D0120B040314E0743776160460028C0
:1045F00015D007D030698B409843306130698A40CC
:10460000104330612A480668029801797D20C00075
:1046100041430F46300CFBF7FBFD01460BE0234EF8
:10462000F0688B409843F060F0688A401043F06077
:10463000E8E7641CE4B20846E040FAD1072C33D81E
:1046400030463946E040FBF7E3FD86B21949680081
:104650000E520298711CC08848437D21C900FBF7A7
:10466000E1FD80B28646144AA80011588E60009978
:104670001358C9008C460C315E580427BE435E5067
:104680001658282373506107490F135808311960D1
:104690000021022D01D19368D964155863467446F0
:1046A0001033EC5010584160FEBD00000080044003
:1046B00048F0FF1F5AF0FF1F285C000070B582050C
:1046C000150F8004840F084A6000105A401C4843AC
:1046D0007D21C900FBF7A6FD044AA1005258E9005C
:1046E00080B21031505070BD5AF0FF1F285C00009E
:1046F000F0B501783E4BCD064A09ED0E92009C586C
:10470000A6690121A9400E43A6619C5865698D43A5
:1047100065614478002C02D0012C05D00EE09C5835
:10472000A5698D43A56109E09C58A6690D463543EE
:10473000A5619C5866690D463543656185782D4EA7
:104740002D4C012D15D12B4F9D58403FBD4203D11B
:10475000A5680D43A5600CE0B54203D1E5680D43A3
:10476000E56006E0234F4037BD4202D125690D4385
:104770002561C17801293AD19958B1420BD102780B
:10478000382A04D0392A06D16269802301E062699F
:1047900040231A436261B1420BD10278202A04D02F
:1047A000212A06D16269202301E0626910231A439D
:1047B0006261104B403B99420BD10278182A04D019
:1047C000192A06D16269082501E0626904252A4395
:1047D000626199420BD100780C2804D00D2806D1D3
:1047E0006069022101E06069012108436061F0BD58
:1047F0001C5C000040F00F4000900440F0B51C4DE0
:104800001B4E43091B4F9B00184A194C4035403E34
:10481000FB58002915D0C106C90E01208840B342BB
:1048200003D1916801439160F0BDA34203D1D168E7
:104830000143D160F0BDAB42FCD11169014311616C
:10484000F0BD01218140B34203D19068884390605C
:10485000F0BDA34203D1D0688843D060F0BDAB4225
:10486000FCD1106988431061F0BD00000090044045
:1048700040F00F401C5C0000C2064109D20E8800C7
:10488000034908580069D040C007C00F70470000B6
:104890001C5C0000C1064209C90E04489200805801
:1048A000C26801238B401A43C26070471C5C000041
:1048B000420910B59300C006074C0122C00E824089
:1048C000E058002903D041681143416010BD816860
:1048D0001143816010BD00001C5C000070B50446EF
:1048E0000121022000F066F8254801680225A9434D
:1048F000016024487D21C9000068FBF789FC6168DC
:1049000041432078020120481218116021780901E2
:104910000918CB6801221343CB60217809010918DB
:104920008B6893438B602178090109188B68AB432E
:104930008B602178090109188B6813438B606178BB
:10494000012916D12178090108188168294381605D
:1049500021780E4A8900E068505020780C490028E0
:1049600008D0012805D1C0050860217A1720FDF77D
:10497000E5FB70BD012080050860217A1620F6E76E
:104980000070034048F0FF1F0071034050F0FF1F0C
:1049900000E100E0012809D8010105480818C168B4
:1049A00001221143C160816891438160704700001A
:1049B00000710340044A0029516901D0014300E01D
:1049C0008143516170470000008004400A4A10B5DD
:1049D000904202D10120000504E0084A904204D12F
:1049E00001204005FFF7E6FF10BD054A9042FBD1CC
:1049F00001208005F6E7000000A0064000B0064058
:104A000000C00640F8B5044623480D46844202D152
:104A1000012108050AE02148844202D1012148050C
:104A200004E01F48844203D101218805FFF7C2FF3B
:104A3000297B204600F03AF8E078F3210840E07046
:104A4000A078297A0843A070A07829790843A0703B
:104A5000A078A9790843A0701248006800902968DE
:104A6000060948083018FBF7D3FB81B20E48814293
:104A700000D9014620784009400120702078CA04FE
:104A8000D20E104320706170E078AA7A1043E07073
:104A90003046FBF7BDFBF8BD00A0064000B0064065
:104AA00000C0064048F0FF1FFF1F000001290ED87C
:104AB0000E4B0F4A98420BD1D068CB011843D060FF
:104AC000012904D10B4881680C2211438160704791
:104AD000094B984202D11069090304E0074B984240
:104AE000F5D11069490308431061704700A00640E2
:104AF000008004400090044000B0064000C0064022
:104B000010B5074C05486060214660312069886116
:104B1000002000F0DDFD0120207010BDB804002051
:104B200064F3FF1F10B500210A4606C00160416012
:104B300003461A4A78331A491A625962194C446179
:104B400000230361184C0362C46143628261154C07
:104B5000C4628362026341630021C1638164C164F2
:104B60000165446483630A46026441652246C26566
:104B700081650E4A0E490266416600218166C16662
:104B8000016741670B4903460B4A783306C300228D
:104B90000A4978301A60C16010BD00007B14AE472E
:104BA000E17A743F0000F03FE17A74BFFCA9F1D2D2
:104BB0004D62503FFA7E6ABC7493683F0000E03F4C
:104BC00070B50C4603460021084604E04D005D5BCD
:104BD0002818491C89B29142F8D31146FBF718FBFB
:104BE000208070BD10B5034600F010F8064A98000A
:104BF00011580B680B600B68182423430B60105886
:104C00000021416010BD0000345C00001049002804
:104C100010D001280DD14869402210434861C8686E
:104C2000032292069043C860C8680122D20610434E
:104C3000C86070474869202210434861C868032251
:104C400012069043C860C86801221206EFE7000010
:104C500000800440F7B500238AB004460093019316
:104C6000D34E8C46079303930493059318461D4631
:104C70000693CF4F8200543F00233946BB501C316E
:104C80008B501C31401C8B50C0B2B3500728F0D35E
:104C9000A1680027604600F0C9FE0090E1680C980A
:104CA00000F0C4FE019038460C214843C149421827
:104CB000936809585268009800F0A2F9BC49BA00FC
:104CC000543988504000000E05D0B948A9001C385E
:104CD0006D1C4750EDB27F1CFFB2072FE3D306E0F7
:104CE000B3490020AA001C396D1C8850EDB2072D75
:104CF000F6D300252F4638460C214843AD494218CB
:104D0000936809585268019800F07AF9A849BA00E6
:104D1000383988504000000E03D0A8006D1C375071
:104D2000EDB27F1CFFB2072FE5D304E00020AA00FC
:104D30006D1CB050EDB2072DF8D300270025B80048
:104D400001909B4801991C3846581C209A49704391
:104D500041189748AA008058800002900858FBF735
:104D60002BFC00909249029838390958B000904EB7
:104D7000543E305800F05AFE0990009900F056FE5B
:104D8000039900F0E3FD03900799099800F0DEFD18
:104D90006D1CEDB20790072DD3D37F1CFFB2072FF8
:104DA000CCD34000854D000E03D007990398FBF744
:104DB0002FFB0490E069049900F038FE049021690B
:104DC00000F08CFE206906D36840049900F086FE4E
:104DD00002D2206968400490A06A049900F0B6FDF0
:104DE000A0627649606B4840A16A00F077FE03D26A
:104DF0007249606B4840A062616BA06A00F06EFE71
:104E000001D2606BA0620020079007460390002546
:104E1000B8000190664801991C38465866491C2024
:104E20007043C43141186248AA0080588000029043
:104E30000858FBF7C1FB00905D49029838390958C2
:104E4000B0005B4E543E305800F0F0FD06900099E3
:104E500000F0ECFD039900F079FD039007990698A6
:104E600000F074FD6D1CEDB20790072DD2D37F1CAE
:104E7000FFB2072FCBD34000000E03D00799039851
:104E8000FBF7C6FA0590206A059900F0CFFD059062
:104E9000616900F023FE606907D3484D05996840B9
:104EA00000F01CFE02D2606968400590E06A059936
:104EB00000F04CFDE0624149A06B4840E16A00F01F
:104EC0000DFE03D23D49A06B4840E062A16BE06A51
:104ED00000F004FE01D2A06BE062002007900746BC
:104EE00003900025B8000290314802991C384658BA
:104EF00030491C207043C43941182D48AA008058FD
:104F0000800000900858FBF757FB01902849009853
:104F1000383909582648B2005438805800F086FDC8
:104F20000646019900F082FD039900F00FFD039001
:104F30003046079900F00AFD6D1CEDB20790072D71
:104F4000D2D37F1CFFB2072FCBD34000000E03D07B
:104F500007990398FBF75CFA0690606A069900F0DF
:104F600065FD0690A16900F0B9FDA06907D3134D56
:104F70000699684000F0B2FD02D2A0696840069030
:104F8000206B069900F0E2FC20630C4DE06B216B76
:104F9000684000F0A3FD02D2E06B68402063E16B43
:104FA000206B00F09BFD01D2E06B20630DB0F0BDE3
:104FB0009C040020D4F2FF1F88F0FF1F0000008037
:104FC00070B50E4D044601682846FBF721FAA06033
:104FD00028466168FBF71CFAE06029462069FBF768
:104FE00017FAE06129466069FBF712FA2062294648
:104FF000A069FBF70DFA606270BD00000000404040
:10500000FFB581B01D4617460E460024019800F0FA
:1050100065FD0ED83946019800F0DEFC09D831460E
:10502000384600F093FD04463146019800F08EFDAD
:1050300012E03946019800F051FD11D2294601983D
:1050400000F0CAFC0CD83946284600F07FFD044623
:105050002946019800F06EFD2146FBF7D9F9044678
:10506000204605B0F0BD10B5FBF790F80621484387
:1050700080B210BD0021427806E01C234B431B1870
:105080009B78012B02D0491C8A42F6DCC8B27047DB
:1050900010B5FBF77BF80621484380B210BD10B570
:1050A000FBF774F80621484380B210BD10B5FBF73A
:1050B000C3FB092000F00CFB01490120087010BD62
:1050C00064F3FF1F0A4A90698169002908D0516082
:1050D000C06811466031801C8861012010707047E3
:1050E00001690029FBD040690028F8D10847000079
:1050F00064F3FF1F10B5032000F0EAFA0149012014
:10510000087010BD64F3FF1F10B5FBF795FB072077
:1051100000F0DEFA01490120087010BD64F3FF1FA2
:1051200010B5FBF789FB062000F0D2FA01490120F7
:10513000087010BD64F3FF1F10B5FBF77DFB052061
:1051400000F0C6FA01490120087010BD64F3FF1F8A
:1051500010B5FBF771FB042000F0BAFA01490120F9
:10516000087010BD64F3FF1F10B5082000F0B0FAFE
:1051700001490120087010BD64F3FF1F002800DA08
:1051800040427047FDF765FEFBF782FCFFF7BEF873
:105190001C20FFF771FB002801D1FEF70FFB012354
:1051A0000E4A33210020FEF78DFD01230C4A152104
:1051B0001846FEF787FD7D2101230A4AC900032016
:1051C000FEF780FD0123084A64210220FEF77AFDE4
:1051D000FBF728FB6420FEF791FDFBE7513F000041
:1051E000B13100008D0900001D430000FEB51620FE
:1051F000002100901823344A084600F08AF918204C
:1052000000900C2331A21E211A2000F0D9F90625A6
:105210000C24304E00950194328802232946222026
:1052200000F03AF9012706233A2219462E20019769
:10523000009400F0D1F800950194728802230621B1
:10524000342000F029F906233A221946402001971C
:10525000009400F0C1F800950194B2880223062161
:10526000462000F019F91C481C49406900F06EFC0A
:105270001B49FBF7CDF81B4900F0D8FBFBF79EF864
:10528000C0B2194E00277070632801D3632070707C
:10529000C0B20C2148436321FAF7BAFF14214843F6
:1052A00012490A234218102000900421642000F0C3
:1052B00030F9009501940323727807216E2000F0E5
:1052C000EBF83770FEBD0000028200005665637483
:1052D0006F720000E8FBFF1FD8F5FF1F9A99D940B5
:1052E0009899993F0000C84222F4FF1F4A820000AB
:1052F0000346012000E058430A46491EC9B2002A6D
:10530000F9D1704710B50021084C0A460020C300AF
:105310001B195A54401CC0B28028F8D3491CC9B28A
:105320000829F3D300F034F810BD000030FCFF1F53
:1053300010B57F2814D83F2912D8CB080724E31AC8
:105340002140641A0121A140064CC0000019DBB2C3
:10535000002AC25CC9B201D00A4300E08A43C254A9
:1053600010BD000030FCFF1F3F22511AC9B2CA080D
:105370004907490F01238B40D9B2044BC000C01824
:10538000805C084000D001207047000030FCFF1F07
:1053900070B5104E00252846B030C0B2002100F094
:1053A0003DF90021084600F039F90021102000F0F5
:1053B00035F90024E0008019405D012100F02EF94C
:1053C000641CE4B2802CF5D36D1CEDB2082DE2D341
:1053D00070BD000030FCFF1FFFB583B00C9F0E4670
:1053E0000191F908780700D0012008180699484370
:1053F000C0B2203A0290D0B20025059040E0069855
:1054000006280FD00C283ED1182F3CD10598242116
:1054100048431E494018445D0020009020060FD5E7
:105420000D9A11E0082F06D00C2F2CD105980C21D5
:1054300048431749EEE70598062148431549E9E72F
:105440000D98002812D0002231460398FFF770FF14
:105450006006040E761C0198F6B2301AB84207D1E5
:105460000398019E401CC0B2039007E00122EBE7C5
:105470000098401CC0B200900828CFD36D1CEDB23C
:1054800002988542BBD307B0F0BD0000EE62000079
:105490007A5E0000405C0000FFB583B000261D4628
:1054A00034460C9F31E0281B401EC1B20A20FFF792
:1054B0001FFF01460598FAF7ABFE0A21FAF7A8FE8E
:1054C000002E05D1681E844202DA00290DD0012683
:1054D00001220D98303101920090CAB238460399EA
:1054E00060434018C0B23B460AE001210D9801918B
:1054F00000903846039960434018C0B23B462022D2
:105500000499FFF769FF641CE4B2AC42CBD307B047
:10551000F0BDFFB586B00F980C4601930091069937
:105520000290C918802903D98021C91AC9B20191F2
:105530002118402903D94021091AC9B20291C10892
:10554000400700D00120081804900298C1084007C5
:1055500000D001200818059000202BE0002723E050
:10556000049948430899C919465C0025300601D5BD
:10557000012200E0002221460698FFF7D9FE7006BE
:10558000060E641C0098E4B2211A0298814205D1EB
:105590000698009C401CC0B2069003E06D1CEDB262
:1055A000082DE3D37F1CFFB2059887420398D7D319
:1055B000401CC0B2019903908842CFD30AB0F0BD1D
:1055C000FFB585B004460D4608988021081A0E9F45
:1055D00003904020C01B1646029019E00398A04299
:1055E00002DA0024E819C5B20298A84203DA0024BE
:1055F0002546FFF787FE0120019000973278294663
:105600002046089BFFF7E8FE08982018C4B2761CD5
:10561000307820385E28E1D909B0F0BD70B5054674
:10562000002900D001211620FFF742F900211720A0
:10563000FFF73EF9002400212320FFF739F928065F
:1056400001D5012100E000214220FFF731F90121BD
:105650002320FFF72DF96806641C050EE4B2082C20
:10566000E9D301211720FFF723F901211620FFF7C5
:105670001FF970BD30B5049D039C0EC00021016070
:10568000416081600C3032C030BD000000B5A1B077
:1056900080216846FAF7BAFD0C480168009141681C
:1056A000019181680291816D0391C16D0491006E39
:1056B000059072B6FE20FEF70FFF18220023694600
:1056C000FE20FEF74FFF62B621B000BDD8F4FF1FE9
:1056D00010B505490028087002D10449012008705E
:1056E000FBF77EFE10BD000020F4FF1F22F4FF1F19
:1056F00010B50949094C08780123094A002802D04D
:10570000012803D006E00B70906802E000200870CA
:10571000D0682066137010BD00F0FF1FB804002091
:1057200064F3FF1FFFB585B00E9F0C460291F90888
:105730001646780700D00120081808994843C0B2DF
:105740000390084637490C2807D0182868D1182F2D
:1057500066D148680025009011E00C2F60D10868E0
:10576000F8E7009968000A5C31788A4205D100990F
:10577000401841787078814207D06D1CADB2009816
:10578000FAF704FD4008A842EBD80098FAF7FEFCAF
:105790004008A84244D900203EE008980C2802D0D6
:1057A000182806D00DE00C2F0BD1182068431E4995
:1057B00004E0182F05D148201C496843411800987F
:1057C0000E5C00200190300604D50598E1B2C0B20D
:1057D0000F9A06E00F98002813D000220598E1B236
:1057E000C0B2FFF7A5FD7006060E641C0298A4B2B5
:1057F000201AB84207D10598029C401C80B205903F
:1058000007E00122EAE70198401CC0B20190082895
:10581000D9D30098401CC0B2039900908842BCD3F1
:1058200009B0F0BD5CF3FF1F4A700000EA7E000083
:10583000FFB587B004460020109E0D460590700805
:1058400002A931C117461EE00598002820D000208B
:1058500005900398801B8030A04203DAA819801CB1
:10586000039C85B20498801B4030A8420EDB11983F
:10587000009601903A46294620460A9BFFF752FFC0
:10588000A01984B2BF1C3A78002ADDD10BB0F0BD5C
:10589000802A02D901200590F5E703990298081A99
:1058A0008030A04202DAA81985B20C460498801B09
:1058B0004030A842EADB0D2A0DD0119800960190E5
:1058C0000A98E9B24308E0B2FFF786FD0298001992
:1058D00084B27F1CD7E7A81985B20C467F1CF5E778
:1058E000FFB583B007460D9E0E9D0C9C0598FAF7F8
:1058F0004DFC6108414388B2A84205D904AD019628
:1059000000940ECD38460AE0281AC10F0818C003CB
:105910000196009404A9000C0EC9C01980B2FFF7CB
:1059200087FF07B0F0BDF0B515460E460746A94201
:105930000BDAFDF73BF80446421E31463846FFF7C6
:10594000F2FF2A46611C3846EEE7F0BD70B501252E
:105950000400ED074C4020D4441A01D2001B091961
:10596000C60D4B00F2B2FF2A29D01B0E2CD000022C
:105970000C02D31A2C43DC402843051910D2280A04
:1059800002D3401C6D0611D0761EF6058019FF2A41
:1059900000DA70BDC00DC00570BD694000F0DCF8D4
:1059A00001200543C541521C761CE8E764089C4071
:1059B000C90161408900E7D10124A043E4E71B0E3F
:1059C000440200D0034870BD002AFCD1C00FC007BC
:1059D00070BD00BF0000C07F01230200DB050A4349
:1059E0000DD4DA4203D49A4207D488427047D84291
:1059F00014D4D94212D48842704780427047DA42A8
:105A000003D59A42F9D5814270475B004200DA42E1
:105A100004D24A00DA4201D28142704710B5024AEC
:105A2000FAF7D6FD10BD00BF0900160470B542009C
:105A300064414B005C41120E39D01B0E38D0FF2A56
:105A40003CD0FF2B3AD040024902400A490A0600E6
:105A500045184E43000A090AD2184843ED017F3A1F
:105A60000104731A4019190C4318990F04D001212D
:105A70005B0849075B1A521CD80904D3401CF50384
:105A800001D19D0607D0FF2A08D2D50506D0E4072C
:105A90002043401970BD0125A843F4E7002A01DC2A
:105AA000E00770BD2402FF202043C00570BD1B0E1F
:105AB000FF2A03D0FF2B01D0E00770BDFF26450071
:105AC0003606B54206D84D00B54203D8D218FF2A93
:105AD00000D0E7E7004870BD0000C07F01230A0046
