:020000040000FA
:10000000400800204B01000057010000590100008A
:1000100000000000000000000000000000000000E0
:100020000000000000000000000000005B01000074
:1000300000000000000000005D0100009538000095
:100040006101000061010000610100006101000028
:100050006101000061010000610100006101000018
:100060006101000061010000610100006101000008
:100070002D3A0000D53A0000D73A00008112000066
:1000800061010000610100006101000061010000E8
:100090006101000061010000892E0000B12E000006
:1000A000752A0000C12A0000610100006101000002
:1000B00061010000610100006101000061010000B8
:1000C00000F002F800F030F80CA030C8083824180E
:1000D0002D18A246671EAB4654465D46AC4201D180
:1000E00000F022F87E460F3E0FCCB6460126334282
:1000F00000D0FB1AA246AB463343184728950000B0
:10010000489500000023002400250026103A01D362
:1001100078C1FBD8520700D330C100D50B607047BF
:100120001FB51FBD10B510BD01F028F81146FFF72F
:10013000F7FF06F00DF801F040F803B4FFF7F2FF07
:1001400003BC03F0D6FC000070470948804709480B
:10015000804709480047FEE7FEE7FEE7FEE7FEE7C7
:10016000FEE7000005480649044A064B70470000B8
:100170002939000049010000C100000040070020AB
:1001800040080020400700207047000030B5441CA4
:1001900003E00178401C00290DD08107F9D10B4BF9
:1001A000DD0104C8D11A91432940FAD0001B0A0688
:1001B00003D0C01E30BD001B30BD0A0401D0801E1C
:1001C00030BD0902FCD0401E30BD0000010101011C
:1001D00001E004C0091F0429FBD28B0701D502806E
:1001E000801CC90700D00270704700290BD0C307DC
:1001F00002D00270401C491E022904D3830702D595
:100200000280801C891EE3E70022EEE70022DFE780
:10021000002203098B422CD3030A8B4211D3002303
:100220009C464EE003460B433CD4002243088B42DD
:1002300031D303098B421CD3030A8B4201D394466A
:100240003FE0C3098B4201D3CB01C01A524183095D
:100250008B4201D38B01C01A524143098B4201D317
:100260004B01C01A524103098B4201D30B01C01A42
:100270005241C3088B4201D3CB00C01A52418308BC
:100280008B4201D38B00C01A524143088B4201D3E9
:100290004B00C01A5241411A00D201465241104649
:1002A00070475DE0CA0F00D04942031000D34042BE
:1002B000534000229C4603098B422DD3030A8B42F4
:1002C00012D3FC22890112BA030A8B420CD3890192
:1002D00092118B4208D3890192118B4204D3890178
:1002E0003AD0921100E08909C3098B4201D3CB01B6
:1002F000C01A524183098B4201D38B01C01A52416B
:1003000043098B4201D34B01C01A524103098B426E
:1003100001D30B01C01A5241C3088B4201D3CB0059
:10032000C01A524183088B4201D38B00C01A52413C
:10033000D9D243088B4201D34B00C01A5241411A13
:1003400000D20146634652415B10104601D3404241
:10035000002B00D54942704763465B1000D34042F2
:1003600001B50020C046C04602BD704770477047C7
:100370000246C80FC00781434B0030B54B405B00BD
:100380009B0D20D01923DB06C91801231B059942B8
:1003900020DB0324A40704251346AB400BD3002B1A
:1003A00004D1EB0613409B00E34204D4012464070C
:1003B000002312195941FF231B0599420BD2C90092
:1003C0000143500F09E0CB0204D501430803024367
:1003D00005D0054830BDFF21C905084330BD08469A
:1003E00007210905884330BD0000C07F7047000029
:1003F00010B5024800F0E9FE10BD00000000C07F0B
:10040000FFFFFFFFFFFFFFFFFFFFFFFFFFFFFEFEFE
:10041000F0B50C46871A9C410D46861A9D4103D2C1
:10042000C01BA141D21963410D0D1F0DC94EEC1B1C
:10043000AE435CD07F057F0D0026002F51D02D05E7
:10044000AC46A943DD020123ED0A1B051D43202311
:100450001B1B24D41746E740381871412F46E7404C
:10046000CC199D402818314661410C0D27D16144BB
:100470009A4013D50023401C594152000ED1400828
:10048000400001224B005205D34207D3052040070C
:10049000C14201D5B04900E0B0493046F0BD6B0023
:1004A000002A00D001229A181F23203C1B1B01D5D3
:1004B000002302E0E540281871410C0DD7D001243B
:1004C00024050919C407CD0740084908E40F28434B
:1004D0006144002CD5D00024401C61419A40D0D109
:1004E000CDE76A05520DD9D1C90FC907D5E79C4D93
:1004F0004E00002801D0012400E0002434195F00E0
:10050000002A01D0012600E00026BE19954FAC421A
:100510000CD8AE420AD8B44206D001256D05EC4293
:10052000BCD010461946F0BD9942FCD00020394697
:10053000F0BDF0B51FB40C460F46811A9F41254609
:10054000861A9D4106D20125ED076F40401ABC4135
:1005500052187B41210D1E0D8D1BAC467D4D8D43E8
:100560007ED075056D0D7CD00D05AE46AC431B03EA
:100570001B0B794D52429D41202366469B1B14D391
:100580001746F740381800260090744160462F4601
:100590000741E41900989D402818664116D4714619
:1005A00071189A4025D5012320E093182A466A4104
:1005B0005200002B00D0521C1E23203E9B1B002B00
:1005C00061DD3541EE1728186641E8D500187641FF
:1005D0005B1C9A4000D3401C4B05F3181524E340E4
:1005E00010D3002B52D071467118D30FC01802D30C
:1005F000491C05B0F0BD0123DB079A42F9D1400840
:100600004000F6E701225205B21801D1002853D06C
:100610000123CC0ADB029943891E002A08D1020C6F
:1006200003D0020C0004103902E0024600202039F9
:100630000023550B05D112020823550B01D152019D
:100640000D23550C01D112011B1DD50C01D19200B7
:100650009B1C150D01D152005B1C2025EE1A01E0F8
:100660002CE022E00546F54015439840CA1AE10700
:1006700069181305C918002ABBDA032040070818B7
:10068000C10FC9070FE071466118B2E7F1074008D2
:100690000843711071444A000CD001235B059A4253
:1006A000A7D2C90FC9070020A3E74905490D26D1E4
:1006B000002001E00028F4D100219AE7284D6600CF
:1006C000002801D0012100E0002171185F00002AFC
:1006D00001D0012600E00026BE19224FA94210D801
:1006E000AE420ED8B14208D001256D05E94206D0D0
:1006F0001946A802414010467BE79C4201D02146A2
:1007000077E70020394674E710B50C465C4005D504
:100710000124E4076340FFF70CFF10BDFFF778FEEC
:1007200010BD30B40C465C4004D50124E40763409E
:1007300030BC6DE630BCFCE670B50124E4076140D6
:100740000D465D4002D4FFF763FE70BD6340FFF7C6
:10075000F0FE70BDFF0700000000F0FF0000F07F1A
:100760000000E0FF0000F87FF0B5F94D0C091E090C
:100770002C402E402F468BB0A7437DD0B543FCD0F4
:10078000002E7AD0002CFCD00D465D40ED0F2543A5
:10079000AC1BFF25AD0464190894C502440DC902C1
:1007A0002143500DDC0204430120C00701430443F0
:1007B000D2020191200C110C00958C4601042346B5
:1007C0008B430A9161460904E24D8A430991010A6B
:1007D0007D4449198039097805464D4301266D1835
:1007E000F605751B6943C90C640B891C4C436418DE
:1007F000B5012C1B250C2E04B4434C434D43210C56
:10080000691889090591009DE90701D00121C907EF
:1008100004912C4601996708CD072F434C08059D8C
:10082000E10B4D432D0C29466646754302950D4656
:1008300045432E46029D7D1BB44100950D465D4308
:1008400001942C0C2F040D465543AE462D0C3D4310
:10085000029503947546049C2D04641B049406D2EF
:10086000029C039D641C002675410395029401AC13
:1008700070CC009F7D1B01E03EE162E1B4410904C0
:100880000095079101940599A4086143090C0C4651
:100890004443650BE7040C4666467443A646640B66
:1008A0003C43039502947446049DE4042C1B049479
:1008B00006D2029C039D641C002675410395029498
:1008C00001AC70CC009F7D1BB44101940C465C438D
:1008D0000095650FE7000C465443A646640F3C4361
:1008E000039502947446049DE4002C1B049406D2E4
:1008F000029C039D641C002675410395029401AC83
:1009000070CC009F7D1BB441AE09AF06049DC900A9
:10091000AD092F43049DA406AD060495079D3443FD
:1009200069180791059DE10B4D432D0C294666463C
:10093000754302950D4645432E46029D7D1BB441ED
:1009400000950D465D4301942C0C2F040D46554334
:10095000AE462D0C3D43029503947546049C2D0430
:10096000641B049406D2029C039D641C00267541FE
:100970000395029401AC70CC009F7D1BB44101949F
:100980008C050694079C890A611800950791019CC3
:100990000599A4086143090C0D464543680BEF0413
:1009A0000D46644665436C0B3C43049FED047D1B80
:1009B000AC4602D20025641C6841009E019D371B95
:1009C00085410846584301950C46460FC5005443DF
:1009D000600F28436546E4002C1B02D20025401C12
:1009E0006E41019D3F1AB5412846BD098006284346
:1009F0008446A009BF064E020699A406761807434E
:100A0000079D002068410A99079019430020099B1F
:100A100000906046FF1913434041E20F64003A43DF
:100A2000A4460446D71A8C41A04203D90120009065
:100A300020463A46C70F941840416246D20F2243DF
:100A4000644664000494009CBE466400D71AA44621
:100A5000044602978C417746002F01D1A04204D969
:100A60006046401C8446029A2046C40FA64694184D
:100A70004041049A0546D20F224364466400D31ACB
:100A80008D417146002901D1A84202D928461A4653
:100A9000641C10430122002800D01643610200208C
:100AA000079B891904465C410223002C02DB49188C
:100AB00013466441089DCE0A2D145D194B05670548
:100AC000E10A2C050D1908993E43C9076940002B1E
:100AD00008D0934006D30022761C5141002B01D14F
:100AE000760876001C4A002D43DB154241D0AA430C
:100AF0003FD030460BB0F0BD06180D464D41174CA7
:100B00007642AC411AD395181C465C41134A6D429B
:100B1000A24113D3012252054C00D4420AD15C00F9
:100B2000D4420BD04B4002D592021143E2E7490078
:100B30004908DFE75940C90FC90718E000200849F4
:100B4000D8E7054801420DD10342F7D0F2E7000093
:100B50000000FF07428B00000000F07F0000E0FF74
:100B60000000F87F114859400143C0124140002065
:100B7000C0E70123089A9B069A4205DC032252072C
:100B80008918C90FC907B5E7052252078918074A0E
:100B90001143D2125140ADE770B515461C460246CE
:100BA0000B4628462146FFF7DFFD70BDFFFFFF7FA4
:100BB0001F22030C02D10F22000402D0030E03D027
:100BC00004E00020014670470002083A030F01D1FB
:100BD0000001121F830F01D18000921E002801DB4B
:100BE0004000521E120551184205C012411810460D
:100BF0007047C10FC90700D040420122920711433C
:100C0000D6E701218907D3E7F0B58B4C0F092546BC
:100C100089B0BD437BD01D092646AE43FAD00E46AF
:100C20005E402740F60F3E43254071D0240121420B
:100C3000FBD0FF24AD19A4042D1B039501252D0520
:100C4000DB02DB0AC9022B43C90A29431E01090141
:100C5000040F130F050121431701880B82039143F1
:100C60002D098C46A90B1E438A039543B30B9A03A7
:100C700096433F09BA0B9403A74302962E467E4340
:100C80000497B6464E19D7190C460196544305975A
:100C90007E43371B7646BF1B3601B646BE0B361960
:100CA00000967646BC043719009C01D3641C00945E
:100CB0006400002F01D001263443029E049F754337
:100CC00066467E430496760034196E00341900940B
:100CD000029C019E1C196643751BAE460694654630
:100CE0004519059C05956C43594375460891691A49
:100CF0000191049E01465143A41B0491611A009C7A
:100D00000791E10605D061090122114302E072E07A
:100D10006EE06109089D00272C0A2D066918049DC4
:100D20007C412A0A2D066918019D6241AC0DAD0275
:100D30006D185441079A910D920255196141029A1A
:100D4000644658435443069B059A5A43121A131B90
:100D50009A0E9B015B187A41010B0005C3185141A3
:100D6000220A200644195A419A4200D2491C012005
:100D70004002814203D315230226F64302E01423E6
:100D80000326F6432020C51AA9401746AF40DA4093
:100D90000A4320460399D8400914731819055118BD
:100DA000039A3843D2075140AC4009D00122944005
:100DB00006D30022401C5141002C01D140084000C4
:100DC0001E4A934212D3012203989206904207DBF7
:100DD0000520400709181A480143C012414004E0A9
:100DE000032040070818C10FC907002009B0F0BD53
:100DF0000020F107FAE705180C464C4111486D42F6
:100E0000A04115D394181A465A410E4864429041A5
:100E10000ED301204A004005824209D35A00824283
:100E200006D35940C90F084AC90700201143DDE71E
:100E300000200649DAE700000000FF07FE07000077
:100E4000FFFFFF7F0000E0FF0000F07F0000F87F61
:100E50000121C9050123411842001B06D3185B0E6E
:100E60000AD0C1100722D206891840075242D14247
:100E700001D5520089187047090208D50146002A99
:100E800003D0C10FC90700207047104670474202C7
:100E900002D0002002497047072109050143F4E709
:100EA0000000F87FF0B5FF252D04C609C209FF2711
:100EB00004462E400137CB093E4348402A402B4090
:100EC0000746002A6BD0002B69D0AA4267D0AB42FC
:100ED00065D0002800DA32460125ED0529432C4370
:100EE00009022002090AD21A4B0C7F24E31A434C50
:100EF000000A7C44E35C7D242404121914145B0072
:100F0000A218884201D3521C00E0400049420C461E
:100F10005C4324115C43DB016415E318040A5C4361
:100F2000C502200D0C4644436419250A5D43230382
:100F3000EC0C0D46654300030019EB184C42A3422C
:100F400001D35B18401CD4052018002B07D05B0090
:100F5000C91804D3401C002901D1400840003F219A
:100F600089048A4209D3002A08DC1106090F04D03B
:100F7000032149074018C00FC007F0BD01224100FE
:100F8000120689187F2252069142F6D2052149079E
:100F9000C84201D59010F0BDFF20C005F0BD002F64
:100FA00000DA32461648AA4207D2AB4205D21902ED
:100FB000090E17D0F80FC007F0BDFF2563002D06FE
:100FC000AB42F9D84900A942F6D8AB4201D1A942B7
:100FD000F2D0A94201D1002101E061004908D00509
:100FE0000843F0BD1102090EFBD0FF200243D005DB
:100FF000F0BD0A460146104654E70000A0840000F8
:101000000000C07F10B501469E240002CA15A30748
:10101000002A02D01843002A04DBA21A002A0CDDA1
:10102000D04010BD1206120E01D140004008A21A95
:1010300003D4D04040420028F3DDFF2248001206CE
:10104000904201D9002010BDC817C043584010BDC0
:101050000102C21504D00123DB071943002A0ADB71
:101060009E239A1A02D40846D0407047FF224100BE
:101070001206914201D900207047C017C043704743
:101080001F22030C02D10F2200041CD0030E01D139
:101090000002083A030F01D10001121F830F01D192
:1010A0008000921E002801DB4000521ED20551181C
:1010B000021251181922904004D3491C002801D172
:1010C0004908490008467047C10FC90700D040428F
:1010D000012292071143D3E701218907D0E70000DD
:1010E00010B5FF231B0644009C421DD84C009C42B7
:1010F0001AD80346124A0B4307D4401A02D3EFF31F
:10110000008010BDEFF3008010BD081A06D2EFF387
:10111000008001219043C907084302E0EFF30080FB
:10112000904380F3008810BD0D231B041A4204D0A5
:101130001146002000F006F810BDFFF759F910BD68
:1011400000000090C80212D54803400F002804D0C8
:10115000C803C043012188407047EFF300800001BD
:10116000000903210907084380F300887047002025
:101170007047000000487047DC0600207546FFF706
:10118000F9FFAE46050069465346C008C0008546D3
:1011900018B020B5FEF7E6FF60BC00274908B64648
:1011A0000026C0C5C0C5C0C5C0C5C0C5C0C5C0C576
:1011B000C0C5403D49008D46704710B50446C04645
:1011C000C0462046FEF7B9FF10BD10B50C4611070A
:1011D000090F092904D00A290AD008290CD104E0F2
:1011E00011460820FFF7AEFF06E0510606D501E0E4
:1011F000510601D50120C007214610BDD10607D5F3
:1012000001010909CC084907000E0006044309E062
:10121000410F20024907000A0143200E00061D224B
:10122000D14101430846E7E770B58C180578401CAA
:101230006B075B0F01D10378401C2A1106D102789D
:10124000401C03E00678401C0E70491C5B1EF9D15F
:101250002B0705D40023521E0DD40B70491CFAE74E
:101260000378401CCB1A921C03E01D780D70491CBA
:101270005B1C521EF9D5A142D8D3002070BD0000DE
:1012800030B5094A0020064C0649137804E022696B
:101290004500401C4A53C0B29842F8D330BD00000C
:1012A00000B0034000F6FF1F68F0FF1F70B51C4C34
:1012B000E08B401CE083A088401CA08000F0B4FBC1
:1012C000E08A401CE08200F0B1F8E08B00250300CA
:1012D00002F002FC0620040712151C2002F066FC36
:1012E00070BD6088401C80B260800A28F8D3658099
:1012F000A58000F021FB70BD03F020FB70BD00F065
:10130000E3F9A582E58200F021F870BD00F0E2F873
:10131000E58370BDE583A5826580A580E58270BD0B
:1013200000F0FF1F10B50121024A084603F032FC0D
:1013300010BD0000AD12000010B50021252004F002
:1013400099FA012003F0A0FC10BD0000F8B5324E60
:10135000324CF06FA16A05F0C5FA0746E16C05F062
:10136000C1FB02460090304639465C3804F05CFC14
:1013700030468038C16C2A4B1A029942C16C00D3A6
:101380005140456D9D42456D00D35540002020657C
:10139000384605F017FBFFF735FE07B229460098DF
:1013A00005F010FBFFF72EFE1B4905B240312A2045
:1013B000085E1D30FFF788FE1A4905F003FBFFF7B2
:1013C00021FE218B00B26183FFF77EFE009038463C
:1013D000FFF77AFE07462846FFF776FE124905F02A
:1013E000F1FA0146002005F07DFA394605F07AFA57
:1013F000009905F077FAFFF705FE20838121F06F51
:10140000C905884205DA7F21C905C84201D20021F9
:101410002183E064F8BD000060F5FF1F00F0FF1FAE
:1014200000008080CDCCCC3D3333333F70B5074DC9
:101430001621288B6C8B695E001B00B2491C484347
:101440000521FEF7EFFE0019688270BD00F0FF1F56
:10145000F8B5FFF739FE1849096905F043FB174E47
:101460000446F06AFFF7F4FC154A164BFFF7CCFB75
:10147000FEF77EFF07462046FFF7EAFC124A134BB1
:10148000FFF7C2FB04460D463846FFF7E1FC224653
:101490002B46FFF739F9FEF76BFF0D49F0620A683A
:1014A0000121C9074A400146104605F08BFAFFF7B3
:1014B000A9FD00B2F8BD0000E0F5FF1F00F0FF1F1E
:1014C000666666666666E63F333333333333D33F4F
:1014D000E0F4FF1F70B5144D144B6889698A2A8A9D
:1014E0004018511A18229A5E00B2544209B223B22F
:1014F000824201DA104602E0844200DD18468A4248
:1015000001DA114602E08C4200DD1946074A403AF2
:10151000508191811C22AA5E022A01DD0021084629
:1015200002F05CFD70BD000000F0FF1FE0F5FF1F42
:10153000FEB52F4D002428468030EC6702900460F1
:101540007F27BF020ECFFF382646009401380C3F9C
:10155000019405F073F82846803826498663C163F4
:101560002549416325498162254941622549C16474
:1015700025494165F96881653969C16579690166FF
:10158000243004F007FD2B46803BFD277F0214200A
:101590006043C118084640300A460686603216711C
:1015A0005671C684CE66E100C9190A880285641C9A
:1015B0008988E4B24185052CE9D3962028826E8281
:1015C000A8840B48EE840A2140300181468186813F
:1015D0002E656E65AE653F20EE65C002029900681B
:1015E000C8600A490862029809490183FEBD0000EB
:1015F00060F5FF1F0000C841000070410000F0418D
:101600000000B442000040410000344300F0FF1FDE
:10161000B60300001FB500200090019002900390D7
:101620000648C0680090FC2003F038FF0422002325
:101630006946FC2003F078FF1FBD0000E0F5FF1FA6
:1016400070470000F8B5FFF73FFD1849496905F0FC
:1016500049FA174E0446306BFFF7FAFB154A164B52
:10166000FFF7D2FAFEF784FE07462046FFF7F0FBAD
:10167000124A134BFFF7C8FA04460D463846FFF7E7
:10168000E7FB22462B46FFF73FF8FEF771FE0D49B8
:1016900030630A680121C9074A400146104605F037
:1016A00091F9FFF7AFFC00B2F8BD0000E0F5FF1FB5
:1016B00000F0FF1F666666666666E63F33333333C7
:1016C0003333D33FE0F4FF1FF8B55548554CC18C78
:1016D0000A2905D2408F0A2802D2A08B401CA08381
:1016E0004F4E2078403E3546FF360136052780357F
:1016F0007268030002F0F0F9060431566F818987A1
:10170000484801257F21ED05C905406BAA4202DB4F
:1017100005F0E8F807E0FF23DB05DA4201D2606B51
:1017200002E005F0DFF960633F49884203DCFF21F6
:101730008905C84210D903F0BFFA20640120207047
:10174000FF21606BC905C84201D3012002E0A84215
:1017500002DB022002F0EAFBF8BD03F0ADFA216CD7
:10176000401A7D21C900884200D927707668606BD5
:101770003146074605F026F901462C488142EBD355
:10178000874201D3032001E00220C043FFF79CFC05
:10179000A062686FA663E06303F08EFA60640220C3
:1017A0002070F8BD03F088FA616C401A7D210901B0
:1017B000884200D92770686FE16B05F093F904F057
:1017C00093F91B498842ECDD0020A06203F074FA13
:1017D000A0640320E4E703F06FFAA16C401A1549F6
:1017E000884200D927707168A06B05F0EBF80121E1
:1017F000C9058842D5DB0420D2E75000000E02D094
:10180000E88E5A28CDD92770F8BD002002F07AFB67
:1018100000206063A063E0632064A062C0E7000072
:1018200020F5FF1F00F0FF1F0000404000008080F7
:1018300000002042881300007CB5354C354DA0894E
:10184000002815D1384934A08861E868A0620846AC
:1018500001F09CF820462C3000F0FBFB2046443081
:1018600000F0F7FB20465C3000F0F3FB0120A08184
:101870002E487F260078F605072822D001282AD096
:10188000042837D0224801212C3000F032FB2048B8
:101890000121443000F02DFB18250C2324A2102137
:1018A0000A20009504F070FEA06AFFF7D1FB024603
:1018B0000C200090022310210195582004F0D0FD47
:1018C0007CBD134800212C3000F013FB3146A06A88
:1018D00005F008F80CE00E480021443000F009FB48
:1018E0000121A06AC9058842D6DB314605F0FAF825
:1018F000A062D1E7A06AE8600020A081FFF78AFE1D
:1019000003F0E2FC022004F0C7FEFFF70BFDC3E783
:101910002CF4FF1FE0F5FF1F5365742054617267BC
:101920006574537070656400CCF3FF1F29F4FF1FCA
:1019300053706565643A0000F8B53648364D064682
:10194000403E3446FF36C18C01368034F768322978
:1019500005D9408F322802D9376177610DE0E16FF8
:10196000686A05F02FF83946009004F0BBFF30613B
:101970003946009805F0AAF87061206DFFF739F933
:101980000022264BFFF740F90022254BFFF73CF9D8
:101990000022244BFEF7E8FEFEF7EAFCA0650A20D1
:1019A00003F04CFF0126F607002802D1A06D70401D
:1019B000A06500272765E8882881A06DFFF722FB36
:1019C00000B2FFF745FDE880606DFFF712F90022D5
:1019D000124BFFF719F90022114BFFF715F90022FE
:1019E000104BFEF7C1FEFEF7C3FCE065262003F0B6
:1019F00025FF012802D1E06D7040E0656765A88988
:101A0000E881E06DFFF7FEFA00B2FFF71BFEA88148
:101A1000F8BD000020F5FF1F00F0FF1F0000A43FED
:101A200000003D400000514070B50C4C3221E08870
:101A30002689A588801B00B26D1C6843FEF7F2FB67
:101A400080196081A089E6893221801B00B2684339
:101A5000FEF7E8FB8019208270BD000000F0FF1F38
:101A60007CB5334C334D6089002815D1364932A0FE
:101A70008861286E6062084600F088FF20462C309E
:101A800000F0E7FA2046443000F0E3FA20465C30EC
:101A900000F0DFFA012060812C482D4E00780728E5
:101AA00022D001282AD0042833D0214801212C300B
:101AB00000F01FFA1E480121443000F01AFA1825E0
:101AC0000C2324A210211420009504F05DFD606A0F
:101AD000FFF7BEFA02460C20009004231021019566
:101AE0003A2004F0BDFC7CBD114800212C3000F0F0
:101AF00000FA3146606A04F0F5FE08E00C48002167
:101B0000443000F0F6F93146606A04F0EBFF6062A1
:101B1000D5E7606A286604F09DFD0020608103F02F
:101B2000D3FB022004F0B8FDFFF7FCFBC7E7000081
:101B30002CF4FF1FE0F4FF1F446972656374696F42
:101B40006E204B6400000000CCF3FF1F29F4FF1F40
:101B50000000A0404B643A007CB5354C354DE08820
:101B6000002815D1384934A08861A86DE061084685
:101B700000F00CFF20462C3000F06BFA2046443079
:101B800000F067FA20465C3000F063FA0120E08044
:101B90002E483F2600783606012825D007282DD06C
:101BA000042836D0224801212C3000F0A2F9204828
:101BB0000121443000F09DF918250C2324A21021A6
:101BC0001420009504F0E0FC2249E06904F0FAFEDC
:101BD000FFF73EFA02460C200090042310210195E5
:101BE0003A2004F03DFC7CBD114800212C3000F06F
:101BF00080F93146E06904F075FF08E00C480021E7
:101C0000443000F076F93146E06904F06BFEE061A3
:101C1000D2E7E069A86504F01DFD0020E08003F034
:101C200053FB022004F038FDFFF77CFBC4E7000003
:101C30002CF4FF1FE0F4FF1F446972656374696F41
:101C40006E204B7000000000CCF3FF1F29F4FF1F33
:101C50004B703A0000002041F8B5244C054620782E
:101C6000002841D0284604F0EFF960610021A0610E
:101C70006956814201DD002028701C482978007DCA
:101C80001A4C401AC6B2583468782169884200D884
:101C9000002616486661583000F078FE134874300C
:101CA00086616978016100F0E3FD20696978C7B257
:101CB000814200D20F4600240AE030191C2148431B
:101CC00042192001011B1E20133100F04DFC641C41
:101CD000BC42F2DB05491C228869504340190122AD
:101CE0000861827000200870F8BD000074F3FF1FC7
:101CF000F8B5002A7ED0540054438718012B41D0F8
:101D0000861A022B7BD0032B76D0042B72D115467A
:101D1000002600910098069AC1B2B8B200F000FD0A
:101D20000098761C401E00906800024671006A43CD
:101D300071435118091B081A401C002801DD6D1E53
:101D40007F1EAE42E6DB0098069AC1B2B8B200F040
:101D5000E7FC2846410070006D1E891E024669435B
:101D600072438918091B0818401C7F1E002803DCD9
:101D70000098401E761C0090002DE4DC0098C1B253
:101D8000B8B276E000970D46164600270098E9B2F3
:101D900080B2069A00F0C4FC70007F1C01467A00F5
:101DA00071437A438918091B081A401C6D1C0028CE
:101DB00003DD0098401E761E0090B742E6DB0098D7
:101DC000E9B280B2069A00F0ABFC00993046491E99
:101DD000009141007800761E891E024671437A43C5
:101DE0008918091B0818401C002801DC6D1C7F1C89
:101DF000002E02E040E002E03FE0E0DC75E0154646
:101E0000002700910098069AC1B2B0B200F088FC99
:101E100000987F1C401C00906800024679006A43CD
:101E200079435118091B081A401C002801DD6D1E5A
:101E3000761CAF42E6DB0098069AC1B2B0B200F061
:101E40006FFC2846410078006D1E891E02466943DA
:101E50007A438918091B0818401C761C002803DCEB
:101E60000098401C7F1C0090002DE4DC0098C1B25B
:101E7000B0B2069A00F054FCF8BD00960D46164626
:101E800000270098E9B280B2069A00F049FC700081
:101E90007F1C02467900724379435118091B081AC6
:101EA000401C6D1E002803DD0098401C761E00902B
:101EB000B742E6DB0098E9B280B2069A00F030FC47
:101EC00000993046491C009141007800761E891E19
:101ED000024671437A438918091B0818401C0028E0
:101EE00001DC6D1E7F1C002EE4DC0098E9B280B29C
:101EF000BFE77CB50446C0680D460E287DD3A068B8
:101F00001E287AD3206904F098F8A168884274D812
:101F100025750C2661682068002D11D00122801DD6
:101F2000891D00F02EF9206904F087F8A168081ACD
:101F3000218840084018002180B2009601916CE091
:101F40000022801D891D00F01CF9012500952068E4
:101F5000616803230622801D891DFFF7C9FE0095D5
:101F6000A168206842186168801D0B46D21F00F0EE
:101F700094FA0095A168206804234018616806223D
:101F8000C01F891DFFF7B4FE0095E1686068A26874
:101F9000411820684B1E8218801D491ED21F00F078
:101FA0007CFA0095E1686068A26841182068012306
:101FB00080180622C01FC91FFFF79AFE00956168AE
:101FC000E0680B182068891D0246DB1F00F065FAE7
:101FD0000095E16860680223411820680622801D90
:101FE000C91FFFF785FE00956168E068A2680B18BD
:101FF00020688018421E401E00E018E0891DDB1F8B
:1020000000F04BFA206904F018F8A168081A21883A
:102010004008401880B200960195E168A2880C390A
:102020004908511889B20C23226904F0CDFB7CBD0C
:1020300010B504F04BF910BD38B51446C9B280B2E2
:102040006A4600F0AAFB6846017801206140884397
:1020500038BD7CB50446C0680E287BD3A0681E2816
:1020600078D3206903F0E9FFA168884272D801257E
:1020700000952068616803230622801D891DFFF7F3
:1020800037FE0095A168206842186168801D0B46E4
:10209000D21F00F002FA0095A168206804234018BE
:1020A00061680622C01F891DFFF722FE0095E168C6
:1020B0006068A268411820684B1E8218801D491E66
:1020C000D21F00F0EAF90095E1686068A268411843
:1020D0002068012380180622C01FC91FFFF708FED1
:1020E00000956168E0680B182068891D0246DB1FB7
:1020F00000F0D3F90095E168606802234118206878
:102100000622801DC91FFFF7F3FD00956168E06896
:10211000A2680B182068891D8018421E401EDB1F14
:1021200000F0BBF9207D0C26002814D020686168DF
:102130000122801D891D00F024F8206903F07DFF35
:10214000A168081A218840084018002180B2009632
:1021500001910BE014E0206903F06FFFA168081AF9
:1021600021884008401880B200960195E168A28855
:102170000C394908511889B20C23226904F024FB58
:102180007CBDF7B5D8B00C460546802874D2402CEB
:1021900072D2E1B2A8B250AA00F0FFFA50A80278B9
:1021A0005A98D107C007C90FC00F814264D0214699
:1021B0002846559400F0CCFA0646569050A802786E
:1021C0002146284600F0F1FA5490801940082994DD
:1021D0000194289001240090254601E0002D7BD039
:1021E000E90028A808188038816F5291C66F50A85E
:1021F0006D1E0278EDB23146529800F0A9FA539064
:1022000050A802783146529800F0CFFA519050A869
:102210000278761C31465298FFF70EFF002804D052
:1022200050A802783146529815E0539F08E050A814
:10223000027831463846FFF7FFFE002803D17F1CA5
:1022400051988742F3D951988742C7D850A85297DE
:1022500002783146384600F0A8FA519050A802782A
:102260003146529800F074FA5390142C1FD2471E36
:1022700058975990074617E07EE050A80278711EE3
:102280003846FFF7D9FE002827D059995898884238
:1022900007D05891E00069460F504018641CE4B222
:1022A0004660142C03D27F1C51988742E5D953997C
:1022B00051985A9B4018400852905198F1B282B2FE
:1022C000539880B200F0D5F8142DA0D2539F59979F
:1022D0007F1E5897599F19E01FE05997E1E750A8D2
:1022E0000278711C3846FFF7A7FE002813D05999D1
:1022F0005898884207D05891E80028A90F504018F4
:102300006D1CEDB24660142D81D27F1C519887421E
:1023100000D97CE7E3E75997F5E7002C20D0E100EE
:10232000684608188038816F5291C66F50A8641EA5
:102330000278E4B23146529800F00AFA539050A85D
:1023400002783146529800F030FA074650A80278D9
:10235000761E31465298FFF76FFE00280ED020E01F
:10236000002D00D03AE754985A9B82B25598C1B2DA
:10237000569880B200F07DF85BB0F0BD539809E04C
:1023800050A8027831465198FFF756FE002804D134
:102390005198401C5190B842F2D95198B842BCD8DB
:1023A000529050A802783146529800F0FEF9074644
:1023B00050A802783146529800F0CAF95390142D73
:1023C00020D25990401E5890599818E050A8027891
:1023D000711C5198FFF730FE002826D05999589863
:1023E000884208D05891E80028A9519A0A5040180C
:1023F0006D1CEDB24660142D04D25198401C5190D2
:10240000B842E3D95398BAB238184008529053985A
:10241000F1B280B25A9B00F02CF8142C96D253984B
:102420005990401E589059981BE051985990E2E7F6
:1024300050A80278711E5198FFF7FEFD002815D0B4
:1024400059995898884208D05891E0006946519AA5
:102450000A504018641CE4B24660142CDED2519835
:10246000401C5190B84200D970E7E1E7519859906B
:10247000F3E7F8B515461E460F460446A84202D9B2
:10248000D0B22546044632463946204600F048F987
:10249000641CA4B2A542F6D2F8BDFFB583B00546D0
:1024A00005980C46411B06980027021BFF43002994
:1024B00002DD0120029002E0002904DA0297002ADE
:1024C00009DD012711E0C2B2E1B2A8B20C9B00F015
:1024D0002CF907B0F0BD002A07DB0598E1B282B203
:1024E000A8B20C9BFFF7C5FFF3E7029848433946B3
:1024F0005143420000924A00019288421CDB161AA6
:102500000098101A00900EE0E1B2A8B20C9A00F008
:1025100007F902982D18002E02DA0198361802E009
:1025200000988619E41905988542EDD1E1B2A8B268
:102530000C9A00F0F5F8CCE70098461A801A019042
:102540000EE0E1B2A8B20C9A00F0EAF8E419002E0D
:1025500002DA0098361803E00198861902982D18BF
:1025600006988442EDD1E1E7FEB514460D460646D5
:10257000802805D8402D03D8022D01D3122E01D278
:102580000020FEBDE0680028FBD0A2783046102372
:10259000A91E12380C27002A12D06268002A04D023
:1025A000C9B2C0B2009303F098FF002001900097D9
:1025B000A9B2B0B20C23E26804F006F90120FEBD16
:1025C000A268002A05D00093C9B2C0B2102303F05C
:1025D00084FF0120EAE7000010B5002902D00121A4
:1025E000002401E0002101240448FFF782FC034895
:1025F00021461830FFF77DFC10BD00003CF3FF1FA3
:10260000FEB58168044614293CD3E068142839D308
:1026100025686A18802A35D861680B18402B31D894
:1026200000272846521E5B1E009700F0F4F8012593
:1026300000956168E068A2680B1820685B1E82182C
:10264000521E00F0CAF820882189304B4118491EDB
:102650008AB2217980B20E31C9B21B78FFF709FF27
:102660000095A168206842186168521E0B460D3320
:1026700000F0D1F8206903F0F5FC0246A068811E45
:102680008A4201D90020FEBD80B20C260197009637
:102690000290A0883346401C81B22088226980B213
:1026A00004F0EAF81A480775A16901612168491D1B
:1026B0000160E26861688918C268891A091F41606F
:1026C000FFF7C7FC124818300575E1690161A2687F
:1026D000216889188268891A891F0160E268616827
:1026E0008918C268891A091F4160FFF7B2FC009679
:1026F0000195A0880C23113081B220886269801D69
:1027000080B204F061F80120FEBD000038F3FF1F25
:102710003CF3FF1F0148007D704700003CF3FF1FA2
:1027200010B5C0B203F0E8FD10BDF8B515461E4661
:1027300007460C46A94201D90D46144632462146A9
:102740003846FFF7EDFF641CE4B2A542F6D2F8BDAF
:10275000F8B5D507441EED0F0E46002C0ED0F1B291
:10276000A0B26A4600F019F868460078C007C00FAA
:10277000A84201D0601CF8BD641EF0D1F1B2002067
:102780006A4600F00AF868460078C007C00FA84201
:1027900001D00120F8BD0020F8BD10B51446C0B22C
:1027A00003F0C6FD2070002010BDF8B5441CD5070D
:1027B0000E46ED0F0DE0F1B2A0B26A46FFF7EDFF55
:1027C00068460078C007C00FA84201D0601EF8BD5F
:1027D000641C802CEFD38020F8BDF8B51C4615464C
:1027E0000E46074692B2C9B280B2069BFFF741FE81
:1027F000AAB2E1B2B8B2069BFFF73BFEE2B2F1B279
:10280000B8B2069BFFF791FFE2B2F1B2A8B2069B05
:10281000FFF78BFFF8BDF8B517461E460C46054678
:10282000B84201D915460746B44201D91C460E46A6
:10283000B44206D1BAB2E1B2A8B2069BFFF719FEC4
:10284000F8BDBD420DD1F2B2E1B2A8B2069BFFF7CE
:102850006CFFF8BDBAB2E1B2A8B2069BFFF709FE61
:10286000641CB442F6D9F8BD10B503F075FD10BD77
:10287000F8B5040052D0A2680A2A4FD3E0681428A1
:102880004CD30125009561680B1820685B1E8218E7
:10289000521EFFF7A2FF08260096208921780838EB
:1028A000400808182179C0B2491CC9B233461C4AF5
:1028B00003F013FE00962079217B22784018093816
:1028C000C1B220890823083840081018144AC0B241
:1028D000083203F002FE0095A16820684218616882
:1028E000521E09310B46FFF7D8FD0095E16860687C
:1028F000A268411820680A3982180B46521EFFF759
:10290000CCFDE0686269216914388A4202D25043E2
:10291000FDF77EFCE061204600F004F8F8BD000001
:10292000E6920000FEB504468189808B091A1439AD
:102930008EB22188491C8AB20192A188721E0A3186
:102940008DB28018218900220092C91E019A89B295
:1029500080B257182B183A4629460198FFF75BFFBB
:1029600021696069814201D8002005E0A069491E03
:102970007043FDF74DFC80B2012100912918E269F6
:10298000019853183A46FFF746FFFEBDFEB5816831
:10299000044614293BD3E368142B38D3206842182B
:1029A000802A34D86168CB18402B30D80025521EBD
:1029B0005B1E0095FFF72FFF012600966168E06817
:1029C000A2680B1820685B1E8218521EFFF705FFD5
:1029D00020882189174B4118491E8AB2217980B27B
:1029E0000E31C9B21B78FFF744FD0096A16820683C
:1029F00042186168521E0B460D33FFF70CFFA069A9
:102A000003F037FB0246A068811E8A4201D90020EC
:102A1000FEBD80B20C21019500910290A0880C238C
:102A2000401C81B22088A26980B203F025FF0120FA
:102A3000FEBD000038F3FF1F10B5242002F0FEFE9B
:102A4000012801D0012010BD002010BD10B51C20B0
:102A500002F0F4FE012801D0012010BD002010BDBD
:102A600010B51B2002F0EAFE012801D0012010BDA4
:102A7000002010BDF8B50F4D0024A8680E4E0007C9
:102A800012D50E4F387884420ED2E96820460C22C7
:102A900050433258114204D080198068002800D079
:102AA0008047641CE4B2EDE7A86824210843A860CD
:102AB000F8BD00000090074090F6FF1F82F0FF1F56
:102AC000F8B50F4D0024A8680E4E000712D50E4F22
:102AD000387884420ED2E96820460C22504332589E
:102AE000114204D080198068002800D08047641CFF
:102AF000E4B2EDE7A86824210843A860F8BD00000F
:102B000000A0074090F6FF1F82F0FF1F10B52C2099
:102B100002F094FE10BD10B501212D2002F0AAFE96
:102B200010BD10B500212D2002F0A4FE10BD10B57F
:102B300001212C2002F09EFE10BD10B500212C209A
:102B400002F098FE10BD08B500206A46D0705070A3
:102B50002C2111709070684602F0ACFD08BD08B5DC
:102B600000206A46D070012151702C2111709070A4
:102B7000684602F09FFD08BDF0B50021124D134FCD
:102B8000134B0A4605261C204843401946708C000A
:102B90008270476082601C5902614261491CC9B25F
:102BA000C46082610529EED30120A870094828611C
:102BB0000948E86204480A498C3068630748686637
:102BC000014880300160F0BDC8040020F69200008A
:102BD000ACF3FF1FC960000099600000B9660000F7
:102BE00081600000F8B5674E7068FFF735F86649F8
:102BF00000270878002800D0F760624C583401287C
:102C000002D0072855D159E03E2375221221012018
:102C10000097FFF700FEB0691C2148437168401817
:102C200030618770B069401CB06172685178491E8C
:102C3000814200DCB161B0691C2148438018012148
:102C40003061817072681078401C43B21370204666
:102C500051782469A14205D80D468B420EDB491EEE
:102C600011700BE0E5B2641EA34207D9147002692B
:102C7000891A4269914201D9521C4261002410E034
:102C800040481C21583040694843716841181C2055
:102C900060430A182001011B1E201331FFF764FC5A
:102CA000641CAC42ECDB3748B16974308161FFF7DA
:102CB00039FE35480078042849D04DE03E2375227E
:102CC000122101200097FFF7A6FDB1691C22514394
:102CD0007268881830618770B069401EB061002842
:102CE00000DCB761B0691C214843716840180121BC
:102CF0003061817071680878401E42B20A704D7868
:102D0000236920469D4203D8002A0ADA0F7008E0A2
:102D1000DDB2002A05DA0F704169002901D0491E91
:102D20006161002410E017481C2158304069484375
:102D3000716841181C2060430A182001011B1E20E5
:102D40001331FFF711FC641CAC42ECDBABE73069DC
:102D50000069002800D08047F068411CF1606428B9
:102D60000FDDF76030694169002908D0877070690C
:102D70001C2148437168401801213061817002F0C4
:102D8000A1FEF8BD74F3FF1F29F4FF1F8307FF2284
:102D9000DB0E9A408907090E994000280BDA0007DC
:102DA000000F0838830808489B001818C36993432C
:102DB0000B43C3617047830804489B0018180368DD
:102DC00093430B430360704700ED00E000E400E034
:102DD0008307FF22DB0E9A408907090E99400028DD
:102DE0000BDA0007000F0838830808489B00181802
:102DF000C36993430B43C3617047830804489B0036
:102E00001818036893430B430360704700ED00E01C
:102E100000E400E0F0B50021134B144C144E0A46B8
:102E200005251C204843C01882610261446082600D
:102E30008F00827045704261491CF759C9B2C76062
:102E40000529EED3012098700A4818610A48D86213
:102E50000A4898640A480449586603488C39803007
:102E6000816008490160F0BDE0050020F692000095
:102E700090F3FF1F256100000D610000F560000068
:102E8000DD6000009960000010B5074CE068C007E5
:102E900004D006480068002800D08047E06801217F
:102EA0000843E06010BD00000071034060F0FF1FA8
:102EB00010B5074CE069C00704D0064840680028F8
:102EC00000D08047E06901210843E06110BD0000A7
:102ED0000071034060F0FF1FF0B50021114C124B50
:102EE000124E0A4603251C20484300194570826192
:102EF000026143608F00826082704261491CF75911
:102F0000C9B2C7600329EED301200649A0708C31F5
:102F1000A161074820610749E16202498C392165B6
:102F2000A064F0BD54050020F6920000C0F3FF1F1E
:102F3000996000003D61000010B5074C60780028E2
:102F400008D0201DFFF722FD20462030FFF790FC1F
:102F50000020607010BD0000A0F4FF1FF0B585B028
:102F6000FFF7EAFFFC4EFB490020F71D0856062537
:102F70000C210124F9378036002806D0012870D0B2
:102F800002286FD003286ED0E6E20C2000900623C2
:102F9000F2A20F21032003F0F7FA0C200190EE4873
:102FA000009540300290C28C03230F211B2003F0B8
:102FB00057FA0C2000900623EAA20F21412003F0CB
:102FC000E3FA0C20019002980095428F03230F2111
:102FD0005F2003F045FA0C2000900623E3A21B219A
:102FE000032003F0D1FA0C20019000951B21F289F7
:102FF0000323084603F034FA0C2000900623DDA2D8
:103000001B21412003F0C0FA0C2001900095728C26
:1030100003231B215F2003F023FA0C2000900623DA
:10302000D6A22721032003F0AFFAFF21F06FC905D4
:10303000C84219D30C20009006232D222721019489
:103040001B2003F0ADF90121F06FC9074840FDF7DF
:10305000D9FF02B20C2003232721019000952120E3
:103060000BE07AE0CCE141E2FDF7CCFF02B20C20AC
:1030700001900423272100951B2003F0F1F90C2077
:1030800000900623BFA22721412003F07DFAFF21F3
:103090003868C905C84216D30C20009006232D229B
:1030A000272101945A2003F07BF901213868C907D0
:1030B0004840FDF7A7FF02B20C200323272101900F
:1030C0000095602008E0FDF79DFF02B20C20019002
:1030D0000423272100955A2003F0C2F90C20009008
:1030E0000623AAA23321032003F04EFA0C200190FC
:1030F00036220095B25E032333211B2003F0B0F982
:103100000C2000900623A2A23321412003F03CFAB8
:10311000FF207968C005C1420CD30C2606232D225E
:1031200033215A200096019403F03AF97868710728
:10313000484009E00C260623202233215A2000961D
:10314000019403F02DF97868FDF75CFF02B20323C8
:103150003321602001960095FCE10C2000900623AD
:103160008CA20F21032003F00FFA306D00280EDA35
:103170000C20009006232D220F210194152003F02E
:103180000FF90C2000950190306D42420CE00C20AC
:103190000090062320220F210194152003F000F94E
:1031A0000C2000950190326D04230F211B2003F0A9
:1031B00057F90C200090062377A20F213D2003F041
:1031C000E3F9706D00280EDA0C20009006232D2202
:1031D0000F2101944F2003F0E3F80C20009501909B
:1031E000706D42420CE00C200090062320220F213B
:1031F00001944F2003F0D4F80C2000950190726DDB
:1032000004230F21552003F02BF90C2000900623F6
:1032100062A22121032003F0B7F94F4E0A20C036E5
:10322000305E002812DA0C20009006232D22322175
:103230000194152003F0B4F80C20019000950A20A9
:10324000305E042342423221252010E00C20009001
:103250000623202232210194152003F0A1F80C202E
:1032600001900A220095B25E042321211B2003F065
:10327000F7F80C200090062349A221213D2003F0FD
:1032800083F90C20305E002810DA0C200090062311
:103290002D22322101944F2003F082F80C2000955A
:1032A0000190305E0423424232210EE00C20009057
:1032B00006232022212101944F2003F071F80C20D5
:1032C00000950190325E04232121552003F0C8F8B7
:1032D000BE683046FDF796FE0A2102904843FDF78E
:1032E000F3FE314603F0F2FB2E4903F06BFBFDF7D2
:1032F00089FE0C26039006232BA23321009603207F
:1033000003F042F9FF20B968C005C14250D30298CA
:1033100006234042029003982D2247423321272062
:103320000096019403F03CF80223019600953321A6
:103330002D20029A03F094F806232E2233213920FF
:103340000096019403F02CF802233A46019600956A
:103350004AE00000A0F4FF1FE0F4FF1F48464C3A8B
:10336000000000004846523A0000000048424C3A33
:10337000000000004842523A000000004841453A2F
:10338000000000005641453A00000000484D3A0058
:1033900041453A004C453A0052453A004C503A00FB
:1033A00052503A000000C84253706565643A00000C
:1033B00006232022332127200096019402F0F0FFFB
:1033C00002230196009533212D20029A03F048F83C
:1033D00006232E22332139200096019402F0E0FFCB
:1033E000039A02230196009533213F2003F038F819
:1033F000062376A233214E20009603F0C5F8ABE0F9
:103400000E460091062372A20F21032003F0BCF8A0
:1034100071487249006803F0D5FAFDF719FE0246BB
:1034200004230F211B200196009503F019F80623B1
:103430006BA20F213720009603F0A6F86648674973
:10344000406803F0BFFAFDF703FE024604230F2194
:1034500055200196009503F003F8062362A221216E
:103460000320009603F090F85B48806DFDF7F0FDB7
:103470000246042321211B200196009502F0F0FF53
:1034800006235BA221213720009603F07DF85248E5
:10349000006EFDF7DDFD0246042321215520019633
:1034A000009502F0DDFF062353A23221032000968F
:1034B00003F06AF83869FDF7CBFD02460323322199
:1034C0001B200196009502F0CBFF06234BA2322170
:1034D0003720009603F058F87869FDF7B9FD0246E9
:1034E0000323322155200196009533E00E460091CA
:1034F00014210623424A084603F046F87968FF2063
:10350000C005C142009601940AD306232D2214213E
:10351000262002F045FF01217868C907484006E0EF
:10352000062320221421262002F03AFF7868FDF7B6
:103530008FFD0246022314212C200196009502F0F3
:103540008FFF1820019024480096E030027E1E2153
:103550000123084602F084FF2A482B4900780728F7
:103560000AD0012820D0042804D1081F447000206C
:1035700003F092F805B0F0BD234A121F1078401EE8
:1035800040B210705470002801DA032016E00020C9
:103590001056002816D0012812D0022814D0032873
:1035A000E8D11AA08861E5E7174A121F1078401C7D
:1035B00040B2107054700328E9DD00201070E6E777
:1035C00015A0EFE719A0EDE71DA0EBE7522F530080
:1035D000534B503A00000000E0F4FF1F0000204170
:1035E000534B493A00000000444B503A00000000A1
:1035F000444B443A000000004C543A0052543A0004
:103600009033000029F4FF1FA4F4FF1F526F616480
:1036100020446574656374004D6F746F722050614F
:1036200072616D65746572730000000053656E739E
:103630006F7220506172616D657465727300000075
:1036400050494420506172616D6574657273000069
:10365000F0B50346084649008C465C5A15E0521EF8
:10366000904203DA5100595AA142F8D251009042D7
:1036700004DA5D5AA54201D8401CF8E7904204DA0A
:1036800046009D5B5F5A9F535D529042E8DB4100CC
:103690005D5A62469D525C52F0BD00007CB5354CCF
:1036A000354D6088002815D1374934A08861686895
:1036B00060610846FFF76AF920462C30FEF7C9FC26
:1036C00020464430FEF7C5FC20465C30FEF7C1FCC6
:1036D000012060802D483F2600783606012825D03D
:1036E00007282DD0042836D0224801212C30FEF79F
:1036F00000FC204801214430FEF7FBFB18250C2379
:1037000023A210211420009502F03EFF2149606998
:1037100003F058F9FDF79CFC02460C2000900423AE
:10372000102101953A2002F09BFE7CBD114800213A
:103730002C30FEF7DEFB3146606903F0D3F908E078
:103740000C4800214430FEF7D4FB3146606903F099
:10375000C9F86061D2E76069686002F07BFF002011
:10376000608001F0B1FD022002F096FFFDF7DAFD66
:10377000C4E700002CF4FF1FE0F4FF1F53706565E1
:1037800064204B6900000000CCF3FF1F29F4FF1FE9
:103790004B693A00000020417CB5354C354D2088FE
:1037A000002815D1374934A088612868206108466F
:1037B000FFF7ECF820462C30FEF74BFC2046443057
:1037C000FEF747FC20465C30FEF743FC01202080DA
:1037D0002D483F2600783606012825D007282DD011
:1037E000042836D0224801212C30FEF782FB2048E5
:1037F00001214430FEF77DFB18250C2323A2102164
:103800001420009502F0C0FE2149206903F0DAF887
:10381000FDF71EFC02460C200090042310210195A8
:103820003A2002F01DFE7CBD114800212C30FEF72D
:1038300060FB3146206903F055F908E00C4800218F
:103840004430FEF756FB3146206903F04BF8206107
:10385000D2E72069286002F0FDFE0020208001F000
:1038600033FD022002F018FFFDF75CFDC4E7000005
:103870002CF4FF1FE0F4FF1F5370656564204B704C
:1038800000000000CCF3FF1F29F4FF1F4B703A002B
:103890000000204110B500F001F810BD70B51E4ABF
:1038A00000245068002805D05068401E506001D1A7
:1038B000012010709068401C9060916817480025A6
:1038C000814200D1956016499068FCF7ABFC154821
:1038D000002902D18188491C818081883B2903D934
:1038E00085804188491C418041883B2903D9458016
:1038F0000188491C01800188172900D90580094DDC
:10390000883D14206043401901F00EFA641CE4B2B3
:10391000062CF6D370BD000088F0FF1FFFFFFF7F6D
:10392000DE030000F8FBFF1F10480F4981800121D2
:1039300041702321017011200D49000548620D4896
:10394000002141700C4A962111701A2101700179F1
:10395000C906FCD401790907890FFBD1074908681A
:10396000400848608860704703E800000020054078
:1039700000800440004006400050064054F0FF1F05
:1039800070B5284C6078002805D101206070204671
:103990009430FEF735FE244D2878072810D12148B1
:1039A00000219430FEF718FE1E4800219430FEF7E7
:1039B00013FEFEF759FF1B2001F040FF0028FAD04C
:1039C0002878012810D1174801219430FEF704FE11
:1039D000144801219430FEF7FFFDFEF745FF242037
:1039E00001F02CFF0028FAD02878042811D10020FB
:1039F00060701C2001F022FF0028FAD009489430A2
:103A0000FEF788FE012805D001F05EFC022002F0DE
:103A100043FE70BD01F058FC022002F03DFEFDF7B0
:103A20000FFE70BD74F3FF1F29F4FF1FF8B5254A80
:103A300000201379014613799B063ED5D279224D99
:103A400000262B78214C002B14D0012B17D0022BF1
:103A50001DD0032B1ED0E7787F1D9F4202D9E25470
:103A60005B1C2B70E3782F785A1DBA4225D12E703B
:103A70001A1D17E0AA2AF5D12270012205E0AF2A0B
:103A800001D02E70EEE7627002222A70EAE7A2707F
:103A90000322FAE7E2700422F7E7275C7918401C5A
:103AA000C9B2C0B28242F8D80848001D185C8842EA
:103AB00001D06E7001E0A0786870054801F07AF9D5
:103AC000F8BD000000A0064094F0FF1F580200203F
:103AD00048F9FF1F7047704730B47446641E25785C
:103AE000641CAB4200D21D46635D5B00E31830BC32
:103AF00018470020704710B501F0E4FC01F0E2F82F
:103B000062B601F027F900F019FD00F0E5F900F0C8
:103B100020F900F0FFFF00F02FFA00F025F800F088
:103B2000F7FE00F003F800F08DFA10BD08B508208C
:103B3000694608700120487000208870684601F0CE
:103B4000B9FD0121082001F095FE092069460870A1
:103B5000684601F0AFFD00F001F808BD10B5012185
:103B6000092001F087FE10BD08B500206946C87025
:103B700048700A20087001208870684601F09AFD9C
:103B8000262069460870684601F094FD002002F086
:103B900013F8012002F010F801210A2001F010FEB4
:103BA0000121262001F00CFE08BD000010B50748D9
:103BB0000749426D4B68D2184265064A036D546846
:103BC0001B19036500204860506010BD60F5FF1FA1
:103BD0000080034000900340F8B5089C0D461E4647
:103BE000079FA047A847B047052001F02BF8B8472A
:103BF000052001F027F8A047F8BDF8B5089C0D4650
:103C00001646079FA047A847B047052001F01AF8BD
:103C1000B847052001F016F8A047F8BD0FB4FEB56F
:103C2000002508982C460D9F0C9E80470E988047D3
:103C3000052001F007F8B8476006040EB0470128D8
:103C400001D1641CE4B2032000F0FCFF6D1CEDB256
:103C5000082DEBD30F9808AD00280E980197009619
:103C600002900FCD06D0FFF7B7FF2046FEBC08BC80
:103C700004B01847FFF7C1FFF7E70FB4F8B51746D0
:103C800000240C9E0D9D8847B047E80901D0B84735
:103C900001E0099880476806050E052000F0D2FF74
:103CA0000B988047052000F0CDFFB047022000F0C0
:103CB000C9FF641CE4B2082CE7D3F8BC08BC04B00C
:103CC0001847F8B514461D46089F079E8847A04729
:103CD000B047042000F0B6FFA847042000F0B2FF70
:103CE000B847F8BDF8B514461D46089F079E88479B
:103CF000B847A847042000F0A5FFB047A04704201C
:103D000000F0A0FFF8BD0FB4FEB50CACE0CC0898F5
:103D1000002480470A988047012000F093FFB047B5
:103D2000012000F08FFF0EE0641CE4B2FA2C0AD9E7
:103D30006846E0C008AC0FCCFFF7D4FF0120FEBC02
:103D400008BC04B01847A8470028EDD1B8470020A8
:103D5000F5E710B500F082F800F05AF810BD000049
:103D600070B505462949000144182068804769005C
:103D700005226B180026002832D02179052901D2AE
:103D8000227170BD0A2902D2491C217170BD6900DF
:103D9000A07A6D186D1C002804D10120A072E8B231
:103DA00000F082F821890029F0D0E088884208D20A
:103DB000401C80B2E08021898842E7D1DB1CD8B268
:103DC0000BE0E07A0028E1D0207B401CC0B22073D9
:103DD000E17A8842DAD32673E8B200F065F870BD64
:103DE0002079052801D922710CE0002802D0401E5C
:103DF000207107E0A07A012804D19B1CA672D8B2DA
:103E000000F052F82673E68070BD000010FCFF1F22
:103E100070B50E4800210346817232240C3302250E
:103E20000A46C1720A260801C0180481057182720F
:103E3000491C0273C9B2C6720329F4D3044818603E
:103E4000044818610448186270BD000004FCFF1F9C
:103E5000612A00004D2A0000392A000008B51B2005
:103E60000090684601F026FC1C20694608706846F0
:103E700001F020FC242069460870684601F01AFC15
:103E800008BD0000074A917AD07A814201D1002012
:103E90007047505C491CC9B291720A29F8D30021BD
:103EA0009172704704FCFF1F0549CA7A8854C87A8A
:103EB000401CC0B2C8720A2801D30020C8727047E3
:103EC00004FCFF1F10B500242046FFF749FF641CC7
:103ED000E4B2032CF8D310BD08B518206946087069
:103EE0000120887048700020C870684601F0E2FB2D
:103EF000192069460870684601F0DCFB002000F0DC
:103F000001F808BD10B5002804D001280BD0022804
:103F100008D103E00021182001F0ACFC0021192099
:103F200001F0A8FC10BD00211820F9E710B5002809
:103F300004D001280BD0022808D103E00121182069
:103F400001F098FC0121192001F094FC10BD012121
:103F50001820F9E710B5002804D0012809D002285C
:103F600006D102E0182001F077FC192001F074FC62
:103F700010BD1820FAE700003EB500246946CC7257
:103F800001204872252008728C7202A801F092FB71
:103F90000021252001F06EFC0E48694608800F20A4
:103FA0000871CC80684601F0E9FA0A486946423057
:103FB0000880684601F0E2FA0748694608806846CA
:103FC00001F0DCFA03486946E8300880684601F0F1
:103FD000D5FA3EBD30A40000F6A8000070B50C462E
:103FE00005460021252001F045FC1448144E002D03
:103FF00004DBA9B201F044FB002104E0002101F040
:104000003FFB684281B2304601F03AFB0C480C4D50
:10401000E838A63D002C04DBA1B201F031FB002101
:1040200004E0002101F02CFB604281B2284601F03F
:1040300027FB0121252001F01DFC70BDF6A8000022
:1040400018A5000010B500F093F800F0C8F903209F
:1040500000F0D6F9002000F0C8F9642000F0F5F96E
:1040600000216A2000F008FA0021232000F004FA61
:104070008021372000F000FA0021382000F0FCF900
:10408000752000F029F9682801D0012010BD012118
:104090006B2000F0F1F900216C2000F0EDF96420B4
:1040A00000F0D3F9064801F027FD0548A83801F0D3
:1040B00023FD0348A83001F01FFD002010BD0000C3
:1040C00008010020F8B5264A911E881E00F06EF9FE
:1040D000234C28202A3C205E401CFCF7F5FF0546B7
:1040E0002A20205E1D30FCF7EFFF47248F26240690
:1040F000F6050746A54204DD3146284602F0F2FCEB
:104100000546A74204DD3146384602F0EBFC07467F
:104110002846FCF79DFE134D134E2A463346FCF706
:1041200023FBFCF725F904463846FCF791FE2A46A6
:104130003346FCF719FBFCF71BF90C4E314602F035
:1041400041FC074D6A3D696F02F0CCFB6867314660
:10415000204602F037FCE96E02F0C4FBE866F8BDC9
:10416000CAF5FF1F66666666666630400AD7A33BDF
:1041700008B500206A46D070012151702C211170C1
:104180009070684601F096FA2D206A4610706846D5
:1041900001F090FA084807494161084981610849DE
:1041A00081600849C16008490160084941600849C7
:1041B000016108BD172B000040000020232B0000E8
:1041C0002F2B00003B2B0000472B00005F2B000033
:1041D0000D2B0000F0B53F4C154620460F46103021
:1041E00007C885B01E466B4607C30FCC103CFFF7CF
:1041F00068FDD0201034039007CC6B4607C31C3CED
:104200000FCC103CFFF739FD103407CC6B4607C3C9
:104210001C3C0FCC103CFFF776FD00280AD020464E
:10422000103007C86B4607C30FCCFFF75BFD0120BA
:1042300005B0F0BD20461030039707C86B4607C392
:104240000FCC103CFFF719FD103407CC6B4607C3A9
:104250001C3C0FCC103CFFF756FD103407CC6B46CE
:1042600007C31C3C0FCC103CFFF72BFDD1201034B2
:10427000039007CC6B4607C31C3C0FCC103CFFF7E8
:10428000FCFC103407CC6B4607C31C3C0FCC103C25
:10429000FFF739FD10E0012D1AD0012003902046D0
:1042A000103007C86B4607C30FCC103CFFF7B6FCB5
:1042B0006D1E3070EDB2761C002DECD12046103012
:1042C00007C86B4607C30FCCFFF70CFD0020AFE714
:1042D0000020E3E7400000207FB5334C0546204630
:1042E000103007C86B4607C30FCC103CFFF7E9FC42
:1042F000D0201034039007CC6B4607C31C3C0FCC76
:10430000103CFFF7BAFC103407CC6B4607C31C3CCB
:104310000FCC103CFFF7F7FC1034039507CC6B462D
:1043200007C31C3C0FCC103CFFF7A7FC103407CC94
:104330006B4607C31C3C0FCC103CFFF7E4FC103469
:1043400007CC6B4607C31C3C0FCC103CFFF7B9FCF5
:10435000D1201034039007CC6B4607C31C3C0FCC14
:10436000103CFFF78AFC103407CC6B4607C31C3C9B
:104370000FCC103CFFF7C7FC00201034039007CC93
:104380006B4607C31C3C0FCC103CFFF747FC0546AF
:10439000103407CC6B4607C31C3C0FCCFFF7A2FCC4
:1043A000284604B070BD0000400000207CB51446D3
:1043B0000D4606466B46062243216820FFF70AFF9A
:1043C00000280BD16946098849BA31806946498875
:1043D00049BA29806946898849BA21807CBD10B5CF
:1043E00080216B2000F048F810BD10B5032801D9DA
:1043F000012010BDC006010E1C2000F03DF810BDCC
:1044000010B5032801D9012010BDC006010E1B20E4
:1044100000F032F810BD10B5BC2801D3012110E026
:10442000622801D302210CE02A2801D3032108E0ED
:10443000142801D3042104E00A2801D3052100E057
:1044400006211A2000F018F810BD10B504467D2092
:10445000C000844201D9044602E0042C00D20424A6
:104460002146FBF7D5FE401EC1B2192000F004F82A
:104470006008FFF7D0FF10BD7FB52F4C06462046E1
:104480000D46103007C86B4607C30FCC103CFFF732
:1044900018FCD0201034039007CC6B4607C31C3C9B
:1044A0000FCC103CFFF7E9FB103407CC6B4607C379
:1044B0001C3C0FCC103CFFF726FC002827D12046DF
:1044C0001030039607C86B4607C30FCC103CFFF7AC
:1044D000D4FB103407CC6B4607C31C3C0FCC103CFC
:1044E000FFF711FC1034039507CC6B4607C31C3C47
:1044F0000FCC103CFFF7C1FB103407CC6B4607C351
:104500001C3C0FCC103CFFF7FEFB00280AD02046D5
:10451000103007C86B4607C30FCCFFF7E3FB012041
:1045200004B070BD2046103007C86B4607C30FCCDF
:10453000FFF7D8FB0020F3E74000002010B500F0A3
:104540007DF80121432001F095F9642000F06AFB19
:104550000021432001F08EF9642000F063FB01216B
:10456000432001F087F90021AE2002F03BF8002142
:10457000D52002F037F80021502002F033F8002156
:10458000A82002F02FF800213F2002F02BF8002194
:10459000D32002F027F80021084602F023F800217A
:1045A000402002F01FF800218D2002F01BF80021AE
:1045B000142002F017F80021202002F013F8002147
:1045C000084602F00FF80021A02002F00BF80021AD
:1045D000CF2002F007F80021DA2002F003F80021D2
:1045E000122001F0FFFF0021812001F0FBFF0021DC
:1045F000EF2001F0F7FF0021D92001F0F3FF0021A7
:10460000F12001F0EFFF0021DB2001F0EBFF0021A2
:10461000302001F0E7FF0021A42001F0E3FF00219A
:10462000A62001F0DFFF0021AF2001F0DBFF01F049
:104630004DFE0021084600F026F810BD08B5002008
:104640006A46D07001215170232111709070684624
:1046500001F030F842206A461070684601F02AF8EE
:1046600017206A461070684601F024F843206A4615
:104670001070684601F01EF816206A4610706846F1
:1046800001F018F808BD10B50446B031C8B20021D9
:1046900001F0A8FF20090021103001F0A3FF20073E
:1046A000000F01210843002101F09CFF10BD000014
:1046B000F0B58DB00027282102A80C97FBF7A6FDC6
:1046C0000C240021062383A20846009401F05CFF1D
:1046D000012001900623252200210094642001F08E
:1046E0005FFE01F039FE0020800000227F1C02A93D
:1046F000BFB20A500A2FF9D37A4B00201D46A035CD
:104700001C466034014614267143C918002240310A
:10471000401C0A8580B24A850528F3D398E000261C
:104720003300FFF7D9F90504132234445200012065
:104730000021400200F00CFE61794A0069495118DD
:10474000403108866079401C60713EE00120002104
:10475000800300F0FDFD617E4A00624951188031FE
:104760008880607E401C60762FE00120002180025E
:1047700000F0EEFD01465B488030427B5300594A11
:104780009A1880321183417B491C41731DE001203E
:104790000021C00300F0DCFD01466878420051486A
:1047A0001018803081856878401C68700DE0012009
:1047B0000021C00200F0CCFD697D4A004949511832
:1047C000C0310880687D401C687514203146414323
:1047D00044480818009060304179042901D3002131
:1047E0004171009803220021703002F068F80098AF
:1047F0004030028DC18E8A4200D20185428D018EE9
:104800008A4200D94185761CB6B2052E88D30C9811
:104810000A21401C80B20C90FBF7FAFC002904D15D
:104820000020FFF797FB01F097FD1E21781CFBF796
:10483000EFFC02460C210620019100900323002189
:10484000542001F00DFE052000F0ECF97F1CBFB2F2
:104850002548874200D262E7224C002002AB142197
:1048600041430919C20040310D8D9D50D218401CA2
:10487000498D80B251600528F1D30C2406231BA278
:1048800021460020009401F07FFE06231BA2182180
:104890000020009401F078FE01F05EFD7D25ED0022
:1048A000284600F0BFF9FD2000F0F8FD0023282283
:1048B00002A9FD2000F038FE062313A224210020C7
:1048C000009401F061FE01F047FD284600F0AAF9CE
:1048D0000DB0F0BD43616C6962726174696F6E2ED8
:1048E0002E2E0000E0F4FF1FB80B000043616C693E
:1048F00062726174696F6E204F4B2100536176695B
:104900006E672E2E2E000000536176656421210013
:104910000EB50948009000206A469071012111717E
:1049200091721072507160235372D172D0716846C7
:1049300000F028FD0EBD000002CF0000F0B56F4E64
:1049400000273446203C254685B0203D3B00FFF73C
:10495000C3F805041424344453000120002140020C
:1049600000F0F6FC69794A006449A03951184031D9
:1049700008866879401C68713EE0012000218003B0
:1049800000F0E6FC697E4A005C49A039511880318C
:104990008880687E401C68762EE00120002180021D
:1049A00000F0D6FC617B4A005449A039511880318F
:1049B0000883607B401C60731EE001200021C0035F
:1049C00000F0C6FC71784A004C49A039511880317A
:1049D00088857078401C70700EE001200021C002B4
:1049E00000F0B6FC717D4A004449A0395118C0312D
:1049F0000880707D401C70751420394641433F4843
:104A0000A0380818009060304179042901D30021B2
:104A100041710099042208467030663101F0BAF8FD
:104A2000E089052801D20520E081608C052801D2AB
:104A300005206084009840300190018D408D0290E7
:104A4000081AFCF741FB03900198C18C0298081AE0
:104A5000FCF73AFB0399FCF725FA00997F1CFFB29B
:104A6000C866052F00D271E724482568A038C66EB5
:104A70002846314601F036FF07463146284602F007
:104A800031F83946FCF70EFA1D4E314601F09AFF17
:104A9000E0676769A56A3946284601F023FF009060
:104AA0003946284602F01EF80099FCF7FBF931461A
:104AB00001F088FF114D134960352860884204DAFF
:104AC0001149884201D2002028603620205E5028FB
:104AD00001DA00202860FCF7F7FA296801F072FF7C
:104AE0003146FCF7DFF909496860884204D2084979
:104AF000884201DA0020686005B0F0BD80F5FF1F34
:104B00000000C8420000F0410000F0C10000A0C158
:104B10000000A04108B500206946C87048702820F0
:104B2000087001208870684600F0C4FD012128202B
:104B300000F046FE0121282000F09CFE2920694655
:104B40000870684600F0B6FD0121292000F038FE0B
:104B50000121292000F08EFE342069460870684645
:104B600000F0A8FD0121342000F02AFE01213420AC
:104B700000F080FE372069460870684600F09AFD14
:104B80000121372000F01CFE0121372000F072FEC9
:104B900008BD0000F0B585B01546022803D90020F5
:104BA000C04305B0F0BD104EC400325D012A17D0DD
:104BB0006A461070012757700320107268460395EB
:104BC000019100F06DFE3755A019456001211620B6
:104BD000FEF7FEF803211720FEF7FAF80020E0E7C1
:104BE0000120C043DDE70000E8FBFF1F70B5062889
:104BF00002D90020C04370BD1424094D60434419FC
:104C0000267B012E09D06160002666702B5401209E
:104C10002073A1603046226170BD0120C04370BD89
:104C200070FBFF1F002809D0012800D10220044991
:104C300048600020087008780128FCD17047000007
:104C400088F0FF1FF8B50D4E0746756900240D4822
:104C50000B490068FBF7DCFA7843B1690246B0699A
:104C60008842FCD0884201D2091A01E02B1A591857
:104C70000C1901469442F2D3F8BD000000E000E0B8
:104C800040420F0054F0FF1F70B5022802D90020E7
:104C9000C04370BD074DC400295D002906D000F057
:104CA0005BFE002028556119486070BD0120C0439B
:104CB00070BD0000E8FBFF1F0148806870470000DE
:104CC00088F0FF1F70B50021134B0C4614224A4395
:104CD000D0184460846044709C54491C0461C9B27B
:104CE00004730629F2D30C487D2188300480448067
:104CF00084800A48C9000068FBF78AFA0849401E08
:104D0000884208D8074D68610321081FFEF760F844
:104D1000AC610720286170BD70FBFF1F54F0FF1FBE
:104D2000FFFFFF0000E000E04168002910D041686B
:104D3000491E41600CD1012141700178012903D144
:104D400081684160002141700069002800D000475F
:104D5000704700001FB500F051F8E12040020090BC
:104D6000012003900C206946488100200881C880FA
:104D7000094C8880204600F027FE08480168C87862
:104D800020221043C8700649D00108600121204646
:104D900000F0FEFD1FBD000000A0064048F9FF1F07
:104DA00000E100E0012801D0002070470048704772
:104DB00048F9FF1F01680A79120701D50A79CA79F3
:104DC0000A790A79120612D5828A002A10D0438AFB
:104DD0004268D25CCA71418A491C89B24182828987
:104DE000914201D300214182818A491E818270470C
:104DF000C8784006400EC870704700000B480A494A
:104E000001600B498160014628314160FF21013179
:104E1000C1818181002141830183C18281824182DC
:104E20004162C1610162704700A0064048F9FF1F5E
:104E300070FAFF1FF8B50023FFF7B4FF002820D059
:104E4000002517E08489878A6E4637803688B44209
:104E5000F9D9CC5C078A4668F455048A641CA4B26C
:104E600004828689B44200D30582848A641C8482C9
:104E70005B1C9BB29342E5D30068C178802211434A
:104E8000C170F8BD10B500F007F800F0DBF900F0D4
:104E9000B1F800F059F810BD10B5104C607800283A
:104EA0001AD0132814D008DC02280BD010280CD0FC
:104EB00011280DD012280DD10AE0142808D0152889
:104EC00008D105E000F04AF904E000F0EDF8102008
:104ED00000F094F90020607010BD000094F0FF1FF6
:104EE00070B588B00E460446154620216846FBF78B
:104EF0008DF91B2D02D9002008B070BDAA2069468B
:104F0000087048708E70CD7000216846431908E023
:104F1000625C461832711A79465C9219491C1A7102
:104F2000C9B2A942F4D32C462A1D05E01979065DC1
:104F30008919641C1971E4B29442F7D301466A1DC1
:104F40000120FFF777FFD6E730B589B0202168460A
:104F5000FBF75CF924486A46018C0B121370517000
:104F6000418C0B129370D170818C0B1213715171A3
:104F7000C18C0B129371D171018D0B12137251728E
:104F8000408D01129172D072122202216846FFF701
:104F9000A7FF154C154D403C2946206F01F012FD2E
:104FA000FCF730F80104090E6A461170507029466A
:104FB000E06E01F007FDFCF725F80104090E6A46D2
:104FC0009170D0700A49606F01F0FCFCFCF71AF890
:104FD0000104090E6A46117150710C2201216846C4
:104FE000FFF77EFF09B030BDA0F5FF1F0000C842EB
:104FF0000000204100B589B020216846FBF706F982
:1050000027486946428913120B704A708089021240
:105010008A70234AC870403A106D030E0B71031456
:105020004B7103128B71C871506D020E0A7202141B
:105030004A7202128A72C87219481A49403080684E
:1050400001F0C0FCFBF7DEFF01040A0E69460A739B
:1050500048731348C038C06CFBF7D4FF0004000E3F
:10506000694688730E48C038C06CFBF7CBFF6946B1
:10507000C8730B48C038406DFBF7C4FF0004000E36
:10508000694608740648C038406DFBF7BBFF6946A7
:1050900048741222F1216846FFF722FF09B000BDD3
:1050A000A0F5FF1F0000C84270B528484179027979
:1050B0000802104340BA00B2FCF706F8244D294616
:1050C000FBF7F0FE234CA0652048C17982790802E5
:1050D000104340BA00B2FBF7F7FF2946FBF7E2FEA8
:1050E000E0651A48417A027A0802104340BA00B2D9
:1050F000FBF7EAFF20661548C17A827A080210435E
:1051000040BA00B2FBF7E0FF134D2946FBF7CAFE99
:1051100020600E48417B027B0802104340BA00B277
:10512000FBF7D2FF2946FBF7BDFE60600748C17B55
:10513000827B0802104340BA00B2FBF7C5FF294644
:10514000FBF7B0FEA06001F085FA70BD58020020A8
:1051500000002041E0F4FF1F0000C84230B585B0D8
:1051600014216846FBF752F8214C224DA06D2946C8
:1051700001F028FCFBF746FF01126A4611705070DF
:105180002946E06D01F01EFCFBF73CFF01126A4668
:105190009170D070206EFBF735FF01126A461171D5
:1051A000154D50712946206801F00CFCFBF72AFFD1
:1051B00001126A469171D0712946606801F002FCC3
:1051C000FBF720FF01126A46117250722946A0684F
:1051D00001F0F8FBFBF716FF01126A469172D072DC
:1051E000122210216846FFF77BFE05B030BD00009B
:1051F000E0F4FF1F000020410000C8421CB5002160
:1052000000910191AA216A4611705170EF219170AD
:105210000721D17010710A48C178001D085C5071D7
:10522000002069460B5C8A79401CD218C0B28A7192
:105230000728F7D307220120FFF7FCFD1CBD000063
:105240005802002030B589B020216846FAF7DEFF09
:105250001C486A46C18C04460B0A137051704034D6
:10526000E1890B0A9370D170618C0B0A1371517133
:10527000408F010A9171D071E06FFBF7C3FE01040A
:10528000090E6A4611722546507280352868FBF770
:10529000B9FE0104090E6A469172D0726868FBF784
:1052A000B1FE0104090E6A4611735073E08E010AC3
:1052B0009173D0731022F2216846FFF711FE09B0F6
:1052C00030BD000020F5FF1F10B5FDF755FCFDF7C0
:1052D00003FEFDF79FFD002001F0DEF910BD000088
:1052E00010B5FEF7CFFD194C0028607007D020786C
:1052F000002804D1022001F0CFF90020607020784E
:105300000300FEF7E9FB0A09200C060F1215181B13
:105310001E20FDF723FE16E000F04CFF13E0FDF722
:1053200061FC10E0FEF738FA0DE0FEF7B7F90AE08D
:10533000FCF712FC07E0FCF793FB04E0FCF77CFAB7
:1053400001E0FEF71DFBFDF78FFA10BD28F4FF1FEB
:1053500000220346D340DB0703D1521C92B2102A2D
:10536000F7D30748836849000B438360D106C90E11
:10537000016001680906FCD500690005000D704751
:1053800000B00340F8B5054600206946088006468F
:10539000044607460121480700F0EEFA3B4B9869A6
:1053A000694608800888002802D00888C043088021
:1053B0006846298800880143684601800088C14307
:1053C000684601809969008801409961A879697AE5
:1053D00040000143A87A084398605868E97A084376
:1053E0005860287A012800D12026697940200129B7
:1053F00003D10643264A41021160E979002902D00F
:10540000D9680143D9602868D9682A79521ED2B276
:105410001143D9601F490246E240D207D20F11D092
:10542000E206D20E194B32431A601B4B01221B7845
:10543000A2409C469B00CA5063465B1C164A7F1CD8
:105440001370FFB22A79BA4203D9641CE4B2102C5B
:10545000E1D3C2030BD510220C4B32431A600E4B22
:1054600001241A78240495004C51521C1A708003B0
:105470000BD51620064305480660074A012310781D
:105480005B0484000B51401C1070F8BD00B0034059
:1054900000E100E030F6FF1F68F0FF1F410210B589
:1054A0000748002242700A2343720B0C0372012347
:1054B0004370090A4172027200F020F8002010BD0A
:1054C0000000024010B50121080300F055FA084C15
:1054D00060790006FCD5084806490068FAF798FE8E
:1054E000401E8006800E4030E0703020607110BD9C
:1054F0000000024040420F0058F0FF1F10B572B686
:105500003020074C60710749481F0160601D8847C3
:1055100062B660793321084000D0012010BD000040
:105520000000024075F0FF1FF8B500264002174644
:105530000C46C5181CE0104800214170062141723C
:10554000290C017201214170290A41720572022160
:105550004170217801726178417203214170A17814
:105560000172E1784172241D2D1DFFF7C7FF361D22
:10557000BE42E0D30020F8BD00000240F1B582B089
:105580000298002400888206930F8205120F009271
:10559000010702058504090F920FAD0FC00B844669
:1055A000334847696E1D0120B040314E0743776193
:1055B0006046002815D007D030698B409843306191
:1055C00030698A40104330612A48066802980179A0
:1055D0007D20C00041430F46300CFAF719FE01460A
:1055E0000BE0234EF0688B409843F060F0688A40EF
:1055F0001043F060E8E7641CE4B20846E040FAD1EA
:10560000072C33D830463946E040FAF701FE86B21F
:10561000194968000E520298711CC08848437D21C8
:10562000C900FAF7FFFD80B28646144AA800115857
:105630008E6000991358C9008C460C315E580427BF
:10564000BE435E501658282373506107490F135804
:10565000083119600021022D01D19368D9641558D1
:10566000634674461033EC5010584160FEBD000094
:105670000080044058F0FF1F6AF0FF1FC06B00005D
:1056800070B58205150F8004840F084A6000105A17
:10569000401C48437D21C900FAF7C4FD044AA1001B
:1056A0005258E90080B21031505070BD6AF0FF1FAF
:1056B000C06B0000F0B501783E4BCD064A09ED0EF7
:1056C00092009C58A6690121A9400E43A6619C58EE
:1056D00065698D4365614478002C02D0012C05D0AA
:1056E0000EE09C58A5698D43A56109E09C58A66908
:1056F0000D463543A5619C5866690D463543656185
:1057000085782D4E2D4C012D15D12B4F9D58403FA6
:10571000BD4203D1A5680D43A5600CE0B54203D19D
:10572000E5680D43E56006E0234F4037BD4202D1F6
:1057300025690D432561C17801293AD19958B142B3
:105740000BD10278382A04D0392A06D16269802325
:1057500001E0626940231A436261B1420BD10278D1
:10576000202A04D0212A06D16269202301E062693F
:1057700010231A436261104B403B99420BD10278CF
:10578000182A04D0192A06D16269082501E0626945
:1057900004252A43626199420BD100780C2804D079
:1057A0000D2806D16069022101E0606901210843EA
:1057B0006061F0BDB46B000040F00F400090044009
:1057C000F0B51C4D1B4E43091B4F9B00184A194C4A
:1057D0004035403EFB58002915D0C106C90E0120B6
:1057E0008840B34203D1916801439160F0BDA34268
:1057F00003D1D1680143D160F0BDAB42FCD1116946
:1058000001431161F0BD01218140B34203D1906891
:1058100088439060F0BDA34203D1D0688843D06034
:10582000F0BDAB42FCD1106988431061F0BD0000AF
:105830000090044040F00F40B46B0000C2064109E4
:10584000D20E8800034908580069D040C007C00F35
:1058500070470000B46B0000C1064209C90E04483D
:1058600092008058C26801238B401A43C26070477F
:10587000B46B0000420910B59300C006074C01222A
:10588000C00E8240E058002903D0416811434160B6
:1058900010BD81681143816010BD0000B46B000031
:1058A00070B504460121022000F066F82548016821
:1058B0000225A943016024487D21C9000068FAF748
:1058C000A7FC61684143207802012048121811604A
:1058D000217809010918CB6801221343CB60217894
:1058E000090109188B6893438B6021780901091815
:1058F0008B68AB438B602178090109188B681343CF
:105900008B606178012916D1217809010818816816
:105910002943816021780E4A8900E0685050207840
:105920000C49002808D0012805D1C0050860217A5B
:105930001720FDF72BFA70BD012080050860217A41
:105940001620F6E70070034058F0FF1F0071034077
:1059500060F0FF1F00E100E0012809D801010548BF
:105960000818C16801221143C160816891438160B8
:105970007047000000710340044A0029516901D0BA
:10598000014300E081435161704700000080044002
:105990000A4A10B5904202D10120000504E0084AED
:1059A000904204D101204005FFF7E6FF10BD054AF3
:1059B0009042FBD101208005F6E7000000A00640E0
:1059C00000B0064000C00640F8B5044623480D4626
:1059D000844202D1012108050AE02148844202D113
:1059E0000121480504E01F48844203D101218805B4
:1059F000FFF7C2FF297B204600F03AF8E078F32158
:105A00000840E070A078297A0843A070A07829792E
:105A10000843A070A078A9790843A07012480068D4
:105A200000902968060948083018FAF7F1FB81B29E
:105A30000E48814200D9014620784009400120707B
:105A40002078CA04D20E104320706170E078AA7AE0
:105A50001043E0703046FAF7DBFBF8BD00A00640CB
:105A600000B0064000C0064058F0FF1FFF1F0000B6
:105A700001290ED80E4B0F4A98420BD1D068CB01AA
:105A80001843D060012904D10B4881680C221143CE
:105A900081607047094B984202D11069090304E004
:105AA000074B9842F5D110694903084310617047CC
:105AB00000A00640008004400090044000B0064072
:105AC00000C0064010B5074C0548606021465831BB
:105AD000A0688861002000F0DFFD0120207010BD6B
