:020000040000FA
:10000000700600204B01000057010000590100005C
:1000100000000000000000000000000000000000E0
:100020000000000000000000000000005B01000074
:1000300000000000000000005D010000C53200006B
:100040006101000061010000610100006101000028
:100050006101000061010000610100006101000018
:100060006101000061010000610100006101000008
:10007000593400000135000003350000150F000061
:1000800061010000610100006101000061010000E8
:100090006101000061010000452A00006D2A000096
:1000A00071260000BD260000610100006101000012
:1000B00061010000610100006101000061010000B8
:1000C00000F002F800F030F80CA030C8083824180E
:1000D0002D18A246671EAB4654465D46AC4201D180
:1000E00000F022F87E460F3E0FCCB6460126334282
:1000F00000D0FB1AA246AB4633431847288D0000B8
:10010000488D00000023002400250026103A01D36A
:1001100078C1FBD8520700D330C100D50B607047BF
:100120001FB51FBD10B510BD00F072FE1146FFF7E0
:10013000F7FF05F0A3FB00F08AFE03B4FFF7F2FF20
:1001400003BC03F0ECF900007047094880470948F8
:10015000804709480047FEE7FEE7FEE7FEE7FEE7C7
:10016000FEE7000005480649044A064B70470000B8
:100170005533000049010000C10000007005002057
:1001800070060020700500207047000030B5441C48
:1001900003E00178401C00290DD08107F9D10B4BF9
:1001A000DD0104C8D11A91432940FAD0001B0A0688
:1001B00003D0C01E30BD001B30BD0A0401D0801E1C
:1001C00030BD0902FCD0401E30BD0000010101011C
:1001D00001E004C0091F0429FBD28B0701D502806E
:1001E000801CC90700D00270704700290BD0C307DC
:1001F00002D00270401C491E022904D3830702D595
:100200000280801C891EE3E70022EEE70022DFE780
:10021000002203098B422CD3030A8B4211D3002303
:100220009C464EE003460B433CD4002243088B42DD
:1002300031D303098B421CD3030A8B4201D394466A
:100240003FE0C3098B4201D3CB01C01A524183095D
:100250008B4201D38B01C01A524143098B4201D317
:100260004B01C01A524103098B4201D30B01C01A42
:100270005241C3088B4201D3CB00C01A52418308BC
:100280008B4201D38B00C01A524143088B4201D3E9
:100290004B00C01A5241411A00D201465241104649
:1002A00070475DE0CA0F00D04942031000D34042BE
:1002B000534000229C4603098B422DD3030A8B42F4
:1002C00012D3FC22890112BA030A8B420CD3890192
:1002D00092118B4208D3890192118B4204D3890178
:1002E0003AD0921100E08909C3098B4201D3CB01B6
:1002F000C01A524183098B4201D38B01C01A52416B
:1003000043098B4201D34B01C01A524103098B426E
:1003100001D30B01C01A5241C3088B4201D3CB0059
:10032000C01A524183088B4201D38B00C01A52413C
:10033000D9D243088B4201D34B00C01A5241411A13
:1003400000D20146634652415B10104601D3404241
:10035000002B00D54942704763465B1000D34042F2
:1003600001B50020C046C04602BD704770477047C7
:100370000246C80FC00781434B0030B54B405B00BD
:100380009B0D20D01923DB06C91801231B059942B8
:1003900020DB0324A40704251346AB400BD3002B1A
:1003A00004D1EB0613409B00E34204D4012464070C
:1003B000002312195941FF231B0599420BD2C90092
:1003C0000143500F09E0CB0204D501430803024367
:1003D00005D0054830BDFF21C905084330BD08469A
:1003E00007210905884330BD0000C07F7047000029
:1003F00010B5024800F033FD10BD00000000C07FC2
:10040000FFFFFFFFFFFFFFFFFFFFFFFFFFFFFEFEFE
:10041000F0B5F94D0C091E092C402E402F468BB02B
:10042000A7437DD0B543FCD0002E7AD0002CFCD061
:100430000D465D40ED0F2543AC1BFF25AD0464194F
:100440000894C502440DC9022143500DDC02044347
:100450000120C00701430443D2020191200C110C7A
:1004600000958C46010423468B430A91614609049A
:10047000E24D8A430991010A7D444919803909787E
:1004800005464D4301266D18F605751B6943C90CD9
:10049000640B891C4C436418B5012C1B250C2E04DD
:1004A000B4434C434D43210C691889090591009DC3
:1004B000E90701D00121C90704912C460199670879
:1004C000CD072F434C08059DE10B4D432D0C2946CC
:1004D0006646754302950D4645432E46029D7D1B9B
:1004E000B44100950D465D4301942C0C2F040D463C
:1004F0005543AE462D0C3D43029503947546049C2E
:100500002D04641B049406D2029C039D641C0026E7
:1005100075410395029401AC70CC009F7D1B01E0F6
:100520003EE162E1B4410904009507910194059907
:10053000A4086143090C0C464443650BE7040C46D0
:1005400066467443A646640B3C4303950294744686
:10055000049DE4042C1B049406D2029C039D641C9D
:10056000002675410395029401AC70CC009F7D1B61
:10057000B44101940C465C430095650FE7000C46BE
:100580005443A646640F3C43039502947446049D6D
:10059000E4002C1B049406D2029C039D641C0026DC
:1005A00075410395029401AC70CC009F7D1BB44152
:1005B000AE09AF06049DC900AD092F43049DA406F2
:1005C000AD060495079D344369180791059DE10B1D
:1005D0004D432D0C29466646754302950D4645430D
:1005E0002E46029D7D1BB44100950D465D4301944E
:1005F0002C0C2F040D465543AE462D0C3D43029561
:1006000003947546049C2D04641B049406D2029C3A
:10061000039D641C002675410395029401AC70CCC7
:10062000009F7D1BB44101948C050694079C890AA8
:10063000611800950791019C0599A4086143090C74
:100640000D464543680BEF040D46644665436C0B4D
:100650003C43049FED047D1BAC4602D20025641C84
:100660006841009E019D371B85410846584301950E
:100670000C46460FC5005443600F28436546E4000E
:100680002C1B02D20025401C6E41019D3F1AB54132
:100690002846BD09800628438446A009BF064E02AD
:1006A0000699A40676180743079D002068410A9919
:1006B000079019430020099B00906046FF191343DF
:1006C0004041E20F64003A43A4460446D71A8C41E5
:1006D000A04203D90120009020463A46C70F941843
:1006E00040416246D20F2243644664000494009C59
:1006F000BE466400D71AA446044602978C4177464A
:10070000002F01D1A04204D96046401C8446029AC1
:100710002046C40FA64694184041049A0546D20FBD
:10072000224364466400D31A8D417146002901D1E9
:10073000A84202D928461A46641C10430122002808
:1007400000D0164361020020079B891904465C41D2
:100750000223002C02DB491813466441089DCE0A8F
:100760002D145D194B056705E10A2C050D19089933
:100770003E43C9076940002B08D0934006D30022AE
:10078000761C5141002B01D1760876001C4A002DC1
:1007900043DB154241D0AA433FD030460BB0F0BDF9
:1007A00006180D464D41174C7642AC411AD39518A8
:1007B0001C465C41134A6D42A24113D301225205EB
:1007C0004C00D4420AD15C00D4420BD04B4002D53D
:1007D00092021143E2E749004908DFE75940C90F97
:1007E000C90718E000200849D8E7054801420DD1A3
:1007F0000342F7D0F2E700000000FF078E860000FA
:100800000000F07F0000E0FF0000F87F1148594031
:100810000143C01241400020C0E70123089A9B0613
:100820009A4205DC032252078918C90FC907B5E7A8
:10083000052252078918074A1143D2125140ADE7E9
:1008400070B515461C4602460B4628462146FFF762
:10085000DFFD70BDFFFFFF7FF0B58B4C0F09254614
:1008600089B0BD437BD01D092646AE43FAD00E4663
:100870005E402740F60F3E43254071D024012142BF
:10088000FBD0FF24AD19A4042D1B039501252D05D4
:10089000DB02DB0AC9022B43C90A29431E010901F5
:1008A000040F130F050121431701880B82039143A5
:1008B0002D098C46A90B1E438A039543B30B9A035B
:1008C00096433F09BA0B9403A74302962E467E43F4
:1008D0000497B6464E19D7190C460196544305970E
:1008E0007E43371B7646BF1B3601B646BE0B361914
:1008F00000967646BC043719009C01D3641C009412
:100900006400002F01D001263443029E049F7543EA
:1009100066467E430496760034196E0034190094BE
:10092000029C019E1C196643751BAE4606946546E3
:100930004519059C05956C43594375460891691AFC
:100940000191049E01465143A41B0491611A009C2D
:100950000791E10605D061090122114302E072E02E
:100960006EE06109089D00272C0A2D066918049D78
:100970007C412A0A2D066918019D6241AC0DAD0229
:100980006D185441079A910D920255196141029ACE
:10099000644658435443069B059A5A43121A131B44
:1009A0009A0E9B015B187A41010B0005C318514157
:1009B000220A200644195A419A4200D2491C0120B9
:1009C0004002814203D315230226F64302E014239A
:1009D0000326F6432020C51AA9401746AF40DA4047
:1009E0000A4320460399D840091473181905511871
:1009F000039A3843D2075140AC4009D001229440B9
:100A000006D30022401C5141002C01D14008400077
:100A10001E4A934212D3012203989206904207DBAA
:100A20000520400709181A480143C012414004E05C
:100A3000032040070818C10FC907002009B0F0BD06
:100A40000020F107FAE705180C464C4111486D42A9
:100A5000A04115D394181A465A410E486442904159
:100A60000ED301204A004005824209D35A00824237
:100A700006D35940C90F084AC90700201143DDE7D2
:100A800000200649DAE700000000FF07FE0700002B
:100A9000FFFFFF7F0000E0FF0000F07F0000F87F15
:100AA0000121C9050123411842001B06D3185B0E22
:100AB0000AD0C1100722D206891840075242D142FB
:100AC00001D5520089187047090208D50146002A4D
:100AD00003D0C10FC907002070471046704742027B
:100AE00002D0002002497047072109050143F4E7BD
:100AF0000000F87FF0B5FF252D04C609C209FF27C5
:100B000004462E400137CB093E4348402A402B4043
:100B10000746002A6BD0002B69D0AA4267D0AB42AF
:100B200065D0002800DA32460125ED0529432C4323
:100B300009022002090AD21A4B0C7F24E31A434C03
:100B4000000A7C44E35C7D242404121914145B0025
:100B5000A218884201D3521C00E0400049420C46D2
:100B60005C4324115C43DB016415E318040A5C4315
:100B7000C502200D0C4644436419250A5D43230336
:100B8000EC0C0D46654300030019EB184C42A342E0
:100B900001D35B18401CD4052018002B07D05B0044
:100BA000C91804D3401C002901D1400840003F214E
:100BB00089048A4209D3002A08DC1106090F04D0EF
:100BC000032149074018C00FC007F0BD01224100B2
:100BD000120689187F2252069142F6D20521490752
:100BE000C84201D59010F0BDFF20C005F0BD002F18
:100BF00000DA32461648AA4207D2AB4205D21902A1
:100C0000090E17D0F80FC007F0BDFF2563002D06B1
:100C1000AB42F9D84900A942F6D8AB4201D1A9426A
:100C2000F2D0A94201D1002101E061004908D005BC
:100C30000843F0BD1102090EFBD0FF200243D0058E
:100C4000F0BD0A460146104654E70000448000000B
:100C50000000C07F10B501469E240002CA15A307FC
:100C6000002A02D01843002A04DBA21A002A0CDD55
:100C7000D04010BD1206120E01D140004008A21A49
:100C800003D4D04040420028F3DDFF224800120682
:100C9000904201D9002010BDC817C043584010BD74
:100CA0000102C21504D00123DB071943002A0ADB25
:100CB0009E239A1A02D40846D0407047FF22410072
:100CC0001206914201D900207047C017C0437047F7
:100CD0001F22030C02D10F2200041CD0030E01D1ED
:100CE0000002083A030F01D10001121F830F01D146
:100CF0008000921E002801DB4000521ED2055118D0
:100D0000021251181922904004D3491C002801D125
:100D10004908490008467047C10FC90700D0404242
:100D2000012292071143D3E701218907D0E7000090
:100D300010B5FF22C30D134009D05A4007D091428D
:100D400005DA5C42A14202DDC905081810BDC40FD6
:100D5000E407002B06D0002A06D0002902DBFF2082
:100D6000C0050443204610BD4102FCD0004810BD20
:100D70000000C07F10B5FF231B0644009C421DD815
:100D80004C009C421AD80346124A0B4307D4401A1F
:100D900002D3EFF3008010BDEFF3008010BD081AFE
:100DA00006D2EFF3008001219043C907084302E017
:100DB000EFF30080904380F3008810BD0D231B04E7
:100DC0001A4204D01146002000F006F810BDFFF7CB
:100DD0000FFB10BD00000090C80212D54803400F61
:100DE000002804D0C803C043012188407047EFF3B6
:100DF00000800001000903210907084380F30088EF
:100E00007047002070470000004870470C05002024
:100E10007546FFF7F9FFAE46050069465346C00820
:100E2000C000854618B020B5FFF79CF960BC0027CC
:100E30004908B6460026C0C5C0C5C0C5C0C5C0C5A6
:100E4000C0C5C0C5C0C5403D49008D46704710B5FE
:100E50000446C046C0462046FFF76FF910BD10B5E6
:100E60000C461107090F092904D00A290AD00829BC
:100E70000CD104E011460820FFF7AEFF06E0510652
:100E800006D501E0510601D50120C007214610BD5D
:100E9000D10607D501010909CC084907000E000653
:100EA000044309E0410F20024907000A0143200ED4
:100EB00000061D22D14101430846E7E770B58C18B2
:100EC0000578401C6B075B0F01D10378401C2A1189
:100ED00006D10278401C03E00678401C0E70491CC5
:100EE0005B1EF9D12B0705D40023521E0DD40B70C5
:100EF000491CFAE70378401CCB1A921C03E01D78CA
:100F00000D70491C5B1C521EF9D5A142D8D300209C
:100F100070BD000030B5094A0020064C0649137820
:100F200004E022694500401C4A53C0B29842F8D3FD
:100F300030BD000000B003402CF6FF1F54F0FF1F2F
:100F400070B5234CE089401CE081A088401CA08043
:100F500000F068FB2089401C208100F0E1F8E08966
:100F60000025030002F0CEFA06290407151A2529E8
:100F700002F05CFB70BD208A401C80B220820628F3
:100F8000F8D320780128F5D12582A58000F0F8FA61
:100F900070BD03F0ADF900F005FA70BD608A401C29
:100FA0000004000C6082F8D06582258100F026F8EC
:100FB00070BD00F0EDF8E58170BDE58165822582A8
:100FC000A58025810021252004F078F8FEE70000A7
:100FD00000F0FF1F10B50121024A084603F07EFA17
:100FE00010BD0000410F000010B50021252004F0C5
:100FF00065F8012003F0E4FA10BD0000F0B585B0FB
:10100000002000903E48404D017E3D4C3D4EA8786A
:10101000203C0B0002F076FA050424240815240075
:101020000020E86368811BE0012819D102F0B2FAC0
:1010300068893146FF3091306881E86B05F052F9DC
:1010400007E001280CD102F0A5FA3146E86B05F063
:1010500049F8E863E26B0146104605F043F8E063A7
:101060002A20205EFFF758FE0390E76B696B384635
:1010700005F038F90246019021483946FC3804F061
:1010800069F92248C16C224B1A029942C16C00D303
:101090005140466D9E42466D00D356400098A8636D
:1010A000384605F08FF802903146019805F08AF82D
:1010B00000901849039805F015F9174905F082F8D2
:1010C0000646686AA8621549009805F07BF8014653
:1010D000002005F007F8029905F004F8314605F004
:1010E00001F868628121E06BC905884205DA7F2139
:1010F000C905C84201D2002068626F6305B0F0BD27
:10110000F4F5FF1F0000204100F0FF1FD4F4FF1F83
:1011100000008080000028C2CDCCCC3D3333333F6B
:1011200070B50B4CA16A606A0D4605F0DBF8064607
:101130002089401CFFF7F8FD314605F043F80549CA
:10114000FFF7D8FC294604F0CDFF206270BD0000F7
:1011500000F0FF1F0000A04010B50021022003F0A6
:101160001FFDFFF7E1FD064905F02CF80549FFF7E3
:10117000C1FC0549FFF7BEFC0449486510BD0000ED
:101180000000A04000007F434A0CC23ED4F5FF1F80
:10119000FEB500206946088088802D4C0A20205E1C
:1011A000FFF7BAFD06460620205EFFF7B5FD216A6F
:1011B000054602916069074604F094FF294604F051
:1011C00091FF314604F08EFFFFF744FD6946088029
:1011D0003846029905F086F8294604F083FF314627
:1011E00005F080F8FFF736FD694688801949102020
:1011F000085E69460023CB5E424211B2984202DA91
:101200006B46188005E06D460023EB5E9A4200DDD8
:1012100029806D460423EB5E984201DAA88005E040
:101220000420285E2B46824200DD99800022AA5EBF
:101230000848403842810421695E8181A0890228E2
:1012400002D90021084600E0104602F007FCFEBD6E
:1012500000F0FF1F14F6FF1FFEB52F4D00247F2066
:101260002C708002816802912D492A4626462B4F18
:101270003432C2C22B496F62A9622B49E9642B49FF
:101280006965C168A9650169E965406928662846FC
:10129000243004F015FA2648E8672648A86781201C
:1012A000C0056867A8662448686628468030C7601D
:1012B000466122498761C161214901621C3804F0FD
:1012C000FFF90096019632461E492846029B04F01B
:1012D00051FDFD225202142060434119084680301E
:1012E0000686A0310E714E71E100C6848918C6626F
:1012F0000B880385641C8988E4B24185052CEAD3F8
:1013000005486421C030018281840F494030C164A6
:101310000E4940300182FEBDD4F4FF1F0000A04200
:1013200000002041000048420000404100003443DA
:101330000000A041CDCC4C3D0000F041CDCCCC3DD7
:101340000000C8420000A14200009041B603000026
:1013500000B589B020216846FEF758FF0748C06CE9
:10136000009072B6FC2003F0BDFC04220023694605
:10137000FC2003F0FDFC62B609B000BDD4F5FF1FF0
:101380000648054901607F21C9058160FF30044995
:101390000130C1647047000000007543D4F4FF1FA2
:1013A0000000A041F8B52F482F4FC28C408F102A63
:1013B00004D2102802D2B989491CB9812949294D82
:1013C00040310091C98EA0354B2908D2642A06D23B
:1013D000642804D2002028767870F870B870214C08
:1013E00001268034322916D97878002813D11F4974
:1013F000206C884203D903202876012005E01C498F
:10140000884205DD04202876022002F0CFFA7E70A3
:1014100003F0EEF83863787801281AD1B8780028FC
:1014200017D103F0E5F8396B401A1E2811D9287E30
:101430001049032802D0042807D00AE00E4A206C85
:10144000904206D9BE70E16406E00C4A206C9042DE
:10145000F8DCB878012804D10098C08E4B2800D25F
:10146000FE70F8BD54F5FF1F00F0FF1F000020C202
:101470000000204200002041000096C2000070429F
:101480007CB5354C354DA089002815D1384934A09C
:101490008861E86CA062084601F076F820462C309E
:1014A00000F0D5FB2046443000F0D1FB20465C30F4
:1014B00000F0CDFB0120A0812E487F260078F605A4
:1014C000012822D007282AD0042837D02248012119
:1014D0002C3000F00CFB20480121443000F007FBC9
:1014E00018250C2324A210210A20009504F0E8FB03
:1014F000A06AFFF7D5FB02460C20009002231021C2
:101500000195582004F048FB7CBD134800212C3085
:1015100000F0EDFA3146A06A04F0E4FD0CE00E485C
:101520000021443000F0E3FA0121A06AC905884295
:10153000D6DB314604F0D6FEA062D1E7A06AE864AB
:101540000020A081FFF704FF03F0EAFA022004F074
:101550008BFCFFF73FFDC3E720F4FF1FD4F5FF1F0F
:1015600053657420546172676574537070656400CC
:10157000C0F3FF1F1DF4FF1F53706565643A000040
:101580003EB50025009501950A20029503F07AFDED
:101590001D4C0128206900D040420090262003F015
:1015A00071FD0028606900D04042019025616561AD
:1015B000019900984018FFF7AFFB0021C943FFF7DE
:1015C000B7FBFFF76DFA114A114BFFF745F90022FF
:1015D000104BFFF741F900220F4BFEF719FFFEF702
:1015E000C7FEA064E26C0146104604F07BFE0B4C83
:1015F0000290A069E0610A48029904F0C7FBA0616B
:101600000298E0623EBD0000D4F5FF1FABAAAAAA73
:10161000AAAAB03F00003D400000514000F0FF1F6B
:10162000D4F4FF1F38B50B4CE169A0690D4604F0F6
:1016300059FE0090A088401CFFF776FB009904F04B
:10164000C1FD0549FFF756FA294604F04BFD6061DC
:1016500038BD000000F0FF1F0000F0417CB5334CA6
:10166000334D6089002815D1364932A08861286E33
:101670006062084600F088FF20462C3000F0E7FA50
:101680002046443000F0E3FA20465C3000F0DFFAF8
:10169000012060812C482D4E0078012822D0072897
:1016A0002AD0042833D0214801212C3000F01FFA21
:1016B0001E480121443000F01AFA18250C2324A2F8
:1016C00010211420009504F0FBFA606AFFF7E8FA95
:1016D00002460C2000900423102101953A2004F0CA
:1016E0005BFA7CBD114800212C3000F000FA314635
:1016F000606A04F0F7FC08E00C480021443000F078
:10170000F6F93146606A04F0EDFD6062D5E7606A83
:10171000286604F087FB0020608103F001FA0220B4
:1017200004F0A2FBFFF756FCC7E7000020F4FF1F00
:10173000D4F4FF1F446972656374696F6E204B6453
:1017400000000000C0F3FF1F1DF4FF1F0000A040B9
:101750004B643A007CB5354C354DE088002815D1F6
:10176000384934A08861A86DE061084600F00CFF9C
:1017700020462C3000F06BFA2046443000F067FA27
:1017800020465C3000F063FA0120E0802E483F26BE
:1017900000783606012825D007282DD0042836D019
:1017A000224801212C3000F0A2F9204801214430C8
:1017B00000F09DF918250C2324A210211420009577
:1017C00004F07EFA2249E06904F0FCFCFFF768FAB5
:1017D00002460C2000900423102101953A2004F0C9
:1017E000DBF97CBD114800212C3000F080F9314636
:1017F000E06904F077FC08E00C480021443000F078
:1018000076F93146E06904F06DFDE061D2E7E06908
:10181000A86504F007FB0020E08003F081F90220B6
:1018200004F022FBFFF7D6FBC4E7000020F4FF1F03
:10183000D4F4FF1F446972656374696F6E204B7046
:1018400000000000C0F3FF1F1DF4FF1F4B703A00A3
:1018500000002041F8B5244C05462078002841D0EE
:10186000284603F087FFE06100212062695681422B
:1018700001DD002028701C482978007F1A4C401A8E
:10188000C6B2603468782169884200D800261648BC
:101890006661603000F078FE13487C3086616978BC
:1018A000016100F0E3FD20696978C7B2814200D28E
:1018B0000F4600240AE030191C2148434219200138
:1018C000011B1E20133100F04DFC641CBC42F2DBF6
:1018D00005491C22086A5043401901228861827020
:1018E00000200870F8BD000060F3FF1FF8B5002A63
:1018F0007ED0540054438718012B41D0861A022B06
:101900007BD0032B76D0042B72D115460026009194
:101910000098069AC1B2B8B200F000FD0098761C9B
:10192000401E00906800024671006A4371435118DE
:10193000091B081A401C002801DD6D1E7F1EAE42E7
:10194000E6DB0098069AC1B2B8B200F0E7FC284680
:10195000410070006D1E891E02466943724389185A
:10196000091B0818401C7F1E002803DC0098401E3D
:10197000761C0090002DE4DC0098C1B2B8B276E08D
:1019800000970D46164600270098E9B280B2069AE5
:1019900000F0C4FC70007F1C01467A0071437A435A
:1019A0008918091B081A401C6D1C002803DD0098CB
:1019B000401E761E0090B742E6DB0098E9B280B286
:1019C000069A00F0ABFC00993046491E0091410098
:1019D0007800761E891E024671437A438918091BD6
:1019E0000818401C002801DC6D1C7F1C002E02E042
:1019F00040E002E03FE0E0DC75E0154600270091A2
:101A00000098069AC1B2B0B200F088FC00987F1C22
:101A1000401C00906800024679006A4379435118DF
:101A2000091B081A401C002801DD6D1E761CAF4200
:101A3000E6DB0098069AC1B2B0B200F06FFC28460F
:101A4000410078006D1E891E024669437A43891859
:101A5000091B0818401C761C002803DC0098401C59
:101A60007F1C0090002DE4DC0098C1B2B0B2069A51
:101A700000F054FCF8BD00960D461646002700986D
:101A8000E9B280B2069A00F049FC70007F1C024661
:101A90007900724379435118091B081A401C6D1EC6
:101AA000002803DD0098401C761E0090B742E6DB5C
:101AB0000098E9B280B2069A00F030FC00993046F6
:101AC000491C009141007800761E891E0246714330
:101AD0007A438918091B0818401C002801DC6D1E78
:101AE0007F1C002EE4DC0098E9B280B2BFE77CB531
:101AF0000446C0680D460E287DD3A0681E287AD300
:101B0000206903F030FEA168884274D825750C2640
:101B100061682068002D11D00122801D891D00F010
:101B20002EF9206903F01FFEA168081A21884008D9
:101B30004018002180B2009601916CE00022801DC7
:101B4000891D00F01CF901250095206861680323B8
:101B50000622801D891DFFF7C9FE0095A168206837
:101B600042186168801D0B46D21F00F094FA009560
:101B7000A16820680423401861680622C01F891DDF
:101B8000FFF7B4FE0095E1686068A268411820681C
:101B90004B1E8218801D491ED21F00F07CFA009552
:101BA000E1686068A2684118206801238018062255
:101BB000C01FC91FFFF79AFE00956168E0680B1807
:101BC0002068891D0246DB1F00F065FA0095E16878
:101BD00060680223411820680622801DC91FFFF794
:101BE00085FE00956168E068A2680B18206880187F
:101BF000421E401E00E018E0891DDB1F00F04BFA7A
:101C0000206903F0B0FDA168081A21884008401837
:101C100080B200960195E168A2880C3949085118F4
:101C200089B20C23226904F0CFF97CBD10B503F012
:101C3000E9FE10BD38B51446C9B280B26A4600F05C
:101C4000AAFB6846017801206140884338BD7CB515
:101C50000446C0680E287BD3A0681E2878D320696C
:101C600003F081FDA168884272D8012500952068A3
:101C7000616803230622801D891DFFF737FE00954A
:101C8000A168206842186168801D0B46D21F00F0D1
:101C900002FA0095A16820680423401861680622B2
:101CA000C01F891DFFF722FE0095E1686068A268E9
:101CB000411820684B1E8218801D491ED21F00F05B
:101CC000EAF90095E1686068A2684118206801237C
:101CD00080180622C01FC91FFFF708FE0095616823
:101CE000E0680B182068891D0246DB1F00F0D3F95D
:101CF0000095E16860680223411820680622801D73
:101D0000C91FFFF7F3FD00956168E068A2680B1832
:101D10002068891D8018421E401EDB1F00F0BBF9A1
:101D2000207D0C26002814D0206861680122801DC7
:101D3000891D00F024F8206903F015FDA168081A38
:101D4000218840084018002180B2009601910BE0E4
:101D500014E0206903F007FDA168081A21884008F3
:101D6000401880B200960195E168A2880C394908B4
:101D7000511889B20C23226904F026F97CBDF7B50D
:101D8000D8B00C460546802874D2402C72D2E1B2FD
:101D9000A8B250AA00F0FFFA50A802785A98D107CA
:101DA000C007C90FC00F814264D021462846559410
:101DB00000F0CCFA0646569050A8027821462846F4
:101DC00000F0F1FA54908019400829940194289069
:101DD00001240090254601E0002D7BD0E90028A8D1
:101DE00008188038816F5291C66F50A86D1E027816
:101DF000EDB23146529800F0A9FA539050A80278FB
:101E00003146529800F0CFFA519050A80278761CD3
:101E100031465298FFF70EFF002804D050A80278F0
:101E20003146529815E0539F08E050A80278314699
:101E30003846FFF7FFFE002803D17F1C51988742E8
:101E4000F3D951988742C7D850A8529702783146A3
:101E5000384600F0A8FA519050A8027831465298BE
:101E600000F074FA5390142C1FD2471E58975990C3
:101E7000074617E07EE050A80278711E3846FFF74B
:101E8000D9FE002827D059995898884207D05891F0
:101E9000E00069460F504018641CE4B24660142C00
:101EA00003D27F1C51988742E5D9539951985A9B88
:101EB0004018400852905198F1B282B2539880B2C3
:101EC00000F0D5F8142DA0D2539F59977F1E589734
:101ED000599F19E01FE05997E1E750A80278711C5B
:101EE0003846FFF7A7FE002813D059995898884222
:101EF00007D05891E80028A90F5040186D1CEDB28A
:101F00004660142D81D27F1C5198874200D97CE70E
:101F1000E3E75997F5E7002C20D0E1006846081860
:101F20008038816F5291C66F50A8641E0278E4B267
:101F30003146529800F00AFA539050A80278314680
:101F4000529800F030FA074650A80278761E3146C3
:101F50005298FFF76FFE00280ED020E0002D00D031
:101F60003AE754985A9B82B25598C1B2569880B2BB
:101F700000F07DF85BB0F0BD539809E050A80278FE
:101F800031465198FFF756FE002804D15198401C65
:101F90005190B842F2D95198B842BCD8529050A84A
:101FA00002783146529800F0FEF9074650A80278B0
:101FB0003146529800F0CAF95390142D20D259900E
:101FC000401E5890599818E050A80278711C5198FA
:101FD000FFF730FE002826D059995898884208D03B
:101FE0005891E80028A9519A0A5040186D1CEDB28A
:101FF0004660142D04D25198401C5190B842E3D948
:102000005398BAB23818400852905398F1B280B23F
:102010005A9B00F02CF8142C96D253985990401EDD
:10202000589059981BE051985990E2E750A80278CF
:10203000711E5198FFF7FEFD002815D05999589848
:10204000884208D05891E0006946519A0A504018D9
:10205000641CE4B24660142CDED25198401C5190AE
:10206000B84200D970E7E1E751985990F3E7F8B525
:1020700015461E460F460446A84202D9D0B2254650
:10208000044632463946204600F048F9641CA4B2A2
:10209000A542F6D2F8BDFFB583B0054605980C46BB
:1020A000411B06980027021BFF43002902DD012087
:1020B000029002E0002904DA0297002A09DD0127D4
:1020C00011E0C2B2E1B2A8B20C9B00F02CF907B04B
:1020D000F0BD002A07DB0598E1B282B2A8B20C9BE2
:1020E000FFF7C5FFF3E702984843394651434200E2
:1020F00000924A00019288421CDB161A0098101ABE
:1021000000900EE0E1B2A8B20C9A00F007F9029834
:102110002D18002E02DA0198361802E00098861970
:10212000E41905988542EDD1E1B2A8B20C9A00F00D
:10213000F5F8CCE70098461A801A01900EE0E1B25B
:10214000A8B20C9A00F0EAF8E419002E02DA00981E
:10215000361803E00198861902982D1806988442D3
:10216000EDD1E1E7FEB514460D460646802805D8B8
:10217000402D03D8022D01D3122E01D20020FEBD26
:10218000E0680028FBD0A27830461023A91E123840
:102190000C27002A12D06268002A04D0C9B2C0B24B
:1021A000009303F036FD002001900097A9B2B0B271
:1021B0000C23E26803F008FF0120FEBDA268002A9C
:1021C00005D00093C9B2C0B2102303F022FD012054
:1021D000EAE7000010B5002902D00121002401E047
:1021E000002101240448FFF782FC034821461830EF
:1021F000FFF77DFC10BD000028F3FF1FFEB58168CE
:10220000044614293CD3E068142839D325686A1899
:10221000802A35D861680B18402B31D80027284612
:10222000521E5B1E009700F0F4F8012500956168CE
:10223000E068A2680B1820685B1E8218521E00F02E
:10224000CAF820882189304B4118491E8AB2217969
:1022500080B20E31C9B21B78FFF709FF0095A16863
:10226000206842186168521E0B460D3300F0D1F809
:10227000206903F08DFA0246A068811E8A4201D9C6
:102280000020FEBD80B20C26019700960290A08827
:102290003346401C81B22088226980B203F0ECFEF4
:1022A0001A480775A16901612168491D0160E2684A
:1022B00061688918C268891A091F4160FFF7C7FC65
:1022C000124818300575E1690161A2682168891812
:1022D0008268891A891F0160E26861688918C2688A
:1022E000891A091F4160FFF7B2FC00960195A0888A
:1022F0000C23113081B220886269801D80B203F006
:1023000063FE0120FEBD000024F3FF1F28F3FF1F22
:102310000148007D7047000028F3FF1F10B5C0B2D0
:1023200003F086FB10BDF8B515461E4607460C4661
:10233000A94201D90D461446324621463846FFF7D8
:10234000EDFF641CE4B2A542F6D2F8BDF8B5D5079E
:10235000441EED0F0E46002C0ED0F1B2A0B26A461C
:1023600000F019F868460078C007C00FA84201D0F5
:10237000601CF8BD641EF0D1F1B200206A4600F086
:102380000AF868460078C007C00FA84201D00120B3
:10239000F8BD0020F8BD10B51446C0B203F064FBD0
:1023A0002070002010BDF8B5441CD5070E46ED0F77
:1023B0000DE0F1B2A0B26A46FFF7EDFF6846007883
:1023C000C007C00FA84201D0601EF8BD641C802C5D
:1023D000EFD38020F8BDF8B51C4615460E460746DB
:1023E00092B2C9B280B2069BFFF741FEAAB2E1B237
:1023F000B8B2069BFFF73BFEE2B2F1B2B8B2069B61
:10240000FFF791FFE2B2F1B2A8B2069BFFF78BFF94
:10241000F8BDF8B517461E460C460546B84201D928
:1024200015460746B44201D91C460E46B44206D1B1
:10243000BAB2E1B2A8B2069BFFF719FEF8BDBD42E1
:102440000DD1F2B2E1B2A8B2069BFFF76CFFF8BD66
:10245000BAB2E1B2A8B2069BFFF709FE641CB4420F
:10246000F6D9F8BD10B503F013FB10BDF8B50400A4
:1024700052D0A2680A2A4FD3E06814284CD3012511
:10248000009561680B1820685B1E8218521EFFF7CA
:10249000A2FF0826009620892178083840080818ED
:1024A0002179C0B2491CC9B233461C4A03F0B1FBC2
:1024B00000962079217B227840180938C1B2208902
:1024C0000823083840081018144AC0B2083203F034
:1024D000A0FB0095A168206842186168521E09316E
:1024E0000B46FFF7D8FD0095E1686068A2684118C7
:1024F00020680A3982180B46521EFFF7CCFDE068AF
:102500006269216914388A4202D25043FDF780FE85
:10251000E061204600F004F8F8BD0000DA8A00000F
:10252000FEB504468189808B091A14398EB2218840
:10253000491C8AB20192A188721E0A318DB280189C
:10254000218900220092C91E019A89B280B25718CF
:102550002B183A4629460198FFF75BFF216960690D
:10256000814201D8002005E0A069491E7043FDF7B3
:102570004FFE80B2012100912918E2690198531899
:102580003A46FFF746FFFEBDFEB5816804461429B2
:102590003BD3E368142B38D320684218802A34D800
:1025A0006168CB18402B30D80025521E5B1E009569
:1025B000FFF72FFF012600966168E068A2680B18FC
:1025C00020685B1E8218521EFFF705FF20882189B4
:1025D000174B4118491E8AB2217980B20E31C9B217
:1025E0001B78FFF744FD0096A168206842186168D7
:1025F000521E0B460D33FFF70CFFA06903F0CFF816
:102600000246A068811E8A4201D90020FEBD80B228
:102610000C21019500910290A0880C23401C81B2EE
:102620002088A26980B203F027FD0120FEBD0000D2
:1026300024F3FF1F10B5242002F024FD012801D04F
:10264000012010BD002010BD10B51C2002F01AFDA5
:10265000012801D0012010BD002010BD10B51B20A5
:1026600002F010FD012801D0012010BD002010BD96
:10267000F8B50F4D0024A8680E4E000712D50E4F76
:10268000387884420ED2E96820460C2250433258F2
:10269000114204D080198068002800D08047641C53
:1026A000E4B2EDE7A86824210843A860F8BD000063
:1026B00000900740BCF6FF1F6EF0FF1FF8B50F4DEE
:1026C0000024A8680E4E000712D50E4F38788442B9
:1026D0000ED2E96820460C2250433258114204D0F1
:1026E00080198068002800D08047641CE4B2EDE7C0
:1026F000A86824210843A860F8BD000000A0074096
:10270000BCF6FF1F6EF0FF1F10B52C2002F0BAFCC4
:1027100010BD10B501212D2002F0D0FC10BD10B568
:1027200000212D2002F0CAFC10BD10B501212C2083
:1027300002F0C4FC10BD10B500212C2002F0BEFC3C
:1027400010BD08B500206946C87048702C2008707C
:1027500001208870684602F0D1FB08BD08B5002052
:102760006A46D070012050702C211170907068461C
:1027700002F0C4FB08BD0000F0B50021124D134F5C
:10278000134B0A4605261C204843401946708C000E
:102790008270476082601C5902614261491CC9B263
:1027A000C46082610529EED30120A8700948286120
:1027B0000948E86204480A498C306863074868663B
:1027C000014880300160F0BDF8020020EA8A000074
:1027D000A0F3FF1FF5570000C5570000895E0000F9
:1027E000AD570000F8B5674E7068FFF733F86649DB
:1027F00000270878002800D07761624C60340128F7
:1028000002D0072855D159E03E237522122101201C
:102810000097FFF7FEFD306A1C214843716840189D
:10282000B0618770306A401C306272685178491E0E
:10283000814200DC3162306A1C214843801801214A
:10284000B061817072681078401C43B213702046EA
:1028500051782469A14205D80D468B420EDB491EF2
:1028600011700BE0E5B2641EA34207D9147002692F
:10287000891A4269914201D9521C4261002410E038
:1028800040481C21603040694843716841181C2051
:1028900060430A182001011B1E201331FFF762FC60
:1028A000641CAC42ECDB3748316A7C308161FFF755
:1028B00037FE35480078042849D04DE03E23752284
:1028C000122101200097FFF7A4FD316A1C22514319
:1028D00072688818B0618770306A401E30620028C4
:1028E00000DC3762306A1C214843716840180121BE
:1028F000B061817071680878401E42B20A704D78EC
:10290000236920469D4203D8002A0ADA0F7008E0A6
:10291000DDB2002A05DA0F704169002901D0491E95
:102920006161002410E017481C2160304069484371
:10293000716841181C2060430A182001011B1E20E9
:102940001331FFF70FFC641CAC42ECDBABE7B06962
:102950000069002800D080477069411C71616428BB
:102960000FDD7761B0694169002908D08770F0698F
:102970001C214843716840180121B061817002F048
:10298000C5FCF8BD60F3FF1F1DF4FF1F8307FF2286
:10299000DB0E9A408907090E994000280BDA0007E0
:1029A000000F0838830808489B001818C369934330
:1029B0000B43C3617047830804489B0018180368E1
:1029C00093430B430360704700ED00E000E400E038
:1029D000F0B50021134B144C144E0A4605251C205B
:1029E0004843C01882610261446082608F00827037
:1029F00045704261491CF759C9B2C7600529EED339
:102A0000012098700A4818610A48D8620A489864F8
:102A10000A480449586603488C3980308160084967
:102A20000160F0BD10040020EA8A000084F3FF1F5B
:102A30005158000039580000215800000958000082
:102A4000C557000010B5074CE068C00704D0064821
:102A50000068002800D08047E06801210843E0605A
:102A600010BD0000007103404CF0FF1F10B5074C73
:102A7000E069C00704D006484068002800D08047BD
:102A8000E06901210843E06110BD000000710340CE
:102A90004CF0FF1FF0B50021114C124B124E0A46AC
:102AA00003251C2048430019457082610261436080
:102AB0008F00826082704261491CF759C9B2C760B9
:102AC0000329EED301200649A0708C31A16107488B
:102AD00020610749E16202498C392165A064F0BD9B
:102AE00084030020EA8A0000B4F3FF1FC5570000EA
:102AF0006958000010B5074C6078002808D0201DE8
:102B0000FFF742FD20462030FFF7B0FC0020607048
:102B100010BD000094F4FF1FFEB5FFF7EBFFFF4E62
:102B2000FD490020F41D08560C270125F934803694
:102B3000002806D001287DD002287CD003287BD035
:102B400034E20623F6A20F210320009703F0B8F821
:102B5000062000900197F28C03230F211B2003F025
:102B60001BF80623F0A20F214120009703F0A8F8DC
:102B7000062000900197728F03230F215F2003F03E
:102B80000BF80623EAA21B210320009703F098F814
:102B90000620E24E0090C03601971B21F2890323E4
:102BA000084602F0F9FF0623E3A21B21412000970B
:102BB00003F086F8062000900197728C03231B21F6
:102BC0005F2002F0E9FF0623DDA227210320009702
:102BD00003F076F8FF21E06BC905C84215D3062340
:102BE0002D2227211B200097019502F075FF01215E
:102BF000E06BC9074840FEF72DF802B20620032318
:102C0000272100900197212008E0FEF723F802B267
:102C1000062000900423272101971B2002F0BCFF0F
:102C20000623C9A227214120009703F049F8FF217C
:102C3000C90502E060E0ECE03AE1206CC84215D33F
:102C400006232D2227215A200097019502F044FFE8
:102C50000121206CC9074840FDF7FCFF02B20620A5
:102C60000323272100900197602008E0FDF7F2FF81
:102C700002B2062000900423272101975A2002F077
:102C80008BFF0623B2A233210320009703F018F82C
:102C90000620009036220197B25E032333211B20C9
:102CA00002F07AFF0623ABA233214120009703F004
:102CB00007F8616CFF20C005C142009701950AD357
:102CC00006232D2233215A2002F006FF0121606CD9
:102CD000C907484006E00623202233215A2002F08B
:102CE000FBFE606CFDF7B6FF02B206200323332122
:102CF0000090019760200EE10C200090062396A220
:102D00000F21032002F0DCFF0C2006270190009722
:102D100004230F211B20226902F03EFF0C200090AB
:102D200006238FA20F21372002F0CAFF0C2001904A
:102D3000009704230F215520626902F02DFF0C201B
:102D40000090062388A22121032002F0B9FF0A2265
:102D5000A25E002A12DA0C20009006232D223221D6
:102D600001951B2002F0B8FE0C20019000970A206C
:102D7000205E032342423221212005E00C200190F5
:102D80000423212100971B2002F006FF0C20009055
:102D9000062377A22121372002F092FF0C22A25EA7
:102DA000002A11DA0C20009006232D2232210195F1
:102DB000552002F091FE0C2000970190205E032325
:102DC000424232215B2005E00C20019004232121A6
:102DD0000097552002F0E0FE0C24062366A2322163
:102DE0000320009402F06CFF00970194328D0323BE
:102DF00032211B2002F0D0FE06235FA232213720B1
:102E0000009402F05DFF009701940323328D32217C
:102E10004CE006235AA20F210320009702F050FF36
:102E20003E4E5949306803F0CDF9FDF739FF0246AF
:102E3000062404230F211B200197009402F0ACFE0E
:102E4000062352A20F213720009702F039FF4E4986
:102E5000706803F0B7F9FDF723FF024604230F2142
:102E600055200197009402F097FE062349A22121E4
:102E70000320009702F024FFB06DFDF711FF02461A
:102E8000042321211B200197009402F085FE0623D4
:102E900042A221213720009702F012FF306EFDF789
:102EA000FFFE04230246212101970094552032E0C1
:102EB0001421062327A20846009702F001FF616C47
:102EC000FF20C005C142009701950AD306232D2299
:102ED0001421262002F000FE0121606CC907484041
:102EE00006E0062320221421262002F0F5FD606C66
:102EF000FDF7D6FE0246062000900223142101971A
:102F00002C2002F049FE182001902648009701234A
:102F1000027E1E21084647E094F4FF1FD4F4FF1FF1
:102F200048464C3A000000004846523A0000000073
:102F300048424C3A000000004842523A000000006B
:102F40004841453A000000005641453A0000000063
:102F5000484D3A0041453A004C5F453A00000000B8
:102F6000525F453A000000004C5F503A00000000FC
:102F7000525F503A000000004E6F723A00000000AD
:102F8000534B503A0000000000002041534B493A97
:102F900000000000444B503A00000000444B443A0B
:102FA00000000000F4F5FF1F02F0F6FD1C481D496B
:102FB0000078072809D001281FD0042804D1081F51
:102FC0004570002002F050FFFEBD164A121F107817
:102FD000401E40B210705570002801DA032016E040
:102FE00000201056002816D0012812D0022814D034
:102FF0000328E9D10CA08861FEBD0A4A121F10788F
:10300000401C40B2107055700328E9DD002010709C
:10301000E6E708A0EFE70CA0EDE710A0EBE7000063
:103020001DF4FF1F98F4FF1F526F61642044657404
:10303000656374004D6F746F7220506172616D65CD
:10304000746572730000000053656E736F722050D8
:103050006172616D657465727300000050494420AF
:10306000506172616D65746572730000F0B503465E
:10307000084649008C465C5A15E0521E904203DA1D
:103080005100595AA142F8D25100904204DA5D5AD7
:10309000A54201D8401CF8E7904204DA46009D5B47
:1030A0005F5A9F535D529042E8DB41005D5A624691
:1030B0009D525C52F0BD0000034A10B5911E881E5F
:1030C00000F05AFE10BD0000FEF5FF1F7CB5354C28
:1030D000354D6088002815D1374934A0886168686B
:1030E00060610846FFF750FA20462C30FEF7AFFD2E
:1030F00020464430FEF7ABFD20465C30FEF7A7FDCE
:10310000012060802D483F2600783606012825D012
:1031100007282DD0042836D0224801212C30FEF774
:10312000E6FC204801214430FEF7E1FC18250C2381
:1031300023A210211420009502F0C2FD21496069EC
:1031400003F040F8FDF7ACFD02460C20009004238C
:10315000102101953A2002F01FFD7CBD114800218D
:103160002C30FEF7C4FC3146606902F0BBFF08E07A
:103170000C4800214430FEF7BAFC3146606903F088
:10318000B1F86061D2E76069686002F04BFE002030
:10319000608001F0C5FC022002F066FEFDF71AFF18
:1031A000C4E7000020F4FF1FD4F4FF1F53706565CF
:1031B00064204B6900000000C0F3FF1F1DF4FF1FD7
:1031C0004B693A00000020417CB5354C354D2088D4
:1031D000002815D1374934A0886128682061084645
:1031E000FFF7D2F920462C30FEF731FD204644305F
:1031F000FEF72DFD20465C30FEF729FD01202080E2
:103200002D483F2600783606012825D007282DD0E6
:10321000042836D0224801212C30FEF768FC2048D3
:1032200001214430FEF763FC18250C2323A2102152
:103230001420009502F044FD2149206902F0C2FFEC
:10324000FDF72EFD02460C2000900423102101956D
:103250003A2002F0A1FC7CBD114800212C30FEF781
:1032600046FC3146206902F03DFF08E00C48002191
:103270004430FEF73CFC3146206903F033F820610E
:10328000D2E72069286002F0CDFD0020208001F007
:1032900047FC022002F0E8FDFDF79CFEC4E70000B9
:1032A00020F4FF1FD4F4FF1F5370656564204B703A
:1032B00000000000C0F3FF1F1DF4FF1F4B703A0019
:1032C0000000204110B500F001F810BD70B51E4A95
:1032D00000245068002805D05068401E506001D17D
:1032E000012010709068401C90609168174800257C
:1032F000814200D195607D21C9009068FCF792FF62
:103300001348002902D18188491C818081883B298A
:1033100003D985804188491C418041883B2903D9D4
:1033200045800188491C01800188172900D9058042
:10333000074D883D14206043401901F097F9641C43
:10334000E4B2062CF6D370BD74F0FF1FFFFFFF7FC1
:1033500024FCFF1F10480F49818001214170232167
:10336000017011200D49000548620D48002141708F
:103370000C4A962111701A2101700179C906FCD4FA
:1033800001790907890FFBD107490868400848609F
:103390008860704703E8000000200540008004407A
:1033A000004006400050064040F0FF1F70B5284C1A
:1033B0006078002805D10120607020469C30FEF71F
:1033C0001DFF244D2878072810D1214800219C306A
:1033D000FEF700FF1E4800219C30FEF7FBFEFFF7C2
:1033E00041F81B2001F04EFE0028FAD02878012871
:1033F00010D1174801219C30FEF7ECFE1448012142
:103400009C30FEF7E7FEFFF72DF8242001F03AFE8E
:103410000028FAD02878042811D1002060701C20E0
:1034200001F030FE0028FAD009489C30FEF770FF0A
:10343000012805D001F074FB022002F015FD70BDDB
:1034400001F06EFB022002F00FFDFDF799FF70BD49
:1034500060F3FF1F1DF4FF1FF8B5254A0020137904
:10346000014613799B063ED5D279224D00262B7852
:10347000214C002B14D0012B17D0022B1DD0032B75
:103480001ED0E7787F1D9F4202D9E2545B1C2B704F
:10349000E3782F785A1DBA4225D12E701A1D17E0F5
:1034A000AA2AF5D12270012205E0AF2A01D02E70A0
:1034B000EEE7627002222A70EAE7A2700322FAE7BE
:1034C000E2700422F7E7275C7918401CC9B2C0B249
:1034D0008242F8D80848001D185C884201D06E70FE
:1034E00001E0A0786870054801F006F9F8BD000019
:1034F00000A0064080F0FF1F8800002074F9FF1F25
:103500007047704730B47446641E2578641CAB4223
:1035100000D21D46635D5B00E31830BC18470020F5
:10352000704710B501F0F2FB01F068F801F0B4F853
:1035300000F0DCFC00F010FA00F04BF900F08EFF18
:1035400000F0C0FA00F058FA00F02AF800F0BAFED5
:1035500000F002F862B610BD08B508206946087090
:103560000120487000208870684601F0C7FC0121E6
:10357000082001F0A3FD092069460870684601F0A3
:10358000BDFC00F001F808BD10B50121092001F0D3
:1035900095FD10BD10B50021092001F08FFD10BD73
:1035A00038B51F484169202211434161C168032297
:1035B00012069143C160C168012212061143C16025
:1035C00018490A68920892000A600A6818231A4388
:1035D0000A6000224A604169402421434161C16878
:1035E000DC05A143C160C1680124E4062143C16038
:1035F0000D48016801600168194301604260694635
:10360000CA704A700A20087001208870684601F06C
:1036100075FC262069460870684601F06FFC38BDCD
:1036200000800440008003400090034010B507482C
:10363000074942694B68D2184261064A03695468D7
:103640001B19036100204860506010BDD4F5FF1FB6
:103650000080034000900340F8B5089C0D461E46CC
:10366000079FA047A847B047052000F087FFB8474D
:10367000052000F083FFA047F8BDF8B5089C0D4673
:103680001646079FA047A847B047052000F076FFE1
:10369000B847052000F072FFA047F8BD0FB4FEB593
:1036A000002508982C460D9F0C9E80470E98804759
:1036B000052000F063FFB8476006040EB0470128FC
:1036C00001D1641CE4B2032000F058FF6D1CEDB280
:1036D000082DEBD30F9808AD00280E98019700969F
:1036E00002900FCD06D0FFF7B7FF2046FEBC08BC06
:1036F00004B01847FFF7C1FFF7E70FB4F8B5174656
:1037000000240C9E0D9D8847B047E80901D0B847BA
:1037100001E0099880476806050E052000F02EFF9D
:103720000B988047052000F029FFB047022000F0E9
:1037300025FF641CE4B2082CE7D3F8BC08BC04B035
:103740001847F8B514461D46089F079E8847A047AE
:10375000B047042000F012FFA847042000F00EFF3D
:10376000B847F8BDF8B514461D46089F079E884720
:10377000B847A847042000F001FFB047A047042045
:1037800000F0FCFEF8BD0FB4FEB50CACE0CC089820
:10379000002480470A988047012000F0EFFEB047E0
:1037A000012000F0EBFE0EE0641CE4B2FA2C0AD912
:1037B0006846E0C008AC0FCCFFF7D4FF0120FEBC88
:1037C00008BC04B01847A8470028EDD1B84700202E
:1037D000F5E710B500F082F800F05AF810BD0000CF
:1037E00070B50546294900014418206880476900E2
:1037F00005226B180026002832D02179052901D234
:10380000227170BD0A2902D2491C217170BD690064
:10381000A07A6D186D1C002804D10120A072E8B2B6
:1038200000F082F821890029F0D0E088884208D28F
:10383000401C80B2E08021898842E7D1DB1CD8B2ED
:103840000BE0E07A0028E1D0207B401CC0B220735E
:10385000E17A8842DAD32673E8B200F065F870BDE9
:103860002079052801D922710CE0002802D0401EE1
:10387000207107E0A07A012804D19B1CA672D8B25F
:1038800000F052F82673E68070BD00003CFCFF1F7C
:1038900070B50E4800210346817232240C33022594
:1038A0000A46C1720A260801C01804810571827295
:1038B000491C0273C9B2C6720329F4D304481860C4
:1038C000044818610448186270BD000030FCFF1FF6
:1038D0005D260000492600003526000008B51B20A3
:1038E0000090684601F00AFB1C2069460870684693
:1038F00001F004FB242069460870684601F0FEFAD6
:1039000008BD0000074A917AD07A814201D1002097
:103910007047505C491CC9B291720A29F8D3002142
:103920009172704730FCFF1F0549CA7A8854C87AE3
:10393000401CC0B2C8720A2801D30020C872704768
:1039400030FCFF1F10B500242046FFF749FF641C20
:10395000E4B2032CF8D310BD08B5182069460870EE
:103960000120887048700020C870684601F0C6FACF
:10397000192069460870684601F0C0FA002000F07E
:1039800001F808BD10B5002804D001280BD002288A
:1039900008D103E00021182001F090FB002119203C
:1039A00001F08CFB10BD00211820F9E710B50028AC
:1039B00004D001280BD0022808D103E001211820EF
:1039C00001F07CFB0121192001F078FB10BD0121E1
:1039D0001820F9E710B5002804D0012809D00228E2
:1039E00006D102E0182001F05BFB192001F058FB22
:1039F00010BD1820FAE700003EB500246946CC72DD
:103A000001204872252008728C7202A801F076FA13
:103A10000021252001F052FB0E48694608800F2046
:103A20000871CC80684601F0CDF90A4869464230F9
:103A30000880684601F0C6F907486946088068466C
:103A400001F0C0F903486946E8300880684601F093
:103A5000B9F93EBD30A40000F6A8000070B50C46D0
:103A600005460021252001F029FB1448144E002DA5
:103A700004DBA9B201F028FA002104E0002101F0E2
:103A800023FA684281B2304601F01EFA0C480C4D10
:103A9000E838A63D002C04DBA1B201F015FA0021A4
:103AA00004E0002101F010FA604281B2284601F0E2
:103AB0000BFA0121252001F001FB70BDF6A80000E2
:103AC00018A5000010B500F039F880216B2000F037
:103AD000ABF9C82000F042FD00216B2000F0A4F9F2
:103AE000032000F069F9002000F05FF9642000F085
:103AF00084F900216A2000F097F90021232000F0CA
:103B000093F98021372000F08FF90021382000F050
:103B10008BF9752000F0C6F8682801D0012010BD8F
:103B200001216B2000F080F900216C2000F07CF96D
:103B3000642000F062F9002010BD000008B50020EC
:103B40006A46D070012050702C2111709070684628
:103B500001F0D4F92D206A461070684601F0CEF9C4
:103B6000084807494161084981610849816008495D
:103B7000C16008490160084941600849016108BD08
:103B8000132700006C0000201F2700002B270000D7
:103B900037270000432700005D27000009270000A9
:103BA000F0B53F4C154620460F46103007C885B08B
:103BB0001E466B4607C30FCC103CFFF7C2FDD0205A
:103BC0001034039007CC6B4607C31C3C0FCC103C51
:103BD000FFF793FD103407CC6B4607C31C3C0FCC9A
:103BE000103CFFF7D0FD00280AD02046103007C84F
:103BF0006B4607C30FCCFFF7B5FD012005B0F0BD44
:103C000020461030039707C86B4607C30FCC103C03
:103C1000FFF773FD103407CC6B4607C31C3C0FCC79
:103C2000103CFFF7B0FD103407CC6B4607C31C3CBB
:103C30000FCC103CFFF785FDD1201034039007CC4A
:103C40006B4607C31C3C0FCC103CFFF756FD1034ED
:103C500007CC6B4607C31C3C0FCC103CFFF793FD11
:103C600010E0012D1AD0012003902046103007C823
:103C70006B4607C30FCC103CFFF710FD6D1E307074
:103C8000EDB2761C002DECD12046103007C86B46F3
:103C900007C30FCCFFF766FD0020AFE70020E3E786
:103CA0006C0000207FB5334C05462046103007C815
:103CB0006B4607C30FCC103CFFF743FDD0201034F8
:103CC000039007CC6B4607C31C3C0FCC103CFFF79E
:103CD00014FD103407CC6B4607C31C3C0FCC103CC2
:103CE000FFF751FD1034039507CC6B4607C31C3C0E
:103CF0000FCC103CFFF701FD103407CC6B4607C317
:103D00001C3C0FCC103CFFF73EFD103407CC6B463B
:103D100007C31C3C0FCC103CFFF713FDD12010341F
:103D2000039007CC6B4607C31C3C0FCC103CFFF73D
:103D3000E4FC103407CC6B4607C31C3C0FCC103C92
:103D4000FFF721FD00201034039007CC6B4607C31A
:103D50001C3C0FCC103CFFF7A1FC0546103407CCEF
:103D60006B4607C31C3C0FCCFFF7FCFC284604B095
:103D700070BD00006C0000207CB514460D46064660
:103D80006B46062243216820FFF70AFF00280BD16B
:103D90006946098849BA31806946498849BA298003
:103DA0006946898849BA21807CBDC00610B5010EDC
:103DB0001C2000F039F810BDC00610B5010E1B2004
:103DC00000F032F810BD10B5BC2801D3012110E07D
:103DD000622801D302210CE02A2801D3032108E044
:103DE000142801D3042104E00A2801D3052100E0AE
:103DF00006211A2000F018F810BD10B504467D20E9
:103E0000C000844201D9044602E0042C00D20424FC
:103E10002146FCF7FDF9401EC1B2192000F004F85C
:103E20006008FFF7D0FF10BD7FB52F4C0646204637
:103E30000D46103007C86B4607C30FCC103CFFF788
:103E400080FCD0201034039007CC6B4607C31C3C89
:103E50000FCC103CFFF751FC103407CC6B4607C366
:103E60001C3C0FCC103CFFF78EFC002827D12046CD
:103E70001030039607C86B4607C30FCC103CFFF702
:103E80003CFC103407CC6B4607C31C3C0FCC103CE9
:103E9000FFF779FC1034039507CC6B4607C31C3C35
:103EA0000FCC103CFFF729FC103407CC6B4607C33E
:103EB0001C3C0FCC103CFFF766FC00280AD02046C3
:103EC000103007C86B4607C30FCCFFF74BFC01202F
:103ED00004B070BD2046103007C86B4607C30FCC36
:103EE000FFF740FC0020F3E76C00002010B500F065
:103EF0007DF80121432001F0E1F8642000F02EFB61
:103F00000021432001F0DAF8642000F027FB0121B2
:103F1000432001F0D3F80021AE2001F0FFFE002184
:103F2000D52001F0FBFE0021502001F0F7FE00211A
:103F3000A82001F0F3FE00213F2001F0EFFE002158
:103F4000D32001F0EBFE0021084601F0E7FE00213E
:103F5000402001F0E3FE00218D2001F0DFFE002172
:103F6000142001F0DBFE0021202001F0D7FE00210B
:103F7000084601F0D3FE0021A02001F0CFFE002171
:103F8000CF2001F0CBFE0021DA2001F0C7FE002196
:103F9000122001F0C3FE0021812001F0BFFE0021AC
:103FA000EF2001F0BBFE0021D92001F0B7FE002177
:103FB000F12001F0B3FE0021DB2001F0AFFE002173
:103FC000302001F0ABFE0021A42001F0A7FE00216B
:103FD000A62001F0A3FE0021AF2001F09FFE01F01A
:103FE00011FD0021084600F026F810BD08B500209C
:103FF0006A46D0700121517023211170907068467B
:1040000000F07CFF42206A461070684600F076FFA0
:1040100017206A461070684600F070FF43206A4619
:104020001070684600F06AFF16206A4610706846F5
:1040300000F064FF08BD10B50446B031C8B20021DD
:1040400001F06CFE20090021103001F067FE20070E
:10405000000F01210843002101F060FE10BD0000A7
:10406000F0B58DB00027282102A80C97FCF7CEF8F8
:104070000C240021062384A20846009401F020FEAF
:10408000012001900623252200210094642001F0E4
:1040900023FD01F0FDFC0020800000227F1C02A90E
:1040A000BFB20A500A2FF9D37B4B00201D46E035E2
:1040B0001C46A034014614267143C91800228031E1
:1040C000401C0A8580B24A850528F3D399E0002672
:1040D0003300FFF717FA050413223444530001207C
:1040E0000021800300F05CFD61794A006A495118A3
:1040F000803108866079401C60713FE0012000211A
:10410000C00200F04DFD617E4A0063495118C03184
:104110008880607E401C607630E001200021C00372
:1041200000F03EFD01465C48C030427B53005A4AD5
:104130009A18C0321183417B491C41731EE0012053
:104140000021800200F02CFD0146687842005248B0
:104150001018C03081856878401C68700EE0FF2020
:104160000021013000F01CFD697D4A004A495118C8
:10417000FF3101310880687D401C6875142031468C
:104180004143454808180090A0304179042901D3E3
:1041900000214171009803220021B03001F08FFF0F
:1041A00000988030028DC18E8A4200D20185428DF6
:1041B000018E8A4200D94185761CB6B2052E87D37E
:1041C0000C980A21401C80B20C90FCF721F80029C1
:1041D00004D10020FFF7FEFB01F05AFC1E21781CE1
:1041E000FCF716F802460C210620019100900323EB
:1041F0000021542001F0D0FC052000F0AFF97F1C15
:10420000BFB22648874200D261E7234C002002ABB0
:10421000142141430919C20080310D8D9D50D218DF
:10422000401C498D80B251600528F1D30C2406232F
:104230001BA221460020009401F042FD06231CA28F
:1042400018210020009401F03BFD01F021FC7D25A8
:10425000ED00284600F082F9FD2000F043FD002328
:10426000282202A9FD2000F083FD062313A22421A9
:104270000020009401F024FD01F00AFC284600F023
:104280006DF90DB0F0BD000043616C69627261743C
:10429000696F6E2E2E2E0000D4F4FF1FB80B0000A5
:1042A00043616C6962726174696F6E204F4B2100CB
:1042B000536176696E672E2E2E000000536176657D
:1042C000642121000EB50948009000206A469071D3
:1042D0000121117190721072507120235372D172AA
:1042E000D071684600F072FC0EBD000002CF0000E5
:1042F000FEB5584D00262C46403C3300FFF702F92E
:10430000050414243646560001200021800300F0E5
:1043100047FC61794A004F49E039511880310886DD
:104320006079401C607141E001200021C00200F072
:1043300037FC617E4A004749E0395118C031888016
:10434000607E401C607631E001200021C00300F057
:1043500027FC404920394A7B53000A46C03A9A1844
:10436000C0321083487B401C48731FE001200021AD
:10437000800200F015FC69784A003649E03951188E
:10438000C03188856878401C68700FE0FF200021EC
:10439000013000F005FC697D4A002E49E0395118D2
:1043A000FF3101310880687D401C6875142031465A
:1043B00041432848E0380F183846A0304179042995
:1043C00001D30021417139463846A631B03004226C
:1043D00000F0AEFF8037398D788D0090081AFCF719
:1043E0009BFC0190F98C0098081AFCF795FC019948
:1043F000FCF780FB761CF6B2F862052E00D27CE753
:10440000144C603CE56A266C2946304601F06AFE91
:1044100007462946304601F065FF3946FCF76AFB3E
:104420000D4F394601F0CEFE25468035E863666DB6
:10443000A46E3146204601F055FE009031462046DC
:1044400001F050FF0099FCF755FB394601F0BAFE28
:104450002864FEBDB4F5FF1F0000C84208B5002067
:104460006946C87048702820087001208870684626
:1044700000F044FD0121282000F0C6FD0121282084
:1044800000F01CFE292069460870684600F036FDE1
:104490000121292000F0B8FD0121292000F00EFEA5
:1044A000342069460870684600F028FD0121342058
:1044B00000F0AAFD0121342000F000FE37206946FB
:1044C0000870684600F01AFD0121372000F09CFDBD
:1044D0000121372000F0F2FD08BD0000F0B585B0E5
:1044E0001546022803D90020C04305B0F0BD0C4E8C
:1044F000C400325D012A0FD06A4610700127577040
:104500000320107268460395019100F0EDFD3755C8
:10451000A01945600020E8E70120C043E5E700005E
:1045200014FCFF1F70B5062802D90020C04370BDDF
:104530001424094D60434419267B012E09D0616083
:10454000002666702B5401202073A1603046226142
:1045500070BD0120C04370BD9CFBFF1F002809D027
:10456000012800D102200449486000200870087822
:104570000128FCD17047000074F0FF1FF8B50D4E04
:104580000746756900240D480B490068FBF740FE9B
:104590007843B1690246B0698842FCD0884201D2B2
:1045A000091A01E02B1A59180C1901469442F2D34A
:1045B000F8BD000000E000E040420F0040F0FF1FA7
:1045C00070B5022802D90020C04370BD074DC40059
:1045D000295D002906D000F0E3FD0020285561196F
:1045E000486070BD0120C04370BD000014FCFF1F77
:1045F000014880687047000074F0FF1F70B500210B
:10460000154B0C4614224A43D01844608460447011
:104610009C54491C0461C9B204730629F2D30E48A4
:104620007D2188300480448084800C48C900006863
:10463000FBF7EEFD0A49401E88420BD80949486144
:1046400009480722C3691B021B0A4D042B43C3619F
:104650008C610A6170BD00009CFBFF1F40F0FF1FD2
:10466000FFFFFF0000E000E004ED00E041680029EA
:1046700010D04168491E41600CD101214170017880
:10468000012903D18168416000214170006900283F
:1046900000D00047704700001FB500F051F8E1203E
:1046A00040020090012003900C20694648810020C0
:1046B0000881C880094C8880204600F0A9FD084880
:1046C0000168C87820221043C8700649D0010860EC
:1046D0000121204600F080FD1FBD000000A0064023
:1046E00074F9FF1F00E100E0012801D000207047AD
:1046F0000048704774F9FF1F01680A79120701D555
:104700000A79CA790A790A79120612D5828A002AA8
:1047100010D0438A4268D25CCA71418A491C89B26E
:1047200041828289914201D300214182818A491EBE
:1047300081827047C8784006400EC87070470000FC
:104740000B480A4901600B498160014628314160EC
:10475000FF210131C1818181002141830183C18217
:10476000818241824162C1610162704700A00640BE
:1047700074F9FF1F9CFAFF1FF8B50023FFF7B4FF81
:10478000002820D0002517E08489878A6E4637806C
:104790003688B442F9D9CC5C078A4668F455048A55
:1047A000641CA4B204828689B44200D30582848A40
:1047B000641C84825B1C9BB29342E5D30068C17881
:1047C00080221143C170F8BD10B500F007F800F069
:1047D00065F900F085F800F059F810BD10B5104CDF
:1047E000607800281AD0132814D008DC02280BD0D7
:1047F00010280CD011280DD012280DD10AE0142851
:1048000008D0152808D105E000F0F2F804E000F027
:10481000BBF8102000F01EF90020607010BD0000F1
:1048200080F0FF1F70B588B00E4604461546202163
:104830006846FBF7EBFC1B2D02D9002008B070BDC9
:10484000AA206946087048708E70CD7000216846B5
:10485000431908E0625C461832711A79465C921975
:10486000491C1A71C9B2A942F4D32C462A1D05E08D
:104870001979065D8919641C1971E4B29442F7D361
:1048800001466A1D0120FFF777FFD6E700B589B022
:1048900020216846FBF7BAFC10486A46018C0B12CF
:1048A00013705170418C0B129370D170818C0B126C
:1048B00013715171C18C0B129371D171018D0B1257
:1048C00013725172408D01129172D0721222022124
:1048D0006846FFF7A7FF09B000BD0000D4F5FF1F31
:1048E00000B589B020216846FBF790FC23486A4652
:1048F00041890B121370517081890B129370D17022
:1049000001690B0E13710B1453710B129371D1715A
:1049100041690B0E13720B1453720B129372D17206
:10492000806C174901F04EFCFCF794F90104090E64
:104930006A46117350731348C06CFCF78BF900047E
:10494000000E6A4690730F48C06CFCF783F96A4604
:10495000D0730C48406DFCF77DF90004000E6A46E8
:1049600010740848406DFCF775F96A4650741222BD
:10497000F1216846FFF756FF09B000BDD4F5FF1FCF
:104980000000C842D4F4FF1F70B51648417902797F
:104990000802104340BA00B2FCF7BEF9124D294696
:1049A000FCF7A8F8114C20600E48C1798279080202
:1049B000104340BA00B2FCF7AFF92946FCF79AF869
:1049C00060600848417A027A0802104340BA00B297
:1049D000FCF7A2F92946FCF78DF8A06001F022FA55
:1049E00070BD0000880000200000C842D4F4FF1F02
:1049F00030B585B014216846FBF708FC134C144D04
:104A00002068294601F0DEFBFCF724F90212694612
:104A10008A71C8712946606801F0D4FBFCF71AF965
:104A2000021269460A7248722946A06801F0CAFB60
:104A3000FCF710F9021269468A72C872122210211C
:104A40006846FFF7EFFE05B030BD0000D4F4FF1F4D
:104A50000000C8421CB5002100910191AA216A46BC
:104A600011705170EF2191700721D17010710A48B7
:104A7000C178001D085C5071002069460B5C8A7982
:104A8000401CD218C0B28A710728F7D30722012030
:104A9000FFF772FE1CBD00008800002030B589B011
:104AA00020216846FBF7B2FB1C486A46C18C0446CD
:104AB0000B0A137051704034E18925460B0A93703C
:104AC000D170618C40350B0A13715171408F010A0E
:104AD0009171D071E86BFCF7BDF80104090E6A46CC
:104AE00011725072286CFCF7B5F80104090E6A4681
:104AF0009172D072686CFCF7ADF80104090E6A4639
:104B000011735073E08E010A9173D0731022F22159
:104B10006846FFF787FE09B030BD000054F5FF1F5F
:104B200010B5FDF729FEFDF7B5FFFDF751FF10BDEC
:104B300010B5FEF7E7FE194C0028607007D020780A
:104B4000002804D1022001F08FF900206070207845
:104B50000300FEF7D7FC0A09200C060F1215181BDC
:104B60001E20FDF7D9FF16E000F0C0FE13E0FDF7B0
:104B700039FE10E0FEF728FB0DE0FEF7A7FA0AE089
:104B8000FCF7E8FD07E0FCF769FD04E0FCF778FCC2
:104B900001E0FEF70BFCFDF765FC10BD1CF4FF1FE8
:104BA00000210246CA40D20703D1491C89B210290C
:104BB000F7D3C9060448C90E016001680906FCD58F
:104BC00000690005000D704700B00340F8B50546C8
:104BD000002069460880064604460746012148072A
:104BE00000F0EEFA3B4B9869694608800888002877
:104BF00002D00888C043088068462988008801439D
:104C0000684601800088C143684601809969008830
:104C100001409961A879697A40000143A87A084364
:104C200098605868E97A08435860287A012800D1CA
:104C3000202669794020012903D10643264A4102F2
:104C40001160E979002902D0D9680143D960286848
:104C5000D9682A79521ED2B21143D9601F4902463F
:104C6000E240D207D20F11D0E206D20E194B3243E6
:104C70001A601B4B01221B78A2409C469B00CA5025
:104C800063465B1C164A7F1C1370FFB22A79BA4236
:104C900003D9641CE4B2102CE1D3C2030BD510225B
:104CA0000C4B32431A600E4B01241A7824049500F1
:104CB0004C51521C1A7080030BD516200643054830
:104CC0000660074A012310785B0484000B51401CE6
:104CD0001070F8BD00B0034000E100E05CF6FF1F7B
:104CE00054F0FF1F410210B50748002242700A230A
:104CF00043720B0C037201234370090A4172027262
:104D000000F020F8002010BD0000024010B5012185
:104D1000080300F055FA084C60790006FCD50848F5
:104D200006490068FBF774FA401E8006800E40308A
:104D3000E0703020607110BD0000024040420F0062
:104D400044F0FF1F10B572B63020074C6071074960
:104D5000481F0160601D884762B6607933210840B2
:104D600000D0012010BD00000000024061F0FF1FD4
:104D7000F8B50026400217460C46C5181CE010483E
:104D80000021417006214172290C017201214170FC
:104D9000290A4172057202214170217801726178FD
:104DA000417203214170A1780172E1784172241DA2
:104DB0002D1DFFF7C7FF361DBE42E0D30020F8BD12
:104DC00000000240F1B582B00298002400888206FB
:104DD000930F8205120F0092010702058504090F47
:104DE000920FAD0FC00B8446334847696E1D0120FA
:104DF000B040314E074377616046002815D007D098
:104E000030698B409843306130698A40104330618B
:104E10002A480668029801797D20C00041430F4668
:104E2000300CFBF7F5F901460BE0234EF0688B40A0
:104E30009843F060F0688A401043F060E8E7641C33
:104E4000E4B20846E040FAD1072C33D83046394660
:104E5000E040FBF7DDF986B2194968000E5202986E
:104E6000711CC08848437D21C900FBF7DBF980B283
:104E70008646144AA80011588E6000991358C9003C
:104E80008C460C315E580427BE435E5016582823CA
:104E900073506107490F1358083119600021022D22
:104EA00001D19368D9641558634674461033EC50A9
:104EB00010584160FEBD00000080044044F0FF1F18
:104EC00056F0FF1FC063000070B58205150F800407
:104ED000840F084A6000105A401C48437D21C900D5
:104EE000FBF7A0F9044AA1005258E90080B2103142
:104EF000505070BD56F0FF1FC0630000F0B5017840
:104F00003E4BCD064A09ED0E92009C58A669012140
:104F1000A9400E43A6619C5865698D43656144783C
:104F2000002C02D0012C05D00EE09C58A5698D43C1
:104F3000A56109E09C58A6690D463543A5619C58BA
:104F400066690D463543656185782D4E2D4C012DE2
:104F500015D12B4F9D58403FBD4203D1A5680D434D
:104F6000A5600CE0B54203D1E5680D43E56006E0BD
:104F7000234F4037BD4202D125690D432561C178D9
:104F800001293AD19958B1420BD10278382A04D07C
:104F9000392A06D16269802301E0626940231A43FD
:104FA0006261B1420BD10278202A04D0212A06D1B5
:104FB0006269202301E0626910231A436261104B89
:104FC000403B99420BD10278182A04D0192A06D105
:104FD0006269082501E0626904252A4362619942F9
:104FE0000BD100780C2804D00D2806D1606902216D
:104FF00001E06069012108436061F0BDB463000015
:1050000040F00F4000900440F0B51C4D1B4E43098A
:105010001B4F9B00184A194C4035403EFB58002955
:1050200015D0C106C90E01208840B34203D1916852
:1050300001439160F0BDA34203D1D1680143D16027
:10504000F0BDAB42FCD1116901431161F0BD0121FA
:105050008140B34203D1906888439060F0BDA34281
:1050600003D1D0688843D060F0BDAB42FCD1106959
:1050700088431061F0BD00000090044040F00F40F4
:10508000B4630000C2064109D20E880003490858E3
:105090000069D040C007C00F70470000B463000033
:1050A000C1064209C90E044892008058C268012313
:1050B0008B401A43C2607047B4630000420910B5C8
:1050C0009300C006074C0122C00E8240E058002920
:1050D00003D041681143416010BD81681143816074
:1050E00010BD0000B463000070B504460121022029
:1050F00000F066F8254801680225A94301602448AC
:105100007D21C9000068FBF783F86168414320787E
:105110000201204812181160217809010918CB6892
:1051200001221343CB602178090109188B6893434E
:105130008B602178090109188B68AB438B6021785B
:10514000090109188B6813438B606178012916D116
:1051500021780901081881682943816021780E4A65
:105160008900E068505020780C49002808D00128B8
:1051700005D1C0050860217A1720FDF707FC70BD36
:10518000012080050860217A1620F6E700700340B0
:1051900044F0FF1F007103404CF0FF1F00E100E0EE
:1051A000012809D8010105480818C16801221143E6
:1051B000C1608168914381607047000000710340C5
:1051C000044A0029516901D0014300E08143516143
:1051D00070470000008004400A4A10B5904202D196
:1051E0000120000504E0084A904204D10120400556
:1051F000FFF7E6FF10BD054A9042FBD10120800574
:10520000F6E7000000A0064000B0064000C00640DF
:10521000F8B5044623480D46844202D10121080511
:105220000AE02148844202D10121480504E01F48D8
:10523000844203D101218805FFF7C2FF297B204664
:1052400000F03AF8E078F3210840E070A078297A7D
:105250000843A070A07829790843A070A078A979A4
:105260000843A070124800680090296806094808A1
:105270003018FAF7CDFF81B20E48814200D90146BD
:1052800020784009400120702078CA04D20E1043D3
:1052900020706170E078AA7A1043E0703046FAF727
:1052A000B7FFF8BD00A0064000B0064000C00640B1
:1052B00044F0FF1FFF1F000001290ED80E4B0F4ABC
:1052C00098420BD1D068CB011843D060012904D19A
:1052D0000B4881680C22114381607047094B98424A
:1052E00002D11069090304E0074B9842F5D1106917
:1052F000490308431061704700A006400080044045
:105300000090044000B0064000C0064010B5074CB5
:10531000054860602146603120698861002000F006
:10532000A3FD0120207010BDF802002060F3FF1FD4
:1053300070B50C4603460021084604E04D005D5B55
:105340002818491C89B29142F8D31146FAF760FF38
:10535000208070BDF7B500238AB004460093019306
:10536000D34E8C46079303930493059318461D462A
:105370000693CF4F8200543F00233946BB501C3167
:105380008B501C31401C8B50C0B2B3500728F0D357
:10539000A1680027604600F015FF0090E1680C98B6
:1053A00000F010FF019038460C214843C1494218D3
:1053B000936809585268009800F0A2F9BC49BA00F5
:1053C000543988504000000E05D0B948A9001C3857
:1053D0006D1C4750EDB27F1CFFB2072FE3D306E0F0
:1053E000B3490020AA001C396D1C8850EDB2072D6E
:1053F000F6D300252F4638460C214843AD494218C4
:10540000936809585268019800F07AF9A849BA00DF
:10541000383988504000000E03D0A8006D1C37506A
:10542000EDB27F1CFFB2072FE5D304E00020AA00F5
:105430006D1CB050EDB2072DF8D300270025B80041
:1054400001909B4801991C3846581C209A4970438A
:1054500041189748AA008058800002900858FBF72E
:105460005BFC00909249029838390958B000904E80
:10547000543E305800F0A6FE0990009900F0A2FEBC
:10548000039900F02FFE03900799099800F02AFE77
:105490006D1CEDB20790072DD3D37F1CFFB2072FF1
:1054A000CCD34000854D000E03D007990398FBF73D
:1054B00021FB0490E069049900F084FE04902169C6
:1054C00000F0D8FE206906D36840049900F0D2FEAF
:1054D00002D2206968400490A06A049900F002FE9C
:1054E000A0627649606B4840A16A00F0C3FE03D217
:1054F0007249606B4840A062616BA06A00F0BAFE1E
:1055000001D2606BA062002007900746039000253F
:10551000B8000190664801991C38465866491C201D
:105520007043C43141186248AA008058800002903C
:105530000858FBF7F1FB00905D490298383909588B
:10554000B0005B4E543E305800F03CFE069000998F
:1055500000F038FE039900F0C5FD03900799069806
:1055600000F0C0FD6D1CEDB20790072DD2D37F1C5B
:10557000FFB2072FCBD34000000E03D0079903984A
:10558000FBF7B8FA0590206A059900F01BFE05901C
:10559000616900F06FFE606907D3484D0599684066
:1055A00000F068FE02D2606968400590E06A0599E3
:1055B00000F098FDE0624149A06B4840E16A00F0CC
:1055C00059FE03D23D49A06B4840E062A16BE06AFE
:1055D00000F050FE01D2A06BE06200200790074669
:1055E00003900025B8000290314802991C384658B3
:1055F00030491C207043C43941182D48AA008058F6
:10560000800000900858FBF787FB0190284900981C
:10561000383909582648B2005438805800F0D2FD75
:105620000646019900F0CEFD039900F05BFD039062
:105630003046079900F056FD6D1CEDB20790072D1E
:10564000D2D37F1CFFB2072FCBD34000000E03D074
:1056500007990398FBF74EFA0690606A069900F0E6
:10566000B1FD0690A16900F005FEA06907D3134DB6
:105670000699684000F0FEFD02D2A06968400690DD
:10568000206B069900F02EFD20630C4DE06B216B22
:10569000684000F0EFFD02D2E06B68402063E16BF0
:1056A000206B00F0E7FD01D2E06B20630DB0F0BD90
:1056B000DC020020D0F2FF1F84F0FF1F00000080FA
:1056C00070B50E4D044601682846FBF713FAA0603A
:1056D00028466168FBF70EFAE06029462069FBF76F
:1056E00009FAE06129466069FBF704FA206229465D
:1056F000A069FBF7FFF9606270BD00000000404048
:10570000FFB581B01D4617460E460024019800F0F3
:10571000B1FD0ED83946019800F02AFD09D831466E
:10572000384600F0DFFD04463146019800F0DAFD0E
:1057300012E03946019800F09DFD11D229460198EA
:1057400000F016FD0CD83946284600F0CBFD044683
:105750002946019800F0BAFD2146FBF7CBF9044633
:10576000204605B0F0BD10B5FAF710FD06214843FC
:1057700080B210BD0021427806E01C234B431B1869
:105780009B78012B02D0491C8A42F6DCC8B27047D4
:1057900010B5FAF7FBFC0621484380B210BD10B5E6
:1057A000FAF7F4FC0621484380B210BD10B5FBF7B0
:1057B0001BFC092000F058FB01490120087010BDB6
:1057C00060F3FF1F0A4A90698169002908D051607F
:1057D000C06811466031801C8861012010707047DC
:1057E00001690029FBD040690028F8D10847000072
:1057F00060F3FF1F10B5032000F036FB01490120C4
:10580000087010BD60F3FF1F10B5FBF7EDFB07201C
:1058100000F02AFB01490120087010BD60F3FF1F52
:1058200010B5FBF7E1FB062000F01EFB014901204B
:10583000087010BD60F3FF1F10B5FBF7D5FB052006
:1058400000F012FB01490120087010BD60F3FF1F3A
:1058500010B5FBF7C9FB042000F006FB014901204D
:10586000087010BD60F3FF1F10B5082000F0FCFAAF
:1058700001490120087010BD60F3FF1FFDF751FEC4
:10588000FBF7EAFCFFF74CF91C20FFF7FBFB0028B5
:1058900001D1FEF7E5FB0123104A33210020FEF77A
:1058A00041FE01230E4A15211846FEF73BFE7D21DD
:1058B00001230C4AC9000320FEF734FE0A4A0521E1
:1058C0000020FEF70BFEFBF785FB002000F0CCFA72
:1058D000FFF72EF96420FEF741FEF9E7C947000003
:1058E0004539000059110000B9300000FEB51620FE
:1058F000002100901823344A084600F08AF9182045
:1059000000900C2331A21E211A2000F0D9F906259F
:105910000C24304E0095019432880223294622201F
:1059200000F03AF9012706233A2219462E20019762
:10593000009400F0D1F800950194728802230621AA
:10594000342000F029F906233A2219464020019715
:10595000009400F0C1F800950194B288022306215A
:10596000462000F019F91C481C49406D00F0BAFCB3
:105970001B49FBF7BFF81B4900F024FCFBF790F92B
:10598000C0B2194E00277070632801D36320707075
:10599000C0B20C2148436321FAF73AFC1421484372
:1059A00012490A234218102000900421642000F0BC
:1059B00030F9009501940323727807216E2000F0DE
:1059C000EBF83770FEBD00008E89000056656374E9
:1059D0006F72000024FCFF1FD4F5FF1F9A99D94075
:1059E0009899993F0000C8421EF4FF1FD689000015
:1059F0000346012000E058430A46491EC9B2002A66
:105A0000F9D1704710B50021084C0A460020C300A8
:105A10001B195A54401CC0B28028F8D3491CC9B283
:105A20000829F3D300F034F810BD00006CFCFF1F10
:105A300010B57F2814D83F2912D8CB080724E31AC1
:105A40002140641A0121A140064CC0000019DBB2BC
:105A5000002AC25CC9B201D00A4300E08A43C254A2
:105A600010BD00006CFCFF1F3F22511AC9B2CA08CA
:105A70004907490F01238B40D9B2044BC000C0181D
:105A8000805C084000D00120704700006CFCFF1FC4
:105A900070B5104E00252846B030C0B2002100F08D
:105AA0003DF90021084600F039F90021102000F0EE
:105AB00035F90024E0008019405D012100F02EF945
:105AC000641CE4B2802CF5D36D1CEDB2082DE2D33A
:105AD00070BD00006CFCFF1FFFB583B00C9F0E462D
