:020000040000FA
:10000000800600204B01000057010000590100004C
:1000100000000000000000000000000000000000E0
:100020000000000000000000000000005B01000074
:1000300000000000000000005D01000049310000E8
:100040006101000061010000610100006101000028
:100050006101000061010000610100006101000018
:100060006101000061010000610100006101000008
:10007000DD3200008533000087330000190F0000D7
:1000800061010000610100006101000061010000E8
:1000900061010000610100007D290000A529000028
:1000A000B52500000126000061010000610100008B
:1000B00061010000610100006101000061010000B8
:1000C00000F002F800F030F80CA030C8083824180E
:1000D0002D18A246671EAB4654465D46AC4201D180
:1000E00000F022F87E460F3E0FCCB6460126334282
:1000F00000D0FB1AA246AB4633431847E08A000003
:10010000008B00000023002400250026103A01D3B4
:1001100078C1FBD8520700D330C100D50B607047BF
:100120001FB51FBD10B510BD00F074FE1146FFF7DE
:10013000F7FF05F00BFB00F08CFE03B4FFF7F2FFB6
:1001400003BC03F02EF900007047094880470948B6
:10015000804709480047FEE7FEE7FEE7FEE7FEE7C7
:10016000FEE7000005480649044A064B70470000B8
:10017000D931000049010000C100000080050020C5
:1001800080060020800500207047000030B5441C28
:1001900003E00178401C00290DD08107F9D10B4BF9
:1001A000DD0104C8D11A91432940FAD0001B0A0688
:1001B00003D0C01E30BD001B30BD0A0401D0801E1C
:1001C00030BD0902FCD0401E30BD0000010101011C
:1001D00001E004C0091F0429FBD28B0701D502806E
:1001E000801CC90700D00270704700290BD0C307DC
:1001F00002D00270401C491E022904D3830702D595
:100200000280801C891EE3E70022EEE70022DFE780
:10021000002203098B422CD3030A8B4211D3002303
:100220009C464EE003460B433CD4002243088B42DD
:1002300031D303098B421CD3030A8B4201D394466A
:100240003FE0C3098B4201D3CB01C01A524183095D
:100250008B4201D38B01C01A524143098B4201D317
:100260004B01C01A524103098B4201D30B01C01A42
:100270005241C3088B4201D3CB00C01A52418308BC
:100280008B4201D38B00C01A524143088B4201D3E9
:100290004B00C01A5241411A00D201465241104649
:1002A00070475DE0CA0F00D04942031000D34042BE
:1002B000534000229C4603098B422DD3030A8B42F4
:1002C00012D3FC22890112BA030A8B420CD3890192
:1002D00092118B4208D3890192118B4204D3890178
:1002E0003AD0921100E08909C3098B4201D3CB01B6
:1002F000C01A524183098B4201D38B01C01A52416B
:1003000043098B4201D34B01C01A524103098B426E
:1003100001D30B01C01A5241C3088B4201D3CB0059
:10032000C01A524183088B4201D38B00C01A52413C
:10033000D9D243088B4201D34B00C01A5241411A13
:1003400000D20146634652415B10104601D3404241
:10035000002B00D54942704763465B1000D34042F2
:1003600001B50020C046C04602BD704770477047C7
:100370000246C80FC00781434B0030B54B405B00BD
:100380009B0D20D01923DB06C91801231B059942B8
:1003900020DB0324A40704251346AB400BD3002B1A
:1003A00004D1EB0613409B00E34204D4012464070C
:1003B000002312195941FF231B0599420BD2C90092
:1003C0000143500F09E0CB0204D501430803024367
:1003D00005D0054830BDFF21C905084330BD08469A
:1003E00007210905884330BD0000C07F7047000029
:1003F00010B5024800F035FD10BD00000000C07FC0
:10040000FFFFFFFFFFFFFFFFFFFFFFFFFFFFFEFEFE
:10041000F0B5F94D0C091E092C402E402F468BB02B
:10042000A7437DD0B543FCD0002E7AD0002CFCD061
:100430000D465D40ED0F2543AC1BFF25AD0464194F
:100440000894C502440DC9022143500DDC02044347
:100450000120C00701430443D2020191200C110C7A
:1004600000958C46010423468B430A91614609049A
:10047000E24D8A430991010A7D444919803909787E
:1004800005464D4301266D18F605751B6943C90CD9
:10049000640B891C4C436418B5012C1B250C2E04DD
:1004A000B4434C434D43210C691889090591009DC3
:1004B000E90701D00121C90704912C460199670879
:1004C000CD072F434C08059DE10B4D432D0C2946CC
:1004D0006646754302950D4645432E46029D7D1B9B
:1004E000B44100950D465D4301942C0C2F040D463C
:1004F0005543AE462D0C3D43029503947546049C2E
:100500002D04641B049406D2029C039D641C0026E7
:1005100075410395029401AC70CC009F7D1B01E0F6
:100520003EE162E1B4410904009507910194059907
:10053000A4086143090C0C464443650BE7040C46D0
:1005400066467443A646640B3C4303950294744686
:10055000049DE4042C1B049406D2029C039D641C9D
:10056000002675410395029401AC70CC009F7D1B61
:10057000B44101940C465C430095650FE7000C46BE
:100580005443A646640F3C43039502947446049D6D
:10059000E4002C1B049406D2029C039D641C0026DC
:1005A00075410395029401AC70CC009F7D1BB44152
:1005B000AE09AF06049DC900AD092F43049DA406F2
:1005C000AD060495079D344369180791059DE10B1D
:1005D0004D432D0C29466646754302950D4645430D
:1005E0002E46029D7D1BB44100950D465D4301944E
:1005F0002C0C2F040D465543AE462D0C3D43029561
:1006000003947546049C2D04641B049406D2029C3A
:10061000039D641C002675410395029401AC70CCC7
:10062000009F7D1BB44101948C050694079C890AA8
:10063000611800950791019C0599A4086143090C74
:100640000D464543680BEF040D46644665436C0B4D
:100650003C43049FED047D1BAC4602D20025641C84
:100660006841009E019D371B85410846584301950E
:100670000C46460FC5005443600F28436546E4000E
:100680002C1B02D20025401C6E41019D3F1AB54132
:100690002846BD09800628438446A009BF064E02AD
:1006A0000699A40676180743079D002068410A9919
:1006B000079019430020099B00906046FF191343DF
:1006C0004041E20F64003A43A4460446D71A8C41E5
:1006D000A04203D90120009020463A46C70F941843
:1006E00040416246D20F2243644664000494009C59
:1006F000BE466400D71AA446044602978C4177464A
:10070000002F01D1A04204D96046401C8446029AC1
:100710002046C40FA64694184041049A0546D20FBD
:10072000224364466400D31A8D417146002901D1E9
:10073000A84202D928461A46641C10430122002808
:1007400000D0164361020020079B891904465C41D2
:100750000223002C02DB491813466441089DCE0A8F
:100760002D145D194B056705E10A2C050D19089933
:100770003E43C9076940002B08D0934006D30022AE
:10078000761C5141002B01D1760876001C4A002DC1
:1007900043DB154241D0AA433FD030460BB0F0BDF9
:1007A00006180D464D41174C7642AC411AD39518A8
:1007B0001C465C41134A6D42A24113D301225205EB
:1007C0004C00D4420AD15C00D4420BD04B4002D53D
:1007D00092021143E2E749004908DFE75940C90F97
:1007E000C90718E000200849D8E7054801420DD1A3
:1007F0000342F7D0F2E700000000FF075E8400002C
:100800000000F07F0000E0FF0000F87F1148594031
:100810000143C01241400020C0E70123089A9B0613
:100820009A4205DC032252078918C90FC907B5E7A8
:10083000052252078918074A1143D2125140ADE7E9
:1008400070B515461C4602460B4628462146FFF762
:10085000DFFD70BDFFFFFF7F1F22030C02D10F22BF
:10086000000402D0030E03D004E0002001467047CC
:100870000002083A030F01D10001121F830F01D1BA
:100880008000921E002801DB4000521E1205511804
:100890004205C012411810467047C10FC90700D069
:1008A0004042012292071143D6E701218907D3E78D
:1008B000F0B58B4C0F09254689B0BD437BD01D098F
:1008C0002646AE43FAD00E465E402740F60F3E4322
:1008D000254071D024012142FBD0FF24AD19A4048E
:1008E0002D1B039501252D05DB02DB0AC9022B43D5
:1008F000C90A29431E010901040F130F05012143F1
:100900001701880B820391432D098C46A90B1E43C6
:100910008A039543B30B9A0396433F09BA0B94039A
:10092000A74302962E467E430497B6464E19D71922
:100930000C460196544305977E43371B7646BF1BF2
:100940003601B646BE0B361900967646BC043719FA
:10095000009C01D3641C00946400002F01D0012688
:100960003443029E049F754366467E430496760098
:1009700034196E0034190094029C019E1C196643C0
:10098000751BAE46069465464519059C05956C4356
:10099000594375460891691A0191049E01465143D5
:1009A000A41B0491611A009C0791E10605D061091E
:1009B0000122114302E072E06EE06109089D002708
:1009C0002C0A2D066918049D7C412A0A2D066918F7
:1009D000019D6241AC0DAD026D185441079A910D15
:1009E000920255196141029A644658435443069B4A
:1009F000059A5A43121A131B9A0E9B015B187A41EF
:100A0000010B0005C3185141220A200644195A411E
:100A10009A4200D2491C01204002814203D315238F
:100A20000226F64302E014230326F6432020C51ACB
:100A3000A9401746AF40DA400A4320460399D84000
:100A40000914731819055118039A3843D2075140F5
:100A5000AC4009D00122944006D30022401C5141F1
:100A6000002C01D1400840001E4A934212D30122BB
:100A700003989206904207DB0520400709181A48A0
:100A80000143C012414004E0032040070818C10F91
:100A9000C907002009B0F0BD0020F107FAE70518EA
:100AA0000C464C4111486D42A04115D394181A468A
:100AB0005A410E48644290410ED301204A0040053D
:100AC000824209D35A00824206D35940C90F084ACC
:100AD000C90700201143DDE700200649DAE70000DE
:100AE0000000FF07FE070000FFFFFF7F0000E0FFA0
:100AF0000000F07F0000F87FF0B5FF252D04C60947
:100B0000C209FF2704462E400137CB093E43484027
:100B10002A402B400746002A6BD0002B69D0AA42FE
:100B200067D0AB4265D0002800DA32460125ED05DA
:100B300029432C4309022002090AD21A4B0C7F24B4
:100B4000E31A434C000A7C44E35C7D24240412191C
:100B500014145B00A218884201D3521C00E040002C
:100B600049420C465C4324115C43DB016415E318E5
:100B7000040A5C43C502200D0C4644436419250A4F
:100B80005D432303EC0C0D46654300030019EB188D
:100B90004C42A34201D35B18401CD4052018002B03
:100BA00007D05B00C91804D3401C002901D14008BC
:100BB00040003F2189048A4209D3002A08DC11063B
:100BC000090F04D0032149074018C00FC007F0BD2A
:100BD00001224100120689187F2252069142F6D264
:100BE00005214907C84201D59010F0BDFF20C0057E
:100BF000F0BD002F00DA32461648AA4207D2AB42B7
:100C000005D21902090E17D0F80FC007F0BDFF2555
:100C100063002D06AB42F9D84900A942F6D8AB4291
:100C200001D1A942F2D0A94201D1002101E0610025
:100C30004908D0050843F0BD1102090EFBD0FF2082
:100C40000243D005F0BD0A460146104654E70000B5
:100C5000107E00000000C07F10B501469E240002F7
:100C6000CA15A307002A02D01843002A04DBA21ADF
:100C7000002A0CDDD04010BD1206120E01D140003A
:100C80004008A21A03D4D04040420028F3DDFF22DE
:100C900048001206904201D9002010BDC817C04379
:100CA000584010BD0102C21504D00123DB071943CF
:100CB000002A0ADB9E239A1A02D40846D0407047C5
:100CC000FF2241001206914201D900207047C0174F
:100CD000C04370471F22030C02D10F2200041CD016
:100CE000030E01D10002083A030F01D10001121FC7
:100CF000830F01D18000921E002801DB4000521EAC
:100D0000D2055118021251181922904004D3491CDF
:100D1000002801D14908490008467047C10FC9079A
:100D200000D04042012292071143D3E701218907F5
:100D3000D0E7000010B5FF22C30D134009D05A4080
:100D400007D0914205DA5C42A14202DDC9050818CC
:100D500010BDC40FE407002B06D0002A06D00029DE
:100D600002DBFF20C0050443204610BD4102FCD039
:100D7000004810BD0000C07F10B5FF231B064400D3
:100D80009C421DD84C009C421AD80346124A0B4381
:100D900007D4401A02D3EFF3008010BDEFF30080B8
:100DA00010BD081A06D2EFF3008001219043C90755
:100DB000084302E0EFF30080904380F3008810BD09
:100DC0000D231B041A4204D01146002000F006F83F
:100DD00010BDFFF70DFB10BD00000090C80212D53A
:100DE0004803400F002804D0C803C04301218840B5
:100DF0007047EFF300800001000903210907084351
:100E000080F300887047002070470000004870475A
:100E1000200500207546FFF7F9FFAE46050069463C
:100E20005346C008C000854618B020B5FFF79AF9B0
:100E300060BC00274908B6460026C0C5C0C5C0C56D
:100E4000C0C5C0C5C0C5C0C5C0C5403D49008D4670
:100E5000704710B50446C046C0462046FFF76DF9FE
:100E600010BD10B50C461107090F092904D00A2935
:100E70000AD008290CD104E011460820FFF7AEFF84
:100E800006E0510606D501E0510601D50120C00754
:100E9000214610BDD10607D501010909CC08490733
:100EA000000E0006044309E0410F20024907000A32
:100EB0000143200E00061D22D14101430846E7E709
:100EC00070B58C180578401C6B075B0F01D1037857
:100ED000401C2A1106D10278401C03E00678401C11
:100EE0000E70491C5B1EF9D12B0705D40023521E3E
:100EF0000DD40B70491CFAE70378401CCB1A921CE6
:100F000003E01D780D70491C5B1C521EF9D5A142EF
:100F1000D8D3002070BD000030B5094A0020064C2F
:100F20000649137804E022694500401C4A53C0B2C8
:100F30009842F8D330BD000000B0034040F6FF1FD8
:100F400040F0FF1F70B51E4CE08A401CE0826088B4
:100F5000401C608000F012FBA089401CA08100F0C2
:100F6000CDF8E08A0025030002F00EFA06240407FB
:100F70001215202402F0C0FA70BD2088401C80B2F7
:100F800020800428F8D32580658000F075FA70BDB4
:100F900003F0FEF870BD6089401C00B2608101283A
:100FA000F8DB6581A58100F021F870BD00F0B8F88C
:100FB000E58270BDE582658125806580A58170BD73
:100FC00000F0FF1F10B50121024A084603F0E2F9C4
:100FD00010BD0000450F000010B50021252003F0D2
:100FE000D7FF012003F048FA10BD0000FEB53F4CCA
:100FF0003F4DA06E0190296A05F05CF80246009012
:101000002046E838019904F00FF9E01FF938016C27
:10101000384B1A029942016C00D35140866C9E42B3
:10102000866C00D3564031484038428B102A0BD290
:10103000C08D102808D26088102805D2E08A1028B8
:1010400002D2688A401C68820020074668620198C4
:1010500004F0A0FFFFF700FE00B2029031460098B6
:1010600004F098FFFFF7F8FD204906B240311A203E
:10107000085E2A30FFF752FE1F4904F08BFFFFF78E
:10108000EBFDE98900B22982FFF748FE0190029842
:10109000FFF744FE02903046FFF740FE0646A96A7D
:1010A0007F20C005009105F005F8314604F072FF7D
:1010B00006463946009804F06DFF314604F0FAFE0A
:1010C000029904F0F7FE019904F0F4FEFFF7C4FD65
:1010D000E8818121A06EC905884205DA7F21C90512
:1010E000C84201D20021E9812862FEBDB8F5FF1F88
:1010F00000F0FF1F00008080EC51B83D70B5074D37
:101100000C21E8892C8A695E001B00B2491C484307
:101110000521FFF787F80019288170BD00F0FF1F37
:1011200070B5154DEA882B89A98AD018401AD21AB1
:101130005118124B04229A5E00B2544209B223B2F3
:10114000824201DA104602E0844200DD18468A42FB
:1011500001DA114602E08C4200DD1946074A803A66
:10116000D087403211806A8A022A01D900210846BC
:1011700002F0C6FB70BD000000F0FF1F38F6FF1F35
:10118000F8B50026414D42482E60AE6068607F2071
:101190008002C168E96001692961406968613D4870
:1011A000EE6228633C48A8623C48E8613C48A8617C
:1011B0003C48374628643C48A8643C482F65E864AE
:1011C0003B4868652846183004F0E2F9394828673A
:1011D0003948E8663148A8663848E865A8652C466D
:1011E000374880342060374860603248A060286803
:1011F000E06068682061A86860612046283804F0D3
:10120000C7F92C4820632C48E0622448A0622B4890
:10121000E061A0612A4820642A4860642548A064EF
:101220002868E06468682065A86860652046183012
:1012300004F0AEF9214680318F66FD235B02CF6654
:101240001420704342191046C030878407764776D1
:10125000478380321766F200D21814888483761C84
:101260009288F6B2C283052EEAD30A2088871648F0
:10127000CF870780478087808F640748CF6488675F
:101280001148124940308180F8BD0000B8F4FF1FBA
:10129000B81E053E0000C841000020410000F0419A
:1012A0000000A0420000404100003443000018420A
:1012B0000000F0430000A041CDCC4C3E000048426D
:1012C0000000D041CDCCCC3DF8F5FF1FB6030000A7
:1012D00010B588B020216846FEF798FF174CA06F24
:1012E000FFF7E0FC020E69460A70020C4A70020A1F
:1012F0008A70C870E06FFFF7D5FC020E69460A716C
:10130000020C4A71020A8A71C87120468030006856
:10131000FFF7C8FC020E69460A72020C4A72020A02
:101320008A72C872FC2003F047FC00233022694611
:10133000FC2003F087FC08B010BD0000B8F5FF1FCB
:1013400008480749C16008494161084901607F2197
:10135000C9058160FF300649013081677047000090
:101360000000F041B8F4FF1F0000964300007543F1
:101370000000A04110B5022002F07EFA10BD00006E
:101380007CB5334C334DA089002815D1364932A0A5
:101390008861A86FA062084601F098F820462C30BA
:1013A00000F0F7FB2046443000F0F3FB20465C30B1
:1013B00000F0EFFB0120A0812C487F260078F60585
:1013C000012822D007282AD0042833D02048012120
:1013D0002C3000F02EFB1E480121443000F029FB88
:1013E00018250C2322A210210A20009504F0D6FB18
:1013F000A06AFFF757FC02460C2000900223102140
:101400000195582004F036FB7CBD114800212C309A
:1014100000F00FFB3146A06A04F04CFD08E00C48D8
:101420000021443000F005FB3146A06A04F042FE82
:10143000A062D5E7A06AA8670020A081FFF748FF57
:1014400003F0DCFA022004F011FCFFF7BBFDC7E754
:1014500004F4FF1FB8F5FF1F5365742054617267D1
:101460006574537070656400A4F3FF1F01F4FF1FDF
:1014700053706565643A0000F0B587B00025684692
:101480000580858002950395049505800A2003F068
:1014900063FD0028314C3248205E00D1404269464D
:1014A000088065808D80262003F056FD01282D4898
:1014B000205E00D140426A469080A5800020105EE8
:1014C0000421515E4018C10F08184010FFF7E5F9DC
:1014D0000022254BFFF7ECF90022244BFFF7E8F937
:1014E0000022234BFEF794FFFEF742FF1B494039D1
:1014F00048678A6F0146104604F0DCFD1D4F1E4C04
:101500000295039704950590A06901210490FFF7C7
:1015100011FC059904F0C2FDE16904F0CBFC2946F9
:1015200004F038FD06463846059904F033FD0746B9
:101530000499059804F0BEFD294604F02BFD3946B8
:1015400004F0B8FC314604F0B5FCFFF785FBA08041
:101550000498E0610598A06107B0F0BDF8F5FF1FA1
:1015600002000000040000000000B93F00003D4000
:10157000000051408FC2F53D00F0FF1F0749C888A9
:101580008A88801800B2FF22F532C880904202DCBF
:101590005242904200DACA807047000000F0FF1FFC
:1015A0007CB5334C334D6089002815D1364932A0C3
:1015B000886168696062084600F088FF20462C3028
:1015C00000F0E7FA2046443000F0E3FA20465C30B1
:1015D00000F0DFFA012060812C482D4E00780128B0
:1015E00022D007282AD0042833D0214801212C30CA
:1015F00000F01FFA1E480121443000F01AFA1825A5
:101600000C2324A210211420009504F0C7FA606A6C
:10161000FFF748FB02460C2000900423102101959F
:101620003A2004F027FA7CBD114800212C3000F04C
:1016300000FA3146606A04F03DFC08E00C480021E5
:10164000443000F0F6F93146606A04F033FD606220
:10165000D5E7606A686104F0FBFA0020608103F05E
:10166000CDF9022004F002FBFFF7ACFCC7E7000055
:1016700004F4FF1FB8F4FF1F446972656374696F57
:101680006E204B6400000000A4F3FF1F01F4FF1F55
:101690000000A0404B643A007CB5354C354DE088E5
:1016A000002815D1384934A08861E868E06108460F
:1016B00000F00CFF20462C3000F06BFA204644303E
:1016C00000F067FA20465C3000F063FA0120E08009
:1016D0002E483F2600783606012825D007282DD031
:1016E000042836D0224801212C3000F0A2F92048ED
:1016F0000121443000F09DF918250C2324A210216B
:101700001420009504F04AFA2249E06904F042FCF2
:10171000FFF7C8FA02460C2000900423102101951F
:101720003A2004F0A7F97CBD114800212C3000F0CC
:1017300080F93146E06904F0BDFB08E00C48002167
:10174000443000F076F93146E06904F0B3FCE06122
:10175000D2E7E069E86004F07BFA0020E08003F063
:101760004DF9022004F082FAFFF72CFCC4E70000D8
:1017700004F4FF1FB8F4FF1F446972656374696F56
:101780006E204B7000000000A4F3FF1F01F4FF1F48
:101790004B703A0000002041F8B5244C05462078F3
:1017A000002841D0284603F04DFF60610021A06170
:1017B0006956814201DD002028701C482978007D8F
:1017C0001A4C401AC6B2583468782169884200D849
:1017D000002616486661583000F078FE13487430D1
:1017E00086616978016100F0E3FD20696978C7B21C
:1017F000814200D20F4600240AE030191C214843E0
:1018000042192001011B1E20133100F04DFC641C05
:10181000BC42F2DB05491C22886950434019012271
:101820000861827000200870F8BD00004CF3FF1FB3
:10183000F8B5002A7ED0540054438718012B41D0BC
:10184000861A022B7BD0032B76D0042B72D115463F
:10185000002600910098069AC1B2B8B200F000FDCF
:101860000098761C401E00906800024671006A4392
:1018700071435118091B081A401C002801DD6D1E18
:101880007F1EAE42E6DB0098069AC1B2B8B200F005
:10189000E7FC2846410070006D1E891E0246694320
:1018A00072438918091B0818401C7F1E002803DC9E
:1018B0000098401E761C0090002DE4DC0098C1B218
:1018C000B8B276E000970D46164600270098E9B2B8
:1018D00080B2069A00F0C4FC70007F1C01467A00BA
:1018E00071437A438918091B081A401C6D1C002893
:1018F00003DD0098401E761E0090B742E6DB00989C
:10190000E9B280B2069A00F0ABFC00993046491E5D
:10191000009141007800761E891E024671437A4389
:101920008918091B0818401C002801DC6D1C7F1C4D
:10193000002E02E040E002E03FE0E0DC75E015460A
:10194000002700910098069AC1B2B0B200F088FC5E
:1019500000987F1C401C00906800024679006A4392
:1019600079435118091B081A401C002801DD6D1E1F
:10197000761CAF42E6DB0098069AC1B2B0B200F026
:101980006FFC2846410078006D1E891E024669439F
:101990007A438918091B0818401C761C002803DCB0
:1019A0000098401C7F1C0090002DE4DC0098C1B220
:1019B000B0B2069A00F054FCF8BD00960D461646EB
:1019C00000270098E9B280B2069A00F049FC700046
:1019D0007F1C02467900724379435118091B081A8B
:1019E000401C6D1E002803DD0098401C761E0090F0
:1019F000B742E6DB0098E9B280B2069A00F030FC0C
:101A000000993046491C009141007800761E891EDD
:101A1000024671437A438918091B0818401C0028A4
:101A200001DC6D1E7F1C002EE4DC0098E9B280B260
:101A3000BFE77CB50446C0680D460E287DD3A0687C
:101A40001E287AD3206903F0F6FDA168884274D875
:101A500025750C2661682068002D11D00122801D9B
:101A6000891D00F02EF9206903F0E5FDA168081A30
:101A7000218840084018002180B2009601916CE056
:101A80000022801D891D00F01CF9012500952068A9
:101A9000616803230622801D891DFFF7C9FE00959A
:101AA000A168206842186168801D0B46D21F00F0B3
:101AB00094FA0095A1682068042340186168062202
:101AC000C01F891DFFF7B4FE0095E1686068A26839
:101AD000411820684B1E8218801D491ED21F00F03D
:101AE0007CFA0095E1686068A268411820680123CB
:101AF00080180622C01FC91FFFF79AFE0095616873
:101B0000E0680B182068891D0246DB1F00F065FAAB
:101B10000095E16860680223411820680622801D54
:101B2000C91FFFF785FE00956168E068A2680B1881
:101B300020688018421E401E00E018E0891DDB1F4F
:101B400000F04BFA206903F076FDA168081A21889D
:101B50004008401880B200960195E168A2880C39CF
:101B60004908511889B20C23226904F015F97CBD8B
:101B700010B503F0B5FE10BD38B51446C9B280B239
:101B80006A4600F0AAFB684601780120614088435C
:101B900038BD7CB50446C0680E287BD3A0681E28DB
:101BA00078D3206903F047FDA168884272D80125E7
:101BB00000952068616803230622801D891DFFF7B8
:101BC00037FE0095A168206842186168801D0B46A9
:101BD000D21F00F002FA0095A16820680423401883
:101BE00061680622C01F891DFFF722FE0095E1688B
:101BF0006068A268411820684B1E8218801D491E2B
:101C0000D21F00F0EAF90095E1686068A268411807
:101C10002068012380180622C01FC91FFFF708FE95
:101C200000956168E0680B182068891D0246DB1F7B
:101C300000F0D3F90095E16860680223411820683C
:101C40000622801DC91FFFF7F3FD00956168E0685B
:101C5000A2680B182068891D8018421E401EDB1FD9
:101C600000F0BBF9207D0C26002814D020686168A4
:101C70000122801D891D00F024F8206903F0DBFC9F
:101C8000A168081A218840084018002180B20096F7
:101C900001910BE014E0206903F0CDFCA168081A63
:101CA00021884008401880B200960195E168A2881A
:101CB0000C394908511889B20C23226904F06CF8D8
:101CC0007CBDF7B5D8B00C460546802874D2402CB0
:101CD00072D2E1B2A8B250AA00F0FFFA50A802787E
:101CE0005A98D107C007C90FC00F814264D021465E
:101CF0002846559400F0CCFA0646569050A8027833
:101D00002146284600F0F1FA5490801940082994A1
:101D10000194289001240090254601E0002D7BD0FD
:101D2000E90028A808188038816F5291C66F50A822
:101D30006D1E0278EDB23146529800F0A9FA539028
:101D400050A802783146529800F0CFFA519050A82E
:101D50000278761C31465298FFF70EFF002804D017
:101D600050A802783146529815E0539F08E050A8D9
:101D7000027831463846FFF7FFFE002803D17F1C6A
:101D800051988742F3D951988742C7D850A85297A3
:101D900002783146384600F0A8FA519050A80278EF
:101DA0003146529800F074FA5390142C1FD2471EFB
:101DB00058975990074617E07EE050A80278711EA8
:101DC0003846FFF7D9FE002827D0599958988842FD
:101DD00007D05891E00069460F504018641CE4B2E7
:101DE0004660142C03D27F1C51988742E5D9539941
:101DF00051985A9B4018400852905198F1B282B2C3
:101E0000539880B200F0D5F8142DA0D2539F599763
:101E10007F1E5897599F19E01FE05997E1E750A896
:101E20000278711C3846FFF7A7FE002813D0599995
:101E30005898884207D05891E80028A90F504018B8
:101E40006D1CEDB24660142D81D27F1C51988742E3
:101E500000D97CE7E3E75997F5E7002C20D0E100B3
:101E6000684608188038816F5291C66F50A8641E6A
:101E70000278E4B23146529800F00AFA539050A822
:101E800002783146529800F030FA074650A802789E
:101E9000761E31465298FFF76FFE00280ED020E0E4
:101EA000002D00D03AE754985A9B82B25598C1B29F
:101EB000569880B200F07DF85BB0F0BD539809E011
:101EC00050A8027831465198FFF756FE002804D1F9
:101ED0005198401C5190B842F2D95198B842BCD8A0
:101EE000529050A802783146529800F0FEF9074609
:101EF00050A802783146529800F0CAF95390142D38
:101F000020D25990401E5890599818E050A8027855
:101F1000711C5198FFF730FE002826D05999589827
:101F2000884208D05891E80028A9519A0A504018D0
:101F30006D1CEDB24660142D04D25198401C519096
:101F4000B842E3D95398BAB238184008529053981F
:101F5000F1B280B25A9B00F02CF8142C96D2539810
:101F60005990401E589059981BE051985990E2E7BB
:101F700050A80278711E5198FFF7FEFD002815D079
:101F800059995898884208D05891E0006946519A6A
:101F90000A504018641CE4B24660142CDED25198FA
:101FA000401C5190B84200D970E7E1E75198599030
:101FB000F3E7F8B515461E460F460446A84202D977
:101FC000D0B22546044632463946204600F048F94C
:101FD000641CA4B2A542F6D2F8BDFFB583B0054695
:101FE00005980C46411B06980027021BFF43002959
:101FF00002DD0120029002E0002904DA0297002AA3
:1020000009DD012711E0C2B2E1B2A8B20C9B00F0D9
:102010002CF907B0F0BD002A07DB0598E1B282B2C7
:10202000A8B20C9BFFF7C5FFF3E702984843394677
:102030005143420000924A00019288421CDB161A6A
:102040000098101A00900EE0E1B2A8B20C9A00F0CD
:1020500007F902982D18002E02DA0198361802E0CE
:1020600000988619E41905988542EDD1E1B2A8B22D
:102070000C9A00F0F5F8CCE70098461A801A019007
:102080000EE0E1B2A8B20C9A00F0EAF8E419002ED2
:1020900002DA0098361803E00198861902982D1884
:1020A00006988442EDD1E1E7FEB514460D4606469A
:1020B000802805D8402D03D8022D01D3122E01D23D
:1020C0000020FEBDE0680028FBD0A2783046102337
:1020D000A91E12380C27002A12D06268002A04D0E8
:1020E000C9B2C0B2009303F002FD00200190009736
:1020F000A9B2B0B20C23E26803F04EFE0120FEBD8F
:10210000A268002A05D00093C9B2C0B2102303F020
:10211000EEFC0120EAE7000010B5002902D0012101
:10212000002401E0002101240448FFF782FC034859
:1021300021461830FFF77DFC10BD000014F3FF1F8F
:10214000FEB58168044614293CD3E068142839D3CD
:1021500025686A18802A35D861680B18402B31D859
:1021600000272846521E5B1E009700F0F4F8012558
:1021700000956168E068A2680B1820685B1E8218F1
:10218000521E00F0CAF820882189304B4118491EA0
:102190008AB2217980B20E31C9B21B78FFF709FFEC
:1021A0000095A168206842186168521E0B460D33E5
:1021B00000F0D1F8206903F053FA0246A068811EAE
:1021C0008A4201D90020FEBD80B20C2601970096FC
:1021D0000290A0883346401C81B22088226980B2D8
:1021E00003F032FE1A480775A16901612168491D93
:1021F0000160E26861688918C268891A091F416034
:10220000FFF7C7FC124818300575E1690161A26843
:10221000216889188268891A891F0160E2686168EB
:102220008918C268891A091F4160FFF7B2FC00963D
:102230000195A0880C23113081B220886269801D2D
:1022400080B203F0A9FD0120FEBD000010F3FF1FC6
:1022500014F3FF1F0148007D7047000014F3FF1FB7
:1022600010B5C0B203F052FB10BDF8B515461E46BE
:1022700007460C46A94201D90D461446324621466E
:102280003846FFF7EDFF641CE4B2A542F6D2F8BD74
:10229000F8B5D507441EED0F0E46002C0ED0F1B256
:1022A000A0B26A4600F019F868460078C007C00F6F
:1022B000A84201D0601CF8BD641EF0D1F1B200202C
:1022C0006A4600F00AF868460078C007C00FA842C6
:1022D00001D00120F8BD0020F8BD10B51446C0B2F1
:1022E00003F030FB2070002010BDF8B5441CD5076A
:1022F0000E46ED0F0DE0F1B2A0B26A46FFF7EDFF1A
:1023000068460078C007C00FA84201D0601EF8BD23
:10231000641C802CEFD38020F8BDF8B51C46154610
:102320000E46074692B2C9B280B2069BFFF741FE45
:10233000AAB2E1B2B8B2069BFFF73BFEE2B2F1B23D
:10234000B8B2069BFFF791FFE2B2F1B2A8B2069BCA
:10235000FFF78BFFF8BDF8B517461E460C4605463D
:10236000B84201D915460746B44201D91C460E466B
:10237000B44206D1BAB2E1B2A8B2069BFFF719FE89
:10238000F8BDBD420DD1F2B2E1B2A8B2069BFFF793
:102390006CFFF8BDBAB2E1B2A8B2069BFFF709FE26
:1023A000641CB442F6D9F8BD10B503F0DFFA10BDD5
:1023B000F8B5040052D0A2680A2A4FD3E068142866
:1023C0004CD30125009561680B1820685B1E8218AC
:1023D000521EFFF7A2FF08260096208921780838B0
:1023E000400808182179C0B2491CC9B233461C4ABA
:1023F00003F07DFB00962079217B22784018093874
:10240000C1B220890823083840081018144AC0B205
:10241000083203F06CFB0095A168206842186168DF
:10242000521E09310B46FFF7D8FD0095E168606840
:10243000A268411820680A3982180B46521EFFF71D
:10244000CCFDE0686269216914388A4202D25043A7
:10245000FDF7DEFEE061204600F004F8F8BD000064
:10246000AA880000FEB504468189808B091A1439B8
:102470008EB22188491C8AB20192A188721E0A314B
:102480008DB28018218900220092C91E019A89B25A
:1024900080B257182B183A4629460198FFF75BFF80
:1024A00021696069814201D8002005E0A069491EC8
:1024B0007043FDF7ADFE80B2012100912918E26959
:1024C000019853183A46FFF746FFFEBDFEB58168F6
:1024D000044614293BD3E368142B38D320684218F0
:1024E000802A34D86168CB18402B30D80025521E82
:1024F0005B1E0095FFF72FFF012600966168E068DC
:10250000A2680B1820685B1E8218521EFFF705FF99
:1025100020882189174B4118491E8AB2217980B23F
:102520000E31C9B21B78FFF744FD0096A168206800
:1025300042186168521E0B460D33FFF70CFFA0696D
:1025400003F095F80246A068811E8A4201D9002056
:10255000FEBD80B20C21019500910290A0880C2351
:10256000401C81B22088A26980B203F06DFC01207A
:10257000FEBD000010F3FF1F10B5242002F0ECFC9C
:10258000012801D0012010BD002010BD10B51C2075
:1025900002F0E2FC012801D0012010BD002010BD96
:1025A00010B51B2002F0D8FC012801D0012010BD7D
:1025B000002010BDF8B50F4D0024A8680E4E00078E
:1025C00012D50E4F387884420ED2E96820460C228C
:1025D00050433258114204D080198068002800D03E
:1025E0008047641CE4B2EDE7A86824210843A86092
:1025F000F8BD000000900740D0F6FF1F5AF0FF1F03
:10260000F8B50F4D0024A8680E4E000712D50E4FE6
:10261000387884420ED2E96820460C225043325862
:10262000114204D080198068002800D08047641CC3
:10263000E4B2EDE7A86824210843A860F8BD0000D3
:1026400000A00740D0F6FF1F5AF0FF1F10B52C2046
:1026500002F082FC10BD10B501212D2002F098FC83
:1026600010BD10B500212D2002F092FC10BD10B558
:1026700001212C2002F08CFC10BD10B500212C2073
:1026800002F086FC10BD08B500206946C87048708D
:102690002C20087001208870684602F099FB08BD64
:1026A00008B500206A46D070012050702C211170AE
:1026B0009070684602F08CFB08BD0000F0B5002168
:1026C000104D114F114B0A4604261C204843401957
:1026D00046708C008270476082601C5902614261C2
:1026E000491CC9B2C46082610429EED30120A870DC
:1026F000074828610748E86202488C30686306484A
:102700006866F0BD0C030020BA88000084F3FF1F48
:10271000C5560000955600007D560000F8B5674E7E
:102720007068FFF739F8664900270878002800D05C
:10273000F760624C583401285BD0072854D13E23FF
:102740007522122101200097FFF705FEB0691C21B8
:1027500048437168401830618770B069401CB061AF
:1027600072685178491E814200DCB161B0691C2158
:102770004843801801213061817072681078401CD4
:1027800043B21370204651782469A14205D80D4602
:102790008B420EDB491E11700BE0E5B2641EA342B2
:1027A00007D914700269891A4269914201D9521CF1
:1027B0004261002410E041481C21583040694843E0
:1027C000716841181C2060430A182001011B1E205B
:1027D0001331FFF769FC641CAC42ECDB3748B1698C
:1027E00074308161FFF73EFE35480078042849D0F7
:1027F0004DE03E237522122101200097FFF7ABFD2B
:10280000B1691C2251437268881830618770B069C1
:10281000401EB061002800DCB761B0691C2148434C
:102820007168401801213061817071680878401E1C
:1028300042B20A704D78236920469D4203D8002A8F
:102840000ADA0F7008E0DDB2002A05DA0F7041697C
:10285000002901D0491E6161002410E017481C21A5
:10286000583040694843716841181C2060430A1879
:102870002001011B1E201331FFF716FC641CAC4223
:10288000ECDBABE730690069002800D08047F068D6
:10289000411CF16064280FDDF7603069416900294F
:1028A00008D0877070691C21484371684018012165
:1028B0003061817002F094FCF8BD00004CF3FF1F02
:1028C00001F4FF1F8307FF22DB0E9A408907090EE0
:1028D000994000280BDA0007000F083883080848E1
:1028E0009B001818C36993430B43C3617047830867
:1028F00004489B001818036893430B430360704718
:1029000000ED00E000E400E0F0B50021134B144CB2
:10291000144E0A4605251C204843C01882610261F6
:10292000446082608F00827045704261491CF75993
:10293000C9B2C7600529EED3012098700A48186112
:102940000A48D8620A4898640A4804495866034805
:102950008C398030816008490160F0BD240400207A
:10296000BA88000068F3FF1F2157000009570000D4
:10297000F1560000D95600009556000010B5074CDE
:10298000E068C00704D006480068002800D08047EF
:10299000E06801210843E06010BD000000710340C1
:1029A00038F0FF1F10B5074CE069C00704D0064897
:1029B0004068002800D08047E06901210843E061B9
:1029C00010BD00000071034038F0FF1FF0B500217A
:1029D000114C124B124E0A4603251C204843001985
:1029E00045708261026143608F0082608270426143
:1029F000491CF759C9B2C7600329EED30120064923
:102A0000A0708C31A161074820610749E162024949
:102A10008C392165A064F0BD98030020BA880000BD
:102A200098F3FF1F955600003957000010B5074C6A
:102A30006078002808D0201DFFF748FD2046203090
:102A4000FFF7B6FC0020607010BD000078F4FF1F97
:102A5000FEB5FFF7EBFFF44EF2490020F41D0856D7
:102A600001270C25F934C036002804D001287DD078
:102A700002287CD0A2E10623ECA20F2103200095BE
:102A800003F08CF8062000900195728B03230F2130
:102A90001B2002F0EFFF0623E6A20F214120009544
:102AA00003F07CF8062000900195F28D03230F219E
:102AB0005F2002F0DFFF0623E0A221210320009522
:102AC00003F06CF806200090019562880323212111
:102AD0001B2002F0CFFF0623DAA22121412000951E
:102AE00003F05CF8062000900195E28A032321217F
:102AF0005F2002F0BFFF0623D4A2322103200095FD
:102B000003F04CF8FF21C905A06E0E02C84213D392
:102B100006232D2232211B200197009502F04AFF47
:102B2000A06E7040FEF798F802B20620032332210F
:102B300000900195212008E0FEF78EF802B20620F1
:102B400000900423322101951B2002F093FF0623FD
:102B5000C0A232214120009503F020F8FF21E06E51
:102B6000C905C84216D306232D2201E01CE0ACE0C3
:102B700032215A200197009502F01CFFE06E704050
:102B8000FEF76AF802B20620032332210090019575
:102B9000602011E1FEF760F802B206200423322122
:102BA000009001955A2007E10C2000900623ABA26B
:102BB0000F21032002F0F2FF0C210620A94D019104
:102BC00000900222AA5E04230F211B2002F052FF74
:102BD0000C2000900623A4A20F21372002F0DEFF74
:102BE0000C210620019100900422AA5E04230F21EB
:102BF000552002F03FFF0C20009006239CA22121CB
:102C0000032002F0CBFF3E22A25E002A13DA0C2042
:102C1000009006232D22322101971B2002F0CAFECC
:102C200006200C21009001913E20205E03234242A9
:102C30003221212006E00C2106200191009004237E
:102C400021211B2002F016FF0C2406238AA2212139
:102C50003720009402F0A2FF0022AA5E002A11DAB7
:102C600006232D22322155200197009402F0A2FE66
:102C70000620009001940020285E03234242322166
:102C80005B2005E0062000900423212101945520BB
:102C900002F0F0FE06237AA232210320009402F013
:102CA0007DFF062500950194B28B032332211B2062
:102CB00002F0E0FE062372A232213720009402F0D7
:102CC0006DFF00950194B28B73E006236EA20F2175
:102CD0000320009502F062FF53486D49006803F03D
:102CE00059F9FDF7DFFF0246062604230F211B20BA
:102CF0000096019502F0BEFE062366A20F21372042
:102D0000009502F04BFF48486149406803F042F9E2
:102D1000FDF7C8FF024604230F21552000960195B8
:102D200002F0A8FE06235DA221210320009502F0F7
:102D300035FF3D48C068FDF7B5FF02460423212159
:102D40001B200096019502F095FE062355A2212135
:102D50003720009502F022FF33484069FDF7A2FFBB
:102D600002460423212155200096019502F082FE9F
:102D700006234EA232210320009502F00FFFE06FE0
:102D8000FDF790FF0246032332211B200096019598
:102D900002F070FE062346A232213720009502F091
:102DA000FDFE304840300068FDF77CFF024600968B
:102DB000019503233221552002F05CFE3D4819495C
:102DC0000078091D072809D001281CD0042804D147
:102DD000081F4770002002F049FFFEBD114A10781D
:102DE000401E40B210705770002801DA022013E034
:102DF00000201056002811D0012811D00228ECD153
:102E00002DA08861FEBD074A1078401C40B21070AA
:102E100057700228ECDD00201070E9E72AA0F0E7E7
:102E20002EA0EEE778F4FF1FB8F4FF1F48464C3A97
:102E3000000000004846523A0000000048424C3A68
:102E4000000000004842523A000000004841453A64
:102E5000000000005641453A000000004C5F453A32
:102E600000000000F8F5FF1F525F453A0000000027
:102E70004C5F503A00000000525F503A00000000E2
:102E80004E6F723A00000000534B503A00000000B1
:102E900000002041534B493A00000000444B503A97
:102EA00000000000444B443A000000004C543A003B
:102EB00052543A0001F4FF1F50494420506172619E
:102EC0006D657465727300004D6F746F7220506190
:102ED00072616D65746572730000000053656E73F6
:102EE0006F7220506172616D6574657273000000CD
:102EF000F0B50346084649008C465C5A15E0521E60
:102F0000904203DA5100595AA142F8D2510090423E
:102F100004DA5D5AA54201D8401CF8E7904204DA71
:102F200046009D5B5F5A9F535D529042E8DB410033
:102F30005D5A62469D525C52F0BD0000034A10B5D6
:102F4000911E881E00F066FE10BD000012F6FF1FE5
:102F50007CB5354C354D6088002815D1374934A0F3
:102F60008861686860610846FFF7B0FA20462C3037
:102F7000FEF70FFE20464430FEF70BFE20465C3085
:102F8000FEF707FE012060802D483F2600783606B8
:102F9000012825D007282DD0042836D02248012129
:102FA0002C30FEF746FD204801214430FEF741FD5C
:102FB00018250C2323A210211420009502F0EEFD09
:102FC0002149606902F0E6FFFDF76CFE02460C2025
:102FD00000900423102101953A2002F04BFD7CBDA6
:102FE000114800212C30FEF724FD3146606902F0C3
:102FF00061FF08E00C4800214430FEF71AFD31461D
:10300000606903F057F86061D2E76069686002F0B8
:103010001FFE0020608001F0F1FC022002F026FE7D
:10302000FDF7D0FFC4E7000004F4FF1FB8F4FF1F52
:103030005370656564204B6900000000A4F3FF1F16
:1030400001F4FF1F4B693A00000020417CB5354C6C
:10305000354D2088002815D1374934A0886128686B
:1030600020610846FFF732FA20462C30FEF791FD2A
:1030700020464430FEF78DFD20465C30FEF789FD8A
:10308000012020802D483F2600783606012825D0D3
:1030900007282DD0042836D0224801212C30FEF7F5
:1030A000C8FC204801214430FEF7C3FC18250C233E
:1030B00023A210211420009502F070FD21492069FF
:1030C00002F068FFFDF7EEFD02460C20009004239D
:1030D000102101953A2002F0CDFC7CBD1148002161
:1030E0002C30FEF7A6FC3146206902F0E3FE08E032
:1030F0000C4800214430FEF79CFC3146206902F068
:10310000D9FF2061D2E72069286002F0A1FD0020EC
:10311000208001F073FC022002F0A8FDFDF752FFB1
:10312000C4E7000004F4FF1FB8F4FF1F5370656587
:1031300064204B7000000000A4F3FF1F01F4FF1F88
:103140004B703A000000204110B500F001F810BDAE
:1031500070B51E4A00245068002805D05068401EF3
:10316000506001D1012010709068401C90609168FF
:1031700017480025814200D195607D21C9009068E3
:10318000FDF750F81348002902D18188491C81803D
:1031900081883B2903D985804188491C4180418829
:1031A0003B2903D945800188491C018001881729E2
:1031B00000D90580074D883D14206043401901F077
:1031C000ABF9641CE4B2062CF6D370BD60F0FF1FAF
:1031D000FFFFFF7F38FCFF1F10480F49818001214E
:1031E00041702321017011200D49000548620D48EE
:1031F000002141700C4A962111701A210170017949
:10320000C906FCD401790907890FFBD10749086871
:10321000400848608860704703E8000000200540CF
:103220000080044000400640005006402CF0FF1F84
:1032300070B5284C6078002805D1012060702046C8
:103240009430FEF77DFF244D2878072810D12148BF
:1032500000219430FEF760FF1E4800219430FEF7F5
:103260005BFFFFF7A1F81B2001F076FE0028FAD0E3
:103270002878012810D1174801219430FEF74CFF1F
:10328000144801219430FEF747FFFFF78DF8242002
:1032900001F062FE0028FAD02878042811D100201D
:1032A00060701C2001F058FE0028FAD009489430C4
:1032B000FEF7D0FF012805D001F0A0FB022002F0AC
:1032C000D5FC70BD01F09AFB022002F0CFFCFEF7A6
:1032D00037F870BD4CF3FF1F01F4FF1FF8B5254A06
:1032E00000201379014613799B063ED5D279224DF1
:1032F00000262B78214C002B14D0012B17D0022B49
:103300001DD0032B1ED0E7787F1D9F4202D9E254C7
:103310005B1C2B70E3782F785A1DBA4225D12E7092
:103320001A1D17E0AA2AF5D12270012205E0AF2A62
:1033300001D02E70EEE7627002222A70EAE7A270D6
:103340000322FAE7E2700422F7E7275C7918401CB1
:10335000C9B2C0B28242F8D80848001D185C884241
:1033600001D06E7001E0A0786870054801F022F984
:10337000F8BD000000A006406DF0FF1F9C0000207B
:1033800088F9FF1F7047704730B47446641E257873
:10339000641CAB4200D21D46635D5B00E31830BC89
:1033A0001847002070470000064920228A60C006A6
:1033B000C00E086008680006FCD508690005000D0D
:1033C0007047000000B0034010B501F009FC01F0A7
:1033D0006BF801F0B7F800F0D7FC00F023FA00F02A
:1033E0005EF900F097FF00F0BBFA00F057FA00F02A
:1033F0003DF800F0B9FE00F01BF862B610BD000009
:1034000010B507480078FDF791FC064902F0C2FDAF
:103410000549FDF771FB0549FDF76EFB10BD000086
:103420006CF0FF1F0000A04000007F433ECFF33E42
:1034300008B5082069460870012048708870684601
:1034400001F0C6FC0121082001F0A2FD0920694617
:103450000870684601F0BCFC00F001F808BD10B52A
:103460000121092001F094FD10BD000038B51F486E
:103470004169202211434161C16803221206914330
:10348000C160C168012212061143C16018490A686F
:10349000920892000A600A6818231A430A60002200
:1034A0004A604169402421434161C168DC05A14370
:1034B000C160C1680124E4062143C1600D48016870
:1034C000016001681943016042606946CA704A7030
:1034D0000A20087001208870684601F079FC2620D7
:1034E00069460870684601F073FC38BD00800440EE
:1034F000008003400090034010B50748074A8188C8
:103500005368C9188180064B41885C68091941805D
:1035100000205060586010BDF8F5FF1F0080034088
:1035200000900340F8B5089C0D461E46079FA04733
:10353000A847B047052000F07DFFB847052000F000
:1035400079FFA047F8BDF8B5089C0D461646079FC1
:10355000A047A847B047052000F06CFFB8470520FA
:1035600000F068FFA047F8BD0FB4FEB5002508982D
:103570002C460D9F0C9E80470E988047052000F03A
:1035800059FFB8476006040EB047012801D1641CFA
:10359000E4B2032000F04EFF6D1CEDB2082DEBD31A
:1035A0000F9808AD00280E980197009602900FCD55
:1035B00006D0FFF7B7FF2046FEBC08BC04B0184792
:1035C000FFF7C1FFF7E70FB4F8B5174600240C9ECC
:1035D0000D9D8847B047E80901D0B84701E0099838
:1035E00080476806050E052000F024FF0B988047F1
:1035F000052000F01FFFB047022000F01BFF641CF5
:10360000E4B2082CE7D3F8BC08BC04B01847F8B5FE
:1036100014461D46089F079E8847A047B0470420D0
:1036200000F008FFA847042000F004FFB847F8BDE9
:10363000F8B514461D46089F079E8847B847A84717
:10364000042000F0F7FEB047A047042000F0F2FE8F
:10365000F8BD0FB4FEB50CACE0CC08980024804750
:103660000A988047012000F0E5FEB047012000F0F5
:10367000E1FE0EE0641CE4B2FA2C0AD96846E0C010
:1036800008AC0FCCFFF7D4FF0120FEBC08BC04B08F
:103690001847A8470028EDD1B8470020F5E710B536
:1036A00000F082F800F05AF810BD000070B5054631
:1036B00029490001441820688047690005226B18D9
:1036C0000026002832D02179052901D2227170BD4F
:1036D0000A2902D2491C217170BD6900A07A6D18B7
:1036E0006D1C002804D10120A072E8B200F082F81D
:1036F00021890029F0D0E088884208D2401C80B29D
:10370000E08021898842E7D1DB1CD8B20BE0E07A67
:103710000028E1D0207B401CC0B22073E17A8842AF
:10372000DAD32673E8B200F065F870BD2079052879
:1037300001D922710CE0002802D0401E207107E060
:10374000A07A012804D19B1CA672D8B200F052F8CE
:103750002673E68070BD000050FCFF1F70B50E4858
:1037600000210346817232240C3302250A46C172BD
:103770000A260801C018048105718272491C02736F
:10378000C9B2C6720329F4D304481860044818610A
:103790000448186270BD000044FCFF1FA125000012
:1037A0008D2500007925000008B51B200090684693
:1037B00001F00EFB1C2069460870684601F008FB0A
:1037C000242069460870684601F002FB08BD00002D
:1037D000074A917AD07A814201D100207047505C2B
:1037E000491CC9B291720A29F8D30021917270471D
:1037F00044FCFF1F0549CA7A8854C87A401CC0B2ED
:10380000C8720A2801D30020C872704744FCFF1F09
:1038100010B500242046FFF749FF641CE4B2032CD6
:10382000F8D310BD08B518206946087001208870CB
:1038300048700020C870684601F0CAFA192069462D
:103840000870684601F0C4FA002000F001F808BDD5
:1038500010B5002804D001280BD0022808D103E0BD
:103860000021182001F094FB0021192001F090FBA9
:1038700010BD00211820F9E710B5002804D0012858
:1038800009D0022806D102E0182001F073FB1920AC
:1038900001F070FB10BD1820FAE700003EB50024CF
:1038A0006946CC7201204872252008728C7202A8E9
:1038B00001F08EFA0021252001F06AFB0E486946CE
:1038C000088014200871CC80684601F0E5F90A48A8
:1038D000694642300880684601F0DEF907486946CB
:1038E0000880684601F0D8F903486946E830088046
:1038F000684601F0D1F93EBD30A40000F6A80000F2
:10390000F8B5154F05461448423703260C460029E2
:1039100005DBCC1CA1B201F041FA032104E0032134
:1039200001F03CFA301B81B2384601F037FA0A4CFC
:103930000A48E834002D05DBED1CA9B201F02EFA8F
:10394000032104E0032101F029FA701B81B2204613
:1039500001F024FAF8BD000030A40000F6A8000031
:1039600010B500F039F880216B2000F0ABF9C820C9
:1039700000F050FD00216B2000F0A4F9032000F0BE
:1039800069F9002000F05FF9642000F084F900215B
:103990006A2000F097F90021232000F093F980219C
:1039A000372000F08FF90021382000F08BF97520C6
:1039B00000F0C6F8682801D0012010BD01216B205D
:1039C00000F080F900216C2000F07CF9642000F008
:1039D00062F9002010BD000008B500206A46D070D2
:1039E000012050702C2111709070684601F0F0F9A0
:1039F0002D206A461070684601F0EAF90848074928
:103A0000416108498161084981600849C1600849EC
:103A10000160084941600849016108BD572600005E
:103A200080000020632600006F2600007B26000037
:103A300087260000A12600004D260000F0B53F4C6F
:103A4000154620460F46103007C885B01E466B4607
:103A500007C30FCC103CFFF7DAFDD02010340390E1
:103A600007CC6B4607C31C3C0FCC103CFFF7ABFDEB
:103A7000103407CC6B4607C31C3C0FCC103CFFF73F
:103A8000E8FD00280AD02046103007C86B4607C35F
:103A90000FCCFFF7CDFD012005B0F0BD2046103062
:103AA000039707C86B4607C30FCC103CFFF78BFD8D
:103AB000103407CC6B4607C31C3C0FCC103CFFF7FF
:103AC000C8FD103407CC6B4607C31C3C0FCC103C20
:103AD000FFF79DFDD1201034039007CC6B4607C340
:103AE0001C3C0FCC103CFFF76EFD103407CC6B462E
:103AF00007C31C3C0FCC103CFFF7ABFD10E0012DC1
:103B00001AD0012003902046103007C86B4607C327
:103B10000FCC103CFFF728FD6D1E3070EDB2761C07
:103B2000002DECD12046103007C86B4607C30FCCE0
:103B3000FFF77EFD0020AFE70020E3E780000020D4
:103B40007FB5334C05462046103007C86B4607C387
:103B50000FCC103CFFF75BFDD0201034039007CC56
:103B60006B4607C31C3C0FCC103CFFF72CFD1034F8
:103B700007CC6B4607C31C3C0FCC103CFFF769FD1C
:103B80001034039507CC6B4607C31C3C0FCC103C8C
:103B9000FFF719FD103407CC6B4607C31C3C0FCC54
:103BA000103CFFF756FD103407CC6B4607C31C3C96
:103BB0000FCC103CFFF72BFDD1201034039007CC25
:103BC0006B4607C31C3C0FCC103CFFF7FCFC1034C9
:103BD00007CC6B4607C31C3C0FCC103CFFF739FDEC
:103BE00000201034039007CC6B4607C31C3C0FCC5D
:103BF000103CFFF7B9FC0546103407CC6B4607C3F1
:103C00001C3C0FCCFFF714FD284604B070BD00002B
:103C1000800000207CB514460D4606466B46062201
:103C200043216820FFF70AFF00280BD16946098865
:103C300049BA31806946498849BA298069468988E4
:103C400049BA21807CBDC00610B5010E1C2000F0D1
:103C500039F810BDC00610B5010E1B2000F032F877
:103C600010BD10B5BC2801D3012110E0622801D39A
:103C700002210CE02A2801D3032108E0142801D3F3
:103C8000042104E00A2801D3052100E006211A20BE
:103C900000F018F810BD10B504467D20C000844225
:103CA00001D9044602E0042C00D204242146FCF78A
:103CB000AFFA401EC1B2192000F004F86008FFF707
:103CC000D0FF10BD7FB52F4C064620460D46103064
:103CD00007C86B4607C30FCC103CFFF798FCD020F9
:103CE0001034039007CC6B4607C31C3C0FCC103C30
:103CF000FFF769FC103407CC6B4607C31C3C0FCCA4
:103D0000103CFFF7A6FC002827D120461030039670
:103D100007C86B4607C30FCC103CFFF754FC1034A8
:103D200007CC6B4607C31C3C0FCC103CFFF791FC43
:103D30001034039507CC6B4607C31C3C0FCC103CDA
:103D4000FFF741FC103407CC6B4607C31C3C0FCC7B
:103D5000103CFFF77EFC00280AD02046103007C830
:103D60006B4607C30FCCFFF763FC012004B070BDA6
:103D70002046103007C86B4607C30FCCFFF758FC2E
:103D80000020F3E78000002010B500F07DF801214D
:103D9000432001F0FDF8642000F03CFB00214320AB
:103DA00001F0F6F8642000F035FB0121432001F01A
:103DB000EFF80021AE2001F01FFF0021D52001F017
:103DC0001BFF0021502001F017FF0021A82001F067
:103DD00013FF00213F2001F00FFF0021D32001F04D
:103DE0000BFF0021084601F007FF0021402001F0F1
:103DF00003FF00218D2001F0FFFE0021142001F0BF
:103E0000FBFE0021202001F0F7FE0021084601F012
:103E1000F3FE0021A02001F0EFFE0021CF2001F0F1
:103E2000EBFE0021DA2001F0E7FE0021122001F074
:103E3000E3FE0021812001F0DFFE0021EF2001F0F0
:103E4000DBFE0021D92001F0D7FE0021F12001F096
:103E5000D3FE0021DB2001F0CFFE0021302001F055
:103E6000CBFE0021A42001F0C7FE0021A62001F016
:103E7000C3FE0021AF2001F0BFFE01F031FD0021A3
:103E8000084600F026F810BD08B500206A46D0703C
:103E900001215170232111709070684600F098FF45
:103EA00042206A461070684600F092FF17206A466A
:103EB0001070684600F08CFF43206A461070684618
:103EC00000F086FF16206A461070684600F080FFFA
:103ED00008BD10B50446B031C8B2002101F08CFE17
:103EE00020090021103001F087FE2007000F01217A
:103EF0000843002101F080FE10BD0000F0B58DB038
:103F00000025282102A80C95FCF780F90C2400213B
:103F1000062385A20846009401F040FE012001908E
:103F20000623252200210094642001F043FD01F0C6
:103F30001DFD0020800000226D1C02A9ADB20A50B8
:103F40000A2DF9D37C4B0020DC1DF93401461426E0
:103F50007143C9180022C031401C8A8380B2CA83D1
:103F60000528F3D39DE000263300FFF70DFA050482
:103F700016283848590001200021800300F07EFDFA
:103F800001466D48C030427E53006B4A9A18C032D9
:103F90009184417E491C417642E001200021C0020B
:103FA00000F06CFD01466448E030427B5300624AF9
:103FB0009A18C0321187417B491C417330E00120BF
:103FC0000021C00300F05AFD61784A005A49511897
:103FD000FF31013188816078401C607020E0012051
:103FE0000021800200F04AFD617D4A0052495118CB
:103FF000FF3101310884607D401C607510E00120B4
:104000000021400200F03AFD01464C48427A53003C
:10401000494A9A18FF3201329186417A491C41720D
:1040200014203146414344480B181F46C037787E60
:10403000042801D300207876184603220021E430BA
:1040400001F025FFB98B788D814200D2B883F98BBE
:10405000B88C814200D9F883761CB6B2052E83D382
:104060000C980A21401C80B20C90FCF7D1F8002972
:1040700004D10020FFF700FC01F078FC1E21681C31
:10408000FCF7C6F802460C2106200191009003239C
:104090000021542001F0EEFC052000F0BBF96D1C5E
:1040A000ADB22748854200D25DE7234C002002AB29
:1040B000142141430919C200C0318D8B9D50D21883
:1040C000401CC98B80B251600528F1D30C24062313
:1040D0001CA221460020009401F060FD06231DA2D1
:1040E00018210020009401F059FD01F03FFC7D25CE
:1040F000ED00284600F08EF9FD2000F05DFD002364
:10410000282202A9FD2000F09DFD062314A22421EF
:104110000020009401F042FD01F028FC284600F048
:1041200079F90DB0F0BD000043616C696272617491
:10413000696F6E2E2E2E0000B8F4FF1FD8F5FF1FFA
:10414000B80B000043616C6962726174696F6E2024
:104150004F4B2100536176696E672E2E2E000000B2
:1041600053617665642121000EB508480090012155
:104170006A461171002090721072507120235372A0
:10418000D172D071684600F0A1FC0EBD02CE0000D5
:10419000FEB55C4C00250021022000F06FFC5A495E
:1041A0002B000870FFF7F0F8050416283848570070
:1041B00001200021800300F061FC524940394A7E11
:1041C00053000A46C03A9A18C0329084487E401C78
:1041D000487640E001200021C00200F04FFC494930
:1041E00020394A7B53000A46E03A9A18C0321087B9
:1041F000487B401C48732EE001200021C00300F0E2
:104200003DFC61784A0041495118FF3101318881F4
:104210006078401C60701EE001200021800200F0E8
:104220002DFC617D4A0039495118FF310131088464
:10423000607D401C60750EE00820FFF7B5F831493D
:1042400020314A7A5300314A9A18FF32013290865F
:10425000487A401C48721420294641432B480F18C5
:104260003E46C036707E042801D300207076394661
:104270003846DA31E430042200F0C4FFB18BF08B11
:104280000090081AFCF74AFD0190718B0098081AFB
:10429000FCF744FD0199FCF72FFC80376D1CEDB253
:1042A0003866052D00D276E716488038056E466FD1
:1042B0002946304601F0FEFD07462946304601F00A
:1042C000F9FE3946FCF718FC114901F063FEA066BF
:1042D000A768E66905463946304601F0EBFD0090D7
:1042E0003946304601F0E6FE0099FCF705FC084926
:1042F00001F050FE0146E066284601F0DBFE206733
:10430000FEBD0000B8F5FF1F6CF0FF1FB8F4FF1FE3
:104310000000C84208B500206946C87048702820CF
:10432000087001208870684600F052FD01212820A5
:1043300000F0D4FD0121282000F02AFE2920694642
:104340000870684600F044FD0121292000F0C6FDF8
:104350000121292000F01CFE3420694608706846BF
:1043600000F036FD0121342000F0B8FD0121342099
:1043700000F00EFE372069460870684600F028FD00
:104380000121372000F0AAFD0121372000F000FEB6
:1043900008BD0000F0B585B01546022803D90020FD
:1043A000C04305B0F0BD0C4EC400325D012A0FD0F1
:1043B0006A461070012757700320107268460395F3
:1043C000019100F0FBFD3755A01945600020E8E79A
:1043D0000120C043E5E7000028FCFF1F70B5062858
:1043E00002D90020C04370BD1424094D6043441914
:1043F000267B012E09D06160002666702B540120B7
:104400002073A1603046226170BD0120C04370BDA1
:10441000B0FBFF1F002809D0012800D10220044969
:1044200048600020087008780128FCD1704700001F
:1044300060F0FF1FF8B50D4E0746756900240D4862
:104440000B490068FBF7E4FE7843B1690246B069A6
:104450008842FCD0884201D2091A01E02B1A59186F
:104460000C1901469442F2D3F8BD000000E000E0D0
:1044700040420F002CF0FF1F70B5022802D9002027
:10448000C04370BD074DC400295D002906D000F06F
:10449000F1FD002028556119486070BD0120C0431E
:1044A00070BD000028FCFF1F70B50021154B0C46A5
:1044B00014224A43D0184460846044709C54491CC0
:1044C0000461C9B204730629F2D30E487D218830F5
:1044D0000480448084800C48C9000068FBF798FE83
:1044E0000A49401E88420BD80949486109480722F9
:1044F000C3691B021B0A4D042B43C3618C610A6113
:1045000070BD0000B0FBFF1F2CF0FF1FFFFFFF007E
:1045100000E000E004ED00E04168002910D04168AF
:10452000491E41600CD1012141700178012903D15C
:1045300081684160002141700069002800D0004777
:10454000704700001FB50121022000F0C7FC0121C7
:10455000032000F0C3FC00F051F8E120400200907D
:10456000012003900C206946488100200881C88002
:10457000094C8880204600F0B5FD08480168C878DD
:1045800020221043C8700649D0010860012120464E
:1045900000F08CFD1FBD000000A0064088F9FF1F41
:1045A00000E100E0012801D000207047004870477A
:1045B00088F9FF1F01680A79120701D50A79CA79BB
:1045C0000A790A79120612D5828A002A10D0438A03
:1045D0004268D25CCA71418A491C89B2418282898F
:1045E000914201D300214182818A491E8182704714
:1045F000C8784006400EC870704700000B480A4952
:1046000001600B498160014628314160FF21013181
:10461000C1818181002141830183C18281824182E4
:104620004162C1610162704700A0064088F9FF1F26
:10463000B0FAFF1FF8B50023FFF7B4FF002820D021
:10464000002517E08489878A6E4637803688B44211
:10465000F9D9CC5C078A4668F455048A641CA4B274
:1046600004828689B44200D30582848A641C8482D1
:104670005B1C9BB29342E5D30068C1788022114352
:10468000C170F8BD10B5074C2078012809D0012071
:10469000207000F009F800F071F900F05DF80020DA
:1046A000207010BD5FF0FF1F10B5104C607800281F
:1046B0001AD0132814D008DC02280BD010280CD0F4
:1046C00011280DD012280DD10AE0142808D0152881
:1046D00008D105E000F0DEF804E000F081F81020D9
:1046E00000F028F90020607010BD00006DF0FF1F81
:1046F00070B588B00E460446154620216846FBF783
:1047000085FD1B2D02D9002008B070BDAA20694686
:10471000087048708E70CD7000216846431908E01B
:10472000625C461832711A79465C9219491C1A71FA
:10473000C9B2A942F4D32C462A1D05E01979065DB9
:104740008919641C1971E4B29442F7D301466A1DB9
:104750000120FFF76FFFD6E710B588B0202168462B
:10476000FBF754FD1B486A46C18F0B121370517042
:104770000146403109880B129370D170406F164981
:1047800001F008FCFCF768FA0104090E6A46117191
:10479000124C5071206CFCF75FFA0004000E6A4660
:1047A0009071206CFCF758FA6A46D071A06CFCF747
:1047B00053FA0004000E6A461072A06CFCF74CFA23
:1047C0006A4650720A22F1216846FFF791FF08B04D
:1047D00010BD0000B8F5FF1F0000C842B8F4FF1F6D
:1047E00070B52848417902790802104340BA00B2F6
:1047F000FCF794FA244D2946FCF77EF9234CE0603F
:104800002048C17982790802104340BA00B2FCF70F
:1048100085FA2946FCF770F920611A48417A027A34
:104820000802104340BA00B2FCF778FA60611548FC
:10483000C17A827A0802104340BA00B2FCF76EFADD
:10484000134D2946FCF758F920600E48417B027B46
:104850000802104340BA00B2FCF760FA2946FCF7A0
:104860004BF960600748C17B827B0802104340BA65
:1048700000B2FCF753FA2946FCF73EF9A06001F0BC
:10488000E7F970BD9C00002000002041B8F4FF1F34
:104890000000C84230B585B014216846FBF7B6FC6D
:1048A000214C224DE068294601F074FBFCF7D4F955
:1048B00001126A46117050702946206901F06AFBA6
:1048C000FCF7CAF901126A469170D0706069FCF772
:1048D000C3F901126A461171154D507129462068BD
:1048E00001F058FBFCF7B8F901126A469171D071DA
:1048F0002946606801F04EFBFCF7AEF901126A46EA
:10490000117250722946A06801F044FBFCF7A4F92B
:1049100001126A469172D072122210216846FFF786
:10492000E7FE05B030BD0000B8F4FF1F00002041D5
:104930000000C8421CB5002100910191AA216A46DD
:1049400011705170EF2191700721D17010710A48D8
:10495000C178001D085C5071002069460B5C8A79A3
:10496000401CD218C0B28A710728F7D30722012051
:10497000FFF760FE1CBD00009C00002010B588B051
:1049800020216846FBF742FC1B496A46488B0C46CF
:10499000030A1370507040346088030A9370D0701B
:1049A000E08A030A13715071C88D010A9171D071A8
:1049B000A06EFCF751F90104090E6A46117250729B
:1049C000E06EFCF749F90104090E6A469172D07253
:1049D000206FFCF741F90104090E6A461173507308
:1049E000608D010A9173D0731022F2216846FFF79F
:1049F0007FFE08B010BD000078F5FF1F10B5FDF771
:104A00005DFEFDF7E3FFFDF77FFF10BD10B5FEF77C
:104A1000DFFE194C0028607007D02078002804D1F0
:104A2000022001F023F90020607020780300FEF7D7
:104A3000ABFC0A09200C060F1215181B1E20FEF7EE
:104A400007F816E000F0C2FE13E0FDF767FE10E085
:104A5000FEF7FCFA0DE0FEF77BFA0AE0FCF71CFE1D
:104A600007E0FCF79DFD04E0FCF78AFC01E0FEF79F
:104A7000DFFBFDF799FC10BD00F4FF1F0022034689
:104A8000D340DB0703D1521C92B2102AF7D3C303E1
:104A900000D51022800300D516220B4B98680843DE
:104AA0009860986898609868986058685860D006D0
:104AB000C00E186018680006FCD51869196880B225
:104AC000802291431960704700B00340F8B500267A
:104AD0000546012134463746480700F0DBFA324BE1
:104AE0009869298889B208439861A879697A01434D
:104AF000A87A084398605868E97A08435860287A89
:104B0000012800D1202669794020012903D10643DC
:104B1000264A41021160E979002902D0D96801438F
:104B2000D9602868D9682A79521ED2B21143D96057
:104B30001F490246E240D207D20F11D0E206D20E40
:104B4000194B32431A601B4B01221B78A2409C4632
:104B50009B00CA5063465B1C164A7F1C1370FFB251
:104B60002A79BA4203D9641CE4B2102CE1D3C203FF
:104B70000BD510220C4B32431A600E4B01241A78CD
:104B8000240495004C51521C1A7080030BD516203A
:104B9000064305480660074A012310785B04840039
:104BA0000B51401C1070F8BD00B0034000E100E064
:104BB00070F6FF1F40F0FF1F410210B507480022AA
:104BC00042700A2343720B0C037201234370090ADB
:104BD0004172027200F020F8002010BD0000024077
:104BE00010B50121080300F055FA084C6079000661
:104BF000FCD5084806490068FBF70AFB401E800602
:104C0000800E4030E0703020607110BD0000024026
:104C100040420F0030F0FF1F10B572B63020074C35
:104C200060710749481F0160601D884762B660795E
:104C30003321084000D0012010BD000000000240D8
:104C40004DF0FF1FF8B50026400217460C46C51868
:104C50001CE010480021417006214172290C0172AC
:104C600001214170290A41720572022141702178A7
:104C700001726178417203214170A1780172E1787B
:104C80004172241D2D1DFFF7C7FF361DBE42E0D324
:104C90000020F8BD00000240F1B582B00298002467
:104CA00000888206930F8205120F00920107020509
:104CB0008504090F920FAD0FC00B84463348476936
:104CC0006E1D0120B040314E0743776160460028D9
:104CD00015D007D030698B409843306130698A40E5
:104CE000104330612A480668029801797D20C0008F
:104CF00041430F46300CFBF78BFA01460BE0234E85
:104D0000F0688B409843F060F0688A401043F06090
:104D1000E8E7641CE4B20846E040FAD1072C33D837
:104D200030463946E040FBF773FA86B2194968000D
:104D30000E520298711CC08848437D21C900FBF7C0
:104D400071FA80B28646144AA80011588E60009904
:104D50001358C9008C460C315E580427BE435E5080
:104D60001658282373506107490F135808311960EA
:104D70000021022D01D19368D96415586346744609
:104D80001033EC5010584160FEBD0000008004401C
:104D900030F0FF1F42F0FF1F9061000070B58205E8
:104DA000150F8004840F084A6000105A401C4843C5
:104DB0007D21C900FBF736FA044AA1005258E900E8
:104DC00080B21031505070BD42F0FF1F9061000062
:104DD000F0B501783E4BCD064A09ED0E92009C5885
:104DE000A6690121A9400E43A6619C5865698D43BF
:104DF00065614478002C02D0012C05D00EE09C584F
:104E0000A5698D43A56109E09C58A6690D46354307
:104E1000A5619C5866690D463543656185782D4EC0
:104E20002D4C012D15D12B4F9D58403FBD4203D134
:104E3000A5680D43A5600CE0B54203D1E5680D43BC
:104E4000E56006E0234F4037BD4202D125690D439E
:104E50002561C17801293AD19958B1420BD1027824
:104E6000382A04D0392A06D16269802301E06269B8
:104E700040231A436261B1420BD10278202A04D048
:104E8000212A06D16269202301E0626910231A43B6
:104E90006261104B403B99420BD10278182A04D032
:104EA000192A06D16269082501E0626904252A43AE
:104EB000626199420BD100780C2804D00D2806D1EC
:104EC0006069022101E06069012108436061F0BD71
:104ED0008461000040F00F4000900440F0B51C4D8C
:104EE0001B4E43091B4F9B00184A194C4035403E4E
:104EF000FB58002915D0C106C90E01208840B342D5
:104F000003D1916801439160F0BDA34203D1D16800
:104F10000143D160F0BDAB42FCD111690143116185
:104F2000F0BD01218140B34203D190688843906075
:104F3000F0BDA34203D1D0688843D060F0BDAB423E
:104F4000FCD1106988431061F0BD0000009004405E
:104F500040F00F4084610000C2064109D20E880073
:104F6000034908580069D040C007C00F70470000CF
:104F700084610000C1064209C90E044892008058AD
:104F8000C26801238B401A43C260704784610000ED
:104F9000420910B59300C006074C0122C00E8240A2
:104FA000E058002903D041681143416010BD816879
:104FB0001143816010BD00008461000070B504469B
:104FC0000121022000F066F8254801680225A94366
:104FD000016024487D21C9000068FBF719F9616868
:104FE00041432078020120481218116021780901FC
:104FF0000918CB6801221343CB60217809010918F5
:105000008B6893438B602178090109188B68AB4347
:105010008B602178090109188B6813438B606178D4
:10502000012916D121780901081881682943816076
:1050300021780E4A8900E068505020780C490028F9
:1050400008D0012805D1C0050860217A1720FDF796
:1050500039FC70BD012080050860217A1620F6E732
:105060000070034030F0FF1F0071034038F0FF1F55
:1050700000E100E0012809D8010105480818C168CD
:1050800001221143C1608168914381607047000033
:1050900000710340044A0029516901D0014300E036
:1050A0008143516170470000008004400A4A10B5F6
:1050B000904202D10120000504E0084A904204D148
:1050C00001204005FFF7E6FF10BD054A9042FBD1E5
:1050D00001208005F6E7000000A0064000B0064071
:1050E00000C00640F8B5044623480D46844202D16C
:1050F000012108050AE02148844202D10121480526
:1051000004E01F48844203D101218805FFF7C2FF54
:10511000297B204600F03AF8E078F3210840E0705F
:10512000A078297A0843A070A07829790843A07054
:10513000A078A9790843A0701248006800902968F7
:10514000060948083018FBF763F881B20E4881421F
:1051500000D9014620784009400120702078CA0417
:10516000D20E104320706170E078AA7A1043E0708C
:105170003046FBF74DF8F8BD00A0064000B00640F1
:1051800000C0064030F0FF1FFF1F000001290ED8AD
:105190000E4B0F4A98420BD1D068CB011843D06018
:1051A000012904D10B4881680C22114381607047AA
:1051B000094B984202D11069090304E0074B984259
:1051C000F5D11069490308431061704700A00640FB
:1051D000008004400090044000B0064000C006403B
:1051E00010B5074C0548606021465831A0688861B9
:1051F000002000F03BFD0120207010BD0C030020BA
:105200004CF3FF1F70B50C4603460021084604E02E
:105210004D005D5B2818491C89B29142F8D31146B4
:10522000FAF7F6FF208070BDF7B500238AB0044678
:1052300000930193D24E8C460793039304930593F6
:1052400018461D460693CE4F8200543F0023394630
:10525000BB501C318B501C31401C8B50C0B2B35022
:105260000728F0D3A1680027604600F093FE009065
:10527000E1680C9800F08EFE019038460C214843FE
:10528000C0494218936809585268009800F0A0F984
:10529000BB49BA00543988504000000E05D0B848C8
:1052A000A9001C386D1C4750EDB27F1CFFB2072FC0
:1052B000E3D306E0B2490020AA001C396D1C8850D7
:1052C000EDB2072DF6D300252F4638460C21484372
:1052D000AC494218936809585268019800F078F96F
:1052E000A749BA00383988504000000E03D0A80002
:1052F0006D1C3750EDB27F1CFFB2072FE5D304E0E1
:105300000020AA006D1CB050EDB2072DF8D3002785
:105310000025B80001909A4801991C3846581C2075
:105320009949704341189648AA008058800002901D
:105330000858FBF7F3FC0090914902983839095856
:10534000B0008F4E543E305800F024FE0990009972
:1053500000F020FE039900F0ADFD03900799099835
:1053600000F0A8FD6D1CEDB20790072DD3D37F1C74
:10537000FFB2072FCCD34000844D000E03D0079915
:105380000398FBF7B9FB0490E069049900F002FE72
:105390000490216900F056FE206906D36840049904
:1053A00000F050FE02D2206968400490A06A04997F
:1053B00000F080FDA0627549606B4840A16A00F072
:1053C00041FE03D27149606B4840A062616BA06AE4
:1053D00000F038FE01D2606BA06200270025B80003
:1053E0000190674801991C38465867491C20704352
:1053F000C43141186248AA008058800002900858C1
:10540000FBF78CFC00905E49029838390958B000CF
:105410005B4E543E305800F0BDFD0690009900F000
:10542000B9FD039900F046FD03900799069800F036
:1054300041FD6D1CEDB20790072DD2D37F1CFFB24A
:10544000072FCBD34000000E03D007990398FBF73A
:1054500053FB0590206A059900F09CFD0590616959
:1054600000F0F0FD606907D3484D0599684000F0F1
:10547000E9FD02D2606968400590E06A059900F094
:1054800019FDE0624149A06B4840E16A00F0DAFD95
:1054900003D23E48A16B4140E162A16BE06A00F09B
:1054A000D1FD01D2A06BE062002007900746039077
:1054B0000025B8000290324802991C3846583149FC
:1054C0001C207043C43941182D48AA008058800020
:1054D00000900858FBF722FC0190294900983839C0
:1054E00009582748B2005438805800F053FD06464A
:1054F000019900F04FFD039900F0DCFC0390304669
:10550000079900F0D7FC6D1CEDB20790072DD2D3A0
:105510007F1CFFB2072FCBD34000000E03D00799AA
:105520000398FBF7E9FA0690606A069900F032FDED
:105530000690A16900F086FDA06907D3134D069976
:10554000684000F07FFD02D2A06968400690206BA1
:10555000069900F0AFFC20630C4DE06B216B6840B6
:1055600000F070FD02D2E06B68402063E16B206BBD
:1055700000F068FD01D2E06B20630DB0F0BD0000CB
:10558000F0020020BCF2FF1F70F0FF1F000000803F
:1055900070B50E4D044601682846FBF7ADFAA060D1
:1055A00028466168FBF7A8FAE06029462069FBF706
:1055B000A3FAE06129466069FBF79EFA206229465A
:1055C000A069FBF799FA606270BD000000004040DE
:1055D000FFB581B01D4617460E460024019800F025
:1055E00031FD0ED83946019800F0AAFC09D83146A1
:1055F000384600F05FFD04463146019800F05AFD40
:1056000012E03946019800F01DFD11D2294601989B
:1056100000F096FC0CD83946284600F04BFD0446B5
:105620002946019800F03AFD2146FBF765FA044649
:10563000204605B0F0BD10B5FAF7A8FD0621484395
:1056400080B210BD0021427806E01C234B431B189A
:105650009B78012B02D0491C8A42F6DCC8B2704705
:1056600010B5FAF793FD0621484380B210BD10B57E
:10567000FAF78CFD0621484380B210BD10B5FBF748
:10568000ABFC092000F0F2FA01490120087010BDBE
:105690004CF3FF1F0A4A10698169002908D0516044
:1056A000C06811465831801C886101201070704715
:1056B00001690029FBD040690028F8D108470000A3
:1056C0004CF3FF1F10B5032000F0D0FA0149012070
:1056D000087010BD4CF3FF1F10B5FBF77DFC0720D1
:1056E00000F0C4FA01490120087010BD4CF3FF1FFF
:1056F00010B5FBF771FC062000F0B8FA0149012053
:10570000087010BD4CF3FF1F10B5FBF765FC0520BA
:1057100000F0ACFA01490120087010BD4CF3FF1FE6
:1057200010B5FBF759FC042000F0A0FA0149012054
:10573000087010BD4CF3FF1F10B5082000F096FA5A
:1057400001490120087010BD4CF3FF1FFDF73CFE1E
:10575000FBF716FDFFF752F91C20FFF7FDFB0028B1
:1057600001D1FEF7CBFB0123134A33210020FEF7C2
:1057700035FE0123114A15211846FEF72FFE01239D
:105780000F4AC8210220FEF729FE01210D4A0846D2
:10579000FEF700FE0C4A05210020FEF7FBFD01216B
:1057A0002520FFF7F5FB002000F060FAFFF72EF947
:1057B0006420FEF72FFEF9E785460000113800004F
:1057C00075130000450F00003D2F0000FEB51620A8
:1057D000002100901823344A084600F088F9182068
:1057E00000900C2331A21E211A2000F0D7F90625C3
:1057F0000C24304E00950194328802232946222041
:1058000000F038F9012706233A2219462E20019785
:10581000009400F0CFF800950194728802230621CD
:10582000342000F027F906233A2219464020019738
:10583000009400F0BFF800950194B288022306217D
:10584000462000F017F9FDF7DBFD1B4900F032FCA4
:105850001A49FBF751F91A4900F09CFBFBF722FAB1
:10586000C0B2184E00277070632801D36320707097
:10587000C0B20C2148436321FAF7CAFC1421484303
:1058800011490A234218102000900421642000F0DE
:105890002EF9009501940323727807216E2000F001
:1058A000E9F83770FEBD00005E870000566563743E
:1058B0006F72000038FCFF1F9A99D9409899993F60
:1058C0000000C84202F4FF1FA68700000346012023
:1058D00000E058430A46491EC9B2002AF9D1704770
:1058E00010B50021084C0A460020C3001B195A5469
:1058F000401CC0B28028F8D3491CC9B20829F3D390
:1059000000F034F810BD000080FCFF1F10B57F28A8
:1059100014D83F2912D8CB080724E31A2140641A6F
:105920000121A140064CC0000019DBB2002AC25C74
:10593000C9B201D00A4300E08A43C25410BD00003E
:1059400080FCFF1F3F22511AC9B2CA084907490FFC
:1059500001238B40D9B2044BC000C018805C0840C2
:1059600000D001207047000080FCFF1F70B5104E72
:1059700000252846B030C0B2002100F03DF90021DA
:10598000084600F039F90021102000F035F9002414
:10599000E0008019405D012100F02EF9641CE4B2A2
:1059A000802CF5D36D1CEDB2082DE2D370BD000044
:1059B00080FCFF1FFFB583B00C9F0E460191F908D4
:1059C000780700D00120081806994843C0B2203A51
:1059D0000290D0B20025059040E0069806280FD02E
:1059E0000C283ED1182F3CD10598242148431E494C
:1059F0004018445D0020009020060FD50D9A11E05C
:105A0000082F06D00C2F2CD105980C21484317499C
:105A1000EEE70598062148431549E9E70D98002867
:105A200012D0002231460398FFF770FF6006040E83
:105A3000761C0198F6B2301AB84207D10398019E3D
:105A4000401CC0B2039007E00122EBE70098401C25
:105A5000C0B200900828CFD36D1CEDB202988542E9
:105A6000BBD307B0F0BD00004A680000D663000059
:105A70009C610000FFB583B000261D4634460C9F94
:105A800031E0281B401EC1B20A20FFF71FFF01466C
:105A90000598FAF7BDFB0A21FAF7BAFB002E05D1EB
:105AA000681E844202DA00290DD0012601220D98D9
:105AB000303101920090CAB23846039960434018D1
:105AC000C0B23B460AE001210D9801910090384692
:105AD000039960434018C0B23B4620220499FFF767
