:020000040000FA
:10000000300800204B01000057010000590100009A
:1000100000000000000000000000000000000000E0
:100020000000000000000000000000005B01000074
:1000300000000000000000005D01000059380000D1
:100040006101000061010000610100006101000028
:100050006101000061010000610100006101000018
:100060006101000061010000610100006101000008
:10007000F1390000993A00009B3A00003913000062
:1000800061010000610100006101000061010000E8
:100090006101000061010000A12E0000C92E0000D6
:1000A0008D2A0000D92A00006101000061010000D2
:1000B00061010000610100006101000061010000B8
:1000C00000F002F800F030F80CA030C8083824180E
:1000D0002D18A246671EAB4654465D46AC4201D180
:1000E00000F022F87E460F3E0FCCB6460126334282
:1000F00000D0FB1AA246AB4633431847FC9C0000D5
:100100001C9D00000023002400250026103A01D386
:1001100078C1FBD8520700D330C100D50B607047BF
:100120001FB51FBD10B510BD01F084F81146FFF7D3
:10013000F7FF06F03BFB01F09CF803B4FFF7F2FF7A
:1001400003BC03F039FD00007047094880470948A7
:10015000804709480047FEE7FEE7FEE7FEE7FEE7C7
:10016000FEE7000005480649044A064B70470000B8
:10017000ED38000049010000C100000030070020F8
:1001800030080020300700207047000030B5441CC4
:1001900003E00178401C00290DD08107F9D10B4BF9
:1001A000DD0104C8D11A91432940FAD0001B0A0688
:1001B00003D0C01E30BD001B30BD0A0401D0801E1C
:1001C00030BD0902FCD0401E30BD0000010101011C
:1001D00001E004C0091F0429FBD28B0701D502806E
:1001E000801CC90700D00270704700290BD0C307DC
:1001F00002D00270401C491E022904D3830702D595
:100200000280801C891EE3E70022EEE70022DFE780
:10021000002203098B422CD3030A8B4211D3002303
:100220009C464EE003460B433CD4002243088B42DD
:1002300031D303098B421CD3030A8B4201D394466A
:100240003FE0C3098B4201D3CB01C01A524183095D
:100250008B4201D38B01C01A524143098B4201D317
:100260004B01C01A524103098B4201D30B01C01A42
:100270005241C3088B4201D3CB00C01A52418308BC
:100280008B4201D38B00C01A524143088B4201D3E9
:100290004B00C01A5241411A00D201465241104649
:1002A00070475DE0CA0F00D04942031000D34042BE
:1002B000534000229C4603098B422DD3030A8B42F4
:1002C00012D3FC22890112BA030A8B420CD3890192
:1002D00092118B4208D3890192118B4204D3890178
:1002E0003AD0921100E08909C3098B4201D3CB01B6
:1002F000C01A524183098B4201D38B01C01A52416B
:1003000043098B4201D34B01C01A524103098B426E
:1003100001D30B01C01A5241C3088B4201D3CB0059
:10032000C01A524183088B4201D38B00C01A52413C
:10033000D9D243088B4201D34B00C01A5241411A13
:1003400000D20146634652415B10104601D3404241
:10035000002B00D54942704763465B1000D34042F2
:1003600001B50020C046C04602BD704770477047C7
:100370000246C80FC00781434B0030B54B405B00BD
:100380009B0D20D01923DB06C91801231B059942B8
:1003900020DB0324A40704251346AB400BD3002B1A
:1003A00004D1EB0613409B00E34204D4012464070C
:1003B000002312195941FF231B0599420BD2C90092
:1003C0000143500F09E0CB0204D501430803024367
:1003D00005D0054830BDFF21C905084330BD08469A
:1003E00007210905884330BD0000C07F7047000029
:1003F00010B5024800F045FF10BD00000000C07FAE
:10040000FFFFFFFFFFFFFFFFFFFFFFFFFFFFFEFEFE
:10041000F0B50C46871A9C410D46861A9D4103D2C1
:10042000C01BA141D21963410D0D1F0DC94EEC1B1C
:10043000AE435CD07F057F0D0026002F51D02D05E7
:10044000AC46A943DD020123ED0A1B051D43202311
:100450001B1B24D41746E740381871412F46E7404C
:10046000CC199D402818314661410C0D27D16144BB
:100470009A4013D50023401C594152000ED1400828
:10048000400001224B005205D34207D3052040070C
:10049000C14201D5B04900E0B0493046F0BD6B0023
:1004A000002A00D001229A181F23203C1B1B01D5D3
:1004B000002302E0E540281871410C0DD7D001243B
:1004C00024050919C407CD0740084908E40F28434B
:1004D0006144002CD5D00024401C61419A40D0D109
:1004E000CDE76A05520DD9D1C90FC907D5E79C4D93
:1004F0004E00002801D0012400E0002434195F00E0
:10050000002A01D0012600E00026BE19954FAC421A
:100510000CD8AE420AD8B44206D001256D05EC4293
:10052000BCD010461946F0BD9942FCD00020394697
:10053000F0BDF0B51FB40C460F46811A9F41254609
:10054000861A9D4106D20125ED076F40401ABC4135
:1005500052187B41210D1E0D8D1BAC467D4D8D43E8
:100560007ED075056D0D7CD00D05AE46AC431B03EA
:100570001B0B794D52429D41202366469B1B14D391
:100580001746F740381800260090744160462F4601
:100590000741E41900989D402818664116D4714619
:1005A00071189A4025D5012320E093182A466A4104
:1005B0005200002B00D0521C1E23203E9B1B002B00
:1005C00061DD3541EE1728186641E8D500187641FF
:1005D0005B1C9A4000D3401C4B05F3181524E340E4
:1005E00010D3002B52D071467118D30FC01802D30C
:1005F000491C05B0F0BD0123DB079A42F9D1400840
:100600004000F6E701225205B21801D1002853D06C
:100610000123CC0ADB029943891E002A08D1020C6F
:1006200003D0020C0004103902E0024600202039F9
:100630000023550B05D112020823550B01D152019D
:100640000D23550C01D112011B1DD50C01D19200B7
:100650009B1C150D01D152005B1C2025EE1A01E0F8
:100660002CE022E00546F54015439840CA1AE10700
:1006700069181305C918002ABBDA032040070818B7
:10068000C10FC9070FE071466118B2E7F1074008D2
:100690000843711071444A000CD001235B059A4253
:1006A000A7D2C90FC9070020A3E74905490D26D1E4
:1006B000002001E00028F4D100219AE7284D6600CF
:1006C000002801D0012100E0002171185F00002AFC
:1006D00001D0012600E00026BE19224FA94210D801
:1006E000AE420ED8B14208D001256D05E94206D0D0
:1006F0001946A802414010467BE79C4201D02146A2
:1007000077E70020394674E710B50C465C4005D504
:100710000124E4076340FFF70CFF10BDFFF778FEEC
:1007200010BD30B40C465C4004D50124E40763409E
:1007300030BC6DE630BCFCE670B50124E4076140D6
:100740000D465D4002D4FFF763FE70BD6340FFF7C6
:10075000F0FE70BDFF0700000000F0FF0000F07F1A
:100760000000E0FF0000F87FF0B5F94D0C091E090C
:100770002C402E402F468BB0A7437DD0B543FCD0F4
:10078000002E7AD0002CFCD00D465D40ED0F2543A5
:10079000AC1BFF25AD0464190894C502440DC902C1
:1007A0002143500DDC0204430120C00701430443F0
:1007B000D2020191200C110C00958C4601042346B5
:1007C0008B430A9161460904E24D8A430991010A6B
:1007D0007D4449198039097805464D4301266D1835
:1007E000F605751B6943C90C640B891C4C436418DE
:1007F000B5012C1B250C2E04B4434C434D43210C56
:10080000691889090591009DE90701D00121C907EF
:1008100004912C4601996708CD072F434C08059D8C
:10082000E10B4D432D0C29466646754302950D4656
:1008300045432E46029D7D1BB44100950D465D4308
:1008400001942C0C2F040D465543AE462D0C3D4310
:10085000029503947546049C2D04641B049406D2EF
:10086000029C039D641C002675410395029401AC13
:1008700070CC009F7D1B01E03EE162E1B4410904C0
:100880000095079101940599A4086143090C0C4651
:100890004443650BE7040C4666467443A646640B66
:1008A0003C43039502947446049DE4042C1B049479
:1008B00006D2029C039D641C002675410395029498
:1008C00001AC70CC009F7D1BB44101940C465C438D
:1008D0000095650FE7000C465443A646640F3C4361
:1008E000039502947446049DE4002C1B049406D2E4
:1008F000029C039D641C002675410395029401AC83
:1009000070CC009F7D1BB441AE09AF06049DC900A9
:10091000AD092F43049DA406AD060495079D3443FD
:1009200069180791059DE10B4D432D0C294666463C
:10093000754302950D4645432E46029D7D1BB441ED
:1009400000950D465D4301942C0C2F040D46554334
:10095000AE462D0C3D43029503947546049C2D0430
:10096000641B049406D2029C039D641C00267541FE
:100970000395029401AC70CC009F7D1BB44101949F
:100980008C050694079C890A611800950791019CC3
:100990000599A4086143090C0D464543680BEF0413
:1009A0000D46644665436C0B3C43049FED047D1B80
:1009B000AC4602D20025641C6841009E019D371B95
:1009C00085410846584301950C46460FC5005443DF
:1009D000600F28436546E4002C1B02D20025401C12
:1009E0006E41019D3F1AB5412846BD098006284346
:1009F0008446A009BF064E020699A406761807434E
:100A0000079D002068410A99079019430020099B1F
:100A100000906046FF1913434041E20F64003A43DF
:100A2000A4460446D71A8C41A04203D90120009065
:100A300020463A46C70F941840416246D20F2243DF
:100A4000644664000494009CBE466400D71AA44621
:100A5000044602978C417746002F01D1A04204D969
:100A60006046401C8446029A2046C40FA64694184D
:100A70004041049A0546D20F224364466400D31ACB
:100A80008D417146002901D1A84202D928461A4653
:100A9000641C10430122002800D01643610200208C
:100AA000079B891904465C410223002C02DB49188C
:100AB00013466441089DCE0A2D145D194B05670548
:100AC000E10A2C050D1908993E43C9076940002B1E
:100AD00008D0934006D30022761C5141002B01D14F
:100AE000760876001C4A002D43DB154241D0AA430C
:100AF0003FD030460BB0F0BD06180D464D41174CA7
:100B00007642AC411AD395181C465C41134A6D429B
:100B1000A24113D3012252054C00D4420AD15C00F9
:100B2000D4420BD04B4002D592021143E2E7490078
:100B30004908DFE75940C90FC90718E000200849F4
:100B4000D8E7054801420DD10342F7D0F2E7000093
:100B50000000FF07669200000000F07F0000E0FF49
:100B60000000F87F114859400143C0124140002065
:100B7000C0E70123089A9B069A4205DC032252072C
:100B80008918C90FC907B5E7052252078918074A0E
:100B90001143D2125140ADE770B515461C460246CE
:100BA0000B4628462146FFF7DFFD70BDFFFFFF7FA4
:100BB00030B50346CA02400D1043164D164C0A15B7
:100BC00002D02043002A06DBAA1A002A12DDD040F8
:100BD000FF2A0BDC30BD5205520D01D14000400808
:100BE000AA1A07D4D0404042FF2A01DD002030BDC0
:100BF0000028FCDD4A00002B01D0012000E000208D
:100C0000101801225205D042F0D8C817C0436040E6
:100C100030BD00001E04000000000080F0B58B4CC9
:100C20000F09254689B0BD437BD01D092646AE433A
:100C3000FAD00E465E402740F60F3E43254071D065
:100C400024012142FBD0FF24AD19A4042D1B0395E0
:100C500001252D05DB02DB0AC9022B43C90A294302
:100C60001E010901040F130F050121431701880B11
:100C7000820391432D098C46A90B1E438A03954399
:100C8000B30B9A0396433F09BA0B9403A74302960A
:100C90002E467E430497B6464E19D7190C46019648
:100CA000544305977E43371B7646BF1B3601B64635
:100CB000BE0B361900967646BC043719009C01D34A
:100CC000641C00946400002F01D001263443029E6E
:100CD000049F754366467E430496760034196E0081
:100CE00034190094029C019E1C196643751BAE4684
:100CF000069465464519059C05956C435943754610
:100D00000891691A0191049E01465143A41B049164
:100D1000611A009C0791E10605D061090122114387
:100D200002E072E06EE06109089D00272C0A2D06A2
:100D30006918049D7C412A0A2D066918019D6241AB
:100D4000AC0DAD026D185441079A910D92025519E0
:100D50006141029A644658435443069B059A5A439C
:100D6000121A131B9A0E9B015B187A41010B0005A6
:100D7000C3185141220A200644195A419A4200D20E
:100D8000491C01204002814203D315230226F64369
:100D900002E014230326F6432020C51AA940174673
:100DA000AF40DA400A4320460399D840091473182B
:100DB00019055118039A3843D2075140AC4009D065
:100DC0000122944006D30022401C5141002C01D145
:100DD000400840001E4A934212D301220398920613
:100DE000904207DB0520400709181A480143C0124A
:100DF000414004E0032040070818C10FC907002044
:100E000009B0F0BD0020F107FAE705180C464C4187
:100E100011486D42A04115D394181A465A410E4804
:100E2000644290410ED301204A004005824209D31A
:100E30005A00824206D35940C90F084AC907002008
:100E40001143DDE700200649DAE700000000FF0754
:100E5000FE070000FFFFFF7F0000E0FF0000F07FC3
:100E60000000F87F0121C9050123411842001B063B
:100E7000D3185B0E0AD0C1100722D206891840078A
:100E80005242D14201D5520089187047090208D553
:100E90000146002A03D0C10FC90700207047104641
:100EA0007047420202D0002002497047072109051D
:100EB0000143F4E70000F87FF0B5FF252D04C609D3
:100EC000C209FF2704462E400137CB093E43484064
:100ED0002A402B400746002A6BD0002B69D0AA423B
:100EE00067D0AB4265D0002800DA32460125ED0517
:100EF00029432C4309022002090AD21A4B0C7F24F1
:100F0000E31A434C000A7C44E35C7D242404121958
:100F100014145B00A218884201D3521C00E0400068
:100F200049420C465C4324115C43DB016415E31821
:100F3000040A5C43C502200D0C4644436419250A8B
:100F40005D432303EC0C0D46654300030019EB18C9
:100F50004C42A34201D35B18401CD4052018002B3F
:100F600007D05B00C91804D3401C002901D14008F8
:100F700040003F2189048A4209D3002A08DC110677
:100F8000090F04D0032149074018C00FC007F0BD66
:100F900001224100120689187F2252069142F6D2A0
:100FA00005214907C84201D59010F0BDFF20C005BA
:100FB000F0BD002F00DA32461648AA4207D2AB42F3
:100FC00005D21902090E17D0F80FC007F0BDFF2592
:100FD00063002D06AB42F9D84900A942F6D8AB42CE
:100FE00001D1A942F2D0A94201D1002101E0610062
:100FF0004908D0050843F0BD1102090EFBD0FF20BF
:101000000243D005F0BD0A460146104654E70000F1
:10101000B08B00000000C07F10B501469E24000286
:10102000CA15A307002A02D01843002A04DBA21A1B
:10103000002A0CDDD04010BD1206120E01D1400076
:101040004008A21A03D4D04040420028F3DDFF221A
:1010500048001206904201D9002010BDC817C043B5
:10106000584010BD0102C21504D00123DB0719430B
:10107000002A0ADB9E239A1A02D40846D040704701
:10108000FF2241001206914201D900207047C0178B
:10109000C04370471F22030C02D10F2200041CD052
:1010A000030E01D10002083A030F01D10001121F03
:1010B000830F01D18000921E002801DB4000521EE8
:1010C000D2055118021251181922904004D3491C1C
:1010D000002801D14908490008467047C10FC907D7
:1010E00000D04042012292071143D3E70121890732
:1010F000D0E7000010B5FF22C30D134009D05A40BD
:1011000007D0914205DA5C42A14202DDC905081808
:1011100010BDC40FE407002B06D0002A06D000291A
:1011200002DBFF20C0050443204610BD4102FCD075
:10113000004810BD0000C07F70B505464800440D52
:10114000124B0020002C0AD0634008D09A4206DAE5
:101150006642B24203DD12054019514170BD002CB8
:1011600008D0002B09D0C90FC907002AF6DB084AAE
:10117000114370BDC90FC90770BD28460A0310434B
:1011800002D00020034970BD284670BDFF07000053
:101190000000F07F0000F87F10B5FF231B0644001D
:1011A0009C421DD84C009C421AD80346124A0B435D
:1011B00007D4401A02D3EFF3008010BDEFF3008094
:1011C00010BD081A06D2EFF3008001219043C90731
:1011D000084302E0EFF30080904380F3008810BDE5
:1011E0000D231B041A4204D01146002000F006F81B
:1011F00010BDFFF7FDF810BD00000090C80212D529
:101200004803400F002804D0C803C0430121884090
:101210007047EFF30080000100090321090708432C
:1012200080F3008870470020704700000048704736
:10123000CC0600207546FFF7F9FFAE46050069466B
:101240005346C008C000854618B020B5FEF78AFF97
:1012500060BC00274908B6460026C0C5C0C5C0C549
:10126000C0C5C0C5C0C5C0C5C0C5403D49008D464C
:10127000704710B50446C046C0462046FEF75DFFE5
:1012800010BD10B50C461107090F092904D00A2911
:101290000AD008290CD104E011460820FFF7AEFF60
:1012A00006E0510606D501E0510601D50120C00730
:1012B000214610BDD10607D501010909CC0849070F
:1012C000000E0006044309E0410F20024907000A0E
:1012D0000143200E00061D22D14101430846E7E7E5
:1012E00070B58C180578401C6B075B0F01D1037833
:1012F000401C2A1106D10278401C03E00678401CED
:101300000E70491C5B1EF9D12B0705D40023521E19
:101310000DD40B70491CFAE70378401CCB1A921CC1
:1013200003E01D780D70491C5B1C521EF9D5A142CB
:10133000D8D3002070BD000030B5094A0020064C0B
:101340000649137804E022694500401C4A53C0B2A4
:101350009842F8D330BD000000B00340ECF5FF1F09
:1013600054F0FF1F70B5174CE089401CE081A08845
:10137000401CA08000F05AFB2089401C208100F016
:101380009DF8208A0025401C80B22082062806D3C2
:101390002078012803D12582A58000F0E1FA03F02E
:1013A0003BFD00F095F9608A401C0004000C60824F
:1013B00003D06582258100F01BF800F09BF8E581E1
:1013C00070BD000000F0FF1F10B5034A012100208E
:1013D00003F034FE10BD00006513000010B50021BD
:1013E000252004F051FC012003F0A2FE10BD0000F6
:1013F000FEB52C492A200027085EFFF76FFE294E14
:101400000290294C403EF06FE16A05F0FDFD01902D
:10141000A16B05F0F9FE0246009030465C38019958
:1014200004F030FF30468038C16C204B1A029942DC
:10143000C16C00D35140456D9D42456D00D3554070
:10144000E763019805F050FE07462946009805F02D
:101450004BFE00901649029805F0D6FE154905F09E
:1014600043FE0546606AA0621349009805F03CFE01
:101470000146002005F0C8FD394605F0C5FD2946A6
:1014800005F0C2FD60628121F06FC905884205DA6E
:101490007F21C905C84201D2002060620198A06383
:1014A000FEBD000094F5FF1F00F0FF1F00008080CC
:1014B0000000E8C1CDCCCC3D3333333F70B50B4C8D
:1014C000A16A606A0D4605F09FFE06462089401C11
:1014D000FFF70CFE314605F007FE0549FFF7ECFC6F
:1014E000294605F091FD206270BD000000F0FF1F4D
:1014F0000000A040FEB500206946888008802E4C80
:101500000A20205EFFF7EAFD06460620205EFFF770
:10151000E5FD216A054602916069074605F074FD04
:10152000294605F071FD314605F06EFDFFF774FDAB
:10153000694688803846029905F066FE294605F01E
:1015400063FD314605F060FEFFF766FD69460880E1
:101550001A491020085E69460423CB5E424211B24C
:10156000984202DA6B46988005E06D460423EB5EF4
:101570009A4200DDA9806D460023EB5E984201DAB5
:10158000288005E00020285E2B46824200DD19807D
:10159000A9880A484038418129888181A089022888
:1015A00002D90021084603E00021695E0420285E7C
:1015B00002F030FFFEBD000000F0FF1FD4F5FF1F5A
:1015C000FEB50024224E244F347077632148B46363
:1015D000F0632248B0622248706222482546F064D7
:1015E000214870652148F565B06521483066304670
:1015F000243004F0FDFF00952B462A461D49304655
:10160000019505F049FBFD235B021420604381191D
:10161000084640300A460586603215715571C5840A
:10162000CD66E100C9180A880285641C8988E4B285
:101630004185052CE9D306486421803001828184EC
:101640004582C58480300C49C7600182FEBD000020
:10165000D4F4FF1F0000C841000070410000F041B9
:101660000000B44200004041000034430000184232
:10167000000011440000A142B603000000B589B08B
:1016800020216846FEF7C2FD0748C068009072B688
:10169000FC2004F00DF9042200236946FC2004F02C
:1016A0004DF962B609B000BDD4F5FF1F06480549E3
:1016B00001607F21C9058160FF3004490130C160AC
:1016C0007047000000007543D4F4FF1F00009041F4
:1016D000F8B55A4E5A4FF08C0A2805D2708F0A2856
:1016E00002D2B889401CB881544D554A403529462C
:1016F00080395078CC1DEB8E8446F934D278E031B5
:1017000020682D2B1AD96346134317D14D4B9842AD
:1017100008D903230B760021F9624B49E1600121CE
:10172000797014E0494B984208DD04230B760021C0
:10173000F9624549E1600121797018E06346012BA7
:1017400028D1097E032902D0042910D022E0FF21EC
:10175000C905C8421ED2002A1CD13D48F8620120AA
:1017600002F000FE686F7863022078700EE00121BD
:10177000C90588420EDA002A0CD13648F8620220E8
:101780007870686F7863022002F0ECFD02F019FCBB
:101790000120B870E86E30494000400805F0FCFCBC
:1017A0000DD2B87801280AD10020B8707863F862A9
:1017B000787002F0C3FD2848E06002F0FCFB686F1F
:1017C000796B05F021FD40004008204905F0E4FC5C
:1017D00002D2B878012803D0F878012807D017E0A2
:1017E00000200121F862F970B8701B48E060686F52
:1017F000796B05F009FD40004008184905F0CCFC64
:1018000006D20220F8701048E060002002F096FD39
:10181000E88E282810D2F08C64280DD2708F6428AE
:101820000AD2F878022807D10B48E06002F0C3FB27
:101830000020F862F8707870F8BD000014F5FF1F02
:1018400000F0FF1F000020C20000204100002042E5
:101850000000F0C10000F04100007041000048436A
:101860007CB5354C354DA089002815D1384934A0B8
:101870008861E868A062084601F094F820462C30A0
:1018800000F0F3FB2046443000F0EFFB20465C30D4
:1018900000F0EBFB0120A0812E487F260078F605A2
:1018A000012822D007282AD0042837D02248012135
:1018B0002C3000F02AFB20480121443000F025FBA9
:1018C00018250C2324A210210A20009505F08AF97E
:1018D000A06AFFF7C7FB02460C20009002231021EC
:1018E0000195582005F0EAF87CBD134800212C3002
:1018F00000F00BFB3146A06A05F086FB0CE00E48B9
:101900000021443000F001FB0121A06AC905884292
:10191000D6DB314605F078FCA062D1E7A06AE8602A
:101920000020A081FFF7AAFE03F0D8FE022005F0F8
:101930002DFAFFF749FDC3E720F4FF1FD4F5FF1F81
:1019400053657420546172676574537070656400E8
:10195000C0F3FF1F1DF4FF1F53706565643A00005C
:101960003EB500200090019002900A2004F070F92A
:10197000012847D0012004F045FC40420090262079
:1019800004F066F9002841D0002004F03BFC4042FE
:101990000190002004F02EFC012004F02BFC1D48D7
:1019A0000099016501994165019900984018FFF778
:1019B00095FB0021C943FFF79DFBFFF753FA164A39
:1019C000164BFFF72BF90022154BFFF727F90022E2
:1019D000144BFEF7C9FEFEF7CBFC0E4A01468032DF
:1019E0009060D268104605F00FFC0F4C0290A06981
:1019F000E06108480299803805F05AF9A061029820
:101A000020633EBD012004F0FDFBB7E7002004F099
:101A1000F9FBBDE754F5FF1FABAAAAAAAAAAB03FDB
:101A200000003D400000514000F0FF1F38B50E4C53
:101A3000E169A0690D4605F0E7FB0090A088401C15
:101A4000FFF754FB009905F04FFB0849FFF734FA04
:101A5000294605F0D9FA06496061884202DC054949
:101A6000884200D9616138BD00F0FF1F0000F041DD
:101A700000001644000016C47CB5334C334D608919
:101A8000002815D1364932A08861286E6062084668
:101A900000F088FF20462C3000F0E7FA2046443062
:101AA00000F0E3FA20465C3000F0DFFA01206081AC
:101AB0002C482D4E0078012822D007282AD004284F
:101AC00033D0214801212C3000F01FFA1E4801219B
:101AD000443000F01AFA18250C2324A210211420F7
:101AE000009505F07FF8606AFFF7BCFA02460C200B
:101AF00000900423102101953A2004F0DFFF7CBD03
:101B0000114800212C3000F000FA3146606A05F0DF
:101B10007BFA08E00C480021443000F0F6F9314629
:101B2000606A05F071FB6062D5E7606A286605F0BF
:101B30000BF90020608103F0D1FD022005F026F9A9
:101B4000FFF742FCC7E7000020F4FF1FD4F4FF1F9B
:101B5000446972656374696F6E204B640000000015
:101B6000C0F3FF1F1DF4FF1F0000A0404B643A00AC
:101B70007CB5354C354DE088002815D1384934A066
:101B80008861A86DE061084600F00CFF20462C300B
:101B900000F06BFA2046443000F067FA20465C30D3
:101BA00000F063FA0120E0802E483F2600783606D8
:101BB000012825D007282DD0042836D0224801211D
:101BC0002C3000F0A2F920480121443000F09DF9AA
:101BD00018250C2324A210211420009505F002F8EA
:101BE0002249E06905F080FAFFF73CFA02460C2032
:101BF00000900423102101953A2004F05FFF7CBD82
:101C0000114800212C3000F080F93146E06905F0E0
:101C1000FBF908E00C480021443000F076F9314629
:101C2000E06905F0F1FAE061D2E7E069A86505F046
:101C30008BF80020E08003F051FD022005F0A6F8AB
:101C4000FFF7C2FBC4E7000020F4FF1FD4F4FF1F1E
:101C5000446972656374696F6E204B700000000008
:101C6000C0F3FF1F1DF4FF1F4B703A00000020411E
:101C7000F8B5244C05462078002841D0284604F0C9
:101C800011FDE061002120626956814201DD0020E2
:101C900028701C482978007F1A4C401AC6B260345C
:101CA00068782169884200D800261648666160304D
:101CB00000F078FE13487C3086616978016100F09D
:101CC000E3FD20696978C7B2814200D20F46002443
:101CD0000AE030191C21484342192001011B1E2033
:101CE000133100F04DFC641CBC42F2DB05491C22A0
:101CF000086A5043401901228861827000200870F0
:101D0000F8BD000060F3FF1FF8B5002A7ED0540034
:101D100054438718012B41D0861A022B7BD0032B0A
:101D200076D0042B72D11546002600910098069AB1
:101D3000C1B2B8B200F000FD0098761C401E0090C1
:101D40006800024671006A4371435118091B081A62
:101D5000401C002801DD6D1E7F1EAE42E6DB0098B0
:101D6000069AC1B2B8B200F0E7FC28464100700004
:101D70006D1E891E0246694372438918091B0818A3
:101D8000401C7F1E002803DC0098401E761C00903B
:101D9000002DE4DC0098C1B2B8B276E000970D46A1
:101DA000164600270098E9B280B2069A00F0C4FCFB
:101DB00070007F1C01467A0071437A438918091B21
:101DC000081A401C6D1C002803DD0098401E761E7A
:101DD0000090B742E6DB0098E9B280B2069A00F0C4
:101DE000ABFC00993046491E009141007800761EF8
:101DF000891E024671437A438918091B0818401C42
:101E0000002801DC6D1C7F1C002E02E040E002E097
:101E10003FE0E0DC75E01546002700910098069A47
:101E2000C1B2B0B200F088FC00987F1C401C00904A
:101E30006800024679006A4379435118091B081A61
:101E4000401C002801DD6D1E761CAF42E6DB0098C9
:101E5000069AC1B2B0B200F06FFC2846410078008B
:101E60006D1E891E024669437A438918091B0818AA
:101E7000401C761C002803DC0098401C7F1C00904E
:101E8000002DE4DC0098C1B2B0B2069A00F054FC18
:101E9000F8BD00960D46164600270098E9B280B2BC
:101EA000069A00F049FC70007F1C024679007243DC
:101EB00079435118091B081A401C6D1E002803DDC8
:101EC0000098401C761E0090B742E6DB0098E9B20D
:101ED00080B2069A00F030FC00993046491C00910F
:101EE00041007800761E891E024671437A438918A4
:101EF000091B0818401C002801DC6D1E7F1C002EE9
:101F0000E4DC0098E9B280B2BFE77CB50446C06863
:101F10000D460E287DD3A0681E287AD3206904F0D0
:101F2000BAFBA168884274D825750C2661682068C0
:101F3000002D11D00122801D891D00F02EF920698D
:101F400004F0A9FBA168081A218840084018002164
:101F500080B2009601916CE00022801D891D00F086
:101F60001CF9012500952068616803230622801D65
:101F7000891DFFF7C9FE0095A168206842186168B5
:101F8000801D0B46D21F00F094FA0095A1682068CE
:101F90000423401861680622C01F891DFFF7B4FEA4
:101FA0000095E1686068A268411820684B1E82189D
:101FB000801D491ED21F00F07CFA0095E168606820
:101FC000A26841182068012380180622C01FC91F7B
:101FD000FFF79AFE00956168E0680B182068891D7C
:101FE0000246DB1F00F065FA0095E1686068022395
:101FF000411820680622801DC91FFFF785FE009545
:102000006168E068A2680B1820688018421E401EB4
:1020100000E018E0891DDB1F00F04BFA206904F096
:102020003AFBA168081A21884008401880B200963F
:102030000195E168A2880C394908511889B20C232E
:10204000226904F053FF7CBD10B504F06DFC10BD97
:1020500038B51446C9B280B26A4600F0AAFB684699
:10206000017801206140884338BD7CB50446C068D2
:102070000E287BD3A0681E2878D3206904F00BFBC0
:10208000A168884272D80125009520686168032301
:102090000622801D891DFFF737FE0095A168206884
:1020A00042186168801D0B46D21F00F002FA0095AD
:1020B000A16820680423401861680622C01F891D9A
:1020C000FFF722FE0095E1686068A2684118206869
:1020D0004B1E8218801D491ED21F00F0EAF90095A0
:1020E000E1686068A2684118206801238018062210
:1020F000C01FC91FFFF708FE00956168E0680B1854
:102100002068891D0246DB1F00F0D3F90095E168C5
:1021100060680223411820680622801DC91FFFF74E
:10212000F3FD00956168E068A2680B182068891DBE
:102130008018421E401EDB1F00F0BBF9207D0C26DC
:10214000002814D0206861680122801D891D00F0DC
:1021500024F8206904F09FFAA168081A2188400831
:102160004018002180B2009601910BE014E0206934
:1021700004F091FAA168081A21884008401880B23A
:1021800000960195E168A2880C394908511889B276
:102190000C23226904F0AAFE7CBDF7B5D8B00C462A
:1021A0000546802874D2402C72D2E1B2A8B250AA5F
:1021B00000F0FFFA50A802785A98D107C007C90F5B
:1021C000C00F814264D021462846559400F0CCFAD5
:1021D0000646569050A802782146284600F0F1FAAB
:1021E000549080194008299401942890012400906B
:1021F000254601E0002D7BD0E90028A8081880388A
:10220000816F5291C66F50A86D1E0278EDB23146B3
:10221000529800F0A9FA539050A80278314652988B
:1022200000F0CFFA519050A80278761C31465298AF
:10223000FFF70EFF002804D050A8027831465298CC
:1022400015E0539F08E050A8027831463846FFF762
:10225000FFFE002803D17F1C51988742F3D9519883
:102260008742C7D850A8529702783146384600F0C6
:10227000A8FA519050A802783146529800F074FAAA
:102280005390142C1FD2471E58975990074617E0B9
:102290007EE050A80278711E3846FFF7D9FE00286C
:1022A00027D059995898884207D05891E00069463C
:1022B0000F504018641CE4B24660142C03D27F1CFB
:1022C00051988742E5D9539951985A9B4018400834
:1022D00052905198F1B282B2539880B200F0D5F882
:1022E000142DA0D2539F59977F1E5897599F19E0DC
:1022F0001FE05997E1E750A80278711C3846FFF7B4
:10230000A7FE002813D059995898884207D05891B1
:10231000E80028A90F5040186D1CEDB24660142D3E
:1023200081D27F1C5198874200D97CE7E3E7599717
:10233000F5E7002C20D0E100684608188038816F4E
:102340005291C66F50A8641E0278E4B2314652988A
:1023500000F00AFA539050A802783146529800F0E3
:1023600030FA074650A80278761E31465298FFF799
:102370006FFE00280ED020E0002D00D03AE75498E0
:102380005A9B82B25598C1B2569880B200F07DF83F
:102390005BB0F0BD539809E050A8027831465198DF
:1023A000FFF756FE002804D15198401C5190B842C6
:1023B000F2D95198B842BCD8529050A80278314610
:1023C000529800F0FEF9074650A80278314652981C
:1023D00000F0CAF95390142D20D25990401E589005
:1023E000599818E050A80278711C5198FFF730FEF8
:1023F000002826D059995898884208D05891E8006A
:1024000028A9519A0A5040186D1CEDB24660142D4F
:1024100004D25198401C5190B842E3D95398BAB2B3
:102420003818400852905398F1B280B25A9B00F08D
:102430002CF8142C96D253985990401E58905998C5
:102440001BE051985990E2E750A80278711E51980C
:10245000FFF7FEFD002815D059995898884208D0FA
:102460005891E0006946519A0A504018641CE4B241
:102470004660142CDED25198401C5190B84200D9CD
:1024800070E7E1E751985990F3E7F8B515461E4615
:102490000F460446A84202D9D0B225460446324629
:1024A0003946204600F048F9641CA4B2A542F6D291
:1024B000F8BDFFB583B0054605980C46411B06984C
:1024C0000027021BFF43002902DD0120029002E0E9
:1024D000002904DA0297002A09DD012711E0C2B2BF
:1024E000E1B2A8B20C9B00F02CF907B0F0BD002AB5
:1024F00007DB0598E1B282B2A8B20C9BFFF7C5FFDB
:10250000F3E70298484339465143420000924A009B
:10251000019288421CDB161A0098101A00900EE0F7
:10252000E1B2A8B20C9A00F007F902982D18002E1B
:1025300002DA0198361802E000988619E419059825
:102540008542EDD1E1B2A8B20C9A00F0F5F8CCE7E3
:102550000098461A801A01900EE0E1B2A8B20C9AD7
:1025600000F0EAF8E419002E02DA0098361803E0C9
:102570000198861902982D1806988442EDD1E1E75A
:10258000FEB514460D460646802805D8402D03D8D2
:10259000022D01D3122E01D20020FEBDE0680028DA
:1025A000FBD0A27830461023A91E12380C27002A2F
:1025B00012D06268002A04D0C9B2C0B2009304F0FD
:1025C000BAFA002001900097A9B2B0B20C23E268D9
:1025D00004F08CFC0120FEBDA268002A05D0009307
:1025E000C9B2C0B2102304F0A6FA0120EAE7000045
:1025F00010B5002902D00121002401E000210124AE
:102600000448FFF782FC034821461830FFF77DFCA1
:1026100010BD000028F3FF1FFEB581680446142991
:102620003CD3E068142839D325686A18802A35D845
:1026300061680B18402B31D800272846521E5B1EBC
:10264000009700F0F4F8012500956168E068A26841
:102650000B1820685B1E8218521E00F0CAF82088F2
:102660002189304B4118491E8AB2217980B20E313E
:10267000C9B21B78FFF709FF0095A16820684218CE
:102680006168521E0B460D3300F0D1F8206904F04A
:1026900017F80246A068811E8A4201D90020FEBDBB
:1026A00080B20C26019700960290A0883346401C09
:1026B00081B22088226980B204F070FC1A48077544
:1026C000A16901612168491D0160E268616889189A
:1026D000C268891A091F4160FFF7C7FC1248183009
:1026E0000575E1690161A268216889188268891A03
:1026F000891F0160E26861688918C268891A091F28
:102700004160FFF7B2FC00960195A0880C231130C0
:1027100081B220886269801D80B204F0E7FB01204D
:10272000FEBD000024F3FF1F28F3FF1F0148007DBA
:102730007047000028F3FF1F10B5C0B204F00AF97B
:1027400010BDF8B515461E4607460C46A94201D9EC
:102750000D461446324621463846FFF7EDFF641C0D
:10276000E4B2A542F6D2F8BDF8B5D507441EED0F88
:102770000E46002C0ED0F1B2A0B26A4600F019F855
:1027800068460078C007C00FA84201D0601CF8BDA1
:10279000641EF0D1F1B200206A4600F00AF86846E3
:1027A0000078C007C00FA84201D00120F8BD00206A
:1027B000F8BD10B51446C0B204F0E8F8207000204F
:1027C00010BDF8B5441CD5070E46ED0F0DE0F1B273
:1027D000A0B26A46FFF7EDFF68460078C007C00F59
:1027E000A84201D0601EF8BD641C802CEFD380206D
:1027F000F8BDF8B51C4615460E46074692B2C9B25A
:1028000080B2069BFFF741FEAAB2E1B2B8B2069BC6
:10281000FFF73BFEE2B2F1B2B8B2069BFFF791FFC1
:10282000E2B2F1B2A8B2069BFFF78BFFF8BDF8B594
:1028300017461E460C460546B84201D915460746BE
:10284000B44201D91C460E46B44206D1BAB2E1B236
:10285000A8B2069BFFF719FEF8BDBD420DD1F2B23A
:10286000E1B2A8B2069BFFF76CFFF8BDBAB2E1B2C5
:10287000A8B2069BFFF709FE641CB442F6D9F8BD66
:1028800010B504F097F810BDF8B5040052D0A26856
:102890000A2A4FD3E06814284CD3012500956168BB
:1028A0000B1820685B1E8218521EFFF7A2FF082635
:1028B0000096208921780838400808182179C0B28C
:1028C000491CC9B233461C4A04F035F900962079F8
:1028D000217B227840180938C1B2208908230838A2
:1028E00040081018144AC0B2083204F024F90095C8
:1028F000A168206842186168521E09310B46FFF733
:10290000D8FD0095E1686068A268411820680A391E
:1029100082180B46521EFFF7CCFDE0686269216900
:1029200014388A4202D25043FDF772FCE06120461F
:1029300000F004F8F8BD00000A9A0000FEB5044655
:102940008189808B091A14398EB22188491C8AB278
:102950000192A188721E0A318DB28018218900224D
:102960000092C91E019A89B280B257182B183A46B4
:1029700029460198FFF75BFF21696069814201D810
:10298000002005E0A069491E7043FDF741FC80B2BC
:10299000012100912918E269019853183A46FFF77E
:1029A00046FFFEBDFEB58168044614293BD3E368AB
:1029B000142B38D320684218802A34D86168CB1889
:1029C000402B30D80025521E5B1E0095FFF72FFFCD
:1029D000012600966168E068A2680B1820685B1EFB
:1029E0008218521EFFF705FF20882189174B4118D6
:1029F000491E8AB2217980B20E31C9B21B78FFF725
:102A000044FD0096A168206842186168521E0B467A
:102A10000D33FFF70CFFA06903F059FE0246A068D2
:102A2000811E8A4201D90020FEBD80B20C21019591
:102A300000910290A0880C23401C81B22088A269DA
:102A400080B204F0ABFA0120FEBD000024F3FF1FAA
:102A500010B5242003F0FCF8012801D0012010BD9E
:102A6000002010BD10B51C2003F0F2F8012801D0A1
:102A7000012010BD002010BD10B51B2003F0E8F8A8
:102A8000012801D0012010BD002010BDF8B50F4D68
:102A90000024A8680E4E000712D50E4F38788442E5
:102AA0000ED2E96820460C2250433258114204D01D
:102AB00080198068002800D08047641CE4B2EDE7EC
:102AC000A86824210843A860F8BD000000900740D2
:102AD0007CF6FF1F6EF0FF1FF8B50F4D0024A868AD
:102AE0000E4E000712D50E4F387884420ED2E96898
:102AF00020460C2250433258114204D0801980687D
:102B0000002800D08047641CE4B2EDE7A8682421C7
:102B10000843A860F8BD000000A007407CF6FF1F36
:102B20006EF0FF1F10B52C2003F092F810BD10B509
:102B300001212D2003F0A8F810BD10B500212D2093
:102B400003F0A2F810BD10B501212C2003F09CF871
:102B500010BD10B500212C2003F096F810BD08B56B
:102B600000206A46D07050702C2111709070684619
:102B700002F0AAFF08BD08B500206A46D070012106
:102B800051702C2111709070684602F09DFF08BDB5
:102B9000F0B50021124D134F134B0A4605261C2099
:102BA0004843401946708C008270476082601C590F
:102BB00002614261491CC9B2C46082610529EED339
:102BC0000120A870094828610948E86204480A49B8
:102BD0008C30686307486866014880300160F0BD4A
:102BE000B80400201A9A0000A0F3FF1F2567000018
:102BF000F5660000AD6D0000DD660000F8B5674EBB
:102C00007068FFF735F8664900270878002800D07B
:102C10007761624C6034012802D0072855D159E011
:102C20003E237522122101200097FFF700FE306A33
:102C30001C21484371684018B0618770306A401C9D
:102C4000306272685178491E814200DC3162306A1C
:102C50001C21484380180121B0618170726810788E
:102C6000401C43B21370204651782469A14205D814
:102C70000D468B420EDB491E11700BE0E5B2641E5F
:102C8000A34207D914700269891A4269914201D995
:102C9000521C4261002410E040481C216030406911
:102CA0004843716841181C2060430A182001011B29
:102CB0001E201331FFF764FC641CAC42ECDB374888
:102CC000316A7C308161FFF739FE3548007804288D
:102CD00049D04DE03E237522122101200097FFF7D5
:102CE000A6FD316A1C22514372688818B061877052
:102CF000306A401E3062002800DC3762306A1C21D6
:102D00004843716840180121B0618170716808788A
:102D1000401E42B20A704D78236920469D4203D876
:102D2000002A0ADA0F7008E0DDB2002A05DA0F7017
:102D30004169002901D0491E6161002410E0174853
:102D40001C21603040694843716841181C20604371
:102D50000A182001011B1E201331FFF711FC641C0F
:102D6000AC42ECDBABE7B0690069002800D08047DB
:102D70007069411C716164280FDD7761B069416938
:102D8000002908D08770F0691C21484371684018F9
:102D90000121B061817003F09FF8F8BD60F3FF1F5F
:102DA0001DF4FF1F8307FF22DB0E9A408907090EDF
:102DB000994000280BDA0007000F083883080848FC
:102DC0009B001818C36993430B43C3617047830882
:102DD00004489B001818036893430B430360704733
:102DE00000ED00E000E400E08307FF22DB0E9A40E4
:102DF0008907090E994000280BDA0007000F0838F0
:102E0000830808489B001818C36993430B43C361A8
:102E10007047830804489B001818036893430B43CA
:102E20000360704700ED00E000E400E0F0B5002131
:102E3000134B144C144E0A4605251C204843C01859
:102E400082610261446082608F00827045704261DD
:102E5000491CF759C9B2C7600529EED30120987003
:102E60000A4818610A48D8620A4898640A4804491E
:102E7000586603488C398030816008490160F0BD94
:102E8000D00500201A9A000084F3FF1F816700001C
:102E9000696700005167000039670000F5660000AF
:102EA00010B5074CE068C00704D006480068002849
:102EB00000D08047E06801210843E06010BD0000B9
:102EC000007103404CF0FF1F10B5074CE069C007CC
:102ED00004D006484068002800D08047E0690121FE
:102EE0000843E06110BD0000007103404CF0FF1F7B
:102EF000F0B50021114C124B124E0A4603251C203E
:102F00004843001945708261026143608F0082600E
:102F100082704261491CF759C9B2C7600329EED3D8
:102F200001200649A0708C31A16107482061074942
:102F3000E16202498C392165A064F0BD440500209E
:102F40001A9A0000B4F3FF1FF566000099670000AD
:102F500010B5074C6078002808D0201DFFF722FD2F
:102F600020462030FFF790FC0020607010BD00006C
:102F700094F4FF1FF0B585B0FFF7EAFFFC4EFB4964
:102F80000020F71D085606250C210124F93780364C
:102F9000002806D0012870D002286FD003286ED0F8
:102FA000BFE20C2000900623F2A20F21032003F0C1
:102FB00019FE0C200190EE48009540300290C28C22
:102FC00003230F211B2003F079FD0C200090062322
:102FD000EAA20F21412003F005FE0C200190029887
:102FE0000095428F03230F215F2003F067FD0C2023
:102FF00000900623E3A21B21032003F0F3FD0C2025
:10300000019000951B21F2890323084603F056FD29
:103010000C2000900623DDA21B21412003F0E2FDDD
:103020000C2001900095728C03231B215F2003F07C
:1030300045FD0C2000900623D6A22721032003F093
:10304000D1FDFF21F06FC905C84219D30C200090B3
:1030500006232D22272101941B2003F0CFFC012100
:10306000F06FC9074840FDF7D7FF02B20C200323D9
:1030700027210190009521200BE07AE0CCE11AE2B3
:10308000FDF7CAFF02B20C2001900423272100950E
:103090001B2003F013FD0C2000900623BFA2272164
:1030A000412003F09FFDFF213868C905C84216D3AF
:1030B0000C20009006232D22272101945A2003F092
:1030C0009DFC01213868C9074840FDF7A5FF02B201
:1030D0000C200323272101900095602008E0FDF7D4
:1030E0009BFF02B20C2001900423272100955A2057
:1030F00003F0E4FC0C2000900623AAA23321032055
:1031000003F070FD0C20019036220095B25E03237F
:1031100033211B2003F0D2FC0C2000900623A2A236
:103120003321412003F05EFDFF207968C005C142D4
:103130000CD30C2606232D2233215A20009601940D
:1031400003F05CFC78687107484009E00C26062310
:10315000202233215A200096019403F04FFC786816
:10316000FDF75AFF02B20323332160200196009538
:10317000D5E10C20009006238CA20F21032003F040
:1031800031FD306D00280EDA0C20009006232D2230
:103190000F210194152003F031FC0C2000950190C3
:1031A000306D42420CE00C200090062320220F21BB
:1031B0000194152003F022FC0C2000950190326D43
:1031C00004230F211B2003F079FC0C200090062320
:1031D00077A20F213D2003F005FD706D00280EDA67
:1031E0000C20009006232D220F2101944F2003F084
:1031F00005FC0C2000950190706D42420CE00C2003
:103200000090062320220F2101944F2003F0F6FBAB
:103210000C2000950190726D04230F21552003F0BE
:103220004DFC0C200090062362A22121032003F014
:10323000D9FC4F4E0A20C036305E002812DA0C202E
:10324000009006232D2232210194152003F0D6FB95
:103250000C20019000950A20305E04234242322166
:10326000252010E00C20009006232022322101941A
:10327000152003F0C3FB0C2001900A220095B25EDA
:10328000042321211B2003F019FC0C2000900623AD
:1032900049A221213D2003F0A5FC0C20305E00282E
:1032A00010DA0C20009006232D22322101944F20A9
:1032B00003F0A4FB0C2000950190305E04234242F1
:1032C00032210EE00C2000900623202221210194BF
:1032D0004F2003F093FB0C2000950190325E0423F5
:1032E0002121552003F0EAFBBE683046FDF794FE2D
:1032F0000A2102904843FDF7F1FE314603F078FFC2
:103300002E4903F0F1FEFDF787FE0C2603900623FD
:103310002BA233210096032003F064FCFF20B96840
:10332000C005C14250D30298062340420290039840
:103330002D224742332127200096019403F05EFBA3
:1033400002230196009533212D20029A03F0B6FB4B
:1033500006232E22332139200096019403F04EFBE0
:1033600002233A46019600954AE0000094F4FF1FBC
:10337000D4F4FF1F48464C3A000000004846523A39
:103380000000000048424C3A000000004842523A17
:10339000000000004841453A000000005641453A0F
:1033A00000000000484D3A0041453A004C453A00C3
:1033B00052453A004C503A0052503A000000C84280
:1033C00053706565643A00000623202233212720CC
:1033D0000096019403F012FB02230196009533211D
:1033E0002D20029A03F06AFB06232E223321392076
:1033F0000096019403F002FB039A022301960095C4
:1034000033213F2003F05AFB062363A233214E20D1
:10341000009603F0E7FB84E00E46009106235FA2CE
:103420000F21032003F0DEFB5E4F5F49386803F095
:103430005BFEFDF717FE024604230F211B200196B9
:10344000009503F03BFB062358A20F21372000967E
:1034500003F0C8FB5449786803F046FEFDF702FE0E
:10346000024604230F2155200196009503F026FB08
:10347000062350A221210320009603F0B3FBB86D70
:10348000FDF7F0FD0246042321211B200196009543
:1034900003F014FB062349A221213720009603F0F4
:1034A000A1FB386EFDF7DEFD0246042321215520E5
:1034B0000196009533E00E46009114210623414AFF
:1034C000084603F08FFB7968FF20C005C1420096D3
:1034D00001940AD306232D221421262003F08EFA0C
:1034E00001217868C907484006E0062320221421FC
:1034F000262003F083FA7868FDF7B4FD0246022324
:1035000014212C200196009503F0D8FA1820019080
:1035100024480096E030027E1E210123084603F075
:10352000CDFA29482949007807280AD0012820D057
:10353000042804D1081F4470002003F027FC05B0C4
:10354000F0BD224A121F1078401E40B21070547015
:10355000002801DA032016E000201056002816D0BB
:10356000012812D0022814D00328E8D118A08861BD
:10357000E5E7164A121F1078401C40B210705470D4
:103580000328E9DD00201070E6E714A0EFE718A09B
:10359000EDE71CA0EBE70000522F5300534B503ACD
:1035A00000000000D4F4FF1F00002041534B493AB3
:1035B00000000000444B503A00000000444B443AE5
:1035C00000000000A83300001DF4FF1F98F4FF1F47
:1035D000526F616420446574656374004D6F746F4D
:1035E0007220506172616D65746572730000000035
:1035F00053656E736F7220506172616D6574657290
:103600007300000050494420506172616D6574651B
:1036100072730000F0B50346084649008C465C5AB8
:1036200015E0521E904203DA5100595AA142F8D2D5
:103630005100904204DA5D5AA54201D8401CF8E7D7
:10364000904204DA46009D5B5F5A9F535D52904260
:10365000E8DB41005D5A62469D525C52F0BD0000BD
:103660007CB5354C354D6088002815D1374934A0DC
:103670008861686860610846FFF794F920462C303D
:10368000FEF7F3FC20464430FEF7EFFC20465C30AA
:10369000FEF7EBFC012060802D483F2600783606BF
:1036A000012825D007282DD0042836D02248012112
:1036B0002C30FEF72AFC204801214430FEF725FC7F
:1036C00018250C2323A210211420009503F08AFA58
:1036D0002149606903F008FDFDF7C4FC02460C2097
:1036E00000900423102101953A2003F0E7F97CBDF6
:1036F000114800212C30FEF708FC3146606903F0C8
:1037000083FC08E00C4800214430FEF7FEFB314604
:10371000606903F079FD6061D2E76069686003F079
:1037200013FB0020608001F0D9FF022003F02EFB84
:10373000FDF74AFEC4E7000020F4FF1FD4F4FF1F8A
:103740005370656564204B6900000000C0F3FF1FE3
:103750001DF4FF1F4B693A00000020417CB5354C39
:10376000354D2088002815D1374934A08861286854
:1037700020610846FFF716F920462C30FEF775FC4D
:1037800020464430FEF771FC20465C30FEF76DFCAD
:10379000012020802D483F2600783606012825D0BC
:1037A00007282DD0042836D0224801212C30FEF7DE
:1037B000ACFB204801214430FEF7A7FB18250C2361
:1037C00023A210211420009503F00CFA214920694E
:1037D00003F08AFCFDF746FC02460C20009004230F
:1037E000102101953A2003F069F97CBD11480021B0
:1037F0002C30FEF78AFB3146206903F005FC08E017
:103800000C4800214430FEF780FB3146206903F06C
:10381000FBFC2061D2E72069286003F095FA0020C4
:10382000208001F05BFF022003F0B0FAFDF7CCFD31
:10383000C4E7000020F4FF1FD4F4FF1F5370656538
:1038400064204B7000000000C0F3FF1F1DF4FF1F39
:103850004B703A000000204110B500F001F810BD97
:1038600070B51E4A00245068002805D05068401EDC
:10387000506001D1012010709068401C90609168E8
:1038800017480025814200D1956016499068FCF7E1
:10389000C9FC1548002902D18188491C8180818892
:1038A0003B2903D985804188491C418041883B29B7
:1038B00003D945800188491C01800188172900D956
:1038C0000580094D883D14206043401901F07AFCC1
:1038D000641CE4B2062CF6D370BD000074F0FF1F28
:1038E000FFFFFF7FDE030000E4FBFF1F10480F49CE
:1038F0008180012141702321017011200D490005B3
:1039000048620D48002141700C4A962111701A211D
:1039100001700179C906FCD401790907890FFBD12F
:1039200007490868400848608860704703E800005D
:103930000020054000800440004006400050064042
:1039400040F0FF1F70B5284C6078002805D1012099
:10395000607020469C30FEF75FFE244D28780728D3
:1039600010D1214800219C30FEF742FE1E48002164
:103970009C30FEF73DFEFEF783FF1B2002F068F946
:103980000028FAD02878012810D1174801219C304E
:10399000FEF72EFE144801219C30FEF729FEFEF7AB
:1039A0006FFF242002F054F90028FAD02878042868
:1039B00011D1002060701C2002F04AF90028FAD0D2
:1039C00009489C30FEF7B2FE012805D001F086FEC2
:1039D000022003F0DBF970BD01F080FE022003F04D
:1039E000D5F9FDF763FE70BD60F3FF1F1DF4FF1FE7
:1039F000F8B5254A00201379014613799B063ED578
:103A0000D279224D00262B78214C002B14D0012B8B
:103A100017D0022B1DD0032B1ED0E7787F1D9F42AD
:103A200002D9E2545B1C2B70E3782F785A1DBA42FE
:103A300025D12E701A1D17E0AA2AF5D12270012275
:103A400005E0AF2A01D02E70EEE7627002222A70E4
:103A5000EAE7A2700322FAE7E2700422F7E7275CA4
:103A60007918401CC9B2C0B28242F8D80848001D7B
:103A7000185C884201D06E7001E0A078687005483B
:103A800001F0E6FBF8BD000000A0064080F0FF1F3B
:103A90004802002034F9FF1F7047704730B4744665
:103AA000641E2578641CAB4200D21D46635D5B003A
:103AB000E31830BC184700004900CA020243100056
:103AC00000D004204A0D01D001221043044A490DC0
:103AD000914201D102210843012800D105207047FD
:103AE000FF070000F8B504464F1EC800083821182B
:103AF00015461E46086849683A4606239A4310D080
:103B00002A463346FDF78AF83A46D200083AA31807
:103B10001A687F1E5B68FCF7F7FD06223B4693435D
:103B2000EED1022F23D0042F11D0062F2FD12A46F9
:103B30003346FDF773F8E36AA26AFCF7E5FD2A460F
:103B40003346FDF76BF8636A226AFCF7DDFD2A460F
:103B50003346FDF763F8E369A269FCF7D5FD2A4611
:103B60003346FDF75BF863692269FCF7CDFD2A4611
:103B70003346FDF753F8E368A268FCF7C5FD2A4613
:103B80003346FDF74BF863682268FCF7BDFDF8BDCE
:103B900010B50122FDF7D0FA10BD10B5FCF7B4FD49
:103BA00010BD0000034A10B500201107FDF7C4FA4C
:103BB00010BD000001FDFFFF00207047F0B589B087
:103BC00004460D464800069172494008884215DBBC
:103BD0007149884203DC884207D1002C05D0204679
:103BE0002946FFF7D5FF09B0F0BD6C48002D02DD76
:103BF0006B4909B0F0BD6B4909B0F0BD6A49884214
:103C000011DA6A4988420BDA20462946FFF754FF49
:103C1000042801D1FFF7C6FF2046294609B0F0BDB0
:103C20000026F6435DE06D0061496D08884232DA96
:103C30006049884219DA0026012332469B07204654
:103C40002946FCF761FD07460191012220462946DD
:103C5000FDF772FA0022584BFCF763FD3A46019BD0
:103C6000FCF782FD04460D463BE001260022524B44
:103C700020462946FCF748FD0746009100224E4B9E
:103C800020462946FCF74DFD3A46009BFCF76CFDAB
:103C900004460D4625E04949884219DA02260022E9
:103CA000474B20462946FCF7B9FF0022424BFCF760
:103CB0002BFD074602910022414B20462946FCF786
:103CC00030FD3A46029BFCF74FFD04460D4608E0E6
:103CD000032622462B4600203A49FCF745FD0446C0
:103CE0000D4622462B4610461946FCF797FF07461D
:103CF0000B4602460191FCF791FF024602903248C2
:103D00000B46039106217844FFF7ECFE3A46019BEF
:103D1000FCF784FF00902D48019105217844039B16
:103D2000029AFFF7DFFE039B029AFCF777FF024639
:103D30000B4601990098002E0BDAFCF7E5FC2246B1
:103D40002B46FCF76BFF22462B46FCF7F5FC09B02F
:103D5000F0BDFCF7D9FC22462B46FCF75FFF1C4A5E
:103D6000F6007A4493191A685B68FCF7DAFC22467D
:103D70002B46FCF7D6FC174A7A4493191A685B68FD
:103D8000FCF7DAFC069A002AE1DA0122D207514058
:103D900009B0F0BD000010440000F07F182D44541D
:103DA000FB21F93FFB21F9BF0000DC3F0000203E72
:103DB0000000F33F0000E63F0000F03F00800340BA
:103DC0000000F83F0000F0BF5E5E0000205E0000D3
:103DD000BA5D0000845D0000F0B51FB4039B54423F
:103DE0005D00164626439C46F40F6D084B004E4E70
:103DF0005B082C438E46B44205D847420743FC0F6C
:103E00001C43B44204D96346FFF7C7FE05B0F0BDBA
:103E1000464E6644164309D0CC0F6646B6170227B5
:103E20003E40264304461C4304D00BE0FFF7C6FE89
:103E300005B0F0BD002EFBD0012EF9D0022E32D0FD
:103E4000032E34D014462C430BD0374CA54216D148
:103E5000A3420AD1012189078D438B43194603955B
:103E60000DE0704600280FDB25E0314F7F44002E27
:103E70000ED0012E10D0022E15D0032E17D0A34243
:103E80001DD17046002816DA2A482B4905B0F0BD2E
:103E90007968386805B0F0BD01227968D2073868C2
:103EA000514005B0F0BD2348244905B0F0BD21487C
:103EB000234905B0F0BD1F48224905B0F0BD5B1B8A
:103EC0001B153C2B02DD1B481E490FE06446002CED
:103ED00005DA3C24E34202DA0020014606E0039BB7
:103EE000FCF742FC49004908FFF768FE002EE4D0C9
:103EF000012E0BD0144A154B022E0CD0FCF711FCEE
:103F00000C4A0E4BFCF70DFC05B0F0BD0122D207A8
:103F1000514005B0F0BDFCF704FC064A074BFCF726
:103F20000BFC05B0F0BD00000000F07F000010C0E9
:103F3000285D0000182D4454FB21F9BFFB210940E6
:103F4000FB2109C0FB21F93F075C143326A6A13CE5
:103F500010B501F0C1FC01F003F962B601F048F9B7
:103F600000F05AFD00F0D4F900F00FF901F026F846
:103F700000F01EFA00F02BF800F038FF00F003F814
:103F800000F07CFA10BD08B50820694608700120D1
:103F9000487000208870684601F096FD01210820D5
:103FA00001F072FE092069460870684601F08CFD38
:103FB00000F001F808BD10B50121092001F064FEF0
:103FC00010BD10B50021092001F05EFE10BD08B53E
:103FD00000206946C87048700A2008700120887067
:103FE000684601F071FD262069460870684601F0B8
:103FF0006BFD002002F00EF9012002F00BF9012107
:104000000A2001F0E7FD0121262001F0E3FD08BDB3
:10401000F8B5089C0D461E46079FA047A847B04725
:10402000052001F063F8B847052001F05FF8A047CC
:10403000F8BDF8B5089C0D461646079FA047A8474F
:10404000B047052001F052F8B847052001F04EF8BE
:10405000A047F8BD0FB4FEB5002508982C460D9F6B
:104060000C9E80470E988047052001F03FF8B84726
:104070006006040EB047012801D1641CE4B203209D
:1040800001F034F86D1CEDB2082DEBD30F9808AD9C
:1040900000280E980197009602900FCD06D0FFF7EA
:1040A000B7FF2046FEBC08BC04B01847FFF7C1FFAD
:1040B000F7E70FB4F8B5174600240C9E0D9D88470E
:1040C000B047E80901D0B84701E009988047680681
:1040D000050E052001F00AF80B988047052001F035
:1040E00005F8B047022001F001F8641CE4B2082C86
:1040F000E7D3F8BC08BC04B01847F8B514461D4611
:10410000089F079E8847A047B047042000F0EEFFB5
:10411000A847042000F0EAFFB847F8BDF8B51446F8
:104120001D46089F079E8847B847A847042000F00F
:10413000DDFFB047A047042000F0D8FFF8BD0FB462
:10414000FEB50CACE0CC0898002480470A98804764
:10415000012000F0CBFFB047012000F0C7FF0EE0C8
:10416000641CE4B2FA2C0AD96846E0C008AC0FCC53
:10417000FFF7D4FF0120FEBC08BC04B01847A847D5
:104180000028EDD1B8470020F5E710B500F082F81F
:1041900000F05AF810BD000070B50546294900012D
:1041A000441820688047690005226B180026002803
:1041B00032D02179052901D2227170BD0A2902D29B
:1041C000491C217170BD6900A07A6D186D1C002812
:1041D00004D10120A072E8B200F082F82189002900
:1041E000F0D0E088884208D2401C80B2E08021896B
:1041F0008842E7D1DB1CD8B20BE0E07A0028E1D09E
:10420000207B401CC0B22073E17A8842DAD3267347
:10421000E8B200F065F870BD2079052801D9227157
:104220000CE0002802D0401E207107E0A07A01288F
:1042300004D19B1CA672D8B200F052F82673E68017
:1042400070BD0000FCFBFF1F70B50E480021034647
:10425000817232240C3302250A46C1720A260801F3
:10426000C018048105718272491C0273C9B2C672FA
:104270000329F4D3044818600448186104481862FC
:1042800070BD0000F0FBFF1F792A0000652A0000C6
:10429000512A000008B51B200090684601F014FC6C
:1042A0001C2069460870684601F00EFC242069460F
:1042B0000870684601F008FC08BD0000074A917AC2
:1042C000D07A814201D100207047505C491CC9B2AC
:1042D00091720A29F8D3002191727047F0FBFF1FF9
:1042E0000549CA7A8854C87A401CC0B2C8720A28E4
:1042F00001D30020C8727047F0FBFF1F10B50024E7
:104300002046FFF749FF641CE4B2032CF8D310BD2C
:1043100008B5182069460870012088704870002090
:10432000C870684601F0D0FB1920694608706846DD
:1043300001F0CAFB002000F001F808BD10B500280C
:1043400004D001280BD0022808D103E00021182056
:1043500001F09AFC0021192001F096FC10BD00210B
:104360001820F9E710B5002804D001280BD0022846
:1043700008D103E00121182001F086FC0121192059
:1043800001F082FC10BD01211820F9E710B50028CA
:1043900004D0012809D0022806D102E0182001F03B
:1043A00065FC192001F062FC10BD1820FAE700003E
:1043B0003EB500246946CC7201204872252008725F
:1043C0008C7202A801F080FB0021252001F05CFC2A
:1043D0000E486946088014200871CC80684601F0B8
:1043E000D7FA0A48694642300880684601F0D0FA98
:1043F000074869460880684601F0CAFA03486946DA
:10440000E8300880684601F0C3FA3EBD30A40000E1
:10441000F6A8000070B50C4605460021252001F0E5
:1044200033FC1448144E002D04DBA9B201F032FB1A
:10443000002104E0002101F02DFB684281B23046EA
:1044400001F028FB0C480C4DE838A63D002C04DB9D
:10445000A1B201F01FFB002104E0002101F01AFBD2
:10446000604281B2284601F015FB0121252001F0B0
:104470000BFC70BDF6A8000018A5000010B500F0F8
:10448000CBF800F01AFA032000F028FA002000F020
:104490001AFA642000F047FA00216A2000F05AFA64
:1044A0000021232000F056FA8021372000F052FA34
:1044B0000021382000F04EFA752000F07BF96828C2
:1044C00001D0012010BD01216B2000F043FA002132
:1044D0006C2000F03FFA642000F025FA064801F055
:1044E00029FE0548A83801F025FE0348A83001F050
:1044F00021FE002010BD0000F8000020FEB53F4A5C
:10450000911E881E00F0BAF83C4A921D911E881E2A
:1045100000F0BAF9394C2020243C205EFCF7DEFD87
:1045200001902420205EFCF7D9FD00902820205E19
:10453000401CFCF7D3FD07462A20205E1D30FCF707
:10454000CDFD47248F252406ED050646A74204DD50
:104550002946384602F058FE0746A64204DD2946A1
:10456000304602F051FE0646254C264D3846FCF7F3
:1045700079FC22462B46FCF7F7F8FBF7F9FE0746D5
:104580003046FCF76FFC22462B46FCF7EDF8FBF7B4
:10459000EFFE1D4902F0A8FD184C643C616F02F06B
:1045A00033FD60670098FCF75DFC05460E460198F8
:1045B000FCF758FC2A463346FFF70EFC0022134B4B
:1045C000FCF72CFB03225207114BFCF7CDF8FBF74D
:1045D000CFFEFCF747FC05460E463846FCF742FC8A
:1045E00002460B460B480196009501F087FC0949ED
:1045F00003C9FBF7BDFEE066FEBD0000B8F5FF1F76
:1046000066666666666630400AD7A33B00806640F1
:10461000FB2109405000002008B500206A46D070F8
:10462000012151702C2111709070684601F04CFAF4
:104630002D206A461070684601F046FA084807497E
:10464000416108498161084981600849C1600849A0
:104650000160084941600849016108BD2F2B000035
:10466000300000203B2B0000472B0000532B0000A4
:104670005F2B0000772B0000252B00007CB5144633
:104680000D4606466B4606223B21682000F010F8D6
:1046900000280BD16946098849BA318069464988A2
:1046A00049BA29806946898849BA21807CBD0000C1
:1046B000F0B53F4C154620460F46103007C885B070
:1046C0001E466B4607C30FCC103CFFF716FDD020EB
:1046D0001034039007CC6B4607C31C3C0FCC103C36
:1046E000FFF7E7FC103407CC6B4607C31C3C0FCC2C
:1046F000103CFFF724FD00280AD02046103007C8E0
:104700006B4607C30FCCFFF709FD012005B0F0BDD4
:1047100020461030039707C86B4607C30FCC103CE8
:10472000FFF7C7FC103407CC6B4607C31C3C0FCC0B
:10473000103CFFF704FD103407CC6B4607C31C3C4C
:104740000FCC103CFFF7D9FCD1201034039007CCDC
:104750006B4607C31C3C0FCC103CFFF7AAFC10347F
:1047600007CC6B4607C31C3C0FCC103CFFF7E7FCA3
:1047700010E0012D1AD0012003902046103007C808
:104780006B4607C30FCC103CFFF764FC6D1E307006
:10479000EDB2761C002DECD12046103007C86B46D8
:1047A00007C30FCCFFF7BAFC0020AFE70020E3E718
:1047B000300000207FB5334C05462046103007C836
:1047C0006B4607C30FCC103CFFF797FCD02010348A
:1047D000039007CC6B4607C31C3C0FCC103CFFF783
:1047E00068FC103407CC6B4607C31C3C0FCC103C54
:1047F000FFF7A5FC1034039507CC6B4607C31C3CA0
:104800000FCC103CFFF755FC103407CC6B4607C3A8
:104810001C3C0FCC103CFFF792FC103407CC6B46CD
:1048200007C31C3C0FCC103CFFF767FCD1201034B1
:10483000039007CC6B4607C31C3C0FCC103CFFF722
:1048400038FC103407CC6B4607C31C3C0FCC103C23
:10485000FFF775FC00201034039007CC6B4607C3AC
:104860001C3C0FCC103CFFF7F5FB0546103407CC81
:104870006B4607C31C3C0FCCFFF750FC284604B026
:1048800070BD0000300000207CB514460D46064681
:104890006B46062243216820FFF70AFF00280BD150
:1048A0006946098849BA31806946498849BA2980E8
:1048B0006946898849BA21807CBD10B580216B206A
:1048C00000F048F810BD10B5032801D9012010BD33
:1048D000C006010E1C2000F03DF810BD10B50328E5
:1048E00001D9012010BDC006010E1B2000F032F8D6
:1048F00010BD10B5BC2801D3012110E0622801D3FE
:1049000002210CE02A2801D3032108E0142801D356
:10491000042104E00A2801D3052100E006211A2021
:1049200000F018F810BD10B504467D20C000844288
:1049300001D9044602E0042C00D204242146FBF7EE
:1049400067FC401EC1B2192000F004F86008FFF7B0
:10495000D0FF10BD7FB52F4C064620460D461030C7
:1049600007C86B4607C30FCC103CFFF7C6FBD0202F
:104970001034039007CC6B4607C31C3C0FCC103C93
:10498000FFF797FB103407CC6B4607C31C3C0FCCDA
:10499000103CFFF7D4FB002827D1204610300396A7
:1049A00007C86B4607C30FCC103CFFF782FB1034DF
:1049B00007CC6B4607C31C3C0FCC103CFFF7BFFB7A
:1049C0001034039507CC6B4607C31C3C0FCC103C3E
:1049D000FFF76FFB103407CC6B4607C31C3C0FCCB2
:1049E000103CFFF7ACFB00280AD02046103007C867
:1049F0006B4607C30FCCFFF791FB012004B070BDDD
:104A00002046103007C86B4607C30FCCFFF786FB64
:104A10000020F3E73000002010B500F07DF8012100
:104A2000432001F031F9642000F050FB00214320C5
:104A300001F02AF9642000F049FB0121432001F034
:104A400023F90021AE2002F0FBF80021D52002F06E
:104A5000F7F80021502002F0F3F80021A82002F01E
:104A6000EFF800213F2002F0EBF80021D32002F004
:104A7000E7F80021084602F0E3F80021402002F0A8
:104A8000DFF800218D2002F0DBF80021142002F075
:104A9000D7F80021202002F0D3F80021084602F0C8
:104AA000CFF80021A02002F0CBF80021CF2002F0A7
:104AB000C7F80021DA2002F0C3F80021122002F02A
:104AC000BFF80021812002F0BBF80021EF2002F0A6
:104AD000B7F80021D92002F0B3F80021F12002F04C
:104AE000AFF80021DB2002F0ABF80021302002F00B
:104AF000A7F80021A42002F0A3F80021A62002F0CC
:104B00009FF80021AF2002F09BF801F00DFF00217B
:104B1000084600F026F810BD08B500206A46D0709F
:104B200001215170232111709070684600F0CCFF74
:104B300042206A461070684600F0C6FF17206A4699
:104B40001070684600F0C0FF43206A461070684647
:104B500000F0BAFF16206A461070684600F0B4FFF5
:104B600008BD10B50446B031C8B2002102F068F8A3
:104B700020090021103002F063F82007000F012106
:104B80000843002102F05CF810BD0000F0B58DB0C4
:104B90000027282102A80C97FBF738FB0C240021E2
:104BA000062383A20846009402F01CF8012001901D
:104BB0000623252200210094642001F01FFF01F04C
:104BC000F9FE0020800000227F1C02A9BFB20A501B
:104BD0000A2FF9D37A4B00201D46A0351C466034BD
:104BE000014614267143C91800224031401C0A8531
:104BF00080B24A850528F3D398E000263300FEF7FB
:104C00004DFF050413223444520001200021C0024C
:104C100000F0A8FD61794A006949511840310886C1
:104C20006079401C60713EE001200021800300F0AB
:104C300099FD617E4A006249511880318880607E0A
:104C4000401C60762FE001200021800200F08AFDE8
:104C500001465B488030427B5300594A9A188032A3
:104C60001183417B491C41731DE001200021C003D9
:104C700000F078FD014668784200514810188030F5
:104C800081856878401C68700DE001200021400299
:104C900000F068FD697D4A0049495118C03108801B
:104CA000687D401C6875142031464143444808180B
:104CB000009060304179042901D3002141710098AE
:104CC00003220021703002F08CF900984030028DF0
:104CD000C18E8A4200D20185428D018E8A4200D95E
:104CE0004185761CB6B2052E88D30C980A21401C4B
:104CF00080B20C90FBF78CFA002904D10020FFF75A
:104D000045FB01F057FE1E21781CFBF781FA024695
:104D10000C2106200191009003230021542001F072
:104D2000CDFE052000F0D2F97F1CBFB22548874296
:104D300000D262E7224C002002AB14214143091942
:104D4000C20040310D8D9D50D218401C498D80B25B
:104D500051600528F1D30C2406231BA22146002014
:104D6000009401F03FFF06231BA2182100200094AD
:104D700001F038FF01F01EFE7D25ED00284600F011
:104D8000A5F9FD2000F094FD0023282202A9FD20B2
:104D900000F0D4FD062313A224210020009401F08A
:104DA00021FF01F007FE284600F090F90DB0F0BD9C
:104DB00043616C6962726174696F6E2E2E2E000001
:104DC000D4F4FF1FB80B000043616C696272617418
:104DD000696F6E204F4B2100536176696E672E2EEE
:104DE0002E00000053617665642121000EB509484C
:104DF000009000206A469071012111719172107229
:104E0000507160235372D172D071684600F0C4FCB7
:104E10000EBD000002CF0000F0B5644E00273446FE
:104E2000203C254685B0203D3B00FEF737FE0504BB
:104E300014243444530001200021C00200F092FCED
:104E400069794A005949A039511840310886687972
:104E5000401C68713EE001200021800300F082FCCC
:104E6000697E4A005149A039511880318880687E96
:104E7000401C68762EE001200021800200F072FCC8
:104E8000617B4A004949A039511880310883607B11
:104E9000401C60731EE001200021C00300F062FC92
:104EA00071784A004149A03951188031888570785D
:104EB000401C70700EE001200021400200F052FC06
:104EC000717D4A003949A0395118C0310880707D80
:104ED000401C70751420394641433448A0380818E6
:104EE000009060304179042901D30021417100997B
:104EF000042208467030663101F06AF9E08905281D
:104F000001D20520E081608C052801D20520608453
:104F1000009840300190018D408D0290081AFCF7F6
:104F2000DDF803900198C18C0298081AFCF7D6F8B6
:104F30000399FBF7C1FF00997F1CFFB2C866052FDC
:104F400000D271E719482568A038C66E2846314658
:104F500002F05AF807463146284602F055F939461C
:104F6000FBF7AAFF124E314602F0BEF8E067656912
:104F7000A46A2946204602F047F8074629462046FB
:104F800002F042F93946FBF797FF314602F0ACF8E0
:104F90000649084A60310860904204DA064A9042A5
:104FA00001D20020086005B0F0BD000074F5FF1FBD
:104FB0000000C84200000C4200000CC208B50020EE
:104FC0006946C870487028200870012088706846BB
:104FD00000F07AFD0121282000F0FCFD01212820AD
:104FE00000F052FE292069460870684600F06CFD0A
:104FF0000121292000F0EEFD0121292000F044FECE
:10500000342069460870684600F05EFD01213420B6
:1050100000F0E0FD0121342000F036FE3720694623
:105020000870684600F050FD0121372000F0D2FDE5
:105030000121372000F028FE08BD0000F0B585B042
:105040001546022803D90020C04305B0F0BD104E1C
:10505000C400325D012A17D06A46107001275770CC
:105060000320107268460395019100F023FE375526
:10507000A019456001211620FDF7B6FE0321172077
:10508000FDF7B2FE0020E0E70120C043DDE70000AD
:10509000D4FBFF1F70B5062802D90020C04370BDA5
:1050A0001424094D60434419267B012E09D0616008
:1050B000002666702B5401202073A16030462261C7
:1050C00070BD0120C04370BD5CFBFF1F002809D0EC
:1050D000012800D1022004494860002008700878A7
:1050E0000128FCD17047000074F0FF1FF8B50D4E89
:1050F0000746756900240D480B490068FBF788F8DE
:105100007843B1690246B0698842FCD0884201D236
:10511000091A01E02B1A59180C1901469442F2D3CE
:10512000F8BD000000E000E040420F0040F0FF1F2B
:1051300070B5022802D90020C04370BD074DC400DD
:10514000295D002906D000F011FE002028556119C4
:10515000486070BD0120C04370BD0000D4FBFF1F3C
:1051600070B50021134B0C4614224A43D0184460FA
:10517000846044709C54491C0461C9B204730629BC
:10518000F2D30C487D2188300480448084800A4812
:10519000C9000068FBF73CF80849401E884208D85F
:1051A000074D68610321081FFDF71EFEAC61072053
:1051B000286170BD5CFBFF1F40F0FF1FFFFFFF0079
:1051C00000E000E04168002910D04168491E4160BC
:1051D0000CD1012141700178012903D1816841601E
:1051E000002141700069002800D00047704700008E
:1051F0001FB500F051F8E12040020090012003901B
:105200000C206946488100200881C880094C8880AC
:10521000204600F0E3FD08480168C87820221043CA
:10522000C8700649D00108600121204600F0BAFD8F
:105230001FBD000000A0064034F9FF1F00E100E0A0
:10524000012801D0002070470048704734F9FF1F43
:1052500001680A79120701D50A79CA790A790A79A7
:10526000120612D5828A002A10D0438A4268D25C84
:10527000CA71418A491C89B241828289914201D313
:1052800000214182818A491E81827047C878400688
:10529000400EC870704700000B480A4901600B4976
:1052A0008160014628314160FF210131C181818146
:1052B000002141830183C182818241824162C161B7
:1052C0000162704700A0064034F9FF1F5CFAFF1F1F
:1052D000F8B50023FFF7B4FF002820D0002517E021
:1052E0008489878A6E4637803688B442F9D9CC5C87
:1052F000078A4668F455048A641CA4B2048286892D
:10530000B44200D30582848A641C84825B1C9BB2F5
:105310009342E5D30068C17880221143C170F8BD83
:1053200010B500F007F800F097F900F0B1F800F0C0
:1053300059F810BD10B5104C607800281AD0132809
:1053400014D008DC02280BD010280CD011280DD066
:1053500012280DD10AE0142808D0152808D105E03C
:1053600000F024F904E000F0EDF8102000F050F90E
:105370000020607010BD000080F0FF1F70B588B085
:105380000E460446154620216846FAF73FFF1B2DBE
:1053900002D9002008B070BDAA2069460870487084
:1053A0008E70CD7000216846431908E0625C461893
:1053B00032711A79465C9219491C1A71C9B2A94214
:1053C000F4D32C462A1D05E01979065D8919641C61
:1053D0001971E4B29442F7D301466A1D0120FFF728
:1053E00077FFD6E730B589B020216846FAF70EFF7F
:1053F00024486A46018C0B1213705170418C0B12B9
:105400009370D170818C0B1213715171C18C0B127E
:105410009371D171018D0B1213725172408D011273
:105420009172D072122202216846FFF7A7FF154C35
:10543000154D403C2946206F01F056FEFBF7ECFD70
:105440000104090E6A46117050702946E06E01F0A1
:105450004BFEFBF7E1FD0104090E6A469170D07026
:105460000A49606F01F040FEFBF7D6FD0104090E0A
:105470006A46117150710C2201216846FFF77EFFC8
:1054800009B030BD94F5FF1F0000C8420000204164
:1054900000B589B020216846FAF7B8FE274869466A
:1054A000428913120B704A70808902128A70234A53
:1054B000C870403A106D030E0B7103144B71031248
:1054C0008B71C871506D020E0A7202144A72021278
:1054D0008A72C87219481A494030806801F004FE87
:1054E000FBF79AFD01040A0E69460A7348731348D4
:1054F000C038C06CFBF790FD0004000E694688734D
:105500000E48C038C06CFBF787FD6946C8730B486E
:10551000C038406DFBF780FD0004000E694608743A
:105520000648C038406DFBF777FD69464874122283
:10553000F1216846FFF722FF09B000BD94F5FF1F77
:105540000000C84270B5164841790279080210433C
:1055500040BA00B2FBF7C2FD124D2946FBF7ACFC86
:10556000114C20600E48C17982790802104340BA7C
:1055700000B2FBF7B3FD2946FBF79EFC60600848CC
:10558000417A027A0802104340BA00B2FBF7A6FD46
:105590002946FBF791FCA06001F0D6FB70BD00002E
:1055A000480200200000C842D4F4FF1F30B585B087
:1055B00014216846FAF72AFE134C144D2068294638
:1055C00001F092FDFBF728FD021269468A71C8714D
:1055D0002946606801F088FDFBF71EFD021269464E
:1055E0000A7248722946A06801F07EFDFBF714FD9F
:1055F000021269468A72C872122210216846FFF7A9
:10560000BDFE05B030BD0000D4F4FF1F0000C8424D
:105610001CB5002100910191AA216A4611705170B8
:10562000EF2191700721D17010710A48C178001DD7
:10563000085C5071002069460B5C8A79401CD218C6
:10564000C0B28A710728F7D307220120FFF740FE76
:105650001CBD00004802002030B589B020216846FA
:10566000FAF7D4FD1C486A46C18C04460B0A137035
:1056700051704034E1890B0A9370D170618C0B0A30
:1056800013715171408F010A9171D071E06FFBF776
:10569000C3FC0104090E6A4611722546507280351A
:1056A0002868FBF7B9FC0104090E6A469172D072B2
:1056B0006868FBF7B1FC0104090E6A461173507368
:1056C000E08E010A9173D0731022F2216846FFF731
:1056D00055FE09B030BD000014F5FF1F10B5FDF7F1
:1056E00057FAFDF705FCFDF7A1FB002001F04EFB8A
:1056F00010BD000010B5FEF7E1FD194C00286070E8
:1057000007D02078002804D1022001F03FFB0020C0
:10571000607020780300FEF7C1F90A09200C060F1B
:105720001215181B1E20FDF725FC16E001F070F87D
:1057300013E0FDF763FA10E0FEF710F80DE0FDF757
:105740008FFF0AE0FCF714FA07E0FCF795F904E094
:10575000FCF786F801E0FEF7F5F8FDF791F810BDCB
:105760001CF4FF1F00220346D340DB0703D1521C69
:1057700092B2102AF7D30748836849000B4383602D
:10578000D106C90E016001680906FCD50069000553
:10579000000D704700B00340F8B50546002069468B
:1057A00008800646044607460121480700F0EEFA45
:1057B0003B4B9869694608800888002802D0088811
:1057C000C0430880684629880088014368460180F4
:1057D0000088C14368460180996900880140996149
:1057E000A879697A40000143A87A0843986058680C
:1057F000E97A08435860287A012800D1202669797F
:105800004020012903D10643264A41021160E9796B
:10581000002902D0D9680143D9602868D9682A795B
:10582000521ED2B21143D9601F490246E240D2074C
:10583000D20F11D0E206D20E194B32431A601B4B25
:1058400001221B78A2409C469B00CA5063465B1C09
:10585000164A7F1C1370FFB22A79BA4203D9641C1E
:10586000E4B2102CE1D3C2030BD510220C4B32430F
:105870001A600E4B01241A78240495004C51521CD6
:105880001A7080030BD51620064305480660074AA8
:10589000012310785B0484000B51401C1070F8BD8C
:1058A00000B0034000E100E01CF6FF1F54F0FF1FB2
:1058B000410210B50748002242700A2343720B0CC4
:1058C000037201234370090A4172027200F020F84A
:1058D000002010BD0000024010B50121080300F0B7
:1058E00055FA084C60790006FCD50848064900685E
:1058F000FAF78EFC401E8006800E4030E0703020AB
:10590000607110BD0000024040420F0044F0FF1FD4
:1059100010B572B63020074C60710749481F01600E
:10592000601D884762B660793321084000D00120AD
:1059300010BD00000000024061F0FF1FF8B5002616
:10594000400217460C46C5181CE010480021417063
:1059500006214172290C017201214170290A41720C
:105960000572022141702178017261784172032130
:105970004170A1780172E1784172241D2D1DFFF75D
:10598000C7FF361DBE42E0D30020F8BD0000024034
:10599000F1B582B00298002400888206930F820538
:1059A000120F0092010702058504090F920FAD0F37
:1059B000C00B8446334847696E1D0120B040314E0C
:1059C000074377616046002815D007D030698B40C7
:1059D0009843306130698A40104330612A48066834
:1059E000029801797D20C00041430F46300CFAF740
:1059F0000FFC01460BE0234EF0688B409843F060AB
:105A0000F0688A401043F060E8E7641CE4B208469E
:105A1000E040FAD1072C33D830463946E040FAF757
:105A2000F7FB86B2194968000E520298711CC088B3
:105A300048437D21C900FAF7F5FB80B28646144A37
:105A4000A80011588E6000991358C9008C460C317B
:105A50005E580427BE435E501658282373506107D2
:105A6000490F1358083119600021022D01D19368A4
:105A7000D9641558634674461033EC501058416091
:105A8000FEBD00000080044044F0FF1F56F0FF1FE1
:105A9000E472000070B58205150F8004840F084A77
:105AA0006000105A401C48437D21C900FAF7BAFB38
:105AB000044AA1005258E90080B21031505070BD24
:105AC00056F0FF1FE4720000F0B501783E4BCD06A2
:105AD0004A09ED0E92009C58A6690121A9400E4387
