:020000040000FA
:10000000D00600204B0100005701000059010000FC
:1000100000000000000000000000000000000000E0
:100020000000000000000000000000005B01000074
:1000300000000000000000005D01000061320000CF
:100040006101000061010000610100006101000028
:100050006101000061010000610100006101000018
:100060006101000061010000610100006101000008
:10007000F53300009D3400009F340000D50E0000D1
:1000800061010000610100006101000061010000E8
:100090006101000061010000712900009929000040
:1000A000A9250000F52500006101000061010000A4
:1000B00061010000610100006101000061010000B8
:1000C00000F002F800F030F80CA030C8083824180E
:1000D0002D18A246671EAB4654465D46AC4201D180
:1000E00000F022F87E460F3E0FCCB6460126334282
:1000F00000D0FB1AA246AB4633431847188C0000C9
:10010000388C00000023002400250026103A01D37B
:1001100078C1FBD8520700D330C100D50B607047BF
:100120001FB51FBD10B510BD00F052FE1146FFF700
:10013000F7FF05F0ADFB00F06AFE03B4FFF7F2FF36
:1001400003BC03F0BAF9000070470948804709482A
:10015000804709480047FEE7FEE7FEE7FEE7FEE7C7
:10016000FEE7000005480649044A064B70470000B8
:10017000F132000049010000C1000000D00500205C
:10018000D0060020D00500207047000030B5441C88
:1001900003E00178401C00290DD08107F9D10B4BF9
:1001A000DD0104C8D11A91432940FAD0001B0A0688
:1001B00003D0C01E30BD001B30BD0A0401D0801E1C
:1001C00030BD0902FCD0401E30BD0000010101011C
:1001D00001E004C0091F0429FBD28B0701D502806E
:1001E000801CC90700D00270704700290BD0C307DC
:1001F00002D00270401C491E022904D3830702D595
:100200000280801C891EE3E70022EEE70022DFE780
:10021000002203098B422CD3030A8B4211D3002303
:100220009C464EE003460B433CD4002243088B42DD
:1002300031D303098B421CD3030A8B4201D394466A
:100240003FE0C3098B4201D3CB01C01A524183095D
:100250008B4201D38B01C01A524143098B4201D317
:100260004B01C01A524103098B4201D30B01C01A42
:100270005241C3088B4201D3CB00C01A52418308BC
:100280008B4201D38B00C01A524143088B4201D3E9
:100290004B00C01A5241411A00D201465241104649
:1002A00070475DE0CA0F00D04942031000D34042BE
:1002B000534000229C4603098B422DD3030A8B42F4
:1002C00012D3FC22890112BA030A8B420CD3890192
:1002D00092118B4208D3890192118B4204D3890178
:1002E0003AD0921100E08909C3098B4201D3CB01B6
:1002F000C01A524183098B4201D38B01C01A52416B
:1003000043098B4201D34B01C01A524103098B426E
:1003100001D30B01C01A5241C3088B4201D3CB0059
:10032000C01A524183088B4201D38B00C01A52413C
:10033000D9D243088B4201D34B00C01A5241411A13
:1003400000D20146634652415B10104601D3404241
:10035000002B00D54942704763465B1000D34042F2
:1003600001B50020C046C04602BD704770477047C7
:100370000246C80FC00781434B0030B54B405B00BD
:100380009B0D20D01923DB06C91801231B059942B8
:1003900020DB0324A40704251346AB400BD3002B1A
:1003A00004D1EB0613409B00E34204D4012464070C
:1003B000002312195941FF231B0599420BD2C90092
:1003C0000143500F09E0CB0204D501430803024367
:1003D00005D0054830BDFF21C905084330BD08469A
:1003E00007210905884330BD0000C07F7047000029
:1003F00010B5024800F013FD10BD00000000C07FE2
:10040000FFFFFFFFFFFFFFFFFFFFFFFFFFFFFEFEFE
:10041000F0B5F94D0C091E092C402E402F468BB02B
:10042000A7437DD0B543FCD0002E7AD0002CFCD061
:100430000D465D40ED0F2543AC1BFF25AD0464194F
:100440000894C502440DC9022143500DDC02044347
:100450000120C00701430443D2020191200C110C7A
:1004600000958C46010423468B430A91614609049A
:10047000E24D8A430991010A7D444919803909787E
:1004800005464D4301266D18F605751B6943C90CD9
:10049000640B891C4C436418B5012C1B250C2E04DD
:1004A000B4434C434D43210C691889090591009DC3
:1004B000E90701D00121C90704912C460199670879
:1004C000CD072F434C08059DE10B4D432D0C2946CC
:1004D0006646754302950D4645432E46029D7D1B9B
:1004E000B44100950D465D4301942C0C2F040D463C
:1004F0005543AE462D0C3D43029503947546049C2E
:100500002D04641B049406D2029C039D641C0026E7
:1005100075410395029401AC70CC009F7D1B01E0F6
:100520003EE162E1B4410904009507910194059907
:10053000A4086143090C0C464443650BE7040C46D0
:1005400066467443A646640B3C4303950294744686
:10055000049DE4042C1B049406D2029C039D641C9D
:10056000002675410395029401AC70CC009F7D1B61
:10057000B44101940C465C430095650FE7000C46BE
:100580005443A646640F3C43039502947446049D6D
:10059000E4002C1B049406D2029C039D641C0026DC
:1005A00075410395029401AC70CC009F7D1BB44152
:1005B000AE09AF06049DC900AD092F43049DA406F2
:1005C000AD060495079D344369180791059DE10B1D
:1005D0004D432D0C29466646754302950D4645430D
:1005E0002E46029D7D1BB44100950D465D4301944E
:1005F0002C0C2F040D465543AE462D0C3D43029561
:1006000003947546049C2D04641B049406D2029C3A
:10061000039D641C002675410395029401AC70CCC7
:10062000009F7D1BB44101948C050694079C890AA8
:10063000611800950791019C0599A4086143090C74
:100640000D464543680BEF040D46644665436C0B4D
:100650003C43049FED047D1BAC4602D20025641C84
:100660006841009E019D371B85410846584301950E
:100670000C46460FC5005443600F28436546E4000E
:100680002C1B02D20025401C6E41019D3F1AB54132
:100690002846BD09800628438446A009BF064E02AD
:1006A0000699A40676180743079D002068410A9919
:1006B000079019430020099B00906046FF191343DF
:1006C0004041E20F64003A43A4460446D71A8C41E5
:1006D000A04203D90120009020463A46C70F941843
:1006E00040416246D20F2243644664000494009C59
:1006F000BE466400D71AA446044602978C4177464A
:10070000002F01D1A04204D96046401C8446029AC1
:100710002046C40FA64694184041049A0546D20FBD
:10072000224364466400D31A8D417146002901D1E9
:10073000A84202D928461A46641C10430122002808
:1007400000D0164361020020079B891904465C41D2
:100750000223002C02DB491813466441089DCE0A8F
:100760002D145D194B056705E10A2C050D19089933
:100770003E43C9076940002B08D0934006D30022AE
:10078000761C5141002B01D1760876001C4A002DC1
:1007900043DB154241D0AA433FD030460BB0F0BDF9
:1007A00006180D464D41174C7642AC411AD39518A8
:1007B0001C465C41134A6D42A24113D301225205EB
:1007C0004C00D4420AD15C00D4420BD04B4002D53D
:1007D00092021143E2E749004908DFE75940C90F97
:1007E000C90718E000200849D8E7054801420DD1A3
:1007F0000342F7D0F2E700000000FF0796850000F3
:100800000000F07F0000E0FF0000F87F1148594031
:100810000143C01241400020C0E70123089A9B0613
:100820009A4205DC032252078918C90FC907B5E7A8
:10083000052252078918074A1143D2125140ADE7E9
:1008400070B515461C4602460B4628462146FFF762
:10085000DFFD70BDFFFFFF7F1F22030C02D10F22BF
:10086000000402D0030E03D004E0002001467047CC
:100870000002083A030F01D10001121F830F01D1BA
:100880008000921E002801DB4000521E1205511804
:100890004205C012411810467047C10FC90700D069
:1008A0004042012292071143D6E701218907D3E78D
:1008B000F0B58B4C0F09254689B0BD437BD01D098F
:1008C0002646AE43FAD00E465E402740F60F3E4322
:1008D000254071D024012142FBD0FF24AD19A4048E
:1008E0002D1B039501252D05DB02DB0AC9022B43D5
:1008F000C90A29431E010901040F130F05012143F1
:100900001701880B820391432D098C46A90B1E43C6
:100910008A039543B30B9A0396433F09BA0B94039A
:10092000A74302962E467E430497B6464E19D71922
:100930000C460196544305977E43371B7646BF1BF2
:100940003601B646BE0B361900967646BC043719FA
:10095000009C01D3641C00946400002F01D0012688
:100960003443029E049F754366467E430496760098
:1009700034196E0034190094029C019E1C196643C0
:10098000751BAE46069465464519059C05956C4356
:10099000594375460891691A0191049E01465143D5
:1009A000A41B0491611A009C0791E10605D061091E
:1009B0000122114302E072E06EE06109089D002708
:1009C0002C0A2D066918049D7C412A0A2D066918F7
:1009D000019D6241AC0DAD026D185441079A910D15
:1009E000920255196141029A644658435443069B4A
:1009F000059A5A43121A131B9A0E9B015B187A41EF
:100A0000010B0005C3185141220A200644195A411E
:100A10009A4200D2491C01204002814203D315238F
:100A20000226F64302E014230326F6432020C51ACB
:100A3000A9401746AF40DA400A4320460399D84000
:100A40000914731819055118039A3843D2075140F5
:100A5000AC4009D00122944006D30022401C5141F1
:100A6000002C01D1400840001E4A934212D30122BB
:100A700003989206904207DB0520400709181A48A0
:100A80000143C012414004E0032040070818C10F91
:100A9000C907002009B0F0BD0020F107FAE70518EA
:100AA0000C464C4111486D42A04115D394181A468A
:100AB0005A410E48644290410ED301204A0040053D
:100AC000824209D35A00824206D35940C90F084ACC
:100AD000C90700201143DDE700200649DAE70000DE
:100AE0000000FF07FE070000FFFFFF7F0000E0FFA0
:100AF0000000F07F0000F87FF0B5FF252D04C60947
:100B0000C209FF2704462E400137CB093E43484027
:100B10002A402B400746002A6BD0002B69D0AA42FE
:100B200067D0AB4265D0002800DA32460125ED05DA
:100B300029432C4309022002090AD21A4B0C7F24B4
:100B4000E31A434C000A7C44E35C7D24240412191C
:100B500014145B00A218884201D3521C00E040002C
:100B600049420C465C4324115C43DB016415E318E5
:100B7000040A5C43C502200D0C4644436419250A4F
:100B80005D432303EC0C0D46654300030019EB188D
:100B90004C42A34201D35B18401CD4052018002B03
:100BA00007D05B00C91804D3401C002901D14008BC
:100BB00040003F2189048A4209D3002A08DC11063B
:100BC000090F04D0032149074018C00FC007F0BD2A
:100BD00001224100120689187F2252069142F6D264
:100BE00005214907C84201D59010F0BDFF20C0057E
:100BF000F0BD002F00DA32461648AA4207D2AB42B7
:100C000005D21902090E17D0F80FC007F0BDFF2555
:100C100063002D06AB42F9D84900A942F6D8AB4291
:100C200001D1A942F2D0A94201D1002101E0610025
:100C30004908D0050843F0BD1102090EFBD0FF2082
:100C40000243D005F0BD0A460146104654E70000B5
:100C5000487F00000000C07F10B501469E240002BE
:100C6000CA15A307002A02D01843002A04DBA21ADF
:100C7000002A0CDDD04010BD1206120E01D140003A
:100C80004008A21A03D4D04040420028F3DDFF22DE
:100C900048001206904201D9002010BDC817C04379
:100CA000584010BD0102C21504D00123DB071943CF
:100CB000002A0ADB9E239A1A02D40846D0407047C5
:100CC000FF2241001206914201D900207047C0174F
:100CD000C04370471F22030C02D10F2200041CD016
:100CE000030E01D10002083A030F01D10001121FC7
:100CF000830F01D18000921E002801DB4000521EAC
:100D0000D2055118021251181922904004D3491CDF
:100D1000002801D14908490008467047C10FC9079A
:100D200000D04042012292071143D3E701218907F5
:100D3000D0E7000010B5FF231B0644009C421DD8DD
:100D40004C009C421AD80346124A0B4307D4401A5F
:100D500002D3EFF3008010BDEFF3008010BD081A3E
:100D600006D2EFF3008001219043C907084302E057
:100D7000EFF30080904380F3008810BD0D231B0427
:100D80001A4204D01146002000F006F810BDFFF70B
:100D90002FFB10BD00000090C80212D54803400F81
:100DA000002804D0C803C043012188407047EFF3F6
:100DB00000800001000903210907084380F300882F
:100DC0007047002070470000004870477005002001
:100DD0007546FFF7F9FFAE46050069465346C00861
:100DE000C000854618B020B5FFF7BCF960BC0027ED
:100DF0004908B6460026C0C5C0C5C0C5C0C5C0C5E7
:100E0000C0C5C0C5C0C5403D49008D46704710B53E
:100E10000446C046C0462046FFF78FF910BD10B506
:100E20000C461107090F092904D00A290AD00829FC
:100E30000CD104E011460820FFF7AEFF06E0510692
:100E400006D501E0510601D50120C007214610BD9D
:100E5000D10607D501010909CC084907000E000693
:100E6000044309E0410F20024907000A0143200E14
:100E700000061D22D14101430846E7E770B58C18F2
:100E80000578401C6B075B0F01D10378401C2A11C9
:100E900006D10278401C03E00678401C0E70491C05
:100EA0005B1EF9D12B0705D40023521E0DD40B7005
:100EB000491CFAE70378401CCB1A921C03E01D780A
:100EC0000D70491C5B1C521EF9D5A142D8D30020DD
:100ED00070BD000030B5094A0020064C0649137861
:100EE00004E022694500401C4A53C0B29842F8D33E
:100EF00030BD000000B0034090F6FF1F54F0FF1F0C
:100F000070B5214CA089401CA081A088401CA08005
:100F100000F024FBE088401CE08000F0E1F8A089AC
:100F20000025030002F0BCFA062604071217222649
:100F300002F04AFB70BDE089401C80B2E0810628C7
:100F4000F8D3E581A58000F0C1FA70BD03F08AF9FD
:100F500000F0D6F970BD208A401C0004000C2082ED
:100F6000F8D02582E58000F025F870BD00F0D4F8B7
:100F7000A58170BDA5812582E581A580E580002140
:100F8000252004F0A7F8FEE700F0FF1F10B50121AF
:100F9000024A084603F05EFA10BD0000010F00008F
:100FA00010B50021252004F095F8012003F0C4FAC3
:100FB00010BD0000F0B585B0002000904148414CC4
:100FC000007B4B26F600404F404DA034030002F05A
:100FD00067FA05041B1B086E1B000020E8632881CC
:100FE00012E0687801280FD102F0A2FA2889394668
:100FF000801B2881E86B04F0F9FFE863A2690146D1
:10100000104604F0F3FFA0612E491E202039085E2F
:10101000FFF784FE0390A769696B384605F0E6F890
:101020000246019027483946C83804F09FF9254800
:10103000E038016C264B1A029942016C00D35140F2
:10104000866C9E42866C00D356400098A863384652
:1010500005F03CF802903146019805F037F8009011
:101060001C49039805F0C2F81B4905F02FF8064605
:10107000686AA8621949009805F028F8014600201E
:1010800004F0B4FF029904F0B1FF314604F0AEFF62
:1010900068628121A069C905884205DA7F21C905F6
:1010A000C84201D2002068626F6305B0F0BD02F053
:1010B0003FFA2889394680192881E86B05F096F8AF
:1010C0009BE70000B0F5FF1F0000484200F0FF1F43
:1010D000000080800000C0C10AD7A33D3333333FF6
:1010E00070B50B4CA16A606A0D4605F07FF80646A4
:1010F000E088401CFFF71AFE314604F0E7FF05497F
:10110000FFF7FAFC294604F071FF206270BD000071
:1011100000F0FF1F0000A040F8B5194D296A68696A
:101120000F46064604F062FFFFF796FD04B239460B
:10113000304605F05BF8FFF78FFD01B2114A34200D
:10114000105E43421AB2A04201DA044602E0A34212
:1011500000DD1446884201DA014602E08B4200DDE0
:1011600011460948C487403001806889022802D9A5
:101170000021084600E0204602F02AFCF8BD0000ED
:1011800000F0FF1F50F6FF1F50F5FF1FF8B5284E67
:10119000264830607F208002416871608168B160BC
:1011A000C168F16001693161406900247061002506
:1011B0002048F56230632048B0622048F061204842
:1011C000B061204830642048B06420483565F06440
:1011D0001F4870653046183004F07CFA1D4AFD2324
:1011E00095615B02D5611420604381190846403047
:1011F00085840576457645830D66E100C9180F881C
:101200008783641C8988E4B2C183052CEBD308482A
:1012100080300146C58740310D8045648564C564D2
:1012200005650D4890620D489086F8BD0000A1420A
:10123000D0F4FF1F0000C8410000204100004842D8
:101240000000A04200004041000034430000F04193
:101250000000F04350F6FF1F00007041B60300008D
:1012600010B588B020216846FEF7D0FF164CA06A62
:10127000FFF718FD020E69460A70020C4A70020A56
:101280008A70C870E06AFFF70DFD020E69460A71A8
:10129000020C4A71020A8A71C871206BFFF702FDC5
:1012A000020E69460A72020C4A72020A8A72C872F7
:1012B000FC2003F023FD002330226946FC2003F0CC
:1012C00063FD08B010BD000050F6FF1F0848074935
:1012D000C16008494161084901607F21C9058160F9
:1012E000FF30064981308162704700000000F04104
:1012F000D0F4FF1F00009643000075430000A0419A
:1013000070B52F482F4D438BC18D102B04D210295F
:1013100002D26889401C6881294C4034628D204685
:1013200060304B2A05D2642B03D2642901D20021FC
:1013300001730126372A2BD92978002916D1204993
:101340002E7062884031C98A642A03D9642901D287
:10135000032104E0642903D9642A01D20421017322
:1013600003F002F92863608D372811D902F0E0F804
:1013700060887F21C905502803D9E86A04F036FE49
:1013800005E0E08A502803D9E86A04F02FFFE862FC
:10139000287801280CD1608D322809D9502807D22D
:1013A00003F0E2F8296B401A642801D96E7002E05C
:1013B0006878012803D1608D4B2800D2AE7070BDD3
:1013C00010F5FF1F00F0FF1F10B5022002F0BCFA5D
:1013D00010BD00007CB5334C334DA089002815D1D9
:1013E000364932A08861A86AA062084601F068F810
:1013F00020462C3000F0C7FB2046443000F0C3FBF1
:1014000020465C3000F0BFFB0120A0812C487F26E5
:101410000078F605012822D007282AD0042833D0E6
:10142000204801212C3000F0FEFA1E4801214430F2
:1014300000F0F9FA18250C2322A210210A200095A9
:1014400004F048FCA06AFFF72DFC02460C20009037
:10145000022310210195582004F0A8FB7CBD1148FF
:1014600000212C3000F0DFFA3146A06A04F0BEFD06
:1014700008E00C480021443000F0D5FA3146A06A5B
:1014800004F0B4FEA062D5E7A06AA8620020A081A3
:10149000FFF7E6FE03F05AFB022004F083FCFFF79F
:1014A00075FDC7E718F4FF1F50F6FF1F5365742042
:1014B000546172676574537070656400B8F3FF1F00
:1014C00015F4FF1F53706565643A000070B50A207B
:1014D00003F0E4FD1A4C012830D0606C4542262010
:1014E00003F0DCFD0028A06C00D0404200216164C4
:1014F0002818A164C10F08184010FFF7CEF9114A4F
:10150000114BFFF7D5F90022104BFFF7D1F900225C
:101510000F4BFEF77DFFFEF72BFF0E4A0146506290
:10152000926A104604F062FE0B4CA169E161044925
:101530008039096804F0CAFDA06170BD656CCEE712
:1015400050F5FF1FABAAAAAAAAAAB03F00003D40CF
:101550000000514050F6FF1F00F0FF1F70B50B4C0C
:10156000E169A0690D4604F041FE0646A088401CD2
:10157000FFF7DCFB314604F0A9FD0549FFF7BCFA93
:10158000294604F033FD606170BD000000F0FF1FCC
:101590000000F0417CB5334C334D6089002815D1F3
:1015A000364932A0886168696062084600F088FFA9
:1015B00020462C3000F0E7FA2046443000F0E3FAF1
:1015C00020465C3000F0DFFA012060812C482D4E6F
:1015D0000078012822D007282AD0042833D02148B7
:1015E00001212C3000F01FFA1E480121443000F088
:1015F0001AFA18250C2324A210211420009504F0B7
:1016000069FB606AFFF74EFB02460C200090042342
:10161000102101953A2004F0C9FA7CBD114800213F
:101620002C3000F000FA3146606A04F0DFFC08E07C
:101630000C480021443000F0F6F93146606A04F0AD
:10164000D5FD6062D5E7606A686104F09DFB00200B
:10165000608103F07BFA022004F0A4FBFFF796FC04
:10166000C7E7000018F4FF1FD0F4FF1F446972653C
:101670006374696F6E204B6400000000B8F3FF1FB5
:1016800015F4FF1F0000A0404B643A007CB5354CB8
:10169000354DE088002815D1384934A08861E868C4
:1016A000E061084600F00CFF20462C3000F06BFA99
:1016B0002046443000F067FA20465C3000F063FAC0
:1016C0000120E0802E483F2600783606012825D0EC
:1016D00007282DD0042836D0224801212C3000F0D4
:1016E000A2F920480121443000F09DF918250C236F
:1016F00024A210211420009504F0ECFA2249E0699C
:1017000004F0E4FCFFF7CEFA02460C20009004231C
:10171000102101953A2004F049FA7CBD11480021BE
:101720002C3000F080F93146E06904F05FFC08E0FD
:101730000C480021443000F076F93146E06904F0AD
:1017400055FDE061D2E7E069E86004F01DFB002090
:10175000E08003F0FBF9022004F024FBFFF716FC05
:10176000C4E7000018F4FF1FD0F4FF1F446972653E
:101770006374696F6E204B7000000000B8F3FF1FA8
:1017800015F4FF1F4B703A0000002041F8B5244CBF
:1017900005462078002841D0284603F0F5FF606117
:1017A0000021A0616956814201DD002028701C489B
:1017B0002978007D1A4C401AC6B2583468782169DD
:1017C000884200D8002616486661583000F078FE3E
:1017D0001348743086616978016100F0E3FD206987
:1017E0006978C7B2814200D20F4600240AE030195E
:1017F0001C21484342192001011B1E20133100F017
:101800004DFC641CBC42F2DB05491C228869504334
:10181000401901220861827000200870F8BD0000A4
:1018200060F3FF1FF8B5002A7ED054005443871898
:10183000012B41D0861A022B7BD0032B76D0042BB0
:1018400072D11546002600910098069AC1B2B8B22E
:1018500000F000FD0098761C401E009068000246D3
:1018600071006A4371435118091B081A401C002873
:1018700001DD6D1E7F1EAE42E6DB0098069AC1B206
:10188000B8B200F0E7FC2846410070006D1E891ECA
:101890000246694372438918091B0818401C7F1EC1
:1018A000002803DC0098401E761C0090002DE4DC2C
:1018B0000098C1B2B8B276E000970D4616460027F0
:1018C0000098E9B280B2069A00F0C4FC70007F1C58
:1018D00001467A0071437A438918091B081A401C93
:1018E0006D1C002803DD0098401E761E0090B74254
:1018F000E6DB0098E9B280B2069A00F0ABFC0099F2
:101900003046491E009141007800761E891E02462D
:1019100071437A438918091B0818401C002801DC10
:101920006D1C7F1C002E02E040E002E03FE0E0DCA6
:1019300075E01546002700910098069AC1B2B0B232
:1019400000F088FC00987F1C401C00906800024654
:1019500079006A4379435118091B081A401C002872
:1019600001DD6D1E761CAF42E6DB0098069AC1B21F
:10197000B0B200F06FFC2846410078006D1E891E51
:10198000024669437A438918091B0818401C761CD3
:10199000002803DC0098401C7F1C0090002DE4DC34
:1019A0000098C1B2B0B2069A00F054FCF8BD00969F
:1019B0000D46164600270098E9B280B2069A00F05C
:1019C00049FC70007F1C024679007243794351182C
:1019D000091B081A401C6D1E002803DD0098401CDE
:1019E000761E0090B742E6DB0098E9B280B2069A14
:1019F00000F030FC00993046491C0091410078000D
:101A0000761E891E024671437A438918091B0818FD
:101A1000401C002801DC6D1E7F1C002EE4DC0098B9
:101A2000E9B280B2BFE77CB50446C0680D460E2817
:101A30007DD3A0681E287AD3206903F09EFEA1689A
:101A4000884274D825750C2661682068002D11D055
:101A50000122801D891D00F02EF9206903F08DFE02
:101A6000A168081A218840084018002180B2009619
:101A700001916CE00022801D891D00F01CF90125F8
:101A800000952068616803230622801D891DFFF7E9
:101A9000C9FE0095A168206842186168801D0B4648
:101AA000D21F00F094FA0095A16820680423401822
:101AB00061680622C01F891DFFF7B4FE0095E1682A
:101AC0006068A268411820684B1E8218801D491E5C
:101AD000D21F00F07CFA0095E1686068A2684118A6
:101AE0002068012380180622C01FC91FFFF79AFE35
:101AF00000956168E0680B182068891D0246DB1FAD
:101B000000F065FA0095E1686068022341182068DA
:101B10000622801DC91FFFF785FE00956168E068F9
:101B2000A2680B1820688018421E401E00E018E0D2
:101B3000891DDB1F00F04BFA206903F01EFEA1682F
:101B4000081A21884008401880B200960195E16883
:101B5000A2880C394908511889B20C23226904F073
:101B6000B7F97CBD10B503F057FF10BD38B514466A
:101B7000C9B280B26A4600F0AAFB6846017801202B
:101B80006140884338BD7CB50446C0680E287BD3CD
:101B9000A0681E2878D3206903F0EFFDA168884271
:101BA00072D8012500952068616803230622801DF4
:101BB000891DFFF737FE0095A1682068421861680B
:101BC000801D0B46D21F00F002FA0095A168206824
:101BD0000423401861680622C01F891DFFF722FEFA
:101BE0000095E1686068A268411820684B1E821861
:101BF000801D491ED21F00F0EAF90095E168606877
:101C0000A26841182068012380180622C01FC91F3E
:101C1000FFF708FE00956168E0680B182068891DD1
:101C20000246DB1F00F0D3F90095E16860680223EB
:101C3000411820680622801DC91FFFF7F3FD00959B
:101C40006168E068A2680B182068891D8018421E30
:101C5000401EDB1F00F0BBF9207D0C26002814D0AD
:101C6000206861680122801D891D00F024F8206928
:101C700003F083FDA168081A21884008401800215C
:101C800080B2009601910BE014E0206903F075FD2D
:101C9000A168081A21884008401880B20096019572
:101CA000E168A2880C394908511889B20C232269CD
:101CB00004F00EF97CBDF7B5D8B00C460546802877
:101CC00074D2402C72D2E1B2A8B250AA00F0FFFA4E
:101CD00050A802785A98D107C007C90FC00F814297
:101CE00064D021462846559400F0CCFA064656901A
:101CF00050A802782146284600F0F1FA5490801945
:101D0000400829940194289001240090254601E080
:101D1000002D7BD0E90028A808188038816F5291E7
:101D2000C66F50A86D1E0278EDB23146529800F091
:101D3000A9FA539050A802783146529800F0CFFA91
:101D4000519050A80278761C31465298FFF70EFF4A
:101D5000002804D050A802783146529815E0539FCD
:101D600008E050A8027831463846FFF7FFFE002809
:101D700003D17F1C51988742F3D951988742C7D825
:101D800050A8529702783146384600F0A8FA519090
:101D900050A802783146529800F074FA5390142CEF
:101DA0001FD2471E58975990074617E07EE050A86B
:101DB0000278711E3846FFF7D9FE002827D05999BE
:101DC0005898884207D05891E00069460F50401853
:101DD000641CE4B24660142C03D27F1C51988742E5
:101DE000E5D9539951985A9B401840085290519800
:101DF000F1B282B2539880B200F0D5F8142DA0D27F
:101E0000539F59977F1E5897599F19E01FE0599784
:101E1000E1E750A80278711C3846FFF7A7FE0028BA
:101E200013D059995898884207D05891E80028A9AA
:101E30000F5040186D1CEDB24660142D81D27F1CEE
:101E40005198874200D97CE7E3E75997F5E7002CE2
:101E500020D0E100684608188038816F5291C66F23
:101E600050A8641E0278E4B23146529800F00AFA93
:101E7000539050A802783146529800F030FA074645
:101E800050A80278761E31465298FFF76FFE002860
:101E90000ED020E0002D00D03AE754985A9B82B231
:101EA0005598C1B2569880B200F07DF85BB0F0BD95
:101EB000539809E050A8027831465198FFF756FE32
:101EC000002804D15198401C5190B842F2D9519841
:101ED000B842BCD8529050A802783146529800F0CF
:101EE000FEF9074650A802783146529800F0CAF928
:101EF0005390142D20D25990401E5890599818E0B4
:101F000050A80278711C5198FFF730FE002826D0A7
:101F100059995898884208D05891E80028A9519AB0
:101F20000A5040186D1CEDB24660142D04D2519831
:101F3000401C5190B842E3D95398BAB238184008BF
:101F400052905398F1B280B25A9B00F02CF8142CA6
:101F500096D253985990401E589059981BE051982A
:101F60005990E2E750A80278711E5198FFF7FEFDE4
:101F7000002815D059995898884208D05891E00007
:101F80006946519A0A504018641CE4B24660142C09
:101F9000DED25198401C5190B84200D970E7E1E779
:101FA00051985990F3E7F8B515461E460F4604467A
:101FB000A84202D9D0B225460446324639462046C8
:101FC00000F048F9641CA4B2A542F6D2F8BDFFB5F2
:101FD00083B0054605980C46411B06980027021B56
:101FE000FF43002902DD0120029002E0002904DA0B
:101FF0000297002A09DD012711E0C2B2E1B2A8B2BE
:102000000C9B00F02CF907B0F0BD002A07DB059807
:10201000E1B282B2A8B20C9BFFF7C5FFF3E70298CA
:10202000484339465143420000924A000192884297
:102030001CDB161A0098101A00900EE0E1B2A8B24C
:102040000C9A00F007F902982D18002E02DA019878
:10205000361802E000988619E41905988542EDD1FA
:10206000E1B2A8B20C9A00F0F5F8CCE70098461A55
:10207000801A01900EE0E1B2A8B20C9A00F0EAF8E2
:10208000E419002E02DA0098361803E00198861948
:1020900002982D1806988442EDD1E1E7FEB514466A
:1020A0000D460646802805D8402D03D8022D01D3C1
:1020B000122E01D20020FEBDE0680028FBD0A278DD
:1020C00030461023A91E12380C27002A12D062684D
:1020D000002A04D0C9B2C0B2009303F0A4FD0020CE
:1020E00001900097A9B2B0B20C23E26803F0F0FEB1
:1020F0000120FEBDA268002A05D00093C9B2C0B27B
:10210000102303F090FD0120EAE7000010B500293C
:1021100002D00121002401E0002101240448FFF73E
:1021200082FC034821461830FFF77DFC10BD0000FB
:1021300028F3FF1FFEB58168044614293CD3E068EC
:10214000142839D325686A18802A35D861680B1895
:10215000402B31D800272846521E5B1E009700F006
:10216000F4F8012500956168E068A2680B18206802
:102170005B1E8218521E00F0CAF820882189304B5D
:102180004118491E8AB2217980B20E31C9B21B783A
:10219000FFF709FF0095A168206842186168521E88
:1021A0000B460D3300F0D1F8206903F0FBFA02462C
:1021B000A068811E8A4201D90020FEBD80B20C2693
:1021C000019700960290A0883346401C81B2208877
:1021D000226980B203F0D4FE1A480775A169016133
:1021E0002168491D0160E26861688918C268891A1E
:1021F000091F4160FFF7C7FC124818300575E169F7
:102200000161A268216889188268891A891F0160A2
:10221000E26861688918C268891A091F4160FFF77E
:10222000B2FC00960195A0880C23113081B2208861
:102230006269801D80B203F04BFE0120FEBD0000EC
:1022400024F3FF1F28F3FF1F0148007D70470000A3
:1022500028F3FF1F10B5C0B203F0F4FB10BDF8B5B2
:1022600015461E4607460C46A94201D90D4614469E
:10227000324621463846FFF7EDFF641CE4B2A54222
:10228000F6D2F8BDF8B5D507441EED0F0E46002C6A
:102290000ED0F1B2A0B26A4600F019F86846007894
:1022A000C007C00FA84201D0601CF8BD641EF0D169
:1022B000F1B200206A4600F00AF868460078C007CC
:1022C000C00FA84201D00120F8BD0020F8BD10B514
:1022D0001446C0B203F0D2FB2070002010BDF8B548
:1022E000441CD5070E46ED0F0DE0F1B2A0B26A46D0
:1022F000FFF7EDFF68460078C007C00FA84201D085
:10230000601EF8BD641C802CEFD38020F8BDF8B5AA
:102310001C4615460E46074692B2C9B280B2069BCD
:10232000FFF741FEAAB2E1B2B8B2069BFFF73BFE4F
:10233000E2B2F1B2B8B2069BFFF791FFE2B2F1B29E
:10234000A8B2069BFFF78BFFF8BDF8B517461E46EF
:102350000C460546B84201D915460746B44201D994
:102360001C460E46B44206D1BAB2E1B2A8B2069BF0
:10237000FFF719FEF8BDBD420DD1F2B2E1B2A8B22D
:10238000069BFFF76CFFF8BDBAB2E1B2A8B2069B9C
:10239000FFF709FE641CB442F6D9F8BD10B503F08E
:1023A00081FB10BDF8B5040052D0A2680A2A4FD3B1
:1023B000E06814284CD30125009561680B1820684B
:1023C0005B1E8218521EFFF7A2FF08260096208986
:1023D00021780838400808182179C0B2491CC9B2D0
:1023E00033461C4A03F01FFC00962079217B22789B
:1023F00040180938C1B2208908230838400810184D
:10240000144AC0B2083203F00EFC0095A16820689F
:1024100042186168521E09310B46FFF7D8FD00953E
:10242000E1686068A268411820680A3982180B4682
:10243000521EFFF7CCFDE0686269216914388A42B8
:1024400002D25043FDF7E4FEE061204600F004F8BC
:10245000F8BD0000E2890000FEB504468189808B4A
:10246000091A14398EB22188491C8AB20192A188B6
:10247000721E0A318DB28018218900220092C91E75
:10248000019A89B280B257182B183A46294601980A
:10249000FFF75BFF21696069814201D8002005E0F8
:1024A000A069491E7043FDF7B3FE80B2012100917F
:1024B0002918E269019853183A46FFF746FFFEBD16
:1024C000FEB58168044614293BD3E368142B38D346
:1024D00020684218802A34D86168CB18402B30D845
:1024E0000025521E5B1E0095FFF72FFF0126009668
:1024F0006168E068A2680B1820685B1E8218521E93
:10250000FFF705FF20882189174B4118491E8AB221
:10251000217980B20E31C9B21B78FFF744FD0096D5
:10252000A168206842186168521E0B460D33FFF700
:102530000CFFA06903F03DF90246A068811E8A42A3
:1025400001D90020FEBD80B20C21019500910290BE
:10255000A0880C23401C81B22088A26980B203F0BD
:102560000FFD0120FEBD000024F3FF1F10B5242045
:1025700002F094FD012801D0012010BD002010BD03
:1025800010B51C2002F08AFD012801D0012010BDE9
:10259000002010BD10B51B2002F080FD012801D0E5
:1025A000012010BD002010BDF8B50F4D0024A86813
:1025B0000E4E000712D50E4F387884420ED2E968CD
:1025C00020460C2250433258114204D080198068B2
:1025D000002800D08047641CE4B2EDE7A8682421FD
:1025E0000843A860F8BD00000090074020F7FF1FD7
:1025F0006EF0FF1FF8B50F4D0024A8680E4E0007BF
:1026000012D50E4F387884420ED2E96820460C224B
:1026100050433258114204D080198068002800D0FD
:102620008047641CE4B2EDE7A86824210843A86051
:10263000F8BD000000A0074020F7FF1F6EF0FF1F4D
:1026400010B52C2002F02AFD10BD10B501212D205F
:1026500002F040FD10BD10B500212D2002F03AFD22
:1026600010BD10B501212C2002F034FD10BD10B5B5
:1026700000212C2002F02EFD10BD08B50020694677
:10268000C87048702C20087001208870684602F0DD
:1026900041FC08BD08B500206A46D070012050708A
:1026A0002C2111709070684602F034FC08BD0000C7
:1026B000F0B50021104D114F114B0A4604261C2085
:1026C0004843401946708C008270476082601C59F4
:1026D00002614261491CC9B2C46082610429EED31F
:1026E0000120A870074828610748E86202488C303A
:1026F000686306486866F0BD5C030020F28900004C
:1027000098F3FF1F09580000D9570000C157000077
:10271000F8B5674E7068FFF739F866490027087802
:10272000002800D0F760624C583401285BD007289D
:1027300054D13E237522122101200097FFF705FE98
:10274000B0691C2148437168401830618770B069D6
:10275000401CB06172685178491E814200DCB16151
:10276000B0691C2148438018012130618170726872
:102770001078401C43B21370204651782469A1425E
:1027800005D80D468B420EDB491E11700BE0E5B2F9
:10279000641EA34207D914700269891A42699142E2
:1027A00001D9521C4261002410E041481C215830DC
:1027B00040694843716841181C2060430A18200191
:1027C000011B1E201331FFF769FC641CAC42ECDBDB
:1027D0003748B16974308161FFF73EFE35480078B3
:1027E000042849D04DE03E23752212210120009794
:1027F000FFF7ABFDB1691C22514372688818306144
:102800008770B069401EB061002800DCB761B06914
:102810001C21484371684018012130618170716842
:102820000878401E42B20A704D78236920469D42C6
:1028300003D8002A0ADA0F7008E0DDB2002A05DAB0
:102840000F704169002901D0491E6161002410E028
:1028500017481C21583040694843716841181C20B2
:1028600060430A182001011B1E201331FFF716FCDC
:10287000641CAC42ECDBABE730690069002800D097
:102880008047F068411CF16064280FDDF760306913
:102890004169002908D0877070691C21484371681C
:1028A000401801213061817002F03CFDF8BD00004C
:1028B00060F3FF1F15F4FF1F8307FF22DB0E9A4012
:1028C0008907090E994000280BDA0007000F083825
:1028D000830808489B001818C36993430B43C361DE
:1028E0007047830804489B001818036893430B4300
:1028F0000360704700ED00E000E400E0F0B5002167
:10290000134B144C144E0A4605251C204843C0188E
:1029100082610261446082608F0082704570426112
:10292000491CF759C9B2C7600529EED30120987038
:102930000A4818610A48D8620A4898640A48044953
:10294000586603488C398030816008490160F0BDC9
:1029500074040020F28900007CF3FF1F655800001A
:102960004D580000355800001D580000D957000090
:1029700010B5074CE068C00704D00648006800287E
:1029800000D08047E06801210843E06010BD0000EE
:10299000007103404CF0FF1F10B5074CE069C00701
:1029A00004D006484068002800D08047E069012133
:1029B0000843E06110BD0000007103404CF0FF1FB0
:1029C000F0B50021114C124B124E0A4603251C2073
:1029D0004843001945708261026143608F00826044
:1029E00082704261491CF759C9B2C7600329EED30E
:1029F00001200649A0708C31A16107482061074978
:102A0000E16202498C392165A064F0BDE803002031
:102A1000F2890000ACF3FF1FD95700007D58000079
:102A200010B5074C6078002808D0201DFFF748FD3E
:102A300020462030FFF7B6FC0020607010BD00007B
:102A40008CF4FF1FFEB5FFF7EBFFFE4EFC4934464A
:102A5000002035460856FF340C210127813480358B
:102A60004036002806D001286FD002286ED00328F7
:102A70006DD065E20C2000900623F3A20F21032005
:102A800003F028F90C21062001910090728B03239A
:102A90000F211B2003F08AF80C2000900623ECA2E3
:102AA0000F21412003F016F90C210620019100901E
:102AB000F28D03230F215F2003F078F80C200090A3
:102AC0000623E5A21B21032003F004F90C210620B4
:102AD000019100901B216A880323084603F066F8E1
:102AE0000C2000900623DEA21B21412003F0F2F807
:102AF0000C21062001910090EA8A03231B215F200C
:102B000003F054F80C2000900623D7A227210320BD
:102B100003F0E0F8FF21A069C905C84218D30C26CC
:102B200006232D2227211B200197009602F0DEFFAD
:102B3000A06971074840FEF78FF802B20620032310
:102B400027210090019621200CE075E000E1C1E111
:102B5000FEF782F802B20C210620019100900423B6
:102B600027211B2003F022F80C260623C0A22721D0
:102B70004120009603F0AEF8FF21E069C905C84284
:102B800014D306232D2227215A200197009602F004
:102B9000ADFFE06971074840FEF75EF802B206201B
:102BA0000323272100900196602008E0FEF754F8E7
:102BB00002B2062000900423272101965A2002F039
:102BC000F5FF0623ACA233210320009603F082F820
:102BD000062000902A220196AA5E032333211B209F
:102BE00002F0E4FF0623A5A233214120009603F062
:102BF00071F8216AFF20C005C142019700960AD3EF
:102C000006232D2233215A2002F070FF0121206A71
:102C1000C907484006E00623202233215A2002F04B
:102C200065FF206AFEF718F802B20620032333215D
:102C300000900196602081E10C200090062390A274
:102C40000F21032003F046F80C2006240190009485
:102C500004230F211B206A6C02F0A8FF0C200090B7
:102C6000062389A20F21372003F034F80C200190AD
:102C7000009404230F215520AA6C02F097FF0C202A
:102C80000090062382A22121032003F023F83E2294
:102C9000AA5E002A12DA0C20009006232D2232218F
:102CA00001971B2002F022FF0C20019000943E208F
:102CB000285E032342423221212005E00C200190AE
:102CC0000423212100941B2002F070FF0C25062311
:102CD00071A221213720009502F0FCFF5948002203
:102CE000C0300290825E002A11DA06232D223221A2
:102CF00055200197009502F0F9FE02980195009485
:102D00000021415E03234A4232215B2004E0042378
:102D1000212155200195009402F048FF062360A26E
:102D200032210320009502F0D5FF01950094B28B6B
:102D3000032332211B2002F039FF062358A232213F
:102D40003720009502F0C6FF01950094B28B72E027
:102D50000E460091062354A20F21032002F0BAFF71
:102D600038485349006803F0B1F9FDF79BFF02466C
:102D7000062504230F211B200196009502F016FF63
:102D800006234CA20F213720009602F0A3FF2D4806
:102D90004749406803F09AF9FDF784FF024604238F
:102DA0000F2155200196009502F000FF062343A253
:102DB00021210320009602F08DFF2248C068FDF714
:102DC00071FF0246042321211B200196009502F089
:102DD000EDFE06233BA221213720009602F07AFF68
:102DE00018484069FDF75EFF024604232121552063
:102DF0000196009502F0DAFE062334A23221032068
:102E0000009602F067FFE06AFDF74CFF02460323DD
:102E100032211B200196009502F0C8FE06232CA249
:102E200032213720009602F055FF206BFDF73AFF64
:102E30000246019600950323322155207EE00000D2
:102E40008CF4FF1FD0F4FF1F48464C3A00000000EE
:102E50004846523A0000000048424C3A0000000048
:102E60004842523A000000004841453A0000000044
:102E70005641453A00000000484D3A0041453A00AD
:102E80004C5F453A00000000525F453A00000000E8
:102E90004C5F503A00000000525F503A00000000C2
:102EA0004E6F723A00000000534B503A0000000091
:102EB00000002041534B493A00000000444B503A77
:102EC00000000000444B443A000000004C543A001B
:102ED00052543A000E46009114210623354A084602
:102EE00002F0F8FE216AFF20C005C142019700965A
:102EF0000AD306232D221421262002F0F7FD0121FA
:102F0000206AC907484006E0062320221421262013
:102F100002F0ECFD206AFDF7C5FE02460620009097
:102F20000223142101962C2002F040FE182001906B
:102F300021480096027B1E210123084602F036FE3E
:102F40001E481F490078072809D001281FD00428EF
:102F500004D1081F4770002002F024FFFEBD184A6C
:102F6000121F1078401E40B210705770002801DA0E
:102F7000032016E000201056002814D0012814D099
:102F8000022814D00328E9D10EA08861FEBD0C4AA6
:102F9000121F1078401C40B2107057700328E9DDF2
:102FA00000201070E6E70AA0EFE70EA0EDE712A000
:102FB000EBE700007C2E0000B0F5FF1F15F4FF1FAB
:102FC00090F4FF1F526F6164204465746563740060
:102FD0004D6F746F7220506172616D6574657273AC
:102FE0000000000053656E736F7220506172616D56
:102FF000657465727300000050494420506172612D
:103000006D65746572730000F0B5034608464900AB
:103010008C465C5A15E0521E904203DA5100595A10
:10302000A142F8D25100904204DA5D5AA54201D87B
:10303000401CF8E7904204DA46009D5B5F5A9F53BC
:103040005D529042E8DB41005D5A62469D525C52FF
:10305000F0BD0000034A10B5911E881E00F046FE28
:1030600010BD0000AEF5FF1F7CB5354C354D6088B6
:10307000002815D1374934A0886168686061084626
:10308000FFF71EFA20462C30FEF77DFD2046443027
:10309000FEF779FD20465C30FEF775FD012060806B
:1030A0002D483F2600783606012825D007282DD048
:1030B000042836D0224801212C30FEF7B4FC2048E9
:1030C00001214430FEF7AFFC18250C2323A2102168
:1030D0001420009502F0FEFD2149606902F0F6FF20
:1030E000FDF7E0FD02460C2000900423102101951D
:1030F0003A2002F05BFD7CBD114800212C30FEF728
:1031000092FC3146606902F071FF08E00C48002132
:103110004430FEF788FC3146606903F067F860616F
:10312000D2E76069686002F02FFE0020608001F045
:103130000DFD022002F036FEFDF728FFC4E7000077
:1031400018F4FF1FD0F4FF1F5370656564204B69AE
:1031500000000000B8F3FF1F15F4FF1F4B693A0091
:10316000000020417CB5354C354D2088002815D114
:10317000374934A08861286820610846FFF7A0F924
:1031800020462C30FEF7FFFC20464430FEF7FBFCC7
:1031900020465C30FEF7F7FC012020802D483F26BA
:1031A00000783606012825D007282DD0042836D0EF
:1031B000224801212C30FEF736FC20480121443002
:1031C000FEF731FC18250C2323A2102114200095B2
:1031D00002F080FD2149206902F078FFFDF762FDD1
:1031E00002460C2000900423102101953A2002F0A1
:1031F000DDFC7CBD114800212C30FEF714FC31466B
:10320000206902F0F3FE08E00C4800214430FEF78C
:103210000AFC3146206902F0E9FF2061D2E720690B
:10322000286002F0B1FD0020208001F08FFC022018
:1032300002F0B8FDFDF7AAFEC4E7000018F4FF1F76
:10324000D0F4FF1F5370656564204B7000000000D0
:10325000B8F3FF1F15F4FF1F4B703A000000204128
:1032600010B500F001F810BD70B51E4A002450687A
:10327000002805D05068401E506001D10120107018
:103280009068401C9060916817480025814200D1E9
:103290009560F52189009068FCF7C4FF1348002968
:1032A00002D18188491C818081883B2903D985808E
:1032B0004188491C418041883B2903D945800188C8
:1032C000491C01800188172900D90580074D883DD8
:1032D00014206043401901F085F9641CE4B2062C07
:1032E000F6D370BD74F0FF1FFFFFFF7F88FCFF1F48
:1032F00010480F4981800121417023210170112064
:103300000D49000548620D48002141700C4A962184
:1033100011701A2101700179C906FCD401790907DD
:10332000890FFBD1074908684008486088607047EA
:1033300003E80000002005400080044000400640F3
:103340000050064040F0FF1F70B5284C6078002800
:1033500005D10120607020469430FEF7EBFE244D2D
:103360002878072810D1214800219430FEF7CEFE9E
:103370001E4800219430FEF7C9FEFFF70FF81B200E
:1033800001F08CFE0028FAD02878012810D11748C7
:1033900001219430FEF7BAFE144801219430FEF763
:1033A000B5FEFEF7FBFF242001F078FE0028FAD0DE
:1033B0002878042811D1002060701C2001F06EFED6
:1033C0000028FAD009489430FEF73EFF012805D0C6
:1033D00001F0BCFB022002F0E5FC70BD01F0B6FB81
:1033E000022002F0DFFCFDF771FF70BD60F3FF1FEC
:1033F00015F4FF1FF8B5254A00201379014613790B
:103400009B063ED5D279224D00262B78214C002BED
:1034100014D0012B17D0022B1DD0032B1ED0E77820
:103420007F1D9F4202D9E2545B1C2B70E3782F78FA
:103430005A1DBA4225D12E701A1D17E0AA2AF5D1BD
:103440002270012205E0AF2A01D02E70EEE76270F3
:1034500002222A70EAE7A2700322FAE7E27004224D
:10346000F7E7275C7918401CC9B2C0B28242F8D88D
:103470000848001D185C884201D06E7001E0A078F9
:103480006870054801F0FCF8F8BD000000A0064097
:1034900080F0FF1FEC000020D8F9FF1F7047704735
:1034A00030B47446641E2578641CAB4200D21D46BD
:1034B000635D5B00E31830BC18470020704710B50F
:1034C00001F030FC01F056F801F0A2F800F0C8FC61
:1034D00000F010FA00F04BF900F07CFF00F0ACFABD
:1034E00000F044FA00F02AF800F0A6FE00F002F81E
:1034F00062B610BD08B50820694608700120487002
:1035000000208870684601F005FD0121082001F0C7
:10351000E1FD092069460870684601F0FBFC00F0F7
:1035200001F808BD10B50121092001F0D3FD10BD3F
:1035300010B50021092001F0CDFD10BD38B51F48A0
:103540004169202211434161C1680322120691435F
:10355000C160C168012212061143C16018490A689E
:10356000920892000A600A6818231A430A6000222F
:103570004A604169402421434161C168DC05A1439F
:10358000C160C1680124E4062143C1600D4801689F
:10359000016001681943016042606946CA704A705F
:1035A0000A20087001208870684601F0B3FC2620CC
:1035B00069460870684601F0ADFC38BD00800440E3
:1035C000008003400090034010B507480749826C13
:1035D0004B68D2188264064A436C54681B194364D2
:1035E00000204860506010BD50F5FF1F0080034070
:1035F00000900340F8B5089C0D461E46079FA04763
:10360000A847B047052000F075FFB847052000F037
:1036100071FFA047F8BDF8B5089C0D461646079FF8
:10362000A047A847B047052000F064FFB847052031
:1036300000F060FFA047F8BD0FB4FEB50025089864
:103640002C460D9F0C9E80470E988047052000F069
:1036500051FFB8476006040EB047012801D1641C31
:10366000E4B2032000F046FF6D1CEDB2082DEBD351
:103670000F9808AD00280E980197009602900FCD84
:1036800006D0FFF7B7FF2046FEBC08BC04B01847C1
:10369000FFF7C1FFF7E70FB4F8B5174600240C9EFB
:1036A0000D9D8847B047E80901D0B84701E0099867
:1036B00080476806050E052000F01CFF0B98804728
:1036C000052000F017FFB047022000F013FF641C34
:1036D000E4B2082CE7D3F8BC08BC04B01847F8B52E
:1036E00014461D46089F079E8847A047B047042000
:1036F00000F000FFA847042000F0FCFEB847F8BD2A
:10370000F8B514461D46089F079E8847B847A84746
:10371000042000F0EFFEB047A047042000F0EAFECE
:10372000F8BD0FB4FEB50CACE0CC0898002480477F
:103730000A988047012000F0DDFEB047012000F02C
:10374000D9FE0EE0641CE4B2FA2C0AD96846E0C047
:1037500008AC0FCCFFF7D4FF0120FEBC08BC04B0BE
:103760001847A8470028EDD1B8470020F5E710B565
:1037700000F082F800F05AF810BD000070B5054660
:1037800029490001441820688047690005226B1808
:103790000026002832D02179052901D2227170BD7E
:1037A0000A2902D2491C217170BD6900A07A6D18E6
:1037B0006D1C002804D10120A072E8B200F082F84C
:1037C00021890029F0D0E088884208D2401C80B2CC
:1037D000E08021898842E7D1DB1CD8B20BE0E07A97
:1037E0000028E1D0207B401CC0B22073E17A8842DF
:1037F000DAD32673E8B200F065F870BD20790528A9
:1038000001D922710CE0002802D0401E207107E08F
:10381000A07A012804D19B1CA672D8B200F052F8FD
:103820002673E68070BD0000A0FCFF1F70B50E4837
:1038300000210346817232240C3302250A46C172EC
:103840000A260801C018048105718272491C02739E
:10385000C9B2C6720329F4D3044818600448186139
:103860000448186270BD000094FCFF1F95250000FD
:10387000812500006D25000008B51B2000906846DA
:1038800001F048FB1C2069460870684601F042FBC5
:10389000242069460870684601F03CFB08BD000022
:1038A000074A917AD07A814201D100207047505C5A
:1038B000491CC9B291720A29F8D30021917270474C
:1038C00094FCFF1F0549CA7A8854C87A401CC0B2CC
:1038D000C8720A2801D30020C872704794FCFF1FE9
:1038E00010B500242046FFF749FF641CE4B2032C06
:1038F000F8D310BD08B518206946087001208870FB
:1039000048700020C870684601F004FB1920694621
:103910000870684601F0FEFA002000F001F808BDCA
:1039200010B5002804D001280BD0022808D103E0EC
:103930000021182001F0CEFB0021192001F0CAFB64
:1039400010BD00211820F9E710B5002804D0012887
:1039500009D0022806D102E0182001F0ADFB1920A1
:1039600001F0AAFB10BD1820FAE700003EB50024C4
:103970006946CC7201204872252008728C7202A818
:1039800001F0C8FA0021252001F0A4FB0E48694689
:1039900008800F200871CC80684601F01FFA0A48A1
:1039A000694642300880684601F018FA07486946BF
:1039B0000880684601F012FA03486946E83008803A
:1039C000684601F00BFA3EBD30A40000F6A80000E6
:1039D00070B50C4605460021252001F07BFB1448FC
:1039E000144E002D04DBA9B201F07AFA002104E0A4
:1039F000002101F075FA684281B2304601F070FA98
:103A00000C480C4DE838A63D002C04DBA1B201F0B7
:103A100067FA002104E0002101F062FA604281B2FD
:103A2000284601F05DFA0121252001F053FB70BD0D
:103A3000F6A8000018A5000010B500F039F88021A4
:103A40006B2000F0ABF9C82000F044FD00216B2092
:103A500000F0A4F9032000F069F9002000F05FF9FC
:103A6000642000F084F900216A2000F097F9002119
:103A7000232000F093F98021372000F08FF90021F6
:103A8000382000F08BF9752000F0C6F8682801D0C6
:103A9000012010BD01216B2000F080F900216C2075
:103AA00000F07CF9642000F062F9002010BD0000F5
:103AB00008B500206A46D070012050702C2111708A
:103AC0009070684601F026FA2D206A46107068460C
:103AD00001F020FA08480749416108498161084915
:103AE00081600849C160084901600849416008498E
:103AF000016108BD4B260000D000002057260000C1
:103B0000632600006F2600007B260000952600003B
:103B100041260000F0B53F4C154620460F461030B8
:103B200007C885B01E466B4607C30FCC103CFFF795
:103B3000D6FDD0201034039007CC6B4607C31C3C45
:103B40000FCC103CFFF7A7FD103407CC6B4607C322
:103B50001C3C0FCC103CFFF7E4FD00280AD02046A7
:103B6000103007C86B4607C30FCCFFF7C9FD012013
:103B700005B0F0BD20461030039707C86B4607C359
:103B80000FCC103CFFF787FD103407CC6B4607C302
:103B90001C3C0FCC103CFFF7C4FD103407CC6B4627
:103BA00007C31C3C0FCC103CFFF799FDD12010340B
:103BB000039007CC6B4607C31C3C0FCC103CFFF7AF
:103BC0006AFD103407CC6B4607C31C3C0FCC103C7D
:103BD000FFF7A7FD10E0012D1AD001200390204629
:103BE000103007C86B4607C30FCC103CFFF724FD0D
:103BF0006D1E3070EDB2761C002DECD120461030D9
:103C000007C86B4607C30FCCFFF77AFD0020AFE76C
:103C10000020E3E7D00000207FB5334C0546204666
:103C2000103007C86B4607C30FCC103CFFF757FD99
:103C3000D0201034039007CC6B4607C31C3C0FCC3C
:103C4000103CFFF728FD103407CC6B4607C31C3C23
:103C50000FCC103CFFF765FD1034039507CC6B4685
:103C600007C31C3C0FCC103CFFF715FD103407CCEC
:103C70006B4607C31C3C0FCC103CFFF752FD1034C1
:103C800007CC6B4607C31C3C0FCC103CFFF727FD4D
:103C9000D1201034039007CC6B4607C31C3C0FCCDB
:103CA000103CFFF7F8FC103407CC6B4607C31C3CF4
:103CB0000FCC103CFFF735FD00201034039007CCEB
:103CC0006B4607C31C3C0FCC103CFFF7B5FC054608
:103CD000103407CC6B4607C31C3C0FCCFFF710FD1C
:103CE000284604B070BD0000D00000207CB514460A
:103CF0000D4606466B46062243216820FFF70AFF61
:103D000000280BD16946098849BA3180694649883B
:103D100049BA29806946898849BA21807CBDC00694
:103D200010B5010E1C2000F039F810BDC00610B50A
:103D3000010E1B2000F032F810BD10B5BC2801D3D5
:103D4000012110E0622801D302210CE02A2801D3CE
:103D5000032108E0142801D3042104E00A2801D338
:103D6000052100E006211A2000F018F810BD10B55A
:103D700004467D20C000844201D9044602E0042CA0
:103D800000D204242146FCF743FA401EC1B2192098
:103D900000F004F86008FFF7D0FF10BD7FB52F4C8E
:103DA000064620460D46103007C86B4607C30FCCA9
:103DB000103CFFF794FCD0201034039007CC6B46E6
:103DC00007C31C3C0FCC103CFFF765FC103407CC3C
:103DD0006B4607C31C3C0FCC103CFFF7A2FC00282D
:103DE00027D120461030039607C86B4607C30FCC77
:103DF000103CFFF750FC103407CC6B4607C31C3C4B
:103E00000FCC103CFFF78DFC1034039507CC6B46AC
:103E100007C31C3C0FCC103CFFF73DFC103407CC13
:103E20006B4607C31C3C0FCC103CFFF77AFC002804
:103E30000AD02046103007C86B4607C30FCCFFF7E7
:103E40005FFC012004B070BD2046103007C86B46EF
:103E500007C30FCCFFF754FC0020F3E7D00000208D
:103E600010B500F07DF80121432001F033F9642002
:103E700000F030FB0021432001F02CF9642000F019
:103E800029FB0121432001F025F90021AE2001F09A
:103E90004FFF0021D52001F04BFF0021502001F001
:103EA00047FF0021A82001F043FF00213F2001F03F
:103EB0003FFF0021D32001F03BFF0021084601F025
:103EC00037FF0021402001F033FF00218D2001F059
:103ED0002FFF0021142001F02BFF0021202001F0F2
:103EE00027FF0021084601F023FF0021A02001F058
:103EF0001FFF0021CF2001F01BFF0021DA2001F07D
:103F000017FF0021122001F013FF0021812001F092
:103F10000FFF0021EF2001F00BFF0021D92001F05D
:103F200007FF0021F12001F003FF0021DB2001F059
:103F3000FFFE0021302001F0FBFE0021A42001F053
:103F4000F7FE0021A62001F0F3FE0021AF2001F0D2
:103F5000EFFE01F061FD0021084600F026F810BDDB
:103F600008B500206A46D0700121517023211170DC
:103F70009070684600F0CEFF42206A461070684696
:103F800000F0C8FF17206A461070684600F0C2FFB4
:103F900043206A461070684600F0BCFF16206A464F
:103FA0001070684600F0B6FF08BD10B50446B03189
:103FB000C8B2002101F0BCFE20090021103001F040
:103FC000B7FE2007000F01210843002101F0B0FED9
:103FD00010BD0000F0B58DB00025282102A80C9579
:103FE000FCF714F90C240021062384A2084600944F
:103FF00001F070FE0120019006232522002100948B
:10400000642001F073FD01F04DFD002080000022CE
:104010006D1C02A9ADB20A500A2DF9D37B4B0020CA
:104020001C468034014614267143C91800224031D1
:10403000401C8A8380B2CA830528F3D39BE0002604
:104040003300FFF72DFA05041628374657000120E4
:104050000021800300F0BAFD01466C484030427EEA
:1040600053006A4A9A1840329184417E491C417635
:1040700040E001200021C00200F0A8FD0146634895
:104080006030427B5300614A9A1840321187417B6D
:10409000491C41732EE001200021C00300F096FD71
:1040A00061784A0059495118803188816078401CF4
:1040B00060701FE001200021800200F087FD617D1B
:1040C0004A005249511880310884607D401C607557
:1040D00010E0FF200021013000F078FD01464B4840
:1040E000A030427A5300494A9A1880329186417A28
:1040F000491C417214203146414344480B181F4665
:104100004037787E042801D30020787618460322B1
:104110000021643001F057FFB98B788D814200D2C5
:10412000B883F98BB88C814200D9F883761CB6B27B
:10413000052E85D30C980A21401C80B20C90FCF708
:1041400067F8002904D10020FFF7FEFB01F0AAFC6C
:104150001E21681CFCF75CF802460C210620019128
:10416000009003230021542001F020FD052000F0E1
:10417000B1F96D1CADB22648854200D25FE7234CF1
:10418000002002AB142141430919C20040318D8B3C
:104190009D50D218401CC98B80B251600528F1D3C4
:1041A0000C2406231BA221460020009401F092FD5E
:1041B00006231CA218210020009401F08BFD01F0C1
:1041C00071FC7D25ED00284600F084F9FD2000F00B
:1041D00095FD0023282202A9FD2000F0D5FD06232D
:1041E00013A224210020009401F074FD01F05AFC78
:1041F000284600F06FF90DB0F0BD000043616C6916
:1042000062726174696F6E2E2E2E0000D0F4FF1F53
:10421000B80B000043616C6962726174696F6E2053
:104220004F4B2100536176696E672E2E2E000000E1
:1042300053617665642121000EB509480090002085
:104240006A46907101211171917210725071602350
:104250005372D172D071684600F0CEFC0EBD0000E2
:1042600002CF0000FEB5584C00252B00FFF718F9CF
:10427000050416283848590001200021800300F069
:10428000A5FC514940394A7E53000A46403A9A18E3
:1042900040329084487E401C487642E00120002154
:1042A000C00200F093FC484920394A7B53000A467B
:1042B000603A9A1840321087487B401C487330E0BF
:1042C00001200021C00300F081FC61784A003E49D2
:1042D00080395118803188816078401C607020E0FE
:1042E00001200021800200F071FC617D4A00364906
:1042F0008039511880310884607D401C607510E061
:10430000FF200021013000F061FC2F4920314A7A62
:1043100053000A46A03A9A1880329086487A401C88
:104320004872142029464143274880380F183E46DA
:104330004036707E042801D3002070763946384616
:104340005A316430042200F0FFFFB18BF08B0090F3
:10435000081AFCF7E3FC0190718B0098081AFCF72F
:10436000DDFC0199FCF7C8FB6D1CEDB23866052D2C
:1043700000D27AE714488038066E456F31462846E9
:1043800001F034FE07463146284601F02FFF39463A
:10439000FCF7B2FB0D4F394601F098FE0C4DA861B9
:1043A000A668E4693146204601F020FE00903146BF
:1043B000204601F01BFF0099FCF79EFB394601F0F7
:1043C00085FEE861FEBD000050F5FF1F0000C842F9
:1043D00050F6FF1F08B500206946C87048702820B5
:1043E000087001208870684600F094FD01212820A3
:1043F00000F016FE0121282000F06CFE29206946FD
:104400000870684600F086FD0121292000F008FEB2
:104410000121292000F05EFE3420694608706846BC
:1044200000F078FD0121342000F0FAFD0121342054
:1044300000F050FE372069460870684600F06AFDBB
:104440000121372000F0ECFD0121372000F042FE71
:1044500008BD0000F0B585B01546022803D900203C
:10446000C04305B0F0BD0C4EC400325D012A0FD030
:104470006A46107001275770032010726846039532
:10448000019100F03DFE3755A01945600020E8E796
:104490000120C043E5E7000078FCFF1F70B5062847
:1044A00002D90020C04370BD1424094D6043441953
:1044B000267B012E09D06160002666702B540120F6
:1044C0002073A1603046226170BD0120C04370BDE1
:1044D00000FCFF1F002809D0012800D10220044958
:1044E00048600020087008780128FCD1704700005F
:1044F00074F0FF1FF8B50D4E0746756900240D488E
:104500000B490068FBF784FE7843B1690246B06945
:104510008842FCD0884201D2091A01E02B1A5918AE
:104520000C1901469442F2D3F8BD000000E000E00F
:1045300040420F0040F0FF1F70B5022802D9002052
:10454000C04370BD074DC400295D002906D000F0AE
:1045500033FE002028556119486070BD0120C0431A
:1045600070BD000078FCFF1F0148806870470000A4
:1045700074F0FF1F70B50021154B0C4614224A43FE
:10458000D0184460846044709C54491C0461C9B2D2
:1045900004730629F2D30E487D21883004804480BC
:1045A00084800C48C9000068FBF732FE0A49401EAF
:1045B00088420BD80949486109480722C3691B0290
:1045C0001B0A4D042B43C3618C610A6170BD00005E
:1045D00000FCFF1F40F0FF1FFFFFFF0000E000E0B6
:1045E00004ED00E04168002910D04168491E416097
:1045F0000CD1012141700178012903D1816841600A
:10460000002141700069002800D000477047000079
:104610001FB50121022000F003FD0121032000F05D
:10462000FFFC00F051F8E1204002009001200390CF
:104630000C206946488100200881C880094C888088
:10464000204600F0F1FD08480168C8782022104398
:10465000C8700649D00108600121204600F0C8FD5D
:104660001FBD000000A00640D8F9FF1F00E100E0D8
:10467000012801D00020704700487047D8F9FF1F7B
:1046800001680A79120701D50A79CA790A790A7983
:10469000120612D5828A002A10D0438A4268D25C60
:1046A000CA71418A491C89B241828289914201D3EF
:1046B00000214182818A491E81827047C878400664
:1046C000400EC870704700000B480A4901600B4952
:1046D0008160014628314160FF210131C181818122
:1046E000002141830183C182818241824162C16193
:1046F0000162704700A00640D8F9FF1F00FBFF1FB2
:10470000F8B50023FFF7B4FF002820D0002517E0FC
:104710008489878A6E4637803688B442F9D9CC5C62
:10472000078A4668F455048A641CA4B20482868908
:10473000B44200D30582848A641C84825B1C9BB2D1
:104740009342E5D30068C17880221143C170F8BD5F
:1047500010B500F007F800F0B7F900F08BF800F0A2
:1047600059F810BD10B5104C607800281AD01328E5
:1047700014D008DC02280BD010280CD011280DD042
:1047800012280DD10AE0142808D0152808D105E018
:1047900000F026F904E000F0C9F8102000F070F9EC
:1047A0000020607010BD000080F0FF1F70B588B061
:1047B0000E460446154620216846FBF727FD1B2DB3
:1047C00002D9002008B070BDAA2069460870487060
:1047D0008E70CD7000216846431908E0625C46186F
:1047E00032711A79465C9219491C1A71C9B2A942F0
:1047F000F4D32C462A1D05E01979065D8919641C3D
:104800001971E4B29442F7D301466A1D0120FFF703
:1048100077FFD6E700B589B020216846FBF7F6FCA4
:1048200013486A46818A0B1213705170C18A0B12A9
:104830009370D170018B0B1213715171418B0B125C
:104840009371D171818B0B1213725172C08B011253
:104850009172D07206484030008801121173507373
:10486000122202216846FFF7A1FF09B000BD000037
:1048700090F5FF1F00B589B020216846FBF7C6FC04
:1048800027496A46C88F031213705070084640309B
:10489000008803129370D070486C030E13710314D8
:1048A000537103129371D071886C010E117201144F
:1048B000517201129172D0721A481B49406A01F07C
:1048C00005FCFCF7C9F90104090E6A46117350731F
:1048D00013488038006CFCF7BFF90004000E6A46EC
:1048E00090730F488038006CFCF7B6F96A46D073B5
:1048F0000B488038806CFCF7AFF90004000E6A4664
:10490000107407488038806CFCF7A6F96A4650742A
:104910001222F1216846FFF749FF09B000BD0000EF
:1049200050F5FF1F50F6FF1F0000C84270B5284821
:10493000417902790802104340BA00B2FCF7EEF95F
:10494000244D2946FCF7D8F8234CE0602048C17973
:1049500082790802104340BA00B2FCF7DFF9294619
:10496000FCF7CAF820611A48417A027A080210431B
:1049700040BA00B2FCF7D2F960611548C17A827A78
:104980000802104340BA00B2FCF7C8F9134D29469B
:10499000FCF7B2F820600E48417B027B080210430E
:1049A00040BA00B2FCF7BAF92946FCF7A5F86060F6
:1049B0000748C17B827B0802104340BA00B2FCF773
:1049C000ADF92946FCF798F8A06001F0DDF970BD5B
:1049D000EC00002000002041D0F4FF1F0000C8427E
:1049E00030B585B014216846FBF710FC214C224DF0
:1049F000E068294601F06AFBFCF72EF901126A46CD
:104A0000117050702946206901F060FBFCF724F911
:104A100001126A469170D0706069FCF71DF90112AD
:104A20006A461171154D50712946206801F04EFB00
:104A3000FCF712F901126A469171D071294660683B
:104A400001F044FBFCF708F901126A46117250723A
:104A50002946A06801F03AFBFCF7FEF801126A460D
:104A60009172D072122210216846FFF79FFE05B0A6
:104A700030BD0000D0F4FF1F000020410000C842FC
:104A80001CB5002100910191AA216A461170517054
:104A9000EF2191700721D17010710A48C178001D73
:104AA000085C5071002069460B5C8A79401CD21862
:104AB000C0B28A710728F7D307220120FFF720FE32
:104AC0001CBD0000EC00002030B589B020216846F4
:104AD000FBF79CFB1C486A46418B04460B0A13708B
:104AE000517040346188E51D0B0A9370D170E18AE2
:104AF000F9350B0A13715171C08D010A9171D07192
:104B0000A869FCF7A9F80104090E6A4611725072EF
:104B1000E869FCF7A1F80104090E6A469172D072A7
:104B2000286AFCF799F80104090E6A46117350735C
:104B3000608D010A9173D0731022F2216846FFF74D
:104B400035FE09B030BD000010F5FF1F10B5FDF7B0
:104B5000AFFDFDF735FFFDF7D1FE10BD10B5FEF737
:104B60009FFE194C0028607007D02078002804D1DF
:104B7000022001F017F90020607020780300FEF792
:104B80008FFC0A09200C060F1215181B1E20FDF7BA
:104B900059FF16E000F0B4FE13E0FDF7B9FD10E098
:104BA000FEF7E0FA0DE0FEF75FFA0AE0FCF76EFDB3
:104BB00007E0FCF7EFFC04E0FCF70CFC01E0FEF77B
:104BC000C3FBFDF7EBFB10BD14F4FF1F00210246F1
:104BD000CA40D20703D1491C89B21029F7D3C906AC
:104BE0000448C90E016001680906FCD5006900058A
:104BF000000D704700B00340F8B5002605460121BE
:104C000034463746480700F0E7FA374B9869000406
:104C1000000C01D0C04380B229880143C843334906
:104C200080B299619861A879697A40000143A87AB5
:104C3000084398605868E97A08435860287A012840
:104C400000D1202669794020012903D10643284A52
:104C500041021160E979002902D0D9680143D96085
:104C60002868D9682A79521ED2B21143D9602149E5
:104C70000246E240D207D20F11D0E206D20E1A4B02
:104C800032431A601C4B01221B78A2409C469B00B9
:104C9000CA5063465B1C184A7F1C1370FFB22A7906
:104CA000BA4203D9641CE4B2102CE1D3C2030BD581
:104CB00010220D4B32431A600F4B01241A78240442
:104CC00095004C51521C1A7080030BD516200643D8
:104CD00005480660084A012310785B0484000B51E4
:104CE000401C1070F8BD000000B00340FFFF000042
:104CF00000E100E0C0F6FF1F54F0FF1F410210B5B5
:104D00000748002242700A2343720B0C03720123EE
:104D10004370090A4172027200F020F8002010BDB1
:104D20000000024010B50121080300F055FA084CBC
:104D300060790006FCD5084806490068FBF768FA68
:104D4000401E8006800E4030E0703020607110BD43
:104D50000000024040420F0044F0FF1F10B572B641
:104D60003020074C60710749481F0160601D88476B
:104D700062B660793321084000D0012010BD0000E8
:104D80000000024061F0FF1FF8B500264002174600
:104D90000C46C5181CE010480021417006214172E4
:104DA000290C017201214170290A41720572022108
:104DB0004170217801726178417203214170A178BC
:104DC0000172E1784172241D2D1DFFF7C7FF361DCA
:104DD000BE42E0D30020F8BD00000240F1B582B031
:104DE0000298002400888206930F8205120F009219
:104DF000010702058504090F920FAD0FC00B844611
:104E0000334847696E1D0120B040314E074377613A
:104E10006046002815D007D030698B409843306138
:104E200030698A40104330612A4806680298017947
:104E30007D20C00041430F46300CFBF7E9F90146E5
:104E40000BE0234EF0688B409843F060F0688A4096
:104E50001043F060E8E7641CE4B20846E040FAD191
:104E6000072C33D830463946E040FBF7D1F986B2FB
:104E7000194968000E520298711CC08848437D2170
:104E8000C900FBF7CFF980B28646144AA800115832
:104E90008E6000991358C9008C460C315E58042767
:104EA000BE435E501658282373506107490F1358AC
:104EB000083119600021022D01D19368D964155879
:104EC000634674461033EC5010584160FEBD00003C
:104ED0000080044044F0FF1F56F0FF1FC86200002E
:104EE00070B58205150F8004840F084A6000105ABF
:104EF000401C48437D21C900FBF794F9044AA100F6
:104F00005258E90080B21031505070BD56F0FF1F6A
:104F1000C8620000F0B501783E4BCD064A09ED0E9F
:104F200092009C58A6690121A9400E43A6619C5895
:104F300065698D4365614478002C02D0012C05D051
:104F40000EE09C58A5698D43A56109E09C58A669AF
:104F50000D463543A5619C5866690D46354365612C
:104F600085782D4E2D4C012D15D12B4F9D58403F4E
:104F7000BD4203D1A5680D43A5600CE0B54203D145
:104F8000E5680D43E56006E0234F4037BD4202D19E
:104F900025690D432561C17801293AD19958B1425B
:104FA0000BD10278382A04D0392A06D162698023CD
:104FB00001E0626940231A436261B1420BD1027879
:104FC000202A04D0212A06D16269202301E06269E7
:104FD00010231A436261104B403B99420BD1027877
:104FE000182A04D0192A06D16269082501E06269ED
:104FF00004252A43626199420BD100780C2804D021
:105000000D2806D16069022101E060690121084391
:105010006061F0BDBC62000040F00F4000900440B1
:10502000F0B51C4D1B4E43091B4F9B00184A194CF1
:105030004035403EFB58002915D0C106C90E01205D
:105040008840B34203D1916801439160F0BDA3420F
:1050500003D1D1680143D160F0BDAB42FCD11169ED
:1050600001431161F0BD01218140B34203D1906839
:1050700088439060F0BDA34203D1D0688843D060DC
:10508000F0BDAB42FCD1106988431061F0BD000057
:105090000090044040F00F40BC620000C20641098D
:1050A000D20E8800034908580069D040C007C00FDD
:1050B00070470000BC620000C1064209C90E0448E6
:1050C00092008058C26801238B401A43C260704727
:1050D000BC620000420910B59300C006074C0122D3
:1050E000C00E8240E058002903D04168114341605E
:1050F00010BD81681143816010BD0000BC620000DA
:1051000070B504460121022000F066F825480168C8
:105110000225A943016024487D21C9000068FBF7EE
:1051200077F8616841432078020120481218116025
:10513000217809010918CB6801221343CB6021783B
:10514000090109188B6893438B60217809010918BC
:105150008B68AB438B602178090109188B68134376
:105160008B606178012916D12178090108188168BE
:105170002943816021780E4A8900E06850502078E8
:105180000C49002808D0012805D1C0050860217A03
:105190001720FDF791FB70BD012080050860217A82
:1051A0001620F6E70070034044F0FF1F0071034033
:1051B0004CF0FF1F00E100E0012809D8010105487B
:1051C0000818C16801221143C16081689143816060
:1051D0007047000000710340044A0029516901D062
:1051E000014300E0814351617047000000800440AA
:1051F0000A4A10B5904202D10120000504E0084A95
:10520000904204D101204005FFF7E6FF10BD054A9A
:105210009042FBD101208005F6E7000000A0064087
:1052200000B0064000C00640F8B5044623480D46CD
:10523000844202D1012108050AE02148844202D1BA
:105240000121480504E01F48844203D1012188055B
:10525000FFF7C2FF297B204600F03AF8E078F321FF
:105260000840E070A078297A0843A070A0782979D6
:105270000843A070A078A9790843A070124800687C
:1052800000902968060948083018FAF7C1FF81B272
:105290000E48814200D90146207840094001207023
:1052A0002078CA04D20E104320706170E078AA7A88
:1052B0001043E0703046FAF7ABFFF8BD00A006409F
:1052C00000B0064000C0064044F0FF1FFF1F000072
:1052D00001290ED80E4B0F4A98420BD1D068CB0152
:1052E0001843D060012904D10B4881680C22114376
:1052F00081607047094B984202D11069090304E0AC
:10530000074B9842F5D11069490308431061704773
:1053100000A00640008004400090044000B0064019
:1053200000C0064010B5074C054860602146583162
:10533000A0688861002000F035FD0120207010BDBC
:105340005C03002060F3FF1F70B50C46034600218C
:10535000084604E04D005D5B2818491C89B2914263
:10536000F8D31146FAF754FF208070BDF7B500233B
:105370008AB0044600930193D24E8C460793039360
:105380000493059318461D460693CE4F8200543F62
:1053900000233946BB501C318B501C31401C8B50B4
:1053A000C0B2B3500728F0D3A1680027604600F0D0
:1053B0008DFE0090E1680C9800F088FE0190384660
:1053C0000C214843C0494218936809585268009814
:1053D00000F0A0F9BB49BA00543988504000000ED3
:1053E00005D0B848A9001C386D1C4750EDB27F1C91
:1053F000FFB2072FE3D306E0B2490020AA001C3910
:105400006D1C8850EDB2072DF6D300252F46384687
:105410000C214843AC4942189368095852680198D6
:1054200000F078F9A749BA00383988504000000EDA
:1054300003D0A8006D1C3750EDB27F1CFFB2072FC0
:10544000E5D304E00020AA006D1CB050EDB2072D9A
:10545000F8D300270025B80001909A4801991C381C
:1054600046581C209949704341189648AA00805814
:10547000800002900858FBF751FC00909149029877
:1054800038390958B0008F4E543E305800F01EFE97
:105490000990009900F01AFE039900F0A7FD03900F
:1054A0000799099800F0A2FD6D1CEDB20790072D39
:1054B000D3D37F1CFFB2072FCCD34000844D000E06
:1054C00003D007990398FBF717FB0490E069049950
:1054D00000F0FCFD0490216900F050FE206906D325
:1054E0006840049900F04AFE02D2206968400490A6
:1054F000A06A049900F07AFDA0627549606B48408B
:10550000A16A00F03BFE03D27149606B4840A06283
:10551000616BA06A00F032FE01D2606BA0620027CE
:105520000025B8000190674801991C384658674922
:105530001C207043C43141186248AA008058800082
:1055400002900858FBF7EAFB00905E490298383950
:105550000958B0005B4E543E305800F0B7FD06903D
:10556000009900F0B3FD039900F040FD0390079906
:10557000069800F03BFD6D1CEDB20790072DD2D3CD
:105580007F1CFFB2072FCBD34000000E03D007993A
:105590000398FBF7B1FA0590206A059900F096FD93
:1055A0000590616900F0EAFD606907D3484D0599EF
:1055B000684000F0E3FD02D2606968400590E06A4F
:1055C000059900F013FDE0624149A06B4840E16A93
:1055D00000F0D4FD03D23E48A16B4140E162A16BD3
:1055E000E06A00F0CBFD01D2A06BE06200200790E2
:1055F000074603900025B8000290324802991C38F3
:10560000465831491C207043C43941182D48AA001E
:105610008058800000900858FBF780FB01902949D2
:105620000098383909582748B2005438805800F09B
:105630004DFD0646019900F049FD039900F0D6FCA6
:1056400003903046079900F0D1FC6D1CEDB2079035
:10565000072DD2D37F1CFFB2072FCBD34000000E03
:1056600003D007990398FBF747FA0690606A0699FA
:1056700000F02CFD0690A16900F080FDA06907D321
:10568000134D0699684000F079FD02D2A069684088
:105690000690206B069900F0A9FC20630C4DE06B8E
:1056A000216B684000F06AFD02D2E06B6840206325
:1056B000E16B206B00F062FD01D2E06B20630DB066
:1056C000F0BD000040030020D0F2FF1F84F0FF1F58
:1056D0000000008070B50E4D044601682846FBF7B7
:1056E0000BFAA06028466168FBF706FAE0602946DD
:1056F0002069FBF701FAE06129466069FBF7FCF9D4
:1057000020622946A069FBF7F7F9606270BD0000CE
:1057100000004040FFB581B01D4617460E460024EC
:10572000019800F02BFD0ED83946019800F0A4FC3A
:1057300009D83146384600F059FD044631460198F3
:1057400000F054FD12E03946019800F017FD11D227
:105750002946019800F090FC0CD83946284600F004
:1057600045FD04462946019800F034FD2146FBF72B
:10577000C3F90446204605B0F0BD10B5FAF706FDA2
:105780000621484380B210BD0021427806E01C2368
:105790004B431B189B78012B02D0491C8A42F6DC34
:1057A000C8B2704710B5FAF7F1FC0621484380B241
:1057B00010BD10B5FAF7EAFC0621484380B210BDCF
:1057C00010B5FBF7EDFB092000F0ECFA01490120D0
:1057D000087010BD60F3FF1F0A4A10698169002933
:1057E00008D05160C06811465831801C8861012082
:1057F0001070704701690029FBD040690028F8D17A
:105800000847000060F3FF1F10B5032000F0CAFA3C
:1058100001490120087010BD60F3FF1F10B5FBF7B0
:10582000BFFB072000F0BEFA01490120087010BD3F
:1058300060F3FF1F10B5FBF7B3FB062000F0B2FAD0
:1058400001490120087010BD60F3FF1F10B5FBF780
:10585000A7FB052000F0A6FA01490120087010BD41
:1058600060F3FF1F10B5FBF79BFB042000F09AFAD2
:1058700001490120087010BD60F3FF1F10B508201A
:1058800000F090FA01490120087010BD60F3FF1F7D
:10589000FDF715FEFBF77AFCFFF758F91C20FFF720
:1058A000FDFB002801D1FEF795FB0123104A3321AF
:1058B0000020FEF7F3FD01230E4A15211846FEF7DE
:1058C000EDFD01230C4AC8210220FEF7E7FDFBF79E
:1058D0005DFB0A4A05210020FEF7BCFD002000F018
:1058E00061FAFFF73BF96420FEF7F4FDF9E70000E9
:1058F00051470000E1380000C91300005530000096
:10590000FEB51620002100901823344A084600F006
:105910008AF9182000900C2331A21E211A2000F0D1
:10592000D9F906250C24304E0095019432880223C3
:105930002946222000F03AF9012706233A22194687
:105940002E200197009400F0D1F800950194728800
:1059500002230621342000F029F906233A221946B1
:1059600040200197009400F0C1F800950194B2889E
:1059700002230621462000F019F91C481C49806BBF
:1059800000F034FC1B49FBF7B7F81B4900F09EFB05
:10599000FBF788F9C0B2194E00277070632801D355
:1059A00063207070C0B20C2148436321FAF730FCC9
:1059B0001421484312490A23421810200090042160
:1059C000642000F030F900950194032372780721D8
:1059D0006E2000F0EBF83770FEBD000096880000E6
:1059E000566563746F72000088FCFF1F50F6FF1F3E
:1059F0009A99D9409899993F0000C84216F4FF1F20
:105A0000DE8800000346012000E058430A46491E94
:105A1000C9B2002AF9D1704710B50021084C0A46D6
:105A20000020C3001B195A54401CC0B28028F8D370
:105A3000491CC9B20829F3D300F034F810BD0000A6
:105A4000D0FCFF1F10B57F2814D83F2912D8CB08EF
:105A50000724E31A2140641A0121A140064CC0002A
:105A60000019DBB2002AC25CC9B201D00A4300E0CF
:105A70008A43C25410BD0000D0FCFF1F3F22511AC0
:105A8000C9B2CA084907490F01238B40D9B2044B58
:105A9000C000C018805C084000D0012070470000A2
:105AA000D0FCFF1F70B5104E00252846B030C0B2A4
:105AB000002100F03DF90021084600F039F90021ED
:105AC000102000F035F90024E0008019405D01212C
:105AD00000F02EF9641CE4B2802CF5D36D1CEDB2FD
