:020000040000FA
:10000000F00600204B0100005701000059010000DC
:1000100000000000000000000000000000000000E0
:100020000000000000000000000000005B01000074
:1000300000000000000000005D010000C930000069
:100040006101000061010000610100006101000028
:100050006101000061010000610100006101000018
:100060006101000061010000610100006101000008
:1000700061320000793200007B320000890C000000
:1000800061010000610100006101000061010000E8
:100090006101000061010000052700002D2700001C
:1000A000F12200003D230000610100006101000019
:1000B00061010000610100006101000061010000B8
:1000C00000F002F800F030F80CA030C8083824180E
:1000D0002D18A246671EAB4654465D46AC4201D180
:1000E00000F022F87E460F3E0FCCB6460126334282
:1000F00000D0FB1AA246AB4633431847188C0000C9
:10010000388C00000023002400250026103A01D37B
:1001100078C1FBD8520700D330C100D50B607047BF
:100120001FB51FBD10B510BD00F02CFD1146FFF727
:10013000F7FF05F079FB00F044FD03B4FFF7F2FF91
:1001400003BC03F0A8F8000070470948804709483D
:10015000804709480047FEE7FEE7FEE7FEE7FEE7C7
:10016000FEE7000005480649044A064B70470000B8
:100170005D31000049010000C1000000F0050020D1
:10018000F0060020F00500207047000030B5441C48
:1001900003E00178401C00290DD08107F9D10B4BF9
:1001A000DD0104C8D11A91432940FAD0001B0A0688
:1001B00003D0C01E30BD001B30BD0A0401D0801E1C
:1001C00030BD0902FCD0401E30BD0000010101011C
:1001D00001E004C0091F0429FBD28B0701D502806E
:1001E000801CC90700D00270704700290BD0C307DC
:1001F00002D00270401C491E022904D3830702D595
:100200000280801C891EE3E70022EEE70022DFE780
:10021000002203098B422CD3030A8B4211D3002303
:100220009C464EE003460B433CD4002243088B42DD
:1002300031D303098B421CD3030A8B4201D394466A
:100240003FE0C3098B4201D3CB01C01A524183095D
:100250008B4201D38B01C01A524143098B4201D317
:100260004B01C01A524103098B4201D30B01C01A42
:100270005241C3088B4201D3CB00C01A52418308BC
:100280008B4201D38B00C01A524143088B4201D3E9
:100290004B00C01A5241411A00D201465241104649
:1002A00070475DE0CA0F00D04942031000D34042BE
:1002B000534000229C4603098B422DD3030A8B42F4
:1002C00012D3FC22890112BA030A8B420CD3890192
:1002D00092118B4208D3890192118B4204D3890178
:1002E0003AD0921100E08909C3098B4201D3CB01B6
:1002F000C01A524183098B4201D38B01C01A52416B
:1003000043098B4201D34B01C01A524103098B426E
:1003100001D30B01C01A5241C3088B4201D3CB0059
:10032000C01A524183088B4201D38B00C01A52413C
:10033000D9D243088B4201D34B00C01A5241411A13
:1003400000D20146634652415B10104601D3404241
:10035000002B00D54942704763465B1000D34042F2
:1003600001B50020C046C04602BD704770477047C7
:100370000246C80FC00781434B0030B54B405B00BD
:100380009B0D20D01923DB06C91801231B059942B8
:1003900020DB0324A40704251346AB400BD3002B1A
:1003A00004D1EB0613409B00E34204D4012464070C
:1003B000002312195941FF231B0599420BD2C90092
:1003C0000143500F09E0CB0204D501430803024367
:1003D00005D0054830BDFF21C905084330BD08469A
:1003E00007210905884330BD0000C07F7047000029
:1003F00010B5024800F0EDFB10BD00000000C07F0A
:10040000FFFFFFFFFFFFFFFFFFFFFFFFFFFFFEFEFE
:10041000F0B5F94D0C091E092C402E402F468BB02B
:10042000A7437DD0B543FCD0002E7AD0002CFCD061
:100430000D465D40ED0F2543AC1BFF25AD0464194F
:100440000894C502440DC9022143500DDC02044347
:100450000120C00701430443D2020191200C110C7A
:1004600000958C46010423468B430A91614609049A
:10047000E24D8A430991010A7D444919803909787E
:1004800005464D4301266D18F605751B6943C90CD9
:10049000640B891C4C436418B5012C1B250C2E04DD
:1004A000B4434C434D43210C691889090591009DC3
:1004B000E90701D00121C90704912C460199670879
:1004C000CD072F434C08059DE10B4D432D0C2946CC
:1004D0006646754302950D4645432E46029D7D1B9B
:1004E000B44100950D465D4301942C0C2F040D463C
:1004F0005543AE462D0C3D43029503947546049C2E
:100500002D04641B049406D2029C039D641C0026E7
:1005100075410395029401AC70CC009F7D1B01E0F6
:100520003EE162E1B4410904009507910194059907
:10053000A4086143090C0C464443650BE7040C46D0
:1005400066467443A646640B3C4303950294744686
:10055000049DE4042C1B049406D2029C039D641C9D
:10056000002675410395029401AC70CC009F7D1B61
:10057000B44101940C465C430095650FE7000C46BE
:100580005443A646640F3C43039502947446049D6D
:10059000E4002C1B049406D2029C039D641C0026DC
:1005A00075410395029401AC70CC009F7D1BB44152
:1005B000AE09AF06049DC900AD092F43049DA406F2
:1005C000AD060495079D344369180791059DE10B1D
:1005D0004D432D0C29466646754302950D4645430D
:1005E0002E46029D7D1BB44100950D465D4301944E
:1005F0002C0C2F040D465543AE462D0C3D43029561
:1006000003947546049C2D04641B049406D2029C3A
:10061000039D641C002675410395029401AC70CCC7
:10062000009F7D1BB44101948C050694079C890AA8
:10063000611800950791019C0599A4086143090C74
:100640000D464543680BEF040D46644665436C0B4D
:100650003C43049FED047D1BAC4602D20025641C84
:100660006841009E019D371B85410846584301950E
:100670000C46460FC5005443600F28436546E4000E
:100680002C1B02D20025401C6E41019D3F1AB54132
:100690002846BD09800628438446A009BF064E02AD
:1006A0000699A40676180743079D002068410A9919
:1006B000079019430020099B00906046FF191343DF
:1006C0004041E20F64003A43A4460446D71A8C41E5
:1006D000A04203D90120009020463A46C70F941843
:1006E00040416246D20F2243644664000494009C59
:1006F000BE466400D71AA446044602978C4177464A
:10070000002F01D1A04204D96046401C8446029AC1
:100710002046C40FA64694184041049A0546D20FBD
:10072000224364466400D31A8D417146002901D1E9
:10073000A84202D928461A46641C10430122002808
:1007400000D0164361020020079B891904465C41D2
:100750000223002C02DB491813466441089DCE0A8F
:100760002D145D194B056705E10A2C050D19089933
:100770003E43C9076940002B08D0934006D30022AE
:10078000761C5141002B01D1760876001C4A002DC1
:1007900043DB154241D0AA433FD030460BB0F0BDF9
:1007A00006180D464D41174C7642AC411AD39518A8
:1007B0001C465C41134A6D42A24113D301225205EB
:1007C0004C00D4420AD15C00D4420BD04B4002D53D
:1007D00092021143E2E749004908DFE75940C90F97
:1007E000C90718E000200849D8E7054801420DD1A3
:1007F0000342F7D0F2E700000000FF078A850000FF
:100800000000F07F0000E0FF0000F87F1148594031
:100810000143C01241400020C0E70123089A9B0613
:100820009A4205DC032252078918C90FC907B5E7A8
:10083000052252078918074A1143D2125140ADE7E9
:1008400070B515461C4602460B4628462146FFF762
:10085000DFFD70BDFFFFFF7F0121C90501234118A6
:1008600042001B06D3185B0E0AD0C1100722D20625
:10087000891840075242D14201D552008918704769
:10088000090208D50146002A03D0C10FC90700207C
:10089000704710467047420202D00020024970475C
:1008A000072109050143F4E70000F87FF0B5FF25B3
:1008B0002D04C609C209FF2704462E400137CB0983
:1008C0003E4348402A402B400746002A6BD0002B6D
:1008D00069D0AA4267D0AB4265D0002800DA324620
:1008E0000125ED0529432C4309022002090AD21AE9
:1008F0004B0C7F24E31A434C000A7C44E35C7D24C8
:100900002404121914145B00A218884201D3521C4B
:1009100000E0400049420C465C4324115C43DB018B
:100920006415E318040A5C43C502200D0C464443D9
:100930006419250A5D432303EC0C0D46654300034F
:100940000019EB184C42A34201D35B18401CD4059C
:100950002018002B07D05B00C91804D3401C0029C5
:1009600001D1400840003F2189048A4209D3002A6E
:1009700008DC1106090F04D0032149074018C00FF5
:10098000C007F0BD01224100120689187F225206DD
:100990009142F6D205214907C84201D59010F0BD19
:1009A000FF20C005F0BD002F00DA32461648AA42EB
:1009B00007D2AB4205D21902090E17D0F80FC007B3
:1009C000F0BDFF2563002D06AB42F9D84900A942CE
:1009D000F6D8AB4201D1A942F2D0A94201D10021FF
:1009E00001E061004908D0050843F0BD1102090E7D
:1009F000FBD0FF200243D005F0BD0A460146104659
:100A000054E70000888100000000C07F10B5014657
:100A10009E240002CA15A307002A02D01843002A08
:100A200004DBA21A002A0CDDD04010BD1206120E03
:100A300001D140004008A21A03D4D040404200280F
:100A4000F3DDFF2248001206904201D9002010BDBC
:100A5000C817C043584010BD0102C21504D001237D
:100A6000DB071943002A0ADB9E239A1A02D40846A0
:100A7000D0407047FF2241001206914201D9002068
:100A80007047C017C04370471F22030C02D10F22CA
:100A900000041CD0030E01D10002083A030F01D15B
:100AA0000001121F830F01D18000921E002801DB7C
:100AB0004000521ED20551180212511819229040BE
:100AC00004D3491C002801D1490849000846704751
:100AD000C10FC90700D04042012292071143D3E75A
:100AE00001218907D0E7000010B5FF231B06440051
:100AF0009C421DD84C009C421AD80346124A0B4314
:100B000007D4401A02D3EFF3008010BDEFF300804A
:100B100010BD081A06D2EFF3008001219043C907E7
:100B2000084302E0EFF30080904380F3008810BD9B
:100B30000D231B041A4204D01146002000F006F8D1
:100B400010BDFFF755FC10BD00000090C80212D583
:100B50004803400F002804D0C803C0430121884047
:100B60007047EFF3008000010009032109070843E3
:100B700080F30088704700207047000000487047ED
:100B80008C0500207546FFF7F9FFAE460500694663
:100B90005346C008C000854618B020B5FFF7E2FAFA
:100BA00060BC00274908B6460026C0C5C0C5C0C500
:100BB000C0C5C0C5C0C5C0C5C0C5403D49008D4603
:100BC000704710B50446C046C0462046FFF7B5FA48
:100BD00010BD10B50C461107090F092904D00A29C8
:100BE0000AD008290CD104E011460820FFF7AEFF17
:100BF00006E0510606D501E0510601D50120C007E7
:100C0000214610BDD10607D501010909CC084907C5
:100C1000000E0006044309E0410F20024907000AC4
:100C20000143200E00061D22D14101430846E7E79B
:100C300070B58C180578401C6B075B0F01D10378E9
:100C4000401C2A1106D10278401C03E00678401CA3
:100C50000E70491C5B1EF9D12B0705D40023521ED0
:100C60000DD40B70491CFAE70378401CCB1A921C78
:100C700003E01D780D70491C5B1C521EF9D5A14282
:100C8000D8D3002070BD000030B5094A0020064CC2
:100C90000649137804E022694500401C4A53C0B25B
:100CA0009842F8D330BD000000B0034078F6FF1F33
:100CB00098F0FF1F70B5174CA089401CA081E088F8
:100CC000401CE08000F092F8A0890025030002F0AB
:100CD000D5FA061C0E040F12181C6088401C80B246
:100CE0006080142803D36580A58002F087FC70BD66
:100CF00003F01AFB70BD00F069F9E58000F020F800
:100D000070BD00F093F8A58170BDA5816580A580B8
:100D1000E58070BD00F0FF1F10B50121024A0846B2
:100D200003F004FC10BD0000B50C000010B501215B
:100D3000252004F043F9012003F072FC10BD0000EF
:100D4000FEB5244E244F756CF96F284605F048FA1D
:100D50000246009030462946B83804F0D1FAF01F18
:100D6000F938016F1D4B1A029942016F00D35140AF
:100D7000846F9C42846F00D35440284605F0A0F94C
:100D800001902146009805F09BF900903220305EDA
:100D90001D30FFF79DFE124905F092F90290F86AA6
:100DA00038631049009805F08BF90B4C06468034E7
:100DB0000D49206805F084F9314605F011F90199D3
:100DC00005F00EF9029905F00BF9FD67F86200983D
:100DD0002060FEBD0CF6FF1F00F0FF1F00008080AA
:100DE000EC51B83D3333333F9A99993E70B50E4C70
:100DF000216BE06A0D4605F0F3F9FFF707FE0621C7
:100E0000615E00B2491C48430521FFF70BFAFFF76A
:100E10005FFE294605F0E4F8FFF7F8FD00B2FFF7A2
:100E200057FEA06270BD000000F0FF1F70B51B4DA3
:100E3000A96AA8690E4605F0D3F8FFF7E7FD04B2EA
:100E40003146686A05F0CCF9FFF7E0FD01B2144ABB
:100E50002420105E43421AB2A04201DA044602E0A6
:100E6000A34200DD1446884201DA014602E08B42CB
:100E700000DD11460A4840388482C1820820285E7D
:100E8000022806DD0021084602F0E4FD02F03EFBE8
:100E900070BD204602F0DEFD70BD000000F0FF1FB7
:100EA0004CF6FF1FFEB52E4D00246C642D4FEC64F4
:100EB000E81F264600942C4B2C4A3946F9380194F9
:100EC00004F038FF28460096274B284A3946DC387C
:100ED000019604F02FFF274F274B3E65244AE91F58
:100EE0007B652648F939FA64C86425488864254832
:100EF00008672548886708468030CA6706604360EF
:100F0000224808660020C8652148886508464830A0
:100F100004F0ACFBEB1FF93B14206043C018803099
:100F2000E2008682FD21067249024681511806615F
:100F30000A888281641C8988E4B2C181072CEBD3C2
:100F4000AE82EE82AE61EE612E6212486E62A865DC
:100F5000786303481049403081847E64FEBD000000
:100F60000CF6FF1F000088420000A0410AD7233C76
:100F70000000404200F0FF1F000011440000484202
:100F80000000164300004041000034430000E842E6
:100F90009A99194100009041B60300001FB5002046
:100FA00000900190029003900648806D0090FC2014
:100FB00003F018FE042200236946FC2003F058FECB
:100FC0001FBD00000CF6FF1F70470000F8B57C4CF9
:100FD0007C4D60890A2805D2E08B0A2802D2288934
:100FE000401C288103F092FA002809D0012002F069
:100FF000C0FC7F21C905A86C04F0F2FFA86402E0E0
:10100000012002F0A5FC60890A2809D2E18B0A2997
:1010100006D97F21C905E86B04F0E2FFE8630AE026
:10102000E18B0A2907D20A2805D97F21C905286C36
:1010300004F0D6FF28646448E96B81420BDDE08B45
:101040006E21081AFFF744FDA8650A220221062036
:1010500002F06EFA0CE0296C814209DD0A220221BD
:10106000062002F065FA60896E38FFF731FDA86549
:1010700060890026102811D9E08B10280ED9686CE1
:101080004000000E05D06889401C6881AE656E6422
:1010900001E0AE656E81EE632E6401E0A86D6864C8
:1010A0002878474C05278034030002F0E7F806044F
:1010B000274C64767F7D0121206DC905884205DBC0
:1010C0007F21C905686E04F08BFF0AE0FF21C90586
:1010D000C84201D2686E05E07F21C905686E05F03F
:1010E0007FF868663949884203DCFF218905C842D8
:1010F00028D903F0ADFA2867012022E003F0A8FA0E
:10110000296F401A7D21C900884200D92F70266DB1
:10111000686E3146074604F0D3FF01462C488142F1
:1011200010D3874201D3322001E03120C043FFF7C2
:10113000CFFCA863E06BAE66E86603F089FA6867E7
:1011400002202870F8BD03F083FA696F401A7D21F0
:101150000901884200D92F70E06BE96E05F040F874
:1011600004F066F81B498842ECDDAE6303F070FAC8
:10117000A8670320E5E703F06BFAA96F401A164948
:10118000884200D92F70216DA86E04F099FF0121CB
:10119000C9058842D6DB0420D3E7206D4000000E4D
:1011A00002D060885A28CDD92F70F8BD002002F0F7
:1011B000CFFB6E66AE66EE662E67AE632E70F8BD30
:1011C0008CF5FF1F00F0FF1F0000A0400000404012
:1011D0000000808000002042881300007CB5354C60
:1011E000354DA089002815D1384934A08861A86DF3
:1011F000A062084601F008F820462C3000F067FB9A
:101200002046443000F063FB20465C3000F05FFB7A
:101210000120A0812E487F260078F605072822D0DD
:1012200001282AD0042837D0224801212C3000F090
:101230009EFA20480121443000F099FA18250C2329
:1012400024A210210A20009504F01AFDA06AFFF7DD
:1012500003FC02460C200090022310210195582027
:1012600004F07AFC7CBD134800212C3000F07FFA9A
:101270003146A06A04F0B4FE0CE00E480021443070
:1012800000F075FA0121A06AC9058842D6DB314613
:1012900004F0A6FFA062D1E7A06AA8650020A081A3
:1012A000FFF77CFE03F0B4FB022004F073FDFFF7B0
:1012B00033FDC3E758F4FF1F0CF6FF1F536574207E
:1012C000546172676574537070656400F8F3FF1FB2
:1012D00055F4FF1F53706565643A00007CB5334CCC
:1012E000334D6089002815D1364932A0886168687D
:1012F0006062084600F088FF20462C3000F0E7FAD4
:101300002046443000F0E3FA20465C3000F0DFFA7B
:10131000012060812C482D4E0078072822D001281A
:101320002AD0042833D0214801212C3000F01FFAA4
:101330001E480121443000F01AFA18250C2324A27B
:1013400010211420009504F09BFC606AFFF784FBD9
:1013500002460C2000900423102101953A2004F04D
:10136000FBFB7CBD114800212C3000F000FA314617
:10137000606A04F035FE08E00C480021443000F0BB
:10138000F6F93146606A04F02BFF6062D5E7606AC7
:10139000686004F0DBFC0020608103F039FB022070
:1013A00004F0F8FCFFF7B8FCC7E7000058F4FF1F93
:1013B0008CF5FF1F446972656374696F6E204B641E
:1013C00000000000F8F3FF1F55F4FF1F0000A040CD
:1013D0004B643A007CB5354C354DE088002815D17A
:1013E000384934A08861E86FE061084600F00CFFDE
:1013F00020462C3000F06BFA2046443000F067FAAB
:1014000020465C3000F063FA0120E0802E483F2641
:1014100000783606012825D007282DD0042836D09C
:10142000224801212C3000F0A2F92048012144304B
:1014300000F09DF918250C2324A2102114200095FA
:1014400004F01EFC2249E06904F03AFEFFF704FBB9
:1014500002460C2000900423102101953A2004F04C
:101460007BFB7CBD114800212C3000F080F9314617
:10147000E06904F0B5FE08E00C480021443000F0BB
:1014800076F93146E06904F0ABFDE061D2E7E0694E
:10149000E86704F05BFC0020E08003F0B9FA02206A
:1014A00004F078FCFFF738FCC4E7000058F4FF1F95
:1014B0000CF5FF1F446972656374696F6E204B7091
:1014C00000000000F8F3FF1F55F4FF1F4B703A00B7
:1014D00000002041F8B5244C05462078002841D072
:1014E000284604F01DF960610021A061695681421F
:1014F00001DD002028701C482978007D1A4C401A14
:10150000C6B2583468782169884200D80026164847
:101510006661583000F078FE13487430866169784F
:10152000016100F0E3FD20696978C7B2814200D211
:101530000F4600240AE030191C21484342192001BB
:10154000011B1E20133100F04DFC641CBC42F2DB79
:1015500005491C22886950434019012208618270A4
:1015600000200870F8BD0000A0F3FF1FF8B5002AA6
:101570007ED0540054438718012B41D0861A022B89
:101580007BD0032B76D0042B72D115460026009118
:101590000098069AC1B2B8B200F000FD0098761C1F
:1015A000401E00906800024671006A437143511862
:1015B000091B081A401C002801DD6D1E7F1EAE426B
:1015C000E6DB0098069AC1B2B8B200F0E7FC284604
:1015D000410070006D1E891E0246694372438918DE
:1015E000091B0818401C7F1E002803DC0098401EC1
:1015F000761C0090002DE4DC0098C1B2B8B276E011
:1016000000970D46164600270098E9B280B2069A68
:1016100000F0C4FC70007F1C01467A0071437A43DD
:101620008918091B081A401C6D1C002803DD00984E
:10163000401E761E0090B742E6DB0098E9B280B209
:10164000069A00F0ABFC00993046491E009141001B
:101650007800761E891E024671437A438918091B59
:101660000818401C002801DC6D1C7F1C002E02E0C5
:1016700040E002E03FE0E0DC75E015460027009125
:101680000098069AC1B2B0B200F088FC00987F1CA6
:10169000401C00906800024679006A437943511863
:1016A000091B081A401C002801DD6D1E761CAF4284
:1016B000E6DB0098069AC1B2B0B200F06FFC284693
:1016C000410078006D1E891E024669437A438918DD
:1016D000091B0818401C761C002803DC0098401CDD
:1016E0007F1C0090002DE4DC0098C1B2B0B2069AD5
:1016F00000F054FCF8BD00960D46164600270098F1
:10170000E9B280B2069A00F049FC70007F1C0246E4
:101710007900724379435118091B081A401C6D1E49
:10172000002803DD0098401C761E0090B742E6DBDF
:101730000098E9B280B2069A00F030FC0099304679
:10174000491C009141007800761E891E02467143B3
:101750007A438918091B0818401C002801DC6D1EFB
:101760007F1C002EE4DC0098E9B280B2BFE77CB5B4
:101770000446C0680D460E287DD3A0681E287AD383
:10178000206903F0C6FFA168884274D825750C262D
:1017900061682068002D11D00122801D891D00F094
:1017A0002EF9206903F0B5FFA168081A21884008C6
:1017B0004018002180B2009601916CE00022801D4B
:1017C000891D00F01CF9012500952068616803233C
:1017D0000622801D891DFFF7C9FE0095A1682068BB
:1017E00042186168801D0B46D21F00F094FA0095E4
:1017F000A16820680423401861680622C01F891D63
:10180000FFF7B4FE0095E1686068A268411820689F
:101810004B1E8218801D491ED21F00F07CFA0095D5
:10182000E1686068A26841182068012380180622D8
:10183000C01FC91FFFF79AFE00956168E0680B188A
:101840002068891D0246DB1F00F065FA0095E168FB
:1018500060680223411820680622801DC91FFFF717
:1018600085FE00956168E068A2680B182068801802
:10187000421E401E00E018E0891DDB1F00F04BFAFD
:10188000206903F046FFA168081A21884008401823
:1018900080B200960195E168A2880C394908511878
:1018A00089B20C23226904F00DFB7CBD10B504F055
:1018B00089F810BD38B51446C9B280B26A4600F046
:1018C000AAFB6846017801206140884338BD7CB599
:1018D0000446C0680E287BD3A0681E2878D32069F0
:1018E00003F017FFA168884272D80125009520688F
:1018F000616803230622801D891DFFF737FE0095CE
:10190000A168206842186168801D0B46D21F00F054
:1019100002FA0095A1682068042340186168062235
:10192000C01F891DFFF722FE0095E1686068A2686C
:10193000411820684B1E8218801D491ED21F00F0DE
:10194000EAF90095E1686068A268411820680123FF
:1019500080180622C01FC91FFFF708FE00956168A6
:10196000E0680B182068891D0246DB1F00F0D3F9E0
:101970000095E16860680223411820680622801DF6
:10198000C91FFFF7F3FD00956168E068A2680B18B6
:101990002068891D8018421E401EDB1F00F0BBF925
:1019A000207D0C26002814D0206861680122801D4B
:1019B000891D00F024F8206903F0ABFEA168081A25
:1019C000218840084018002180B2009601910BE068
:1019D00014E0206903F09DFEA168081A21884008E0
:1019E000401880B200960195E168A2880C39490838
:1019F000511889B20C23226904F064FA7CBDF7B552
:101A0000D8B00C460546802874D2402C72D2E1B280
:101A1000A8B250AA00F0FFFA50A802785A98D1074D
:101A2000C007C90FC00F814264D021462846559493
:101A300000F0CCFA0646569050A802782146284677
:101A400000F0F1FA549080194008299401942890EC
:101A500001240090254601E0002D7BD0E90028A854
:101A600008188038816F5291C66F50A86D1E027899
:101A7000EDB23146529800F0A9FA539050A802787E
:101A80003146529800F0CFFA519050A80278761C57
:101A900031465298FFF70EFF002804D050A8027874
:101AA0003146529815E0539F08E050A8027831461D
:101AB0003846FFF7FFFE002803D17F1C519887426C
:101AC000F3D951988742C7D850A852970278314627
:101AD000384600F0A8FA519050A802783146529842
:101AE00000F074FA5390142C1FD2471E5897599047
:101AF000074617E07EE050A80278711E3846FFF7CF
:101B0000D9FE002827D059995898884207D0589173
:101B1000E00069460F504018641CE4B24660142C83
:101B200003D27F1C51988742E5D9539951985A9B0B
:101B30004018400852905198F1B282B2539880B246
:101B400000F0D5F8142DA0D2539F59977F1E5897B7
:101B5000599F19E01FE05997E1E750A80278711CDE
:101B60003846FFF7A7FE002813D0599958988842A5
:101B700007D05891E80028A90F5040186D1CEDB20D
:101B80004660142D81D27F1C5198874200D97CE792
:101B9000E3E75997F5E7002C20D0E10068460818E4
:101BA0008038816F5291C66F50A8641E0278E4B2EB
:101BB0003146529800F00AFA539050A80278314604
:101BC000529800F030FA074650A80278761E314647
:101BD0005298FFF76FFE00280ED020E0002D00D0B5
:101BE0003AE754985A9B82B25598C1B2569880B23F
:101BF00000F07DF85BB0F0BD539809E050A8027882
:101C000031465198FFF756FE002804D15198401CE8
:101C10005190B842F2D95198B842BCD8529050A8CD
:101C200002783146529800F0FEF9074650A8027833
:101C30003146529800F0CAF95390142D20D2599091
:101C4000401E5890599818E050A80278711C51987D
:101C5000FFF730FE002826D059995898884208D0BE
:101C60005891E80028A9519A0A5040186D1CEDB20D
:101C70004660142D04D25198401C5190B842E3D9CB
:101C80005398BAB23818400852905398F1B280B2C3
:101C90005A9B00F02CF8142C96D253985990401E61
:101CA000589059981BE051985990E2E750A8027853
:101CB000711E5198FFF7FEFD002815D059995898CC
:101CC000884208D05891E0006946519A0A5040185D
:101CD000641CE4B24660142CDED25198401C519032
:101CE000B84200D970E7E1E751985990F3E7F8B5A9
:101CF00015461E460F460446A84202D9D0B22546D4
:101D0000044632463946204600F048F9641CA4B225
:101D1000A542F6D2F8BDFFB583B0054605980C463E
:101D2000411B06980027021BFF43002902DD01200A
:101D3000029002E0002904DA0297002A09DD012757
:101D400011E0C2B2E1B2A8B20C9B00F02CF907B0CE
:101D5000F0BD002A07DB0598E1B282B2A8B20C9B65
:101D6000FFF7C5FFF3E70298484339465143420065
:101D700000924A00019288421CDB161A0098101A41
:101D800000900EE0E1B2A8B20C9A00F007F90298B8
:101D90002D18002E02DA0198361802E000988619F4
:101DA000E41905988542EDD1E1B2A8B20C9A00F091
:101DB000F5F8CCE70098461A801A01900EE0E1B2DF
:101DC000A8B20C9A00F0EAF8E419002E02DA0098A2
:101DD000361803E00198861902982D180698844257
:101DE000EDD1E1E7FEB514460D460646802805D83C
:101DF000402D03D8022D01D3122E01D20020FEBDAA
:101E0000E0680028FBD0A27830461023A91E1238C3
:101E10000C27002A12D06268002A04D0C9B2C0B2CE
:101E2000009303F0D6FE002001900097A9B2B0B253
:101E30000C23E26804F046F80120FEBDA268002AE7
:101E400005D00093C9B2C0B2102303F0C2FE012036
:101E5000EAE7000010B5002902D00121002401E0CA
:101E6000002101240448FFF782FC03482146183072
:101E7000FFF77DFC10BD000068F3FF1FFEB5816811
:101E8000044614293CD3E068142839D325686A181D
:101E9000802A35D861680B18402B31D80027284696
:101EA000521E5B1E009700F0F4F801250095616852
:101EB000E068A2680B1820685B1E8218521E00F0B2
:101EC000CAF820882189304B4118491E8AB22179ED
:101ED00080B20E31C9B21B78FFF709FF0095A168E7
:101EE000206842186168521E0B460D3300F0D1F88D
:101EF000206903F023FC0246A068811E8A4201D9B2
:101F00000020FEBD80B20C26019700960290A088AA
:101F10003346401C81B22088226980B204F02AF83E
:101F20001A480775A16901612168491D0160E268CD
:101F300061688918C268891A091F4160FFF7C7FCE8
:101F4000124818300575E1690161A2682168891895
:101F50008268891A891F0160E26861688918C2680D
:101F6000891A091F4160FFF7B2FC00960195A0880D
:101F70000C23113081B220886269801D80B203F089
:101F8000A1FF0120FEBD000066F3FF1F68F3FF1FE5
:101F90000148007D7047000068F3FF1F10B5C0B214
:101FA00003F026FD10BDF8B515461E4607460C4643
:101FB000A94201D90D461446324621463846FFF75C
:101FC000EDFF641CE4B2A542F6D2F8BDF8B5D50722
:101FD000441EED0F0E46002C0ED0F1B2A0B26A46A0
:101FE00000F019F868460078C007C00FA84201D079
:101FF000601CF8BD641EF0D1F1B200206A4600F00A
:102000000AF868460078C007C00FA84201D0012036
:10201000F8BD0020F8BD10B51446C0B203F004FDB1
:102020002070002010BDF8B5441CD5070E46ED0FFA
:102030000DE0F1B2A0B26A46FFF7EDFF6846007806
:10204000C007C00FA84201D0601EF8BD641C802CE0
:10205000EFD38020F8BDF8B51C4615460E4607465E
:1020600092B2C9B280B2069BFFF741FEAAB2E1B2BA
:10207000B8B2069BFFF73BFEE2B2F1B2B8B2069BE4
:10208000FFF791FFE2B2F1B2A8B2069BFFF78BFF18
:10209000F8BDF8B517461E460C460546B84201D9AC
:1020A00015460746B44201D91C460E46B44206D135
:1020B000BAB2E1B2A8B2069BFFF719FEF8BDBD4265
:1020C0000DD1F2B2E1B2A8B2069BFFF76CFFF8BDEA
:1020D000BAB2E1B2A8B2069BFFF709FE641CB44293
:1020E000F6D9F8BD10B503F0B3FC10BDF8B5040087
:1020F00052D0A2680A2A4FD3E06814284CD3012595
:10210000009561680B1820685B1E8218521EFFF74D
:10211000A2FF082600962089217808384008081870
:102120002179C0B2491CC9B233461C4A03F051FDA3
:1021300000962079217B227840180938C1B2208985
:102140000823083840081018144AC0B2083203F0B7
:1021500040FD0095A168206842186168521E09314F
:102160000B46FFF7D8FD0095E1686068A26841184A
:1021700020680A3982180B46521EFFF7CCFDE06832
:102180006269216914388A4202D25043FEF740F84E
:10219000E061204600F004F8F8BD0000D689000098
:1021A000FEB504468189808B091A14398EB22188C4
:1021B000491C8AB20192A188721E0A318DB2801820
:1021C000218900220092C91E019A89B280B2571853
:1021D0002B183A4629460198FFF75BFF2169606991
:1021E000814201D8002005E0A069491E7043FEF736
:1021F0000FF880B2012100912918E2690198531863
:102200003A46FFF746FFFEBDFEB581680446142935
:102210003BD3E368142B38D320684218802A34D883
:102220006168CB18402B30D80025521E5B1E0095EC
:10223000FFF72FFF012600966168E068A2680B187F
:1022400020685B1E8218521EFFF705FF2088218937
:10225000174B4118491E8AB2217980B20E31C9B29A
:102260001B78FFF744FD0096A1682068421861685A
:10227000521E0B460D33FFF70CFFA06903F065FA01
:102280000246A068811E8A4201D90020FEBD80B2AC
:102290000C21019500910290A0880C23401C81B272
:1022A0002088A26980B203F065FE0120FEBD000017
:1022B00066F3FF1F10B5242002F064FE012801D050
:1022C000012010BD002010BD10B51C2002F05AFEE8
:1022D000012801D0012010BD002010BD10B51B2029
:1022E00002F050FE012801D0012010BD002010BDD9
:1022F000F8B50F4D0024A8680E4E000712D50E4FFA
:10230000387884420ED2E96820460C225043325875
:10231000114204D080198068002800D08047641CD6
:10232000E4B2EDE7A86824210843A860F8BD0000E6
:102330000090074008F7FF1FB2F0FF1FF8B50F4DE0
:102340000024A8680E4E000712D50E4F387884423C
:102350000ED2E96820460C2250433258114204D074
:1023600080198068002800D08047641CE4B2EDE743
:10237000A86824210843A860F8BD000000A0074019
:1023800008F7FF1FB2F0FF1F10B52C2002F0FAFD76
:1023900010BD10B501212D2002F010FE10BD10B5AA
:1023A00000212D2002F00AFE10BD10B501212C20C5
:1023B00002F004FE10BD10B500212C2002F0FEFD3D
:1023C00010BD08B500206A46D07050702C211170E5
:1023D0009070684602F012FD08BD08B500206A46FC
:1023E000D070012151702C2111709070684602F05C
:1023F00005FD08BDF0B50021124D134F134B0A46E1
:1024000005261C204843401946708C0082704760A6
:1024100082601C5902614261491CC9B2C460826178
:102420000529EED30120A870094828610948E8620F
:1024300004480A498C306863074868660148803060
:102440000160F0BD78030020E6890000D8F3FF1F8B
:10245000A157000071570000B55D000059570000FA
:10246000F8B5674E7068FFF735F8664900270878B9
:10247000002800D0F760624C5834012802D00728A9
:1024800055D159E03E237522122101200097FFF714
:1024900000FEB0691C2148437168401830618770A4
:1024A000B069401CB06172685178491E814200DCFD
:1024B000B161B0691C2148438018012130618170ED
:1024C00072681078401C43B213702046517824691A
:1024D000A14205D80D468B420EDB491E11700BE060
:1024E000E5B2641EA34207D914700269891A4269D1
:1024F000914201D9521C4261002410E040481C2145
:10250000583040694843716841181C2060430A18DC
:102510002001011B1E201331FFF764FC641CAC4238
:10252000ECDB3748B16974308161FFF739FE35481B
:102530000078042849D04DE03E2375221221012065
:102540000097FFF7A6FDB1691C22514372688818F5
:1025500030618770B069401EB061002800DCB7614F
:10256000B0691C21484371684018012130618170B5
:1025700071680878401E42B20A704D78236920467F
:102580009D4203D8002A0ADA0F7008E0DDB2002A63
:1025900005DA0F704169002901D0491E61610024EC
:1025A00010E017481C2158304069484371684118B1
:1025B0001C2060430A182001011B1E201331FFF765
:1025C00011FC641CAC42ECDBABE73069006900280D
:1025D00000D08047F068411CF16064280FDDF7608F
:1025E00030694169002908D0877070691C2148430F
:1025F0007168401801213061817002F007FEF8BD5A
:10260000A0F3FF1F55F4FF1F8307FF22DB0E9A4044
:102610008907090E994000280BDA0007000F0838D7
:10262000830808489B001818C36993430B43C36190
:102630007047830804489B001818036893430B43B2
:102640000360704700ED00E000E400E08307FF2234
:10265000DB0E9A408907090E994000280BDA000723
:10266000000F0838830808489B001818C369934373
:102670000B43C3617047830804489B001818036824
:1026800093430B430360704700ED00E000E400E07B
:10269000F0B50021134B144C144E0A4605251C209E
:1026A0004843C01882610261446082608F0082707A
:1026B00045704261491CF759C9B2C7600529EED37C
:1026C000012098700A4818610A48D8620A4898643C
:1026D0000A480449586603488C39803081600849AB
:1026E0000160F0BD90040020E6890000BCF3FF1FEC
:1026F000FD570000E5570000CD570000B55700001A
:102700007157000010B5074CE068C00704D00648B8
:102710000068002800D08047E06801210843E0609D
:1027200010BD00000071034090F0FF1F10B5074C72
:10273000E069C00704D006484068002800D0804700
:10274000E06901210843E06110BD00000071034011
:1027500090F0FF1FF0B50021114C124B124E0A46AB
:1027600003251C20484300194570826102614360C3
:102770008F00826082704261491CF759C9B2C760FC
:102780000329EED301200649A0708C31A1610748CE
:1027900020610749E16202498C392165A064F0BDDE
:1027A00004040020E6890000ECF3FF1F71570000CD
:1027B0001558000010B5074C6078002808D0201D7F
:1027C000FFF722FD20462030FFF790FC00206070CC
:1027D00010BD0000CCF4FF1FF0B585B0FFF7EAFF95
:1027E000F84900200856F8490626CC1D80310C27F0
:1027F0000125F9340291002808D0012805D00228CB
:102800007ED003287DD004287CD0B4E20623EFA23A
:102810000F210320009703F033FA029801970096E6
:10282000428903230F211B2003F096F90623E9A216
:102830000F214120009703F023FA02980197009698
:10284000C28B03230F215F2003F086F90623E3A246
:102850001B210320009703F013FA029801970096BA
:10286000428E1B210323084603F076F90623DDA2DE
:102870001B214120009703F003FAD3480197C03091
:102880000096C28803231B215F2003F065F906230D
:10289000D6A227210320009703F0F2F9FF21606CF4
:1028A000C905C84214D306232D2227211B200097D7
:1028B000019503F0F1F80121606CC9074840FEF76B
:1028C000A5F802B20323272121200197009607E0F3
:1028D000FEF79CF802B2042327211B2001970096E3
:1028E00003F03AF90623C3A227214120009703F001
:1028F000C7F9FF21A06CC905C84218D3062302E01E
:1029000058E08FE103E22D2227215A2000970195FC
:1029100003F0C2F80121A06CC9074840FEF776F821
:1029200002B20323272160200197009607E0FEF7FB
:102930006DF802B2042327215A200197009603F074
:102940000BF90623ADA233210320009703F098F979
:10295000022201970096A25E032333211B2003F07D
:10296000FBF80623A6A233214120009703F088F943
:10297000216DFF20C005C142009701950AD30623AF
:102980002D2233215A2003F087F80121206DC90739
:10299000484006E00623202233215A2003F07CF829
:1029A000206DFEF733F802B2032333216020019734
:1029B0000096DEE1062393A20F210320009703F087
:1029C0005FF9A0690097002801950ADA06232D22F5
:1029D0000F21152003F060F801970096A06942428C
:1029E00008E0062320220F21152003F055F8019757
:1029F0000096A26904230F211B2003F0ADF80623E3
:102A000081A20F213D20009703F03AF9E069009779
:102A1000002801950ADA06232D220F214F2003F00A
:102A20003BF801970096E069424208E00623202225
:102A30000F214F2003F030F801970096E26904233C
:102A40000F21552003F088F8062370A221210320CE
:102A5000009703F015F91420205E009700280195D7
:102A60000EDA06232D223221152003F015F814204A
:102A700001970096205E04234242322125200CE07B
:102A8000062320223221152003F006F81422019794
:102A90000096A25E042321211B2003F05DF806238B
:102AA0005BA221213D20009703F0EAF81620205E6A
:102AB0000097002801950DDA06232D2232214F20A0
:102AC00002F0EAFF162001970096205E042342429E
:102AD00032210BE00623202221214F2002F0DCFFCF
:102AE000162201970096A25E04232121552003F0AF
:102AF00033F8606D0090FDF789FF0A21029048438A
:102B0000FDF7E6FF009903F05FFB424903F0D8FAB6
:102B1000FDF77CFF039006233FA23321009703209B
:102B200003F0AEF8FF20616DC005C14221D30298C9
:102B300006234042029003982D224442332127204D
:102B40000097019502F0A8FF022301970096332118
:102B50002D20029A03F000F806232E22332139207B
:102B60000097019502F098FF0223224601970096F4
:102B70001BE006232022332127200097019502F035
:102B80008BFF02230197009633212D20029A02F039
:102B9000E3FF06232E22332139200097019502F00E
:102BA0007BFF039A02230197009633213F2002F016
:102BB000D3FF06231AA233214E20009703F060F8BA
:102BC000D9E00000CCF4FF1F0CF5FF1F46484C3A3B
:102BD000000000004648523A0000000042484C3ACB
:102BE000000000004248523A000000004641453AC9
:102BF000000000004241453A00000000484D3A0004
:102C000041453A004C453A0052453A004C503A0092
:102C100052503A000000C84253706565643A0000A3
:102C2000522F5300062376A20F210320009703F0B2
:102C300027F875487549006803F042FAFDF70CFF64
:102C4000024604230F211B200197009602F084FF07
:102C500006236FA20F213720009703F011F86A486E
:102C60006A49406803F02CFAFDF7F6FE0246042399
:102C70000F2155200197009602F06EFF062366A2F1
:102C800021210320009702F0FBFF5F48C06FFDF792
:102C9000E3FE0246042321211B200197009602F047
:102CA0005BFF06235EA221213720009702F0E8FF98
:102CB00002984068FDF7D0FE0246042321215520EA
:102CC0000197009602F048FF062357A23221032005
:102CD000009702F0D5FFE06DFDF7BEFE024603232C
:102CE00032211B200197009602F036FF06234FA2E7
:102CF00032213720009702F0C3FF206EFDF7ACFEB3
:102D000002460323322155200197009631E0142119
:102D10000623474A0846009702F0B2FF216DFF20C4
:102D2000C005C142009701950AD306232D22142124
:102D3000262002F0B1FE0121206DC907484006E0BF
:102D4000062320221421262002F0A6FE206DFDF786
:102D500083FE0246022314212C200197009602F0E4
:102D6000FBFE182001903348009702781E210123B2
:102D7000084602F0F1FE30483049007807280AD0B2
:102D800001281FD0042804D1081F4570002003F03B
:102D900001F805B0F0BD294A121F1078401E40B25C
:102DA00010705570002801DA0420107000201056B1
:102DB000030000F063FA052020221C1E0400E8E74F
:102DC0008861E6E71D4A121F1078401C40B210705F
:102DD0005570042801DD00201070002010560028D6
:102DE00009D0012805D0022807D00328D1D114A08A
:102DF000E6E716A0E4E71AA0E2E71EA0E0E700007D
:102E0000534B503A000000000CF5FF1F000020411A
:102E1000534B493A00000000444B503A0000000078
:102E2000444B443A000000004C543A0052543A00DB
:102E3000002C00004CF6FF1F55F4FF1FD0F4FF1FBD
:102E4000526F616420446574656374004D6F746FE4
:102E50007220506172616D657465727300000000CC
:102E600053656E736F7220506172616D6574657227
:102E70007300000050494420506172616D657465B3
:102E800072730000F0B50346084649008C465C5A50
:102E900015E0521E904203DA5100595AA142F8D26D
:102EA0005100904204DA5D5AA54201D8401CF8E76F
:102EB000904204DA46009D5B5F5A9F535D529042F8
:102EC000E8DB41005D5A62469D525C52F0BD000055
:102ED0007CB5354C354D6088002815D1374934A074
:102EE0008861686860610846FFF78EF920462C30DB
:102EF000FEF7EDFC20464430FEF7E9FC20465C304E
:102F0000FEF7E5FC012060802D483F26007836065C
:102F1000012825D007282DD0042836D022480121A9
:102F20002C30FEF724FC204801214430FEF71FFC22
:102F300018250C2323A210211420009502F0A0FED6
:102F40002149606903F0BCF8FDF786FD02460C20BC
:102F500000900423102101953A2002F0FDFD7CBD74
:102F6000114800212C30FEF702FC3146606903F065
:102F700037F908E00C4800214430FEF7F8FB3146F1
:102F8000606903F02DF86061D2E76069686002F063
:102F9000DDFE0020608001F03BFD022002F0FAFE21
:102FA000FDF7BAFEC4E7000058F4FF1F0CF5FF1F41
:102FB0005370656564204B6900000000F8F3FF1F43
:102FC00055F4FF1F4B693A00000020417CB5354C99
:102FD000354D2088002815D1374934A088612868EC
:102FE00020610846FFF710F920462C30FEF76FFCF1
:102FF00020464430FEF76BFC20465C30FEF767FC51
:10300000012020802D483F2600783606012825D053
:1030100007282DD0042836D0224801212C30FEF775
:10302000A6FB204801214430FEF7A1FB18250C2304
:1030300023A210211420009502F022FE21492069CC
:1030400003F03EF8FDF708FD02460C200090042333
:10305000102101953A2002F07FFD7CBD114800212E
:103060002C30FEF784FB3146206903F0B9F808E004
:103070000C4800214430FEF77AFB3146206902F00B
:10308000AFFF2061D2E72069286002F05FFE0020D8
:10309000208001F0BDFC022002F07CFEFDF73CFE2A
:1030A000C4E7000058F4FF1F0CF5FF1F537065655F
:1030B00064204B7000000000F8F3FF1F55F4FF1F61
:1030C0004B703A000000204110B500F001F810BD2F
:1030D00070B51E4A00245068002805D05068401E74
:1030E000506001D1012010709068401C9060916880
:1030F00017480025814200D1956016499068FDF778
:1031000091F81548002902D18188491C8180818865
:103110003B2903D985804188491C418041883B294E
:1031200003D945800188491C01800188172900D9ED
:103130000580094D883D14206043401901F0C0FA14
:10314000641CE4B2062CF6D370BD0000B8F0FF1F7B
:10315000FFFFFF7FDE03000070FCFF1F10480F49D8
:103160008180012141702321017011200D4900054A
:1031700048620D48002141700C4A962111701A21B5
:1031800001700179C906FCD401790907890FFBD1C7
:1031900007490868400848608860704703E80000F5
:1031A00000200540008004400040064000500640DA
:1031B00084F0FF1F70B5284C6078002805D10120ED
:1031C000607020469430FEF759FE244D2878072879
:1031D00010D1214800219430FEF73CFE1E4800210A
:1031E0009430FEF737FEFEF77DFF1B2001F0CAFE8C
:1031F0000028FAD02878012810D1174801219430EE
:10320000FEF728FE144801219430FEF723FEFEF756
:1032100069FF242001F0B6FE0028FAD0287804289F
:1032200011D1002060701C2001F0ACFE0028FAD003
:1032300009489430FEF7ACFE012805D001F0E8FB08
:10324000022002F0A7FD70BD01F0E2FB022002F0B7
:10325000A1FDFDF7B9FE70BDA0F3FF1F55F4FF1FE0
:1032600010B503480079034801F070FA10BD000062
:1032700000A00640C0F9FF1F7047704730B4744685
:10328000641E2578641CAB4200D21D46635D5B0062
:10329000E31830BC18470020704710B500F0DCF888
:1032A00001F074FB01F030FB01F0DAFA10BD000010
:1032B0000E4930B50B46203BDC781A790020593492
:1032C000A4184C7106E01D186D79E4B26419401C15
:1032D0004C71C0B28242F6D80448E1B21B38105C8F
:1032E000814201D1012030BD002030BD700300209B
:1032F00070B588B00E460446154620216846FCF796
:1033000085FF1B2D02D9002008B070BDAA20694698
:10331000087048708E70CD7000216846431908E02F
:10332000625C461832711A79465C9219491C1A710E
:10333000C9B2A942F4D32C462A1D05E01979065DCD
:103340008919641C1971E4B29442F7D301466A1DCD
:10335000012001F05CFAD6E770B586B0142168460A
:10336000FCF754FF224C234EE06F314602F0A8FEDA
:10337000FDF74CFB01126A461170254650708035EE
:103380003146286802F09CFEFDF740FB01126A46B8
:103390009170D0706868FDF739FB01126A461171AF
:1033A000154D50712946206802F08AFEFDF72EFB6C
:1033B00001126A469171D0712946606802F080FE60
:1033C000FDF724FB01126A46117250722946A0686B
:1033D00002F076FEFDF71AFB01126A469172D07276
:1033E000122210216846FFF783FF06B070BD00006F
:1033F0000CF5FF1F000020410000C84210B5144A20
:1034000000231178002912D0012914D0114B022970
:1034100017D0032918D04C1C14701C79641DA142CC
:1034200004D251785B185871491C517010BDAA28FC
:10343000FCD101200AE0AF2801D0137010BD02209A
:1034400004E0D870032001E018710420107010BD52
:1034500064F3FF1F5003002010B5FFF729FF002879
:1034600017D00C4CE078002813D005280CDA0300A4
:10347000FFF704FF030A0A030A006079212803DA30
:10348000012801D1FFF768FF00200349E0700870B0
:10349000487010BD5003002064F3FF1F10B501F009
:1034A000B5FB01F0DBF862B601F020F900F080FD19
:1034B00000F038FA00F071F900F0D5FF00F098FA4A
:1034C00000F04EF800F01AFF00F004F800F0F6FAF1
:1034D00010BD000038B51A206946087001204870F8
:1034E00000248C70684601F089FC01211A2001F04B
:1034F00065FD0148047338BDD002002010B50122DB
:103500001146052000F014F810BD000010B5074862
:10351000002101708188002902D0C088002803D1D1
:1035200001211A2001F04AFD10BD0000D002002048
:1035300010B5002810D0094B1C7B012C0CD05880F2
:103540009980DA8000205881188158700120187005
:1035500000211A2001F032FD10BD0000D002002031
:1035600038B523484169202211434161C1680322D3
:1035700012069143C160C168012212061143C16065
:103580001C490A68920892000A600A6818231A43C4
:103590000A6000224A604169402421434161C168B8
:1035A000DC05A143C160C1680124E4062143C16078
:1035B0001148016801600168194301604260694671
:1035C000CA704A700920087001208870684601F0AE
:1035D00015FC262069460870684601F00FFC0121A1
:1035E000092001F091FC0121262001F08DFC38BD5D
:1035F000008004400080034000900340054A516869
:103600000548C16105494B688361002050604860EE
:1036100070470000008003400CF6FF1F009003403D
:10362000F8B5089C0D461E46079FA047A847B0471F
:10363000052000F0D3FFB847052000F0CFFFA047DA
:10364000F8BDF8B5089C0D461646079FA047A84749
:10365000B047052000F0C2FFB847052000F0BEFFCC
:10366000A047F8BD0FB4FEB5002508982C460D9F65
:103670000C9E80470E988047052000F0AFFFB847AA
:103680006006040EB047012801D1641CE4B2032097
:1036900000F0A4FF6D1CEDB2082DEBD30F9808AD20
:1036A00000280E980197009602900FCD06D0FFF7E4
:1036B000B7FF2046FEBC08BC04B01847FFF7C1FFA7
:1036C000F7E70FB4F8B5174600240C9E0D9D884708
:1036D000B047E80901D0B84701E00998804768067B
:1036E000050E052000F07AFF0B988047052000F0BA
:1036F00075FFB047022000F071FF641CE4B2082C93
:10370000E7D3F8BC08BC04B01847F8B514461D460A
:10371000089F079E8847A047B047042000F05EFF3F
:10372000A847042000F05AFFB847F8BDF8B5144682
:103730001D46089F079E8847B847A847042000F009
:103740004DFFB047A047042000F048FFF8BD0FB47C
:10375000FEB50CACE0CC0898002480470A9880475E
:10376000012000F03BFFB047012000F037FF0EE0E2
:10377000641CE4B2FA2C0AD96846E0C008AC0FCC4D
:10378000FFF7D4FF0120FEBC08BC04B01847A847CF
:103790000028EDD1B8470020F5E710B500F084F817
:1037A00000F05CF810BD0000F8B506462A4900019B
:1037B00044182068804772000521B51800270028AA
:1037C000207935D0052801D22171F8BD0A2802D20E
:1037D000401C2071F8BD7100A07A7618761C002874
:1037E00006D10120A072F0B200F084F8FFF786FE47
:1037F00021890029EED0E088884208D2401C80B29E
:10380000E08021898842E5D1ED1CE8B20BE0E07A46
:103810000028DFD0207B401CC0B22073E17A8842B0
:10382000D8D32773F0B200F065F8FFF767FEF8BD54
:10383000052801D921710CE0002802D0401E20711A
:1038400007E0A07A012804D1AD1CA772E8B200F00D
:1038500051F82773E780F8BD88FCFF1F70B50E484C
:1038600000210346817232240C3302250A46C172BC
:103870000A260801C018048105718272491C02736E
:10388000C9B2C6720329F4D3044818600448186109
:103890000448186270BD00007CFCFF1FDD220000A0
:1038A000C9220000B522000008B51B200090684620
:1038B00001F0A4FA1C2069460870684601F09EFADF
:1038C000242069460870684601F098FA08BD000097
:1038D000074A917AD07A814201D100207047505C2A
:1038E000491CC9B291720A29F8D30021917270471C
:1038F0007CFCFF1F0549CA7A8854C87A401CC0B2B4
:10390000C8720A2801D30020C87270477CFCFF1FD0
:1039100010B500242046FFF747FF641CE4B2032CD7
:10392000F8D310BD08B518206946087001208870CA
:1039300048700020C870684601F060FA1920694696
:103940000870684601F05AFA002000F001F808BD3E
:1039500010B5002805D0012806D0022808D1002182
:1039600004E00021084601E00021012000F02DF8CC
:1039700010BD10B5002807D0012808D0022802D1B8
:10398000012100F022F810BD01210020F9E70121FA
:103990000846F6E710B5002803D0012801D0022818
:1039A00001D100F001F810BD10B5002804D00128A5
:1039B00007D0022808D102E0182001F0F1FA1920FE
:1039C00000E0182001F0ECFA10BD10B50C460028FC
:1039D00004D001280AD0022807D103E0182001F002
:1039E000EDFA2146192001F0E9FA10BD1820FAE796
:1039F0003EB500246946CC72012048722520087229
:103A00008C7202A801F0FAF90121252001F0D6FA02
:103A10000E48694608800D200871CC80684601F088
:103A200051F90A48694642300880684601F04AF96F
:103A3000074869460880684601F044F9034869462A
:103A4000E8300880684601F03DF93EBD30A4000032
:103A5000F6A8000070B50C4605460121252001F0AE
:103A6000ADFA1448144E002D04DBA9B201F0ACF9F4
:103A7000002104E0002101F0A7F9684281B230463C
:103A800001F0A2F90C480C4DE838A63D002C04DBEF
:103A9000A1B201F099F9002104E0002101F094F9AC
:103AA000604281B2284601F08FF90021252001F003
:103AB00085FA70BDF6A8000018A5000010B500F04A
:103AC00091F800F0C6F9032000F0D4F9002000F0CE
:103AD000C6F9642000F0F3F900216A2000F006FA2C
:103AE0000021232000F002FA8021372000F0FEF9A7
:103AF0000021382000F0FAF9752000F027F9682835
:103B000001D0012010BD01216B2000F0EFF9002150
:103B10006C2000F0EBF9642000F0D1F9064801F0C8
:103B20008FFB0548A83801F08BFB0348A83001F053
:103B300087FB002010BD000080010020F8B5254A59
:103B4000911E881E00F06CF9224C3020323C205E21
:103B5000401CFCF7BDFF06463220205E1D30FCF7FE
:103B6000B7FF47273F060546BE4205DD8F21C90541
:103B7000304602F035FB0646BD4205DD8F21C90502
:103B8000284602F02DFB05463046FCF765FE124F35
:103B9000124B3A46FCF73CFCFCF7EAFB064628468B
:103BA000FCF75AFE3A460D4BFCF732FCFCF7E0FB03
:103BB0000B4D294602F084FAE16B02F011FAE06342
:103BC0002946304602F07CFA616B02F009FA606324
:103BD000F8BD00003EF6FF1F66666666666630400A
:103BE0000AD7A33B08B500206A46D0700121517066
:103BF0002C2111709070684601F000F92D206A4662
:103C00001070684601F0FAF8084807494161084910
:103C10008161084981600849C1600849016008491B
:103C200041600849016108BD93230000B8000020ED
:103C30009F230000AB230000B7230000C323000034
:103C4000DB23000089230000F0B53F4C15462046D9
:103C50000F46103007C885B01E466B4607C30FCC11
:103C6000103CFFF752FDD0201034039007CC6B4678
:103C700007C31C3C0FCC103CFFF723FD103407CCCE
:103C80006B4607C31C3C0FCC103CFFF760FD0028BF
:103C90000AD02046103007C86B4607C30FCCFFF789
:103CA00045FD012005B0F0BD20461030039707C840
:103CB0006B4607C30FCC103CFFF703FD103407CC55
:103CC0006B4607C31C3C0FCC103CFFF740FD103483
:103CD00007CC6B4607C31C3C0FCC103CFFF715FD0F
:103CE000D1201034039007CC6B4607C31C3C0FCC8B
:103CF000103CFFF7E6FC103407CC6B4607C31C3CB6
:103D00000FCC103CFFF723FD10E0012D1AD001204D
:103D100003902046103007C86B4607C30FCC103CF9
:103D2000FFF7A0FC6D1E3070EDB2761C002DECD1BB
:103D30002046103007C86B4607C30FCCFFF7F6FCD0
:103D40000020AFE70020E3E7B80000207FB5334C48
:103D500005462046103007C86B4607C30FCC103C01
:103D6000FFF7D3FCD0201034039007CC6B4607C379
:103D70001C3C0FCC103CFFF7A4FC103407CC6B4666
:103D800007C31C3C0FCC103CFFF7E1FC103403953B
:103D900007CC6B4607C31C3C0FCC103CFFF791FCD3
:103DA000103407CC6B4607C31C3C0FCC103CFFF70C
:103DB000CEFC103407CC6B4607C31C3C0FCC103C28
:103DC000FFF7A3FCD1201034039007CC6B4607C348
:103DD0001C3C0FCC103CFFF774FC103407CC6B4636
:103DE00007C31C3C0FCC103CFFF7B1FC0020103483
:103DF000039007CC6B4607C31C3C0FCC103CFFF76D
:103E000031FC0546103407CC6B4607C31C3C0FCC75
:103E1000FFF78CFC284604B070BD0000B8000020FD
:103E20007CB514460D4606466B46062243216820A3
:103E3000FFF70AFF00280BD16946098849BA31808B
:103E40006946498849BA29806946898849BA2180E2
:103E50007CBD10B580216B2000F048F810BD10B576
:103E6000032801D9012010BDC006010E1C2000F05E
:103E70003DF810BD10B5032801D9012010BDC006C2
:103E8000010E1B2000F032F810BD10B5BC2801D384
:103E9000012110E0622801D302210CE02A2801D37D
:103EA000032108E0142801D3042104E00A2801D3E7
:103EB000052100E006211A2000F018F810BD10B509
:103EC00004467D20C000844201D9044602E0042C4F
:103ED00000D204242146FCF79BF9401EC1B21920F0
:103EE00000F004F86008FFF7D0FF10BD7FB52F4C3D
:103EF000064620460D46103007C86B4607C30FCC58
:103F0000103CFFF702FCD0201034039007CC6B4626
:103F100007C31C3C0FCC103CFFF7D3FB103407CC7D
:103F20006B4607C31C3C0FCC103CFFF710FC00286D
:103F300027D120461030039607C86B4607C30FCC25
:103F4000103CFFF7BEFB103407CC6B4607C31C3C8C
:103F50000FCC103CFFF7FBFB1034039507CC6B46EE
:103F600007C31C3C0FCC103CFFF7ABFB103407CC55
:103F70006B4607C31C3C0FCC103CFFF7E8FB002846
:103F80000AD02046103007C86B4607C30FCCFFF796
:103F9000CDFB012004B070BD2046103007C86B4631
:103FA00007C30FCCFFF7C2FB0020F3E7B8000020E7
:103FB00010B500F07DF80121432000F0FFFF6420E0
:103FC00000F0FCFA0021432000F0F8FF642000F02C
:103FD000F5FA0121432000F0F1FF0021AE2001F0AD
:103FE0007DFE0021D52001F079FE0021502001F056
:103FF00075FE0021A82001F071FE00213F2001F094
:104000006DFE0021D32001F069FE0021084601F079
:1040100065FE0021402001F061FE00218D2001F0AD
:104020005DFE0021142001F059FE0021202001F046
:1040300055FE0021084601F051FE0021A02001F0AC
:104040004DFE0021CF2001F049FE0021DA2001F0D1
:1040500045FE0021122001F041FE0021812001F0E7
:104060003DFE0021EF2001F039FE0021D92001F0B2
:1040700035FE0021F12001F031FE0021DB2001F0AE
:104080002DFE0021302001F029FE0021A42001F0A6
:1040900025FE0021A62001F021FE0021AF2001F025
:1040A0001DFE01F08FFC0021084600F026F810BD2F
:1040B00008B500206A46D07001215170232111708B
:1040C0009070684600F09AFE42206A46107068467A
:1040D00000F094FE17206A461070684600F08EFECD
:1040E00043206A461070684600F088FE16206A4633
:1040F0001070684600F082FE08BD10B50446B0316D
:10410000C8B2002101F0EAFD20090021103001F0C1
:10411000E5FD2007000F01210843002101F0DEFD2D
:1041200010BD0000F0B591B000201090382102A819
:10413000FCF76CF80C240021062361A208460094C9
:1041400001F09EFD0120019006232522002100940C
:10415000642001F0A1FC01F07BFC002001468300FB
:10416000401C02AA80B2D1500E28F8D3584A002031
:1041700014214143891800238031401C8B8180B277
:10418000CB810728F4D300260025E8B200F048F9D7
:10419000002100F081FC02461420294641434C488E
:1041A0000F1838468030017ABC464B00FF18491C76
:1041B000942301720446FA52007A042801D30020A5
:1041C00020726046424F03220021943001F0F5FE38
:1041D000A189608B814200D2A081E189A08A8142BD
:1041E00000D9E0816D1CADB2072DCED310980A2105
:1041F000401C80B21090FCF70BF8002904D100207D
:10420000FFF7C8FB01F024FC1E21701CFCF700F82E
:1042100002460C2106200191009003230021542026
:1042200001F09AFC052000F0C9F9761C2948B6B2C5
:104230008642A9D326489622C03082830021C183BA
:1042400002864186084602AB14214143C919C200C7
:1042500080318C899C50D218401CC98980B2516031
:104260000728F1D30C2406231BA22146002000942A
:1042700001F006FD06231CA218210020009401F085
:10428000FFFC01F0E5FB7D25ED00284600F096F9E6
:10429000FD2000F0A7FC0023382202A9FD2000F039
:1042A000E7FC062313A224210020009401F0E8FC7F
:1042B00001F0CEFB284600F081F911B0F0BD0000FE
:1042C00043616C6962726174696F6E2E2E2E0000FC
:1042D0000CF5FF1FB80B000043616C6962726174DA
:1042E000696F6E204F4B2100536176696E672E2EE9
:1042F0002E00000053617665642121000EB5094847
:10430000009000206A469071012111719172107223
:10431000507160235372D172D071684600F0D6FBA1
:104320000EBD0000C0CF0000F8B50025284600F003
:1043300077F8002100F0B0FB0246142029464143E3
:104340003548081804468034217A4B00C618491CA9
:1043500094232172F252217A042901D3002121727F
:1043600001468A310422943000F0B8FF60890528A4
:1043700001D205206081A089E689801BFCF7A8FB9B
:1043800007466089801BFCF7A3FB3946FCF78EFAD1
:104390006D1CEDB22061072DC8D31F4C80342569F8
:1043A000666A2946304601F01BFE0746294630461C
:1043B00001F016FF3946FCF779FA184901F080FE42
:1043C000254680356864A66BE76C3146384601F0B7
:1043D00007FE00903146384601F002FF0099FCF7D5
:1043E00065FA0E4901F06CFE0090A864266E646FB9
:1043F0003146204601F0F4FD07463146204601F0E3
:10440000EFFE3946FCF752FA044901F059FEE86420
:1044100000982865F8BD00000CF5FF1F0000C84299
:10442000014600B50020072900D900BD0B00FEF7AA
:1044300025FF0706080B0E1417110500F5E780206D
:1044400000BD0120C00200BDFF20013000BD0120E1
:10445000400200BD0120C00300BD0120800300BD5B
:104460000120800200BD08B500206946C870487070
:104470002820087001208870684600F0BFFC0121E8
:10448000282000F041FD0121282000F097FD29207F
:1044900069460870684600F0B1FC0121292000F04F
:1044A00033FD0121292000F089FD34206946087080
:1044B000684600F0A3FC0121342000F025FD012115
:1044C000342000F07BFD372069460870684600F014
:1044D00095FC0121372000F017FD0121372000F065
:1044E0006DFD2A2069460870684600F087FC0121AE
:1044F0002A2000F063FD2B2069460870684600F012
:104500007DFC01212B2000F059FD08BD10B52A20AB
:1045100000F038FD002804D12B2000F033FD0028E6
:1045200001D0002010BD012010BD0000F0B585B005
:104530001546022803D90020C04305B0F0BD104E37
:10454000C400325D012A17D06A46107001275770E7
:104550000320107268460395019100F045FD375520
:10456000A019456001211620FEF770F803211720DD
:10457000FEF76CF80020E0E70120C043DDE7000013
:1045800060FCFF1F70B5062802D90020C04370BD33
:104590001424094D60434419267B012E09D0616023
:1045A000002666702B5401202073A16030462261E2
:1045B00070BD0120C04370BDE8FBFF1F002809D07B
:1045C000012800D1022004494860002008700878C2
:1045D0000128FCD170470000B8F0FF1FF8B50D4E60
:1045E0000746756900240D480B490068FBF710FE6B
:1045F0007843B1690246B0698842FCD0884201D252
:10460000091A01E02B1A59180C1901469442F2D3E9
:10461000F8BD000000E000E040420F0084F0FF1F02
:1046200070B5022802D90020C04370BD074DC400F8
:10463000295D002906D000F033FD002028556119BE
:10464000486070BD0120C04370BD000060FCFF1FCA
:104650000148806870470000B8F0FF1F70B5002166
:10466000134B0C4614224A43D018446084604470B3
:104670009C54491C0461C9B204730629F2D30C4846
:104680007D2188300480448084800A48C900006805
:10469000FBF7BEFD0849401E884208D8074D6861F7
:1046A0000321081FFDF7D2FFAC610720286170BD10
:1046B000E8FBFF1F84F0FF1FFFFFFF0000E000E0AA
:1046C0004168002910D04168491E41600CD1012188
:1046D00041700178012903D1816841600021417056
:1046E0000069002800D00047704700001FB500F0A7
:1046F0005FF8E12040020090012003900C20694601
:10470000488100200881C880094C8880204600F03C
:10471000FFFC08480168C87820221043C870064989
:10472000D00108600121204600F0D6FC1FBD00002A
:1047300000A00640C0F9FF1F00E100E0012801D001
:104740000020704700487047C0F9FF1F70B504464D
:1047500000680179890607D5C5792846FEF74EFE1F
:104760002946204600F040F820680179090701D564
:104770000179C17901790179090612D5A18A002947
:1047800010D0628A6168895CC171608A401C80B205
:104790006082A189884201D300206082A08A401EE5
:1047A000A08270BDC1784906490EC17070BD00007D
:1047B0000B480A4901600B4981600146283141607C
:1047C000FF210131C1818181002141830183C182A7
:1047D000818241824162C1610162704700A006404E
:1047E000C0F9FF1FE8FAFF1FC38A8268D154C18A4B
:1047F000491C8AB2C282C1898A4201D30022C28284
:10480000428B8A4202D2418B491C41837047F8B5E2
:104810000023FFF793FF002820D0002517E08489AC
:10482000878A6E4637803688B442F9D9CC5C078ACD
:104830004668F455048A641CA4B204828689B44292
:1048400000D30582848A641C84825B1C9BB29342E1
:10485000E5D30068C17880221143C170F8BD000023
:1048600030B589B020216846FBF7D0FC234C6A465E
:10487000208D011211705070608D01129170D070F6
:10488000A08D011211715071E08D01129171D071E2
:10489000208E011211725072608E01129172D072CC
:1048A000122202216846FEF723FD154DA06B294612
:1048B00001F006FCFCF7AAF80104090E6A46117023
:1048C00050702946606B01F0FBFBFCF79FF8010478
:1048D000090E6A469170D0700A49E06B01F0F0FB56
:1048E000FCF794F80104090E6A46117150710C220C
:1048F00001216846FEF7FCFC09B030BD0CF6FF1F35
:104900000000C8420000204110B588B02021684650
:10491000FBF77CFC1C4C6946A08A02120A704870A6
:10492000E08A02128A70C870A069020E0A7102142D
:104930004A7102128A71C871E069020E0A72021489
:104940004A7202128A72C872606DFCF75FF8010445
:104950000A0E69460A734873206AFCF757F8010487
:104960000A0E69468A73C873606AFCF74FF801043F
:104970000A0E69460A7448741222F1216846FEF74D
:10498000B7FC08B010BD00000CF6FF1F10B588B0D2
:1049900020216846FBF73AFC1C496B464889020A0D
:1049A0001A700A4658704032508B040A9C70D870B6
:1049B000D08D164C020A1A715871C88B8034010AC6
:1049C0009971D871606CFCF721F80104090E6B46EF
:1049D00019725872E06CFCF719F80104090E6B4665
:1049E0009972D872206DFCF711F80104090E6B461C
:1049F0001973587360881022010A9973D873F221D1
:104A00006846FEF775FC08B010BD00008CF5FF1F6E
:104A100010B5FDF7EFFCFDF79DFEFDF739FE002018
:104A200001F0B8F910BD000010B5FEF751FF194CA8
:104A30000028607007D02078002804D1022001F0FF
:104A4000A9F90020607020780300FEF717FC0A091E
:104A5000200C060F1215181B1E20FDF7BDFE16E0D8
:104A600000F024FF13E0FDF7FBFC10E0FEF7AEFAC8
:104A70000DE0FEF72DFA0AE0FCF7ACFC07E0FCF7CE
:104A80002DFC04E0FCF7AAFB01E0FEF793FBFDF729
:104A900029FB10BD54F4FF1F00220346D340DB075F
:104AA00003D1521C92B2102AF7D3074883684900F9
:104AB0000B438360D106C90E016001680906FCD56D
:104AC00000690005000D704700B00340F8B50546C9
:104AD000002069460880064604460746012148072B
:104AE00000F0EEFA3B4B9869694608800888002878
:104AF00002D00888C043088068462988008801439E
:104B0000684601800088C143684601809969008831
:104B100001409961A879697A40000143A87A084365
:104B200098605868E97A08435860287A012800D1CB
:104B3000202669794020012903D10643264A4102F3
:104B40001160E979002902D0D9680143D960286849
:104B5000D9682A79521ED2B21143D9601F49024640
:104B6000E240D207D20F11D0E206D20E194B3243E7
:104B70001A601B4B01221B78A2409C469B00CA5026
:104B800063465B1C164A7F1C1370FFB22A79BA4237
:104B900003D9641CE4B2102CE1D3C2030BD510225C
:104BA0000C4B32431A600E4B01241A7824049500F2
:104BB0004C51521C1A7080030BD516200643054831
:104BC0000660074A012310785B0484000B51401CE7
:104BD0001070F8BD00B0034000E100E0A8F6FF1F30
:104BE00098F0FF1F410210B50748002242700A23C7
:104BF00043720B0C037201234370090A4172027263
:104C000000F020F8002010BD0000024010B5012186
:104C1000080300F055FA084C60790006FCD50848F6
:104C200006490068FBF7F4FA401E8006800E40300B
:104C3000E0703020607110BD0000024040420F0063
:104C400088F0FF1F10B572B63020074C607107491D
:104C5000481F0160601D884762B6607933210840B3
:104C600000D0012010BD000000000240A5F0FF1F91
:104C7000F8B50026400217460C46C5181CE010483F
:104C80000021417006214172290C017201214170FD
:104C9000290A4172057202214170217801726178FE
:104CA000417203214170A1780172E1784172241DA3
:104CB0002D1DFFF7C7FF361DBE42E0D30020F8BD13
:104CC00000000240F1B582B00298002400888206FC
:104CD000930F8205120F0092010702058504090F48
:104CE000920FAD0FC00B8446334847696E1D0120FB
:104CF000B040314E074377616046002815D007D099
:104D000030698B409843306130698A40104330618C
:104D10002A480668029801797D20C00041430F4669
:104D2000300CFBF775FA01460BE0234EF0688B4020
:104D30009843F060F0688A401043F060E8E7641C34
:104D4000E4B20846E040FAD1072C33D83046394661
:104D5000E040FBF75DFA86B2194968000E520298EE
:104D6000711CC08848437D21C900FBF75BFA80B203
:104D70008646144AA80011588E6000991358C9003D
:104D80008C460C315E580427BE435E5016582823CB
:104D900073506107490F1358083119600021022D23
:104DA00001D19368D9641558634674461033EC50AA
:104DB00010584160FEBD00000080044088F0FF1FD5
:104DC0009AF0FF1FBC62000070B58205150F8004C9
:104DD000840F084A6000105A401C48437D21C900D6
:104DE000FBF720FA044AA1005258E90080B21031C2
:104DF000505070BD9AF0FF1FBC620000F0B5017802
:104E00003E4BCD064A09ED0E92009C58A669012141
:104E1000A9400E43A6619C5865698D43656144783D
:104E2000002C02D0012C05D00EE09C58A5698D43C2
:104E3000A56109E09C58A6690D463543A5619C58BB
:104E400066690D463543656185782D4E2D4C012DE3
:104E500015D12B4F9D58403FBD4203D1A5680D434E
:104E6000A5600CE0B54203D1E5680D43E56006E0BE
:104E7000234F4037BD4202D125690D432561C178DA
:104E800001293AD19958B1420BD10278382A04D07D
:104E9000392A06D16269802301E0626940231A43FE
:104EA0006261B1420BD10278202A04D0212A06D1B6
:104EB0006269202301E0626910231A436261104B8A
:104EC000403B99420BD10278182A04D0192A06D106
:104ED0006269082501E0626904252A4362619942FA
:104EE0000BD100780C2804D00D2806D1606902216E
:104EF00001E06069012108436061F0BDB06200001B
:104F000040F00F4000900440F0B51C4D1B4E43098B
:104F10001B4F9B00184A194C4035403EFB58002956
:104F200015D0C106C90E01208840B34203D1916853
:104F300001439160F0BDA34203D1D1680143D16028
:104F4000F0BDAB42FCD1116901431161F0BD0121FB
:104F50008140B34203D1906888439060F0BDA34282
:104F600003D1D0688843D060F0BDAB42FCD110695A
:104F700088431061F0BD00000090044040F00F40F5
:104F8000B0620000C2064109D20E880003490858E9
:104F90000069D040C007C00F70470000B062000039
:104FA000C1064209C90E044892008058C268012314
:104FB0008B401A43C2607047B0620000420910B5CE
:104FC0009300C006074C0122C00E8240E058002921
:104FD00003D041681143416010BD81681143816075
:104FE00010BD0000B062000070B50446012102202F
:104FF00000F066F8254801680225A94301602448AD
:105000007D21C9000068FBF703F9616841432078FE
:105010000201204812181160217809010918CB6893
:1050200001221343CB602178090109188B6893434F
:105030008B602178090109188B68AB438B6021785C
:10504000090109188B6813438B606178012916D117
:1050500021780901081881682943816021780E4A66
:105060008900E068505020780C49002808D00128B9
:1050700005D1C0050860217A1720FDF7C5FA70BD7B
:10508000012080050860217A1620F6E700700340B1
:1050900088F0FF1F0071034090F0FF1F00E100E067
:1050A000012809D8010105480818C16801221143E7
:1050B000C1608168914381607047000000710340C6
:1050C000044A0029516901D0014300E08143516144
:1050D00070470000008004400A4A10B5904202D197
:1050E0000120000504E0084A904204D10120400557
:1050F000FFF7E6FF10BD054A9042FBD10120800575
:10510000F6E7000000A0064000B0064000C00640E0
:10511000F8B5044623480D46844202D10121080512
:105120000AE02148844202D10121480504E01F48D9
:10513000844203D101218805FFF7C2FF297B204665
:1051400000F03AF8E078F3210840E070A078297A7E
:105150000843A070A07829790843A070A078A979A5
:105160000843A070124800680090296806094808A2
:105170003018FBF74DF881B20E48814200D9014644
:1051800020784009400120702078CA04D20E1043D4
:1051900020706170E078AA7A1043E0703046FBF727
:1051A00037F8F8BD00A0064000B0064000C0064039
:1051B00088F0FF1FFF1F000001290ED80E4B0F4A79
:1051C00098420BD1D068CB011843D060012904D19B
:1051D0000B4881680C22114381607047094B98424B
:1051E00002D11069090304E0074B9842F5D1106918
:1051F000490308431061704700A006400080044046
:105200000090044000B0064000C0064010B5074CB6
:105210000548606021465831A0688861002000F090
:10522000B9FD0120207010BD78030020A0F3FF1FFE
:10523000FF21C905C84201D3090248407047000058
:1052400010B500210A4606C00160416003461A4AB3
:1052500078331A491A625962194C44610023036178
:10526000184C0362C46143628261154CC46283625C
:10527000026341630021C1638164C16401654464C8
:1052800083630A46026441652246C26581650E4A0F
:105290000E490266416600218166C1660167416769
:1052A0000B4903460B4A783306C300220A4978307B
:1052B0001A60C16010BD00007B14AE47E17A743FF4
:1052C0000000F03FE17A74BFFCA9F1D24D62503F7B
:1052D000FA7E6ABC7493683F0000E03F70B50C46EC
:1052E00003460021084604E04D005D5B2818491C78
:1052F00089B29142F8D31146FAF78AFF208070BD37
:10530000F7B500238AB0044600930193D34E8C4630
:10531000079303930493059318461D460693CF4FB6
:105320008200543F00233946BB501C318B501C3146
:10533000401C8B50C0B2B3500728F0D3A16800279F
:10534000604600F0BDFE0090E1680C9800F0B8FEE9
:10535000019038460C214843C149421893680958C6
:105360005268009800F0A2F9BC49BA00543988503C
:105370004000000E05D0B948A9001C386D1C4750EC
:10538000EDB27F1CFFB2072FE3D306E0B349002044
:10539000AA001C396D1C8850EDB2072DF6D30025EC
:1053A0002F4638460C214843AD49421893680958A6
:1053B0005268019800F07AF9A849BA003839885043
:1053C0004000000E03D0A8006D1C3750EDB27F1CCA
:1053D000FFB2072FE5D304E00020AA006D1CB050F7
:1053E000EDB2072DF8D300270025B80001909B48A7
:1053F00001991C3846581C209A4970434118974817
:10540000AA008058800002900858FBF761FB0090CA
:105410009249029838390958B000904E543E30589D
:1054200000F04EFE0990009900F04AFE039900F04A
:10543000D7FD03900799099800F0D2FD6D1CEDB2DD
:105440000790072DD3D37F1CFFB2072FCCD340008A
:10545000854D000E03D007990398FBF727FA0490B7
:10546000E069049900F02CFE0490216900F080FEB0
:10547000206906D36840049900F07AFE02D22069C0
:1054800068400490A06A049900F0AAFDA0627649E1
:10549000606B4840A16A00F06BFE03D27249606BFA
:1054A0004840A062616BA06A00F062FE01D2606BAE
:1054B000A06200200790074603900025B8000190E5
:1054C000664801991C38465866491C207043C4310F
:1054D00041186248AA008058800002900858FBF7E3
:1054E000F7FA00905D49029838390958B0005B4ED0
:1054F000543E305800F0E4FD0690009900F0E0FDC5
:10550000039900F06DFD03900799069800F068FD7F
:105510006D1CEDB20790072DD2D37F1CFFB2072F71
:10552000CBD34000000E03D007990398FBF7BEF9D8
:105530000590206A059900F0C3FD0590616900F0AF
:1055400017FE606907D3484D0599684000F010FECA
:1055500002D2606968400590E06A059900F040FD5C
:10556000E0624149A06B4840E16A00F001FE03D2CD
:105570003D49A06B4840E062A16BE06A00F0F8FD95
:1055800001D2A06BE062002007900746039000253F
:10559000B8000290314802991C38465830491C2006
:1055A0007043C43941182D48AA00805880000090EB
:1055B0000858FBF78DFA01902849009838390958A6
:1055C0002648B2005438805800F07AFD064601990A
:1055D00000F076FD039900F003FD03903046079933
:1055E00000F0FEFC6D1CEDB20790072DD2D37F1C9E
:1055F000FFB2072FCBD34000000E03D007990398CA
:10560000FBF754F90690606A069900F059FD069080
:10561000A16900F0ADFDA06907D3134D069968405C
:1056200000F0A6FD02D2A06968400690206B0699A2
:1056300000F0D6FC20630C4DE06B216B684000F05D
:1056400097FD02D2E06B68402063E16B206B00F0B5
:105650008FFD01D2E06B20630DB0F0BD340300205C
:1056600010F3FF1FC4F0FF1F0000008070B50E4D47
:10567000044601682846FBF719F9A06028466168CE
:10568000FBF714F9E06029462069FBF70FF9E061A8
:1056900029466069FBF70AF920622946A069FBF7F1
:1056A00005F9606270BD000000004040FFB581B0A8
:1056B0001D4617460E460024019800F059FD0ED8ED
:1056C0003946019800F0D2FC09D83146384600F03E
:1056D00087FD04463146019800F082FD12E039460C
:1056E000019800F045FD11D22946019800F0BEFC5A
:1056F0000CD83946284600F073FD04462946019827
:1057000000F062FD2146FBF7D1F80446204605B0C3
:10571000F0BD10B5FAF73AFD0621484380B210BD3E
:105720000021427806E01C234B431B189B78012B79
:1057300002D0491C8A42F6DCC8B2704710B5FAF7AD
:1057400025FD0621484380B210BD10B5FAF71EFDB5
:105750000621484380B210BD10B5FBF7E7FA0920D7
:1057600000F018FB01490120087010BDA0F3FF1FD5
:105770000A4A10698169002908D05160C068114641
:105780005831801C88610120107070470169002920
:10579000FBD040690028F8D108470000A0F3FF1FA4
:1057A00010B5032000F0F6FA01490120087010BD81
:1057B000A0F3FF1F10B5FBF7B9FA072000F0EAFAD3
:1057C00001490120087010BDA0F3FF1F10B5FBF7C1
:1057D000ADFA062000F0DEFA01490120087010BD84
:1057E000A0F3FF1F10B5FBF7A1FA052000F0D2FAD5
:1057F00001490120087010BDA0F3FF1F10B5FBF791
:1058000095FA042000F0C6FA01490120087010BD85
:10581000A0F3FF1F10B5082000F0BCFA01490120D9
:10582000087010BDA0F3FF1F0024FDF737FEFBF743
:1058300039FBFFF7EDF81C20FFF7A4FB002801D18E
:10584000FEF770FC0123154A33210020FEF79AFE73
:105850000123134A15211846FEF794FE05E00020A7
:10586000FEF798F86420FEF7A9FE2046641CE4B217
:105870001428F4D301210B4A0846FEF757FE0A4AC2
:1058800005210020FEF752FE00212520FFF796FBA0
:10589000FFF7CAF86420FEF791FEF9E79B3200009B
:1058A00011390000B50C00003D3B0000FEB516208C
:1058B000002100901823344A084600F08AF9182085
:1058C00000900C2331A21E211A2000F0D9F90625E0
:1058D0000C24304E00950194328802232946222060
:1058E00000F03AF9012706233A2219462E200197A3
:1058F000009400F0D1F800950194728802230621EB
:10590000342000F029F906233A2219464020019755
:10591000009400F0C1F800950194B288022306219A
:10592000462000F019F91C481C49806E00F058FC14
:105930001B49FAF7BBFF1B4900F0C2FBFBF78CF8D1
:10594000C0B2194E00277070632801D363207070B5
:10595000C0B20C2148436321FAF75AFC1421484392
:1059600012490A234218102000900421642000F0FC
:1059700030F9009501940323727807216E2000F01E
:10598000EBF83770FEBD00008A880000566563742E
:105990006F72000070FCFF1F0CF6FF1F9A99D94030
:1059A0009899993F0000C84256F4FF1FD288000022
:1059B0000346012000E058430A46491EC9B2002AA6
:1059C000F9D1704710B50021084C0A460020C300E9
:1059D0001B195A54401CC0B28028F8D3491CC9B2C4
:1059E0000829F3D300F034F810BD0000B8FCFF1F05
:1059F00010B57F2814D83F2912D8CB080724E31A02
:105A00002140641A0121A140064CC0000019DBB2FC
:105A1000002AC25CC9B201D00A4300E08A43C254E2
:105A200010BD0000B8FCFF1F3F22511AC9B2CA08BE
:105A30004907490F01238B40D9B2044BC000C0185D
:105A4000805C084000D0012070470000B8FCFF1FB8
:105A500070B5104E00252846B030C0B2002100F0CD
:105A60003DF90021084600F039F90021102000F02E
:105A700035F90024E0008019405D012100F02EF985
:105A8000641CE4B2802CF5D36D1CEDB2082DE2D37A
:105A900070BD0000B8FCFF1FFFB583B00C9F0E4621
:105AA0000191F908780700D00120081806994843A9
:105AB000C0B2203A0290D0B20025059040E006988E
:105AC00006280FD00C283ED1182F3CD10598242150
:105AD00048431E494018445D0020009020060FD521
