:020000040000FA
:10000000380800204B010000570100005901000092
:1000100000000000000000000000000000000000E0
:100020000000000000000000000000005B01000074
:1000300000000000000000005D0100008D340000A1
:100040006101000061010000610100006101000028
:100050006101000061010000610100006101000018
:100060006101000061010000610100006101000008
:1000700025360000CD360000CF360000150F0000F9
:1000800061010000610100006101000061010000E8
:100090006101000061010000D52A0000FD2A000076
:1000A000C12600000D270000610100006101000071
:1000B00061010000610100006101000061010000B8
:1000C00000F002F800F030F80CA030C8083824180E
:1000D0002D18A246671EAB4654465D46AC4201D180
:1000E00000F022F87E460F3E0FCCB6460126334282
:1000F00000D0FB1AA246AB4633431847809000005D
:10010000A09000000023002400250026103A01D30F
:1001100078C1FBD8520700D330C100D50B607047BF
:100120001FB51FBD10B510BD00F072FE1146FFF7E0
:10013000F7FF05F04BFD00F08AFE03B4FFF7F2FF76
:1001400003BC03F0D2FA0000704709488047094811
:10015000804709480047FEE7FEE7FEE7FEE7FEE7C7
:10016000FEE7000005480649044A064B70470000B8
:100170002135000049010000C100000038070020BF
:1001800038080020380700207047000030B5441CB4
:1001900003E00178401C00290DD08107F9D10B4BF9
:1001A000DD0104C8D11A91432940FAD0001B0A0688
:1001B00003D0C01E30BD001B30BD0A0401D0801E1C
:1001C00030BD0902FCD0401E30BD0000010101011C
:1001D00001E004C0091F0429FBD28B0701D502806E
:1001E000801CC90700D00270704700290BD0C307DC
:1001F00002D00270401C491E022904D3830702D595
:100200000280801C891EE3E70022EEE70022DFE780
:10021000002203098B422CD3030A8B4211D3002303
:100220009C464EE003460B433CD4002243088B42DD
:1002300031D303098B421CD3030A8B4201D394466A
:100240003FE0C3098B4201D3CB01C01A524183095D
:100250008B4201D38B01C01A524143098B4201D317
:100260004B01C01A524103098B4201D30B01C01A42
:100270005241C3088B4201D3CB00C01A52418308BC
:100280008B4201D38B00C01A524143088B4201D3E9
:100290004B00C01A5241411A00D201465241104649
:1002A00070475DE0CA0F00D04942031000D34042BE
:1002B000534000229C4603098B422DD3030A8B42F4
:1002C00012D3FC22890112BA030A8B420CD3890192
:1002D00092118B4208D3890192118B4204D3890178
:1002E0003AD0921100E08909C3098B4201D3CB01B6
:1002F000C01A524183098B4201D38B01C01A52416B
:1003000043098B4201D34B01C01A524103098B426E
:1003100001D30B01C01A5241C3088B4201D3CB0059
:10032000C01A524183088B4201D38B00C01A52413C
:10033000D9D243088B4201D34B00C01A5241411A13
:1003400000D20146634652415B10104601D3404241
:10035000002B00D54942704763465B1000D34042F2
:1003600001B50020C046C04602BD704770477047C7
:100370000246C80FC00781434B0030B54B405B00BD
:100380009B0D20D01923DB06C91801231B059942B8
:1003900020DB0324A40704251346AB400BD3002B1A
:1003A00004D1EB0613409B00E34204D4012464070C
:1003B000002312195941FF231B0599420BD2C90092
:1003C0000143500F09E0CB0204D501430803024367
:1003D00005D0054830BDFF21C905084330BD08469A
:1003E00007210905884330BD0000C07F7047000029
:1003F00010B5024800F033FD10BD00000000C07FC2
:10040000FFFFFFFFFFFFFFFFFFFFFFFFFFFFFEFEFE
:10041000F0B5F94D0C091E092C402E402F468BB02B
:10042000A7437DD0B543FCD0002E7AD0002CFCD061
:100430000D465D40ED0F2543AC1BFF25AD0464194F
:100440000894C502440DC9022143500DDC02044347
:100450000120C00701430443D2020191200C110C7A
:1004600000958C46010423468B430A91614609049A
:10047000E24D8A430991010A7D444919803909787E
:1004800005464D4301266D18F605751B6943C90CD9
:10049000640B891C4C436418B5012C1B250C2E04DD
:1004A000B4434C434D43210C691889090591009DC3
:1004B000E90701D00121C90704912C460199670879
:1004C000CD072F434C08059DE10B4D432D0C2946CC
:1004D0006646754302950D4645432E46029D7D1B9B
:1004E000B44100950D465D4301942C0C2F040D463C
:1004F0005543AE462D0C3D43029503947546049C2E
:100500002D04641B049406D2029C039D641C0026E7
:1005100075410395029401AC70CC009F7D1B01E0F6
:100520003EE162E1B4410904009507910194059907
:10053000A4086143090C0C464443650BE7040C46D0
:1005400066467443A646640B3C4303950294744686
:10055000049DE4042C1B049406D2029C039D641C9D
:10056000002675410395029401AC70CC009F7D1B61
:10057000B44101940C465C430095650FE7000C46BE
:100580005443A646640F3C43039502947446049D6D
:10059000E4002C1B049406D2029C039D641C0026DC
:1005A00075410395029401AC70CC009F7D1BB44152
:1005B000AE09AF06049DC900AD092F43049DA406F2
:1005C000AD060495079D344369180791059DE10B1D
:1005D0004D432D0C29466646754302950D4645430D
:1005E0002E46029D7D1BB44100950D465D4301944E
:1005F0002C0C2F040D465543AE462D0C3D43029561
:1006000003947546049C2D04641B049406D2029C3A
:10061000039D641C002675410395029401AC70CCC7
:10062000009F7D1BB44101948C050694079C890AA8
:10063000611800950791019C0599A4086143090C74
:100640000D464543680BEF040D46644665436C0B4D
:100650003C43049FED047D1BAC4602D20025641C84
:100660006841009E019D371B85410846584301950E
:100670000C46460FC5005443600F28436546E4000E
:100680002C1B02D20025401C6E41019D3F1AB54132
:100690002846BD09800628438446A009BF064E02AD
:1006A0000699A40676180743079D002068410A9919
:1006B000079019430020099B00906046FF191343DF
:1006C0004041E20F64003A43A4460446D71A8C41E5
:1006D000A04203D90120009020463A46C70F941843
:1006E00040416246D20F2243644664000494009C59
:1006F000BE466400D71AA446044602978C4177464A
:10070000002F01D1A04204D96046401C8446029AC1
:100710002046C40FA64694184041049A0546D20FBD
:10072000224364466400D31A8D417146002901D1E9
:10073000A84202D928461A46641C10430122002808
:1007400000D0164361020020079B891904465C41D2
:100750000223002C02DB491813466441089DCE0A8F
:100760002D145D194B056705E10A2C050D19089933
:100770003E43C9076940002B08D0934006D30022AE
:10078000761C5141002B01D1760876001C4A002DC1
:1007900043DB154241D0AA433FD030460BB0F0BDF9
:1007A00006180D464D41174C7642AC411AD39518A8
:1007B0001C465C41134A6D42A24113D301225205EB
:1007C0004C00D4420AD15C00D4420BD04B4002D53D
:1007D00092021143E2E749004908DFE75940C90F97
:1007E000C90718E000200849D8E7054801420DD1A3
:1007F0000342F7D0F2E700000000FF07E68900009F
:100800000000F07F0000E0FF0000F87F1148594031
:100810000143C01241400020C0E70123089A9B0613
:100820009A4205DC032252078918C90FC907B5E7A8
:10083000052252078918074A1143D2125140ADE7E9
:1008400070B515461C4602460B4628462146FFF762
:10085000DFFD70BDFFFFFF7FF0B58B4C0F09254614
:1008600089B0BD437BD01D092646AE43FAD00E4663
:100870005E402740F60F3E43254071D024012142BF
:10088000FBD0FF24AD19A4042D1B039501252D05D4
:10089000DB02DB0AC9022B43C90A29431E010901F5
:1008A000040F130F050121431701880B82039143A5
:1008B0002D098C46A90B1E438A039543B30B9A035B
:1008C00096433F09BA0B9403A74302962E467E43F4
:1008D0000497B6464E19D7190C460196544305970E
:1008E0007E43371B7646BF1B3601B646BE0B361914
:1008F00000967646BC043719009C01D3641C009412
:100900006400002F01D001263443029E049F7543EA
:1009100066467E430496760034196E0034190094BE
:10092000029C019E1C196643751BAE4606946546E3
:100930004519059C05956C43594375460891691AFC
:100940000191049E01465143A41B0491611A009C2D
:100950000791E10605D061090122114302E072E02E
:100960006EE06109089D00272C0A2D066918049D78
:100970007C412A0A2D066918019D6241AC0DAD0229
:100980006D185441079A910D920255196141029ACE
:10099000644658435443069B059A5A43121A131B44
:1009A0009A0E9B015B187A41010B0005C318514157
:1009B000220A200644195A419A4200D2491C0120B9
:1009C0004002814203D315230226F64302E014239A
:1009D0000326F6432020C51AA9401746AF40DA4047
:1009E0000A4320460399D840091473181905511871
:1009F000039A3843D2075140AC4009D001229440B9
:100A000006D30022401C5141002C01D14008400077
:100A10001E4A934212D3012203989206904207DBAA
:100A20000520400709181A480143C012414004E05C
:100A3000032040070818C10FC907002009B0F0BD06
:100A40000020F107FAE705180C464C4111486D42A9
:100A5000A04115D394181A465A410E486442904159
:100A60000ED301204A004005824209D35A00824237
:100A700006D35940C90F084AC90700201143DDE7D2
:100A800000200649DAE700000000FF07FE0700002B
:100A9000FFFFFF7F0000E0FF0000F07F0000F87F15
:100AA0000121C9050123411842001B06D3185B0E22
:100AB0000AD0C1100722D206891840075242D142FB
:100AC00001D5520089187047090208D50146002A4D
:100AD00003D0C10FC907002070471046704742027B
:100AE00002D0002002497047072109050143F4E7BD
:100AF0000000F87FF0B5FF252D04C609C209FF27C5
:100B000004462E400137CB093E4348402A402B4043
:100B10000746002A6BD0002B69D0AA4267D0AB42AF
:100B200065D0002800DA32460125ED0529432C4323
:100B300009022002090AD21A4B0C7F24E31A434C03
:100B4000000A7C44E35C7D242404121914145B0025
:100B5000A218884201D3521C00E0400049420C46D2
:100B60005C4324115C43DB016415E318040A5C4315
:100B7000C502200D0C4644436419250A5D43230336
:100B8000EC0C0D46654300030019EB184C42A342E0
:100B900001D35B18401CD4052018002B07D05B0044
:100BA000C91804D3401C002901D1400840003F214E
:100BB00089048A4209D3002A08DC1106090F04D0EF
:100BC000032149074018C00FC007F0BD01224100B2
:100BD000120689187F2252069142F6D20521490752
:100BE000C84201D59010F0BDFF20C005F0BD002F18
:100BF00000DA32461648AA4207D2AB4205D21902A1
:100C0000090E17D0F80FC007F0BDFF2563002D06B1
:100C1000AB42F9D84900A942F6D8AB4201D1A9426A
:100C2000F2D0A94201D1002101E061004908D005BC
:100C30000843F0BD1102090EFBD0FF200243D0058E
:100C4000F0BD0A460146104654E700009C830000B0
:100C50000000C07F10B501469E240002CA15A307FC
:100C6000002A02D01843002A04DBA21A002A0CDD55
:100C7000D04010BD1206120E01D140004008A21A49
:100C800003D4D04040420028F3DDFF224800120682
:100C9000904201D9002010BDC817C043584010BD74
:100CA0000102C21504D00123DB071943002A0ADB25
:100CB0009E239A1A02D40846D0407047FF22410072
:100CC0001206914201D900207047C017C0437047F7
:100CD0001F22030C02D10F2200041CD0030E01D1ED
:100CE0000002083A030F01D10001121F830F01D146
:100CF0008000921E002801DB4000521ED2055118D0
:100D0000021251181922904004D3491C002801D125
:100D10004908490008467047C10FC90700D0404242
:100D2000012292071143D3E701218907D0E7000090
:100D300010B5FF22C30D134009D05A4007D091428D
:100D400005DA5C42A14202DDC905081810BDC40FD6
:100D5000E407002B06D0002A06D0002902DBFF2082
:100D6000C0050443204610BD4102FCD0004810BD20
:100D70000000C07F10B5FF231B0644009C421DD815
:100D80004C009C421AD80346124A0B4307D4401A1F
:100D900002D3EFF3008010BDEFF3008010BD081AFE
:100DA00006D2EFF3008001219043C907084302E017
:100DB000EFF30080904380F3008810BD0D231B04E7
:100DC0001A4204D01146002000F006F810BDFFF7CB
:100DD0000FFB10BD00000090C80212D54803400F61
:100DE000002804D0C803C043012188407047EFF3B6
:100DF00000800001000903210907084380F30088EF
:100E0000704700207047000000487047D40600205B
:100E10007546FFF7F9FFAE46050069465346C00820
:100E2000C000854618B020B5FFF79CF960BC0027CC
:100E30004908B6460026C0C5C0C5C0C5C0C5C0C5A6
:100E4000C0C5C0C5C0C5403D49008D46704710B5FE
:100E50000446C046C0462046FFF76FF910BD10B5E6
:100E60000C461107090F092904D00A290AD00829BC
:100E70000CD104E011460820FFF7AEFF06E0510652
:100E800006D501E0510601D50120C007214610BD5D
:100E9000D10607D501010909CC084907000E000653
:100EA000044309E0410F20024907000A0143200ED4
:100EB00000061D22D14101430846E7E770B58C18B2
:100EC0000578401C6B075B0F01D10378401C2A1189
:100ED00006D10278401C03E00678401C0E70491CC5
:100EE0005B1EF9D12B0705D40023521E0DD40B70C5
:100EF000491CFAE70378401CCB1A921C03E01D78CA
:100F00000D70491C5B1C521EF9D5A142D8D300209C
:100F100070BD000030B5094A0020064C0649137820
:100F200004E022694500401C4A53C0B29842F8D3FD
:100F300030BD000000B00340F4F5FF1F5CF0FF1F60
:100F400070B5214C208A401C2082E088401CE08043
:100F500000F086FB6089401C608100F0CFF8208A99
:100F60000025030002F0B4FB062604111217222606
:100F7000608A401C80B26082062806D3207801284F
:100F800003D16582E58000F005FB70BD03F074FAC3
:100F900000F0DEF970BDA08A401C0004000CA082A5
:100FA000F8D0A582658100F025F870BD00F0DEF86C
:100FB000258270BD2582A5826582E580658100213C
:100FC000252004F08DF9FEE700F0FF1F10B5034A5D
:100FD0000121002003F062FB10BD0000410F000062
:100FE00010B50021252004F07BF9012003F0D0FB8F
:100FF00010BD0000F0B53A483A4C017E002585B09E
:10100000A0782E460B0002F063FB050413130B0FB0
:101010001300666426712663A670E670A68107E059
:10102000012805D1304802E0012801D12F48206372
:101030002B492A202039085E1D30FFF76DFE284F0E
:101040000390284C603FF86F216B05F0F1F9019097
:10105000E16B05F0EDFA0246009038465C380199E4
:1010600004F020FB38468038C16C214B1A029942AB
:10107000C16C00D35140446D9C42446D00D3544038
:101080002846184D2864019805F042FA029021463E
:10109000009805F03DFA00901649039805F038FADB
:1010A0000446A86AE8621449009805F031FA01463E
:1010B000002005F0BDF9029905F0BAF9214605F0C6
:1010C000B7F9A8628121F86FC905884204DA7F2147
:1010D000C905C84200D2AE620198E86305B0F0BD10
:1010E000BCF5FF1F00F0FF1F0000F0C10000F04141
:1010F00000008080CDCCCC3D3333333F70B50B4CFA
:10110000E16AA06A0D4605F093FA06466089401C24
:10111000FFF70AFE314605F0FBF90549FFF7EAFC47
:10112000294605F085F9606270BD000000F0FF1FE0
:101130000000A04010B50021022003F03FFEFFF7A1
:10114000F3FD064905F0E4F90549FFF7D3FC05492D
:10115000FFF7D0FC0449486110BD00000000A0402A
:1011600000007F434A0CC23EDCF5FF1FFEB50020A5
:101170006946888008802E4C0C20205EFFF7CCFD4D
:1011800006460820205EFFF7C7FD616A054602910A
:10119000A069074605F04CF9294605F049F93146A2
:1011A00005F046F9FFF756FD6946888038460299F2
:1011B00005F03EFA294605F03BF9314605F038FACC
:1011C000FFF748FD694608801A491020085E694605
:1011D0000423CB5E424211B2984202DA6B469880F9
:1011E00005E06D460423EB5E9A4200DDA9806D4662
:1011F0000023EB5E984201DA288005E00020285E9B
:101200002B46824200DD1980A9880A484038418176
:1012100029888181E089022802D90021084603E05B
:101220000021695E0420285E02F09CFCFEBD0000E7
:1012300000F0FF1FDCF5FF1FFEB50024234E2548FC
:101240003470B463F063244870632448B062244867
:1012500070621F4F23482546F06423487065234879
:10126000F565B065224830663046243004F0D0FB86
:1012700000952B462A4639463046019504F020FF5A
:10128000FD225202142060438119084640300B466B
:10129000058660331D715D71C584CD66E1008918D6
:1012A0000B880385641C8988E4B24185052CE9D349
:1012B000064864218030018281844582C5840D49BD
:1012C0008030C1600C490182FEBD0000DCF4FF1FCC
:1012D0000000A1420000C841000070410000F04140
:1012E0000000B44200004041000034430000E041EF
:1012F0000000F04300009041B603000000B589B043
:1013000020216846FEF782FF0748C068009072B649
:10131000FC2003F0F9FD042200236946FC2003F0C1
:1013200039FE62B609B000BDDCF5FF1F064805496D
:1013300001607F21C9058160FF3004490130C1602F
:101340007047000000007543DCF4FF1F000090416F
:10135000F8B5494E494FF08C102805D2708F1028EF
:1013600002D2F889401CF8814448434C417840340B
:101370008C4621468039CD1DE38EC278F935E031A7
:1013800028682D2B1CD96346134319D13C4B984236
:101390000AD901237B7103230B7600213963394974
:1013A000E9600121797014E0374B984208DD04238D
:1013B0000B76002139633349E9600121797018E027
:1013C0006346012B24D1097E032902D0042910D0C1
:1013D0001EE0FF21C905C8421AD2002A18D10120F7
:1013E00002F068FB02207870606FB8630120B8706B
:1013F0000EE00121C90588420ADA002A08D101203D
:10140000B87002207870606FB863022002F052FB5F
:10141000606FB96B05F00CF9400040081A4905F0FF
:10142000CFF806D2B878012803D1F8700020B87040
:101430003863606FB96B05F0FBF840004008134952
:1014400005F0BEF804D2F878012801D10D48E86013
:10145000E08E2D280ED2F08C5F280BD2708F5F2883
:1014600008D20020B870386378700948E86000201E
:1014700002F00CFBF8BD00001CF5FF1F00F0FF1F81
:10148000000020C2000020410000204200009643DE
:10149000000090417CB5354C354DA089002815D110
:1014A000384934A08861E868A062084601F094F8E1
:1014B00020462C3000F0F3FB2046443000F0EFFBD8
:1014C00020465C3000F0EBFB0120A0812E487F26F7
:1014D0000078F605012822D007282AD0042837D022
:1014E000224801212C3000F02AFB20480121443001
:1014F00000F025FB18250C2324A210210A200095BA
:1015000004F084FDA06AFFF7CBFB02460C2000909C
:10151000022310210195582004F0E4FC7CBD1348FF
:1015200000212C3000F00BFB3146A06A04F080FF54
:101530000CE00E480021443000F001FB0121A06ABC
:10154000C9058842D6DB314605F072F8A062D1E7C2
:10155000A06AE8600020A081FFF7D0FE03F0EEFB58
:10156000022004F027FEFFF731FDC3E728F4FF1F38
:10157000DCF5FF1F53657420546172676574537006
:1015800070656400C8F3FF1F25F4FF1F5370656585
:10159000643A00003EB500200090019002900A20BD
:1015A00003F082FE012847D0012004F03BF84042BE
:1015B0000090262003F078FE002841D0002004F09F
:1015C00031F840420190002004F024F8012004F09A
:1015D00021F81D480099016501994165019900981C
:1015E0004018FFF799FB0021C943FFF7A1FBFFF764
:1015F00057FA164A164BFFF72FF90022154BFFF743
:101600002BF90022144BFEF703FFFEF7B1FE0E4A42
:10161000014680329060D268104605F009F80F4C00
:101620000290E069206208480299803804F054FD75
:10163000E061029860633EBD012003F0F3FFB7E76D
:10164000002003F0EFFFBDE75CF5FF1FABAAAAAADD
:10165000AAAAB03F00003D400000514000F0FF1F2B
:1016600038B50E4C216AE0690D4604F0E1FF0090A8
:10167000E088401CFFF758FB009904F049FF084937
:10168000FFF738FA294604F0D3FE0649A0618842E4
:1016900002DC0549884200D9A16138BD00F0FF1F76
:1016A0000000F04100001644000016C47CB5334C25
:1016B000334D6089002815D1364932A08861286EE3
:1016C0006062084600F088FF20462C3000F0E7FA00
:1016D0002046443000F0E3FA20465C3000F0DFFAA8
:1016E000012060812C482D4E0078012822D0072847
:1016F0002AD0042833D0214801212C3000F01FFAD1
:101700001E480121443000F01AFA18250C2324A2A7
:1017100010211420009504F079FC606AFFF7C0FAEC
:1017200002460C2000900423102101953A2004F079
:10173000D9FB7CBD114800212C3000F000FA314665
:10174000606A04F075FE08E00C480021443000F0A7
:10175000F6F93146606A04F06BFF6062D5E7606AB3
:10176000286604F005FD0020608103F0E7FA0220FE
:1017700004F020FDFFF72AFCC7E7000028F4FF1F54
:10178000DCF4FF1F446972656374696F6E204B64FB
:1017900000000000C8F3FF1F25F4FF1F0000A04059
:1017A0004B643A007CB5354C354DE088002815D1A6
:1017B000384934A08861A86DE061084600F00CFF4C
:1017C00020462C3000F06BFA2046443000F067FAD7
:1017D00020465C3000F063FA0120E0802E483F266E
:1017E00000783606012825D007282DD0042836D0C9
:1017F000224801212C3000F0A2F920480121443078
:1018000000F09DF918250C2324A210211420009526
:1018100004F0FCFB2249E06904F07AFEFFF740FA8D
:1018200002460C2000900423102101953A2004F078
:1018300059FB7CBD114800212C3000F080F9314665
:10184000E06904F0F5FD08E00C480021443000F0A8
:1018500076F93146E06904F0EBFEE061D2E7E06939
:10186000A86504F085FC0020E08003F067FA022000
:1018700004F0A0FCFFF7AAFBC4E7000028F4FF1F58
:10188000DCF4FF1F446972656374696F6E204B70EE
:1018900000000000C8F3FF1F25F4FF1F4B703A0043
:1018A00000002041F8B5244C05462078002841D09E
:1018B000284604F007F9E061002120626956814260
:1018C00001DD002028701C482978007F1A4C401A3E
:1018D000C6B2603468782169884200D8002616486C
:1018E0006661603000F078FE13487C30866169786C
:1018F000016100F0E3FD20696978C7B2814200D23E
:101900000F4600240AE030191C21484342192001E7
:10191000011B1E20133100F04DFC641CBC42F2DBA5
:1019200005491C22086A50434019012288618270CF
:1019300000200870F8BD000068F3FF1FF8B5002A0A
:101940007ED0540054438718012B41D0861A022BB5
:101950007BD0032B76D0042B72D115460026009144
:101960000098069AC1B2B8B200F000FD0098761C4B
:10197000401E00906800024671006A43714351188E
:10198000091B081A401C002801DD6D1E7F1EAE4297
:10199000E6DB0098069AC1B2B8B200F0E7FC284630
:1019A000410070006D1E891E02466943724389180A
:1019B000091B0818401C7F1E002803DC0098401EED
:1019C000761C0090002DE4DC0098C1B2B8B276E03D
:1019D00000970D46164600270098E9B280B2069A95
:1019E00000F0C4FC70007F1C01467A0071437A430A
:1019F0008918091B081A401C6D1C002803DD00987B
:101A0000401E761E0090B742E6DB0098E9B280B235
:101A1000069A00F0ABFC00993046491E0091410047
:101A20007800761E891E024671437A438918091B85
:101A30000818401C002801DC6D1C7F1C002E02E0F1
:101A400040E002E03FE0E0DC75E015460027009151
:101A50000098069AC1B2B0B200F088FC00987F1CD2
:101A6000401C00906800024679006A43794351188F
:101A7000091B081A401C002801DD6D1E761CAF42B0
:101A8000E6DB0098069AC1B2B0B200F06FFC2846BF
:101A9000410078006D1E891E024669437A43891809
:101AA000091B0818401C761C002803DC0098401C09
:101AB0007F1C0090002DE4DC0098C1B2B0B2069A01
:101AC00000F054FCF8BD00960D461646002700981D
:101AD000E9B280B2069A00F049FC70007F1C024611
:101AE0007900724379435118091B081A401C6D1E76
:101AF000002803DD0098401C761E0090B742E6DB0C
:101B00000098E9B280B2069A00F030FC00993046A5
:101B1000491C009141007800761E891E02467143DF
:101B20007A438918091B0818401C002801DC6D1E27
:101B30007F1C002EE4DC0098E9B280B2BFE77CB5E0
:101B40000446C0680D460E287DD3A0681E287AD3AF
:101B5000206903F0B0FFA168884274D825750C266F
:101B600061682068002D11D00122801D891D00F0C0
:101B70002EF9206903F09FFFA168081A2188400808
:101B80004018002180B2009601916CE00022801D77
:101B9000891D00F01CF90125009520686168032368
:101BA0000622801D891DFFF7C9FE0095A1682068E7
:101BB00042186168801D0B46D21F00F094FA009510
:101BC000A16820680423401861680622C01F891D8F
:101BD000FFF7B4FE0095E1686068A26841182068CC
:101BE0004B1E8218801D491ED21F00F07CFA009502
:101BF000E1686068A2684118206801238018062205
:101C0000C01FC91FFFF79AFE00956168E0680B18B6
:101C10002068891D0246DB1F00F065FA0095E16827
:101C200060680223411820680622801DC91FFFF743
:101C300085FE00956168E068A2680B18206880182E
:101C4000421E401E00E018E0891DDB1F00F04BFA29
:101C5000206903F030FFA168081A21884008401865
:101C600080B200960195E168A2880C3949085118A4
:101C700089B20C23226904F04DFB7CBD10B504F041
:101C800067F810BD38B51446C9B280B26A4600F094
:101C9000AAFB6846017801206140884338BD7CB5C5
:101CA0000446C0680E287BD3A0681E2878D320691C
:101CB00003F001FFA168884272D8012500952068D1
:101CC000616803230622801D891DFFF737FE0095FA
:101CD000A168206842186168801D0B46D21F00F081
:101CE00002FA0095A1682068042340186168062262
:101CF000C01F891DFFF722FE0095E1686068A26899
:101D0000411820684B1E8218801D491ED21F00F00A
:101D1000EAF90095E1686068A2684118206801232B
:101D200080180622C01FC91FFFF708FE00956168D2
:101D3000E0680B182068891D0246DB1F00F0D3F90C
:101D40000095E16860680223411820680622801D22
:101D5000C91FFFF7F3FD00956168E068A2680B18E2
:101D60002068891D8018421E401EDB1F00F0BBF951
:101D7000207D0C26002814D0206861680122801D77
:101D8000891D00F024F8206903F095FEA168081A67
:101D9000218840084018002180B2009601910BE094
:101DA00014E0206903F087FEA168081A2188400822
:101DB000401880B200960195E168A2880C39490864
:101DC000511889B20C23226904F0A4FA7CBDF7B53E
:101DD000D8B00C460546802874D2402C72D2E1B2AD
:101DE000A8B250AA00F0FFFA50A802785A98D1077A
:101DF000C007C90FC00F814264D0214628465594C0
:101E000000F0CCFA0646569050A8027821462846A3
:101E100000F0F1FA54908019400829940194289018
:101E200001240090254601E0002D7BD0E90028A880
:101E300008188038816F5291C66F50A86D1E0278C5
:101E4000EDB23146529800F0A9FA539050A80278AA
:101E50003146529800F0CFFA519050A80278761C83
:101E600031465298FFF70EFF002804D050A80278A0
:101E70003146529815E0539F08E050A80278314649
:101E80003846FFF7FFFE002803D17F1C5198874298
:101E9000F3D951988742C7D850A852970278314653
:101EA000384600F0A8FA519050A80278314652986E
:101EB00000F074FA5390142C1FD2471E5897599073
:101EC000074617E07EE050A80278711E3846FFF7FB
:101ED000D9FE002827D059995898884207D05891A0
:101EE000E00069460F504018641CE4B24660142CB0
:101EF00003D27F1C51988742E5D9539951985A9B38
:101F00004018400852905198F1B282B2539880B272
:101F100000F0D5F8142DA0D2539F59977F1E5897E3
:101F2000599F19E01FE05997E1E750A80278711C0A
:101F30003846FFF7A7FE002813D0599958988842D1
:101F400007D05891E80028A90F5040186D1CEDB239
:101F50004660142D81D27F1C5198874200D97CE7BE
:101F6000E3E75997F5E7002C20D0E1006846081810
:101F70008038816F5291C66F50A8641E0278E4B217
:101F80003146529800F00AFA539050A80278314630
:101F9000529800F030FA074650A80278761E314673
:101FA0005298FFF76FFE00280ED020E0002D00D0E1
:101FB0003AE754985A9B82B25598C1B2569880B26B
:101FC00000F07DF85BB0F0BD539809E050A80278AE
:101FD00031465198FFF756FE002804D15198401C15
:101FE0005190B842F2D95198B842BCD8529050A8FA
:101FF00002783146529800F0FEF9074650A8027860
:102000003146529800F0CAF95390142D20D25990BD
:10201000401E5890599818E050A80278711C5198A9
:10202000FFF730FE002826D059995898884208D0EA
:102030005891E80028A9519A0A5040186D1CEDB239
:102040004660142D04D25198401C5190B842E3D9F7
:102050005398BAB23818400852905398F1B280B2EF
:102060005A9B00F02CF8142C96D253985990401E8D
:10207000589059981BE051985990E2E750A802787F
:10208000711E5198FFF7FEFD002815D059995898F8
:10209000884208D05891E0006946519A0A50401889
:1020A000641CE4B24660142CDED25198401C51905E
:1020B000B84200D970E7E1E751985990F3E7F8B5D5
:1020C00015461E460F460446A84202D9D0B2254600
:1020D000044632463946204600F048F9641CA4B252
:1020E000A542F6D2F8BDFFB583B0054605980C466B
:1020F000411B06980027021BFF43002902DD012037
:10210000029002E0002904DA0297002A09DD012783
:1021100011E0C2B2E1B2A8B20C9B00F02CF907B0FA
:10212000F0BD002A07DB0598E1B282B2A8B20C9B91
:10213000FFF7C5FFF3E70298484339465143420091
:1021400000924A00019288421CDB161A0098101A6D
:1021500000900EE0E1B2A8B20C9A00F007F90298E4
:102160002D18002E02DA0198361802E00098861920
:10217000E41905988542EDD1E1B2A8B20C9A00F0BD
:10218000F5F8CCE70098461A801A01900EE0E1B20B
:10219000A8B20C9A00F0EAF8E419002E02DA0098CE
:1021A000361803E00198861902982D180698844283
:1021B000EDD1E1E7FEB514460D460646802805D868
:1021C000402D03D8022D01D3122E01D20020FEBDD6
:1021D000E0680028FBD0A27830461023A91E1238F0
:1021E0000C27002A12D06268002A04D0C9B2C0B2FB
:1021F000009303F0B4FE002001900097A9B2B0B2A2
:102200000C23E26804F086F80120FEBDA268002AD3
:1022100005D00093C9B2C0B2102303F0A0FE012084
:10222000EAE7000010B5002902D00121002401E0F6
:10223000002101240448FFF782FC0348214618309E
:10224000FFF77DFC10BD000030F3FF1FFEB5816875
:10225000044614293CD3E068142839D325686A1849
:10226000802A35D861680B18402B31D800272846C2
:10227000521E5B1E009700F0F4F80125009561687E
:10228000E068A2680B1820685B1E8218521E00F0DE
:10229000CAF820882189304B4118491E8AB2217919
:1022A00080B20E31C9B21B78FFF709FF0095A16813
:1022B000206842186168521E0B460D3300F0D1F8B9
:1022C000206903F00DFC0246A068811E8A4201D9F4
:1022D0000020FEBD80B20C26019700960290A088D7
:1022E0003346401C81B22088226980B204F06AF82B
:1022F0001A480775A16901612168491D0160E268FA
:1023000061688918C268891A091F4160FFF7C7FC14
:10231000124818300575E1690161A26821688918C1
:102320008268891A891F0160E26861688918C26839
:10233000891A091F4160FFF7B2FC00960195A08839
:102340000C23113081B220886269801D80B203F0B5
:10235000E1FF0120FEBD00002CF3FF1F30F3FF1F43
:102360000148007D7047000030F3FF1F10B5C0B278
:1023700003F004FD10BDF8B515461E4607460C4691
:10238000A94201D90D461446324621463846FFF788
:10239000EDFF641CE4B2A542F6D2F8BDF8B5D5074E
:1023A000441EED0F0E46002C0ED0F1B2A0B26A46CC
:1023B00000F019F868460078C007C00FA84201D0A5
:1023C000601CF8BD641EF0D1F1B200206A4600F036
:1023D0000AF868460078C007C00FA84201D0012063
:1023E000F8BD0020F8BD10B51446C0B203F0E2FC01
:1023F0002070002010BDF8B5441CD5070E46ED0F27
:102400000DE0F1B2A0B26A46FFF7EDFF6846007832
:10241000C007C00FA84201D0601EF8BD641C802C0C
:10242000EFD38020F8BDF8B51C4615460E4607468A
:1024300092B2C9B280B2069BFFF741FEAAB2E1B2E6
:10244000B8B2069BFFF73BFEE2B2F1B2B8B2069B10
:10245000FFF791FFE2B2F1B2A8B2069BFFF78BFF44
:10246000F8BDF8B517461E460C460546B84201D9D8
:1024700015460746B44201D91C460E46B44206D161
:10248000BAB2E1B2A8B2069BFFF719FEF8BDBD4291
:102490000DD1F2B2E1B2A8B2069BFFF76CFFF8BD16
:1024A000BAB2E1B2A8B2069BFFF709FE641CB442BF
:1024B000F6D9F8BD10B503F091FC10BDF8B50400D5
:1024C00052D0A2680A2A4FD3E06814284CD30125C1
:1024D000009561680B1820685B1E8218521EFFF77A
:1024E000A2FF08260096208921780838400808189D
:1024F0002179C0B2491CC9B233461C4A03F02FFDF2
:1025000000962079217B227840180938C1B22089B1
:102510000823083840081018144AC0B2083203F0E3
:102520001EFD0095A168206842186168521E09319D
:102530000B46FFF7D8FD0095E1686068A268411876
:1025400020680A3982180B46521EFFF7CCFDE0685E
:102550006269216914388A4202D25043FDF758FE5D
:10256000E061204600F004F8F8BD0000328E000063
:10257000FEB504468189808B091A14398EB22188F0
:10258000491C8AB20192A188721E0A318DB280184C
:10259000218900220092C91E019A89B280B257187F
:1025A0002B183A4629460198FFF75BFF21696069BD
:1025B000814201D8002005E0A069491E7043FDF763
:1025C00027FE80B2012100912918E2690198531871
:1025D0003A46FFF746FFFEBDFEB581680446142962
:1025E0003BD3E368142B38D320684218802A34D8B0
:1025F0006168CB18402B30D80025521E5B1E009519
:10260000FFF72FFF012600966168E068A2680B18AB
:1026100020685B1E8218521EFFF705FF2088218963
:10262000174B4118491E8AB2217980B20E31C9B2C6
:102630001B78FFF744FD0096A16820684218616886
:10264000521E0B460D33FFF70CFFA06903F04FFA43
:102650000246A068811E8A4201D90020FEBD80B2D8
:102660000C21019500910290A0880C23401C81B29E
:102670002088A26980B203F0A5FE0120FEBD000003
:102680002CF3FF1F10B5242002F00EFE012801D00C
:10269000012010BD002010BD10B51C2002F004FE6A
:1026A000012801D0012010BD002010BD10B51B2055
:1026B00002F0FAFD012801D0012010BD002010BD5C
:1026C000F8B50F4D0024A8680E4E000712D50E4F26
:1026D000387884420ED2E96820460C2250433258A2
:1026E000114204D080198068002800D08047641C03
:1026F000E4B2EDE7A86824210843A860F8BD000013
:102700000090074084F6FF1F76F0FF1FF8B50F4DCD
:102710000024A8680E4E000712D50E4F3878844268
:102720000ED2E96820460C2250433258114204D0A0
:1027300080198068002800D08047641CE4B2EDE76F
:10274000A86824210843A860F8BD000000A0074045
:1027500084F6FF1F76F0FF1F10B52C2002F0A4FDB9
:1027600010BD10B501212D2002F0BAFD10BD10B52D
:1027700000212D2002F0B4FD10BD10B501212C2048
:1027800002F0AEFD10BD10B500212C2002F0A8FD16
:1027900010BD08B500206A46D07050702C21117011
:1027A0009070684602F0BCFC08BD08B500206A467F
:1027B000D070012151702C2111709070684602F088
:1027C000AFFC08BDF0B50021124D134F134B0A4664
:1027D00005261C204843401946708C0082704760D3
:1027E00082601C5902614261491CC9B2C4608261A5
:1027F0000529EED30120A870094828610948E8623C
:1028000004480A498C30686307486866014880308C
:102810000160F0BDC0040020428E0000A8F3FF1F3D
:10282000455B0000155B0000D5610000FD5A00000B
:10283000F8B5674E7068FFF735F8664900270878E5
:10284000002800D07761624C6034012802D007284C
:1028500055D159E03E237522122101200097FFF740
:1028600000FE306A1C21484371684018B0618770CF
:10287000306A401C306272685178491E814200DC27
:102880003162306A1C21484380180121B061817097
:1028900072681078401C43B2137020465178246946
:1028A000A14205D80D468B420EDB491E11700BE08C
:1028B000E5B2641EA34207D914700269891A4269FD
:1028C000914201D9521C4261002410E040481C2171
:1028D000603040694843716841181C2060430A1801
:1028E0002001011B1E201331FFF764FC641CAC4265
:1028F000ECDB3748316A7C308161FFF739FE3548BF
:102900000078042849D04DE03E2375221221012091
:102910000097FFF7A6FD316A1C22514372688818A0
:10292000B0618770306A401E3062002800DC376278
:10293000306A1C214843716840180121B0618170E0
:1029400071680878401E42B20A704D7823692046AB
:102950009D4203D8002A0ADA0F7008E0DDB2002A8F
:1029600005DA0F704169002901D0491E6161002418
:1029700010E017481C2160304069484371684118D5
:102980001C2060430A182001011B1E201331FFF791
:1029900011FC641CAC42ECDBABE7B06900690028B9
:1029A00000D080477069411C716164280FDD776138
:1029B000B0694169002908D08770F0691C2148433B
:1029C000716840180121B061817002F0B1FDF8BD5D
:1029D00068F3FF1F25F4FF1F8307FF22DB0E9A40D9
:1029E0008907090E994000280BDA0007000F083804
:1029F000830808489B001818C36993430B43C361BD
:102A00007047830804489B001818036893430B43DE
:102A10000360704700ED00E000E400E08307FF2260
:102A2000DB0E9A408907090E994000280BDA00074F
:102A3000000F0838830808489B001818C36993439F
:102A40000B43C3617047830804489B001818036850
:102A500093430B430360704700ED00E000E400E0A7
:102A6000F0B50021134B144C144E0A4605251C20CA
:102A70004843C01882610261446082608F008270A6
:102A800045704261491CF759C9B2C7600529EED3A8
:102A9000012098700A4818610A48D8620A48986468
:102AA0000A480449586603488C39803081600849D7
:102AB0000160F0BDD8050020428E00008CF3FF1F9E
:102AC000A15B0000895B0000715B0000595B0000A6
:102AD000155B000010B5074CE068C00704D006483D
:102AE0000068002800D08047E06801210843E060CA
:102AF00010BD00000071034054F0FF1F10B5074CDB
:102B0000E069C00704D006484068002800D080472C
:102B1000E06901210843E06110BD0000007103403D
:102B200054F0FF1FF0B50021114C124B124E0A4613
:102B300003251C20484300194570826102614360EF
:102B40008F00826082704261491CF759C9B2C76028
:102B50000329EED301200649A0708C31A1610748FA
:102B600020610749E16202498C392165A064F0BD0A
:102B70004C050020428E0000BCF3FF1F155B0000D7
:102B8000B95B000010B5074C6078002808D0201D04
:102B9000FFF722FD20462030FFF790FC00206070F8
:102BA00010BD00009CF4FF1FF0B585B0FFF7EAFFF1
:102BB000FC4EFB490020F71D085606250C21012478
:102BC000F9378036002806D0012870D002286FD04F
:102BD00003286ED0BFE20C2000900623F2A20F2142
:102BE000032003F013FA0C200190EE4800954030CA
:102BF0000290C28C03230F211B2003F073F90C20D9
:102C000000900623EAA20F21412003F0FFF90C20D7
:102C1000019002980095428F03230F215F2003F05B
:102C200061F90C2000900623E3A21B21032003F08E
:102C3000EDF90C20019000951B21F2890323084631
:102C400003F050F90C2000900623DDA21B21412047
:102C500003F0DCF90C2001900095728C03231B21FA
:102C60005F2003F03FF90C2000900623D6A2272115
:102C7000032003F0CBF9FF21F06FC905C84219D337
:102C80000C20009006232D22272101941B2003F005
:102C9000C9F80121F06FC9074840FDF7DBFF02B218
:102CA0000C20032327210190009521200BE07AE0DE
:102CB000CCE11AE2FDF7CEFF02B20C200190042312
:102CC000272100951B2003F00DF90C20009006230E
:102CD000BFA22721412003F099F9FF213868C905D7
:102CE000C84216D30C20009006232D2227210194E0
:102CF0005A2003F097F801213868C9074840FDF7CA
:102D0000A9FF02B20C200323272101900095602027
:102D100008E0FDF79FFF02B20C2001900423272159
:102D200000955A2003F0DEF80C2000900623AAA29A
:102D30003321032003F06AF90C200190362200951C
:102D4000B25E032333211B2003F0CCF80C2000904B
:102D50000623A2A23321412003F058F9FF2079680D
:102D6000C005C1420CD30C2606232D2233215A2044
:102D70000096019403F056F878687107484009E01E
:102D80000C260623202233215A200096019403F0BA
:102D900049F87868FDF75EFF02B203233321602013
:102DA00001960095D5E10C20009006238CA20F21FE
:102DB000032003F02BF9306D00280EDA0C20009070
:102DC00006232D220F210194152003F02BF80C204F
:102DD00000950190306D42420CE00C2000900623DB
:102DE00020220F210194152003F01CF80C200095DF
:102DF0000190326D04230F211B2003F073F80C2087
:102E00000090062377A20F213D2003F0FFF8706D9C
:102E100000280EDA0C20009006232D220F210194A9
:102E20004F2002F0FFFF0C2000950190706D424290
:102E30000CE00C200090062320220F2101944F204B
:102E400002F0F0FF0C2000950190726D04230F2119
:102E5000552003F047F80C200090062362A22121A0
:102E6000032003F0D3F84F4E0A20C036305E00280E
:102E700012DA0C20009006232D2232210194152015
:102E800002F0D0FF0C20019000950A20305E042350
:102E900042423221252010E00C20009006232022FF
:102EA00032210194152002F0BDFF0C2001900A226E
:102EB0000095B25E042321211B2003F013F80C209F
:102EC0000090062349A221213D2003F09FF80C2009
:102ED000305E002810DA0C20009006232D223221CB
:102EE00001944F2002F09EFF0C2000950190305E6F
:102EF0000423424232210EE00C20009006232022BF
:102F0000212101944F2002F08DFF0C2000950190AB
:102F1000325E04232121552002F0E4FFBE683046D2
:102F2000FDF798FE0A2102904843FDF7F5FE314671
:102F300003F072FB2E4903F0EBFAFDF78BFE0C2633
:102F4000039006232BA233210096032003F05EF8A2
:102F5000FF20B968C005C14250D302980623404201
:102F6000029003982D224742332127200096019496
:102F700002F058FF02230196009533212D20029A7A
:102F800002F0B0FF06232E2233213920009601944F
:102F900002F048FF02233A46019600954AE00000FD
:102FA0009CF4FF1FDCF4FF1F48464C3A0000000071
:102FB0004846523A0000000048424C3A00000000E7
:102FC0004842523A000000004841453A00000000E3
:102FD0005641453A00000000484D3A0041453A004C
:102FE0004C453A0052453A004C503A0052503A0093
:102FF0000000C84253706565643A00000623202231
:10300000332127200096019402F00CFF0223019641
:10301000009533212D20029A02F064FF06232E2210
:10302000332139200096019402F0FCFE039A02231A
:103030000196009533213F2002F054FF062363A23E
:1030400033214E20009602F0E1FF84E00E4600910D
:1030500006235FA20F21032002F0D8FF5E4F5F49D5
:10306000386803F055FAFDF71BFE024604230F21D2
:103070001B200196009502F035FF062358A20F2170
:103080003720009602F0C2FF5449786803F040FAF6
:10309000FDF706FE024604230F21552001960095F8
:1030A00002F020FF062350A221210320009602F007
:1030B000ADFFB86DFDF7F4FD0246042321211B206E
:1030C0000196009502F00EFF062349A22121372028
:1030D000009602F09BFF386EFDF7E2FD02460423E6
:1030E000212155200196009533E00E4600911421D0
:1030F0000623414A084602F089FF7968FF20C0058F
:10310000C142009601940AD306232D2214212620C1
:1031100002F088FE01217868C907484006E00623CE
:1031200020221421262002F07DFE7868FDF7B8FDEC
:103130000246022314212C200196009502F0D2FEB3
:103140001820019024480096E030027E1E210123C1
:10315000084602F0C7FE29482949007807280AD006
:10316000012820D0042804D1081F4470002003F057
:1031700021F805B0F0BD224A121F1078401E40B25F
:1031800010705470002801DA032016E00020105659
:10319000002816D0012812D0022814D00328E8D124
:1031A00018A08861E5E7164A121F1078401C40B24B
:1031B000107054700328E9DD00201070E6E714A0B9
:1031C000EFE718A0EDE71CA0EBE70000522F53003B
:1031D000534B503A00000000DCF4FF1F0000204178
:1031E000534B493A00000000444B503A00000000A5
:1031F000444B443A00000000DC2F000025F4FF1F80
:10320000A0F4FF1F526F616420446574656374000D
:103210004D6F746F7220506172616D657465727369
:103220000000000053656E736F7220506172616D13
:1032300065746572730000005049442050617261EA
:103240006D65746572730000F0B503460846490069
:103250008C465C5A15E0521E904203DA5100595ACE
:10326000A142F8D25100904204DA5D5AA54201D839
:10327000401CF8E7904204DA46009D5B5F5A9F537A
:103280005D529042E8DB41005D5A62469D525C52BD
:10329000F0BD00007CB5354C354D6088002815D157
:1032A000374934A08861686860610846FFF794F97F
:1032B00020462C30FEF7F3FC20464430FEF7EFFCAE
:1032C00020465C30FEF7EBFC012060802D483F2655
:1032D00000783606012825D007282DD0042836D0BE
:1032E000224801212C30FEF72AFC204801214430DD
:1032F000FEF725FC18250C2323A21021142000958D
:1033000002F084FE2149606903F002F9FDF7C8FC70
:1033100002460C2000900423102101953A2002F06F
:10332000E1FD7CBD114800212C30FEF708FC314640
:10333000606903F07DF808E00C4800214430FEF796
:10334000FEFB3146606903F073F96061D2E76069A2
:10335000686002F00DFF0020608001F0EFFC0220A9
:1033600002F028FFFDF732FEC4E7000028F4FF1F3B
:10337000DCF4FF1F5370656564204B69000000009A
:10338000C8F3FF1F25F4FF1F4B693A0000002041DE
:103390007CB5354C354D2088002815D1374934A0EF
:1033A0008861286820610846FFF716F920462C300E
:1033B000FEF775FC20464430FEF771FC20465C3079
:1033C000FEF76DFC012020802D483F260078360650
:1033D000012825D007282DD0042836D022480121E5
:1033E0002C30FEF7ACFB204801214430FEF7A7FB50
:1033F00018250C2323A210211420009502F006FEAC
:103400002149206903F084F8FDF74AFC02460C20AC
:1034100000900423102101953A2002F063FD7CBD49
:10342000114800212C30FEF78AFB3146206902F05A
:10343000FFFF08E00C4800214430FEF780FB3146D6
:10344000206903F0F5F82061D2E72069286002F0D6
:103450008FFE0020208001F071FC022002F0AAFE05
:10346000FDF7B4FDC4E7000028F4FF1FDCF4FF1FE4
:103470005370656564204B7000000000C8F3FF1FA7
:1034800025F4FF1F4B703A000000204110B500F0FA
:1034900001F810BD70B51E4A00245068002805D000
:1034A0005068401E506001D1012010709068401C8F
:1034B0009060916817480025814200D195601649B7
:1034C0009068FCF7AFFE1548002902D18188491C9D
:1034D000818081883B2903D985804188491C4180AE
:1034E00041883B2903D945800188491C0180018816
:1034F000172900D90580094D883D142060434019E3
:1035000001F090F9641CE4B2062CF6D370BD000003
:103510007CF0FF1FFFFFFF7FDE030000ECFBFF1FBF
:1035200010480F4981800121417023210170112031
:103530000D49000548620D48002141700C4A962152
:1035400011701A2101700179C906FCD401790907AB
:10355000890FFBD1074908684008486088607047B8
:1035600003E80000002005400080044000400640C1
:103570000050064048F0FF1F70B5284C60780028C6
:1035800005D10120607020469C30FEF75FFE244D7F
:103590002878072810D1214800219C30FEF742FEF0
:1035A0001E4800219C30FEF73DFEFEF783FF1B20E6
:1035B00001F07AFE0028FAD02878012810D11748A7
:1035C00001219C30FEF72EFE144801219C30FEF7AD
:1035D00029FEFEF76FFF242001F066FE0028FAD0D6
:1035E0002878042811D1002060701C2001F05CFEB6
:1035F0000028FAD009489C30FEF7B2FE012805D019
:1036000001F09CFB022002F0D5FD70BD01F096FB9D
:10361000022002F0CFFDFDF789FE70BD68F3FF1FA9
:1036200025F4FF1FF8B5254A0020137901461379C8
:103630009B063ED5D279224D00262B78214C002BBB
:1036400014D0012B17D0022B1DD0032B1ED0E778EE
:103650007F1D9F4202D9E2545B1C2B70E3782F78C8
:103660005A1DBA4225D12E701A1D17E0AA2AF5D18B
:103670002270012205E0AF2A01D02E70EEE76270C1
:1036800002222A70EAE7A2700322FAE7E27004221B
:10369000F7E7275C7918401CC9B2C0B28242F8D85B
:1036A0000848001D185C884201D06E7001E0A078C7
:1036B0006870054801F0FCF8F8BD000000A0064065
:1036C00088F0FF1F500200203CF9FF1F7047704731
:1036D00030B47446641E2578641CAB4200D21D468B
:1036E000635D5B00E31830BC18470020704710B5DD
:1036F00001F01EFC01F064F862B601F0A9F800F0D8
:10370000BBFC00F0ADF900F0E9F800F087FF00F035
:10371000F7F900F005F800F099FE00F057FA10BD37
:1037200008B500206946C87048700A20087001205A
:103730008870684601F0F4FC2620694608706846E7
:1037400001F0EEFC002001F075FF012001F072FF96
:1037500001210A2001F06AFD0121262001F066FD09
:1037600008BDF8B5089C0D461E46079FA047A84710
:10377000B047052000F0EAFFB847052000F0E6FF5B
:10378000A047F8BDF8B5089C0D461646079FA04710
:10379000A847B047052000F0D9FFB847052000F042
:1037A000D5FFA047F8BD0FB4FEB5002508982C46FC
:1037B0000D9F0C9E80470E988047052000F0C6FFA5
:1037C000B8476006040EB047012801D1641CE4B27A
:1037D000032000F0BBFF6D1CEDB2082DEBD30F985A
:1037E00008AD00280E980197009602900FCD06D0E4
:1037F000FFF7B7FF2046FEBC08BC04B01847FFF730
:10380000C1FFF7E70FB4F8B5174600240C9E0D9DD5
:103810008847B047E80901D0B84701E009988047D8
:103820006806050E052000F091FF0B9880470520E3
:1038300000F08CFFB047022000F088FF641CE4B267
:10384000082CE7D3F8BC08BC04B01847F8B51446F8
:103850001D46089F079E8847A047B047042000F0F8
:1038600075FFA847042000F071FFB847F8BDF8B510
:1038700014461D46089F079E8847B847A84704205E
:1038800000F064FFB047A047042000F05FFFF8BDE0
:103890000FB4FEB50CACE0CC0898002480470A9821
:1038A0008047012000F052FFB047012000F04EFF9A
:1038B0000EE0641CE4B2FA2C0AD96846E0C008ACF9
:1038C0000FCCFFF7D4FF0120FEBC08BC04B01847A2
:1038D000A8470028EDD1B8470020F5E710B500F063
:1038E00081F800F059F810BD70B50546294900016E
:1038F000441820688047690005226B1800260028BC
:1039000032D02179052901D2227170BD0A2902D253
:10391000491C217170BD6900A07A6D186D1C0028CA
:1039200004D10120A072E8B200F082F821890029B8
:10393000F0D0E088884208D2401C80B2E080218923
:103940008842E7D1DB1CD8B20BE0E07A0028E1D056
:10395000207B401CC0B22073E17A8842DAD3267300
:10396000E8B200F065F870BD2079052801D9227110
:103970000CE0002802D0401E207107E0A07A012848
:1039800004D19B1CA672D8B200F052F82673E680D0
:1039900070BD000004FCFF1F70B50E4800210346F7
:1039A000817232240C3302250A46C1720A260801AC
:1039B000C018048105718272491C0273C9B2C672B3
:1039C0000329F4D3044818600448186104481862B5
:1039D00070BD0000F8FBFF1FAD2600009926000017
:1039E0008526000008B51B200090684601F098FB72
:1039F0001C2069460870684601F092FB2420694645
:103A00000870684601F08CFB08BD0000074A917AF7
:103A1000D07A814201D100207047505C491CC9B264
:103A200091720A29F8D3002191727047F8FBFF1FA9
:103A30000549CA7A8854C87A401CC0B2C8720A289C
:103A400001D30020C8727047F8FBFF1F10B5002497
:103A50002046FFF749FF641CE4B2032CF8D310BDE5
:103A600008B5182069460870012088704870002049
:103A7000C870684601F054FB192069460870684612
:103A800001F04EFB002000F001F808BD10B5002841
:103A900004D001280BD0022808D103E0002118200F
:103AA00001F01EFC0021192001F01AFC10BD0021BC
:103AB0001820F9E710B5002804D001280BD00228FF
:103AC00008D103E00121182001F00AFC012119208E
:103AD00001F006FC10BD01211820F9E710B50028FF
:103AE00004D0012809D0022806D102E0182001F0F4
:103AF000E9FB192001F0E6FB10BD1820FAE70000F1
:103B00003EB500246946CC72012048722520087217
:103B10008C7202A801F004FB0021252001F0E0FBDB
:103B20000E486946088014200871CC80684601F070
:103B30005BFA0A48694642300880684601F054FA48
:103B4000074869460880684601F04EFA034869460E
:103B5000E8300880684601F047FA3EBD30A4000016
:103B6000F6A8000070B50C4605460021252001F09E
:103B7000B7FB1448144E002D04DBA9B201F0B6FACD
:103B8000002104E0002101F0B1FA684281B2304620
:103B900001F0ACFA0C480C4DE838A63D002C04DBD3
:103BA000A1B201F0A3FA002104E0002101F09EFA85
:103BB000604281B2284601F099FA0121252001F0E6
:103BC0008FFB70BDF6A8000018A5000010B500F02E
:103BD0006DF800F0A2F9032000F0B0F9002000F029
:103BE000A2F9642000F0CFF900216A2000F0E2F988
:103BF0000021232000F0DEF98021372000F0DAF9DF
:103C00000021382000F0D6F9752000F003F968286B
:103C100001D0012010BD01216B2000F0CBF9002163
:103C20006C2000F0C7F9642000F0ADF9064801F0FF
:103C300091FC0548A83801F08DFC0348A83001F03C
:103C400089FC002010BD000000010020134A10B5BF
:103C5000911E881E00F048F910492A202A39085E72
:103C60001D30FDF759F847210906884203DD8F21F1
:103C7000C90502F0DDFCFCF713FF094A094BFCF70C
:103C8000C7FBFCF775FB084902F042FC034C6A3C99
:103C9000616F02F0CDFB606710BD0000C6F5FF1F2D
:103CA00066666666666630400AD7A33B08B50020A4
:103CB0006A46D070012151702C21117090706846B5
:103CC00001F02EFA2D206A461070684601F028FA9D
:103CD00008480749416108498161084981600849EC
:103CE000C16008490160084941600849016108BD97
:103CF00063270000380000206F2700007B270000AA
:103D00008727000093270000AB27000059270000F9
:103D1000F0B53F4C154620460F46103007C885B019
:103D20001E466B4607C30FCC103CFFF78FFDD0201B
:103D30001034039007CC6B4607C31C3C0FCC103CDF
:103D4000FFF760FD103407CC6B4607C31C3C0FCC5B
:103D5000103CFFF79DFD00280AD02046103007C810
:103D60006B4607C30FCCFFF782FD012005B0F0BD05
:103D700020461030039707C86B4607C30FCC103C92
:103D8000FFF740FD103407CC6B4607C31C3C0FCC3B
:103D9000103CFFF77DFD103407CC6B4607C31C3C7D
:103DA0000FCC103CFFF752FDD1201034039007CC0C
:103DB0006B4607C31C3C0FCC103CFFF723FD1034AF
:103DC00007CC6B4607C31C3C0FCC103CFFF760FDD3
:103DD00010E0012D1AD0012003902046103007C8B2
:103DE0006B4607C30FCC103CFFF7DDFC6D1E307037
:103DF000EDB2761C002DECD12046103007C86B4682
:103E000007C30FCCFFF733FD0020AFE70020E3E747
:103E1000380000207FB5334C05462046103007C8D7
:103E20006B4607C30FCC103CFFF710FDD0201034B9
:103E3000039007CC6B4607C31C3C0FCC103CFFF72C
:103E4000E1FC103407CC6B4607C31C3C0FCC103C84
:103E5000FFF71EFD1034039507CC6B4607C31C3CCF
:103E60000FCC103CFFF7CEFC103407CC6B4607C3D9
:103E70001C3C0FCC103CFFF70BFD103407CC6B46FD
:103E800007C31C3C0FCC103CFFF7E0FCD1201034E2
:103E9000039007CC6B4607C31C3C0FCC103CFFF7CC
:103EA000B1FC103407CC6B4607C31C3C0FCC103C54
:103EB000FFF7EEFC00201034039007CC6B4607C3DD
:103EC0001C3C0FCC103CFFF76EFC0546103407CCB1
:103ED0006B4607C31C3C0FCCFFF7C9FC284604B057
:103EE00070BD0000380000207CB514460D46064623
:103EF0006B46062243216820FFF70AFF00280BD1FA
:103F00006946098849BA31806946498849BA298091
:103F10006946898849BA21807CBD10B580216B2013
:103F200000F048F810BD10B5032801D9012010BDDC
:103F3000C006010E1C2000F03DF810BD10B503288E
:103F400001D9012010BDC006010E1B2000F032F87F
:103F500010BD10B5BC2801D3012110E0622801D3A7
:103F600002210CE02A2801D3032108E0142801D300
:103F7000042104E00A2801D3052100E006211A20CB
:103F800000F018F810BD10B504467D20C000844232
:103F900001D9044602E0042C00D204242146FCF797
:103FA00037F9401EC1B2192000F004F86008FFF78D
:103FB000D0FF10BD7FB52F4C064620460D46103071
:103FC00007C86B4607C30FCC103CFFF73FFCD0205F
:103FD0001034039007CC6B4607C31C3C0FCC103C3D
:103FE000FFF710FC103407CC6B4607C31C3C0FCC0A
:103FF000103CFFF74DFC002827D1204610300396D7
:1040000007C86B4607C30FCC103CFFF7FBFB10340F
:1040100007CC6B4607C31C3C0FCC103CFFF738FCA9
:104020001034039507CC6B4607C31C3C0FCC103CE7
:10403000FFF7E8FB103407CC6B4607C31C3C0FCCE2
:10404000103CFFF725FC00280AD02046103007C896
:104050006B4607C30FCCFFF70AFC012004B070BD0C
:104060002046103007C86B4607C30FCCFFF7FFFB95
:104070000020F3E73800002010B500F07DF80121A2
:10408000432001F02DF9642000F050FB0021432073
:1040900001F026F9642000F049FB0121432001F0E2
:1040A0001FF90021AE2001F0DFFF0021D52001F033
:1040B000DBFF0021502001F0D7FF0021A82001F0F4
:1040C000D3FF00213F2001F0CFFF0021D32001F0DA
:1040D000CBFF0021084601F0C7FF0021402001F07E
:1040E000C3FF00218D2001F0BFFF0021142001F04B
:1040F000BBFF0021202001F0B7FF0021084601F09E
:10410000B3FF0021A02001F0AFFF0021CF2001F07C
:10411000ABFF0021DA2001F0A7FF0021122001F0FF
:10412000A3FF0021812001F09FFF0021EF2001F07B
:104130009BFF0021D92001F097FF0021F12001F021
:1041400093FF0021DB2001F08FFF0021302001F0E0
:104150008BFF0021A42001F087FF0021A62001F0A1
:1041600083FF0021AF2001F07FFF01F0F1FD00216E
:10417000084600F026F810BD08B500206A46D07049
:1041800001215170232111709070684600F0C8FF22
:1041900042206A461070684600F0C2FF17206A4647
:1041A0001070684600F0BCFF43206A4610706846F5
:1041B00000F0B6FF16206A461070684600F0B0FFA7
:1041C00008BD10B50446B031C8B2002101F04CFF63
:1041D00020090021103001F047FF2007000F0121C6
:1041E0000843002101F040FF10BD0000F0B58DB084
:1041F0000027282102A80C97FCF708F80C240021BE
:10420000062383A20846009401F000FF01200190DC
:104210000623252200210094642001F003FE01F012
:10422000DDFD0020800000227F1C02A9BFB20A50E1
:104230000A2FF9D37A4B00201D46A0351C46603466
:10424000014614267143C91800224031401C0A85DA
:1042500080B24A850528F3D398E000263300FFF7A3
:1042600037FA050413223444520001200021C00211
:1042700000F0A4FD61794A0069495118403108866F
:104280006079401C60713EE001200021800300F055
:1042900095FD617E4A006249511880318880607EB8
:1042A000401C60762FE001200021800200F086FD96
:1042B00001465B488030427B5300594A9A1880324D
:1042C0001183417B491C41731DE001200021C00383
:1042D00000F074FD014668784200514810188030A3
:1042E00081856878401C68700DE001200021400243
:1042F00000F064FD697D4A0049495118C0310880C9
:10430000687D401C687514203146414344480818B4
:10431000009060304179042901D300214171009857
:1043200003220021703002F070F800984030028DB6
:10433000C18E8A4200D20185428D018E8A4200D907
:104340004185761CB6B2052E88D30C980A21401CF4
:1043500080B20C90FBF75CFF002904D10020FFF72E
:10436000BDFB01F03BFD1E21781CFBF751FF02460F
:104370000C2106200191009003230021542001F01C
:10438000B1FD052000F0D2F97F1CBFB2254887425D
:1043900000D262E7224C002002AB142141430919EC
:1043A000C20040310D8D9D50D218401C498D80B205
:1043B00051600528F1D30C2406231BA221460020BE
:1043C000009401F023FE06231BA218210020009474
:1043D00001F01CFE01F002FD7D25ED00284600F0F5
:1043E000A5F9FD2000F090FD0023282202A9FD2060
:1043F00000F0D0FD062313A224210020009401F038
:1044000005FE01F0EBFC284600F090F90DB0F0BD80
:1044100043616C6962726174696F6E2E2E2E0000AA
:10442000DCF4FF1FB80B000043616C6962726174B9
:10443000696F6E204F4B2100536176696E672E2E97
:104440002E00000053617665642121000EB50948F5
:10445000009000206A4690710121117191721072D2
:10446000507160235372D172D071684600F0C0FC65
:104470000EBD000002CF0000F0B5644E00273446A8
:10448000203C254685B0203D3B00FFF721F905047F
:1044900014243444530001200021C00200F08EFC9B
:1044A00069794A005949A03951184031088668791C
:1044B000401C68713EE001200021800300F07EFC7A
:1044C000697E4A005149A039511880318880687E40
:1044D000401C68762EE001200021800200F06EFC76
:1044E000617B4A004949A039511880310883607BBB
:1044F000401C60731EE001200021C00300F05EFC40
:1045000071784A004149A039511880318885707806
:10451000401C70700EE001200021400200F04EFCB3
:10452000717D4A003949A0395118C0310880707D29
:10453000401C70751420394641433448A03808188F
:10454000009060304179042901D300214171009924
:10455000042208467030663101F04AF8E0890528E7
:1045600001D20520E081608C052801D205206084FD
:10457000009840300190018D408D0290081AFCF7A0
:10458000CBFB03900198C18C0298081AFCF7C4FB7E
:104590000399FCF7AFFA00997F1CFFB2C866052F9C
:1045A00000D271E719482568A038C66E2846314602
:1045B00001F03EFF07463146284602F039F83946F9
:1045C000FCF798FA124E314601F0A2FFE0676569E8
:1045D000A46A2946204601F02BFF074629462046BB
:1045E00002F026F83946FCF785FA314601F090FFD3
:1045F0000649084A60310860904204DA064A90424F
:1046000001D20020086005B0F0BD00007CF5FF1F5E
:104610000000C84200000C4200000CC208B5002097
:104620006946C87048702820087001208870684664
:1046300000F076FD0121282000F0F8FD012128205E
:1046400000F04EFE292069460870684600F068FDBB
:104650000121292000F0EAFD0121292000F040FE7F
:10466000342069460870684600F05AFD0121342064
:1046700000F0DCFD0121342000F032FE37206946D5
:104680000870684600F04CFD0121372000F0CEFD97
:104690000121372000F024FE08BD0000F0B585B0F0
:1046A0001546022803D90020C04305B0F0BD104EC6
:1046B000C400325D012A17D06A4610700127577076
:1046C0000320107268460395019100F01FFE3755D4
:1046D000A019456001211620FEF7A0F9032117203B
:1046E000FEF79CF90020E0E70120C043DDE7000071
:1046F000DCFBFF1F70B5062802D90020C04370BD47
:104700001424094D60434419267B012E09D06160B1
:10471000002666702B5401202073A1603046226170
:1047200070BD0120C04370BD64FBFF1F002809D08D
:10473000012800D102200449486000200870087850
:104740000128FCD1704700007CF0FF1FF8B50D4E2A
:104750000746756900240D480B490068FBF758FDB2
:104760007843B1690246B0698842FCD0884201D2E0
:10477000091A01E02B1A59180C1901469442F2D378
:10478000F8BD000000E000E040420F0048F0FF1FCD
:1047900070B5022802D90020C04370BD074DC40087
:1047A000295D002906D000F00DFE00202855611972
:1047B000486070BD0120C04370BD0000DCFBFF1FDE
:1047C00070B50021134B0C4614224A43D0184460A4
:1047D000846044709C54491C0461C9B20473062966
:1047E000F2D30C487D2188300480448084800A48BC
:1047F000C9000068FBF70CFD0849401E884208D834
:10480000074D68610321081FFEF708F9AC61072016
:10481000286170BD64FBFF1F48F0FF1FFFFFFF0012
:1048200000E000E04168002910D04168491E416065
:104830000CD1012141700178012903D181684160C7
:10484000002141700069002800D000477047000037
:104850001FB500F051F8E1204002009001200390C4
:104860000C206946488100200881C880094C888056
:10487000204600F0DFFD08480168C8782022104378
:10488000C8700649D00108600121204600F0B6FD3D
:104890001FBD000000A006403CF9FF1F00E100E042
:1048A000012801D000207047004870473CF9FF1FE5
:1048B00001680A79120701D50A79CA790A790A7951
:1048C000120612D5828A002A10D0438A4268D25C2E
:1048D000CA71418A491C89B241828289914201D3BD
:1048E00000214182818A491E81827047C878400632
:1048F000400EC870704700000B480A4901600B4920
:104900008160014628314160FF210131C1818181EF
:10491000002141830183C182818241824162C16160
:104920000162704700A006403CF9FF1F64FAFF1FB8
:10493000F8B50023FFF7B4FF002820D0002517E0CA
:104940008489878A6E4637803688B442F9D9CC5C30
:10495000078A4668F455048A641CA4B204828689D6
:10496000B44200D30582848A641C84825B1C9BB29F
:104970009342E5D30068C17880221143C170F8BD2D
:1049800010B500F007F800F097F900F0B1F800F06A
:1049900059F810BD10B5104C607800281AD01328B3
:1049A00014D008DC02280BD010280CD011280DD010
:1049B00012280DD10AE0142808D0152808D105E0E6
:1049C00000F024F904E000F0EDF8102000F050F9B8
:1049D0000020607010BD000088F0FF1F70B588B027
:1049E0000E460446154620216846FBF70FFC1B2D9A
:1049F00002D9002008B070BDAA206946087048702E
:104A00008E70CD7000216846431908E0625C46183C
:104A100032711A79465C9219491C1A71C9B2A942BD
:104A2000F4D32C462A1D05E01979065D8919641C0A
:104A30001971E4B29442F7D301466A1D0120FFF7D1
:104A400077FFD6E730B589B020216846FBF7DEFB5B
:104A500024486A46018C0B1213705170418C0B1262
:104A60009370D170818C0B1213715171C18C0B1228
:104A70009371D171018D0B1213725172408D01121D
:104A80009172D072122202216846FFF7A7FF154CDF
:104A9000154D403C2946206F01F03AFDFCF7DAF84D
:104AA0000104090E6A46117050702946E06E01F04B
:104AB0002FFDFCF7CFF80104090E6A469170D07003
:104AC0000A49606F01F024FDFCF7C4F80104090EE7
:104AD0006A46117150710C2201216846FFF77EFF72
:104AE00009B030BD9CF5FF1F0000C8420000204106
:104AF00000B589B020216846FBF788FB2748694646
:104B0000428913120B704A70808902128A70234AFC
:104B1000C870403A106D030E0B7103144B710312F1
:104B20008B71C871506D020E0A7202144A72021221
:104B30008A72C87219481A494030806801F0E8FC4E
:104B4000FCF788F801040A0E69460A734873134893
:104B5000C038C06CFCF77EF80004000E694688730C
:104B60000E48C038C06CFCF775F86946C8730B482E
:104B7000C038406DFCF76EF80004000E69460874FA
:104B80000648C038406DFCF765F869464874122243
:104B9000F1216846FFF722FF09B000BD9CF5FF1F19
:104BA0000000C84270B516484179027908021043E6
:104BB00040BA00B2FCF7B0F8124D2946FBF79AFF55
:104BC000114C20600E48C17982790802104340BA26
:104BD00000B2FCF7A1F82946FBF78CFF606008489B
:104BE000417A027A0802104340BA00B2FCF794F806
:104BF0002946FBF77FFFA06001F0BAFA70BD000004
:104C0000500200200000C842DCF4FF1F30B585B020
:104C100014216846FBF7FAFA134C144D2068294614
:104C200001F076FCFCF716F8021269468A71C87129
:104C30002946606801F06CFCFCF70CF8021269462A
:104C40000A7248722946A06801F062FCFCF702F87B
:104C5000021269468A72C872122210216846FFF752
:104C6000BDFE05B030BD0000DCF4FF1F0000C842EF
:104C70001CB5002100910191AA216A461170517062
:104C8000EF2191700721D17010710A48C178001D81
:104C9000085C5071002069460B5C8A79401CD21870
:104CA000C0B28A710728F7D307220120FFF740FE20
:104CB0001CBD00005002002030B589B0202168469C
:104CC000FBF7A4FA1C486A46C18C04460B0A137011
:104CD00051704034E1890B0A9370D170618C0B0ADA
:104CE00013715171408F010A9171D071E06FFBF720
:104CF000B1FF0104090E6A461172254650728035D3
:104D00002868FBF7A7FF0104090E6A469172D0726A
:104D10006868FBF79FFF0104090E6A461173507320
:104D2000E08E010A9173D0731022F2216846FFF7DA
:104D300055FE09B030BD00001CF5FF1F10B5FDF792
:104D400041FDFDF7EFFEFDF78BFE10BD10B5FEF740
:104D50005DFE194C0028607007D02078002804D12F
:104D6000022001F027FA0020607020780300FEF78F
:104D7000AFFC0A09200C060F1215181B1E20FDF7A8
:104D800013FF16E000F058FF13E0FDF751FD10E0AF
:104D9000FEF7FEFA0DE0FEF77DFA0AE0FCF702FDF1
:104DA00007E0FCF783FC04E0FCF774FB01E0FEF78E
:104DB000E3FBFDF77FFB10BD24F4FF1F0022034639
:104DC000D340DB0703D1521C92B2102AF7D3074815
:104DD000836849000B438360D106C90E01600168F6
:104DE0000906FCD500690005000D704700B00340BE
:104DF000F8B5054600206946088006460446074681
:104E00000121480700F0EEFA3B4B9869694608809B
:104E10000888002802D00888C0430880684629888E
:104E200000880143684601800088C14368460180CC
:104E30009969008801409961A879697A4000014325
:104E4000A87A084398605868E97A08435860287A35
:104E5000012800D1202669794020012903D1064389
:104E6000264A41021160E979002902D0D96801433C
:104E7000D9602868D9682A79521ED2B21143D96004
:104E80001F490246E240D207D20F11D0E206D20EED
:104E9000194B32431A601B4B01221B78A2409C46DF
:104EA0009B00CA5063465B1C164A7F1C1370FFB2FE
:104EB0002A79BA4203D9641CE4B2102CE1D3C203AC
:104EC0000BD510220C4B32431A600E4B01241A787A
:104ED000240495004C51521C1A7080030BD51620E7
:104EE000064305480660074A012310785B048400E6
:104EF0000B51401C1070F8BD00B0034000E100E011
:104F000024F6FF1F5CF0FF1F410210B50748002286
:104F100042700A2343720B0C037201234370090A87
:104F20004172027200F020F8002010BD0000024023
:104F300010B50121080300F055FA084C607900060D
:104F4000FCD5084806490068FBF762F9401E800658
:104F5000800E4030E0703020607110BD00000240D3
:104F600040420F004CF0FF1F10B572B63020074CC6
:104F700060710749481F0160601D884762B660790B
:104F80003321084000D0012010BD00000000024085
:104F900069F0FF1FF8B50026400217460C46C518F9
:104FA0001CE010480021417006214172290C017259
:104FB00001214170290A4172057202214170217854
:104FC00001726178417203214170A1780172E17828
:104FD0004172241D2D1DFFF7C7FF361DBE42E0D3D1
:104FE0000020F8BD00000240F1B582B00298002414
:104FF00000888206930F8205120F009201070205B6
:105000008504090F920FAD0FC00B844633484769E2
:105010006E1D0120B040314E074377616046002885
:1050200015D007D030698B409843306130698A4091
:10503000104330612A480668029801797D20C0003B
:1050400041430F46300CFBF7E3F801460BE0234EDB
:10505000F0688B409843F060F0688A401043F0603D
:10506000E8E7641CE4B20846E040FAD1072C33D8E4
:1050700030463946E040FBF7CBF886B21949680064
:105080000E520298711CC08848437D21C900FBF76D
:10509000C9F880B28646144AA80011588E6000995B
:1050A0001358C9008C460C315E580427BE435E502D
:1050B0001658282373506107490F13580831196097
:1050C0000021022D01D19368D964155863467446B6
:1050D0001033EC5010584160FEBD000000800440C9
:1050E0004CF0FF1F5EF0FF1F0C67000070B58205DB
:1050F000150F8004840F084A6000105A401C484372
:105100007D21C900FBF78EF8044AA1005258E9003E
:1051100080B21031505070BD5EF0FF1F0C67000070
:10512000F0B501783E4BCD064A09ED0E92009C5831
:10513000A6690121A9400E43A6619C5865698D436B
:1051400065614478002C02D0012C05D00EE09C58FB
:10515000A5698D43A56109E09C58A6690D463543B4
:10516000A5619C5866690D463543656185782D4E6D
:105170002D4C012D15D12B4F9D58403FBD4203D1E1
:10518000A5680D43A5600CE0B54203D1E5680D4369
:10519000E56006E0234F4037BD4202D125690D434B
:1051A0002561C17801293AD19958B1420BD10278D1
:1051B000382A04D0392A06D16269802301E0626965
:1051C00040231A436261B1420BD10278202A04D0F5
:1051D000212A06D16269202301E0626910231A4363
:1051E0006261104B403B99420BD10278182A04D0DF
:1051F000192A06D16269082501E0626904252A435B
:10520000626199420BD100780C2804D00D2806D198
:105210006069022101E06069012108436061F0BD1D
:105220000067000040F00F4000900440F0B51C4DB6
:105230001B4E43091B4F9B00184A194C4035403EFA
:10524000FB58002915D0C106C90E01208840B34281
:1052500003D1916801439160F0BDA34203D1D168AD
:105260000143D160F0BDAB42FCD111690143116132
:10527000F0BD01218140B34203D190688843906022
:10528000F0BDA34203D1D0688843D060F0BDAB42EB
:10529000FCD1106988431061F0BD0000009004400B
:1052A00040F00F4000670000C2064109D20E88009E
:1052B000034908580069D040C007C00F704700007C
:1052C00000670000C1064209C90E044892008058D8
:1052D000C26801238B401A43C26070470067000018
:1052E000420910B59300C006074C0122C00E82404F
:1052F000E058002903D041681143416010BD816826
:105300001143816010BD00000067000070B50446C5
:105310000121022000F066F8254801680225A94312
:10532000016024487D21C9000068FAF771FF6168B7
:1053300041432078020120481218116021780901A8
:105340000918CB6801221343CB60217809010918A1
:105350008B6893438B602178090109188B68AB43F4
:105360008B602178090109188B6813438B60617881
:10537000012916D121780901081881682943816023
:1053800021780E4A8900E068505020780C490028A6
:1053900008D0012805D1C0050860217A1720FDF743
:1053A0001BFB70BD012080050860217A1620F6E7FE
:1053B000007003404CF0FF1F0071034054F0FF1FCA
:1053C00000E100E0012809D8010105480818C1687A
:1053D00001221143C16081689143816070470000E0
:1053E00000710340044A0029516901D0014300E0E3
:1053F0008143516170470000008004400A4A10B5A3
:10540000904202D10120000504E0084A904204D1F4
:1054100001204005FFF7E6FF10BD054A9042FBD191
:1054200001208005F6E7000000A0064000B006401D
:1054300000C00640F8B5044623480D46844202D118
:10544000012108050AE02148844202D101214805D2
:1054500004E01F48844203D101218805FFF7C2FF01
:10546000297B204600F03AF8E078F3210840E0700C
:10547000A078297A0843A070A07829790843A07001
:10548000A078A9790843A0701248006800902968A4
:10549000060948083018FAF7BBFE81B20E4881426F
:1054A00000D9014620784009400120702078CA04C4
:1054B000D20E104320706170E078AA7A1043E07039
:1054C0003046FAF7A5FEF8BD00A0064000B0064041
:1054D00000C006404CF0FF1FFF1F000001290ED83E
:1054E0000E4B0F4A98420BD1D068CB011843D060C5
:1054F000012904D10B4881680C2211438160704757
:10550000094B984202D11069090304E0074B984205
:10551000F5D11069490308431061704700A00640A7
:10552000008004400090044000B0064000C00640E7
:1055300010B5074C054860602146603120698861DC
:10554000002000F037FE0120207010BDC0040020B4
:1055500068F3FF1F10B500210A4606C001604160D4
:1055600003461A4A78331A491A625962194C44613F
:1055700000230361184C0362C46143628261154CCD
:10558000C4628362026341630021C1638164C164B8
:105590000165446483630A46026441652246C2652C
:1055A00081650E4A0E490266416600218166C16628
:1055B000016741670B4903460B4A783306C3002253
:1055C0000A4978301A60C16010BD00007B14AE47F4
:1055D000E17A743F0000F03FE17A74BFFCA9F1D298
:1055E0004D62503FFA7E6ABC7493683F0000E03F12
:1055F00070B50C4603460021084604E04D005D5B93
:105600002818491C89B29142F8D31146FAF700FED6
:10561000208070BD0021024A800010584160704710
:1056200018670000024980000858406880B270473F
:105630001867000010B5034600F010F8064A9800FD
:1056400011580B680B600B68182423430B6010582B
:105650000021416010BD00001867000010490028BB
:1056600010D001280DD14869402210434861C86814
:10567000032292069043C860C8680122D2061043F4
:10568000C86070474869202210434861C8680322F7
:1056900012069043C860C86801221206EFE70000B6
:1056A00000800440F7B500238AB0044600930193BC
:1056B000D34E8C46079303930493059318461D46D7
:1056C0000693CF4F8200543F00233946BB501C3114
:1056D0008B501C31401C8B50C0B2B3500728F0D304
:1056E000A1680027604600F013FF0090E1680C9865
:1056F00000F00EFF019038460C214843C149421882
:10570000936809585268009800F0A2F9BC49BA00A1
:10571000543988504000000E05D0B948A9001C3803
:105720006D1C4750EDB27F1CFFB2072FE3D306E09C
:10573000B3490020AA001C396D1C8850EDB2072D1A
:10574000F6D300252F4638460C214843AD49421870
:10575000936809585268019800F07AF9A849BA008C
:10576000383988504000000E03D0A8006D1C375017
:10577000EDB27F1CFFB2072FE5D304E00020AA00A2
:105780006D1CB050EDB2072DF8D300270025B800EE
:1057900001909B4801991C3846581C209A49704337
:1057A00041189748AA008058800002900858FBF7DB
:1057B000B3FA00909249029838390958B000904ED7
:1057C000543E305800F0A4FE0990009900F0A0FE6D
:1057D000039900F02DFE03900799099800F028FE28
:1057E0006D1CEDB20790072DD3D37F1CFFB2072F9E
:1057F000CCD34000854D000E03D007990398FBF7EA
:1058000079F90490E069049900F082FE049021691E
:1058100000F0D6FE206906D36840049900F0D0FE5F
:1058200002D2206968400490A06A049900F000FE4A
:10583000A0627649606B4840A16A00F0C1FE03D2C5
:105840007249606B4840A062616BA06A00F0B8FECC
:1058500001D2606BA06200200790074603900025EC
:10586000B8000190664801991C38465866491C20CA
:105870007043C43141186248AA00805880000290E9
:105880000858FBF749FA00905D49029838390958E1
:10589000B0005B4E543E305800F03AFE069000993E
:1058A00000F036FE039900F0C3FD039007990698B7
:1058B00000F0BEFD6D1CEDB20790072DD2D37F1C0A
:1058C000FFB2072FCBD34000000E03D007990398F7
:1058D000FBF710F90590206A059900F019FE059074
:1058E000616900F06DFE606907D3484D0599684015
:1058F00000F066FE02D2606968400590E06A059992
:1059000000F096FDE0624149A06B4840E16A00F07A
:1059100057FE03D23D49A06B4840E062A16BE06AAC
:1059200000F04EFE01D2A06BE06200200790074617
:1059300003900025B8000290314802991C3846585F
:1059400030491C207043C43941182D48AA008058A2
:10595000800000900858FBF7DFF901902849009873
:10596000383909582648B2005438805800F0D0FD24
:105970000646019900F0CCFD039900F059FD039013
:105980003046079900F054FD6D1CEDB20790072DCD
:10599000D2D37F1CFFB2072FCBD34000000E03D021
:1059A00007990398FBF7A6F80690606A069900F03D
:1059B000AFFD0690A16900F003FEA06907D3134D67
:1059C0000699684000F0FCFD02D2A069684006908C
:1059D000206B069900F02CFD20630C4DE06B216BD1
:1059E000684000F0EDFD02D2E06B68402063E16B9F
:1059F000206B00F0E5FD01D2E06B20630DB0F0BD3F
:105A0000A4040020D8F2FF1F8CF0FF1F00000080CC
:105A100070B50E4D044601682846FBF76BF8A06090
:105A200028466168FBF766F8E06029462069FBF7C5
:105A300061F8E06129466069FBF75CF8206229465D
:105A4000A069FBF757F8606270BD0000000040409D
:105A5000FFB581B01D4617460E460024019800F0A0
:105A6000AFFD0ED83946019800F028FD09D831461F
:105A7000384600F0DDFD04463146019800F0D8FDBF
:105A800012E03946019800F09BFD11D22946019899
:105A900000F014FD0CD83946284600F0C9FD044634
:105AA0002946019800F0B8FD2146FBF723F804468B
:105AB000204605B0F0BD10B5FAF768FB0621484353
:105AC00080B210BD0021427806E01C234B431B1816
:105AD0009B78012B02D0491C8A42F6DCC8B2704781
