:020000040000FA
:10000000C00600204B01000057010000590100000C
:1000100000000000000000000000000000000000E0
:100020000000000000000000000000005B01000074
:1000300000000000000000005D0100000939000020
:100040006101000061010000610100006101000028
:100050006101000061010000610100006101000018
:100060006101000061010000610100006101000008
:10007000A13A0000B93A0000BB3A0000C5120000E6
:1000800061010000610100006101000061010000E8
:100090006101000061010000092F0000312F000004
:1000A000F52A0000412B0000610100006101000001
:1000B00061010000610100006101000061010000B8
:1000C00000F002F800F030F80CA030C8083824180E
:1000D0002D18A246671EAB4654465D46AC4201D180
:1000E00000F022F87E460F3E0FCCB6460126334282
:1000F00000D0FB1AA246AB463343184708960000CF
:10010000289600000023002400250026103A01D381
:1001100078C1FBD8520700D330C100D50B607047BF
:100120001FB51FBD10B510BD01F04AF81146FFF70D
:10013000F7FF06F04DF801F062F803B4FFF7F2FFA5
:1001400003BC03F0C8FC0000704709488047094819
:10015000804709480047FEE7FEE7FEE7FEE7FEE7C7
:10016000FEE7000005480649044A064B70470000B8
:100170009D39000049010000C1000000C0050020B9
:10018000C0060020C00500207047000030B5441CA8
:1001900003E00178401C00290DD08107F9D10B4BF9
:1001A000DD0104C8D11A91432940FAD0001B0A0688
:1001B00003D0C01E30BD001B30BD0A0401D0801E1C
:1001C00030BD0902FCD0401E30BD0000010101011C
:1001D00001E004C0091F0429FBD28B0701D502806E
:1001E000801CC90700D00270704700290BD0C307DC
:1001F00002D00270401C491E022904D3830702D595
:100200000280801C891EE3E70022EEE70022DFE780
:10021000002203098B422CD3030A8B4211D3002303
:100220009C464EE003460B433CD4002243088B42DD
:1002300031D303098B421CD3030A8B4201D394466A
:100240003FE0C3098B4201D3CB01C01A524183095D
:100250008B4201D38B01C01A524143098B4201D317
:100260004B01C01A524103098B4201D30B01C01A42
:100270005241C3088B4201D3CB00C01A52418308BC
:100280008B4201D38B00C01A524143088B4201D3E9
:100290004B00C01A5241411A00D201465241104649
:1002A00070475DE0CA0F00D04942031000D34042BE
:1002B000534000229C4603098B422DD3030A8B42F4
:1002C00012D3FC22890112BA030A8B420CD3890192
:1002D00092118B4208D3890192118B4204D3890178
:1002E0003AD0921100E08909C3098B4201D3CB01B6
:1002F000C01A524183098B4201D38B01C01A52416B
:1003000043098B4201D34B01C01A524103098B426E
:1003100001D30B01C01A5241C3088B4201D3CB0059
:10032000C01A524183088B4201D38B00C01A52413C
:10033000D9D243088B4201D34B00C01A5241411A13
:1003400000D20146634652415B10104601D3404241
:10035000002B00D54942704763465B1000D34042F2
:1003600001B50020C046C04602BD704770477047C7
:100370000246C80FC00781434B0030B54B405B00BD
:100380009B0D20D01923DB06C91801231B059942B8
:1003900020DB0324A40704251346AB400BD3002B1A
:1003A00004D1EB0613409B00E34204D4012464070C
:1003B000002312195941FF231B0599420BD2C90092
:1003C0000143500F09E0CB0204D501430803024367
:1003D00005D0054830BDFF21C905084330BD08469A
:1003E00007210905884330BD0000C07F7047000029
:1003F00010B5024800F00BFF10BD00000000C07FE8
:10040000FFFFFFFFFFFFFFFFFFFFFFFFFFFFFEFEFE
:10041000F0B50C46871A9C410D46861A9D4103D2C1
:10042000C01BA141D21963410D0D1F0DC94EEC1B1C
:10043000AE435CD07F057F0D0026002F51D02D05E7
:10044000AC46A943DD020123ED0A1B051D43202311
:100450001B1B24D41746E740381871412F46E7404C
:10046000CC199D402818314661410C0D27D16144BB
:100470009A4013D50023401C594152000ED1400828
:10048000400001224B005205D34207D3052040070C
:10049000C14201D5B04900E0B0493046F0BD6B0023
:1004A000002A00D001229A181F23203C1B1B01D5D3
:1004B000002302E0E540281871410C0DD7D001243B
:1004C00024050919C407CD0740084908E40F28434B
:1004D0006144002CD5D00024401C61419A40D0D109
:1004E000CDE76A05520DD9D1C90FC907D5E79C4D93
:1004F0004E00002801D0012400E0002434195F00E0
:10050000002A01D0012600E00026BE19954FAC421A
:100510000CD8AE420AD8B44206D001256D05EC4293
:10052000BCD010461946F0BD9942FCD00020394697
:10053000F0BDF0B51FB40C460F46811A9F41254609
:10054000861A9D4106D20125ED076F40401ABC4135
:1005500052187B41210D1E0D8D1BAC467D4D8D43E8
:100560007ED075056D0D7CD00D05AE46AC431B03EA
:100570001B0B794D52429D41202366469B1B14D391
:100580001746F740381800260090744160462F4601
:100590000741E41900989D402818664116D4714619
:1005A00071189A4025D5012320E093182A466A4104
:1005B0005200002B00D0521C1E23203E9B1B002B00
:1005C00061DD3541EE1728186641E8D500187641FF
:1005D0005B1C9A4000D3401C4B05F3181524E340E4
:1005E00010D3002B52D071467118D30FC01802D30C
:1005F000491C05B0F0BD0123DB079A42F9D1400840
:100600004000F6E701225205B21801D1002853D06C
:100610000123CC0ADB029943891E002A08D1020C6F
:1006200003D0020C0004103902E0024600202039F9
:100630000023550B05D112020823550B01D152019D
:100640000D23550C01D112011B1DD50C01D19200B7
:100650009B1C150D01D152005B1C2025EE1A01E0F8
:100660002CE022E00546F54015439840CA1AE10700
:1006700069181305C918002ABBDA032040070818B7
:10068000C10FC9070FE071466118B2E7F1074008D2
:100690000843711071444A000CD001235B059A4253
:1006A000A7D2C90FC9070020A3E74905490D26D1E4
:1006B000002001E00028F4D100219AE7284D6600CF
:1006C000002801D0012100E0002171185F00002AFC
:1006D00001D0012600E00026BE19224FA94210D801
:1006E000AE420ED8B14208D001256D05E94206D0D0
:1006F0001946A802414010467BE79C4201D02146A2
:1007000077E70020394674E710B50C465C4005D504
:100710000124E4076340FFF70CFF10BDFFF778FEEC
:1007200010BD30B40C465C4004D50124E40763409E
:1007300030BC6DE630BCFCE670B50124E4076140D6
:100740000D465D4002D4FFF763FE70BD6340FFF7C6
:10075000F0FE70BDFF0700000000F0FF0000F07F1A
:100760000000E0FF0000F87FF0B5F94D0C091E090C
:100770002C402E402F468BB0A7437DD0B543FCD0F4
:10078000002E7AD0002CFCD00D465D40ED0F2543A5
:10079000AC1BFF25AD0464190894C502440DC902C1
:1007A0002143500DDC0204430120C00701430443F0
:1007B000D2020191200C110C00958C4601042346B5
:1007C0008B430A9161460904E24D8A430991010A6B
:1007D0007D4449198039097805464D4301266D1835
:1007E000F605751B6943C90C640B891C4C436418DE
:1007F000B5012C1B250C2E04B4434C434D43210C56
:10080000691889090591009DE90701D00121C907EF
:1008100004912C4601996708CD072F434C08059D8C
:10082000E10B4D432D0C29466646754302950D4656
:1008300045432E46029D7D1BB44100950D465D4308
:1008400001942C0C2F040D465543AE462D0C3D4310
:10085000029503947546049C2D04641B049406D2EF
:10086000029C039D641C002675410395029401AC13
:1008700070CC009F7D1B01E03EE162E1B4410904C0
:100880000095079101940599A4086143090C0C4651
:100890004443650BE7040C4666467443A646640B66
:1008A0003C43039502947446049DE4042C1B049479
:1008B00006D2029C039D641C002675410395029498
:1008C00001AC70CC009F7D1BB44101940C465C438D
:1008D0000095650FE7000C465443A646640F3C4361
:1008E000039502947446049DE4002C1B049406D2E4
:1008F000029C039D641C002675410395029401AC83
:1009000070CC009F7D1BB441AE09AF06049DC900A9
:10091000AD092F43049DA406AD060495079D3443FD
:1009200069180791059DE10B4D432D0C294666463C
:10093000754302950D4645432E46029D7D1BB441ED
:1009400000950D465D4301942C0C2F040D46554334
:10095000AE462D0C3D43029503947546049C2D0430
:10096000641B049406D2029C039D641C00267541FE
:100970000395029401AC70CC009F7D1BB44101949F
:100980008C050694079C890A611800950791019CC3
:100990000599A4086143090C0D464543680BEF0413
:1009A0000D46644665436C0B3C43049FED047D1B80
:1009B000AC4602D20025641C6841009E019D371B95
:1009C00085410846584301950C46460FC5005443DF
:1009D000600F28436546E4002C1B02D20025401C12
:1009E0006E41019D3F1AB5412846BD098006284346
:1009F0008446A009BF064E020699A406761807434E
:100A0000079D002068410A99079019430020099B1F
:100A100000906046FF1913434041E20F64003A43DF
:100A2000A4460446D71A8C41A04203D90120009065
:100A300020463A46C70F941840416246D20F2243DF
:100A4000644664000494009CBE466400D71AA44621
:100A5000044602978C417746002F01D1A04204D969
:100A60006046401C8446029A2046C40FA64694184D
:100A70004041049A0546D20F224364466400D31ACB
:100A80008D417146002901D1A84202D928461A4653
:100A9000641C10430122002800D01643610200208C
:100AA000079B891904465C410223002C02DB49188C
:100AB00013466441089DCE0A2D145D194B05670548
:100AC000E10A2C050D1908993E43C9076940002B1E
:100AD00008D0934006D30022761C5141002B01D14F
:100AE000760876001C4A002D43DB154241D0AA430C
:100AF0003FD030460BB0F0BD06180D464D41174CA7
:100B00007642AC411AD395181C465C41134A6D429B
:100B1000A24113D3012252054C00D4420AD15C00F9
:100B2000D4420BD04B4002D592021143E2E7490078
:100B30004908DFE75940C90FC90718E000200849F4
:100B4000D8E7054801420DD10342F7D0F2E7000093
:100B50000000FF07228C00000000F07F0000E0FF93
:100B60000000F87F114859400143C0124140002065
:100B7000C0E70123089A9B069A4205DC032252072C
:100B80008918C90FC907B5E7052252078918074A0E
:100B90001143D2125140ADE770B515461C460246CE
:100BA0000B4628462146FFF7DFFD70BDFFFFFF7FA4
:100BB0001F22030C02D10F22000402D0030E03D027
:100BC00004E00020014670470002083A030F01D1FB
:100BD0000001121F830F01D18000921E002801DB4B
:100BE0004000521E120551184205C012411810460D
:100BF0007047C10FC90700D040420122920711433C
:100C0000D6E701218907D3E7F0B58B4C0F092546BC
:100C100089B0BD437BD01D092646AE43FAD00E46AF
:100C20005E402740F60F3E43254071D0240121420B
:100C3000FBD0FF24AD19A4042D1B039501252D0520
:100C4000DB02DB0AC9022B43C90A29431E01090141
:100C5000040F130F050121431701880B82039143F1
:100C60002D098C46A90B1E438A039543B30B9A03A7
:100C700096433F09BA0B9403A74302962E467E4340
:100C80000497B6464E19D7190C460196544305975A
:100C90007E43371B7646BF1B3601B646BE0B361960
:100CA00000967646BC043719009C01D3641C00945E
:100CB0006400002F01D001263443029E049F754337
:100CC00066467E430496760034196E00341900940B
:100CD000029C019E1C196643751BAE460694654630
:100CE0004519059C05956C43594375460891691A49
:100CF0000191049E01465143A41B0491611A009C7A
:100D00000791E10605D061090122114302E072E07A
:100D10006EE06109089D00272C0A2D066918049DC4
:100D20007C412A0A2D066918019D6241AC0DAD0275
:100D30006D185441079A910D920255196141029A1A
:100D4000644658435443069B059A5A43121A131B90
:100D50009A0E9B015B187A41010B0005C3185141A3
:100D6000220A200644195A419A4200D2491C012005
:100D70004002814203D315230226F64302E01423E6
:100D80000326F6432020C51AA9401746AF40DA4093
:100D90000A4320460399D8400914731819055118BD
:100DA000039A3843D2075140AC4009D00122944005
:100DB00006D30022401C5141002C01D140084000C4
:100DC0001E4A934212D3012203989206904207DBF7
:100DD0000520400709181A480143C012414004E0A9
:100DE000032040070818C10FC907002009B0F0BD53
:100DF0000020F107FAE705180C464C4111486D42F6
:100E0000A04115D394181A465A410E4864429041A5
:100E10000ED301204A004005824209D35A00824283
:100E200006D35940C90F084AC90700201143DDE71E
:100E300000200649DAE700000000FF07FE07000077
:100E4000FFFFFF7F0000E0FF0000F07F0000F87F61
:100E50000121C9050123411842001B06D3185B0E6E
:100E60000AD0C1100722D206891840075242D14247
:100E700001D5520089187047090208D50146002A99
:100E800003D0C10FC90700207047104670474202C7
:100E900002D0002002497047072109050143F4E709
:100EA0000000F87FF0B5FF252D04C609C209FF2711
:100EB00004462E400137CB093E4348402A402B4090
:100EC0000746002A6BD0002B69D0AA4267D0AB42FC
:100ED00065D0002800DA32460125ED0529432C4370
:100EE00009022002090AD21A4B0C7F24E31A434C50
:100EF000000A7C44E35C7D242404121914145B0072
:100F0000A218884201D3521C00E0400049420C461E
:100F10005C4324115C43DB016415E318040A5C4361
:100F2000C502200D0C4644436419250A5D43230382
:100F3000EC0C0D46654300030019EB184C42A3422C
:100F400001D35B18401CD4052018002B07D05B0090
:100F5000C91804D3401C002901D1400840003F219A
:100F600089048A4209D3002A08DC1106090F04D03B
:100F7000032149074018C00FC007F0BD01224100FE
:100F8000120689187F2252069142F6D2052149079E
:100F9000C84201D59010F0BDFF20C005F0BD002F64
:100FA00000DA32461648AA4207D2AB4205D21902ED
:100FB000090E17D0F80FC007F0BDFF2563002D06FE
:100FC000AB42F9D84900A942F6D8AB4201D1A942B7
:100FD000F2D0A94201D1002101E061004908D00509
:100FE0000843F0BD1102090EFBD0FF200243D005DB
:100FF000F0BD0A460146104654E700008085000017
:101000000000C07F10B501469E240002CA15A30748
:10101000002A02D01843002A04DBA21A002A0CDDA1
:10102000D04010BD1206120E01D140004008A21A95
:1010300003D4D04040420028F3DDFF2248001206CE
:10104000904201D9002010BDC817C043584010BDC0
:101050000102C21504D00123DB071943002A0ADB71
:101060009E239A1A02D40846D0407047FF224100BE
:101070001206914201D900207047C017C043704743
:101080001F22030C02D10F2200041CD0030E01D139
:101090000002083A030F01D10001121F830F01D192
:1010A0008000921E002801DB4000521ED20551181C
:1010B000021251181922904004D3491C002801D172
:1010C0004908490008467047C10FC90700D040428F
:1010D000012292071143D3E701218907D0E70000DD
:1010E00010B5FF22C30D134009D05A4007D09142DA
:1010F00005DA5C42A14202DDC905081810BDC40F23
:10110000E407002B06D0002A06D0002902DBFF20CE
:10111000C0050443204610BD4102FCD0004810BD6C
:101120000000C07F10B5FF231B0644009C421DD861
:101130004C009C421AD80346124A0B4307D4401A6B
:1011400002D3EFF3008010BDEFF3008010BD081A4A
:1011500006D2EFF3008001219043C907084302E063
:10116000EFF30080904380F3008810BD0D231B0433
:101170001A4204D01146002000F006F810BDFFF717
:1011800037F910BD00000090C80212D54803400F87
:10119000002804D0C803C043012188407047EFF302
:1011A00000800001000903210907084380F300883B
:1011B0007047002070470000004870475C05002021
:1011C0007546FFF7F9FFAE46050069465346C0086D
:1011D000C000854618B020B5FEF7C4FF60BC0027EC
:1011E0004908B6460026C0C5C0C5C0C5C0C5C0C5F3
:1011F000C0C5C0C5C0C5403D49008D46704710B54B
:101200000446C046C0462046FEF797FF10BD10B505
:101210000C461107090F092904D00A290AD0082908
:101220000CD104E011460820FFF7AEFF06E051069E
:1012300006D501E0510601D50120C007214610BDA9
:10124000D10607D501010909CC084907000E00069F
:10125000044309E0410F20024907000A0143200E20
:1012600000061D22D14101430846E7E770B58C18FE
:101270000578401C6B075B0F01D10378401C2A11D5
:1012800006D10278401C03E00678401C0E70491C11
:101290005B1EF9D12B0705D40023521E0DD40B7011
:1012A000491CFAE70378401CCB1A921C03E01D7816
:1012B0000D70491C5B1C521EF9D5A142D8D30020E9
:1012C00070BD000030B5094A0020064C064913786D
:1012D00004E022694500401C4A53C0B29842F8D34A
:1012E00030BD000000B0034044F6FF1F90F0FF1F28
:1012F00070B5164C0025608A401C80B260820300E5
:1013000002F0DCFB061E100411141A1E6088401C3B
:1013100080B260800A2805D36580A58002F0D2FDE6
:1013200000F05EFB70BD03F0AFFC70BD00F0D2F9C1
:10133000258100F021F870BD00F0C8F8658270BD0D
:1013400065826580A580258170BD000000F0FF1FCB
:1013500010B50121024A084603F0B8FD10BD000097
:10136000F112000010B50021252004F0FBFA012045
:1013700003F026FE10BD0000FEB5324C324DE06990
:10138000296C05F025FB0190696F05F021FC0246F0
:1013900000902046B838019904F086FCE01FF93827
:1013A000016F2A4B1A029942016F00D35140866F98
:1013B0009E42866F00D356400020A867019805F032
:1013C00077FBFFF71FFE07B23146009805F070FB70
:1013D000FFF718FE06B20A20205E1D30FFF774FEEC
:1013E0001B4905F065FBFFF70DFE698900B2A98175
:1013F000FFF76AFE00903846FFF766FE0746304664
:10140000FFF762FE134905F053FB0146002005F08B
:10141000DFFA394605F0DCFA009905F0D9FAFFF752
:10142000F1FD323068818121E069C905884205DA21
:101430007F21C905C84201D20020688101986867F0
:10144000FEBD000004F6FF1F00F0FF1F00008080BB
:10145000CDCCCC3D3333333FF8B5FFF735FE1449DF
:10146000096B05F0A9FB134E0446706DFFF7F0FC05
:10147000114A124BFFF7C8FBFEF77AFF07462046DA
:10148000FFF7E6FC0E4A0F4BFFF7BEFB04460D4686
:101490003846FFF7DDFC22462B46FFF735F9FEF70D
:1014A00067FF01467065084805F014F9F8BD0000B3
:1014B00004F6FF1F00F0FF1F666666666666E63F7D
:1014C000333333333333D33F04F5FF1F70B51C4D33
:1014D0000A20285EFFF7F8FD0646E96905F078FA6C
:1014E000FFF790FD04B23046A96A05F065FBFFF7EF
:1014F00089FD01B2134A3820105E43421AB2A0425D
:1015000001DA044602E0A34200DD1446884201DA13
:10151000014602E08B4200DD11460A4A0E20403AA5
:101520009485D185285E022806DD0021084602F058
:10153000F5FE02F015FC70BD204602F0EFFE70BD16
:1015400000F0FF1F04F6FF1FFEB500242F4E7F277B
:10155000F461BF023462B868029003462546F01F6A
:1015600000942A462A490194F93805F0DBF8304600
:10157000009501952A462649DC38029B05F0D2F8F1
:10158000244AF9685164386990647B69D364F71F11
:10159000F93F214AFD653A66204ABA65204AFA6455
:1015A000204ABA64204A3A67204ABA673546803DE5
:1015B000F96709C528464038083D04F02BFD002393
:1015C00014206043C0198030E2008382FD21037241
:1015D00049024381511803610A888281641C898809
:1015E000E4B2C181052CEBD308480A494038838511
:1015F000C3852B676B67AB673F20C002EB67006852
:10160000F062C8620A4830870B64FEBD04F6FF1F13
:101610000000684200F0FF1F0000C8410000A04029
:1016200000004842000020430000404100003443D5
:10163000B60300001FB500200090019002900390B7
:101640000648C06A0090FC2003F0A0FF042200239B
:101650006946FC2003F0E0FF1FBD000004F6FF1FF9
:1016600070470000F8B5FFF72FFD1449496B05F0EE
:10167000A3FA134E0446B06DFFF7EAFB114A124B72
:10168000FFF7C2FAFEF774FE07462046FFF7E0FBBD
:101690000E4A0F4BFFF7B8FA04460D463846FFF7DF
:1016A000D7FB22462B46FFF72FF8FEF761FE0146D7
:1016B000B0650248DC3805F00DF8F8BD04F6FF1FF0
:1016C00000F0FF1F666666666666E63F33333333B7
:1016D0003333D33FF8B57B4C7B4D6089E68B0A28CA
:1016E0000ED20A2E03D2E889401CE88112E00A2EAD
:1016F00006D97F21C905A86B05F06AF9A86309E03E
:101700000A2E07D20A2805D97F21C905E86B05F002
:101710005FF9E8636D48A96B81420ADD6E20801B8A
:10172000FFF7D2FC28650A220221062002F02AFBDC
:101730000CE0E96B814209DD0A220221062002F059
:1017400021FB60896E38FFF7BFFC286560890026A1
:10175000102811D9E08B10280ED9286C4000000EFB
:1017600005D0288A401C28822E652E6401E02E6553
:101770002E82AE63EE6301E0286D28642878514C18
:1017800005278034030002F099F90604395D768854
:101790009391606A0124E405A04205DB7F21C9051D
:1017A000E86D05F015F90AE0FF21C905C84201D22C
:1017B000E86D05E07F21C905E86D05F009FAE865E7
:1017C0004349884203DCFF218905C84215D903F04B
:1017D0000FFCA86601202870052211460A2002F09D
:1017E000D1FAFF21E86DC905C84201D3012002E00A
:1017F000A04202DB022002F020FDF8BD03F0F8FB5E
:10180000A96E401A7D21C900884200D92F70666AEE
:10181000E86D3146074605F04BF901462D488142F7
:10182000EBD3874201D3322001E03120C043FFF7E0
:101830004BFC686360692E66686603F0D9FBE86656
:10184000022016E003F0D4FBE96E401A7D21090165
:10185000884200D92F706069696E05F0B9F904F00B
:10186000BBF91D498842C8DD6E6303F0C1FB2867E0
:1018700003202870F8BD03F0BBFB296F401A1749FD
:10188000884200D92F70616A286E05F011F9012194
:10189000C9058842EEDB0420EBE7606A4000000ED9
:1018A00004D008484030408B5A28E3D92F70F8BD47
:1018B000002002F0B1FCEE652E666E66AE666E63C9
:1018C0002E70F8BD84F5FF1F00F0FF1F0000A04040
:1018D000000040400000808000002042881300008B
:1018E0007CB5354C354DA089002815D1384934A038
:1018F0008861E86AA062084601F088F820462C302A
:1019000000F0E7FB2046443000F0E3FB20465C306B
:1019100000F0DFFB0120A0812E487F260078F6052D
:10192000072822D001282AD0042837D022480121B4
:101930002C3000F01EFB20480121443000F019FB40
:1019400018250C2324A210210A20009504F068FE1B
:10195000A06AFFF77DFB02460C20009002231021B5
:101960000195582004F0C8FD7CBD134800212C309F
:1019700000F0FFFA3146A06A05F02AF80CE00E48A4
:101980000021443000F0F5FA0121A06AC90588421F
:10199000D6DB314605F01CF9A062D1E7A06AE86207
:1019A0000020A081FFF746FE03F006FD022004F0B0
:1019B000E9FEFFF7CDFCC3E750F4FF1F04F6FF1F5D
:1019C0005365742054617267657453707065640068
:1019D000F0F3FF1F4DF4FF1F53706565643A00007C
:1019E000F8B53A4C3A4E254660898035EF6A322880
:1019F00005D9E08B322802D92F636F630DE0E969C6
:101A0000306B05F055F83946009004F0E1FF28638B
:101A10003946009805F0D0F86863206FFFF7E9F8C1
:101A200000222C4BFFF7F0F800222B4BFFF7ECF8CD
:101A300000222A4BFEF798FEFEF79AFCA0670A20C8
:101A400003F074FF0127FF07002802D1A06F784040
:101A5000A0677069B061A06FFFF7D4FA00B2FFF71A
:101A6000FBFCF16904F0B4FFF061606FFFF7C1F8AF
:101A70000022184BFFF7C8F80022174BFFF7C4F8F5
:101A80000022164BFEF770FEFEF772FCE067262080
:101A900003F04CFF012802D1E06F7840E067E76F68
:101AA000A06F394604F094FF0021C943FFF718FBEB
:101AB000A862306A70623846FFF7A4FA00B2FFF7F6
:101AC000D1FDB16A04F084FFB062F8BD84F5FF1F58
:101AD00000F0FF1F0000A43F00003D400000514007
:101AE0007CB5334C334D6089002815D1364932A07E
:101AF000886168686062084600F088FF20462C30E4
:101B000000F0E7FA2046443000F0E3FA20465C306B
:101B100000F0DFFA012060812C482D4E0078072864
:101B200022D001282AD0042833D0214801212C308A
:101B300000F01FFA1E480121443000F01AFA18255F
:101B40000C2324A210211420009504F069FD606A82
:101B5000FFF77EFA02460C20009004231021019525
:101B60003A2004F0C9FC7CBD114800212C3000F063
:101B700000FA3146606A04F02BFF08E00C480021AF
:101B8000443000F0F6F93146606A05F021F86062F1
:101B9000D5E7606A686004F0D1FD0020608103F041
:101BA0000BFC022004F0EEFDFFF7D2FBC7E70000BC
:101BB00050F4FF1F84F5FF1F446972656374696FF9
:101BC0006E204B6400000000F0F3FF1F4DF4FF1F78
:101BD0000000A0404B643A007CB5354C354DE088A0
:101BE000002815D1384934A08861E86FE0610846C3
:101BF00000F00CFF20462C3000F06BFA20464430F9
:101C000000F067FA20465C3000F063FA0120E080C3
:101C10002E483F2600783606012825D007282DD0EB
:101C2000042836D0224801212C3000F0A2F92048A7
:101C30000121443000F09DF918250C2324A2102125
:101C40001420009504F0ECFC2249E06904F030FF18
:101C5000FFF7FEF902460C200090042310210195A5
:101C60003A2004F049FC7CBD114800212C3000F0E2
:101C700080F93146E06904F0ABFF08E00C48002130
:101C8000443000F076F93146E06904F0A1FEE061ED
:101C9000D2E7E069E86704F051FD0020E08003F03E
:101CA0008BFB022004F06EFDFFF752FBC4E700003F
:101CB00050F4FF1F04F5FF1F446972656374696F78
:101CC0006E204B7000000000F0F3FF1F4DF4FF1F6B
:101CD0004B703A0000002041F8B5244C05462078AE
:101CE000002841D0284604F0EFF960610021A0618E
:101CF0006956814201DD002028701C482978007D4A
:101D00001A4C401AC6B2583468782169884200D803
:101D1000002616486661583000F078FE134874308B
:101D200086616978016100F0E3FD20696978C7B2D6
:101D3000814200D20F4600240AE030191C2148439A
:101D400042192001011B1E20133100F04DFC641CC0
:101D5000BC42F2DB05491C2288695043401901222C
:101D60000861827000200870F8BD000098F3FF1F22
:101D7000F8B5002A7ED0540054438718012B41D077
:101D8000861A022B7BD0032B76D0042B72D11546FA
:101D9000002600910098069AC1B2B8B200F000FD8A
:101DA0000098761C401E00906800024671006A434D
:101DB00071435118091B081A401C002801DD6D1ED3
:101DC0007F1EAE42E6DB0098069AC1B2B8B200F0C0
:101DD000E7FC2846410070006D1E891E02466943DB
:101DE00072438918091B0818401C7F1E002803DC59
:101DF0000098401E761C0090002DE4DC0098C1B2D3
:101E0000B8B276E000970D46164600270098E9B272
:101E100080B2069A00F0C4FC70007F1C01467A0074
:101E200071437A438918091B081A401C6D1C00284D
:101E300003DD0098401E761E0090B742E6DB009856
:101E4000E9B280B2069A00F0ABFC00993046491E18
:101E5000009141007800761E891E024671437A4344
:101E60008918091B0818401C002801DC6D1C7F1C08
:101E7000002E02E040E002E03FE0E0DC75E01546C5
:101E8000002700910098069AC1B2B0B200F088FC19
:101E900000987F1C401C00906800024679006A434D
:101EA00079435118091B081A401C002801DD6D1EDA
:101EB000761CAF42E6DB0098069AC1B2B0B200F0E1
:101EC0006FFC2846410078006D1E891E024669435A
:101ED0007A438918091B0818401C761C002803DC6B
:101EE0000098401C7F1C0090002DE4DC0098C1B2DB
:101EF000B0B2069A00F054FCF8BD00960D461646A6
:101F000000270098E9B280B2069A00F049FC700000
:101F10007F1C02467900724379435118091B081A45
:101F2000401C6D1E002803DD0098401C761E0090AA
:101F3000B742E6DB0098E9B280B2069A00F030FCC6
:101F400000993046491C009141007800761E891E98
:101F5000024671437A438918091B0818401C00285F
:101F600001DC6D1E7F1C002EE4DC0098E9B280B21B
:101F7000BFE77CB50446C0680D460E287DD3A06837
:101F80001E287AD3206904F098F8A168884274D892
:101F900025750C2661682068002D11D00122801D56
:101FA000891D00F02EF9206904F087F8A168081A4D
:101FB000218840084018002180B2009601916CE011
:101FC0000022801D891D00F01CF901250095206864
:101FD000616803230622801D891DFFF7C9FE009555
:101FE000A168206842186168801D0B46D21F00F06E
:101FF00094FA0095A16820680423401861680622BD
:10200000C01F891DFFF7B4FE0095E1686068A268F3
:10201000411820684B1E8218801D491ED21F00F0F7
:102020007CFA0095E1686068A26841182068012385
:1020300080180622C01FC91FFFF79AFE009561682D
:10204000E0680B182068891D0246DB1F00F065FA66
:102050000095E16860680223411820680622801D0F
:10206000C91FFFF785FE00956168E068A2680B183C
:1020700020688018421E401E00E018E0891DDB1F0A
:1020800000F04BFA206904F018F8A168081A2188BA
:102090004008401880B200960195E168A2880C398A
:1020A0004908511889B20C23226904F003FC7CBD55
:1020B00010B504F057F910BD38B51446C9B280B256
:1020C0006A4600F0AAFB6846017801206140884317
:1020D00038BD7CB50446C0680E287BD3A0681E2896
:1020E00078D3206903F0E9FFA168884272D80125FE
:1020F00000952068616803230622801D891DFFF773
:1021000037FE0095A168206842186168801D0B4663
:10211000D21F00F002FA0095A1682068042340183D
:1021200061680622C01F891DFFF722FE0095E16845
:102130006068A268411820684B1E8218801D491EE5
:10214000D21F00F0EAF90095E1686068A2684118C2
:102150002068012380180622C01FC91FFFF708FE50
:1021600000956168E0680B182068891D0246DB1F36
:1021700000F0D3F90095E1686068022341182068F7
:102180000622801DC91FFFF7F3FD00956168E06816
:10219000A2680B182068891D8018421E401EDB1F94
:1021A00000F0BBF9207D0C26002814D0206861685F
:1021B0000122801D891D00F024F8206903F07DFFB5
:1021C000A168081A218840084018002180B20096B2
:1021D00001910BE014E0206903F06FFFA168081A79
:1021E00021884008401880B200960195E168A288D5
:1021F0000C394908511889B20C23226904F05AFBA2
:102200007CBDF7B5D8B00C460546802874D2402C6A
:1022100072D2E1B2A8B250AA00F0FFFA50A8027838
:102220005A98D107C007C90FC00F814264D0214618
:102230002846559400F0CCFA0646569050A80278ED
:102240002146284600F0F1FA54908019400829945C
:102250000194289001240090254601E0002D7BD0B8
:10226000E90028A808188038816F5291C66F50A8DD
:102270006D1E0278EDB23146529800F0A9FA5390E3
:1022800050A802783146529800F0CFFA519050A8E9
:102290000278761C31465298FFF70EFF002804D0D2
:1022A00050A802783146529815E0539F08E050A894
:1022B000027831463846FFF7FFFE002803D17F1C25
:1022C00051988742F3D951988742C7D850A852975E
:1022D00002783146384600F0A8FA519050A80278AA
:1022E0003146529800F074FA5390142C1FD2471EB6
:1022F00058975990074617E07EE050A80278711E63
:102300003846FFF7D9FE002827D0599958988842B7
:1023100007D05891E00069460F504018641CE4B2A1
:102320004660142C03D27F1C51988742E5D95399FB
:1023300051985A9B4018400852905198F1B282B27D
:10234000539880B200F0D5F8142DA0D2539F59971E
:102350007F1E5897599F19E01FE05997E1E750A851
:102360000278711C3846FFF7A7FE002813D0599950
:102370005898884207D05891E80028A90F50401873
:102380006D1CEDB24660142D81D27F1C519887429E
:1023900000D97CE7E3E75997F5E7002C20D0E1006E
:1023A000684608188038816F5291C66F50A8641E25
:1023B0000278E4B23146529800F00AFA539050A8DD
:1023C00002783146529800F030FA074650A8027859
:1023D000761E31465298FFF76FFE00280ED020E09F
:1023E000002D00D03AE754985A9B82B25598C1B25A
:1023F000569880B200F07DF85BB0F0BD539809E0CC
:1024000050A8027831465198FFF756FE002804D1B3
:102410005198401C5190B842F2D95198B842BCD85A
:10242000529050A802783146529800F0FEF90746C3
:1024300050A802783146529800F0CAF95390142DF2
:1024400020D25990401E5890599818E050A8027810
:10245000711C5198FFF730FE002826D059995898E2
:10246000884208D05891E80028A9519A0A5040188B
:102470006D1CEDB24660142D04D25198401C519051
:10248000B842E3D95398BAB23818400852905398DA
:10249000F1B280B25A9B00F02CF8142C96D25398CB
:1024A0005990401E589059981BE051985990E2E776
:1024B00050A80278711E5198FFF7FEFD002815D034
:1024C00059995898884208D05891E0006946519A25
:1024D0000A504018641CE4B24660142CDED25198B5
:1024E000401C5190B84200D970E7E1E751985990EB
:1024F000F3E7F8B515461E460F460446A84202D932
:10250000D0B22546044632463946204600F048F906
:10251000641CA4B2A542F6D2F8BDFFB583B005464F
:1025200005980C46411B06980027021BFF43002913
:1025300002DD0120029002E0002904DA0297002A5D
:1025400009DD012711E0C2B2E1B2A8B20C9B00F094
:102550002CF907B0F0BD002A07DB0598E1B282B282
:10256000A8B20C9BFFF7C5FFF3E702984843394632
:102570005143420000924A00019288421CDB161A25
:102580000098101A00900EE0E1B2A8B20C9A00F088
:1025900007F902982D18002E02DA0198361802E089
:1025A00000988619E41905988542EDD1E1B2A8B2E8
:1025B0000C9A00F0F5F8CCE70098461A801A0190C2
:1025C0000EE0E1B2A8B20C9A00F0EAF8E419002E8D
:1025D00002DA0098361803E00198861902982D183F
:1025E00006988442EDD1E1E7FEB514460D46064655
:1025F000802805D8402D03D8022D01D3122E01D2F8
:102600000020FEBDE0680028FBD0A27830461023F1
:10261000A91E12380C27002A12D06268002A04D0A2
:10262000C9B2C0B2009303F0A4FF0020019000974C
:10263000A9B2B0B20C23E26804F03CF90120FEBD5F
:10264000A268002A05D00093C9B2C0B2102303F0DB
:1026500090FF0120EAE7000010B5002902D0012117
:10266000002401E0002101240448FFF782FC034814
:1026700021461830FFF77DFC10BD000060F3FF1FFE
:10268000FEB58168044614293CD3E068142839D388
:1026900025686A18802A35D861680B18402B31D814
:1026A00000272846521E5B1E009700F0F4F8012513
:1026B00000956168E068A2680B1820685B1E8218AC
:1026C000521E00F0CAF820882189304B4118491E5B
:1026D0008AB2217980B20E31C9B21B78FFF709FFA7
:1026E0000095A168206842186168521E0B460D33A0
:1026F00000F0D1F8206903F0F5FC0246A068811EC5
:102700008A4201D90020FEBD80B20C2601970096B6
:102710000290A0883346401C81B22088226980B292
:1027200004F020F91A480775A16901612168491D63
:102730000160E26861688918C268891A091F4160EE
:10274000FFF7C7FC124818300575E1690161A268FE
:10275000216889188268891A891F0160E2686168A6
:102760008918C268891A091F4160FFF7B2FC0096F8
:102770000195A0880C23113081B220886269801DE8
:1027800080B204F097F80120FEBD00005EF3FF1F49
:1027900060F3FF1F0148007D7047000060F3FF1FDA
:1027A00010B5C0B203F0F4FD10BDF8B515461E46D5
:1027B00007460C46A94201D90D4614463246214629
:1027C0003846FFF7EDFF641CE4B2A542F6D2F8BD2F
:1027D000F8B5D507441EED0F0E46002C0ED0F1B211
:1027E000A0B26A4600F019F868460078C007C00F2A
:1027F000A84201D0601CF8BD641EF0D1F1B20020E7
:102800006A4600F00AF868460078C007C00FA84280
:1028100001D00120F8BD0020F8BD10B51446C0B2AB
:1028200003F0D2FD2070002010BDF8B5441CD50780
:102830000E46ED0F0DE0F1B2A0B26A46FFF7EDFFD4
:1028400068460078C007C00FA84201D0601EF8BDDE
:10285000641C802CEFD38020F8BDF8B51C461546CB
:102860000E46074692B2C9B280B2069BFFF741FE00
:10287000AAB2E1B2B8B2069BFFF73BFEE2B2F1B2F8
:10288000B8B2069BFFF791FFE2B2F1B2A8B2069B85
:10289000FFF78BFFF8BDF8B517461E460C460546F8
:1028A000B84201D915460746B44201D91C460E4626
:1028B000B44206D1BAB2E1B2A8B2069BFFF719FE44
:1028C000F8BDBD420DD1F2B2E1B2A8B2069BFFF74E
:1028D0006CFFF8BDBAB2E1B2A8B2069BFFF709FEE1
:1028E000641CB442F6D9F8BD10B503F081FD10BDEB
:1028F000F8B5040052D0A2680A2A4FD3E068142821
:102900004CD30125009561680B1820685B1E821866
:10291000521EFFF7A2FF082600962089217808386A
:10292000400808182179C0B2491CC9B233461C4A74
:1029300003F01FFE00962079217B22784018093889
:10294000C1B220890823083840081018144AC0B2C0
:10295000083203F00EFE0095A168206842186168F5
:10296000521E09310B46FFF7D8FD0095E1686068FB
:10297000A268411820680A3982180B46521EFFF7D8
:10298000CCFDE0686269216914388A4202D2504362
:10299000FDF73EFCE061204600F004F8F8BD0000C1
:1029A000C6930000FEB504468189808B091A14394C
:1029B0008EB22188491C8AB20192A188721E0A3106
:1029C0008DB28018218900220092C91E019A89B215
:1029D00080B257182B183A4629460198FFF75BFF3B
:1029E00021696069814201D8002005E0A069491E83
:1029F0007043FDF70DFC80B2012100912918E269B6
:102A0000019853183A46FFF746FFFEBDFEB58168B0
:102A1000044614293BD3E368142B38D320684218AA
:102A2000802A34D86168CB18402B30D80025521E3C
:102A30005B1E0095FFF72FFF012600966168E06896
:102A4000A2680B1820685B1E8218521EFFF705FF54
:102A500020882189174B4118491E8AB2217980B2FA
:102A60000E31C9B21B78FFF744FD0096A1682068BB
:102A700042186168521E0B460D33FFF70CFFA06928
:102A800003F037FB0246A068811E8A4201D900206C
:102A9000FEBD80B20C21019500910290A0880C230C
:102AA000401C81B22088A26980B203F05BFF012044
:102AB000FEBD00005EF3FF1F10B5242002F036FFBC
:102AC000012801D0012010BD002010BD10B51C2030
:102AD00002F02CFF012801D0012010BD002010BD04
:102AE00010B51B2002F022FF012801D0012010BDEB
:102AF000002010BDF8B50F4D0024A8680E4E000749
:102B000012D50E4F387884420ED2E96820460C2246
:102B100050433258114204D080198068002800D0F8
:102B20008047641CE4B2EDE7A86824210843A8604C
:102B3000F8BD000000900740D4F6FF1FAAF0FF1F69
:102B4000F8B50F4D0024A8680E4E000712D50E4FA1
:102B5000387884420ED2E96820460C22504332581D
:102B6000114204D080198068002800D08047641C7E
:102B7000E4B2EDE7A86824210843A860F8BD00008E
:102B800000A00740D4F6FF1FAAF0FF1F10B52C20AD
:102B900002F0CCFE10BD10B501212D2002F0E2FEA6
:102BA00010BD10B500212D2002F0DCFE10BD10B5C7
:102BB00001212C2002F0D6FE10BD10B500212C20E2
:102BC00002F0D0FE10BD08B500206A46D0705070EB
:102BD0002C2111709070684602F0E4FD08BD08B524
:102BE00000206A46D070012151702C211170907024
:102BF000684602F0D7FD08BDF0B50021124D134F15
:102C0000134B0A4605261C204843401946708C0089
:102C10008270476082601C5902614261491CC9B2DE
:102C2000C46082610529EED30120A870094828619B
:102C30000948E86204480A498C30686307486866B6
:102C4000014880300160F0BD48030020D6930000A9
:102C5000D0F3FF1F4961000019610000A567000063
:102C600001610000F8B5674E7068FFF735F86649F6
:102C700000270878002800D0F760624C58340128FB
:102C800002D0072855D159E03E2375221221012098
:102C90000097FFF700FEB0691C2148437168401897
:102CA00030618770B069401CB06172685178491E0C
:102CB000814200DCB161B0691C21484380180121C8
:102CC0003061817072681078401C43B213702046E6
:102CD00051782469A14205D80D468B420EDB491E6E
:102CE00011700BE0E5B2641EA34207D914700269AB
:102CF000891A4269914201D9521C4261002410E0B4
:102D000040481C21583040694843716841181C20D4
:102D100060430A182001011B1E201331FFF764FCD9
:102D2000641CAC42ECDB3748B16974308161FFF759
:102D300039FE35480078042849D04DE03E237522FD
:102D4000122101200097FFF7A6FDB1691C22514313
:102D50007268881830618770B069401EB0610028C1
:102D600000DCB761B0691C2148437168401801213B
:102D70003061817071680878401E42B20A704D78E7
:102D8000236920469D4203D8002A0ADA0F7008E022
:102D9000DDB2002A05DA0F704169002901D0491E11
:102DA0006161002410E017481C21583040694843F5
:102DB000716841181C2060430A182001011B1E2065
:102DC0001331FFF711FC641CAC42ECDBABE730695C
:102DD0000069002800D08047F068411CF160642839
:102DE0000FDDF76030694169002908D0877070698C
:102DF0001C2148437168401801213061817002F044
:102E0000D9FEF8BD98F3FF1F4DF4FF1F8307FF2283
:102E1000DB0E9A408907090E994000280BDA00075B
:102E2000000F0838830808489B001818C3699343AB
:102E30000B43C3617047830804489B00181803685C
:102E400093430B430360704700ED00E000E400E0B3
:102E50008307FF22DB0E9A408907090E994000285C
:102E60000BDA0007000F0838830808489B00181881
:102E7000C36993430B43C3617047830804489B00B5
:102E80001818036893430B430360704700ED00E09C
:102E900000E400E0F0B50021134B144C144E0A4638
:102EA00005251C204843C01882610261446082608D
:102EB0008F00827045704261491CF759C9B2C760E2
:102EC0000529EED3012098700A4818610A48D86293
:102ED0000A4898640A480449586603488C39803087
:102EE000816008490160F0BD60040020D6930000B5
:102EF000B4F3FF1FA56100008D6100007561000043
:102F00005D6100001961000010B5074CE068C00762
:102F100004D006480068002800D08047E0680121FE
:102F20000843E06010BD00000071034088F0FF1FFF
:102F300010B5074CE069C00704D006484068002877
:102F400000D08047E06901210843E06110BD000026
:102F50000071034088F0FF1FF0B50021114C124BA7
:102F6000124E0A4603251C20484300194570826111
:102F7000026143608F00826082704261491CF75990
:102F8000C9B2C7600329EED301200649A0708C3175
:102F9000A161074820610749E16202498C39216536
:102FA000A064F0BDD4030020D6930000E4F3FF1F1B
:102FB00019610000BD61000010B5074C6078002861
:102FC00008D0201DFFF722FD20462030FFF790FC9F
:102FD0000020607010BD0000C4F4FF1FFEB5FFF7B5
:102FE000EBFFFF4DFD4900202E46EF1D0856C03671
:102FF0000C210124F9378035002806D001286FD034
:1030000002286ED003286DD0E0E20C200090062349
:10301000F4A20F21032003F003FB0C2106200191F1
:1030200000906A8903230F211B2003F065FA0C200E
:1030300000900623EDA20F21412003F0F1FA0C21AC
:10304000062001910090EA8B03230F215F2003F0FB
:1030500053FA0C2000900623E6A21B21032003F064
:10306000DFFA0C210620019100901B216A8E0323B8
:10307000084603F041FA0C2000900623DFA21B2132
:10308000412003F0CDFA0C21062001910090F28836
:1030900003231B215F2003F02FFA0C20009006234E
:1030A000D8A22721032003F0BBFAFF21F869C90544
:1030B000C84218D30C2506232D2227211B2000955A
:1030C000019403F0B9F9F86969074840FDF79AFFE0
:1030D00002B20620032327210090019521200CE055
:1030E00075E0C3E13DE2FDF78DFF02B20C21062041
:1030F00001910090042327211B2003F0FDF90C25EA
:103100000623C2A227214120009503F089FAFF215E
:10311000386AC905C84214D306232D2227215A2014
:103120000095019403F088F9386A69074840FDF773
:1031300069FF02B206200323272100900195602039
:1031400008E0FDF75FFF02B206200090042327216C
:1031500001955A2003F0D0F90623AEA233210320B3
:10316000009503F05DFA062000901A220195B25EE8
:10317000032333211B2003F0BFF90623A6A233212A
:103180004120009503F04CFA796AFF20C005C14246
:10319000009501940AD306232D2233215A2003F0EF
:1031A0004BF90121786AC907484006E0062320222E
:1031B00033215A2003F040F9786AFDF723FF02B269
:1031C000062003233321009001956020FCE10C20B0
:1031D0000090062391A20F21032003F021FA286F0B
:1031E00000280FDA0C20009006232D220F210194D5
:1031F000152003F021F90C21062001910090286F81
:1032000042420DE00C200090062320220F21019461
:10321000152003F011F90C210620019100902A6F6E
:1032200004230F211B2003F067F90C2000900623D4
:103230007BA20F213D2003F0F3F9686F00280FDA1D
:103240000C20009006232D220F2101944F2003F023
:10325000F3F80C21062001910090686F42420DE0C6
:103260000C200090062320220F2101944F2003F010
:10327000E3F80C210620019100906A6F04230F21CE
:10328000552003F039F90C25062366A221210320DD
:10329000009503F0C5F92C20305E009500280194BC
:1032A0000FDA06232D223221152003F0C5F806205F
:1032B000009001952C20305E0423424232212520CB
:1032C0000DE0062320223221152003F0B5F8062058
:1032D00000902C220195B25E042321211B2003F0D3
:1032E0000BF9062350A221213D20009503F098F907
:1032F0002E20305E0095002801940EDA06232D2240
:1033000032214F2003F098F80620009001952E20DE
:10331000305E0423424232210CE006232022212188
:103320004F2003F089F806202E2201950090B25E0E
:1033300004232121552003F0DFF8B86A0090FDF73F
:1033400061FE06460A214843FDF7BEFE009903F0E0
:1033500033FC364903F0ACFBFDF754FE0290062324
:1033600033A233210095032003F05AF9FF20B96AF4
:10337000C005C14221D302987642474206232D223E
:10338000332127200095019403F056F80620009081
:1033900002233246332101952D2003F0ADF8062398
:1033A0002E22332139200095019403F045F80620A0
:1033B00002233A46019500904CE006232022332157
:1033C00027200095019403F037F8062702233321C4
:1033D00032462D20009701952EE00000C4F4FF1F17
:1033E00004F5FF1F48464C3A000000004846523A98
:1033F0000000000048424C3A000000004842523AA7
:10340000000000004841453A000000005641453A9E
:1034100000000000484D3A0041453A004C453A0052
:1034200052453A004C503A0052503A000000C8420F
:1034300053706565643A000003F05EF806232E229F
:10344000332139200095019402F0F6FF029A0223FD
:103450000097019533213F2003F04EF8062378A210
:1034600033214E20009503F0DBF8AFE00E460091CB
:10347000062374A20F21032003F0D2F87348744985
:10348000006803F015FBFDF7E3FD024606200090FF
:1034900004230F2101961B2003F02EF806236DA2B2
:1034A0000F213720009603F0BBF868486849406850
:1034B00003F0FEFAFDF7CCFD02460620009004233F
:1034C0000F210196552003F017F8062363A221214E
:1034D0000320009603F0A4F85C48C06FFDF7B8FD28
:1034E0000246062000900423212101961B2003F0B0
:1034F00003F806235BA221213720009603F090F801
:103500006868FDF7A5FD02460620009004232121EE
:103510000196552002F0F0FF062354A23221032029
:10352000009603F07DF8386BFDF792FD0246062009
:1035300000900323322101961B2002F0DDFF0623B9
:103540004BA232213720009603F06AF8786BFDF722
:103550007FFD02460620032332210090019655206C
:1035600032E00E46009114210623424A084603F039
:1035700057F8796AFF20C005C142009601940AD32A
:1035800006232D221421262002F056FF0121786AFD
:10359000C907484006E0062320221421262002F015
:1035A0004BFF786AFDF754FD024606200090022387
:1035B000142101962C2002F09FFF18200190009604
:1035C0001E213A7E0123084602F096FF2A482B4925
:1035D0000078072809D001281FD0042804D1081F2B
:1035E0004470002003F0CEF8FEBD244A121F10786C
:1035F000401E40B210705470002801DA032016E01B
:1036000000201056002816D0012812D0022814D00D
:103610000328E9D11AA08861FEBD184A121F10784C
:10362000401C40B2107054700328E9DD0020107077
:10363000E6E716A0EFE71AA0EDE71EA0EBE7000013
:10364000522F5300534B503A0000000004F5FF1F67
:1036500000002041534B493A00000000444B503ACF
:1036600000000000444B443A000000004C543A0073
:1036700052543A00183400004DF4FF1FC8F4FF1FE5
:10368000526F616420446574656374004D6F746F9C
:103690007220506172616D65746572730000000084
:1036A00053656E736F7220506172616D65746572DF
:1036B0007300000050494420506172616D6574656B
:1036C00072730000F0B50346084649008C465C5A08
:1036D00015E0521E904203DA5100595AA142F8D225
:1036E0005100904204DA5D5AA54201D8401CF8E727
:1036F000904204DA46009D5B5F5A9F535D529042B0
:10370000E8DB41005D5A62469D525C52F0BD00000C
:103710007CB5354C354D6088002815D1374934A02B
:103720008861686860610846FFF770F920462C30B0
:10373000FEF7CFFC20464430FEF7CBFC20465C3041
:10374000FEF7C7FC012060802D483F260078360632
:10375000012825D007282DD0042836D02248012161
:103760002C30FEF706FC204801214430FEF701FC16
:1037700018250C2323A210211420009502F050FFDD
:103780002149606903F094F9FDF762FC02460C20C0
:1037900000900423102101953A2002F0ADFE7CBD7B
:1037A000114800212C30FEF7E4FB3146606903F03C
:1037B0000FFA08E00C4800214430FEF7DAFB3146EE
:1037C000606903F005F96061D2E76069686002F042
:1037D000B5FF0020608001F0EFFD022002F0D2FF73
:1037E000FDF7B6FDC4E7000050F4FF1F04F5FF1F0E
:1037F0005370656564204B6900000000F0F3FF1F03
:103800004DF4FF1F4B693A00000020417CB5354C58
:10381000354D2088002815D1374934A088612868A3
:1038200020610846FFF7F2F820462C30FEF751FCE5
:1038300020464430FEF74DFC20465C30FEF749FC44
:10384000012020802D483F2600783606012825D00B
:1038500007282DD0042836D0224801212C30FEF72D
:1038600088FB204801214430FEF783FB18250C23F8
:1038700023A210211420009502F0D2FE21492069D4
:1038800003F016F9FDF7E4FB02460C200090042338
:10389000102101953A2002F02FFE7CBD1148002135
:1038A0002C30FEF766FB3146206903F091F908E001
:1038B0000C4800214430FEF75CFB3146206903F0E0
:1038C00087F82061D2E72069286002F037FF0020E6
:1038D000208001F071FD022002F054FFFDF738FD59
:1038E000C4E7000050F4FF1F04F5FF1F5370656527
:1038F00064204B7000000000F0F3FF1F4DF4FF1F29
:103900004B703A000000204110B500F001F810BDE6
:1039100070B51E4A00245068002805D05068401E2B
:10392000506001D1012010709068401C9060916837
:1039300017480025814200D1956016499068FCF730
:1039400071FC1548002902D18188491C8180818839
:103950003B2903D985804188491C418041883B2906
:1039600003D945800188491C01800188172900D9A5
:103970000580094D883D14206043401901F070FB1B
:10398000641CE4B2062CF6D370BD0000B0F0FF1F3B
:10399000FFFFFF7FDE0300003CFCFF1F10480F49C4
:1039A0008180012141702321017011200D49000502
:1039B00048620D48002141700C4A962111701A216D
:1039C00001700179C906FCD401790907890FFBD17F
:1039D00007490868400848608860704703E80000AD
:1039E0000020054000800440004006400050064092
:1039F0007CF0FF1F70B5284C6078002805D10120AD
:103A0000607020469430FEF73BFE244D287807284E
:103A100010D1214800219430FEF71EFE1E480021DF
:103A20009430FEF719FEFEF75FFF1B2001F07EFFCA
:103A30000028FAD02878012810D1174801219430A5
:103A4000FEF70AFE144801219430FEF705FEFEF74A
:103A50004BFF242001F06AFF0028FAD028780428C0
:103A600011D1002060701C2001F060FF0028FAD006
:103A700009489430FEF78EFE012805D001F09CFC29
:103A8000022002F07FFE70BD01F096FC022002F0E1
:103A900079FEFDF7E5FD70BD98F3FF1F4DF4FF1FA4
:103AA00010B503480079034801F020FB10BD000069
:103AB00000A006408CF9FF1F7047704730B4744671
:103AC000641E2578641CAB4200D21D46635D5B001A
:103AD000E31830BC18470020704710B500F0DCF840
:103AE00001F028FC01F0E0FB01F08AFB10BD0000B2
:103AF0000E4930B50B46203BDC781A79002059344A
:103B0000A4184C7106E01D186D79E4B26419401CCC
:103B10004C71C0B28242F6D80448E1B21B38105C46
:103B2000814201D1012030BD002030BD4003002082
:103B300070B588B00E460446154620216846FCF74D
:103B400065FB1B2D02D9002008B070BDAA20694674
:103B5000087048708E70CD7000216846431908E0E7
:103B6000625C461832711A79465C9219491C1A71C6
:103B7000C9B2A942F4D32C462A1D05E01979065D85
:103B80008919641C1971E4B29442F7D301466A1D85
:103B9000012001F00CFBD6E770B586B01421684611
:103BA000FCF734FB224C234EE06F314602F080FFDD
:103BB000FDF728FA01126A461170254650708035CB
:103BC0003146286802F074FFFDF71CFA01126A46BC
:103BD0009170D0706868FDF715FA01126A4611718C
:103BE000154D50712946206802F062FFFDF70AFA70
:103BF00001126A469171D0712946606802F058FF3F
:103C0000FDF700FA01126A46117250722946A06847
:103C100002F04EFFFDF7F6F901126A469172D0727A
:103C2000122210216846FFF783FF06B070BD000026
:103C300004F5FF1F000020410000C84210B5144ADF
:103C400000231178002912D0012914D0114B022928
:103C500017D0032918D04C1C14701C79641DA14284
:103C600004D251785B185871491C517010BDAA28B4
:103C7000FCD101200AE0AF2801D0137010BD022052
:103C800004E0D870032001E018710420107010BD0A
:103C90005CF3FF1F2003002010B5FFF729FF002869
:103CA00017D00C4CE078002813D005280CDA03005C
:103CB000FFF704FF030A0A030A006079212803DAE8
:103CC000012801D1FFF768FF00200349E070087068
:103CD000487010BD200300205CF3FF1F10B501F0F9
:103CE00069FC01F08BF962B601F0D0F900F0C4FD77
:103CF00000F07CFA00F0B5F901F0A8F800F0DCFA69
:103D000000F092F800F0AAFF00F004F800F03AFB8F
:103D100010BD000038B508206946087001204870C1
:103D200000248C70684601F03DFD0121082001F05F
:103D300019FE092069460870684601F033FD01212B
:103D4000092001F00FFE0148047338BDA0020020D5
:103D500010B501221146052000F014F810BD000036
:103D600010B50748002101708188002902D0C08861
:103D7000002803D10121092001F0F4FD10BD00004D
:103D8000A002002010B5002810D0094B1C7B012C8C
:103D90000CD058809980DA800020588118815870A2
:103DA000012018700021092001F0DCFD10BD000089
:103DB000A002002070B51B4C207800281DD0A288DE
:103DC000002A1AD0207B012817D02046008961786C
:103DD000401C002580B2002910D001290DD120817E
:103DE00090420AD3E088002814D06189491C89B226
:103DF000618181420ED32570A58070BD20816188CC
:103E00008842FAD30121092001F0ACFD258101206F
:103E1000607070BD258165700021092001F0A2FD50
:103E200070BD0000A002002038B52348416920225F
:103E300011434161C168032212069143C160C16808
:103E4000012212061143C1601C490A6892089200BF
:103E50000A600A6818231A430A6000224A6041690E
:103E6000402421434161C168DC05A143C160C168B0
:103E70000124E4062143C160114801680160016822
:103E80001943016042606946CA704A700A2008708E
:103E900001208870684601F085FC2620694608707C
:103EA000684601F07FFC01210A2001F001FD01219B
:103EB000262001F0FDFC38BD008004400080034056
:103EC00000900340054A51680548416705494B6821
:103ED0000367002050604860704700000080034086
:103EE00084F5FF1F00900340F8B5089C0D461E4660
:103EF000079FA047A847B047052001F03FF8B84703
:103F0000052001F03BF8A047F8BDF8B5089C0D4628
:103F10001646079FA047A847B047052001F02EF896
:103F2000B847052001F02AF8A047F8BD0FB4FEB548
:103F3000002508982C460D9F0C9E80470E988047C0
:103F4000052001F01BF8B8476006040EB0470128B1
:103F500001D1641CE4B2032001F010F86D1CEDB235
:103F6000082DEBD30F9808AD00280E980197009606
:103F700002900FCD06D0FFF7B7FF2046FEBC08BC6D
:103F800004B01847FFF7C1FFF7E70FB4F8B51746BD
:103F900000240C9E0D9D8847B047E80901D0B84722
:103FA00001E0099880476806050E052000F0E6FF4D
:103FB0000B988047052000F0E1FFB047022000F099
:103FC000DDFF641CE4B2082CE7D3F8BC08BC04B0E5
:103FD0001847F8B514461D46089F079E8847A04716
:103FE000B047042000F0CAFFA847042000F0C6FF35
:103FF000B847F8BDF8B514461D46089F079E884788
:10400000B847A847042000F0B9FFB047A0470420F4
:1040100000F0B4FFF8BD0FB4FEB50CACE0CC0898CE
:10402000002480470A988047012000F0A7FFB0478E
:10403000012000F0A3FF0EE0641CE4B2FA2C0AD9C0
:104040006846E0C008AC0FCCFFF7D4FF0120FEBCEF
:1040500008BC04B01847A8470028EDD1B847002095
:10406000F5E710B500F084F800F05CF810BD000032
:10407000F8B506462A4900014418206880477200B6
:104080000521B51800270028207935D0052801D250
:104090002171F8BD0A2802D2401C2071F8BD7100C0
:1040A000A07A7618761C002806D10120A072F0B202
:1040B00000F084F8FFF74CFE21890029EED0E0885B
:1040C000884208D2401C80B2E08021898842E5D134
:1040D000ED1CE8B20BE0E07A0028DFD0207B401C2A
:1040E000C0B22073E17A8842D8D32773F0B200F0CF
:1040F00065F8FFF72DFEF8BD052801D921710CE008
:10410000002802D0401E207107E0A07A012804D1C7
:10411000AD1CA772E8B200F051F82773E780F8BD34
:1041200054FCFF1F70B50E480021034681723224F3
:104130000C3302250A46C1720A260801C018048100
:1041400005718272491C0273C9B2C6720329F4D385
:1041500004481860044818610448186270BD0000E3
:1041600048FCFF1FE12A0000CD2A0000B92A000008
:1041700008B51B200090684601F014FB1C2069461E
:104180000870684601F00EFB2420694608706846F6
:1041900001F008FB08BD0000074A917AD07A8142FD
:1041A00001D100207047505C491CC9B291720A29A4
:1041B000F8D300219172704748FCFF1F0549CA7A65
:1041C0008854C87A401CC0B2C8720A2801D30020A3
:1041D000C872704748FCFF1F10B500242046FFF747
:1041E00047FF641CE4B2032CF8D310BD08B51820B7
:1041F000694608700120887048700020C8706846C1
:1042000001F0D0FA192069460870684601F0CAFA30
:10421000002000F001F808BD10B5002805D00128E5
:1042200006D0022808D1002104E00021084601E060
:104230000021012000F02DF810BD10B5002807D096
:10424000012808D0022802D1012100F022F810BD77
:1042500001210020F9E701210846F6E710B5002802
:1042600003D0012801D0022801D100F001F810BDCF
:1042700010B5002804D0012807D0022808D102E098
:10428000182001F061FB192000E0182001F05CFB10
:1042900010BD10B50C46002804D001280AD0022811
:1042A00007D103E0182001F05DFB2146192001F041
:1042B00059FB10BD1820FAE73EB500246946CC72C0
:1042C00001204872252008728C7202A801F06AFA57
:1042D0000021252001F046FB0E48694608800D208C
:1042E0000871CC80684601F0C1F90A48694642303D
:1042F0000880684601F0BAF90748694608806846B0
:1043000001F0B4F903486946E8300880684601F0D6
:10431000ADF93EBD30A40000F6A8000070B50C4613
:1043200005460021252001F01DFB1448144E002DE8
:1043300004DBA9B201F01CFA002104E0002101F025
:1043400017FA684281B2304601F012FA0C480C4D5F
:10435000E838A63D002C04DBA1B201F009FA0021E7
:1043600004E0002101F004FA604281B2284601F025
:10437000FFF90121252001F0F5FA70BDF6A8000033
:1043800018A5000010B500F091F800F0C6F9032060
:1043900000F0D4F9002000F0C6F9642000F0F3F931
:1043A00000216A2000F006FA0021232000F002FA22
:1043B0008021372000F0FEF90021382000F0FAF9C2
:1043C000752000F027F9682801D0012010BD0121D7
:1043D0006B2000F0EFF900216C2000F0EBF9642075
:1043E00000F0D1F9064801F0FFFB0548A83801F0BC
:1043F000FBFB0348A83001F0F7FB002010BD0000D4
:1044000050010020F8B5254A911E881E00F06CF975
:10441000224C08200A3C205E401CFCF755FE064654
:104420000A20205E1D30FCF74FFE47273F06054659
:10443000BE4205DD8F21C905304602F0C9FB0646A4
:10444000BD4205DD8F21C905284602F0C1FB0546A6
:104450003046FCF7FDFC124F124B3A46FCF784F94C
:10446000FBF786FF06462846FCF7F2FC3A460D4B62
:10447000FCF77AF9FBF77CFF0B4D294602F018FB9D
:10448000616902F0A5FA60612946304602F010FB2E
:10449000E16802F09DFAE060F8BD00000EF6FF1F33
:1044A00066666666666630400AD7A33B08B500209C
:1044B0006A46D070012151702C21117090706846AD
:1044C00001F070F92D206A461070684601F06AF913
:1044D00008480749416108498161084981600849E4
:1044E000C16008490160084941600849016108BD8F
:1044F000972B000088000020A32B0000AF2B0000AA
:10450000BB2B0000C72B0000DF2B00008D2B000011
:10451000F0B53F4C154620460F46103007C885B011
:104520001E466B4607C30FCC103CFFF752FDD02050
:104530001034039007CC6B4607C31C3C0FCC103CD7
:10454000FFF723FD103407CC6B4607C31C3C0FCC90
:10455000103CFFF760FD00280AD02046103007C845
:104560006B4607C30FCCFFF745FD012005B0F0BD3A
:1045700020461030039707C86B4607C30FCC103C8A
:10458000FFF703FD103407CC6B4607C31C3C0FCC70
:10459000103CFFF740FD103407CC6B4607C31C3CB2
:1045A0000FCC103CFFF715FDD1201034039007CC41
:1045B0006B4607C31C3C0FCC103CFFF7E6FC1034E5
:1045C00007CC6B4607C31C3C0FCC103CFFF723FD08
:1045D00010E0012D1AD0012003902046103007C8AA
:1045E0006B4607C30FCC103CFFF7A0FC6D1E30706C
:1045F000EDB2761C002DECD12046103007C86B467A
:1046000007C30FCCFFF7F6FC0020AFE70020E3E77D
:10461000880000207FB5334C05462046103007C87F
:104620006B4607C30FCC103CFFF7D3FCD0201034EF
:10463000039007CC6B4607C31C3C0FCC103CFFF724
:10464000A4FC103407CC6B4607C31C3C0FCC103CB9
:10465000FFF7E1FC1034039507CC6B4607C31C3C05
:104660000FCC103CFFF791FC103407CC6B4607C30E
:104670001C3C0FCC103CFFF7CEFC103407CC6B4633
:1046800007C31C3C0FCC103CFFF7A3FCD120103417
:10469000039007CC6B4607C31C3C0FCC103CFFF7C4
:1046A00074FC103407CC6B4607C31C3C0FCC103C89
:1046B000FFF7B1FC00201034039007CC6B4607C312
:1046C0001C3C0FCC103CFFF731FC0546103407CCE6
:1046D0006B4607C31C3C0FCCFFF78CFC284604B08C
:1046E00070BD0000880000207CB514460D460646CB
:1046F0006B46062243216820FFF70AFF00280BD1F2
:104700006946098849BA31806946498849BA298089
:104710006946898849BA21807CBD10B580216B200B
:1047200000F048F810BD10B5032801D9012010BDD4
:10473000C006010E1C2000F03DF810BD10B5032886
:1047400001D9012010BDC006010E1B2000F032F877
:1047500010BD10B5BC2801D3012110E0622801D39F
:1047600002210CE02A2801D3032108E0142801D3F8
:10477000042104E00A2801D3052100E006211A20C3
:1047800000F018F810BD10B504467D20C00084422A
:1047900001D9044602E0042C00D204242146FBF790
:1047A00037FD401EC1B2192000F004F86008FFF781
:1047B000D0FF10BD7FB52F4C064620460D46103069
:1047C00007C86B4607C30FCC103CFFF702FCD02094
:1047D0001034039007CC6B4607C31C3C0FCC103C35
:1047E000FFF7D3FB103407CC6B4607C31C3C0FCC40
:1047F000103CFFF710FC002827D12046103003960C
:1048000007C86B4607C30FCC103CFFF7BEFB103444
:1048100007CC6B4607C31C3C0FCC103CFFF7FBFBDF
:104820001034039507CC6B4607C31C3C0FCC103CDF
:10483000FFF7ABFB103407CC6B4607C31C3C0FCC17
:10484000103CFFF7E8FB00280AD02046103007C8CC
:104850006B4607C30FCCFFF7CDFB012004B070BD42
:104860002046103007C86B4607C30FCCFFF7C2FBCA
:104870000020F3E78800002010B500F07DF801214A
:10488000432001F06FF8642000F068FB0021432012
:1048900001F068F8642000F061FB0121432001F081
:1048A00061F80021AE2001F0E9FE0021D52001F0E1
:1048B000E5FE0021502001F0E1FE0021A82001F0DA
:1048C000DDFE00213F2001F0D9FE0021D32001F0C0
:1048D000D5FE0021084601F0D1FE0021402001F064
:1048E000CDFE00218D2001F0C9FE0021142001F031
:1048F000C5FE0021202001F0C1FE0021084601F084
:10490000BDFE0021A02001F0B9FE0021CF2001F062
:10491000B5FE0021DA2001F0B1FE0021122001F0E5
:10492000ADFE0021812001F0A9FE0021EF2001F061
:10493000A5FE0021D92001F0A1FE0021F12001F007
:104940009DFE0021DB2001F099FE0021302001F0C6
:1049500095FE0021A42001F091FE0021A62001F087
:104960008DFE0021AF2001F089FE01F0FBFC00214B
:10497000084600F026F810BD08B500206A46D07041
:1049800001215170232111709070684600F00AFFD8
:1049900042206A461070684600F004FF17206A46FD
:1049A0001070684600F0FEFE43206A4610706846AC
:1049B00000F0F8FE16206A461070684600F0F2FE1D
:1049C00008BD10B50446B031C8B2002101F056FE52
:1049D00020090021103001F051FE2007000F0121B5
:1049E0000843002101F04AFE10BD0000F0B58FB071
:1049F00000200C900D90282102A8FBF707FC0C2446
:104A00000021062386A20846009401F009FE012039
:104A100001900623252200210094642001F00CFD62
:104A200001F0E6FC00208200014602A881500C98AB
:104A3000401C80B20C900A28F7D37D4B00201D4605
:104A4000C0351C46803414214143C91800228031EE
:104A5000401C8A8180B2CA810528F4D397E00026E1
:104A60003300FFF72BF805041322334250000120D6
:104A70000021400200F0E4FC217A4A006C49511800
:104A800080318882207A401C20723CE00120002185
:104A9000C00300F0D5FC217F4A00654951188031E0
:104AA0000885207F401C20772DE001200021800216
:104AB00000F0C6FC5E49A0310A7C53005C4A9A189B
:104AC00080329087087C401C08741CE00120002183
:104AD000800300F0B5FC29794A0055495118C031CE
:104AE00008822879401C28710DE001200021C002B5
:104AF00000F0A6FC297E4A004D495118C031888437
:104B0000287E401C287614203146414348480B1823
:104B10001F468037387A042801D30020387218469F
:104B200003220021943001F040FFB989788B814243
:104B300000D2B881F989B88A814200D9F881761CFF
:104B4000B6B2052E8CD30D980A21401C80B20D9070
:104B5000FBF75EFB002904D10020FFF77FFB01F08B
:104B600047FC0C981E21401CFBF752FB02460C210F
:104B700006200191009003230021542001F0BCFC89
:104B8000052000F0EBF90C98401C80B20C902948ED
:104B90000C99814200D262E79620A0860021E1862E
:104BA0002881234C6981084602AB1421414309192D
:104BB000C20080318D899D50D218401CC98980B2B5
:104BC00051600528F1D30C2406231BA221460020A6
:104BD000009401F025FD06231BA21821002000945B
:104BE00001F01EFD01F004FC7D25ED00284600F0DB
:104BF000B5F9FD2000F0CAFC0023282202A9FD20FF
:104C000000F00AFD062313A224210020009401F0E5
:104C100007FD01F0EDFB284600F0A0F90FB0F0BD54
:104C200043616C6962726174696F6E2E2E2E000092
:104C300004F5FF1FB80B000043616C696272617478
:104C4000696F6E204F4B2100536176696E672E2E7F
:104C50002E00000053617665642121000EB50948DD
:104C6000009000206A4690710121117191721072BA
:104C7000507160235372D172D071684600F0FAFB14
:104C80000EBD000002CF0000FEB56A4D00262C4686
:104C9000403C3300FEF712FF05041424364655004D
:104CA00001200021400200F0CBFB217A4A0061493B
:104CB000C039511880318882207A401C207240E02F
:104CC00001200021C00300F0BBFB217F4A005949AD
:104CD000C039511880310885207F401C207730E092
:104CE00001200021800200F0ABFB524920390A7CF0
:104CF00053000A46A03A9A1880329087087C401CDC
:104D000008741EE001200021800300F099FB29793E
:104D10004A004849C0395118C03108822879401CDE
:104D200028710EE001200021C00200F089FB297EDD
:104D30004A004049C0395118C0318884287E401C3F
:104D400028761420314641433A48C03808180746AF
:104D50008037397A042901D30021397201468A311A
:104D60000422943000F08EFF608E052801D20520C9
:104D70006086E888052801D20520E880B989F8898D
:104D80000090081AFCF7A0F9019079890098081A98
:104D9000FCF79AF90199FCF785F8761CF6B23861B0
:104DA000052E00D275E72769666A3946304601F05C
:104DB0000FFE00903946304601F00AFF0099FCF7DB
:104DC00071F81D4901F074FE1A4E4036F061A76B70
:104DD000E46C3946204601F0FBFD00903946204640
:104DE00001F0F6FE0099FCF75DF8134901F060FE52
:104DF00012493062884204DA1149884201D2002007
:104E000030621A20285E502801DA00203062FCF758
:104E10005BF9316A01F04CFE0749FCF743F8094998
:104E20007062884204D20849884201DA0020706228
:104E3000FEBD0000C4F5FF1F0000C8420000F041A5
:104E40000000F0C10000A0C10000A04108B5002092
:104E50006946C8704870282008700120887068462C
:104E600000F0A0FC0121282000F022FD01212820D3
:104E700000F078FD292069460870684600F092FC31
:104E80000121292000F014FD0121292000F06AFDF4
:104E9000342069460870684600F084FC0121342003
:104EA00000F006FD0121342000F05CFD372069464A
:104EB0000870684600F076FC0121372000F0F8FC0D
:104EC0000121372000F04EFD08BD0000F0B585B08F
:104ED0001546022803D90020C04305B0F0BD104E8E
:104EE000C400325D012A17D06A461070012757703E
:104EF0000320107268460395019100F049FD375573
:104F0000A019456001211620FDF7A2FF03211720FB
:104F1000FDF79EFF0020E0E70120C043DDE7000031
:104F20002CFCFF1F70B5062802D90020C04370BDBD
:104F30001424094D60434419267B012E09D0616079
:104F4000002666702B5401202073A1603046226138
:104F500070BD0120C04370BDB4FBFF1F002809D005
:104F6000012800D102200449486000200870087818
:104F70000128FCD170470000B0F0FF1FF8B50D4EBE
:104F80000746756900240D480B490068FBF740F996
:104F90007843B1690246B0698842FCD0884201D2A8
:104FA000091A01E02B1A59180C1901469442F2D340
:104FB000F8BD000000E000E040420F007CF0FF1F61
:104FC00070B5022802D90020C04370BD074DC4004F
:104FD000295D002906D000F037FD00202855611911
:104FE000486070BD0120C04370BD00002CFCFF1F55
:104FF0000148806870470000B0F0FF1F70B50021C5
:10500000134B0C4614224A43D01844608460447009
:105010009C54491C0461C9B204730629F2D30C489C
:105020007D2188300480448084800A48C90000685B
:10503000FBF7EEF80849401E884208D8074D686122
:105040000321081FFDF704FFAC610720286170BD34
:10505000B4FBFF1F7CF0FF1FFFFFFF0000E000E03C
:105060004168002910D04168491E41600CD10121DE
:1050700041700178012903D18168416000214170AC
:105080000069002800D00047704700001FB500F0FD
:105090005FF8E12040020090012003900C20694657
:1050A000488100200881C880094C8880204600F093
:1050B00003FD08480168C87820221043C8700649DB
:1050C000D00108600121204600F0DAFC1FBD00007D
:1050D00000A006408CF9FF1F00E100E0012801D08C
:1050E00000207047004870478CF9FF1F70B50446D8
:1050F00000680179890607D5C5792846FEF79EFD27
:105100002946204600F040F820680179090701D5BA
:105110000179C17901790179090612D5A18A00299D
:1051200010D0628A6168895CC171608A401C80B25B
:105130006082A189884201D300206082A08A401E3B
:10514000A08270BDC1784906490EC17070BD0000D3
:105150000B480A4901600B498160014628314160D2
:10516000FF210131C1818181002141830183C182FD
:10517000818241824162C1610162704700A00640A4
:105180008CF9FF1FB4FAFF1FC38A8268D154C18A09
:10519000491C8AB2C282C1898A4201D30022C282DA
:1051A000428B8A4202D2418B491C41837047F8B539
:1051B0000023FFF793FF002820D0002517E0848903
:1051C000878A6E4637803688B442F9D9CC5C078A24
:1051D0004668F455048A641CA4B204828689B442E9
:1051E00000D30582848A641C84825B1C9BB2934238
:1051F000E5D30068C17880221143C170F8BD00007A
:1052000030B589B020216846FBF700F8234C6A4688
:105210002088011211705070608801129170D07056
:10522000A088011211715071E08801129171D07142
:105230002089011211725072608901129172D0722C
:10524000122202216846FEF773FC154D206929469B
:1052500001F02EFCFBF7D6FE0104090E6A46117020
:1052600050702946E06801F023FCFBF7CBFE0104F7
:10527000090E6A469170D0700A49606901F018FC05
:10528000FBF7C0FE0104090E6A46117150710C2231
:1052900001216846FEF74CFC09B030BD04F6FF1F43
:1052A0000000C8420000204110B588B020216846A7
:1052B000FAF7ACFF1E4A6946908D1D4C03120B7025
:1052C0004870D08D403C02128A70C870206F020E68
:1052D0000A7102144A7102128A71C871606F020E5B
:1052E0000A7202144A7202128A72C8722046803010
:1052F000806AFBF787FE01040A0E69460A73487349
:10530000A06FFBF77FFE01040A0E69468A73C8731B
:10531000E06FFBF777FE01040A0E69460A744874D1
:105320001222F1216846FEF703FC08B010BD000010
:10533000C4F5FF1F30B589B020216846FAF766FF33
:105340001C486A46418905460B0A13705170418E0C
:1053500040350B0A9370D170E9882C460B0A137103
:105360005171C08B4034010A9171D071E069FBF733
:1053700049FE0104090E6A4611725072206AFBF759
:1053800041FE0104090E6A469172D072606AFBF711
:1053900039FE0104090E6A4611735073688B010AC5
:1053A0009173D0731022F2216846FEF7C1FB09B059
:1053B00030BD000084F5FF1F10B5FDF71DFCFDF7A3
:1053C000CBFDFDF767FD002001F0DCF910BD00000A
:1053D00010B5FEF7E1FE194C0028607007D0207868
:1053E000002804D1022001F0CDF90020607020785F
:1053F0000300FEF763FB0A09200C060F1215181BA9
:105400001E20FDF7EBFD16E000F020FF13E0FDF796
:1054100029FC10E0FEF7FAF90DE0FEF779F90AE051
:10542000FCF7DAFB07E0FCF75BFB04E0FCF758FA5B
:1054300001E0FEF7DFFAFDF757FA10BD4CF4FF1F4D
:1054400000220346D340DB0703D1521C92B2102A3C
:10545000F7D30748836849000B438360D106C90E20
:10546000016001680906FCD500690005000D704760
:1054700000B00340F8B5054600206946088006469E
:10548000044607460121480700F0EEFA3B4B9869B5
:10549000694608800888002802D00888C043088030
:1054A0006846298800880143684601800088C14316
:1054B000684601809969008801409961A879697AF4
:1054C00040000143A87A084398605868E97A084385
:1054D0005860287A012800D12026697940200129C6
:1054E00003D10643264A41021160E979002902D01E
:1054F000D9680143D9602868D9682A79521ED2B286
:105500001143D9601F490246E240D207D20F11D0A1
:10551000E206D20E194B32431A601B4B01221B7854
:10552000A2409C469B00CA5063465B1C164A7F1CE7
:105530001370FFB22A79BA4203D9641CE4B2102C6A
:10554000E1D3C2030BD510220C4B32431A600E4B31
:1055500001241A78240495004C51521C1A708003BF
:105560000BD51620064305480660074A012310782C
:105570005B0484000B51401C1070F8BD00B0034068
:1055800000E100E074F6FF1F90F0FF1F410210B52C
:105590000748002242700A2343720B0C0372012356
:1055A0004370090A4172027200F020F8002010BD19
:1055B0000000024010B50121080300F055FA084C24
:1055C00060790006FCD5084806490068FAF720FE15
:1055D000401E8006800E4030E0703020607110BDAB
:1055E0000000024040420F0080F0FF1F10B572B66D
:1055F0003020074C60710749481F0160601D8847D3
:1056000062B660793321084000D0012010BD00004F
:10561000000002409DF0FF1FF8B50026400217462B
:105620000C46C5181CE0104800214170062141724B
:10563000290C017201214170290A4172057202216F
:105640004170217801726178417203214170A17823
:105650000172E1784172241D2D1DFFF7C7FF361D31
:10566000BE42E0D30020F8BD00000240F1B582B098
:105670000298002400888206930F8205120F009280
:10568000010702058504090F920FAD0FC00B844678
:10569000334847696E1D0120B040314E07437761A2
:1056A0006046002815D007D030698B4098433061A0
:1056B00030698A40104330612A48066802980179AF
:1056C0007D20C00041430F46300CFAF7A1FD014692
:1056D0000BE0234EF0688B409843F060F0688A40FE
:1056E0001043F060E8E7641CE4B20846E040FAD1F9
:1056F000072C33D830463946E040FAF789FD86B2A8
:10570000194968000E520298711CC08848437D21D7
:10571000C900FAF787FD80B28646144AA8001158DE
:105720008E6000991358C9008C460C315E580427CE
:10573000BE435E501658282373506107490F135813
:10574000083119600021022D01D19368D9641558E0
:10575000634674461033EC5010584160FEBD0000A3
:105760000080044080F0FF1F92F0FF1FAC6C00002F
:1057700070B58205150F8004840F084A6000105A26
:10578000401C48437D21C900FAF74CFD044AA100A2
:105790005258E90080B21031505070BD92F0FF1F96
:1057A000AC6C0000F0B501783E4BCD064A09ED0E19
:1057B00092009C58A6690121A9400E43A6619C58FD
:1057C00065698D4365614478002C02D0012C05D0B9
:1057D0000EE09C58A5698D43A56109E09C58A66917
:1057E0000D463543A5619C5866690D463543656194
:1057F00085782D4E2D4C012D15D12B4F9D58403FB6
:10580000BD4203D1A5680D43A5600CE0B54203D1AC
:10581000E5680D43E56006E0234F4037BD4202D105
:1058200025690D432561C17801293AD19958B142C2
:105830000BD10278382A04D0392A06D16269802334
:1058400001E0626940231A436261B1420BD10278E0
:10585000202A04D0212A06D16269202301E062694E
:1058600010231A436261104B403B99420BD10278DE
:10587000182A04D0192A06D16269082501E0626954
:1058800004252A43626199420BD100780C2804D088
:105890000D2806D16069022101E0606901210843F9
:1058A0006061F0BDA06C000040F00F40009004402B
:1058B000F0B51C4D1B4E43091B4F9B00184A194C59
:1058C0004035403EFB58002915D0C106C90E0120C5
:1058D0008840B34203D1916801439160F0BDA34277
:1058E00003D1D1680143D160F0BDAB42FCD1116955
:1058F00001431161F0BD01218140B34203D19068A1
:1059000088439060F0BDA34203D1D0688843D06043
:10591000F0BDAB42FCD1106988431061F0BD0000BE
:105920000090044040F00F40A06C0000C206410906
:10593000D20E8800034908580069D040C007C00F44
:1059400070470000A06C0000C1064209C90E04485F
:1059500092008058C26801238B401A43C26070478E
:10596000A06C0000420910B59300C006074C01224C
:10597000C00E8240E058002903D0416811434160C5
:1059800010BD81681143816010BD0000A06C000053
:1059900070B504460121022000F066F82548016830
:1059A0000225A943016024487D21C9000068FAF757
:1059B0002FFC6168414320780201204812181160D1
:1059C000217809010918CB6801221343CB602178A3
:1059D000090109188B6893438B6021780901091824
:1059E0008B68AB438B602178090109188B681343DE
:1059F0008B606178012916D1217809010818816826
:105A00002943816021780E4A8900E068505020784F
:105A10000C49002808D0012805D1C0050860217A6A
:105A20001720FDF7F3F970BD012080050860217A89
:105A30001620F6E70070034080F0FF1F007103405E
:105A400088F0FF1F00E100E0012809D801010548A6
:105A50000818C16801221143C160816891438160C7
:105A60007047000000710340044A0029516901D0C9
:105A7000014300E081435161704700000080044011
:105A80000A4A10B5904202D10120000504E0084AFC
:105A9000904204D101204005FFF7E6FF10BD054A02
:105AA0009042FBD101208005F6E7000000A00640EF
:105AB00000B0064000C00640F8B5044623480D4635
:105AC000844202D1012108050AE02148844202D122
:105AD0000121480504E01F48844203D101218805C3
