:020000040000FA
:10000000B00200204B010000570100005901000020
:1000100000000000000000000000000000000000E0
:100020000000000000000000000000005B01000074
:1000300000000000000000005D01000079320000B7
:100040006101000061010000610100006101000028
:100050006101000061010000610100006101000018
:100060006101000061010000610100006101000008
:10007000D1330000793400007B3400003D0D0000D6
:1000800061010000610100006101000061010000E8
:100090006101000061010000D5290000FD29000078
:1000A0000D260000592600006101000061010000DA
:1000B00061010000610100006101000061010000B8
:1000C00000F002F800F030F80CA030C8083824180E
:1000D0002D18A246671EAB4654465D46AC4201D180
:1000E00000F022F87E460F3E0FCCB6460126334282
:1000F00000D0FB1AA246AB463343184740840000A9
:10010000608400000023002400250026103A01D35B
:1001100078C1FBD8520700D330C100D50B607047BF
:100120001FB51FBD10B510BD00F0B5FD1146FFF79E
:10013000F7FF05F035F900F0CDFD03B4FFF7F2FF4E
:1001400003BC03F0A8F9000070470948804709483C
:10015000804709480047FEE7FEE7FEE7FEE7FEE7C7
:10016000FEE7000005480649044A064B70470000B8
:10017000CD32000049010000C1000000B0010020A4
:10018000B0020020B00100207047000030B5441CD0
:1001900003E00178401C00290DD08107F9D10B4BF9
:1001A000DD0104C8D11A91432940FAD0001B0A0688
:1001B00003D0C01E30BD001B30BD0A0401D0801E1C
:1001C00030BD0902FCD0401E30BD0000010101011C
:1001D00001E004C0091F0429FBD28B0701D502806E
:1001E000801CC90700D00270704700290BD0C307DC
:1001F00002D00270401C491E022904D3830702D595
:100200000280801C891EE3E70022EEE70022DFE780
:10021000002203098B422CD3030A8B4211D3002303
:100220009C464EE003460B433CD4002243088B42DD
:1002300031D303098B421CD3030A8B4201D394466A
:100240003FE0C3098B4201D3CB01C01A524183095D
:100250008B4201D38B01C01A524143098B4201D317
:100260004B01C01A524103098B4201D30B01C01A42
:100270005241C3088B4201D3CB00C01A52418308BC
:100280008B4201D38B00C01A524143088B4201D3E9
:100290004B00C01A5241411A00D201465241104649
:1002A00070475DE0CA0F00D04942031000D34042BE
:1002B000534000229C4603098B422DD3030A8B42F4
:1002C00012D3FC22890112BA030A8B420CD3890192
:1002D00092118B4208D3890192118B4204D3890178
:1002E0003AD0921100E08909C3098B4201D3CB01B6
:1002F000C01A524183098B4201D38B01C01A52416B
:1003000043098B4201D34B01C01A524103098B426E
:1003100001D30B01C01A5241C3088B4201D3CB0059
:10032000C01A524183088B4201D38B00C01A52413C
:10033000D9D243088B4201D34B00C01A5241411A13
:1003400000D20146634652415B10104601D3404241
:10035000002B00D54942704763465B1000D34042F2
:1003600001B50020C046C04602BD704770477047C7
:100370000246C80FC00781434B0030B54B405B00BD
:100380009B0D20D01923DB06C91801231B059942B8
:1003900020DB0324A40704251346AB400BD3002B1A
:1003A00004D1EB0613409B00E34204D4012464070C
:1003B000002312195941FF231B0599420BD2C90092
:1003C0000143500F09E0CB0204D501430803024367
:1003D00005D0054830BDFF21C905084330BD08469A
:1003E00007210905884330BD0000C07F7047000029
:1003F000004870474C01002010B505F039F810BDD9
:10040000FFFFFFFFFFFFFFFFFFFFFFFFFFFFFEFEFE
:10041000F0B50C46871A9C410D46861A9D4103D2C1
:10042000C01BA141D21963410D0D1F0DC94EEC1B1C
:10043000AE435CD07F057F0D0026002F51D02D05E7
:10044000AC46A943DD020123ED0A1B051D43202311
:100450001B1B24D41746E740381871412F46E7404C
:10046000CC199D402818314661410C0D27D16144BB
:100470009A4013D50023401C594152000ED1400828
:10048000400001224B005205D34207D3052040070C
:10049000C14201D5B04900E0B0493046F0BD6B0023
:1004A000002A00D001229A181F23203C1B1B01D5D3
:1004B000002302E0E540281871410C0DD7D001243B
:1004C00024050919C407CD0740084908E40F28434B
:1004D0006144002CD5D00024401C61419A40D0D109
:1004E000CDE76A05520DD9D1C90FC907D5E79C4D93
:1004F0004E00002801D0012400E0002434195F00E0
:10050000002A01D0012600E00026BE19954FAC421A
:100510000CD8AE420AD8B44206D001256D05EC4293
:10052000BCD010461946F0BD9942FCD00020394697
:10053000F0BDF0B51FB40C460F46811A9F41254609
:10054000861A9D4106D20125ED076F40401ABC4135
:1005500052187B41210D1E0D8D1BAC467D4D8D43E8
:100560007ED075056D0D7CD00D05AE46AC431B03EA
:100570001B0B794D52429D41202366469B1B14D391
:100580001746F740381800260090744160462F4601
:100590000741E41900989D402818664116D4714619
:1005A00071189A4025D5012320E093182A466A4104
:1005B0005200002B00D0521C1E23203E9B1B002B00
:1005C00061DD3541EE1728186641E8D500187641FF
:1005D0005B1C9A4000D3401C4B05F3181524E340E4
:1005E00010D3002B52D071467118D30FC01802D30C
:1005F000491C05B0F0BD0123DB079A42F9D1400840
:100600004000F6E701225205B21801D1002853D06C
:100610000123CC0ADB029943891E002A08D1020C6F
:1006200003D0020C0004103902E0024600202039F9
:100630000023550B05D112020823550B01D152019D
:100640000D23550C01D112011B1DD50C01D19200B7
:100650009B1C150D01D152005B1C2025EE1A01E0F8
:100660002CE022E00546F54015439840CA1AE10700
:1006700069181305C918002ABBDA032040070818B7
:10068000C10FC9070FE071466118B2E7F1074008D2
:100690000843711071444A000CD001235B059A4253
:1006A000A7D2C90FC9070020A3E74905490D26D1E4
:1006B000002001E00028F4D100219AE7284D6600CF
:1006C000002801D0012100E0002171185F00002AFC
:1006D00001D0012600E00026BE19224FA94210D801
:1006E000AE420ED8B14208D001256D05E94206D0D0
:1006F0001946A802414010467BE79C4201D02146A2
:1007000077E70020394674E710B50C465C4005D504
:100710000124E4076340FFF70CFF10BDFFF778FEEC
:1007200010BD30B40C465C4004D50124E40763409E
:1007300030BC6DE630BCFCE670B50124E4076140D6
:100740000D465D4002D4FFF763FE70BD6340FFF7C6
:10075000F0FE70BDFF0700000000F0FF0000F07F1A
:100760000000E0FF0000F87F1F22030C02D10F22DF
:10077000000402D0030E03D004E0002001467047BD
:100780000002083A030F01D10001121F830F01D1AB
:100790008000921E002801DB4000521E12055118F5
:1007A0004205C012411810467047C10FC90700D05A
:1007B0004042012292071143D6E701218907D3E77E
:1007C000F0B58B4C0F09254689B0BD437BD01D0980
:1007D0002646AE43FAD00E465E402740F60F3E4313
:1007E000254071D024012142FBD0FF24AD19A4047F
:1007F0002D1B039501252D05DB02DB0AC9022B43C6
:10080000C90A29431E010901040F130F05012143E1
:100810001701880B820391432D098C46A90B1E43B7
:100820008A039543B30B9A0396433F09BA0B94038B
:10083000A74302962E467E430497B6464E19D71913
:100840000C460196544305977E43371B7646BF1BE3
:100850003601B646BE0B361900967646BC043719EB
:10086000009C01D3641C00946400002F01D0012679
:100870003443029E049F754366467E430496760089
:1008800034196E0034190094029C019E1C196643B1
:10089000751BAE46069465464519059C05956C4347
:1008A000594375460891691A0191049E01465143C6
:1008B000A41B0491611A009C0791E10605D061090F
:1008C0000122114302E072E06EE06109089D0027F9
:1008D0002C0A2D066918049D7C412A0A2D066918E8
:1008E000019D6241AC0DAD026D185441079A910D06
:1008F000920255196141029A644658435443069B3B
:10090000059A5A43121A131B9A0E9B015B187A41DF
:10091000010B0005C3185141220A200644195A410F
:100920009A4200D2491C01204002814203D3152380
:100930000226F64302E014230326F6432020C51ABC
:10094000A9401746AF40DA400A4320460399D840F1
:100950000914731819055118039A3843D2075140E6
:10096000AC4009D00122944006D30022401C5141E2
:10097000002C01D1400840001E4A934212D30122AC
:1009800003989206904207DB0520400709181A4891
:100990000143C012414004E0032040070818C10F82
:1009A000C907002009B0F0BD0020F107FAE70518DB
:1009B0000C464C4111486D42A04115D394181A467B
:1009C0005A410E48644290410ED301204A0040052E
:1009D000824209D35A00824206D35940C90F084ABD
:1009E000C90700201143DDE700200649DAE70000CF
:1009F0000000FF07FE070000FFFFFF7F0000E0FF91
:100A00000000F07F0000F87F0121C9050123411893
:100A100042001B06D3185B0E0AD0C1100722D20673
:100A2000891840075242D14201D5520089187047B7
:100A3000090208D50146002A03D0C10FC9070020CA
:100A4000704710467047420202D0002002497047AA
:100A5000072109050143F4E70000F87FF0B5FF2501
:100A60002D04C609C209FF2704462E400137CB09D1
:100A70003E4348402A402B400746002A6BD0002BBB
:100A800069D0AA4267D0AB4265D0002800DA32466E
:100A90000125ED0529432C4309022002090AD21A37
:100AA0004B0C7F24E31A434C000A7C44E35C7D2416
:100AB0002404121914145B00A218884201D3521C9A
:100AC00000E0400049420C465C4324115C43DB01DA
:100AD0006415E318040A5C43C502200D0C46444328
:100AE0006419250A5D432303EC0C0D46654300039E
:100AF0000019EB184C42A34201D35B18401CD405EB
:100B00002018002B07D05B00C91804D3401C002913
:100B100001D1400840003F2189048A4209D3002ABC
:100B200008DC1106090F04D0032149074018C00F43
:100B3000C007F0BD01224100120689187F2252062B
:100B40009142F6D205214907C84201D59010F0BD67
:100B5000FF20C005F0BD002F00DA32461648AA4239
:100B600007D2AB4205D21902090E17D0F80FC00701
:100B7000F0BDFF2563002D06AB42F9D84900A9421C
:100B8000F6D8AB4201D1A942F2D0A94201D100214D
:100B900001E061004908D0050843F0BD1102090ECB
:100BA000FBD0FF200243D005F0BD0A4601461046A7
:100BB00054E700000C7800000000C07F10B501462B
:100BC0009E240002CA15A307002A02D01843002A57
:100BD00004DBA21A002A0CDDD04010BD1206120E52
:100BE00001D140004008A21A03D4D040404200285E
:100BF000F3DDFF2248001206904201D9002010BD0B
:100C0000C817C043584010BD0102C21504D00123CB
:100C1000DB071943002A0ADB9E239A1A02D40846EE
:100C2000D0407047FF2241001206914201D90020B6
:100C30007047C017C04370471F22030C02D10F2218
:100C400000041CD0030E01D10002083A030F01D1A9
:100C50000001121F830F01D18000921E002801DBCA
:100C60004000521ED205511802125118192290400C
:100C700004D3491C002801D149084900084670479F
:100C8000C10FC90700D04042012292071143D3E7A8
:100C900001218907D0E77546FFF7AAFBAE4605009C
:100CA00069465346C008C000854618B020B5FFF716
:100CB00059FA60BC00274908B6460026C0C5C0C521
:100CC000C0C5C0C5C0C5C0C5C0C5C0C5403D490040
:100CD0008D46704710B50446C046C0462046FFF713
:100CE0002CFA10BD70B58C180578401C6B075B0F93
:100CF00001D10378401C2A1106D10278401C03E080
:100D00000678401C0E70491C5B1EF9D12B0705D4D8
:100D10000023521E0DD40B70491CFAE70378401CC7
:100D2000CB1A921C03E01D780D70491C5B1C521EEF
:100D3000F9D5A142D8D3002070BD000030B5094AD2
:100D40000020064C0649137804E022694500401C47
:100D50004A53C0B29842F8D330BD000000B00340FF
:100D6000F0F2FF1F54F0FF1F70B51E4C608C401C4A
:100D700060846088401C608000F09AFBA08A401C60
:100D8000A08200F0BDF8608C0025030002F076FB25
:100D9000062404071215202402F0EEFB70BD208803
:100DA000401C80B220800228F8D32580658000F0A6
:100DB00037FB70BD03F03AFA70BD608A401C00B288
:100DC00060820128F8DB6582A58200F021F870BD01
:100DD00000F010F9658470BD6584658225806580AA
:100DE000A58270BD00F0FF1F10B50121024A084620
:100DF00003F000FB10BD0000690D000010B50021DC
:100E0000252004F0F5F8012003F066FB10BD00007A
:100E1000FEB5384C1C200027205EFFF731FF364E10
:100E2000B56A294604F0ACFEFFF7C8FE00B2E083C5
:100E30000190304680384269C1680292428B092A8B
:100E400005D2C08D092802D2608B401C60832784A4
:100E5000284604F03DFEFFF7B1FE00B20090019875
:100E6000FFF70EFF029904F033FEFFF7A7FE07B26B
:100E70001A20305E2A30FFF703FF204904F028FED5
:100E8000FFF79CFEE18A00B22183FFF7F9FE019093
:100E90000098FFF7F5FE00903846FFF7F1FE064692
:100EA000616B7F200F46C00504F076FE314604F0EA
:100EB0000FFE06460020394604F00AFE314604F0D3
:100EC000C1FD009904F0BEFD019904F0BBFDFFF7E0
:100ED00075FEE0828120C005854205DA7F20C005CD
:100EE000C54201D20020E0822846FFF767FEA083BA
:100EF000FEBD000000F0FF1FA8F2FF1FEC51B83D3F
:100F000070B5074D1421E88A2C8B695E001B00B276
:100F1000491C48430521FFF785F90019288270BD57
:100F200000F0FF1FF8B5FFF7ABFE2749C96B04F0CF
:100F300033FE264D0446686AFFF766FD244A254BBA
:100F4000FFF73EFCFFF714FA00902046FFF75CFD28
:100F5000214A224BFFF734FC06460F460098FFF764
:100F600053FD32463B46FFF7CFFBFFF701FA06463B
:100F700068621B48844204DB1A48844201D9A86A8B
:100F800004E03146A86A04F05DFDA8621649884273
:100F900002DC1649884200D9A9620B4914488039FD
:100FA00042020F6849685740A86A04F091FD044660
:100FB0003846314604F08CFD214604F0EDFDFFF784
:100FC000FDFD00B2F8BD0000A8F2FF1F00F0FF1FFA
:100FD000666666666666E63F333333333333D33F44
:100FE0000000C8420000C8C200803B4500803BC5ED
:100FF0000000404070B5224C224B2089218AE289B2
:101000004018511A04229A5E00B2554209B22BB21E
:10101000824201DA104602E0854200DD18468A422B
:1010200001DA114602E08D4200DD1946154A803A88
:101030001346D08740331980803B5D8B6E2D1CD9C1
:10104000DB8D6E2B19D9528D6E2A16D9FF21FF2008
:1010500091312D3002F0AEFC00210B4A7D231B01A3
:10106000A163E163E06B401CE0639042FAD3A06BA4
:10107000401CA0639842F4D370BD02F09BFC70BD8D
:1010800000F0FF1FE8F2FF1F88130000F0B51F4AB1
:1010900000217F20916280021646D162803E036863
:1010A0003360436873608368B360C368F360036947
:1010B00033614069FD270D467F027061142048436B
:1010C00080198584CB00057645764583DB1905625A
:1010D0001C888483491C9B88C9B2C3830529EDD32E
:1010E0000A480A2140388187C58715805580958038
:1010F00095600748D56090630648D0631064192155
:101100000248490140308180F0BD0000A8F2FF1F75
:101110000000C8410000204110B588B02021684679
:10112000FFF774F8164CA06BFFF76EFD020E6946D0
:101130000A70020C4A70020A8A70C870E06BFFF7EE
:1011400063FD020E69460A71020C4A71020A8A7135
:10115000C871206CFFF758FD020E69460A72020C36
:101160004A72020A8A72C872FC2003F055FD0023FD
:1011700030226946FC2003F095FD08B010BD000048
:10118000A8F2FF1F07480649C160074941610749A6
:1011900001607F21C9058160054980308163704706
:1011A0000000F04128F2FF1F000096430000754345
:1011B0000000A041F8B5FFF763FD2749096C04F072
:1011C000EBFC264D0446E86AFFF71EFC244A254B3B
:1011D000FFF7F6FAFFF7CCF800902046FFF714FC73
:1011E000214A224BFFF7ECFA06460F460098FFF71C
:1011F0000BFC32463B46FFF787FAFFF7B9F8064685
:10120000E8621B48844204DB1A48844201D9286BF7
:1012100004E03146286B04F015FC28631649884227
:1012200002DC1649884200D929630B4914488039E9
:1012300042020F6849685740286B04F049FC044695
:101240003846314604F044FC214604F0A5FCFFF783
:10125000B5FC00B2F8BD0000A8F2FF1F00F0FF1FB0
:10126000666666666666E63F333333333333D33FB1
:1012700000002041000020C100803B4500803BC5AC
:101280000000404010B5022002F050FB10BD0000ED
:10129000FEB5594C594FA089002815D15C4958A07A
:1012A0008861B86BA062084601F04AF920462C30EC
:1012B00000F0A9FC2046443000F0A5FC20465C303C
:1012C00000F0A1FC0120A0815248182500780C26CE
:1012D000012824D003282DD007284ED0092858D023
:1012E00004287AD0444801212C3000F0E0FB424829
:1012F0000121443000F0DBFB0C2347A210210A201F
:10130000009504F013FAA06AFFF77EFC0246022360
:10131000102158200096019504F074F9FEBD36485E
:1013200000212C3000F0C3FB7F21C905A06A04F026
:1013300089FB2CE0304800212C3000F0B8FB7F27DF
:10134000FF0514E03946A06A04F07CFBA0620A2085
:1013500003F090F8A06AFFF757FC02460223102121
:1013600058200096019504F04DF901F057F81B2024
:1013700003F022FE0028E5D0BEE71F4800214430DC
:1013800000F095FB7F21C905A06A04F005FCA0626E
:10139000B2E719480021443000F089FB7F27FF05A0
:1013A00014E03946A06A04F0F7FBA0620A2003F0BB
:1013B00061F8A06AFFF728FC02460223102158209A
:1013C0000096019504F01EF901F028F8242003F09E
:1013D000F3FD0028E5D08FE7FFE7A06AB86300209F
:1013E000A081FFF799FE03F039FB022004F006FA12
:1013F000FFF7FAFC80E7000074F1FF1FA8F2FF1F5F
:10140000536574205461726765745370706564002D
:1014100014F1FF1F71F1FF1F53706565643A0000FE
:10142000F8B5204C0220205EFFF7BFF900221E4BCA
:10143000FFF7C6F9FEF79CFFA0600A2003F0BCFD91
:101440000126F607002802D1A0687040A06000279E
:10145000164D6780A888E880A068FFF7AFFB00B250
:10146000FFF760FDA8800420205EFFF79EF90022B0
:101470000D4BFFF7A5F9FEF77BFFE060262003F098
:101480009BFD012802D1E0687040E060A780688978
:10149000A881E068FFF792FB00B2FFF78BFE68813E
:1014A000F8BD0000A8F2FF1F0000C93F00F0FF1FB9
:1014B00070B50C4C0A21A088E6886588801B00B2B4
:1014C0006D1C6843FEF7AEFE801920816089A689F5
:1014D0000A21801B00B26843FEF7A4FE8019E08158
:1014E00070BD000000F0FF1FFEB5574C608900285A
:1014F00016D15A4955A0886159484069606208462A
:1015000001F01EF820462C3000F07DFB20464430D0
:1015100000F079FB20465C3000F075FB0120608113
:101520005048514F007818250C26012824D0032854
:101530002CD007284BD0092854D0042874D0424816
:1015400001212C3000F0B3FA3F480121443000F073
:10155000AEFA0C2345A210211420009504F0E6F801
:10156000606AFFF751FB0246042310213A200096DF
:10157000019504F047F8FEBD334800212C3000F0FF
:1015800096FA3946606A04F05DFA29E02E48002197
:101590002C3000F08CFA14E03946606A04F052FAFC
:1015A00060620A2002F066FF606AFFF72DFB0246C8
:1015B000042310213A200096019504F023F800F04E
:1015C0002DFF1B2003F0F8FC0028E5D0C1E71E48E2
:1015D0000021443000F06BFA3946606A04F0DCFA0E
:1015E0006062B6E718480021443000F060FA14E069
:1015F0003946606A04F0D0FA60620A2002F03AFFCD
:10160000606AFFF701FB0246042310213A2000968E
:10161000019503F0F7FF00F001FF242003F0CCFC5C
:101620000028E5D095E7FFE70D48616A416104F0C5
:10163000D7F80020608103F011FA022004F0DEF8F0
:10164000FFF7D2FB85E7000074F1FF1F4469726564
:101650006374696F6E204B640000000014F1FF1F7B
:1016600028F2FF1F71F1FF1F0000A0404B643A00F9
:10167000FEB55E4CE088002816D161495CA0886107
:101680006048C068E061084600F05AFF20462C30F0
:1016900000F0B9FA2046443000F0B5FA20465C303C
:1016A00000F0B1FA0120E08057483F2700783F065C
:1016B00018250C26012827D003282FD0072853D01F
:1016C00009285CD004287CD0484801212C3000F047
:1016D000EEF946480121443000F0E9F90C234BA211
:1016E00010211420009504F021F84949E06904F024
:1016F000EFF9FFF789FA0246042310213A200096F9
:10170000019503F07FFFFEBD384800212C3000F02A
:10171000CEF93946E06904F095F92EE0334800210E
:101720002C3000F0C4F93A4F18E03F210906E06977
:1017300004F088F9E0610A2002F09CFE3946E06975
:1017400004F0C6F9FFF760FA0246042310213A209C
:101750000096019503F056FF00F060FE1B2003F099
:101760002BFC0028E1D0B9E720480021443000F0EC
:101770009EF93946E06904F00FFAE061AEE71B48D4
:101780000021443000F093F9214F18E03F21090671
:10179000E06904F001FAE0610A2002F06BFE3946CC
:1017A000E06904F095F9FFF72FFA024604231021AF
:1017B0003A200096019503F025FF00F02FFE24202B
:1017C00000E004E003F0F8FB0028DFD086E70D48D6
:1017D000E169C16004F004F80020E08003F03EF904
:1017E000022004F00BF8FFF7FFFA77E774F1FF1F10
:1017F000446972656374696F6E204B70000000006D
:1018000014F1FF1F28F2FF1F71F1FF1F4B703A0008
:1018100000002041F8B5244C05462078002841D02E
:10182000284603F038FD60610021A06169568142BD
:1018300001DD002028701C482978007D1A4C401AD0
:10184000C6B2583468782169884200D80026164804
:101850006661583000F074FE134874308661697810
:10186000016100F0DFFD20696978C7B2814200D2D2
:101870000F4600240AE030191C2148434219200178
:10188000011B1E20133100F049FC641CBC42F2DB3A
:1018900005491C2288695043401901220861827061
:1018A00000200870F8BD0000BCF0FF1FF8B5002A4A
:1018B0007ED0540054438718012B41D0861A022B46
:1018C0007BD0032B76D0042B72D1154600260091D5
:1018D0000098069AC1B2B8B200F0FCFC0098761CE1
:1018E000401E00906800024671006A43714351181F
:1018F000091B081A401C002801DD6D1E7F1EAE4228
:10190000E6DB0098069AC1B2B8B200F0E3FC2846C4
:10191000410070006D1E891E02466943724389189A
:10192000091B0818401C7F1E002803DC0098401E7D
:10193000761C0090002DE4DC0098C1B2B8B276E0CD
:1019400000970D46164600270098E9B280B2069A25
:1019500000F0C0FC70007F1C01467A0071437A439E
:101960008918091B081A401C6D1C002803DD00980B
:10197000401E761E0090B742E6DB0098E9B280B2C6
:10198000069A00F0A7FC00993046491E00914100DC
:101990007800761E891E024671437A438918091B16
:1019A0000818401C002801DC6D1C7F1C002E02E082
:1019B00040E002E03FE0E0DC75E0154600270091E2
:1019C0000098069AC1B2B0B200F084FC00987F1C67
:1019D000401C00906800024679006A437943511820
:1019E000091B081A401C002801DD6D1E761CAF4241
:1019F000E6DB0098069AC1B2B0B200F06BFC284654
:101A0000410078006D1E891E024669437A43891899
:101A1000091B0818401C761C002803DC0098401C99
:101A20007F1C0090002DE4DC0098C1B2B0B2069A91
:101A300000F050FCF8BD00960D46164600270098B1
:101A4000E9B280B2069A00F045FC70007F1C0246A5
:101A50007900724379435118091B081A401C6D1E06
:101A6000002803DD0098401C761E0090B742E6DB9C
:101A70000098E9B280B2069A00F02CFC009930463A
:101A8000491C009141007800761E891E0246714370
:101A90007A438918091B0818401C002801DC6D1EB8
:101AA0007F1C002EE4DC0098E9B280B2BFE77CB571
:101AB0000446C0680D460E287DD3A0681E287AD340
:101AC000206903F0E1FBA168884274D825750C26D3
:101AD00061682068002D11D00122801D891D00F051
:101AE0002AF9206903F0D0FBA168081A2188400870
:101AF0004018002180B2009601916CE00022801D08
:101B0000891D00F018F901250095206861680323FC
:101B10000622801D891DFFF7C9FE0095A168206877
:101B200042186168801D0B46D21F00F090FA0095A4
:101B3000A16820680423401861680622C01F891D1F
:101B4000FFF7B4FE0095E1686068A268411820685C
:101B50004B1E8218801D491ED21F00F078FA009596
:101B6000E1686068A2684118206801238018062295
:101B7000C01FC91FFFF79AFE00956168E0680B1847
:101B80002068891D0246DB1F00F061FA0095E168BC
:101B900060680223411820680622801DC91FFFF7D4
:101BA00085FE00956168E068A2680B1820688018BF
:101BB000421E401E00E018E0891DDB1F00F047FABE
:101BC000206903F061FBA168081A218840084018C9
:101BD00080B200960195E168A2880C394908511835
:101BE00089B20C23226903F09FFE7CBD38B51446F0
:101BF000C9B280B26A4600F0AAFB684601780120AB
:101C00006140884338BD7CB50446C0680E287BD34C
:101C1000A0681E2878D3206903F036FBA1688842AB
:101C200072D8012500952068616803230622801D73
:101C3000891DFFF73BFE0095A16820684218616886
:101C4000801D0B46D21F00F002FA0095A1682068A3
:101C50000423401861680622C01F891DFFF726FE75
:101C60000095E1686068A268411820684B1E8218E0
:101C7000801D491ED21F00F0EAF90095E1686068F6
:101C8000A26841182068012380180622C01FC91FBE
:101C9000FFF70CFE00956168E0680B182068891D4D
:101CA0000246DB1F00F0D3F90095E168606802236B
:101CB000411820680622801DC91FFFF7F7FD009517
:101CC0006168E068A2680B182068891D8018421EB0
:101CD000401EDB1F00F0BBF9207D0C26002814D02D
:101CE000206861680122801D891D00F024F82069A8
:101CF00003F0CAFAA168081A218840084018002198
:101D000080B2009601910BE014E0206903F0BCFA68
:101D1000A168081A21884008401880B200960195F1
:101D2000E168A2880C394908511889B20C2322694C
:101D300003F0FAFD7CBDF7B5D8B00C460546802807
:101D400074D2402C72D2E1B2A8B250AA00F0FFFACD
:101D500050A802785A98D107C007C90FC00F814216
:101D600064D021462846559400F0CCFA0646569099
:101D700050A802782146284600F0F1FA54908019C4
:101D8000400829940194289001240090254601E000
:101D9000002D7BD0E90028A808188038816F529167
:101DA000C66F50A86D1E0278EDB23146529800F011
:101DB000A9FA539050A802783146529800F0CFFA11
:101DC000519050A80278761C31465298FFF70EFFCA
:101DD000002804D050A802783146529815E0539F4D
:101DE00008E050A8027831463846FFF7FFFE002889
:101DF00003D17F1C51988742F3D951988742C7D8A5
:101E000050A8529702783146384600F0A8FA51900F
:101E100050A802783146529800F074FA5390142C6E
:101E20001FD2471E58975990074617E07EE050A8EA
:101E30000278711E3846FFF7D9FE002827D059993D
:101E40005898884207D05891E00069460F504018D2
:101E5000641CE4B24660142C03D27F1C5198874264
:101E6000E5D9539951985A9B40184008529051987F
:101E7000F1B282B2539880B200F0D5F8142DA0D2FE
:101E8000539F59977F1E5897599F19E01FE0599704
:101E9000E1E750A80278711C3846FFF7A7FE00283A
:101EA00013D059995898884207D05891E80028A92A
:101EB0000F5040186D1CEDB24660142D81D27F1C6E
:101EC0005198874200D97CE7E3E75997F5E7002C62
:101ED00020D0E100684608188038816F5291C66FA3
:101EE00050A8641E0278E4B23146529800F00AFA13
:101EF000539050A802783146529800F030FA0746C5
:101F000050A80278761E31465298FFF76FFE0028DF
:101F10000ED020E0002D00D03AE754985A9B82B2B0
:101F20005598C1B2569880B200F07DF85BB0F0BD14
:101F3000539809E050A8027831465198FFF756FEB1
:101F4000002804D15198401C5190B842F2D95198C0
:101F5000B842BCD8529050A802783146529800F04E
:101F6000FEF9074650A802783146529800F0CAF9A7
:101F70005390142D20D25990401E5890599818E033
:101F800050A80278711C5198FFF730FE002826D027
:101F900059995898884208D05891E80028A9519A30
:101FA0000A5040186D1CEDB24660142D04D25198B1
:101FB000401C5190B842E3D95398BAB2381840083F
:101FC00052905398F1B280B25A9B00F02CF8142C26
:101FD00096D253985990401E589059981BE05198AA
:101FE0005990E2E750A80278711E5198FFF7FEFD64
:101FF000002815D059995898884208D05891E00087
:102000006946519A0A504018641CE4B24660142C88
:10201000DED25198401C5190B84200D970E7E1E7F8
:1020200051985990F3E7F8B515461E460F460446F9
:10203000A84202D9D0B22546044632463946204647
:1020400000F048F9641CA4B2A542F6D2F8BDFFB571
:1020500083B0054605980C46411B06980027021BD5
:10206000FF43002902DD0120029002E0002904DA8A
:102070000297002A09DD012711E0C2B2E1B2A8B23D
:102080000C9B00F02CF907B0F0BD002A07DB059887
:10209000E1B282B2A8B20C9BFFF7C5FFF3E702984A
:1020A000484339465143420000924A000192884217
:1020B0001CDB161A0098101A00900EE0E1B2A8B2CC
:1020C0000C9A00F007F902982D18002E02DA0198F8
:1020D000361802E000988619E41905988542EDD17A
:1020E000E1B2A8B20C9A00F0F5F8CCE70098461AD5
:1020F000801A01900EE0E1B2A8B20C9A00F0EAF862
:10210000E419002E02DA0098361803E001988619C7
:1021100002982D1806988442EDD1E1E7FEB51446E9
:102120000D460646802805D8402D03D8022D01D340
:10213000122E01D20020FEBDE0680028FBD0A2785C
:1021400030461023A91E12380C27002A12D06268CC
:10215000002A04D0C9B2C0B2009303F090FA002064
:1021600001900097A9B2B0B20C23E26803F0DCFB47
:102170000120FEBDA268002A05D00093C9B2C0B2FA
:10218000102303F07CFA0120EAE7000010B50029D3
:1021900002D00121002401E0002101240448FFF7BE
:1021A00086FC034821461830FFF781FC10BD000073
:1021B00084F0FF1FFEB58168044614293CD3E06813
:1021C000142839D325686A18802A35D861680B1815
:1021D000402B31D800272846521E5B1E009700F086
:1021E000F4F8012500956168E068A2680B18206882
:1021F0005B1E8218521E00F0CAF820882189304BDD
:102200004118491E8AB2217980B20E31C9B21B78B9
:10221000FFF709FF0095A168206842186168521E07
:102220000B460D3300F0D1F8206903F042F8024666
:10223000A068811E8A4201D90020FEBD80B20C2612
:10224000019700960290A0883346401C81B22088F6
:10225000226980B203F0C0FB1A480775A1690161C9
:102260002168491D0160E26861688918C268891A9D
:10227000091F4160FFF7C7FC124818300575E16976
:102280000161A268216889188268891A891F016022
:10229000E26861688918C268891A091F4160FFF7FE
:1022A000B2FC00960195A0880C23113081B22088E1
:1022B0006269801D80B203F037FB0120FEBD000083
:1022C00082F0FF1F84F0FF1F0148007D704700006F
:1022D00084F0FF1F10B5C0B203F0E0F810BDF8B5F0
:1022E00015461E4607460C46A94201D90D4614461E
:1022F000324621463846FFF7EDFF641CE4B2A542A2
:10230000F6D2F8BDF8B5D507441EED0F0E46002CE9
:102310000ED0F1B2A0B26A4600F019F86846007813
:10232000C007C00FA84201D0601CF8BD641EF0D1E8
:10233000F1B200206A4600F00AF868460078C0074B
:10234000C00FA84201D00120F8BD0020F8BD10B593
:102350001446C0B203F0BEF82070002010BDF8B5DE
:10236000441CD5070E46ED0F0DE0F1B2A0B26A464F
:10237000FFF7EDFF68460078C007C00FA84201D004
:10238000601EF8BD641C802CEFD38020F8BDF8B52A
:102390001C4615460E46074692B2C9B280B2069B4D
:1023A000FFF741FEAAB2E1B2B8B2069BFFF73BFECF
:1023B000E2B2F1B2B8B2069BFFF791FFE2B2F1B21E
:1023C000A8B2069BFFF78BFFF8BDF8B517461E466F
:1023D0000C460546B84201D915460746B44201D914
:1023E0001C460E46B44206D1BAB2E1B2A8B2069B70
:1023F000FFF719FEF8BDBD420DD1F2B2E1B2A8B2AD
:10240000069BFFF76CFFF8BDBAB2E1B2A8B2069B1B
:10241000FFF709FE641CB442F6D9F8BD10B503F00D
:102420006DF810BDF8B5040052D0A2680A2A4FD347
:10243000E06814284CD30125009561680B182068CA
:102440005B1E8218521EFFF7A2FF08260096208905
:1024500021780838400808182179C0B2491CC9B24F
:1024600033461C4A03F00BF900962079217B227831
:1024700040180938C1B220890823083840081018CC
:10248000144AC0B2083203F0FAF80095A168206837
:1024900042186168521E09310B46FFF7D8FD0095BE
:1024A000E1686068A268411820680A3982180B4602
:1024B000521EFFF7CCFDE0686269216914388A4238
:1024C00002D25043FDF7A4FEE061204600F004F87C
:1024D000F8BD00008A820000FEB504468189808B29
:1024E000091A14398EB22188491C8AB20192A18836
:1024F000721E0A318DB28018218900220092C91EF5
:10250000019A89B280B257182B183A462946019889
:10251000FFF75BFF21696069814201D8002005E077
:10252000A069491E7043FDF773FE80B2012100913E
:102530002918E269019853183A46FFF746FFFEBD95
:10254000FEB58168044614293BD3E368142B38D3C5
:1025500020684218802A34D86168CB18402B30D8C4
:102560000025521E5B1E0095FFF72FFF01260096E7
:102570006168E068A2680B1820685B1E8218521E12
:10258000FFF705FF20882189174B4118491E8AB2A1
:10259000217980B20E31C9B21B78FFF744FD009655
:1025A000A168206842186168521E0B460D33FFF780
:1025B0000CFFA06902F084FE0246A068811E8A42D8
:1025C00001D90020FEBD80B20C210195009102903E
:1025D000A0880C23401C81B22088A26980B203F03D
:1025E000FBF90120FEBD000082F0FF1F10B5242082
:1025F00002F0E2FC10BD10B51C2002F0DDFC10BDA5
:1026000010B51B2002F0D8FC10BD0000F8B50F4D2E
:102610000024A8680E4E000712D50E4F3878844269
:102620000ED2E96820460C2250433258114204D0A1
:1026300080198068002800D08047641CE4B2EDE770
:10264000A86824210843A860F8BD00000090074056
:1026500080F3FF1F6EF0FF1FF8B50F4D0024A86830
:102660000E4E000712D50E4F387884420ED2E9681C
:1026700020460C2250433258114204D08019806801
:10268000002800D08047641CE4B2EDE7A86824214C
:102690000843A860F8BD000000A0074080F3FF1FBA
:1026A0006EF0FF1F10B52C2002F086FC10BD10B597
:1026B00001212D2002F09CFC10BD10B500212D2021
:1026C00002F096FC10BD10B501212C2002F090FC08
:1026D00010BD10B500212C2002F08AFC10BD08B5F9
:1026E00000206946C87048702C200870012088704E
:1026F000684602F09DFB08BD08B500206A46D07010
:10270000012050702C2111709070684602F090FBEF
:1027100008BD0000F0B50021104D114F114B0A46C5
:1027200004261C204843401946708C008270476084
:1027300082601C5902614261491CC9B2C460826155
:102740000429EED30120A870074828610748E862F1
:1027500002488C30686306486866F0BD38FFFF1F8A
:102760009A820000F4F0FF1F19530000E9520000A4
:10277000D1520000F8B5674E7068FFF74BF8664914
:1027800000270878002800D0F760624C58340128F0
:102790005BD0072854D13E237522122101200097D7
:1027A000FFF713FEB0691C2148437168401830617F
:1027B0008770B069401CB06172685178491E8142CF
:1027C00000DCB161B0691C214843801801213061EF
:1027D000817072681078401C43B2137020465178A3
:1027E0002469A14205D80D468B420EDB491E1170AB
:1027F0000BE0E5B2641EA34207D914700269891A7E
:102800004269914201D9521C4261002410E04148C2
:102810001C21583040694843716841181C206043AE
:102820000A182001011B1E201331FFF777FC641CDE
:10283000AC42ECDB3748B16974308161FFF74CFE84
:1028400035480078042849D04DE03E2375221221F6
:1028500001200097FFF7B9FDB1691C22514372684E
:10286000881830618770B069401EB061002800DCB4
:10287000B761B0691C21484371684018012130617B
:10288000817071680878401E42B20A704D782369E1
:1028900020469D4203D8002A0ADA0F7008E0DDB214
:1028A000002A05DA0F704169002901D0491E6161D3
:1028B000002410E017481C215830406948437168D3
:1028C00041181C2060430A182001011B1E201331EF
:1028D000FFF724FC641CAC42ECDBABE73069006919
:1028E000002800D08047F068411CF16064280FDDAB
:1028F000F76030694169002908D0877070691C2130
:1029000048437168401801213061817002F098FCE1
:10291000F8BD0000BCF0FF1F71F1FF1F8307FF220D
:10292000DB0E9A408907090E994000280BDA000750
:10293000000F0838830808489B001818C3699343A0
:102940000B43C3617047830804489B001818036851
:1029500093430B430360704700ED00E000E400E0A8
:10296000F0B50021134B144C144E0A4605251C20CB
:102970004843C01882610261446082608F008270A7
:1029800045704261491CF759C9B2C7600529EED3A9
:10299000012098700A4818610A48D8620A48986469
:1029A0000A480449586603488C39803081600849D8
:1029B0000160F0BD500000209A820000D8F0FF1F97
:1029C000755300005D530000455300002D53000077
:1029D000E952000010B5074CE068C00704D0064873
:1029E0000068002800D08047E06801210843E060CB
:1029F00010BD0000007103404CF0FF1F10B5074CE4
:102A0000E069C00704D006484068002800D080472D
:102A1000E06901210843E06110BD0000007103403E
:102A20004CF0FF1FF0B50021114C124B124E0A461C
:102A300003251C20484300194570826102614360F0
:102A40008F00826082704261491CF759C9B2C76029
:102A50000329EED301200649A0708C31A1610748FB
:102A600020610749E16202498C392165A064F0BD0B
:102A7000C4FFFF1F9A82000008F1FF1FE952000007
:102A80008D53000010B5074C6078002808D0201D39
:102A9000FFF756FD20462030FFF7C4FC0020607091
:102AA00010BD0000E8F1FF1FFEB5FFF7EBFFD849AE
:102AB000D84C0020085625460C260627403D002805
:102AC00004D001287DD002287AD06BE10623D2A25F
:102AD0000F210320009602F029FECE48009780388F
:102AE0000196428B03230F211B2002F08BFD06234E
:102AF000CBA20F214120009602F018FEC548009796
:102B000080380196C28D03230F215F2002F07AFDE9
:102B10000623C5A221210320009602F007FE00979C
:102B200001966A88032321211B2002F06BFD0623F6
:102B3000BFA221214120009602F0F8FD00970196E6
:102B4000EA8A032321215F2002F05CFD0623BAA25A
:102B500032210320009602F0E9FDFF21A06AC90599
:102B6000C84211D303232D2232211B200097019646
:102B700002F0E8FCA06AFEF721F802B2032332213A
:102B800021200097019607E0FEF718F802B2032310
:102B900032211B200097019602F034FD0623A8A2E3
:102BA00032214120009602F0C1FDE06AFEF706F8EE
:102BB00002B2032332215F2000970196F0E000E08B
:102BC0007CE00623A0A20F210320009602F0AEFDB8
:102BD000022200970196A25E04230F211B2002F01F
:102BE00011FD06239AA20F213720009602F09EFDC8
:102BF000042200970196A25E04230F21552002F0C3
:102C000001FD062394A221210320009602F08EFDEF
:102C10003E22AA5E0097002A01960DDA03232D2298
:102C200032211B2002F08EFC3E22009701960323E6
:102C30003221AA5E212002E0042321211B2002F080
:102C4000E1FC062386A221213720009602F06EFDCA
:102C50000022A25E0097002A01960DDA03232D229E
:102C60003221552002F06EFC0022009701960323CA
:102C70003221A25E5B2002E004232121552002F0D4
:102C8000C1FC062378A232210320009602F04EFDFB
:102C9000604C0097803C0196A28B032332211B20BD
:102CA00002F0B0FC062370A232213720009602F019
:102CB0003DFD00970196A28B03236FE006236CA2D3
:102CC0000F210320009602F031FD524D6A49803DEC
:102CD000286802F0FDFEFDF797FF024604230F214E
:102CE0001B200097019602F08DFC062363A20F21A2
:102CF0003720009602F01AFD5F49686802F0E8FE8E
:102D0000FDF782FF024604230F215520009701960C
:102D100002F078FC06235BA221210320009602F03A
:102D200005FDE868FDF770FF0246042321211B2002
:102D30000097019602F066FC062354A22121372059
:102D4000009602F0F3FC6869FDF75EFF024604237B
:102D5000212155200097019602F054FC06234DA234
:102D600032210320009602F0E1FCE06BFDF74CFFFE
:102D70000246022332211B200097019602F042FCFA
:102D8000062345A232213720009602F0CFFC206CAA
:102D9000FDF73AFF024602230097019632215520A3
:102DA00002F030FC3D481A4900780123091D07282C
:102DB00009D001281CD0042804D1081F437000202A
:102DC00002F01CFDFEBD124A1078401E40B2107089
:102DD0005370002801DA022013E00020105600286A
:102DE00011D0012811D00228ECD12DA08861FEBDA0
:102DF000074A1078401C40B2107053700228ECDD76
:102E000000201070E9E72AA0F0E72EA0EEE700000E
:102E1000E8F1FF1FA8F2FF1F485F4C3A00000000D6
:102E2000485F523A00000000565F4C3A0000000034
:102E3000565F523A000000004841453A0000000049
:102E40005641453A000000004C5F453A0000000042
:102E5000525F453A000000004C5F503A000000000D
:102E6000525F503A000000004E6F723A00000000BE
:102E7000534B503A0000000000002041534B493AA8
:102E800000000000444B503A00000000444B443A1C
:102E9000000000004C543A0052543A0071F1FF1FF8
:102EA00050494420506172616D6574657273000011
:102EB0004D6F746F7220506172616D6574657273CD
:102EC0000000000053656E736F7220506172616D77
:102ED0006574657273000000F0B50346084649004A
:102EE0008C465C5A15E0521E904203DA5100595A42
:102EF000A142F8D25100904204DA5D5AA54201D8AD
:102F0000401CF8E7904204DA46009D5B5F5A9F53ED
:102F10005D529042E8DB41005D5A62469D525C5230
:102F2000F0BD0000034A10B5911E881E00F0CCFED3
:102F300010BD0000C2F2FF1FFEB55E4C6088002885
:102F400016D160495CA088615F48406860610846AE
:102F5000FFF7F6FA20462C30FEF755FE20464430A7
:102F6000FEF751FE20465C30FEF74DFE01206080EA
:102F700056483F2700783F0618250C26012827D001
:102F800003282FD0072853D009285CD004287CD0F0
:102F9000484801212C30FEF78AFD46480121443083
:102FA000FEF785FD0C234AA210211420009502F0A3
:102FB000BDFB4849606902F08BFDFDF725FE024626
:102FC000042310213A200096019502F01BFBFEBD60
:102FD000384800212C30FEF76AFD3946606902F05E
:102FE00031FD2EE0334800212C30FEF760FD394FD3
:102FF00018E03F210906606902F024FD60610A20A3
:1030000001F038FA3946606902F062FDFDF7FCFD17
:103010000246042310213A200096019502F0F2FAAC
:10302000FFF7FCF91B2001F0C7FF0028E1D0B9E74A
:10303000204800214430FEF73AFD3946606902F02D
:10304000ABFD6061AEE71B4800214430FEF72FFD69
:10305000204F18E03F210906606902F09DFD606184
:103060000A2001F007FA3946606902F031FDFDF7E8
:10307000CBFD0246042310213A200096019502F070
:10308000C1FAFFF7CBF9242000E004E001F094FF3F
:103090000028DFD086E70C486169416002F0A0FBA0
:1030A0000020608001F0DAFC022002F0A7FBFDF7AF
:1030B0009BFE77E774F1FF1F5370656564204B69D1
:1030C0000000000014F1FF1F28F2FF1F71F1FF1F25
:1030D0004B693A0000002041FEB55E4C2088002874
:1030E00016D160495CA088615F480068206108468D
:1030F000FFF726FA20462C30FEF785FD20464430A7
:10310000FEF781FD20465C30FEF77DFD012020802A
:1031100056483F2700783F0618250C26012827D05F
:1031200003282FD0072853D009285CD004287CD04E
:10313000484801212C30FEF7BAFC464801214430B2
:10314000FEF7B5FC0C234AA210211420009502F0D2
:10315000EDFA4849206902F0BBFCFDF755FD024637
:10316000042310213A200096019502F04BFAFEBD8F
:10317000384800212C30FEF79AFC3946206902F0CD
:1031800061FC2EE0334800212C30FEF790FC394FD3
:1031900018E03F210906206902F054FC20610A2052
:1031A00001F068F93946206902F092FCFDF72CFD28
:1031B0000246042310213A200096019502F022FADB
:1031C000FFF72CF91B2001F0F7FE0028E1D0B9E74A
:1031D000204800214430FEF76AFC3946206902F09D
:1031E000DBFC2061AEE71B4800214430FEF75FFCAA
:1031F000204F18E03F210906206902F0CDFC206134
:103200000A2001F037F93946206902F061FCFDF728
:10321000FBFC0246042310213A200096019502F09F
:10322000F1F9FFF7FBF8242000E004E001F0C4FE10
:103230000028DFD086E70C482169016002F0D0FA4F
:103240000020208001F00AFC022002F0D7FAFDF7EE
:10325000CBFD77E774F1FF1F5370656564204B70F9
:103260000000000014F1FF1F28F2FF1F71F1FF1F83
:103270004B703A000000204110B500F001F810BD7D
:1032800070B50F4900244868002805D04868401EE2
:10329000486001D1012008708868401C88608868F7
:1032A000084A904201D100208860074D14206043F5
:1032B000401901F05BF9641CE4B2062CF6D370BD32
:1032C00074F0FF1FFFFFFF7F60F8FF1F10480F49DA
:1032D0008180012141702321017011200D490005D9
:1032E00048620D48002141700C4A962111701A2144
:1032F00001700179C906FCD401790907890FFBD156
:1033000007490868400848608860704703E8000083
:103310000020054000800440004006400050064068
:1033200040F0FF1F70B5284C6078002805D10120BF
:10333000607020469430FEF73DFF244D2878072822
:1033400010D1214800219430FEF720FF1E480021B3
:103350009430FEF71BFFFFF761F81B2001F02CFEF5
:103360000028FAD02878012810D11748012194307C
:10337000FEF70CFF144801219430FEF707FFFFF71A
:103380004DF8242001F018FE0028FAD028780428EF
:1033900011D1002060701C2001F00EFE0028FAD030
:1033A00009489430FEF790FF012805D001F056FB44
:1033B000022002F023FA70BD01F050FB022002F05F
:1033C0001DFAFDF7DFFE70BDBCF0FF1F71F1FF1F9E
:1033D000F8B5254A00201379014613799B063ED59E
:1033E000D279224D00262B78214C002B14D0012BB2
:1033F00017D0022B1DD0032B1ED0E7787F1D9F42D4
:1034000002D9E2545B1C2B70E3782F785A1DBA4224
:1034100025D12E701A1D17E0AA2AF5D1227001229B
:1034200005E0AF2A01D02E70EEE7627002222A700A
:10343000EAE7A2700322FAE7E2700422F7E7275CCA
:103440007918401CC9B2C0B28242F8D80848001DA1
:10345000185C884201D06E7001E0A0786870054861
:1034600001F0D2F8F8BD000000A0064080F0FF1F78
:1034700038FDFF1F38F6FF1F7047704730B47446A1
:10348000641E2578641CAB4200D21D46635D5B0060
:10349000E31830BC18470020704700000548202181
:1034A00081600821016001680906FCD500690005FA
:1034B000000D704700B0034010B501F0C1FB01F0F2
:1034C00023F801F069F800F0B9FC00F005FA00F00B
:1034D00026F900F04FFF00F09DFA00F039FA00F0F5
:1034E00005F800F08FFE62B610BD000038B51F4829
:1034F0004169202211434161C168032212069143B0
:10350000C160C168012212061143C16018490A68EE
:10351000920892000A600A6818231A430A6000227F
:103520004A604169402421434161C168DC05A143EF
:10353000C160C1680124E4062143C1600D480168EF
:10354000016001681943016042606946CA704A70AF
:103550000A20087001208870684601F069FC262066
:1035600069460870684601F063FC38BD008004407D
:10357000008003400090034010B50748074A818847
:103580005368C9188180064B41885C6809194180DD
:1035900000205060586010BDA8F2FF1F008003405B
:1035A00000900340F8B5089C0D461E46079FA047B3
:1035B000A847B047052000F06DFFB847052000F090
:1035C00069FFA047F8BDF8B5089C0D461646079F51
:1035D000A047A847B047052000F05CFFB84705208A
:1035E00000F058FFA047F8BD0FB4FEB500250898BD
:1035F0002C460D9F0C9E80470E988047052000F0BA
:1036000049FFB8476006040EB047012801D1641C89
:10361000E4B2032000F03EFF6D1CEDB2082DEBD3A9
:103620000F9808AD00280E980197009602900FCDD4
:1036300006D0FFF7B7FF2046FEBC08BC04B0184711
:10364000FFF7C1FFF7E70FB4F8B5174600240C9E4B
:103650000D9D8847B047E80901D0B84701E00998B7
:1036600080476806050E052000F014FF0B98804780
:10367000052000F00FFFB047022000F00BFF641C94
:10368000E4B2082CE7D3F8BC08BC04B01847F8B57E
:1036900014461D46089F079E8847A047B047042050
:1036A00000F0F8FEA847042000F0F4FEB847F8BD8B
:1036B000F8B514461D46089F079E8847B847A84797
:1036C000042000F0E7FEB047A047042000F0E2FE2F
:1036D000F8BD0FB4FEB50CACE0CC089800248047D0
:1036E0000A988047012000F0D5FEB047012000F085
:1036F000D1FE0EE0641CE4B2FA2C0AD96846E0C0A0
:1037000008AC0FCCFFF7D4FF0120FEBC08BC04B00E
:103710001847A8470028EDD1B8470020F5E708B5BD
:103720001B206A4610700020507001219170D070EB
:10373000684601F07DFB01211B2001F059FC1C2093
:103740006A461070684601F073FB01211C2001F0ED
:103750004FFC24206A461070684601F069FB012185
:10376000242001F045FC00F057F808BD70B505466F
:103770000C20284968434418206880476A000521C6
:103780000026AB180028207903D0052830D92171F4
:103790003CE0052801D2217170BD0A2802D2401CEC
:1037A000207170BD690060796D186D1C012803D10E
:1037B0006671E8B200F06AF86089002809D02089B3
:1037C000401C80B2208161898842EAD1DB1CD8B2DA
:1037D0000BE0A0790028E4D0E079401CC0B2E07191
:1037E000A1798842DDD3E671E8B200F04FF870BDF0
:1037F000002802D0401E207108E06079002805D121
:10380000012060719B1CD8B200F040F8E67126815F
:1038100070BD0000F8F8FF1F70B50F4800218172DD
:10382000C172012403460170322510330A46047325
:1038300002260C204843C018458106714471491C7A
:10384000C271C9B282710329F3D3044818600448D5
:10385000D8600448986170BDE8F8FF1F0126000099
:10386000F7250000ED250000074A917AD07A8142C1
:1038700001D100207047505C491CC9B291720A29DD
:10388000F8D3002191727047E8F8FF1F09280AD881
:103890000549CA7A8854C87A401CC0B2C8720A283E
:1038A00001D30020C8727047E8F8FF1F10B500244C
:1038B00001211B2001F09CFB01211C2001F098FB41
:1038C0000121242001F094FB2046FFF74FFF641CE8
:1038D000E4B2032CF8D310BD08B51820694608706F
:1038E0000120887048700020C870684601F0A0FA76
:1038F000192069460870684601F09AFA002000F025
:1039000001F808BD10B5002804D001280BD002280A
:1039100008D103E00021182001F06AFB00211920E2
:1039200001F066FB10BD00211820F9E710B5002852
:1039300004D0012809D0022806D102E0182001F0A5
:1039400049FB192001F046FB10BD1820FAE70000E2
:103950003EB500246946CC720120487225200872C9
:103960008C7202A801F064FA0021252001F040FBCE
:103970000E486946088014200871CC80684601F022
:10398000BBF90A48694642300880684601F0B4F93C
:10399000074869460880684601F0AEF90348694661
:1039A000E8300880684601F0A7F93EBD30A4000069
:1039B000F6A80000F8B5154F05461448423703260F
:1039C0000C46002905DBCC1CA1B201F017FA03213B
:1039D00004E0032101F012FA301B81B2384601F0F5
:1039E0000DFA0A4C0A48E834002D05DBED1CA9B29B
:1039F00001F004FA032104E0032101F0FFF9701B38
:103A000081B2204601F0FAF9F8BD000030A40000B0
:103A1000F6A8000010B500F039F880216B2000F006
:103A2000ABF9C82000F026FD00216B2000F0A4F9BE
:103A3000032000F069F9002000F05FF9642000F035
:103A400084F900216A2000F097F90021232000F07A
:103A500093F98021372000F08FF90021382000F001
:103A60008BF9752000F0C6F8682801D0012010BD40
:103A700001216B2000F080F900216C2000F07CF91E
:103A8000642000F062F9002010BD000008B500209D
:103A90006A46D070012050702C21117090706846D9
:103AA00001F0C6F92D206A461070684601F0C0F991
:103AB000084807494161084981610849816008490E
:103AC000C16008490160084941600849016108BDB9
:103AD000AF2600001CFDFF1FBB260000C72600000C
:103AE000D3260000DF260000F9260000A5260000EE
:103AF000F0B53F4C154620460F46103007C885B03C
:103B00001E466B4607C30FCC103CFFF7C0FDD0200C
:103B10001034039007CC6B4607C31C3C0FCC103C01
:103B2000FFF791FD103407CC6B4607C31C3C0FCC4C
:103B3000103CFFF7CEFD00280AD02046103007C801
:103B40006B4607C30FCCFFF7B3FD012005B0F0BDF6
:103B500020461030039707C86B4607C30FCC103CB4
:103B6000FFF771FD103407CC6B4607C31C3C0FCC2C
:103B7000103CFFF7AEFD103407CC6B4607C31C3C6E
:103B80000FCC103CFFF783FDD1201034039007CCFD
:103B90006B4607C31C3C0FCC103CFFF754FD1034A0
:103BA00007CC6B4607C31C3C0FCC103CFFF791FDC4
:103BB00010E0012D1AD0012003902046103007C8D4
:103BC0006B4607C30FCC103CFFF70EFD6D1E307027
:103BD000EDB2761C002DECD12046103007C86B46A4
:103BE00007C30FCCFFF764FD0020AFE70020E3E739
:103BF0001CFDFF1F7FB5334C05462046103007C81B
:103C00006B4607C30FCC103CFFF741FDD0201034AA
:103C1000039007CC6B4607C31C3C0FCC103CFFF74E
:103C200012FD103407CC6B4607C31C3C0FCC103C74
:103C3000FFF74FFD1034039507CC6B4607C31C3CC0
:103C40000FCC103CFFF7FFFC103407CC6B4607C3CA
:103C50001C3C0FCC103CFFF73CFD103407CC6B46EE
:103C600007C31C3C0FCC103CFFF711FDD1201034D2
:103C7000039007CC6B4607C31C3C0FCC103CFFF7EE
:103C8000E2FC103407CC6B4607C31C3C0FCC103C45
:103C9000FFF71FFD00201034039007CC6B4607C3CD
:103CA0001C3C0FCC103CFFF79FFC0546103407CCA2
:103CB0006B4607C31C3C0FCCFFF7FAFC284604B048
:103CC00070BD00001CFDFF1F7CB514460D46064666
:103CD0006B46062243216820FFF70AFF00280BD11C
:103CE0006946098849BA31806946498849BA2980B4
:103CF0006946898849BA21807CBDC00610B5010E8D
:103D00001C2000F039F810BDC00610B5010E1B20B4
:103D100000F032F810BD10B5BC2801D3012110E02D
:103D2000622801D302210CE02A2801D3032108E0F4
:103D3000142801D3042104E00A2801D3052100E05E
:103D400006211A2000F018F810BD10B504467D2099
:103D5000C000844201D9044602E0042C00D20424AD
:103D60002146FCF755FA401EC1B2192000F004F8B4
:103D70006008FFF7D0FF10BD7FB52F4C06462046E8
:103D80000D46103007C86B4607C30FCC103CFFF739
:103D90007EFCD0201034039007CC6B4607C31C3C3C
:103DA0000FCC103CFFF74FFC103407CC6B4607C319
:103DB0001C3C0FCC103CFFF78CFC002827D1204680
:103DC0001030039607C86B4607C30FCC103CFFF7B3
:103DD0003AFC103407CC6B4607C31C3C0FCC103C9C
:103DE000FFF777FC1034039507CC6B4607C31C3CE8
:103DF0000FCC103CFFF727FC103407CC6B4607C3F1
:103E00001C3C0FCC103CFFF764FC00280AD0204675
:103E1000103007C86B4607C30FCCFFF749FC0120E1
:103E200004B070BD2046103007C86B4607C30FCCE6
:103E3000FFF73EFC0020F3E71CFDFF1F10B500F06C
:103E40007DF80121432001F0D3F8642000F012FB3B
:103E50000021432001F0CCF8642000F00BFB01218D
:103E6000432001F0C5F80021AE2001F08DFC0021B7
:103E7000D52001F089FC0021502001F085FC0021B3
:103E8000A82001F081FC00213F2001F07DFC0021F1
:103E9000D32001F079FC0021084601F075FC0021D7
:103EA000402001F071FC00218D2001F06DFC00210B
:103EB000142001F069FC0021202001F065FC0021A4
:103EC000022001F061FC0021A12001F05DFC002135
:103ED000C02001F059FC0021DA2001F055FC00213E
:103EE000122001F051FC0021812001F04DFC002145
:103EF000EF2001F049FC0021D92001F045FC002110
:103F0000F12001F041FC0021DB2001F03DFC00210B
:103F1000302001F039FC0021A42001F035FC002103
:103F2000A62001F031FC0021AF2001F02DFC01F0B2
:103F30009FFA0021084600F026F810BD08B50020C1
:103F40006A46D0700121517023211170907068462B
:103F500000F06EFF42206A461070684600F068FF6D
:103F600017206A461070684600F062FF43206A46D8
:103F70001070684600F05CFF16206A4610706846B4
:103F800000F056FF08BD10B50446B031C8B200219C
:103F900001F0FAFB20090021103001F0F5FB2007A9
:103FA000000F01210843002101F0EEFB10BD0000CD
:103FB000F0B58DB00025282102A80C95FCF726F954
:103FC0000C240021062380A20846009401F0AEFBD9
:103FD000012001900623252200210094642001F095
:103FE000B1FA01F08BFA0020800000226D1C02A9BA
:103FF000ADB20A500A2DF9D3774B00201C4640344D
:104000000146142671430022C918401C8A8380B2DD
:10401000CA830528F4D395E000263300FFF72EFA73
:10402000050413243342530001200021800300F0D3
:1040300055FD01466848427E520012189184417E27
:10404000491C41763FE001200021C00200F046FDFE
:10405000014661482030427B53005F4A9A1811871D
:10406000417B491C41732EE001200021C00300F078
:1040700035FD61784A00584951184031888160788F
:10408000401C60701FE001200021800200F026FD2E
:10409000617D4A005049511840310884607D401CC0
:1040A000607510E001200021400200F017FD01467C
:1040B00049486030427A5300474A9A184032918604
:1040C000417A491C417214203146414342480F183D
:1040D000787E042801D300207876384624300322E5
:1040E000002101F09CFCB98B788D814200D2B8830D
:1040F000F98BB88C814200D9F883761CB6B2052EB4
:104100008BD30C980A21401C80B20C90FCF780F8ED
:10411000002904D10020FFF709FC01F0EFF91E216E
:10412000681CFCF775F802460C21062001910090EE
:1041300003230021542001F065FA052000F09AF9CC
:104140006D1CADB22548854200D265E7224C0020A7
:1041500002AB14214143C20009198D8B9D50D21826
:10416000401CC98B80B251600528F2D30C24062371
:104170001BA221460020009401F0D8FA06231CA2BD
:1041800018210020009401F0D1FA01F0B7F97D2543
:10419000ED00284600F06EF9FD2000F03DFD002303
:1041A000282202A9FD2000F07DFD062313A2242170
:1041B0000020009401F0BAFA01F0A0F9284600F0BE
:1041C00059F90DB0F0BD000043616C696272617411
:1041D000696F6E2E2E2E000028F2FF1FB80B000014
:1041E00043616C6962726174696F6E204F4B21008C
:1041F000536176696E672E2E2E000000536176653E
:10420000642121000EB50848009001216A46117111
:10421000002090721072507120235372D172D071AD
:10422000684600F083FC0EBD02CE0000FEB54F4E86
:104230000025344640342B00FFF720F905041120F7
:104240002E3C480001200021800300F047FC717ED5
:10425000490089198884707E401C707636E0012000
:104260000021C00200F03AFC404920314A7B520054
:1042700092191087487B401C487327E001200021D9
:10428000C00300F02BFC6178490089194031888116
:104290006078401C607019E001200021800200F06D
:1042A0001DFC617D4900891940310884607D401CF6
:1042B00060750BE0FFF7F2F82C4960314A7A520042
:1042C000921940329086487A401C48721420684304
:1042D0008719787E042801D300207876394638463D
:1042E0001A312430042200F0BDFFB98BF88B009006
:1042F000081AFCF7C5FC0190798B0098081AFCF7A6
:10430000BFFC0199FCF7AAFB6D1CEDB23862052DCC
:1043100091D3356A746B2946204601F093FB07461A
:104320002946204601F038FC3946FCF797FB104936
:1043300001F0CEFB0D4C05468034A062B76CF66DE3
:104340003946304601F07EFB00903946304601F098
:1043500023FC0099FCF782FB054901F0B9FB0146FB
:10436000E062284601F018FC2063FEBD28F2FF1F22
:104370000000C84208B500206946C870487028206F
:10438000087001208870684600F052FD0121282045
:1043900000F0D4FD0121282000F02AFE29206946E2
:1043A0000870684600F044FD0121292000F0C6FD98
:1043B0000121292000F01CFE34206946087068465F
:1043C00000F036FD0121342000F0B8FD0121342039
:1043D00000F00EFE372069460870684600F028FDA0
:1043E0000121372000F0AAFD0121372000F000FE56
:1043F00008BD0000F0B585B01546022803D900209D
:10440000C04305B0F0BD0C4EC400325D012A0FD090
:104410006A46107001275770032010726846039592
:10442000019100F0FBFD3755A01945600020E8E739
:104430000120C043E5E70000D8F8FF1F70B506284B
:1044400002D90020C04370BD1424094D60434419B3
:10445000267B012E09D06160002666702B54012056
:104460002073A1603046226170BD0120C04370BD41
:1044700060F8FF1F002809D0012800D1022004495C
:1044800048600020087008780128FCD170470000BF
:1044900074F0FF1FF8B50D4E0746756900240D48EE
:1044A0000B490068FBF7B4FE7843B1690246B06976
:1044B0008842FCD0884201D2091A01E02B1A59180F
:1044C0000C1901469442F2D3F8BD000000E000E070
:1044D00040420F0040F0FF1F70B5022802D90020B3
:1044E000C04370BD074DC400295D002906D000F00F
:1044F000F1FD002028556119486070BD0120C043BE
:1045000070BD0000D8F8FF1F70B50021124B0C469B
:1045100014224A43D0184460846044709C54491C5F
:104520000461C9B204730629F2D30C487D21C90085
:104530000068FBF76DFE0A49401E88420BD8094906
:10454000486109480723C2691202120A4D042A432E
:10455000C2618C610B6170BD60F8FF1F40F0FF1FEE
:10456000FFFFFF0000E000E004ED00E041680029EB
:1045700010D04168491E41600CD101214170017881
:10458000012903D181684160002141700069002840
:1045900000D00047704700001FB50121022000F045
:1045A000CDFC0121032000F0C9FC00F051F8E1200E
:1045B00040020090012003900C20694648810020B1
:1045C0000881C880094C8880204600F0BBFD08485F
:1045D0000168C87820221043C8700649D0010860DD
:1045E0000121204600F092FD1FBD000000A0064002
:1045F00038F6FF1F00E100E0012801D000207047DD
:104600000048704738F6FF1F01680A79120701D584
:104610000A79CA790A790A79120612D5828A002A99
:1046200010D0438A4268D25CCA71418A491C89B25F
:1046300041828289914201D300214182818A491EAF
:1046400081827047C8784006400EC87070470000ED
:104650000B480A4901600B498160014628314160DD
:10466000FF210131C1818181002141830183C18208
:10467000818241824162C1610162704700A00640AF
:1046800038F6FF1F60F7FF1FF8B50023FFF7B4FFF0
:10469000002820D0002517E08489878A6E4637805D
:1046A0003688B442F9D9CC5C078A4668F455048A46
:1046B000641CA4B204828689B44200D30582848A31
:1046C000641C84825B1C9BB29342E5D30068C17872
:1046D00080221143C170F8BD10B5074C2078012825
:1046E00009D00120207000F009F800F069F900F00D
:1046F0005DF80020207010BD73F0FF1F10B5104C46
:10470000607800281AD0132814D008DC02280BD0B7
:1047100010280CD011280DD012280DD10AE0142831
:1047200008D0152808D105E000F0DCF804E000F01E
:1047300081F8102000F020F90020607010BD00000A
:1047400080F0FF1F70B588B00E4604461546202144
:104750006846FBF75BFD1B2D02D9002008B070BD39
:10476000AA206946087048708E70CD700021684696
:10477000431908E0625C461832711A79465C921956
:10478000491C1A71C9B2A942F4D32C462A1D05E06E
:104790001979065D8919641C1971E4B29442F7D342
:1047A00001466A1D0120FFF76FFFD6E710B588B0FC
:1047B00020216846FBF72AFD1C486946C08F1B4C28
:1047C00002120A7048704034208802128A70C87041
:1047D0000220205E020E0A7102144A7102128A71CE
:1047E000C8710420205E020E0A7202144A7202127C
:1047F0008A72C8720E49A06801F06AF9FCF7DEF906
:10480000021269460A7348730949E06801F060F9C9
:10481000FCF7D4F9021269468A73C8731022F12199
:104820006846FFF78FFF08B010BD000068F2FF1F59
:104830000000204170B528484179027908021043F0
:1048400040BA00B2FCF71CFA244D2946FCF706F9E1
:10485000234CE0602048C17982790802104340BAB5
:1048600000B2FCF70DFA2946FCF7F8F820611A4867
:10487000417A027A0802104340BA00B2FCF700FA0B
:1048800060611548C17A827A0802104340BA00B2CA
:10489000FCF7F6F92946FCF7E1F820600E48417B69
:1048A000027B0802104340BA00B2FCF7E9F929463E
:1048B000FCF7D4F860600848C17B827B0802104393
:1048C00040BA00B2FCF7DCF92946FCF7C7F8A06053
:1048D00000F086FF70BD000038FDFF1F0000204182
:1048E00028F2FF1F30B585B014216846FBF78EFC17
:1048F0001F4C204DE068294601F0EAF8FCF75EF90C
:10490000021269460A7048702946206901F0E0F8F1
:10491000FCF754F9021269468A70C8706069FCF7A6
:104920004DF9021269460A7148712946206801F062
:10493000CFF8FCF743F9021269468A71C87129461B
:10494000606801F0C5F8FCF739F9021269460A728D
:104950004872A068FCF732F9021269468A72C8727E
:10496000122210216846FFF7EDFE05B030BD0000B1
:1049700028F2FF1F000020411CB500210091019189
:10498000AA216A4611705170EF2191700721D170F0
:1049900010710A48C178001D085C507100206946FA
:1049A0000B5C8A79401CD218C0B28A710728F7D3F1
:1049B00007220120FFF768FE1CBD000038FDFF1F25
:1049C000F0B589B020216846FBF720FC224A6946F1
:1049D000508B1446030A0B7048704034608825469B
:1049E000030A8B70C870E08A4035030A0B71487166
:1049F000D08D020A8A71C871AE6A3046FCF7DEF8C3
:104A000001040A0E69460A724872EF6A3846FCF7DA
:104A1000D5F801040A0E69468A72C87239463046D2
:104A200001F0BAF8FCF7CAF801040A0E69460A73E5
:104A30004873286BFCF7C2F801040A0E69468A73B2
:104A4000C873608D020A0A7448741222F221684603
:104A5000FFF778FE09B0F0BD28F2FF1F10B5FDF793
:104A600059FEFDF7DFFFFDF77BFF10BD10B5FEF728
:104A7000FBFE194C0028607007D02078002804D174
:104A8000022000F0BBFE0020607020780300FEF7DB
:104A9000F5FC0A09200C060F1215181B1E20FEF744
:104AA00003F816E000F0BCFC13E0FDF763FE10E035
:104AB000FEF712FB0DE0FEF73FFA0AE0FCF7D8FD27
:104AC00007E0FCF711FD04E0FCF7E2FB01E0FEF774
:104AD00029FCFDF7A3FC10BD70F1FF1F0022034667
:104AE000D340DB0703D1521C92B2102AF7D3C30381
:104AF00000D51022800300D516220B4B986808437E
:104B00009860986898609868986058685860D0066F
:104B1000C00E186018680006FCD51869196880B2C4
:104B2000802291431960704700B00340F8B5002619
:104B30000546012134463746480700F0DBFA324B80
:104B40009869298889B208439861A879697A0143EC
:104B5000A87A084398605868E97A08435860287A28
:104B6000012800D1202669794020012903D106437C
:104B7000264A41021160E979002902D0D96801432F
:104B8000D9602868D9682A79521ED2B21143D960F7
:104B90001F490246E240D207D20F11D0E206D20EE0
:104BA000194B32431A601B4B01221B78A2409C46D2
:104BB0009B00CA5063465B1C164A7F1C1370FFB2F1
:104BC0002A79BA4203D9641CE4B2102CE1D3C2039F
:104BD0000BD510220C4B32431A600E4B01241A786D
:104BE000240495004C51521C1A7080030BD51620DA
:104BF000064305480660074A012310785B048400D9
:104C00000B51401C1070F8BD00B0034000E100E003
:104C100020F3FF1F54F0FF1F410210B50748002288
:104C200042700A2343720B0C037201234370090A7A
:104C30004172027200F020F8002010BD0000024016
:104C400010B50121080300F055FA084C6079000600
:104C5000FCD5084806490068FBF7DAFA401E8006D2
:104C6000800E4030E0703020607110BD00000240C6
:104C700040420F0044F0FF1F10B572B63020074CC1
:104C800060710749481F0160601D884762B66079FE
:104C90003321084000D0012010BD00000000024078
:104CA00061F0FF1FF8B50026400217460C46C518F4
:104CB0001CE010480021417006214172290C01724C
:104CC00001214170290A4172057202214170217847
:104CD00001726178417203214170A1780172E1781B
:104CE0004172241D2D1DFFF7C7FF361DBE42E0D3C4
:104CF0000020F8BD00000240F1B582B00298002407
:104D000000888206930F8205120F009201070205A8
:104D10008504090F920FAD0FC00B844633484769D5
:104D20006E1D0120B040314E074377616046002878
:104D300015D007D030698B409843306130698A4084
:104D4000104330612A480668029801797D20C0002E
:104D500041430F46300CFBF75BFA01460BE0234E54
:104D6000F0688B409843F060F0688A401043F06030
:104D7000E8E7641CE4B20846E040FAD1072C33D8D7
:104D800030463946E040FBF743FA86B219496800DD
:104D90000E520298711CC08848437D21C900FBF760
:104DA00041FA80B28646144AA80011588E600099D4
:104DB0001358C9008C460C315E580427BE435E5020
:104DC0001658282373506107490F1358083119608A
:104DD0000021022D01D19368D964155863467446A9
:104DE0001033EC5010584160FEBD000000800440BC
:104DF00044F0FF1F56F0FF1F745C000070B5820581
:104E0000150F8004840F084A6000105A401C484364
:104E10007D21C900FBF706FA044AA1005258E900B7
:104E200080B21031505070BD56F0FF1F745C00000E
:104E3000F0B501783E4BCD064A09ED0E92009C5824
:104E4000A6690121A9400E43A6619C5865698D435E
:104E500065614478002C02D0012C05D00EE09C58EE
:104E6000A5698D43A56109E09C58A6690D463543A7
:104E7000A5619C5866690D463543656185782D4E60
:104E80002D4C012D15D12B4F9D58403FBD4203D1D4
:104E9000A5680D43A5600CE0B54203D1E5680D435C
:104EA000E56006E0234F4037BD4202D125690D433E
:104EB0002561C17801293AD19958B1420BD10278C4
:104EC000382A04D0392A06D16269802301E0626958
:104ED00040231A436261B1420BD10278202A04D0E8
:104EE000212A06D16269202301E0626910231A4356
:104EF0006261104B403B99420BD10278182A04D0D2
:104F0000192A06D16269082501E0626904252A434D
:104F1000626199420BD100780C2804D00D2806D18B
:104F20006069022101E06069012108436061F0BD10
:104F3000685C000040F00F4000900440F0B51C4D4C
:104F40001B4E43091B4F9B00184A194C4035403EED
:104F5000FB58002915D0C106C90E01208840B34274
:104F600003D1916801439160F0BDA34203D1D168A0
:104F70000143D160F0BDAB42FCD111690143116125
:104F8000F0BD01218140B34203D190688843906015
:104F9000F0BDA34203D1D0688843D060F0BDAB42DE
:104FA000FCD1106988431061F0BD000000900440FE
:104FB00040F00F40685C0000C2064109D20E880034
:104FC000034908580069D040C007C00F704700006F
:104FD000685C0000C1064209C90E0448920080586E
:104FE000C26801238B401A43C2607047685C0000AE
:104FF000420910B59300C006074C0122C00E824042
:10500000E058002903D041681143416010BD816818
:105010001143816010BD0000685C000070B504465B
:105020000121022000F066F8254801680225A94305
:10503000016024487D21C9000068FBF7E9F8616838
:10504000414320780201204812181160217809019B
:105050000918CB6801221343CB6021780901091894
:105060008B6893438B602178090109188B68AB43E7
:105070008B602178090109188B6813438B60617874
:10508000012916D121780901081881682943816016
:1050900021780E4A8900E068505020780C49002899
:1050A00008D0012805D1C0050860217A1720FDF736
:1050B00035FC70BD012080050860217A1620F6E7D6
:1050C0000070034044F0FF1F007103404CF0FF1FCD
:1050D00000E100E0012809D8010105480818C1686D
:1050E00001221143C16081689143816070470000D3
:1050F00000710340044A0029516901D0014300E0D6
:105100008143516170470000008004400A4A10B595
:10511000904202D10120000504E0084A904204D1E7
:1051200001204005FFF7E6FF10BD054A9042FBD184
:1051300001208005F6E7000000A0064000B0064010
:1051400000C00640F8B5044623480D46844202D10B
:10515000012108050AE02148844202D101214805C5
:1051600004E01F48844203D101218805FFF7C2FFF4
:10517000297B204600F03AF8E078F3210840E070FF
:10518000A078297A0843A070A07829790843A070F4
:10519000A078A9790843A070124800680090296897
:1051A000060948083018FBF733F881B20E488142EF
:1051B00000D9014620784009400120702078CA04B7
:1051C000D20E104320706170E078AA7A1043E0702C
:1051D0003046FBF71DF8F8BD00A0064000B00640C1
:1051E00000C0064044F0FF1FFF1F000001290ED839
:1051F0000E4B0F4A98420BD1D068CB011843D060B8
:10520000012904D10B4881680C2211438160704749
:10521000094B984202D11069090304E0074B9842F8
:10522000F5D11069490308431061704700A006409A
:10523000008004400090044000B0064000C00640DA
:1052400010B5074C0548606021465831A068886158
:10525000002000F0D3FA0120207010BD38FFFF1F9E
:10526000BCF0FF1F70B50C4603460021084604E061
:105270004D005D5B2818491C89B29142F8D3114654
:10528000FAF7C6FF208070BD10B5FAF77FFF062140
:10529000484380B210BD0021427806E01C234B43F6
:1052A0001B189B78012B02D0491C8A42F6DCC8B23D
:1052B000704710B5FAF76AFF0621484380B210BD67
:1052C00010B5FAF763FF0621484380B210BD000015
:1052D00010B5FBF793FD092000F090FA0149012079
:1052E000087010BDBCF0FF1F0A4A106981690029CF
:1052F00008D05160C06811465831801C8861012077
:105300001070704701690029FBD040690028F8D16E
:1053100008470000BCF0FF1F10B5032000F06EFA34
:1053200001490120087010BDBCF0FF1F10B5FBF74C
:1053300065FD072000F062FA01490120087010BDE8
:10534000BCF0FF1F10B5FBF759FD062000F056FA20
:1053500001490120087010BDBCF0FF1F10B5FBF71C
:105360004DFD052000F04AFA01490120087010BDEA
:10537000BCF0FF1F10B5FBF741FD042000F03EFA22
:1053800001490120087010BDBCF0FF1F10B50820B6
:1053900000F034FA01490120087010BDBCF0FF1F75
:1053A000FEF78AF8FBF772FEFFF758FB1C20FFF7A9
:1053B00003FE002801D1FEF7FBFD0123134A332130
:1053C0000020FFF73BF80123114A15211846FFF78B
:1053D00035F801230F4AC8210220FFF72FF80121D9
:1053E0000D4A0846FFF706F80C4A05210020FFF792
:1053F00001F801212520FFF7FBFD002000F0FEF958
:10540000FFF734FB6420FFF735F8F9E7D9460000D1
:10541000AD38000085120000690D0000252F000046
:1054200008B51620002100901823084A084600F00D
:1054300026F9182000900C2305A21E211A2000F046
:1054400075F905490020087008BD0000428200007F
:10545000566563746F72000072F1FF1F03460120EE
:1054600000E058430A46491EC9B2002AF9D17047E4
:1054700010B50021084C0A460020C3001B195A54DD
:10548000401CC0B28028F8D3491CC9B20829F3D304
:1054900000F034F810BD00001CF9FF1F10B57F2884
:1054A00014D83F2912D8CB080724E31A2140641AE4
:1054B0000121A140064CC0000019DBB2002AC25CE9
:1054C000C9B201D00A4300E08A43C25410BD0000B3
:1054D0001CF9FF1F3F22511AC9B2CA084907490FD8
:1054E00001238B40D9B2044BC000C018805C084037
:1054F00000D00120704700001CF9FF1F70B5104E4E
:1055000000252846B030C0B2002100F03DF900214E
:10551000084600F039F90021102000F035F9002488
:10552000E0008019405D012100F02EF9641CE4B216
:10553000802CF5D36D1CEDB2082DE2D370BD0000B8
:105540001CF9FF1FFFB583B00C9F0E460191F908AF
:10555000780700D00120081806994843C0B2203AC5
:105560000290D0B20025059040E0069806280FD0A2
:105570000C283ED1182F3CD10598242148431E49C0
:105580004018445D0020009020060FD50D9A11E0D0
:10559000082F06D00C2F2CD105980C214843174911
:1055A000EEE70598062148431549E9E70D980028DC
:1055B00012D0002231460398FFF770FF6006040EF8
:1055C000761C0198F6B2301AB84207D10398019EB2
:1055D000401CC0B2039007E00122EBE70098401C9A
:1055E000C0B200900828CFD36D1CEDB2029885425E
:1055F000BBD307B0F0BD00002E630000BA5E000010
:10560000805C0000FFB583B000261D4634460C9F29
:1056100031E0281B401EC1B20A20FFF71FFF0146E0
:105620000598FAF7F5FD0A21FAF7F2FD002E05D1EB
:10563000681E844202DA00290DD0012601220D984D
:10564000303101920090CAB2384603996043401845
:10565000C0B23B460AE001210D9801910090384606
:10566000039960434018C0B23B4620220499FFF7DB
:1056700069FF641CE4B2AC42CBD307B0F0BDFFB508
:1056800086B00F980C460193009106990290C918B4
:10569000802903D98021C91AC9B201912118402952
:1056A00003D94021091AC9B20291C108400700D0AC
:1056B0000120081804900298C108400700D001207A
:1056C0000818059000202BE0002723E004994843A8
:1056D0000899C919465C0025300601D5012200E071
:1056E000002221460698FFF7D9FE7006060E641CBC
:1056F0000098E4B2211A0298814205D10698009CD4
:10570000401CC0B2069003E06D1CEDB2082DE3D33F
:105710007F1CFFB2059887420398D7D3401CC0B2C4
:10572000019903908842CFD30AB0F0BDFFB585B090
:1057300004460D4608988021081A0E9F03904020C9
:10574000C01B1646029019E00398A04202DA00241A
:10575000E819C5B20298A84203DA00242546FFF7EB
:1057600087FE012001900097327829462046089B49
:10577000FFF7E8FE08982018C4B2761C307820386D
:105780005E28E1D909B0F0BD70B50546002900D00A
:1057900001211620FFF72CFC00211720FFF728FC21
:1057A000002400212320FFF723FC280601D5012136
:1057B00000E000214220FFF71BFC01212320FFF71E
:1057C00017FC6806641C050EE4B2082CE9D301211D
:1057D0001720FFF70DFC01211620FFF709FC70BD13
:1057E00010B5FE20FFF718FA002330220249FE20F0
:1057F000FFF758FA10BD000028F2FF1F10B5054949
:105800000028087002D1044901200870FAF7F4FD5D
:1058100010BD000070F1FF1F72F1FF1FFFB585B0D2
:105820000E9F0C460291F9081646780700D0012019
:10583000081808994843C0B20390084637490C2815
:1058400007D0182868D1182F66D148680025009025
:1058500011E00C2F60D10868F8E7009968000A5C35
:1058600031788A4205D10099401841787078814298
:1058700007D06D1CADB20098FAF788FC4008A8422A
:10588000EBD80098FAF782FC4008A84244D90020DF
:105890003EE008980C2802D0182806D00DE00C2F06
:1058A0000BD1182068431E4904E0182F05D1482069
:1058B0001C496843411800980E5C00200190300696
:1058C00004D50598E1B2C0B20F9A06E00F980028FF
:1058D00013D000220598E1B2C0B2FFF7DFFD7006D9
:1058E000060E641C0298A4B2201AB84207D105988B
:1058F000029C401C80B2059007E00122EAE7019873
:10590000401CC0B201900828D9D30098401CC0B2F6
:10591000039900908842BCD309B0F0BDB4F0FF1FDA
:105920008A7000002A7F0000FFB587B0044600207F
:10593000109E0D460590700802A931C117461EE061
:105940000598002820D0002005900398801B803007
:10595000A04203DAA819801C039C85B20498801B1E
:105960004030A8420EDB1198009601903A46294635
:1059700020460A9BFFF752FFA01984B2BF1C3A7859
:10598000002ADDD10BB0F0BD802A02D9012005909C
:10599000F5E703990298081A8030A04202DAA819A4
:1059A00085B20C460498801B4030A842EADB0D2AE1
:1059B0000DD01198009601900A98E9B24308E0B220
:1059C000FFF7C0FD0298001984B27F1CD7E7A81921
:1059D00085B20C467F1CF5E7FFB583B007460D9EE8
:1059E0000E9D0C9C0598FAF7D1FB6108414388B2E3
:1059F000A84205D904AD019600940ECD38460AE0C0
:105A0000281AC10F0818C0030196009404A9000CBD
:105A10000EC9C01980B2FFF787FF07B0F0BDF0B51F
:105A200015460E460746A9420BDAFDF755FA04461D
:105A3000421E31463846FFF7F2FF2A46611C3846BF
:105A4000EEE7F0BD70B501250400ED074C4020D411
:105A5000441A01D2001B0919C60D4B00F2B2FF2AED
:105A600029D01B0E2CD000020C02D31A2C43DC4090
:105A70002843051910D2280A02D3401C6D0611D004
:105A8000761EF6058019FF2A00DA70BDC00DC0052C
:105A900070BD694000F086F801200543C541521CE5
:105AA000761CE8E764089C40C90161408900E7D1A1
:105AB0000124A043E4E71B0E440200D0034870BD5C
:105AC000002AFCD1C00FC00770BD00BF0000C07F1E
:105AD00070B5420064414B005C41120E39D01B0E80
