:020000040000FA
:10000000500200204B010000570100005901000080
:1000100000000000000000000000000000000000E0
:100020000000000000000000000000005B01000074
:1000300000000000000000005D010000C92F00006A
:100040006101000061010000610100006101000028
:100050006101000061010000610100006101000018
:100060006101000061010000610100006101000008
:10007000753000001D3100001F3100003D0D0000F3
:1000800061010000610100006101000061010000E8
:100090006101000061010000512700007927000084
:1000A00081230000CD2300006101000061010000F8
:1000B00061010000610100006101000061010000B8
:1000C00000F002F800F030F80CA030C8083824180E
:1000D0002D18A246671EAB4654465D46AC4201D180
:1000E00000F022F87E460F3E0FCCB6460126334282
:1000F00000D0FB1AA246AB46334318476880000085
:10010000888000000023002400250026103A01D337
:1001100078C1FBD8520700D330C100D50B607047BF
:100120001FB51FBD10B510BD00F0B5FD1146FFF79E
:10013000F7FF04F0CFFE00F0CDFD03B4FFF7F2FFB0
:1001400003BC02F0FAFF00007047094880470948E5
:10015000804709480047FEE7FEE7FEE7FEE7FEE7C7
:10016000FEE7000005480649044A064B70470000B8
:100170001D30000049010000C100000050010020B6
:1001800050020020500100207047000030B5441C90
:1001900003E00178401C00290DD08107F9D10B4BF9
:1001A000DD0104C8D11A91432940FAD0001B0A0688
:1001B00003D0C01E30BD001B30BD0A0401D0801E1C
:1001C00030BD0902FCD0401E30BD0000010101011C
:1001D00001E004C0091F0429FBD28B0701D502806E
:1001E000801CC90700D00270704700290BD0C307DC
:1001F00002D00270401C491E022904D3830702D595
:100200000280801C891EE3E70022EEE70022DFE780
:10021000002203098B422CD3030A8B4211D3002303
:100220009C464EE003460B433CD4002243088B42DD
:1002300031D303098B421CD3030A8B4201D394466A
:100240003FE0C3098B4201D3CB01C01A524183095D
:100250008B4201D38B01C01A524143098B4201D317
:100260004B01C01A524103098B4201D30B01C01A42
:100270005241C3088B4201D3CB00C01A52418308BC
:100280008B4201D38B00C01A524143088B4201D3E9
:100290004B00C01A5241411A00D201465241104649
:1002A00070475DE0CA0F00D04942031000D34042BE
:1002B000534000229C4603098B422DD3030A8B42F4
:1002C00012D3FC22890112BA030A8B420CD3890192
:1002D00092118B4208D3890192118B4204D3890178
:1002E0003AD0921100E08909C3098B4201D3CB01B6
:1002F000C01A524183098B4201D38B01C01A52416B
:1003000043098B4201D34B01C01A524103098B426E
:1003100001D30B01C01A5241C3088B4201D3CB0059
:10032000C01A524183088B4201D38B00C01A52413C
:10033000D9D243088B4201D34B00C01A5241411A13
:1003400000D20146634652415B10104601D3404241
:10035000002B00D54942704763465B1000D34042F2
:1003600001B50020C046C04602BD704770477047C7
:100370000246C80FC00781434B0030B54B405B00BD
:100380009B0D20D01923DB06C91801231B059942B8
:1003900020DB0324A40704251346AB400BD3002B1A
:1003A00004D1EB0613409B00E34204D4012464070C
:1003B000002312195941FF231B0599420BD2C90092
:1003C0000143500F09E0CB0204D501430803024367
:1003D00005D0054830BDFF21C905084330BD08469A
:1003E00007210905884330BD0000C07F7047000029
:1003F00000487047F000002010B504F0DBFD10BD90
:10040000FFFFFFFFFFFFFFFFFFFFFFFFFFFFFEFEFE
:10041000F0B50C46871A9C410D46861A9D4103D2C1
:10042000C01BA141D21963410D0D1F0DC94EEC1B1C
:10043000AE435CD07F057F0D0026002F51D02D05E7
:10044000AC46A943DD020123ED0A1B051D43202311
:100450001B1B24D41746E740381871412F46E7404C
:10046000CC199D402818314661410C0D27D16144BB
:100470009A4013D50023401C594152000ED1400828
:10048000400001224B005205D34207D3052040070C
:10049000C14201D5B04900E0B0493046F0BD6B0023
:1004A000002A00D001229A181F23203C1B1B01D5D3
:1004B000002302E0E540281871410C0DD7D001243B
:1004C00024050919C407CD0740084908E40F28434B
:1004D0006144002CD5D00024401C61419A40D0D109
:1004E000CDE76A05520DD9D1C90FC907D5E79C4D93
:1004F0004E00002801D0012400E0002434195F00E0
:10050000002A01D0012600E00026BE19954FAC421A
:100510000CD8AE420AD8B44206D001256D05EC4293
:10052000BCD010461946F0BD9942FCD00020394697
:10053000F0BDF0B51FB40C460F46811A9F41254609
:10054000861A9D4106D20125ED076F40401ABC4135
:1005500052187B41210D1E0D8D1BAC467D4D8D43E8
:100560007ED075056D0D7CD00D05AE46AC431B03EA
:100570001B0B794D52429D41202366469B1B14D391
:100580001746F740381800260090744160462F4601
:100590000741E41900989D402818664116D4714619
:1005A00071189A4025D5012320E093182A466A4104
:1005B0005200002B00D0521C1E23203E9B1B002B00
:1005C00061DD3541EE1728186641E8D500187641FF
:1005D0005B1C9A4000D3401C4B05F3181524E340E4
:1005E00010D3002B52D071467118D30FC01802D30C
:1005F000491C05B0F0BD0123DB079A42F9D1400840
:100600004000F6E701225205B21801D1002853D06C
:100610000123CC0ADB029943891E002A08D1020C6F
:1006200003D0020C0004103902E0024600202039F9
:100630000023550B05D112020823550B01D152019D
:100640000D23550C01D112011B1DD50C01D19200B7
:100650009B1C150D01D152005B1C2025EE1A01E0F8
:100660002CE022E00546F54015439840CA1AE10700
:1006700069181305C918002ABBDA032040070818B7
:10068000C10FC9070FE071466118B2E7F1074008D2
:100690000843711071444A000CD001235B059A4253
:1006A000A7D2C90FC9070020A3E74905490D26D1E4
:1006B000002001E00028F4D100219AE7284D6600CF
:1006C000002801D0012100E0002171185F00002AFC
:1006D00001D0012600E00026BE19224FA94210D801
:1006E000AE420ED8B14208D001256D05E94206D0D0
:1006F0001946A802414010467BE79C4201D02146A2
:1007000077E70020394674E710B50C465C4005D504
:100710000124E4076340FFF70CFF10BDFFF778FEEC
:1007200010BD30B40C465C4004D50124E40763409E
:1007300030BC6DE630BCFCE670B50124E4076140D6
:100740000D465D4002D4FFF763FE70BD6340FFF7C6
:10075000F0FE70BDFF0700000000F0FF0000F07F1A
:100760000000E0FF0000F87F1F22030C02D10F22DF
:10077000000402D0030E03D004E0002001467047BD
:100780000002083A030F01D10001121F830F01D1AB
:100790008000921E002801DB4000521E12055118F5
:1007A0004205C012411810467047C10FC90700D05A
:1007B0004042012292071143D6E701218907D3E77E
:1007C000F0B58B4C0F09254689B0BD437BD01D0980
:1007D0002646AE43FAD00E465E402740F60F3E4313
:1007E000254071D024012142FBD0FF24AD19A4047F
:1007F0002D1B039501252D05DB02DB0AC9022B43C6
:10080000C90A29431E010901040F130F05012143E1
:100810001701880B820391432D098C46A90B1E43B7
:100820008A039543B30B9A0396433F09BA0B94038B
:10083000A74302962E467E430497B6464E19D71913
:100840000C460196544305977E43371B7646BF1BE3
:100850003601B646BE0B361900967646BC043719EB
:10086000009C01D3641C00946400002F01D0012679
:100870003443029E049F754366467E430496760089
:1008800034196E0034190094029C019E1C196643B1
:10089000751BAE46069465464519059C05956C4347
:1008A000594375460891691A0191049E01465143C6
:1008B000A41B0491611A009C0791E10605D061090F
:1008C0000122114302E072E06EE06109089D0027F9
:1008D0002C0A2D066918049D7C412A0A2D066918E8
:1008E000019D6241AC0DAD026D185441079A910D06
:1008F000920255196141029A644658435443069B3B
:10090000059A5A43121A131B9A0E9B015B187A41DF
:10091000010B0005C3185141220A200644195A410F
:100920009A4200D2491C01204002814203D3152380
:100930000226F64302E014230326F6432020C51ABC
:10094000A9401746AF40DA400A4320460399D840F1
:100950000914731819055118039A3843D2075140E6
:10096000AC4009D00122944006D30022401C5141E2
:10097000002C01D1400840001E4A934212D30122AC
:1009800003989206904207DB0520400709181A4891
:100990000143C012414004E0032040070818C10F82
:1009A000C907002009B0F0BD0020F107FAE70518DB
:1009B0000C464C4111486D42A04115D394181A467B
:1009C0005A410E48644290410ED301204A0040052E
:1009D000824209D35A00824206D35940C90F084ABD
:1009E000C90700201143DDE700200649DAE70000CF
:1009F0000000FF07FE070000FFFFFF7F0000E0FF91
:100A00000000F07F0000F87F0121C9050123411893
:100A100042001B06D3185B0E0AD0C1100722D20673
:100A2000891840075242D14201D5520089187047B7
:100A3000090208D50146002A03D0C10FC9070020CA
:100A4000704710467047420202D0002002497047AA
:100A5000072109050143F4E70000F87FF0B5FF2501
:100A60002D04C609C209FF2704462E400137CB09D1
:100A70003E4348402A402B400746002A6BD0002BBB
:100A800069D0AA4267D0AB4265D0002800DA32466E
:100A90000125ED0529432C4309022002090AD21A37
:100AA0004B0C7F24E31A434C000A7C44E35C7D2416
:100AB0002404121914145B00A218884201D3521C9A
:100AC00000E0400049420C465C4324115C43DB01DA
:100AD0006415E318040A5C43C502200D0C46444328
:100AE0006419250A5D432303EC0C0D46654300039E
:100AF0000019EB184C42A34201D35B18401CD405EB
:100B00002018002B07D05B00C91804D3401C002913
:100B100001D1400840003F2189048A4209D3002ABC
:100B200008DC1106090F04D0032149074018C00F43
:100B3000C007F0BD01224100120689187F2252062B
:100B40009142F6D205214907C84201D59010F0BD67
:100B5000FF20C005F0BD002F00DA32461648AA4239
:100B600007D2AB4205D21902090E17D0F80FC00701
:100B7000F0BDFF2563002D06AB42F9D84900A9421C
:100B8000F6D8AB4201D1A942F2D0A94201D100214D
:100B900001E061004908D0050843F0BD1102090ECB
:100BA000FBD0FF200243D005F0BD0A4601461046A7
:100BB00054E700003C7400000000C07F10B50146FF
:100BC0009E240002CA15A307002A02D01843002A57
:100BD00004DBA21A002A0CDDD04010BD1206120E52
:100BE00001D140004008A21A03D4D040404200285E
:100BF000F3DDFF2248001206904201D9002010BD0B
:100C0000C817C043584010BD0102C21504D00123CB
:100C1000DB071943002A0ADB9E239A1A02D40846EE
:100C2000D0407047FF2241001206914201D90020B6
:100C30007047C017C04370471F22030C02D10F2218
:100C400000041CD0030E01D10002083A030F01D1A9
:100C50000001121F830F01D18000921E002801DBCA
:100C60004000521ED205511802125118192290400C
:100C700004D3491C002801D149084900084670479F
:100C8000C10FC90700D04042012292071143D3E7A8
:100C900001218907D0E77546FFF7AAFBAE4605009C
:100CA00069465346C008C000854618B020B5FFF716
:100CB00059FA60BC00274908B6460026C0C5C0C521
:100CC000C0C5C0C5C0C5C0C5C0C5C0C5403D490040
:100CD0008D46704710B50446C046C0462046FFF713
:100CE0002CFA10BD70B58C180578401C6B075B0F93
:100CF00001D10378401C2A1106D10278401C03E080
:100D00000678401C0E70491C5B1EF9D12B0705D4D8
:100D10000023521E0DD40B70491CFAE70378401CC7
:100D2000CB1A921C03E01D780D70491C5B1C521EEF
:100D3000F9D5A142D8D3002070BD000030B5094AD2
:100D40000020064C0649137804E022694500401C47
:100D50004A53C0B29842F8D330BD000000B00340FF
:100D600094F2FF1F48F0FF1F70B51E4C608B401CB3
:100D700060836088401C608000F01CFAA08A401CE0
:100D8000A08200F06BF8608B0025030002F0C8F928
:100D900006240407121D202402F030FA70BD2088BA
:100DA000401C80B220800228F8D32580658000F0A6
:100DB000BBF970BD608A401C00B260820128F8DB7C
:100DC0006582A58200F024F870BD02F091FF70BD2D
:100DD00000F0BAF8658370BD658365822580658003
:100DE000A58270BD00F0FF1F10B50121024A084620
:100DF00003F056F810BD0000690D000010B5002189
:100E0000252003F095FE012003F0BCF810BD000082
:100E1000F8B50F480F49C06A04F0FCFB0E4C0746BA
:100E2000E16A04F04FFC0A4DE18A2183803DA96804
:100E300004F0F0FB06463846296804F0EBFB314627
:100E400004F0A2FBFFF7BAFEE082E762F8BD000003
:100E500044F2FF1F0000204100F0FF1F70B5074D56
:100E60001421E88A2C8B695E001B00B2491C4843A0
:100E70000521FFF7D7F90019288270BD00F0FF1F88
:100E8000F8B5FFF7FDFE2649C96B04F01BFC254DA4
:100E90000446E869FFF7B8FD234A244BFFF790FCAE
:100EA000FFF766FA00902046FFF7AEFD204A214B7F
:100EB000FFF786FC06460F460098FFF7A5FD324671
:100EC0003B46FFF721FCFFF753FA0646E8611A4854
:100ED000844204DB1948844201D9286A04E031467F
:100EE000286A04F051FB28621549884202DC154942
:100EF000884200D929620A4C286A803CE16904F0E2
:100F000089FB05460121A069C9074840314604F024
:100F100081FB294604F0D6FBFFF750FE00B2F8BD76
:100F200044F2FF1F00F0FF1F666666666666E63FD6
:100F3000333333333333D33F0000C8420000C8C2D9
:100F400000803B4500803BC510B5194A194B1089FC
:100F5000118AD2894018511A0C229A5E00B254426A
:100F600009B223B2824201DA104602E0844200DD77
:100F700018468A4201DA114602E08C4200DD194629
:100F80000C4B803B1A464032D88714461180803C77
:100F9000E48D142C05D2DB8A142B02D20023D363F8
:100FA00002E0054BD363136402F046FB10BD000062
:100FB00000F0FF1F84F2FF1F0000C841F0B5234876
:100FC00000227F21C262890205460263803D0C68CF
:100FD0002C604C686C608C68AC60CC68EC600C6910
:100FE0002C614C696C618C69AC61CC69EC61096AFB
:100FF000FD261346760229621421514349190C46F5
:101000000B872034237363735400CB85A4194B637F
:1010100027880F86521C2489D2B24C86042AEBD32F
:101020000A490A2240398A87CB870380438083801C
:10103000836007498163C163C360016443740374BF
:1010400019210248490140308181F0BD44F2FF1F5F
:101050000000C841F8B5FFF713FE2649096C04F0FB
:1010600031FB254D0446686AFFF7CEFC234A244B2A
:10107000FFF7A6FBFFF77CF900902046FFF7C4FCC2
:10108000204A214BFFF79CFB06460F460098FFF7CE
:10109000BBFC32463B46FFF737FBFFF769F90646D4
:1010A00068621A48844204DB1948844201D9A86A5C
:1010B00004E03146A86A04F067FAA862154988423C
:1010C00002DC1549884200D9A9620A4CA86A803C12
:1010D000E16904F09FFA05460121A069C90748406B
:1010E000314604F097FA294604F0ECFAFFF766FD62
:1010F00000B2F8BD44F2FF1F00F0FF1F666666668F
:101100006666E63F333333333333D33F0000204149
:10111000000020C100803B4500803BC510B5022087
:1011200002F046FA10BD0000F8B51F4C6088FFF7CA
:1011300044FB00221D4BFFF743FBFFF719F9A060AA
:101140000A2003F0D9FC0126F607002802D1A06886
:101150007040A0600027164D6780A888E880A068CE
:10116000FFF72CFD00B2FFF78BFEA880A088FFF7E9
:1011700024FB00220D4BFFF723FBFFF7F9F8E0609B
:10118000262003F0B9FC012802D1E0687040E0603D
:10119000A7806889A881E068FFF710FD00B2FFF71B
:1011A00059FF6881F8BD000044F2FF1F0000C93FED
:1011B00000F0FF1F70B50C4C0A21A088E6886588F6
:1011C000801B00B26D1C6843FFF72CF8801920814A
:1011D0006089A6890A21801B00B26843FFF722F8C4
:1011E0008019E08170BD000000F0FF1FFEB55E4C6D
:1011F0006089002816D160495CA088615F488068DA
:101200002062084601F056F82046243000F059FCD0
:1012100020463C3000F055FC2046543000F051FC94
:101220000120608156483F2700783F0618250C268C
:10123000012827D003282FD0072853D009285CD0B5
:1012400004287CD048480121243000F08EFB464819
:1012500001213C3000F089FB0C234AA2102114200C
:10126000009504F005F84849206A04F0D3F9FFF727
:10127000CBFC0246042310213A200096019503F08E
:1012800063FFFEBD38480021243000F06EFB394674
:10129000206A04F079F92EE033480021243000F070
:1012A00064FB394F18E03F210906206A04F06CF90D
:1012B00020620A2002F034FE3946206A04F0AAF9BE
:1012C000FFF7A2FC0246042310213A200096019564
:1012D00003F03AFF00F05BFF1B2003F00DFC002839
:1012E000E1D0B9E7204800213C3000F03EFB394610
:1012F000206A04F0E7F92062AEE71B4800213C3089
:1013000000F033FB204F18E03F210906206A04F06B
:10131000D9F920620A2002F003FE3946206A04F05F
:1013200079F9FFF771FC0246042310213A20009658
:10133000019503F009FF00F02AFF242000E004E0FB
:1013400003F0DAFB0028DFD086E70C48216A8160D1
:1013500003F0E8FF0020608103F01AF9022003F097
:10136000EFFFFFF741FD77E718F1FF1F4469726354
:1013700074696F6E204B6400D8F0FF1FC4F1FF1F2B
:1013800015F1FF1F4B643A0000002041FEB55E4C92
:101390002089002816D160495CA088615F484068B8
:1013A000E061084600F086FF2046243000F089FB0B
:1013B00020463C3000F085FB2046543000F081FB95
:1013C0000120208156483F2700783F0618250C262B
:1013D000012827D003282FD0072853D009285CD014
:1013E00004287CD048480121243000F0BEFA464849
:1013F00001213C3000F0B9FA0C234AA2102114203C
:10140000009503F035FF4849E06904F003F9FFF760
:10141000FBFB0246042310213A200096019503F0BD
:1014200093FEFEBD38480021243000F09EFA394674
:10143000E06904F0A9F82EE033480021243000F0E0
:1014400094FA394F18E03F210906E06904F09CF84E
:10145000E0610A2002F064FD3946E06904F0DAF840
:10146000FFF7D2FB0246042310213A200096019593
:1014700003F06AFE00F08BFE1B2003F03DFB00280A
:10148000E1D0B9E7204800213C3000F06EFA39463F
:10149000E06904F017F9E061AEE71B4800213C3039
:1014A00000F063FA204F18E03F210906E06904F0DC
:1014B00009F9E0610A2002F033FD3946E06904F0E1
:1014C000A9F8FFF7A1FB0246042310213A20009659
:1014D000019503F039FE00F05AFE242000E004E0FC
:1014E00003F00AFB0028DFD086E70C48E169416081
:1014F00003F018FF0020208103F04AF8022003F0D7
:101500001FFFFFF771FC77E718F1FF1F4469726353
:1015100074696F6E204B6900D8F0FF1FC4F1FF1F84
:1015200015F1FF1F4B693A0000002041FEB55E4CEB
:10153000E088002816D160495CA088615F48006897
:10154000A061084600F0B6FE2046243000F0B9FA4B
:1015500020463C3000F0B5FA2046543000F0B1FA95
:101560000120E08056483F2700783F0618250C26CA
:10157000012827D003282FD0072853D009285CD072
:1015800004287CD048480121243000F0EEF9464878
:1015900001213C3000F0E9F90C234AA2102114206B
:1015A000009503F065FE4849A06904F033F8FFF7A1
:1015B0002BFB0246042310213A200096019503F0EC
:1015C000C3FDFEBD38480021243000F0CEF9394675
:1015D000A06903F0D9FF2EE033480021243000F049
:1015E000C4F93A4F18E03F210906A06903F0CCFF87
:1015F000A0610A2002F094FC3946A06904F00AF8C0
:10160000FFF702FB0246042310213A2000960195C1
:1016100003F09AFD00F0BBFD1B2003F06DFA0028DB
:10162000E1D0B9E7204800213C3000F09EF939466E
:10163000A06904F047F8A061AEE71B4800213C30E8
:1016400000F093F9214F18E03F210906A06904F04A
:1016500039F8A0610A2002F063FC3946A06903F062
:10166000D9FFFFF7D1FA0246042310213A20009651
:10167000019503F069FD00F08AFD242000E004E0FC
:1016800003F03AFA0028DFD086E70C48A169016030
:1016900003F048FE0020E08002F07AFF022003F011
:1016A0004FFEFFF7A1FB77E718F1FF1F4469726354
:1016B00074696F6E204B7000D8F0FF1FC4F1FF1FDC
:1016C00015F1FF1F4B703A000000C8420000204196
:1016D000F8B5244C05462078002841D0284603F070
:1016E0007AFB60610021A0616956814201DD002022
:1016F00028701C482978007D1A4C401AC6B258340C
:1017000068782169884200D80026164866615830FA
:1017100000F0D0FD1348743086616978016100F0F3
:101720003BFD20696978C7B2814200D20F46002490
:101730000AE030191C21484342192001011B1E20D8
:10174000133100F049FC641CBC42F2DB05491C2249
:101750008869504340190122086182700020087096
:10176000F8BD000080F0FF1FF8B5002A7ED05400BD
:1017700054438718012B41D0861A022B7BD0032BB0
:1017800076D0042B72D11546002600910098069A57
:10179000C1B2B8B200F057FC0098761C401E009011
:1017A0006800024671006A4371435118091B081A08
:1017B000401C002801DD6D1E7F1EAE42E6DB009856
:1017C000069AC1B2B8B200F03EFC28464100700053
:1017D0006D1E891E0246694372438918091B081849
:1017E000401C7F1E002803DC0098401E761C0090E1
:1017F000002DE4DC0098C1B2B8B276E000970D4647
:10180000164600270098E9B280B2069A00F01BFC49
:1018100070007F1C01467A0071437A438918091BC6
:10182000081A401C6D1C002803DD0098401E761E1F
:101830000090B742E6DB0098E9B280B2069A00F069
:1018400002FC00993046491E009141007800761E46
:10185000891E024671437A438918091B0818401CE7
:10186000002801DC6D1C7F1C002E02E040E002E03D
:101870003FE0E0DC75E01546002700910098069AED
:10188000C1B2B0B200F0DFFB00987F1C401C00909A
:101890006800024679006A4379435118091B081A07
:1018A000401C002801DD6D1E761CAF42E6DB00986F
:1018B000069AC1B2B0B200F0C6FB284641007800DB
:1018C0006D1E891E024669437A438918091B081850
:1018D000401C761C002803DC0098401C7F1C0090F4
:1018E000002DE4DC0098C1B2B0B2069A00F0ABFB68
:1018F000F8BD00960D46164600270098E9B280B262
:10190000069A00F0A0FB70007F1C0246790072432B
:1019100079435118091B081A401C6D1E002803DD6D
:101920000098401C761E0090B742E6DB0098E9B2B2
:1019300080B2069A00F087FB00993046491C00915E
:1019400041007800761E891E024671437A43891849
:10195000091B0818401C002801DC6D1E7F1C002E8E
:10196000E4DC0098E9B280B2BFE77CB50446C06809
:101970000D460E287DD3A0681E287AD3206903F077
:1019800023FAA168884274D825750C2661682068FE
:10199000002D11D00122801D891D00F02AF9206937
:1019A00003F012FAA168081A2188400840180021A3
:1019B00080B2009601916CE00022801D891D00F02C
:1019C00018F9012500952068616803230622801D0F
:1019D000891DFFF7C9FE0095A1682068421861685B
:1019E000801D0B46D21F00F090FA0095A168206878
:1019F0000423401861680622C01F891DFFF7B4FE4A
:101A00000095E1686068A268411820684B1E821842
:101A1000801D491ED21F00F078FA0095E1686068C9
:101A2000A26841182068012380180622C01FC91F20
:101A3000FFF79AFE00956168E0680B182068891D21
:101A40000246DB1F00F061FA0095E168606802233E
:101A5000411820680622801DC91FFFF785FE0095EA
:101A60006168E068A2680B1820688018421E401E5A
:101A700000E018E0891DDB1F00F047FA206903F041
:101A8000A3F9A168081A21884008401880B200967E
:101A90000195E168A2880C394908511889B20C23D4
:101AA000226903F0E3FC7CBD38B51446C9B280B2AC
:101AB0006A4600F005FB68460178012061408843D2
:101AC00038BD7CB50446C0680E287BD3A0681E28AC
:101AD00078D3206903F078F9A168884272D801258B
:101AE00000952068616803230622801D891DFFF789
:101AF0003BFE0095A168206842186168801D0B4676
:101B0000D21F00F002FA0095A16820680423401853
:101B100061680622C01F891DFFF726FE0095E16857
:101B20006068A268411820684B1E8218801D491EFB
:101B3000D21F00F0EAF90095E1686068A2684118D8
:101B40002068012380180622C01FC91FFFF70CFE62
:101B500000956168E0680B182068891D0246DB1F4C
:101B600000F0D3F90095E16860680223411820680D
:101B70000622801DC91FFFF7F7FD00956168E06828
:101B8000A2680B182068891D8018421E401EDB1FAA
:101B900000F0BBF9207D0C26002814D02068616875
:101BA0000122801D891D00F024F8206903F00CF942
:101BB000A168081A218840084018002180B20096C8
:101BC00001910BE014E0206903F0FEF8A168081A07
:101BD00021884008401880B200960195E168A288EB
:101BE0000C394908511889B20C23226903F03EFCD4
:101BF0007CBDF7B5D8B00C460546802874D2402C81
:101C000072D2E1B2A8B250AA00F05AFA50A80278F3
:101C10005A98D107C007C90FC00F814264D021462E
:101C20002846559400F027FA0646569050A80278A8
:101C30002146284600F04CFA549080194008299417
:101C40000194289001240090254601E0002D7BD0CE
:101C5000E90028A808188038816F5291C66F50A8F3
:101C60006D1E0278EDB23146529800F004FA53909E
:101C700050A802783146529800F02AFA519050A8A4
:101C80000278761C31465298FFF70EFF002804D0E8
:101C900050A802783146529815E0539F08E050A8AA
:101CA000027831463846FFF7FFFE002803D17F1C3B
:101CB00051988742F3D951988742C7D850A8529774
:101CC00002783146384600F003FA519050A8027865
:101CD0003146529800F0CFF95390142C1FD2471E72
:101CE00058975990074617E07EE050A80278711E79
:101CF0003846FFF7D9FE002827D0599958988842CE
:101D000007D05891E00069460F504018641CE4B2B7
:101D10004660142C03D27F1C51988742E5D9539911
:101D200051985A9B4018400852905198F1B282B293
:101D3000539880B200F0D5F8142DA0D2539F599734
:101D40007F1E5897599F19E01FE05997E1E750A867
:101D50000278711C3846FFF7A7FE002813D0599966
:101D60005898884207D05891E80028A90F50401889
:101D70006D1CEDB24660142D81D27F1C51988742B4
:101D800000D97CE7E3E75997F5E7002C20D0E10084
:101D9000684608188038816F5291C66F50A8641E3B
:101DA0000278E4B23146529800F065F9539050A899
:101DB00002783146529800F08BF9074650A8027815
:101DC000761E31465298FFF76FFE00280ED020E0B5
:101DD000002D00D03AE754985A9B82B25598C1B270
:101DE000569880B200F07DF85BB0F0BD539809E0E2
:101DF00050A8027831465198FFF756FE002804D1CA
:101E00005198401C5190B842F2D95198B842BCD870
:101E1000529050A802783146529800F059F907467E
:101E200050A802783146529800F025F95390142DAD
:101E300020D25990401E5890599818E050A8027826
:101E4000711C5198FFF730FE002826D059995898F8
:101E5000884208D05891E80028A9519A0A504018A1
:101E60006D1CEDB24660142D04D25198401C519067
:101E7000B842E3D95398BAB23818400852905398F0
:101E8000F1B280B25A9B00F02CF8142C96D25398E1
:101E90005990401E589059981BE051985990E2E78C
:101EA00050A80278711E5198FFF7FEFD002815D04A
:101EB00059995898884208D05891E0006946519A3B
:101EC0000A504018641CE4B24660142CDED25198CB
:101ED000401C5190B84200D970E7E1E75198599001
:101EE000F3E7F8B515461E460F460446A84202D948
:101EF000D0B22546044632463946204600F0A3F8C3
:101F0000641CA4B2A542F6D2F8BDFFB583B0054665
:101F100005980C46411B06980027021BFF43002929
:101F200002DD0120029002E0002904DA0297002A73
:101F300009DD012711E0C2B2E1B2A8B20C9B00F0AA
:101F400087F807B0F0BD002A07DB0598E1B282B23E
:101F5000A8B20C9BFFF7C5FFF3E702984843394648
:101F60005143420000924A00019288421CDB161A3B
:101F70000098101A00900EE0E1B2A8B20C9A00F09E
:101F800062F802982D18002E02DA0198361802E045
:101F900000988619E41905988542EDD1E1B2A8B2FE
:101FA0000C9A00F050F8CCE70098461A801A01907D
:101FB0000EE0E1B2A8B20C9A00F045F8E419002E48
:101FC00002DA0098361803E00198861902982D1855
:101FD00006988442EDD1E1E7FEB514460D4606466B
:101FE000802805D8402D03D8022D01D3122E01D20E
:101FF0000020FEBDE0680028FBD0A2783046102308
:10200000A91E12380C27002A12D06268002A04D0B8
:10201000C9B2C0B2009303F0D4F800200190009739
:10202000A9B2B0B20C23E26803F020FA0120FEBD91
:10203000A268002A05D00093C9B2C0B2102303F0F1
:10204000C0F80120EAE710B5C0B202F0C9FF10BD28
:10205000F8B515461E4607460C46A94201D90D465D
:102060001446324621463846FFF7EDFF641CE4B2C1
:10207000A542F6D2F8BDF8B5D507441EED0F0E46C1
:10208000002C0ED0F1B2A0B26A4600F019F86846F2
:102090000078C007C00FA84201D0601CF8BD641EC4
:1020A000F0D1F1B200206A4600F00AF868460078E4
:1020B000C007C00FA84201D00120F8BD0020F8BD24
:1020C00010B51446C0B202F0A7FF2070002010BD6A
:1020D000F8B5441CD5070E46ED0F0DE0F1B2A0B2E5
:1020E0006A46FFF7EDFF68460078C007C00FA842B8
:1020F00001D0601EF8BD641C802CEFD38020F8BD99
:10210000F8B51C4615460E46074692B2C9B280B2D3
:10211000069BFFF7E6FEAAB2E1B2B8B2069BFFF754
:10212000E0FEE2B2F1B2B8B2069BFFF791FFE2B275
:10213000F1B2A8B2069BFFF78BFFF8BDF8B51746C2
:102140001E460C460546B84201D915460746B4421C
:1021500001D91C460E46B44206D1BAB2E1B2A8B2C9
:10216000069BFFF7BEFEF8BDBD420DD1F2B2E1B253
:10217000A8B2069BFFF76CFFF8BDBAB2E1B2A8B2F5
:10218000069BFFF7AEFE641CB442F6D9F8BD10B54D
:1021900002F056FF10BD0000F8B5040052D0A2684E
:1021A0000A2A4FD3E06814284CD3012500956168B2
:1021B0000B1820685B1E8218521EFFF7A1FF08262D
:1021C0000096208921780838400808182179C0B283
:1021D000491CC9B233461C4A02F0F3FF009620792D
:1021E000217B227840180938C1B220890823083899
:1021F00040081018144AC0B2083202F0E2FF0095FD
:10220000A168206842186168521E09310B46FFF729
:102210007CFE0095E1686068A268411820680A3970
:1022200082180B46521EFFF770FEE0686269216952
:1022300014388A4202D25043FDF7EAFFE06120469B
:1022400000F004F8F8BD0000BA7E0000FEB50446B8
:102250008189808B091A14398EB22188491C8AB26F
:102260000192A188721E0A318DB280182189002244
:102270000092C91E019A89B280B257182B183A46AB
:1022800029460198FFF75AFF21696069814201D808
:10229000002005E0A069491E7043FDF7B9FF80B238
:1022A000012100912918E269019853183A46FFF775
:1022B00045FFFEBDFEB58168044614293BD3E368A3
:1022C000142B38D320684218802A34D86168CB1880
:1022D000402B30D80025521E5B1E0095FFF72EFFC5
:1022E000012600966168E068A2680B1820685B1EF2
:1022F0008218521EFFF704FF20882189174B4118CE
:10230000491E8AB2217980B20E31C9B21B78FFF71B
:10231000E8FD0096A168206842186168521E0B46CD
:102320000D33FFF70BFFA06902F063FD0246A068C2
:10233000811E8A4201D90020FEBD80B20C21019588
:1023400000910290A0880C23401C81B22088A269D1
:1023500080B203F0E3F80120FEBD000076F0FF1F1D
:1023600010B5242002F0C8FB10BD10B51C2002F0EF
:10237000C3FB10BD10B51B2002F0BEFB10BD00005A
:10238000F8B50F4D0024A8680E4E000712D50E4F69
:10239000387884420ED2E96820460C2250433258E5
:1023A000114204D080198068002800D08047641C46
:1023B000E4B2EDE7A86824210843A860F8BD000056
:1023C0000090074024F3FF1F62F0FF1FF8B50F4D88
:1023D0000024A8680E4E000712D50E4F38788442AC
:1023E0000ED2E96820460C2250433258114204D0E4
:1023F00080198068002800D08047641CE4B2EDE7B3
:10240000A86824210843A860F8BD000000A0074088
:1024100024F3FF1F62F0FF1F10B52C2002F06CFBAD
:1024200010BD10B501212D2002F082FB10BD10B5AA
:1024300000212D2002F07CFB10BD10B501212C20C5
:1024400002F076FB10BD10B500212C2002F070FBCD
:1024500010BD08B500206946C87048702C2008706F
:1024600001208870684602F083FA08BD08B5002094
:102470006A46D070012050702C211170907068460F
:1024800002F076FA08BD0000F0B500210F4D104FA4
:10249000104B0A4605261C204843401946708C0004
:1024A0008270476082601C5902614261491CC9B256
:1024B000C46082610529EED30120A8700648286116
:1024C0000648E86201488C306863F0BDDCFEFF1FFF
:1024D000CA7E0000B8F0FF1F314E0000014E000020
:1024E000F8B5674E7068FFF7F3F86649002708787B
:1024F000002800D0F760624C583401285BD00728D0
:1025000054D13E237522122101200097FFF716FEB9
:10251000B0691C2148437168401830618770B06908
:10252000401CB06172685178491E814200DCB16183
:10253000B0691C21484380180121306181707268A4
:102540001078401C43B21370204651782469A14290
:1025500005D80D468B420EDB491E11700BE0E5B22B
:10256000641EA34207D914700269891A4269914214
:1025700001D9521C4261002410E041481C2158300E
:1025800040694843716841181C2060430A182001C3
:10259000011B1E201331FFF71FFD641CAC42ECDB56
:1025A0003748B16974308161FFF750FE35480078D3
:1025B000042849D04DE03E237522122101200097C6
:1025C000FFF7BCFDB1691C22514372688818306165
:1025D0008770B069401EB061002800DCB761B06947
:1025E0001C21484371684018012130618170716875
:1025F0000878401E42B20A704D78236920469D42F9
:1026000003D8002A0ADA0F7008E0DDB2002A05DAE2
:102610000F704169002901D0491E6161002410E05A
:1026200017481C21583040694843716841181C20E4
:1026300060430A182001011B1E201331FFF7CCFC58
:10264000641CAC42ECDBABE730690069002800D0C9
:102650008047F068411CF16064280FDDF760306945
:102660004169002908D0877070691C21484371684E
:10267000401801213061817002F082FBF8BD00003A
:1026800080F0FF1F15F1FF1F8307FF22DB0E9A402A
:102690008907090E994000280BDA0007000F083857
:1026A000830808489B001818C36993430B43C36110
:1026B0007047830804489B001818036893430B4332
:1026C0000360704700ED00E000E400E0F0B5002199
:1026D000154B164C164E0A4607251C204843C018B9
:1026E00082610261446082608F0082704570426145
:1026F000491CF759C9B2C7600729EED30120987069
:102700000C4818610C48D8620C4898640C4858660C
:1027100005480C49803001600B49C16102498C3980
:1027200001640A498163F0BDF4FFFF1FCA7E000007
:102730009CF0FF1FBD4E0000A54E00008D4E000016
:10274000754E00005D4E0000454E0000014E000039
:1027500010B5074CE068C00704D0064800680028A0
:1027600000D08047E06801210843E06010BD000010
:102770000071034040F0FF1F10B5074CE069C0072F
:1027800004D006484068002800D08047E069012155
:102790000843E06110BD00000071034040F0FF1FDE
:1027A000F0B50021104C114B114E0A4603251C2098
:1027B0004843001945708261026143608F00826066
:1027C00082704261491CF759C9B2C7600329EED330
:1027D00001200549A0708C31A1610648FF392061B4
:1027E00019392165A064F0BD68FFFF1FCA7E000093
:1027F000CCF0FF1F014E000010B5074C6078002898
:1028000008D0201DFFF756FD20462030FFF7C4FCFE
:102810000020607010BD000084F1FF1FFEB5FFF7BF
:10282000EBFF7A487A4D00782E460C240627403E6E
:10283000002802D0012868D0C5E0062375A20F2128
:102840000320009402F014FD714800978038019431
:10285000C28D03230F211B2002F076FC06236FA2FA
:102860000F214120009402F003FD00970194F28AA9
:1028700003230F215F2002F067FC062369A22121B8
:102880000320009402F0F4FC009701947288032363
:1028900021211B2002F058FC062364A221214120A3
:1028A000009402F0E5FC00970194728D032321212E
:1028B0005F2002F049FC06235EA23221032000942F
:1028C00002F0D6FC5D4EE86A314602F0A3FEFEF748
:1028D00075F902B2032332211B200097019402F004
:1028E00033FC062356A232214120009402F0C0FCA2
:1028F0003146286B02F08EFEFEF760F902B2032328
:1029000032215F20009701945BE006234EA20F2145
:102910000320009402F0ACFC009701946A88042321
:102920000F211B2002F010FC062349A20F213720A3
:10293000009402F09DFC00970194AA8804230F21C3
:10294000552002F001FC062343A22121032000941C
:1029500002F08EFC3E2200970194B25E04232121F6
:102960001B2002F0F1FB06233DA221213720009419
:1029700002F07EFC002200970194AA5E042321212C
:10298000552002F0E1FB062337A2322103200094F8
:1029900002F06EFC1E4D0097803D01942A8E0323A9
:1029A00032211B2002F0D0FB06232FA23221372038
:1029B000009402F05DFC009701942A8E03233221DB
:1029C000552002F0C1FB2A48104A00780121121D4F
:1029D000072809D001280FD0042804D1101F417006
:1029E000002002F0ADFCFEBD08480378002BFAD1B0
:1029F000017041701FA007E004480378012BF2D159
:102A000000230370417020A09061FEBD84F1FF1F80
:102A100044F2FF1F485F4C3A00000000485F523A02
:102A200000000000565F4C3A00000000565F523A2A
:102A3000000000004841453A000000000000C84284
:102A40005641453A000000004C5F453A0000000046
:102A5000525F453A000000004C5F503A0000000011
:102A6000525F503A000000004E6F723A00000000C2
:102A700015F1FF1F4D6F746F7220506172616D65AB
:102A8000746572730000000053656E736F7220509E
:102A90006172616D6574657273000000F0B5034684
:102AA000084649008C465C5A15E0521E904203DAF3
:102AB0005100595AA142F8D25100904204DA5D5AAD
:102AC000A54201D8401CF8E7904204DA46009D5B1D
:102AD0005F5A9F535D529042E8DB41005D5A624667
:102AE0009D525C52F0BD0000FEB55E4CA0880028EF
:102AF00016D160495CA088615F48006A6061084641
:102B0000FFF7D8FB20462430FEF7DBFF20463C30A1
:102B1000FEF7D7FF20465430FEF7D3FF0120A080F8
:102B200056483F2700783F0618250C26012827D055
:102B300003282FD0072853D009285CD004287CD044
:102B4000484801212430FEF710FF464801213C305F
:102B5000FEF70BFF0C234AA210211420009502F06F
:102B600087FB4849606902F055FDFEF74DF80246C3
:102B7000042310213A200096019502F0E5FAFEBDEB
:102B8000384800212430FEF7F0FE3946606902F033
:102B9000FBFC2EE0334800212430FEF7E6FE394FDF
:102BA00018E03F210906606902F0EEFC60610A202E
:102BB00001F0B6F93946606902F02CFDFEF724F801
:102BC0000246042310213A200096019502F0BCFA37
:102BD000FFF7DDFA1B2001F08FFF0028E1D0B9E7F5
:102BE000204800213C30FEF7C0FE3946606902F003
:102BF00069FD6061AEE71B4800213C30FEF7B5FE81
:102C0000204F18E03F210906606902F05BFD60611A
:102C10000A2001F085F93946606902F0FBFCFDF7F6
:102C2000F3FF0246042310213A200096019502F09A
:102C30008BFAFFF7ACFA242000E004E001F05CFF1F
:102C40000028DFD086E70C486169016202F06AFB68
:102C50000020A08001F09CFC022002F071FBFEF736
:102C6000C3F877E718F1FF1F5370656564204B6464
:102C700000000000D8F0FF1FC4F1FF1F15F1FF1F77
:102C80004B643A0000002041FEB55E4C608800288D
:102C900016D160495CA088615F48C0692061084620
:102CA000FFF708FB20462430FEF70BFF20463C30A0
:102CB000FEF707FF20465430FEF703FF0120608037
:102CC00056483F2700783F0618250C26012827D0B4
:102CD00003282FD0072853D009285CD004287CD0A3
:102CE000484801212430FEF740FE464801213C308F
:102CF000FEF73BFE0C234AA210211420009502F09F
:102D0000B7FA4849206902F085FCFDF77DFF0246CD
:102D1000042310213A200096019502F015FAFEBD19
:102D2000384800212430FEF720FE3946206902F0A1
:102D30002BFC2EE0334800212430FEF716FE394FDD
:102D400018E03F210906206902F01EFC20610A20DC
:102D500001F0E6F83946206902F05CFCFDF754FF0B
:102D60000246042310213A200096019502F0ECF966
:102D7000FFF70DFA1B2001F0BFFE0028E1D0B9E7F4
:102D8000204800213C30FEF7F0FD3946206902F072
:102D900099FC2061AEE71B4800213C30FEF7E5FDC1
:102DA000204F18E03F210906206902F08BFC2061CA
:102DB0000A2001F0B5F83946206902F02BFCFDF736
:102DC00023FF0246042310213A200096019502F0C9
:102DD000BBF9FFF7DCF9242000E004E001F08CFEF1
:102DE0000028DFD086E70C482169C16102F09AFA19
:102DF0000020608001F0CCFB022002F0A1FAFDF778
:102E0000F3FF77E718F1FF1F5370656564204B6986
:102E100000000000D8F0FF1FC4F1FF1F15F1FF1FD5
:102E20004B693A0000002041FEB55E4C2088002826
:102E300016D160495CA088615F488069E0600846FF
:102E4000FFF738FA20462430FEF73BFE20463C30A0
:102E5000FEF737FE20465430FEF733FE0120208077
:102E600056483F2700783F0618250C26012827D012
:102E700003282FD0072853D009285CD004287CD001
:102E8000484801212430FEF770FD464801213C30BE
:102E9000FEF76BFD0C234AA210211420009502F0CE
:102EA000E7F94849E06802F0B5FBFDF7ADFE0246E0
:102EB000042310213A200096019502F045F9FEBD49
:102EC000384800212430FEF750FD3946E06802F012
:102ED0005BFB2EE0334800212430FEF746FD394FDE
:102EE00018E03F210906E06802F04EFBE0600A208E
:102EF00001F016F83946E06802F08CFBFDF784FE1D
:102F00000246042310213A200096019502F01CF994
:102F1000FFF73DF91B2001F0EFFD0028E1D0B9E7F4
:102F2000204800213C30FEF720FD3946E06802F0E1
:102F3000C9FBE060AEE71B4800213C30FEF715FD01
:102F4000204F18E03F210906E06802F0BBFBE0607B
:102F50000A2000F0E5FF3946E06802F05BFBFDF770
:102F600053FE0246042310213A200096019502F0F8
:102F7000EBF8FFF70CF9242000E004E001F0BCFDC1
:102F80000028DFD086E70C48E168816102F0CAF9C9
:102F90000020208001F0FCFA022002F0D1F9FDF7B8
:102FA00023FF77E718F1FF1F5370656564204B70AE
:102FB00000000000D8F0FF1FC4F1FF1F15F1FF1F34
:102FC0004B703A000000204110B500F001F810BD30
:102FD00070B50F4900244868002805D04868401E95
:102FE000486001D1012008708868401C88608868AA
:102FF000084A904201D100208860074D14206043A8
:10300000401901F009F8641CE4B2062CF6D370BD37
:1030100068F0FF1FFFFFFF7F04F8FF1F10480F49F4
:103020008180012141702321017011200D4900058B
:1030300048620D48002141700C4A962111701A21F6
:1030400001700179C906FCD401790907890FFBD108
:1030500007490868400848608860704703E8000036
:10306000002005400080044000400640005006401B
:1030700034F0FF1FF8B5254A002013790146137973
:103080009B063ED5D279224D00262B78214C002B71
:1030900014D0012B17D0022B1DD0032B1ED0E778A4
:1030A0007F1D9F4202D9E2545B1C2B70E3782F787E
:1030B0005A1DBA4225D12E701A1D17E0AA2AF5D141
:1030C0002270012205E0AF2A01D02E70EEE7627077
:1030D00002222A70EAE7A2700322FAE7E2700422D1
:1030E000F7E7275C7918401CC9B2C0B28242F8D811
:1030F0000848001D185C884201D06E7001E0A0787D
:103100006870054800F0D6FFF8BD000000A006403A
:1031100074F0FF1FDCFCFF1FDCF5FF1F70477047DA
:1031200030B47446641E2578641CAB4200D21D4640
:10313000635D5B00E31830BC18470020704710B592
:1031400001F01EFB00F036FF00F07CFF00F01EFCDB
:1031500000F004FA00F025F900F04CFE00F09CFAB3
:1031600000F038FA00F004F800F092FD62B610BDED
:1031700038B51F484169202211434161C1680322CB
:1031800012069143C160C168012212061143C16059
:1031900018490A68920892000A600A6818231A43BC
:1031A0000A6000224A604169402421434161C168AC
:1031B000DC05A143C160C1680124E4062143C1606C
:1031C0000D48016801600168194301604260694669
:1031D000CA704A700A20087001208870684601F0A1
:1031E000C7FB262069460870684601F0C1FB38BD60
:1031F00000800440008003400090034010B5074861
:10320000074A81885368C9188180064B41885C68E9
:103210000919418000205060586010BD44F2FF1F22
:103220000080034000900340F8B5089C0D461E4600
:10323000079FA047A847B047052000F081FEB84788
:10324000052000F07DFEA047F8BDF8B5089C0D46AE
:103250001646079FA047A847B047052000F070FE1C
:10326000B847052000F06CFEA047F8BD0FB4FEB5CE
:10327000002508982C460D9F0C9E80470E9880478D
:10328000052000F05DFEB8476006040EB047012837
:1032900001D1641CE4B2032000F052FE6D1CEDB2BB
:1032A000082DEBD30F9808AD00280E9801970096D3
:1032B00002900FCD06D0FFF7B7FF2046FEBC08BC3A
:1032C00004B01847FFF7C1FFF7E70FB4F8B517468A
:1032D00000240C9E0D9D8847B047E80901D0B847EF
:1032E00001E0099880476806050E052000F028FED9
:1032F0000B988047052000F023FEB047022000F025
:103300001FFE641CE4B2082CE7D3F8BC08BC04B070
:103310001847F8B514461D46089F079E8847A047E2
:10332000B047042000F00CFEA847042000F008FE7F
:10333000B847F8BDF8B514461D46089F079E884754
:10334000B847A847042000F0FBFDB047A047042081
:1033500000F0F6FDF8BD0FB4FEB50CACE0CC08985B
:10336000002480470A988047012000F0E9FDB0471B
:10337000012000F0E5FD0EE0641CE4B2FA2C0AD94D
:103380006846E0C008AC0FCCFFF7D4FF0120FEBCBC
:1033900008BC04B01847A8470028EDD1B847002062
:1033A000F5E708B51B206A46107000205070012117
:1033B0009170D070684601F0DBFA01211B2001F00A
:1033C000B7FB1C206A461070684601F0D1FA012153
:1033D0001C2001F0ADFB24206A461070684601F005
:1033E000C7FA0121242001F0A3FB00F057F808BD23
:1033F00070B505460C20284968434418206880476A
:103400006A0005210026AB180028207903D0052882
:1034100030D921713CE0052801D2217170BD0A2804
:1034200002D2401C207170BD690060796D186D1C5E
:10343000012803D16671E8B200F06AF860890028BB
:1034400009D02089401C80B2208161898842EAD15C
:10345000DB1CD8B20BE0A0790028E4D0E079401C56
:10346000C0B2E071A1798842DDD3E671E8B200F024
:103470004FF870BD002802D0401E207108E060792E
:10348000002805D1012060719B1CD8B200F040F8E3
:10349000E671268170BD00009CF8FF1F70B50F48D3
:1034A00000218172C172012403460170322510335C
:1034B0000A46047302260C204843C0184581067151
:1034C0004471491CC271C9B282710329F3D3044803
:1034D00018600448D8600448986170BD8CF8FF1FDC
:1034E000752300006B23000061230000074A917AD6
:1034F000D07A814201D100207047505C491CC9B28A
:1035000091720A29F8D30021917270478CF8FF1F3D
:1035100009280AD80549CA7A8854C87A401CC0B21A
:10352000C8720A2801D30020C87270478CF8FF1FA8
:1035300010B5002401211B2001F0FAFA01211C2002
:1035400001F0F6FA0121242001F0F2FA2046FFF7FB
:103550004FFF641CE4B2032CF8D310BD08B518204B
:10356000694608700120887048700020C87068465D
:1035700001F0FEF9192069460870684601F0F8F973
:10358000002000F001F808BD10B5002804D0012883
:103590000BD0022808D103E00021182001F0C8FA5E
:1035A0000021192001F0C4FA10BD00211820F9E70C
:1035B00010B5002804D0012809D0022806D102E065
:1035C000182001F0A7FA192001F0A4FA10BD182064
:1035D000FAE700003EB500246946CC72012048722B
:1035E000252008728C7202A801F0C2F90021252062
:1035F00001F09EFA0E48694608800F200871CC80C1
:10360000684601F019F90A48694642300880684660
:1036100001F012F9074869460880684601F00CF984
:1036200003486946E8300880684601F005F93EBD68
:1036300030A40000F6A80000F8B5154F0546144860
:10364000423703260C46002905DBCC1CA1B201F051
:1036500075F9032104E0032101F070F9301B81B2F8
:10366000384601F06BF90A4C0A48E834002D05DBB6
:10367000ED1CA9B201F062F9032104E0032101F07D
:103680005DF9701B81B2204601F058F9F8BD0000C9
:1036900030A40000F6A8000010B500F039F8802131
:1036A0006B2000F011F9C82000F03AFC00216B20DB
:1036B00000F00AF9032000F0CEF8002000F0C4F872
:1036C000142000F0E9F800216A2000F0FDF8002144
:1036D000232000F0F9F88021372000F0F5F80021D0
:1036E000382000F0F1F8752000F044F8682801D087
:1036F000012010BD01216B2000F0E6F800216C20B4
:1037000000F0E2F8322000F0C7F8002010BD000001
:1037100008B500206A46D070012050702C2111702D
:103720009070684601F024F92D206A4610706846B2
:1037300001F01EF9084807494161084981610849BB
:1037400081600849C1600849016008494160084931
:10375000016108BD23240000C0FCFF1F2F240000CE
:103760003B24000047240000532400006D24000087
:10377000192400007FB5334C05462046103007C899
:103780006B4607C30FCC103CFFF7C3FDD0201034AD
:10379000039007CC6B4607C31C3C0FCC103CFFF7D3
:1037A00094FD103407CC6B4607C31C3C0FCC103C77
:1037B000FFF7D1FD1034039507CC6B4607C31C3CC3
:1037C0000FCC103CFFF781FD103407CC6B4607C3CC
:1037D0001C3C0FCC103CFFF7BEFD103407CC6B46F1
:1037E00007C31C3C0FCC103CFFF793FDD1201034D5
:1037F000039007CC6B4607C31C3C0FCC103CFFF773
:1038000064FD103407CC6B4607C31C3C0FCC103C46
:10381000FFF7A1FD00201034039007CC6B4607C3CF
:103820001C3C0FCC103CFFF721FD0546103407CCA3
:103830006B4607C31C3C0FCCFFF77CFD284604B049
:1038400070BD0000C0FCFF1FC00610B5010E1C209B
:1038500000F03AF810BDC00610B5010E1B2000F0B4
:1038600033F810BD10B5BC2801D3012110E0622847
:1038700001D302210CE02A2801D3032108E01428F7
:1038800001D3042104E00A2801D3052100E0062128
:103890001A2000F019F810BD10B504467D20C000B4
:1038A000844201D9044602E0042C00D204242146BB
:1038B000FCF7AEFC401EC1B2192000F005F860080C
:1038C000FFF7D0FF10BD00007FB52F4C0646204605
:1038D0000D46103007C86B4607C30FCC103CFFF7EE
:1038E00018FDD0201034039007CC6B4607C31C3C56
:1038F0000FCC103CFFF7E9FC103407CC6B4607C334
:103900001C3C0FCC103CFFF726FD002827D1204699
:103910001030039607C86B4607C30FCC103CFFF767
:10392000D4FC103407CC6B4607C31C3C0FCC103CB6
:10393000FFF711FD1034039507CC6B4607C31C3C01
:103940000FCC103CFFF7C1FC103407CC6B4607C30B
:103950001C3C0FCC103CFFF7FEFC00280AD0204690
:10396000103007C86B4607C30FCCFFF7E3FC0120FC
:1039700004B070BD2046103007C86B4607C30FCC9B
:10398000FFF7D8FC0020F3E7C0FCFF1F10B500F0E4
:103990007DF80121432001F0CBF8642000F0C0FA4B
:1039A0000021432001F0C4F8642000F0B9FA01219D
:1039B000432001F0BDF80021AE2001F087FC00217A
:1039C000D52001F083FC0021502001F07FFC002174
:1039D000A82001F07BFC00213F2001F077FC0021B2
:1039E000D32001F073FC0021084601F06FFC002198
:1039F000402001F06BFC00218D2001F067FC0021CC
:103A0000142001F063FC0021202001F05FFC002164
:103A1000022001F05BFC0021A12001F057FC0021F5
:103A2000C02001F053FC0021DA2001F04FFC0021FE
:103A3000122001F04BFC0021812001F047FC002105
:103A4000EF2001F043FC0021D92001F03FFC0021D0
:103A5000F12001F03BFC0021DB2001F037FC0021CC
:103A6000302001F033FC0021A42001F02FFC0021C4
:103A7000A62001F02BFC0021AF2001F027FC01F073
:103A800099FA0021084600F026F810BD08B500207C
:103A90006A46D070012151702321117090706846E0
:103AA00000F066FF42206A461070684600F060FF32
:103AB00017206A461070684600F05AFF43206A4695
:103AC0001070684600F054FF16206A461070684671
:103AD00000F04EFF08BD10B50446B031C8B2002159
:103AE00001F0F4FB20090021103001F0EFFB20076A
:103AF000000F01210843002101F0E8FB10BD000088
:103B0000F0B587B0002005900190029003900490DA
:103B1000102000210090082353A2084601F0A8FBC2
:103B200001F08EFA544F00203D46403514214143A8
:103B30000022C919401C0A8680B24A860428F5D39F
:103B400005984E49884269D20026002E06D0012EE3
:103B500013D0022E1FD0032E3AD12AE001200021DB
:103B6000800300F055FD444920314A7B5200D219B0
:103B70001087487B401C48732AE001200021800206
:103B800000F046FD69784900C9194031888168789C
:103B9000401C68701CE001200021C00200F038FDCC
:103BA000697D4900C91940310884687D401C6875E9
:103BB0000EE001200021C00300F02AFD2E496031F3
:103BC0004A7A5200D21940329086487A401C487294
:103BD00014207043C41920462030417B042901D3AE
:103BE00000214173204638300322002101F0B9FC46
:103BF000218EE08F814200D22086618E208F81420B
:103C000000D96086761CB6B2042E9ED3052000F043
:103C100087F90598401C80B2059092E7002001AB1F
:103C200014214143C91942000C8E9C528031D21894
:103C3000401C498880B211810428F1D310200090E3
:103C400008230FA20221002001F012FB01F0F8F975
:103C5000FD2000F081FD0023102201A9FD2000F0CD
:103C6000C1FD07B0F0BD000043616C696272617410
:103C7000696F6E2E2E2E0000C4F1FF1FB80B0000DE
:103C800043616C6962726174696F6E204F4B2100F1
:103C90000EB533208002009001216A461171002088
:103CA00090721072507120235372D172D071684695
:103CB00000F0D6FC0EBD0000F8B50024142021460B
:103CC00041430A480D18288E6E8E801BFCF7D8FFE2
:103CD0000746E88D801BFCF7D3FF3946FCF7BEFE94
:103CE000641CE4B26863042CE8D3F8BDC4F1FF1F80
:103CF000F8B53F4E002534464034002D06D0012D46
:103D000013D0022D1FD0032D3AD12AE0012000212B
:103D1000800300F07DFC364920314A7B5200921925
:103D20001087487B401C48732AE001200021800254
:103D300000F06EFC61784900891940318881607813
:103D4000401C60701CE001200021C00200F060FCFB
:103D5000617D4900891940310884607D401C60758F
:103D60000EE001200021C00300F052FC2049603128
:103D70004A7A5200921940329086487A401C487222
:103D8000142068438019014620314A7B042A01D35C
:103D900000224A7301462E310422383001F002F825
:103DA000FFF78AFF6D1CEDB2042DA6D3756BF46D81
:103DB0002946204601F0E8FB07462946204601F047
:103DC00081FC3946FCF74AFE094C8034E062356FCD
:103DD000B66C2946304601F0D7FB074629463046E7
:103DE00001F070FC3946FCF739FE2063F8BD000095
:103DF000C4F1FF1F08B500206946C870487028202C
:103E0000087001208870684600F0B2FD012128206A
:103E100000F034FE0121282000F08AFE29206946A6
:103E20000870684600F0A4FD0121292000F026FE5C
:103E30000121292000F07CFE342069460870684684
:103E400000F096FD0121342000F018FE01213420FD
:103E500000F06EFE372069460870684600F088FD65
:103E60000121372000F00AFE0121372000F060FE1A
:103E700008BD70B5282000F03FFE0446292000F060
:103E80003BFE40000443E4B2342000F035FE8500E0
:103E9000372000F031FEC0000543E8B2204370BD7A
:103EA000F0B585B01546022803D90020C04305B0FF
:103EB000F0BD0C4EC400325D012A0FD06A4610706E
:103EC000012757700320107268460395019100F096
:103ED00045FE3755A01945600020E8E70120C043A2
:103EE000E5E700007CF8FF1F70B5062802D9002026
:103EF000C04370BD1424094D60434419267B012E34
:103F000009D06160002666702B5401202073A160E7
:103F10003046226170BD0120C04370BD04F8FF1F10
:103F2000002809D0012800D102200449486000205F
:103F3000087008780128FCD17047000068F0FF1F66
:103F4000F8B50D4E0746756900240D480B49006809
:103F5000FCF75EF97843B1690246B0698842FCD04B
:103F6000884201D2091A01E02B1A59180C1901468E
:103F70009442F2D3F8BD000000E000E040420F00A0
:103F800034F0FF1F70B5022802D90020C04370BD75
:103F9000074DC400295D002906D000F03BFE00203B
:103FA00028556119486070BD0120C04370BD0000F4
:103FB0007CF8FF1F70B50021124B0C4614224A43B7
:103FC000D0184460846044709C54491C0461C9B298
:103FD00004730629F2D30C487D21C9000068FCF760
:103FE00017F90A49401E88420BD809494861094817
:103FF0000723C2691202120A4D042A43C2618C616E
:104000000B6170BD04F8FF1F34F0FF1FFFFFFF00BE
:1040100000E000E004ED00E04168002910D04168B4
:10402000491E41600CD1012141700178012903D161
:1040300081684160002141700069002800D000477C
:10404000704700001FB50121022000F017FD01217B
:10405000032000F013FD00F051F8E1204002009031
:10406000012003900C206946488100200881C88007
:10407000094C8880204600F005FE08480168C87891
:1040800020221043C8700649D00108600121204653
:1040900000F0DCFD1FBD000000A00640DCF5FF1FA6
:1040A00000E100E0012801D000207047004870477F
:1040B000DCF5FF1F01680A79120701D50A79CA7970
:1040C0000A790A79120612D5828A002A10D0438A08
:1040D0004268D25CCA71418A491C89B24182828994
:1040E000914201D300214182818A491E8182704719
:1040F000C8784006400EC870704700000B480A4957
:1041000001600B498160014628314160FF21013186
:10411000C1818181002141830183C18281824182E9
:104120004162C1610162704700A00640DCF5FF1FDB
:1041300004F7FF1FF8B50023FFF7B4FF002820D0D5
:10414000002517E08489878A6E4637803688B44216
:10415000F9D9CC5C078A4668F455048A641CA4B279
:1041600004828689B44200D30582848A641C8482D6
:104170005B1C9BB29342E5D30068C1788022114357
:10418000C170F8BD10B5074C2078012809D0012076
:10419000207000F009F800F0BDF900F05DF8002093
:1041A000207010BD67F0FF1F10B5104C607800281C
:1041B0001AD0132814D008DC02280BD010280CD0F9
:1041C00011280DD012280DD10AE0142808D0152886
:1041D00008D105E000F00CF904E000F085F81020AB
:1041E00000F074F90020607010BD000074F0FF1F33
:1041F00070B588B00E460446154620216846FCF787
:1042000005F81B2D02D9002008B070BDAA20694610
:10421000087048708E70CD7000216846431908E020
:10422000625C461832711A79465C9219491C1A71FF
:10423000C9B2A942F4D32C462A1D05E01979065DBE
:104240008919641C1971E4B29442F7D301466A1DBE
:104250000120FFF76FFFD6E710B588B02021684630
:10426000FBF7D4FF1E486946C08F1D4C02120A702E
:1042700048704034208802128A70C870002008718B
:1042800048716088020A8A71C871002008724872F9
:10429000A088020A8A72C8721249A06801F0BAF9AD
:1042A000FCF78CFC020E69460A7302144A73021270
:1042B0008A73C8730B49E06801F0ACF9FCF77EFC27
:1042C000020E69460A7402144A7402128A74C8748F
:1042D0001422F1216846FFF78BFF08B010BD0000E3
:1042E00004F2FF1F0000204170B53D48417902797A
:1042F0000802104340BA00B2FCF7C2FC394D29460F
:10430000FCF7ACFB384C20603548C1798279080253
:10431000104340BA00B2FCF7B3FC2946FCF79EFB01
:1043200060602F48417A027A0802104340BA00B216
:10433000FCF7A6FC2946FCF791FBA0602848C17A4F
:10434000827A0802104340BA00B2FCF799FC294671
:10435000FCF784FBE0602248417B027B08021043AB
:1043600040BA00B2FCF78CFC2946FCF777FB2061D1
:104370001B48C17B827B0802104340BA00B2FCF7A5
:104380007FFC2946FCF76AFB60611548417C027C92
:104390000802104340BA00B2FCF772FC134D2946E4
:1043A000FCF75CFBA0610E48C17C827C08021043D4
:1043B00040BA00B2FCF764FC2946FCF74FFBE06111
:1043C0000748417D027D0802104340BA00B2FCF765
:1043D00057FC2946FCF742FB206200F0A3FF70BDAA
:1043E000DCFCFF1F00002041C4F1FF1F0000C84299
:1043F00030B585B014216846FBF708FF314C324DCB
:104400002068294601F006F9FCF7D8FB021269463C
:104410000A7048702946606801F0FCF8FCF7CEFB92
:10442000021269468A70C8702946A06801F0F2F845
:10443000FCF7C4FB021269460A7148712946E0681C
:1044400001F0E8F8FCF7BAFB021269468A71C871FC
:104450002946206901F0DEF8FCF7B0FB021269463C
:104460000A7248722946606901F0D4F8FCF7A6FB8D
:10447000021269468A72C8722946A06901F0CAF818
:10448000FCF79CFB021269460A7348732946E069EF
:1044900001F0C0F8FCF792FB021269468A73C873F8
:1044A0002946206A01F0B6F8FCF788FB021269463B
:1044B0000A744874122210216846FFF799FE05B06D
:1044C00030BD0000C4F1FF1F000020411CB50021D9
:1044D00000910191AA216A4611705170EF219170EB
:1044E0000721D17010710A48C178001D085C507115
:1044F000002069460B5C8A79401CD218C0B28A71D0
:104500000728F7D307220120FFF714FE1CBD000087
:10451000DCFCFF1F30B585B014216846FBF776FE42
:1045200019486A46C08D184C010A1170507016481F
:10453000164D4030418880340B0A9370D170C18A87
:104540000B0A13715171408D010A9171D071294686
:10455000E06A01F05FF8FCF731FB0104090E6A46DE
:10456000117250722946206B01F054F8FCF726FBBB
:104570000104090E6A469172D0720C22F22168463B
:10458000FFF736FE05B030BDC4F1FF1F0000C84282
:1045900010B5FDF779FFFEF703F9FEF797F810BDA8
:1045A00010B5FEF7A3FF194C0028607007D02078E3
:1045B000002804D1022000F0C3FE002060702078A3
:1045C0000300FEF7ADFD0A09200C060F1215181B9B
:1045D0001E20FEF723F916E000F0B4FC13E0FDF70F
:1045E0007FFF10E0FEF720FC0DE0FEF74DFB0AE038
:1045F000FEF77AFA07E0FCF799FF04E0FCF7C6FE45
:1046000001E0FCF7F3FDFDF7C2FD10BD14F1FF1F43
:1046100000220346D340DB0703D1521C92B2102A7A
:10462000F7D3C30300D51022800300D516220B4B0D
:104630009868084398609868986098689860586887
:104640005860D006C00E186018680006FCD51869BE
:10465000196880B2802291431960704700B003400E
:10466000F8B500260546012134463746480700F0D4
:10467000E1FA354B98692968084398619868A979E7
:10468000084398609868697A084398609868A97A9E
:10469000084398605868E97A08435860287A0128E6
:1046A00000D1202669794020012903D10643274AF9
:1046B00041021160E979002902D0D9680143D9602B
:1046C0002868D9682A79521ED2B21143D96020498C
:1046D0000246E240D207D20F11D0E206D20E1A4BA8
:1046E00032431A601B4B01221B78A2409C469B0060
:1046F000CA5063465B1C174A7F1C1370FFB22A79AD
:10470000BA4203D9641CE4B2102CE1D3C2030BD526
:1047100010220D4B32431A600E4B01241A782404E8
:1047200095004C51521C1A7080030BD5162006437D
:1047300005480660074A012310785B0484000B518A
:10474000401C1070F8BD000000B0034000E100E024
:10475000C4F2FF1F48F0FF1F410210B507480022B6
:1047600042700A2343720B0C037201234370090A3F
:104770004172027200F020F8002010BD00000240DB
:1047800010B50121080300F055FA084C60790006C5
:10479000FCD5084806490068FBF73AFD401E800634
:1047A000800E4030E0703020607110BD000002408B
:1047B00040420F0038F0FF1F10B572B63020074C92
:1047C00060710749481F0160601D884762B66079C3
:1047D0003321084000D0012010BD0000000002403D
:1047E00055F0FF1FF8B50026400217460C46C518C5
:1047F0001CE010480021417006214172290C017211
:1048000001214170290A417205720221417021780B
:1048100001726178417203214170A1780172E178DF
:104820004172241D2D1DFFF7C7FF361DBE42E0D388
:104830000020F8BD00000240F1B582B002980024CB
:1048400000888206930F8205120F0092010702056D
:104850008504090F920FAD0FC00B8446334847699A
:104860006E1D0120B040314E07437761604600283D
:1048700015D007D030698B409843306130698A4049
:10488000104330612A480668029801797D20C000F3
:1048900041430F46300CFBF7BBFC01460BE0234EB7
:1048A000F0688B409843F060F0688A401043F060F5
:1048B000E8E7641CE4B20846E040FAD1072C33D89C
:1048C00030463946E040FBF7A3FC86B21949680040
:1048D0000E520298711CC08848437D21C900FBF725
:1048E000A1FC80B28646144AA80011588E60009937
:1048F0001358C9008C460C315E580427BE435E50E5
:104900001658282373506107490F1358083119604E
:104910000021022D01D19368D9641558634674466D
:104920001033EC5010584160FEBD00000080044080
:1049300038F0FF1F4AF0FF1FA057000070B5820536
:10494000150F8004840F084A6000105A401C484329
:104950007D21C900FBF766FC044AA1005258E9001A
:1049600080B21031505070BD4AF0FF1FA0570000B8
:10497000F0B501783E4BCD064A09ED0E92009C58E9
:10498000A6690121A9400E43A6619C5865698D4323
:1049900065614478002C02D0012C05D00EE09C58B3
:1049A000A5698D43A56109E09C58A6690D4635436C
:1049B000A5619C5866690D463543656185782D4E25
:1049C0002D4C012D15D12B4F9D58403FBD4203D199
:1049D000A5680D43A5600CE0B54203D1E5680D4321
:1049E000E56006E0234F4037BD4202D125690D4303
:1049F0002561C17801293AD19958B1420BD1027889
:104A0000382A04D0392A06D16269802301E062691C
:104A100040231A436261B1420BD10278202A04D0AC
:104A2000212A06D16269202301E0626910231A431A
:104A30006261104B403B99420BD10278182A04D096
:104A4000192A06D16269082501E0626904252A4312
:104A5000626199420BD100780C2804D00D2806D150
:104A60006069022101E06069012108436061F0BDD5
:104A70009457000040F00F4000900440F0B51C4DEA
:104A80001B4E43091B4F9B00184A194C4035403EB2
:104A9000FB58002915D0C106C90E01208840B34239
:104AA00003D1916801439160F0BDA34203D1D16865
:104AB0000143D160F0BDAB42FCD1116901431161EA
:104AC000F0BD01218140B34203D1906888439060DA
:104AD000F0BDA34203D1D0688843D060F0BDAB42A3
:104AE000FCD1106988431061F0BD000000900440C3
:104AF00040F00F4094570000C2064109D20E8800D2
:104B0000034908580069D040C007C00F7047000033
:104B100094570000C1064209C90E0448920080580B
:104B2000C26801238B401A43C2607047945700004B
:104B3000420910B59300C006074C0122C00E824006
:104B4000E058002903D041681143416010BD8168DD
:104B50001143816010BD00009457000070B50446F9
:104B60000121022000F066F8254801680225A943CA
:104B7000016024487D21C9000068FBF749FB61689A
:104B80004143207802012048121811602178090160
:104B90000918CB6801221343CB6021780901091859
:104BA0008B6893438B602178090109188B68AB43AC
:104BB0008B602178090109188B6813438B60617839
:104BC000012916D1217809010818816829438160DB
:104BD00021780E4A8900E068505020780C4900285E
:104BE00008D0012805D1C0050860217A1720FDF7FB
:104BF0004BFD70BD012080050860217A1620F6E784
:104C00000070034038F0FF1F0071034040F0FF1FA9
:104C100000E100E0012809D8010105480818C16831
:104C200001221143C1608168914381607047000097
:104C300000710340044A0029516901D0014300E09A
:104C40008143516170470000008004400A4A10B55A
:104C5000904202D10120000504E0084A904204D1AC
:104C600001204005FFF7E6FF10BD054A9042FBD149
:104C700001208005F6E7000000A0064000B00640D5
:104C800000C00640F8B5044623480D46844202D1D0
:104C9000012108050AE02148844202D1012148058A
:104CA00004E01F48844203D101218805FFF7C2FFB9
:104CB000297B204600F03AF8E078F3210840E070C4
:104CC000A078297A0843A070A07829790843A070B9
:104CD000A078A9790843A07012480068009029685C
:104CE000060948083018FBF793FA81B20E48814252
:104CF00000D9014620784009400120702078CA047C
:104D0000D20E104320706170E078AA7A1043E070F0
:104D10003046FBF77DFAF8BD00A0064000B0064023
:104D200000C0064038F0FF1FFF1F000001290ED809
:104D30000E4B0F4A98420BD1D068CB011843D0607C
:104D4000012904D10B4881680C221143816070470E
:104D5000094B984202D11069090304E0074B9842BD
:104D6000F5D11069490308431061704700A006405F
:104D7000008004400090044000B0064000C006409F
:104D800010B5074C0548606021465831A06888611D
:104D9000002000F0D5FA0120207010BDDCFEFF1FBE
:104DA00080F0FF1F70B50C4603460021084604E062
:104DB0004D005D5B2818491C89B29142F8D3114619
:104DC000FBF726FA208070BD10B5FBF7DFF906214E
:104DD000484380B210BD0021427806E01C234B43BB
:104DE0001B189B78012B02D0491C8A42F6DCC8B202
:104DF000704710B5FBF7CAF90621484380B210BDD1
:104E00000A4A10698169002908D05160C0681146BA
:104E10005831801C88610120107070470169002999
:104E2000FBD040690028F8D10847000080F0FF1F40
:104E300010B5032000F084FA01490120087010BD6C
:104E400080F0FF1F10B5FBF7D9FF092000F078FABA
:104E500001490120087010BD80F0FF1F10B5FBF75D
:104E6000CDFF082000F06CFA01490120087010BD48
:104E700080F0FF1F10B5FBF7C1FF072000F060FABC
:104E800001490120087010BD80F0FF1F10B5FBF72D
:104E9000B5FF062000F054FA01490120087010BD4A
:104EA00080F0FF1F10B5FBF7A9FF052000F048FABE
:104EB00001490120087010BD80F0FF1F10B5FBF7FD
:104EC0009DFF042000F03CFA01490120087010BD4C
:104ED00080F0FF1FFEF733F9FCF770F8FFF758FB7F
:104EE000FEF7C7FF0E2801D1FEF70AFE0123114A83
:104EF00033210020FEF7F8FF01230F4A1521184641
:104F0000FEF7F2FF01230D4AC8210220FEF7ECFF55
:104F100001210B4A0846FEF7C3FF01212520FFF7B8
:104F200007FE002000F00CFAFFF73AFB6420FEF7C2
:104F3000F7FFF9E785410000313500001D11000041
:104F4000690D000038B50120FEF732FB0F4C2078C8
:104F5000002819D0102000900A230D4A04216C204B
:104F600000F02FF91620002100901823094A084666
:104F700000F027F9182000900C2307A21E211A2008
:104F800000F076F90020207038BD000016F1FF1FF8
:104F9000A67E00006E7D0000566563746F7200008F
:104FA0000346012000E058430A46491EC9B2002AC0
:104FB000F9D1704710B50021084C0A460020C30003
:104FC0001B195A54401CC0B28028F8D3491CC9B2DE
:104FD0000829F3D300F034F810BD0000C0F8FF1F1B
:104FE00010B57F2814D83F2912D8CB080724E31A1C
:104FF0002140641A0121A140064CC0000019DBB217
:10500000002AC25CC9B201D00A4300E08A43C254FC
:1050100010BD0000C0F8FF1F3F22511AC9B2CA08D4
:105020004907490F01238B40D9B2044BC000C01877
:10503000805C084000D0012070470000C0F8FF1FCE
:1050400070B5104E00252846B030C0B2002100F0E7
:105050003DF90021084600F039F90021102000F048
:1050600035F90024E0008019405D012100F02EF99F
:10507000641CE4B2802CF5D36D1CEDB2082DE2D394
:1050800070BD0000C0F8FF1FFFB583B00C9F0E4637
:105090000191F908780700D00120081806994843C3
:1050A000C0B2203A0290D0B20025059040E00698A8
:1050B00006280FD00C283ED1182F3CD1059824216A
:1050C00048431E494018445D0020009020060FD53B
:1050D0000D9A11E0082F06D00C2F2CD105980C2129
:1050E00048431749EEE70598062148431549E9E783
:1050F0000D98002812D0002231460398FFF770FF68
:105100006006040E761C0198F6B2301AB84207D138
:105110000398019E401CC0B2039007E00122EBE718
:105120000098401CC0B200900828CFD36D1CEDB28F
:1051300002988542BBD307B0F0BD00005A5E000064
:10514000E6590000AC570000FFB583B000261D46AD
:1051500034460C9F31E0281B401EC1B20A20FFF7E5
:105160001FFF01460598FBF753F80A21FBF750F89B
:10517000002E05D1681E844202DA00290DD00126D6
:1051800001220D98303101920090CAB2384603993D
:1051900060434018C0B23B460AE001210D980191DE
:1051A00000903846039960434018C0B23B46202225
:1051B0000499FFF769FF641CE4B2AC42CBD307B09B
:1051C000F0BDFFB586B00F980C460193009106998B
:1051D0000290C918802903D98021C91AC9B2019146
:1051E0002118402903D94021091AC9B20291C108E6
:1051F000400700D00120081804900298C108400719
:1052000000D001200818059000202BE0002723E0A3
:10521000049948430899C919465C0025300601D510
:10522000012200E0002221460698FFF7D9FE700611
:10523000060E641C0098E4B2211A0298814205D13E
:105240000698009C401CC0B2069003E06D1CEDB2B5
:10525000082DE3D37F1CFFB2059887420398D7D36C
:10526000401CC0B2019903908842CFD30AB0F0BD70
:10527000FFB585B004460D4608988021081A0E9F98
:1052800003904020C01B1646029019E00398A042EC
:1052900002DA0024E819C5B20298A84203DA002411
:1052A0002546FFF787FE01200190009732782946B6
:1052B0002046089BFFF7E8FE08982018C4B2761C29
:1052C000307820385E28E1D909B0F0BD70B50546C8
:1052D000002900D001211620FFF72AFC0021172009
:1052E000FFF726FC002400212320FFF721FC2806DD
:1052F00001D5012100E000214220FFF719FC012126
:105300002320FFF715FC6806641C050EE4B2082C88
:10531000E9D301211720FFF70BFC01211620FFF72D
:1053200007FC70BD10B5FE20FFF716FA00233022EF
:105330000249FE20FFF756FA10BD0000C4F1FF1F1E
:1053400010B505490028087002D1044901200870F1
:10535000FBF752F810BD000014F1FF1F16F1FF1FFC
:10536000FFB585B00E9F0C460291F90816467807E6
:1053700000D00120081808994843C0B2039008469D
:1053800037490C2807D0182868D1182F66D14868EB
:105390000025009011E00C2F60D10868F8E7009913
:1053A00068000A5C31788A4205D10099401841783A
:1053B0007078814207D06D1CADB20098FAF7E6FE16
:1053C0004008A842EBD80098FAF7E0FE4008A8424F
:1053D00044D900203EE008980C2802D0182806D0B6
:1053E0000DE00C2F0BD1182068431E4904E0182F44
:1053F00005D148201C496843411800980E5C0020E4
:105400000190300604D50598E1B2C0B20F9A06E0CB
:105410000F98002813D000220598E1B2C0B2FFF720
:10542000DFFD7006060E641C0298A4B2201AB84272
:1054300007D10598029C401C80B2059007E001222C
:10544000EAE70198401CC0B201900828D9D300981F
:10545000401CC0B2039900908842BCD309B0F0BD93
:1054600078F0FF1FB66B0000567A0000FFB587B0DA
:1054700004460020109E0D460590700802A931C117
:1054800017461EE00598002820D0002005900398BC
:10549000801B8030A04203DAA819801C039C85B2CF
:1054A0000498801B4030A8420EDB119800960190B2
:1054B0003A46294620460A9BFFF752FFA01984B2BC
:1054C000BF1C3A78002ADDD10BB0F0BD802A02D98A
:1054D00001200590F5E703990298081A8030A04250
:1054E00002DAA81985B20C460498801B4030A84205
:1054F000EADB0D2A0DD01198009601900A98E9B2C6
:105500004308E0B2FFF7C0FD0298001984B27F1C87
:10551000D7E7A81985B20C467F1CF5E7FFB583B025
:1055200007460D9E0E9D0C9C0598FAF72FFE61080C
:10553000414388B2A84205D904AD019600940ECD2E
:1055400038460AE0281AC10F0818C00301960094D3
:1055500004A9000C0EC9C01980B2FFF787FF07B07D
:10556000F0BDF0B515460E460746A9420BDAFDF729
:1055700095FA0446421E31463846FFF7F2FF2A46A6
:10558000611C3846EEE7F0BD70B501250400ED075B
:105590004C4020D4441A01D2001B0919C60D4B00FF
:1055A000F2B2FF2A29D01B0E2CD000020C02D31A13
:1055B0002C43DC402843051910D2280A02D3401C92
:1055C0006D0611D0761EF6058019FF2A00DA70BD2F
:1055D000C00DC00570BD694000F07AF80120054398
:1055E000C541521C761CE8E764089C40C901614033
:1055F0008900E7D10124A043E4E71B0E440200D058
:10560000034870BD002AFCD1C00FC00770BD00BFA9
:105610000000C07F70B5420064414B005C41120E37
:1056200039D01B0E38D0FF2A3CD0FF2B3AD0400295
:105630004902400A490A060045184E43000A090A71
:10564000D2184843ED017F3A0104731A4019190C2E
:105650004318990F04D001215B0849075B1A521CBB
:10566000D80904D3401CF50301D19D0607D0FF2AB9
:1056700008D2D50506D0E4072043401970BD0125A6
:10568000A843F4E7002A01DCE00770BD2402FF20F4
:105690002043C00570BD1B0EFF2A03D0FF2B01D095
:1056A000E00770BDFF2645003606B54206D84D001E
:1056B000B54203D8D218FF2A00D0E7E7004870BDF2
:1056C0000000C07F70B501250400ED074C4022D4D6
:1056D000441A02D26C40001B0919C60D4B00F2B2ED
:1056E000FF2A4BD01B0E50D000020C02D31A2C43C1
:1056F000DC40A843051B05D5AD0019D36D08761E07
:10570000521E37D0F605280A01D2801970BD7041AB
:105710006D0603D070BD6940FFF73CFF9C40090255
:105720006140490001D0401E70BD0124A04370BDFE
:105730006D081DD001202B0C01D12D0410302B0E33
:1057400001D12D0208302B0F01D12D01001DAB0F0F
:1057500001D1AD00801CEB0F01D16D00401C6D002C
:10576000361A121A680AF5054019012A02DB70BDC3
:10577000002070BDC036300AC00770BD1B0E440249
:1057800001D1FF2B00D1024870BD002AF0D070BDBE
:105790000000C07F00F00F4040F00F4080F00F404D
:1057A000008003400090034000A003400000000080
:1057B0000000000060FA600000E0C000E0C00024CB
:1057C0007E247E240024D456480000C6C81026C675
:1057D000006C926A040A0000E0C0000000007C82B5
:1057E00000000000827C000000107C387C1000105B
:1057F000107C1010000007060000001010101010A0
:10580000000006060000000408102040007C8A9278
:10581000A27C000042FE020000468A92926200448E
:105820009292926C00182848FE0800F49292928C92
:10583000003C5292920C00808E90A0C0006C92921C
:10584000926C00609292947800003636000000005E
:105850003736000000102844820000242424242429
:105860000000824428100040809A9060007C82BA38
:10587000AA78007E8888887E00FE9292926C007CD6
:105880008282824400FE8282827C00FE9292928218
:1058900000FE90909080007C8292925E00FE10103C
:1058A00010FE000082FE8200000C020202FC00FEDC
:1058B0001028448200FE0202020200FE402040FE48
:1058C00000FE402010FE007C8282827C00FE9090D0
:1058D0009060007C828A847A00FE909098660064D2
:1058E0009292924C008080FE808000FC020202FCBA
:1058F00000F8040204F800FC023C02FC00C6281078
:1059000028C600E0100E10E0008E92A2C200000037
:10591000FE82820000402010080400008282FE0007
:105920000020408040200101010101010000C0E091
:10593000000000042A2A2A1E00FE2222221C001C2B
:1059400022222214001C222222FE001C2A2A2A10B3
:1059500000107E90900000182525253E00FE202096
:105960001E00000000BE020000020121BE0000FE79
:1059700008142200000000FE0200003E2018201E35
:10598000003E20201E00001C2222221C003F22225A
:10599000221C001C2222223F00221E222010001066
:1059A0002A2A2A0400207C222400003C02043E0013
:1059B000003804020438003C060C063C0036080897
:1059C0003600003905063C0000262A2A3200001065
:1059D0007C828200000000EE0000000082827C10C9
:1059E0000040804080000000000000000000000037
:1059F0000000000000003F40000000000000000028
:105A00003000400030004000000009000BC03D00A5
:105A10000BC03D00090018C024407FE022403180C7
:105A20000000180024C01B000D803240018003805C
:105A30001C4027401C800740004010006000000010
:105A40000000000000000000000000001F80204057
:105A500040200000402020401F800000000009007E
:105A600006001F80060009000000040004003F80BB
:105A700004000400000000100060000000000000AE
:105A80000000040004000400040004000000000002
:105A900000400000000000000000002001C00600DF
:105AA0003800400000001F802040204020401F8020
:105AB0000000000010403FC000400000000018C07F
:105AC0002140224024401840000010802040244003
:105AD00024401B80000002000D0011003FC0014067
