:020000040000FA
:100000007801002067010000730100007501000005
:1000100000000000000000000000000000000000E0
:100020000000000000000000000000007701000058
:10003000000000000000000079010000E115000050
:100040007D0100007D0100007D0100007D010000B8
:100050007D0100007D0100007D0100007D010000A8
:100060007D0100007D0100007D0100007D01000098
:100070008D1600003517000037170000D50300006B
:100080007D0100007D0100007D0100007D01000078
:100090007D0100007D010000011400002914000012
:1000A000C9100000151100007D0100007D01000055
:1000B0007D0100007D0100007D0100007D01000048
:1000C00000F002F800F03EF80CA030C80838241800
:1000D0002D18A246671EAB4654465D46AC4201D180
:1000E00000F030F87E460F3E0FCCB6460126334274
:1000F00000D0FB1AA246AB4633431847244C0000FD
:10010000444C0000103A02D378C878C1FAD852079C
:1001100001D330C830C101D504680C6070470000BD
:100120000023002400250026103A01D378C1FBD813
:10013000520700D330C100D50B6070471FB51FBDFB
:1001400010B510BD00F01BF91146FFF7F7FF01F0E5
:100150009DFE00F033F903B4FFF7F2FF03BC01F09A
:10016000EBFA000070470948804709488047094872
:100170000047FEE7FEE7FEE7FEE7FEE7FEE70000DA
:1001800005480649044A064B704700003516000032
:1001900065010000C1000000780000207801002007
:1001A000780000207047000030B5441C03E001785F
:1001B000401C00290DD08107F9D10B4BDD0104C88B
:1001C000D11A91432940FAD0001B0A0603D0C01E61
:1001D00030BD001B30BD0A0401D0801E30BD0902B5
:1001E000FCD0401E30BD00000101010100220309C6
:1001F0008B422CD3030A8B4211D300239C464EE042
:1002000003460B433CD4002243088B4231D30309FD
:100210008B421CD3030A8B4201D394463FE0C309AF
:100220008B4201D3CB01C01A524183098B4201D3C7
:100230008B01C01A524143098B4201D34B01C01AB2
:10024000524103098B4201D30B01C01A5241C3082A
:100250008B4201D3CB00C01A524183088B4201D399
:100260008B00C01A524143088B4201D34B00C01A85
:100270005241411A00D201465241104670475DE09A
:10028000CA0F00D04942031000D34042534000221D
:100290009C4603098B422DD3030A8B4212D3FC22C6
:1002A000890112BA030A8B420CD3890192118B4245
:1002B00008D3890192118B4204D389013AD092115B
:1002C00000E08909C3098B4201D3CB01C01A524116
:1002D00083098B4201D38B01C01A524143098B42DF
:1002E00001D34B01C01A524103098B4201D30B01C8
:1002F000C01A5241C3088B4201D3CB00C01A5241ED
:1003000083088B4201D38B00C01A5241D9D24308D3
:100310008B4201D34B00C01A5241411A00D2014610
:10032000634652415B10104601D34042002B00D57A
:100330004942704763465B1000D3404201B500203C
:10034000C046C04602BD7047704770470102C215E3
:1003500004D00123DB071943002A0ADB9E239A1AE3
:1003600002D40846D0407047FF2241001206914255
:1003700001D900207047C017C043704770477546C9
:1003800000F024F8AE46050069465346C008C00098
:10039000854618B020B5FFF7F3FE60BC002749087A
:1003A000B6460026C0C5C0C5C0C5C0C5C0C5C0C50D
:1003B000C0C5C0C5403D49008D46704710B50446D4
:1003C000C046C0462046FFF7C6FE10BD0048704735
:1003D0001400002030B5094A0020064C0649137865
:1003E00004E022694500401C4A53C0B29842F8D349
:1003F00030BD000000B00340D4F1FF1F14F0FF1F18
:10040000FFFFFFFFFFFFFFFFFFFFFFFFFFFFFEFEFE
:10041000F8B5244C05462078002841D0284601F044
:1004200008FD60610021A0616956814201DD002163
:10043000297029781B4C401AC6B258346878216953
:10044000884200D8002617486661583000F0D6FD73
:100450001448743086616978016100F041FD2169BA
:100460006878CFB2884200D2074600240AE03019EB
:100470001C21484342192001011B1E20133100F0AA
:100480004FFC641CBC42F2DB064C1C21A0694843B3
:10049000401901212061817000F01DFD00202070B5
:1004A000F8BD000038F0FF1FF8B5002A7ED05400D8
:1004B00054438718012B41D0861A022B7BD0032B83
:1004C00076D0042B72D11546002600910098069A2A
:1004D000C1B2B8B200F05BFC0098761C401E0090E0
:1004E0006800024671006A4371435118091B081ADB
:1004F000401C002801DD6D1E7F1EAE42E6DB009829
:10050000069AC1B2B8B200F042FC28464100700021
:100510006D1E891E0246694372438918091B08181B
:10052000401C7F1E002803DC0098401E761C0090B3
:10053000002DE4DC0098C1B2B8B276E000970D4619
:10054000164600270098E9B280B2069A00F01FFC18
:1005500070007F1C01467A0071437A438918091B99
:10056000081A401C6D1C002803DD0098401E761EF2
:100570000090B742E6DB0098E9B280B2069A00F03C
:1005800006FC00993046491E009141007800761E15
:10059000891E024671437A438918091B0818401CBA
:1005A000002801DC6D1C7F1C002E02E040E002E010
:1005B0003FE0E0DC75E01546002700910098069AC0
:1005C000C1B2B0B200F0E3FB00987F1C401C009069
:1005D0006800024679006A4379435118091B081ADA
:1005E000401C002801DD6D1E761CAF42E6DB009842
:1005F000069AC1B2B0B200F0CAFB284641007800AA
:100600006D1E891E024669437A438918091B081822
:10061000401C761C002803DC0098401C7F1C0090C6
:10062000002DE4DC0098C1B2B0B2069A00F0AFFB36
:10063000F8BD00960D46164600270098E9B280B234
:10064000069A00F0A4FB70007F1C024679007243FA
:1006500079435118091B081A401C6D1E002803DD40
:100660000098401C761E0090B742E6DB0098E9B285
:1006700080B2069A00F08BFB00993046491C00912D
:1006800041007800761E891E024671437A4389181C
:10069000091B0818401C002801DC6D1E7F1C002E61
:1006A000E4DC0098E9B280B2BFE77CB50446C068DC
:1006B0000D460E287DD3A0681E287AD3206901F04C
:1006C000B1FBA168884274D825750C266168206842
:1006D000002D11D001220830083100F02EF92069D8
:1006E00001F0A0FBA168081A2188400840180021E9
:1006F00080B2009601916CE000220830083100F0D1
:100700001CF9012500952068616803230822083040
:100710000831FFF7C9FE0095A1682068421861689A
:1007200008300B46093A00F094FA0095A168206859
:10073000042340186168082209380831FFF7B4FE25
:100740000095E1686068A268411820684B1E821815
:100750000830491E093A00F07CFA0095E1686068AB
:10076000A268411820680123801808220938093935
:10077000FFF79AFE00956168E0680B182068083161
:100780000246093B00F065FA0095E16860680223C3
:1007900041182068082208300939FFF785FE0095C6
:1007A0006168E068A2680B1820688018421E401E2D
:1007B00000E018E00831093B00F04BFA206901F035
:1007C00031FBA168081A21884008401880B20096C1
:1007D0000195E168A2880C394908511889B20C23A7
:1007E000226901F0BDFD7CBD10B501F073FB10BDA9
:1007F00038B51446C9B280B26A4600F005FB6846B7
:10080000017801206140884338BD7CB50446C0684A
:100810000E287BD3A0681E2878D3206901F002FB44
:10082000A168884272D80125009520686168032379
:10083000082208300831FFF737FE0095A1682068CC
:100840004218616808300B46093A00F002FA009538
:10085000A16820680423401861680822093808311B
:10086000FFF722FE0095E1686068A26841182068E1
:100870004B1E82180830491E093A00F0EAF900952B
:10088000E1686068A2684118206801238018082286
:1008900009380939FFF708FE00956168E0680B1810
:1008A000206808310246093B00F0D3F90095E16861
:1008B0006068022341182068082208300939FFF7D0
:1008C000F3FD00956168E068A2680B1820680831A4
:1008D0008018421E401E093B00F0BBF9207D0C260B
:1008E000002814D02068616801220830083100F027
:1008F00024F8206901F096FAA168081A21884008B6
:100900004018002180B2009601910BE014E02069AC
:1009100001F088FAA168081A21884008401880B2BE
:1009200000960195E168A2880C394908511889B2EE
:100930000C23226901F014FD7CBDF7B5D8B00C463C
:100940000546802874D2402C72D2E1B2A8B250AAD7
:1009500000F05AFA50A802785A98D107C007C90F78
:10096000C00F814264D021462846559400F027FAF2
:100970000646569050A802782146284600F04CFAC8
:1009800054908019400829940194289001240090E3
:10099000254601E0002D7BD0E90028A80818803802
:1009A000816F5291C66F50A86D1E0278EDB231462C
:1009B000529800F004FA539050A8027831465298A9
:1009C00000F02AFA519050A80278761C31465298CD
:1009D000FFF70EFF002804D050A802783146529845
:1009E00015E0539F08E050A8027831463846FFF7DB
:1009F000FFFE002803D17F1C51988742F3D95198FC
:100A00008742C7D850A8529702783146384600F03E
:100A100003FA519050A802783146529800F0CFF96D
:100A20005390142C1FD2471E58975990074617E031
:100A30007EE050A80278711E3846FFF7D9FE0028E4
:100A400027D059995898884207D05891E0006946B4
:100A50000F504018641CE4B24660142C03D27F1C73
:100A600051988742E5D9539951985A9B40184008AC
:100A700052905198F1B282B2539880B200F0D5F8FA
:100A8000142DA0D2539F59977F1E5897599F19E054
:100A90001FE05997E1E750A80278711C3846FFF72C
:100AA000A7FE002813D059995898884207D058912A
:100AB000E80028A90F5040186D1CEDB24660142DB7
:100AC00081D27F1C5198874200D97CE7E3E7599790
:100AD000F5E7002C20D0E100684608188038816FC7
:100AE0005291C66F50A8641E0278E4B23146529803
:100AF00000F065F9539050A802783146529800F002
:100B00008BF9074650A80278761E31465298FFF7B7
:100B10006FFE00280ED020E0002D00D03AE7549858
:100B20005A9B82B25598C1B2569880B200F07DF8B7
:100B30005BB0F0BD539809E050A802783146519857
:100B4000FFF756FE002804D15198401C5190B8423E
:100B5000F2D95198B842BCD8529050A80278314688
:100B6000529800F059F9074650A802783146529839
:100B700000F025F95390142D20D25990401E589022
:100B8000599818E050A80278711C5198FFF730FE70
:100B9000002826D059995898884208D05891E800E2
:100BA00028A9519A0A5040186D1CEDB24660142DC8
:100BB00004D25198401C5190B842E3D95398BAB22C
:100BC0003818400852905398F1B280B25A9B00F006
:100BD0002CF8142C96D253985990401E589059983E
:100BE0001BE051985990E2E750A80278711E519885
:100BF000FFF7FEFD002815D059995898884208D073
:100C00005891E0006946519A0A504018641CE4B2B9
:100C10004660142CDED25198401C5190B84200D945
:100C200070E7E1E751985990F3E7F8B515461E468D
:100C30000F460446A84202D9D0B2254604463246A1
:100C40003946204600F0A3F8641CA4B2A542F6D2AF
:100C5000F8BDFFB583B0054605980C46411B0698C4
:100C60000027021BFF43002902DD0120029002E061
:100C7000002904DA0297002A09DD012711E0C2B237
:100C8000E1B2A8B20C9B00F087F807B0F0BD002AD3
:100C900007DB0598E1B282B2A8B20C9BFFF7C5FF53
:100CA000F3E70298484339465143420000924A0014
:100CB000019288421CDB161A0098101A00900EE070
:100CC000E1B2A8B20C9A00F062F802982D18002E3A
:100CD00002DA0198361802E000988619E41905989E
:100CE0008542EDD1E1B2A8B20C9A00F050F8CCE701
:100CF0000098461A801A01900EE0E1B2A8B20C9A50
:100D000000F045F8E419002E02DA0098361803E0E6
:100D10000198861902982D1806988442EDD1E1E7D2
:100D2000FEB514460D460646802805D8402D03D84A
:100D3000022D01D3122E01D20020FEBDE068002852
:100D4000FBD0A27830461023A91E12380C27002AA7
:100D500012D06268002A04D0C9B2C0B2009301F078
:100D6000C0F9002001900097A9B2B0B20C23E2684C
:100D700001F0F6FA0120FEBDA268002A05D000931A
:100D8000C9B2C0B2102301F0ACF90120EAE710B5F6
:100D9000C0B201F0B5F810BDF8B515461E460746BD
:100DA0000C46A94201D90D46144632462146384622
:100DB000FFF7EDFF641CE4B2A542F6D2F8BDF8B52A
:100DC000D507441EED0F0E46002C0ED0F1B2A0B296
:100DD0006A4600F019F868460078C007C00FA842BC
:100DE00001D0601CF8BD641EF0D1F1B200206A464B
:100DF00000F00AF868460078C007C00FA84201D08A
:100E00000120F8BD0020F8BD10B51446C0B201F0B5
:100E100093F82070002010BDF8B5441CD5070E468D
:100E2000ED0F0DE0F1B2A0B26A46FFF7EDFF6846A4
:100E30000078C007C00FA84201D0601EF8BD641C36
:100E4000802CEFD38020F8BDF8B51C4615460E4621
:100E5000074692B2C9B280B2069BFFF7E6FEAAB27D
:100E6000E1B2B8B2069BFFF7E0FEE2B2F1B2B8B26F
:100E7000069BFFF791FFE2B2F1B2A8B2069BFFF723
:100E80008BFFF8BDF8B517461E460C460546B8421E
:100E900001D915460746B44201D91C460E46B44254
:100EA00006D1BAB2E1B2A8B2069BFFF7BEFEF8BD0A
:100EB000BD420DD1F2B2E1B2A8B2069BFFF76CFFC2
:100EC000F8BDBAB2E1B2A8B2069BFFF7AEFE641C51
:100ED000B442F6D9F8BD10B501F042F810BD0000DB
:100EE000F8B5040052D0A2680A2A4FD3E06814284B
:100EF0004CD30125009561680B1820685B1E821891
:100F0000521EFFF7A1FF0826009620892178083895
:100F1000400808182179C0B2491CC9B233461C4A9E
:100F200001F0DFF800962079217B227840180938FB
:100F3000C1B220890823083840081018144AC0B2EA
:100F4000083201F0CEF80095A16820684218616867
:100F5000521E09310B46FFF77CFE0095E168606880
:100F6000A268411820680A3982180B46521EFFF702
:100F700070FEE0686269216914388A4202D25043E7
:100F8000FFF734F9E061204600F004F8F8BD0000F6
:100F9000CA4A0000FEB504468189808B091A1439BB
:100FA0008EB22188491C8AB20192A188721E0A3130
:100FB0008DB28018218900220092C91E019A89B23F
:100FC00080B257182B183A4629460198FFF75AFF66
:100FD00021696069814201D8002005E0A069491EAD
:100FE0007043FFF703F980B2012100912918E269EB
:100FF000019853183A46FFF745FFFEBDFEB58168DC
:10100000044614293BD3E368142B38D320684218D4
:10101000802A34D86168CB18402B30D80025521E66
:101020005B1E0095FFF72EFF012600966168E068C1
:10103000A2680B1820685B1E8218521EFFF704FF7F
:1010400020882189174B4118491E8AB2217980B224
:101050000E31C9B21B78FFF7E8FD0096A168206841
:1010600042186168521E0B460D33FFF70BFFA06953
:1010700000F0EDFE0246A068811E8A4201D90020E0
:10108000FEBD80B20C21019500910290A0880C2336
:10109000401C81B22088A26980B201F0B9F9012018
:1010A000FEBD00002EF0FF1F10B5242000F058FEFA
:1010B00010BD10B51C2000F053FE10BD10B51B2054
:1010C00000F04EFE10BD0000F8B50F4D0024A868DA
:1010D0000E4E000712D50E4F387884420ED2E968C2
:1010E00020460C2250433258114204D080198068A7
:1010F000002800D08047641CE4B2EDE7A8682421F2
:101100000843A860F8BD00000090074064F2FF1F8C
:1011100015F0FF1FF8B50F4D0024A8680E4E00070C
:1011200012D50E4F387884420ED2E96820460C2240
:1011300050433258114204D080198068002800D0F2
:101140008047641CE4B2EDE7A86824210843A86046
:10115000F8BD000000A0074064F2FF1F15F0FF1F5C
:101160000149012008707047D0F0FF1FF0B5002141
:101170000E4D0F4F0F4B0A4605261C2048434019C1
:1011800046708C008270476082601C590261426127
:10119000491CC9B2C46082610529EED30120A87040
:1011A0000548E86201488C306863F0BD00FEFF1F0F
:1011B000DA4A000070F0FF1F5D1E0000FEB5002639
:1011C00068460671754D6868FFF722F900F078FBF4
:1011D000040000D0EE60012C64D0072C5FD13E23C8
:1011E0007522122101200096FFF74CFEA8691C21F0
:1011F00048436968401828618670022000F0C2FBED
:10120000A969491CA9616A685078401E884201DDBD
:10121000084600E0A8611C2148438018012128618C
:1012200081706A685D4910785831401C43B2137070
:1012300050780969884206D869460871834211DBF3
:10124000401E10700EE06F463971491E8B4209D95D
:10125000524B117058331969411A5869814201D9AA
:10126000401C5861002710E04C481C215830406950
:101270004843696841181C2078430A183801C11B8B
:101280001E201331FFF74CFD7F1C68460079874212
:10129000EADB4248A96974308161FFF77BFE042CC8
:1012A00051D05EE03E237522122101200096FFF707
:1012B000E9FDA8691C2148436968401828618670C7
:1012C000A869401EA861002800DCAE61A8691C2145
:1012D00048436968314A4018012128618170686873
:1012E00058320178491E49B201704378126993421D
:1012F00005D86A46137100290DDA06700BE0274FF6
:101300006B4658371A71002905DA0670786900288B
:1013100001D0401E7861002710E020481C21583081
:1013200040694843696841181C2078430A1838010D
:10133000C11B1E201331FFF7F3FC7F1C68460079A8
:101340008742EADBA5E76878401C6870012000F05E
:1013500019FB28690069002803D06978012900D9A0
:101360008047E868411CE960502813DDEE60286979
:101370004169002908D0867068691C214843696862
:10138000401801212861817005496868884201D0B0
:1013900000F018FDFFF79FFDFEBD000038F0FF1FB5
:1013A00000FEFF1FF0B50021104B114C114E0A46F4
:1013B00007251C204843C018826102614460826096
:1013C0008F00827045704261491CF759C9B2C760ED
:1013D0000729EED301209870074804491861034893
:1013E0008C398030016405498163F0BD18FFFF1F0F
:1013F000DA4A000054F0FF1F611100005D1E00007A
:1014000010B5074CE068C00704D006480068002803
:1014100000D08047E06801210843E06010BD000073
:10142000007103400CF0FF1F10B5074CE069C007C6
:1014300004D006484068002800D08047E0690121B8
:101440000843E06110BD0000007103400CF0FF1F75
:10145000F0B50021104C114B114E0A4603251C20FB
:101460004843001945708261026143608F008260C9
:1014700082704261491CF759C9B2C7600329EED393
:1014800001200549A0708C31A1610648FF39206117
:1014900019392165A064F0BD8CFEFF1FDA4A0000F7
:1014A00084F0FF1F5D1E0000FEB5454E484945A073
:1014B0003568886100240846FFF7A0FD4548FFF71E
:1014C000A4F944481830FFF7A0F942483030FFF73C
:1014D0009CF9FFF700FD3F490020091F087001211A
:1014E0001C2000F059FC62E01B2000F039FC0028B1
:1014F00016D001213748FFF7D8F8242000F030FC3F
:10150000002822D0334801211830FFF7CEF8641CA0
:10151000A4B214212046FEF769FE002947D12AE033
:1015200000212C48FFF7C1F8022000F02BFAFFF74A
:10153000D2FC1B2000F014FC0028FAD03F21090641
:10154000284600F089FF0546D7E7224800211830D9
:10155000FFF7ABF8022000F015FAFFF7BCFC2420DF
:1015600000F0FEFB0028FAD03F210906284601F0D2
:1015700011F80546CBE7012000F004FA18270C23E8
:1015800015A210211420009700F002FE13492846EE
:1015900000F0A8FFFEF7DAFE02460C2000900423BC
:1015A000102101973A2000F05FFDFFF794FC1C200A
:1015B00000F0D6FB012897D0356000F015FCFEBD89
:1015C0001CF1FF1F5370656564204B700000000024
:1015D00090F0FF1FD4F0FF1F4B703A000000C8428C
:1015E00010B500F001F810BD70B50F49002448682F
:1015F000002805D04868401E486001D101200870CD
:101600008868401C88608868084A904201D10020A0
:101610008860074D14206043401900F0DBFA641C19
:10162000E4B2062CF6D370BD1CF0FF1FFFFFFF7F56
:1016300044F7FF1F10480F49818001214170232189
:10164000017011200D49000548620D4800214170CC
:101650000C4A962111701A2101700179C906FCD437
:1016600001790907890FFBD10749086840084860DC
:101670008860704703E800000020054000800440B7
:10168000004006400050064000F0FF1FF8B5254A14
:1016900000201379014613799B063ED5D279224D5D
:1016A00000262B78214C002B14D0012B17D0022BB5
:1016B0001DD0032B1ED0E7787F1D9F4202D9E25434
:1016C0005B1C2B70E3782F785A1DBA4225D12E70FF
:1016D0001A1D17E0AA2AF5D12270012205E0AF2ACF
:1016E00001D02E70EEE7627002222A70EAE7A27043
:1016F0000322FAE7E2700422F7E7275C7918401C1E
:10170000C9B2C0B28242F8D80848001D185C8842AD
:1017100001D06E7001E0A0786870054800F06FFAA3
:10172000F8BD000000A0064028F0FF1F00FCFF1FCE
:101730001CF5FF1F704770470020704710B500F080
:1017400017FA00F030F900F0F3F800F011F862B683
:1017500010BD00000020054902460A54401CC0B2DA
:101760000A28FAD3CA728A7270470000CCF7FF1FAA
:1017700008B51B206A46107000205070012191703E
:10178000D070684600F066FA01211B2000F004FBCF
:101790001C206A461070684600F05CFA01211C208B
:1017A00000F0FAFA24206A461070684600F052FAF7
:1017B0000121242000F0F0FA00F058F808BD0000E4
:1017C00070B505460C2028496843441820688047B6
:1017D0006A0005210026AB180028207903D00528CF
:1017E00030D921713CE0052801D2217170BD0A2851
:1017F00002D2401C207170BD690060796D186D1CAB
:10180000012803D16671E8B200F06CF86089002805
:1018100009D02089401C80B2208161898842EAD1A8
:10182000DB1CD8B20BE0A0790028E4D0E079401CA2
:10183000C0B2E071A1798842DDD3E671E8B200F070
:1018400051F870BD002802D0401E207108E0607978
:10185000002805D1012060719B1CD8B200F042F82D
:10186000E671268170BD0000DCF7FF1F70B51048DF
:10187000002181727D25C17201246D010346017032
:1018800010330A46047302260C204843C0184581D1
:1018900006714471491CC271C9B282710329F3D324
:1018A000044818600448D8600448986170BD00007E
:1018B000CCF7FF1FBD100000B3100000A9100000FE
:1018C000074A917AD07A814201D100207047505C5A
:1018D000491CC9B291720A29F8D30021917270474C
:1018E000CCF7FF1F09280AD80549CA7A8854C87A54
:1018F000401CC0B2C8720A2801D30020C8727047C9
:10190000CCF7FF1F10B5002401211B2000F044FA82
:1019100001211C2000F040FA0121242000F03CFAB3
:101920002046FFF74DFF641CE4B2032CF8D310BD32
:1019300008B518206946087001208870487000209A
:10194000C870684600F086F9192069460870684634
:1019500000F080F9002000F001F808BD10B5002863
:1019600004D001280BD0022808D103E00021182060
:1019700000F012FA0021192000F00EFA10BD00212B
:101980001820F9E710B5002804D0012809D0022852
:1019900006D102E0182000F0F1F9192000F0EEF96C
:1019A00010BD1820FAE710B500F07DF801214320A2
:1019B00000F0F2F9642000F0CBF80021432000F0A1
:1019C000EBF9642000F0C4F80121432000F0E4F9B1
:1019D0000021AE2000F00AFC0021D52000F006FC1A
:1019E0000021502000F002FC0021A82000F0FEFBA6
:1019F00000213F2000F0FAFB0021D32000F0F6FB8D
:101A00000021084600F0F2FB0021402000F0EEFB30
:101A100000218D2000F0EAFB0021142000F0E6FBFD
:101A20000021202000F0E2FB0021022000F0DEFB7C
:101A30000021A12000F0DAFB0021C02000F0D6FB3D
:101A40000021DA2000F0D2FB0021122000F0CEFBB2
:101A50000021812000F0CAFB0021EF2000F0C6FB2E
:101A60000021D92000F0C2FB0021F12000F0BEFBD4
:101A70000021DB2000F0BAFB0021302000F0B6FB93
:101A80000021A42000F0B2FB0021A62000F0AEFB54
:101A90000021AF2000F0AAFB00F01CFA002108464C
:101AA00000F026F810BD08B500206A46D07001216C
:101AB0005170232111709070684600F0CBF84220DD
:101AC0006A461070684600F0C5F817206A46107024
:101AD000684600F0BFF843206A461070684600F080
:101AE000B9F816206A461070684600F0B3F808BDD1
:101AF00010B50446B031C8B2002100F077FB2009D0
:101B00000021103000F072FB2007000F0121084374
:101B1000002100F06BFB10BD70B5062802D9002033
:101B2000C04370BD1424094D60434419267B012E27
:101B300009D06160002666702B5401202073A160DB
:101B40003046226170BD0120C04370BD44F7FF1FC5
:101B5000002809D0012800D1022004494860002053
:101B6000087008780128FCD1704700001CF0FF1FA6
:101B700070B50021124B0C4614224A43D018446021
:101B8000846044709C54491C0461C9B204730629E2
:101B9000F2D30C487D21C9000068FEF727FB0A49F3
:101BA000401E88420BD80949486109480723C26989
:101BB0001202120A4D042A43C2618C610B6170BD8E
:101BC00044F7FF1F00F0FF1FFFFFFF0000E000E0F1
:101BD00004ED00E04168002910D04168491E4160D1
:101BE0000CD1012141700178012903D18168416044
:101BF000002141700069002800D00047704701684B
:101C00000A79120701D50A79CA790A790A7912067E
:101C100012D5828A002A10D0438A4268D25CCA71E7
:101C2000418A491C89B241828289914201D30021B3
:101C30004182818A491E81827047C8784006400EE1
:101C4000C870704710B5FFF791FAFFF701FCFFF776
:101C5000A9FB10BDF0B501783E4BCD064A09ED0E4B
:101C600092009C58A6690121A9400E43A6619C5888
:101C700065698D4365614478002C02D0012C05D044
:101C80000EE09C58A5698D43A56109E09C58A669A2
:101C90000D463543A5619C5866690D46354365611F
:101CA00085782D4E2D4C012D15D12B4F9D58403F41
:101CB000BD4203D1A5680D43A5600CE0B54203D138
:101CC000E5680D43E56006E0234F4037BD4202D191
:101CD00025690D432561C17801293AD19958B1424E
:101CE0000BD10278382A04D0392A06D162698023C0
:101CF00001E0626940231A436261B1420BD102786C
:101D0000202A04D0212A06D16269202301E06269D9
:101D100010231A436261104B403B99420BD1027869
:101D2000182A04D0192A06D16269082501E06269DF
:101D300004252A43626199420BD100780C2804D013
:101D40000D2806D16069022101E060690121084384
:101D50006061F0BD6426000040F00F400090044038
:101D6000C2064109D20E8800034908580069D040D4
:101D7000C007C00F7047000064260000C10642097A
:101D8000C90E044892008058C26801238B401A4350
:101D9000C260704764260000420910B59300C00677
:101DA000074C0122C00E8240E058002903D0416850
:101DB0001143416010BD81681143816010BD000076
:101DC0006426000010B5074C054860602146583174
:101DD000A0688861002000F035FA0120207010BD55
:101DE00000FEFF1F38F0FF1F10B5FEF7FDFCFFF7E8
:101DF00029FF0949002048610846FFF7FFF8074816
:101E000001218161064949780161FFF769F8FFF70F
:101E1000A1FCFFF760F810BD90F0FF1FACF0FF1FB2
:101E200018FFFF1F10B5FEF7BFF90621484380B227
:101E300010BD0021427806E01C234B431B189B7801
:101E4000012B02D0491C8A42F6DCC8B2704710B59B
:101E5000FEF7AAF90621484380B210BD0A4A10696C
:101E60008169002908D05160C06811465831801C32
:101E7000886101201070704701690029FBD040691A
:101E80000028F8D10847000038F0FF1FFFF756FC84
:101E9000FFF7D8FE0123084A15211846FFF73CFE3C
:101EA000064CFFF78BF93220FFF752FE207801280D
:101EB000F7D1FFF7F9FAF4E705190000D0F0FF1F9A
:101EC0000346012000E058430A46491EC9B2002AD1
:101ED000F9D1704710B50021084C0A460020C30014
:101EE0001B195A54401CC0B28028F8D3491CC9B2EF
:101EF0000829F3D300F034F810BD000000F8FF1FEC
:101F000010B57F2814D83F2912D8CB080724E31A2C
:101F10002140641A0121A140064CC0000019DBB227
:101F2000002AC25CC9B201D00A4300E08A43C2540D
:101F300010BD000000F8FF1F3F22511AC9B2CA08A5
:101F40004907490F01238B40D9B2044BC000C01888
:101F5000805C084000D001207047000000F8FF1F9F
:101F600070B5104E00252846B030C0B2002100F0F8
:101F70003DF90021084600F039F90021102000F059
:101F800035F90024E0008019405D012100F02EF9B0
:101F9000641CE4B2802CF5D36D1CEDB2082DE2D3A5
:101FA00070BD000000F8FF1FFFB583B00C9F0E4608
:101FB0000191F908780700D00120081806994843D4
:101FC000C0B2203A0290D0B20025059040E00698B9
:101FD00006280FD00C283ED1182F3CD1059824217B
:101FE00048431E494018445D0020009020060FD54C
:101FF0000D9A11E0082F06D00C2F2CD105980C213A
:1020000048431749EEE70598062148431549E9E793
:102010000D98002812D0002231460398FFF770FF78
:102020006006040E761C0198F6B2301AB84207D149
:102030000398019E401CC0B2039007E00122EBE729
:102040000098401CC0B200900828CFD36D1CEDB2A0
:1020500002988542BBD307B0F0BD00001E2D0000E2
:10206000AA28000070260000FFB583B000261D4698
:1020700034460C9F31E0281B401EC1B20A20FFF7F6
:102080001FFF01460598FEF7B1F80A21FEF7AEF8EA
:10209000002E05D1681E844202DA00290DD00126E7
:1020A00001220D98303101920090CAB2384603994E
:1020B00060434018C0B23B460AE001210D980191EF
:1020C00000903846039960434018C0B23B46202236
:1020D0000499FFF769FF641CE4B2AC42CBD307B0AC
:1020E000F0BDFFB586B00F980C460193009106999C
:1020F0000290C918802903D98021C91AC9B2019157
:102100002118402903D94021091AC9B20291C108F6
:10211000400700D00120081804900298C108400729
:1021200000D001200818059000202BE0002723E0B4
:10213000049948430899C919465C0025300601D521
:10214000012200E0002221460698FFF7D9FE700622
:10215000060E641C0098E4B2211A0298814205D14F
:102160000698009C401CC0B2069003E06D1CEDB2C6
:10217000082DE3D37F1CFFB2059887420398D7D37D
:10218000401CC0B2019903908842CFD30AB0F0BD81
:10219000FFB585B004460D4608988021081A0E9FA9
:1021A00003904020C01B1646029019E00398A042FD
:1021B00002DA0024E819C5B20298A84203DA002422
:1021C0002546FFF787FE01200190009732782946C7
:1021D0002046089BFFF7E8FE08982018C4B2761C3A
:1021E000307820385E28E1D909B0F0BD70B50546D9
:1021F000002900D001211620FFF7CEFD0021172075
:10220000FFF7CAFD002400212320FFF7C5FD2806A3
:1022100001D5012100E000214220FFF7BDFD012191
:102220002320FFF7B9FD6806641C050EE4B2082CF4
:10223000E9D301211720FFF7AFFD01211620FFF799
:10224000ABFD70BD10B502490870FEF7CDFA10BDA8
:10225000CCF0FF1FFFB585B00E9F0C460291F90828
:102260001646780700D00120081808994843C0B2E4
:102270000390084637490C2807D0182868D1182F32
:1022800066D148680025009011E00C2F60D10868E5
:10229000F8E7009968000A5C31788A4205D1009914
:1022A000401841787078814207D06D1CADB200981B
:1022B000FDF77AFF4008A842EBD80098FDF774FFBD
:1022C0004008A84244D900203EE008980C2802D0DB
:1022D000182806D00DE00C2F0BD1182068431E499A
:1022E00004E0182F05D148201C4968434118009884
:1022F0000E5C00200190300604D50598E1B2C0B212
:102300000F9A06E00F98002813D000220598E1B23A
:10231000C0B2FFF7F5FD7006060E641C0298A4B269
:10232000201AB84207D10598029C401C80B2059043
:1023300007E00122EAE70198401CC0B2019008289A
:10234000D9D30098401CC0B2039900908842BCD3F6
:1023500009B0F0BD30F0FF1F7A3A00001A490000C2
:10236000FFB587B004460020109E0D46059070080A
:1023700002A931C117461EE00598002820D0002090
:1023800005900398801B8030A04203DAA819801CB6
:10239000039C85B20498801B4030A8420EDB119844
:1023A000009601903A46294620460A9BFFF752FFC5
:1023B000A01984B2BF1C3A78002ADDD10BB0F0BD61
:1023C000802A02D901200590F5E703990298081A9E
:1023D0008030A04202DAA81985B20C460498801B0E
:1023E0004030A842EADB0D2A0DD0119800960190EA
:1023F0000A98E9B24308E0B2FFF7D6FD0298001947
:1024000084B27F1CD7E7A81985B20C467F1CF5E77C
:10241000FFB583B007460D9E0E9D0C9C0598FDF7F9
:10242000C3FE6108414388B2A84205D904AD0196B4
:1024300000940ECD38460AE0281AC10F0818C003D0
:102440000196009404A9000C0EC9C01980B2FFF7D0
:1024500087FF07B0F0BD000070B501250400ED074F
:102460004C4020D4441A01D2001B0919C60D4B0060
:10247000F2B2FF2A29D01B0E2CD000020C02D31A74
:102480002C43DC402843051910D2280A02D3401CF3
:102490006D0611D0761EF6058019FF2A00DA70BD90
:1024A000C00DC00570BD694000F07AF801200543F9
:1024B000C541521C761CE8E764089C40C901614094
:1024C0008900E7D10124A043E4E71B0E440200D0B9
:1024D000034870BD002AFCD1C00FC00770BD00BF0B
:1024E0000000C07F70B5420064414B005C41120E99
:1024F00039D01B0E38D0FF2A3CD0FF2B3AD04002F7
:102500004902400A490A060045184E43000A090AD2
:10251000D2184843ED017F3A0104731A4019190C8F
:102520004318990F04D001215B0849075B1A521C1C
:10253000D80904D3401CF50301D19D0607D0FF2A1A
:1025400008D2D50506D0E4072043401970BD012507
:10255000A843F4E7002A01DCE00770BD2402FF2055
:102560002043C00570BD1B0EFF2A03D0FF2B01D0F6
:10257000E00770BDFF2645003606B54206D84D007F
:10258000B54203D8D218FF2A00D0E7E7004870BD53
:102590000000C07F70B501250400ED074C4022D437
:1025A000441A02D26C40001B0919C60D4B00F2B24E
:1025B000FF2A4BD01B0E50D000020C02D31A2C4322
:1025C000DC40A843051B05D5AD0019D36D08761E68
:1025D000521E37D0F605280A01D2801970BD70410D
:1025E0006D0603D070BD6940FFF73CFF9C400902B7
:1025F0006140490001D0401E70BD0124A04370BD60
:102600006D081DD001202B0C01D12D0410302B0E94
:1026100001D12D0208302B0F01D12D01001DAB0F70
:1026200001D1AD00801CEB0F01D16D00401C6D008D
:10263000361A121A680AF5054019012A02DB70BD24
:10264000002070BDC036300AC00770BD1B0E4402AA
:1026500001D1FF2B00D1024870BD002AF0D070BD1F
:102660000000C07F00F00F4040F00F4080F00F40AE
:10267000000000000000000060FA600000E0C00000
:10268000E0C000247E247E240024D456480000C6E6
:10269000C81026C6006C926A040A0000E0C0000060
:1026A00000007C8200000000827C000000107C386A
:1026B0007C100010107C10100000070600000010B5
:1026C0001010101000000606000000040810204042
:1026D000007C8A92A27C000042FE020000468A92A0
:1026E000926200449292926C00182848FE0800F40E
:1026F0009292928C003C5292920C00808E90A0C0DC
:10270000006C9292926C006092929478000036363F
:10271000000000003736000000102844820000242A
:10272000242424240000824428100040809A9060D1
:10273000007C82BAAA78007E8888887E00FE929209
:10274000926C007C8282824400FE8282827C00FE47
:102750009292928200FE90909080007C8292925E93
:1027600000FE101010FE000082FE8200000C02022B
:1027700002FC00FE1028448200FE0202020200FE5B
:10278000402040FE00FE402010FE007C8282827CC1
:1027900000FE90909060007C828A847A00FE909087
:1027A000986600649292924C008080FE808000FCCB
:1027B000020202FC00F8040204F800FC023C02FCE5
:1027C00000C6281028C600E0100E10E0008E92A26D
:1027D000C2000000FE8282000040201008040000B9
:1027E0008282FE00002040804020010101010101A1
:1027F0000000C0E0000000042A2A2A1E00FE222257
:10280000221C001C22222214001C222222FE001C58
:102810002A2A2A1000107E90900000182525253EB7
:1028200000FE20201E00000000BE02000002012168
:10283000BE0000FE08142200000000FE0200003E60
:102840002018201E003E20201E00001C2222221CD8
:10285000003F2222221C001C2222223F00221E2294
:10286000201000102A2A2A0400207C222400003C88
:1028700002043E00003804020438003C060C063C0A
:10288000003608083600003905063C0000262A2AD2
:10289000320000107C828200000000EE0000000088
:1028A00082827C1000408040800000000000000018
:1028B000000000000000000000003F400000000099
:1028C000000000003000400030004000000009001F
:1028D0000BC03D000BC03D00090018C024407FE044
:1028E000224031800000180024C01B000D803240BF
:1028F000018003801C4027401C80074000401000DE
:102900006000000000000000000000000000000067
:102910001F80204040200000402020401F800000F9
:102920000000090006001F800600090000000400E6
:1029300004003F800400040000000010006000005C
:102940000000000000000400040004000400040073
:102950000000000000400000000000000000002017
:1029600001C006003800400000001F8020402040C9
:1029700020401F800000000010403FC000400000C9
:10298000000018C021402240244018400000108060
:102990002040244024401B80000002000D00110054
:1029A0003FC0014000003C8024402440244023805C
:1029B00000001F8024402440344003800000300089
:1029C000200027C03800200000001B802440244045
:1029D00024401B8000001C0022C0224022401F8097
:1029E000000000000000084000000000000000009F
:1029F00000000460000000000000000004000A0065
:102A00001100208040400900090009000900090068
:102A1000000000004040208011000A00040018005F
:102A2000200023402400180000001F802040274081
:102A300029401F400000004007C039000F0001C0BE
:102A4000004020403FC0244024401B8000001F80E5
:102A50002040204020403080000020403FC02040E7
:102A600020401F80000020403FC024402E4030C046
:102A7000000020403FC024402E00300000000F0026
:102A80001080204022403380020020403FC00400DC
:102A900004003FC02040204020403FC02040204054
:102AA00000000060202020203FC0200020002040A7
:102AB0003FC024400B0030C0204020403FC0204099
:102AC0000040004000C03FC03C0003C03C003FC08D
:102AD000000020403FC00C4023003FC020001F806A
:102AE0002040204020401F80000020403FC0244064
:102AF0002400180000001F802140214020E01FA07A
:102B0000000020403FC02440260019C0004018C0EB
:102B100024402440224031800000300020403FC04B
:102B200020403000000020003F80004000403F80F7
:102B3000200020003E0001C00700380020003800BF
:102B400007C03C0007C038000000204039C0060024
:102B500039C0204000002000384007C03840200025
:102B60000000304021C02640384020C00000000056
:102B700000007FE0402040200000000070000C00BA
:102B80000380004000000000402040207FE0000063
:102B900000000000200040002000000000000010A5
:102BA0000010001000100010001000000000400095
:102BB000000000000000000002800540054003C046
:102BC000004020003FC0044004400380000000009B
:102BD00003800440044006400000000003800440DD
:102BE00024403FC0004000000380054005400340F2
:102BF0000000000004401FC02440244020000000CA
:102C000002E0055005500650042020403FC004401B
:102C1000040003C000400000044027C00040000042
:102C2000000000100010041027E000000000204009
:102C30003FC00140070004C00440204020403FC086
:102C400000400040000007C0040007C0040003C0AB
:102C50000000044007C00440040003C0004000001E
:102C600003800440044003800000041007F0045077
:102C7000044003800000000003800440045007F07B
:102C80000010044007C002400400040000000000DF
:102C900006400540054004C00000000004001F80FD
:102CA000044000400000040007800040044007C0CA
:102CB00000400400070004C0018006000400060074
:102CC00001C0070001C006000000044006C001006A
:102CD00006C0044000000410071004E00180060054
:102CE00004000000044005C006400440000000004D
:102CF000000004007BE04020000000000000000015
:102D0000FFF000000000000040207BE00400000015
:102D10000000400080004000200020004000000033
:102D200000000000000000000000000000000000A3
:102D30000000000000000000000000000000000093
:102D40000000000000000000000000000000000083
:102D5000000F80380FFE380F8038000000000000A0
:102D6000000000000000000000000000010000065C
:102D700000000C00003800003100000600000C00CC
:102D800000380000300000000000000000006180FA
:102D90000067F807F98000618000618000618000B1
:102DA00061800067F807F980006180000000000082
:102DB0000000000001C0E003E0F00630080418083D
:102DC0001FFFFE040E080787F00381E000000000EB
:102DD000000001F000060C00040408060C7001F964
:102DE000C0000E00003BE000EC18070808040C18B7
:102DF0000003E00000000001E00007F003F8180401
:102E00001C0804170807E1D003C0E00023B0003C11
:102E10000800200800001000000000000001000071
:102E20003100003200001C00000000000000000023
:102E30000000000000000000000000000000000092
:102E400000000000000000000000000000007F0003
:102E500001FFC00780F00C001810000420000200E1
:102E600000000000002000021000040C0018078081
:102E7000F001FFC0007F0000000000000000000023
:102E8000000000000000000000004200006600009A
:102E90006600003C0000180003FFC0001800003C62
:102EA000000066000066000042000000000008000C
:102EB00000080000080000080000080001FFC00032
:102EC00008000008000008000008000008000000DA
:102ED0000000000100003100003200001C00000072
:102EE00000000000000000000000000000000000E2
:102EF00000000000000008000008000008000008B2
:102F00000000080000080000080000080000080099
:102F10000008000000000000000000000000380071
:102F20000038000038000000000000000000000031
:102F3000000000000000000000000000000000068B
:102F400000001C000070000180000E00003800002E
:102F5000C0000700001C000030000000000000005E
:102F600000007F8001FFE003807006001804000865
:102F700004000806001803807001FFE0007F800055
:102F8000000000000000000001000801000801002E
:102F90000803FFF807FFF800000800000800000819
:102FA00000000000000000000001C03802C058040A
:102FB0000098040118040218040418061C1803F8E9
:102FC0001801E0F800000000000000000001C0E06F
:102FD00003C0F004000804080804080806180803E1
:102FE000F41801E7F00001E000000000000000001C
:102FF00000000300000D00001100006100008108C6
:1030000003010807FFF80FFFF8000108000108009E
:1030100000000000000000E007FCD00608080610D1
:1030200008061008061008061838060FF00607C034
:10303000000000000000000000003F8001FFE003EE
:103040008430020818041008041008041008071837
:1030500010030FF00007C000000000000000000097
:1030600003C0000700000600000600F80607F80687
:10307000180006E000070000060000000000000045
:103080000001E1E003F7F006341004180804180802
:10309000040C08040C0806161803F3F001C1E00044
:1030A000000000000000F80003FC300306380402B2
:1030B000080402080402080404100308F001FFC019
:1030C000007F000000000000000000000000000081
:1030D00000000000000070380070380070380000F8
:1030E00000000000000000000000000000000000E0
:1030F00000000000000000000000301A00301C003A
:1031000000000000000000000000000000000000BF
:103110000000000000080000140000220000410030
:103120000080800100400200200400100800080018
:10313000000000000000210000210000210000210B
:1031400000002100002100002100002100002100DA
:10315000002100000000000000000000080008043A
:103160000010020020010040008080004100002289
:103170000000140000080000000000000003C00070
:1031800004C000040000080038080F380808380898
:1031900010000C300007E00003C000000000000039
:1031A00000003F8000FFE0038070020F100670886F
:1031B00004C088048308047F8802C09003012000B3
:1031C000FE400000080000180001F8003E0801C29F
:1031D0000007020007E20000FE00001FC80001F81F
:1031E00000003800000804000807FFF807FFF80493
:1031F000080804080804080804080806180803F466
:103200001801E7F00001E0000000000000003F802E
:1032100001FFE003807002001804000804000804A5
:1032200000080400100600200780C0000000040011
:103230000807FFF807FFF804000804000804000866
:1032400004001802001003807001FFE0007F80007E
:10325000000004000807FFF807FFF8040808040846
:1032600008040808040808043E08040008060018BA
:1032700001006000000004000807FFF807FFF804E1
:103280000808040800040800040800043E000600C2
:1032900000060000018000000000000000003F80E8
:1032A00001FFE0038070060018040008040208040F
:1032B00002080203F00783F000020000020004008D
:1032C0000807FFF807FFF8040808000800000800D6
:1032D00000080000080004080807FFF807FFF804CA
:1032E00000080000000000000400080400080400BA
:1032F0000807FFF807FFF8040008040008040008A6
:1033000000000000000000000000000600000700B0
:10331000000104000104000104000307FFFE07FF91
:10332000FC04000004000004000004000807FFF88B
:1033300007FFF8040C08001800003E0004C78005D1
:1033400003C80600F8040038040018000008040050
:103350000807FFF807FFF80400080000080000084D
:1033600000000800000800000800001800006000CD
:10337000000004000807FFF807800807FC00007F32
:10338000C00003F80007C000780007800807FFF8B6
:1033900007FFF804000804000807FFF80700080307
:1033A000C00000E000003800001E0000070000011F
:1033B000C00400F007FFF8040000000000007F8058
:1033C00001FFE003807006001804000804000806EE
:1033D000001803003001FFE0007F800000000400BF
:1033E0000807FFF807FFF8040408040400040400B9
:1033F000040400040400060C0003F80001F00000BF
:103400000000000000007F8001FFE00380700600E4
:10341000880400880400C806003C03003E01FFE663
:10342000007F8400000004000807FFF807FFF8048D
:103430000808040800040C00040F00040BC0061068
:10344000F003F03801E00800000800000001E0F897
:1034500003F030063010041808041808040C08049F
:103460000C080206180207F00781E0000000018046
:103470000006000004000004000004000807FFF834
:1034800007FFF80400080400000400000600000123
:10349000800004000007FFE007FFF00400180000B0
:1034A00008000008000008000008000008040010E0
:1034B00007FFE004000004000006000007E000072A
:1034C000FE00041FE00001F80000380001E0043EA7
:1034D0000007C00006000004000004000007E00030
:1034E00007FFC0041FF80007C007F80007FF8004AB
:1034F0003FF80007C004F8000700000400000000C7
:103500000004000806001807C07805F1C8003E0056
:10351000001F800463E80780F80600180400080014
:10352000000004000006000007800007E008047C9B
:1035300008001FF80007F800180804E0080700005A
:103540000600000400000000000100080600380426
:1035500000F80403E8040F08047C0805F00807C01D
:1035600008070018040060000000000000000000D0
:103570000000000000000000003FFFFE20000220CD
:1035800000022000022000022000020000000000D3
:103590000000000008000007000000C00000380024
:1035A0000006000001C000003000000E0000010015
:1035B00000000000000000002000022000022000A7
:1035C000022000022000023FFFFE00000000000079
:1035D00000000000000000000000000000000008E3
:1035E000000010000030000020000030000010003B
:1035F00000080000000000000000000001000001C1
:1036000000000100000100000100000100000100B5
:1036100000010000010000010000010000010000A5
:10362000000000000000002000002000001000004A
:10363000100000000000000000000000000000007A
:1036400000000000000000F00019F8001B18002224
:1036500008002608002408002410003FF8001FF886
:1036600000000800001800000004000007FFF80F29
:10367000FFF0001818001008002008002008003093
:1036800018001FF0000FC00000000000000007C07D
:10369000001FF0001830002008002008002008005B
:1036A0003C08001C1000006000000000000000004A
:1036B000000007C0001FF000381800200800200894
:1036C00000200804101007FFF80FFFF000001000A2
:1036D00000000000000000000007C0001FF0001202
:1036E00030002218002208002208003208001E10B4
:1036F000000E200000000000000020000020080054
:10370000200801FFF803FFF8062008042008042021
:103710000807200003000000000000000000000E69
:10372000000E6E001FF30031B10020B10020B10087
:103730003191001F13002E1E00200E0030000000EB
:103740000004000807FFF80FFFF800100800200031
:10375000002000002008003FF8001FF800000800CB
:1037600000000000000000000020080020080020E9
:1037700008063FF8063FF8000008000008000008AF
:103780000000000000000000000000000000030036
:103790000003002001002001002003063FFE063F39
:1037A000FC00000000000000000000000004000811
:1037B00007FFF80FFFF8000188000300002FC0008A
:1037C00038F8002038002008000008000000000041
:1037D0000000000004000804000804000807FFF8C7
:1037E0000FFFF800000800000800000800000000BB
:1037F0000000002008003FF8003FF80010080020FB
:1038000000003FF8003FF8001008002000003FF8DB
:10381000003FF8000008000000002008003FF8000A
:103820003FF8001008001000002000002008003FB2
:10383000F8001FF80000080000000000000007C0AA
:10384000000FF000183000300800200800200800A9
:103850003008001830000FF00007C0000000000022
:1038600000002001003FFF003FFF00101100200971
:10387000002008002008003038001FF0000FC000B2
:1038800000000000000007C0001FF00038180020F2
:1038900008002008002009001011001FFF003FFF52
:1038A000000001000000002008002008002008009F
:1038B0003FF8003FF800080800100800200800202A
:1038C0000000300000300000000000000000000098
:1038D000000C78001E18003308002308002108009F
:1038E00021880021980030F00038600000000000BE
:1038F0000000200000200000200000FFF003FFF87F
:10390000002008002008002008000030000000000F
:103910000000000000002000003FF0007FF80000E1
:1039200018000008000008002010003FF8007FF099
:103930000000100000000000000020000030000027
:103940003C00003F800023F000007800007000235E
:1039500080003C00003000002000002000003C00FF
:10396000003FE00023F80000E0002700003E0000D8
:103970003FE00021F80001E0003E000020000000D0
:1039800000002008002008003838003E680027802A
:103990000003C8002CF80038380020180020080068
:1039A0000000000000002000003003003C01003F48
:1039B000830023EC000070002380003C0000200006
:1039C0000020000000000000000000000038080097
:1039D00020380020F80023E8002F88003E08003837
:1039E0000800201800007000000000000000000027
:1039F0000000000000000000000008000014001F8C
:103A0000F7FC30000620000200000000000000006B
:103A100000000000000000000000000000000000A6
:103A2000FFFFFF0000000000000000000000000099
:103A300000000000000000002000023000061FF718
:103A4000FC0014000008000000000000000000005E
:103A500000000000000000000018000060000040AE
:103A600000004000002000001000000800000400DA
:103A7000000400000C00001000001110FFF0120004
:103A8000000032102510A91061F029102510321005
:103A9000000018006BE02A00FFF02A202BE008004D
:103AA0003F8000100010FFF0000011001600FFF032
:103AB000120040505F50F56055C0F5605F504050B7
:103AC000000010101210121013E01220122010200B
:103AD000FF0010C0902050700000400040004000E7
:103AE0004000400040007E0009801440222000F089
:103AF0000000120024004FF0900008004800481019
:103B000048104FF048000800000088104FE00010F7
:103B10005E5052905310FFF0531052905E50401080
:103B2000000000107FE0500051107D905550D520CE
:103B300055207D505190501000006BF04D507FF09B
:103B40008950ADF0088045107FF0088045107FF067
:103B50000000442022400020524066F04B105220CA
:103B6000C3804A4066A053100000040008003FF0E4
:103B7000C0002F102AA02A40FFA02A202A102E10B1
:103B8000000020006FF0AA802A906FF00000F3E0A0
:103B90002850489089101870000011001110FFF093
:103BA000120052B04C90649057F084909490A0B062
:103BB000000011001600FFF0140002004200420055
:103BC0007FF0420042000200000011001600FFF0EA
:103BD000140022102410ABA060402BA0241022104F
:103BE000000020201040048008003FF0E490249062
:103BF000BFF0649024902010000000007FF040503F
:103C000041907E10401040107F10409040904390B3
:103C100000005FF052A07CA050A07CA052A05FF0FA
:103C2000000047E044107C70000000007FF040A0DE
:103C300041207E20402040207E20412041207FF0F6
:103C400000002C803480EFF025001FF0122012209D
:103C5000FFE0122012201FF0000088004FE000401B
:103C60008400A5F0BD20E520A520A520BDF084009E
:103C7000000020002AF02AA02AA0AAA06AA02AA058
:103C80002AA02AA02AF020000000081088204FC097
:103C90000020145064902710FC102790245004D06A
:103CA000000011001110FFF012008440C540A9402F
:103CB00097F0A940C5400440000010105F505550D7
:103CC000555055507FF09550955095509F5010107D
:103CD00000000810E810ABF0AA10EA10BE70EA105D
:103CE000AA10ABF0E81008100000081088204FC0A0
:103CF0000020FFD0A890AD10AA10A910FAD004108F
:103D0000000001E07820082008200820FFE00820BB
:103D100008200820782001F0000011001110FFF0A9
:103D2000120000103FE02000A000600020002000F2
:103D300000000010FFE0A200ABF0BE10AA20AB8094
:103D4000AA40BE20AA50E29000001040FFC01080A0
:103D50000210222022C0FF0022C022203E100210AA
:103D60000000821092609F80A2009FF08200F2000B
:103D70000BC044A0A5500C3000004420224000009D
:103D800050206E404AF04B20CA804A406EA051102D
:103D9000000011001110FFF0120025B05690CA90DB
:103DA0006BF05290529060B0000011001600FFF0CE
:103DB00012000080FA80AA80ABF0AA80FA8000800E
:103DC000000021409240444020407F40D5F05540C3
:103DD000FF4055405540554000005F405540FFF0C2
:103DE00055405F4000001FF01220FFE012201FF03E
:103DF00000002AF0AAA06AA02AF08400A5F0BD2045
:103E0000E520A520BDF08400000088104FE0009060
:103E1000F2B0AFD0EA900290F290AFD0EAB0189032
:103E2000000010801090FFF01100E220AAA0EBA08B
:103E3000BEF0EBA0AAA0E22000001110FFF01210CB
:103E40007FE0440057D07D60D7C07D6057D04400EC
:103E5000000010401040FF8010903E202AC06F00EC
:103E6000BAE02B503ED0003000003410242025C092
:103E70002420A41067F024902490249024903410DF
:103E8000000041F041005D0055705550D55055502F
:103E900055705D00411041F00000010049004900EB
:103EA000491049107FF089008900890089000100CC
:103EB000000008C04B404C40494008C00010106052
:103EC000FF80101010101FE0000010105F505550C0
:103ED0007FF095509F5010102020FFC020103FF021
:103EE0000000041044204440448047007C0047E028
:103EF00044104410441004700000021012100A20F4
:103F0000422022400380FE00028002400220021074
:103F10000000220024002FF03A80EA802A802A80C4
:103F20002A802A902FF020000000109024A0FF800B
:103F300024A03F9024803FA024903F8024A00090A4
:103F400000005E905250522052605EA000005FD090
:103F50005560754055605FD00000040008003FF0D8
:103F6000C0007FE0444044A07F1084C0842004F05F
:103F7000000000001F80110011001100FFF011006F
:103F8000110011001F80000000000200421042607A
:103F90007F804200420042007FF042004200020067
:103FA0000000001000603F8025F02520A52065203E
:103FB0002520252025203DF000000210121092201F
:103FC000524012801F0012805240922012100210A4
:103FD000000000009FF040000440048045205FE0A6
:103FE0004400441040107FF00000FFF0A800A880BB
:103FF000FA9003E0028003F0FA80A880A810FFF096
:10400000000000403F80A5F0652025203DE008101D
:10401000F7A010401FA010100000FFF0A000F6C095
:104020002A5016E0000016F02A40F6C0A010FFF05B
:104030000000FFF0A800AA20FA400280032007E059
:10404000FA00AA00A810FFF000002000D3F04800FA
:1040500067C055403540D54057D070105FF04000E4
:10406000000008003FF0C080110012401440FFF033
:104070001440124011000080000020102010382051
:104080002620A140608021402620382020102010CA
:1040900000002000FC5055607F4055D07D702140CD
:1040A000D64048E074504200000004402440248080
:1040B00025002600FFF0260025002480244004402F
:1040C00000007020104011901E10F32012A012402A
:1040D00092A05320101010100000442044207FC0F4
:1040E000444000107F2040C05F0040E07F1000305F
:1040F0000000000000007CC07CC000000000000048
:10410000000000000000000000001C100060FF80A4
:10411000084010304000401040107FF04000400048
:104120000000442044207FC044400100420044007D
:104130005FF0600044004300000011001110FFF028
:10414000120082D0FEA0AAD0AA00AAD0FFA084D0DC
:10415000000008003FF0D0003D50D55056A05D5003
:1041600054F074801D40002000000400AB809A9041
:10417000AA90CEE001100ED0C8A03EA04AD01400F4
:104180000000442044207FC0444000107F2055C0E0
:10419000550055E07F10003000001E100060FF80C9
:1041A0001060A4109BD0EAB00A90EAB05BD0A410D3
:1041B000000044207FE044400810EBA0AAF0EA9001
:1041C000AA80EAC0AAA0EBD000002110FFF02220B4
:1041D0008BE0FAA0ABF0AA20ABE0FEA093F0024087
:1041E00000004FF0488049007E0049404880490067
:1041F0007E00490048904FF00000040004000800D1
:1042000010002000CFF0200010000800040004007F
:104210000000020002000200020002000200020090
:1042200002000200020002000000FFF08910AA1044
:10423000EF90BA50EAD0AAD0EF50AAD08910FFF080
:1042400000004FF048404A80490048807FF04840D5
:104250004A80490048904FF00000040008003FF0F9
:10426000C0007FF040204BA07EA04BA040207FF0FC
:10427000000011001110FFF012000010321023A0F6
:10428000AE40624023A032100000400040004000D9
:1042900040007FF040004800440042004180400060
:1042A0000000040004507C9005100420FDE0244030
:1042B00024402480250004000000040008003FF092
:1042C000C00002207A404A804FF04A807A400220A3
:1042D000000011001110FFF0120008002A802A507F
:1042E000FA102FF02A000A00000000007FF04020A2
:1042F00040204F20492049204F20402040207FF07F
:10430000000061104110492049C04900C90049001E
:1043100049E0491041106130000000103FE02400E6
:10432000244027D02020FF402080A140662020F09C
:10433000000011001110FFF012001010FAE0AA1096
:10434000ABF0AA90FA9002100000082008404980C3
:10435000480048104FF048004800490008800860B5
:104360000000000000000CC00CC0000000000000B5
:104370000000000000000000000000004FE04210BC
:104380004210421042104210421042107E10007043
:1043900000000C000C00000000000C000C000000ED
:1043A00000000C000C000000000088104FE000101E
:1043B0009FD09510D510BFD0B510D5501FD000108C
:1043C000000008003FF0C00020002AF02AA0AAA0A8
:1043D0006AA02AA02AF02000000005100910712010
:1043E00011401180FF0011801140112001100110B7
:1043F00000007F9040205FC040207F90081037A0D1
:10440000D04010A01F101010000088004FF00020B6
:10441000440057F05540FD405540555057F044007A
:10442000000002000A10722012401380FE001200E9
:1044300013E0121012100270000088104FE00010FC
:10444000421066D05A506A505FD08A509A50A2D01B
:104450000000088049004A007FF08A0009003FE020
:104460002040204020403FE000008080BFF0A4803A
:10447000A480A480FF80A480A490A490BFF080803A
:10448000000000000000030004800480030000001E
:10449000000000000000000000007F9054A0548045
:1044A00054A07F9004000810F7A010401FA0101027
:1044B00000002AF0AAA06AA02AF0440057F0554054
:1044C000FD40555057F04400000088104FE00510A3
:1044D00027D03D504D50F7D05550655045D0011074
:1044E0000000204020403F80209020A010C0FF000E
:1044F0001000101010101FE0000042004FE0744048
:1045000047E000102FE0CA804FE05A806A900FF019
:1045100000001E000000FFF0102023C0FC1023202C
:1045200020402F8022602410000020004050BE90C8
:10453000ABD0AAA0AAA0AAA0AAA0AAD0BE90801080
:104540000000001010205040308013001C00F200CA
:104550001190101010101FE00000FA50AA608A504D
:10456000FFA0AA90FAA0001008E0FF0048E0281081
:104570000000080088004FE00040009000600380C9
:10458000FC000380006000100000080088004FE07D
:1045900000400A10F31082A08240F2A00B10081015
:1045A000000000003000700087608F6078003000ED
:1045B0000000000000000000000042004FF07420E6
:1045C00047F0320027F03D50E55037F02D50355080
:1045D000000024004FF090004050BE90ABD0AAA045
:1045E000AAA0AAA0BED08010000000402080A36036
:1045F0006E003AC0EA002AC02A103AD00E1003E03A
:1046000000002AF0AAA06AA02AF0082052404530F3
:104610007890423042807C6000002AF0AAA06AA014
:104620002AF000000A1073A0424042A07B1008103C
:10463000000040407FC04A404A407FF04080201048
:104640003F2020C03F200010000008204440208070
:1046500000004FF02A800A80FA800A802A904FF0EA
:10466000000000104FE06A90DA906D2048409F9063
:10467000B020D7C090209F90000010002FE049107C
:10468000C91049104F104910591069100F100070CF
:104690000000442022407F9040205FC040207F9057
:1046A00000003F800010FFF0000088004FF0002065
:1046B0000000242027E024402000FFC02020A0701C
:1046C000000045102910015025D0CB205120612039
:1046D00051504990551065000000222022C024004E
:1046E00028E03010E51032D02810243022802260DB
:1046F000000000907F60400057605510575040B058
:10470000F9104630D94043B0000000103FE02010BF
:10471000221021D0A8106710203020D027102010A0
:1047200000007FF040404C4073800000300027E0E4
:10473000A09061102210347000001E201220FFC0D3
:1047400012401EE00010FAA0AF90FAF0ACA0F99071
:10475000000000009FF0408001008600B800840047
:10476000820081908010FFF000001E100060FF802A
:10477000104020607D8044105FF08400850004C0FC
:1047800000004900FD4055705D50F3505D502350CE
:10479000D550497075404300000011001110FFF022
:1047A000120000007FF0421043A04A404AA073105C
:1047B00000003FC0248024802480FFE024902490C7
:1047C00024903F900010007000002000DFF05000A7
:1047D00075C055403540D54055D070105FF0400051
:1047E00000007FC040807FC0000052004A1042108D
:1047F0007FF082008A00920000007FC040807FC06E
:10480000001040607F80411040A04C4074A0071011
:10481000000044202240001024202DC03400A5F0C8
:10482000640025E02C10267000000020104011804C
:104830001E100010FFF01800060009801040202014
:10484000000000104FE06C00D5506D5046A00000F5
:104850005FD0756055605FD0000088204440001034
:104860007FA0548054807FA000103F800010FFF094
:104870000000AAF06AA02AF00000242027E02440CB
:104880002000FFC02020A070000020106FA0AA0010
:104890002A206AD02FB00010E730528094A03190C7
:1048A000000000107FE044105F606800DF607590DA
:1048B00055507F30554055300000FFF0A800A8004B
:1048C000F840008007000080F840A800A810FFF022
:1048D00000001E100060FF8010406D20B5407D80FC
:1048E000D7F07D802940D520000008402D40FBF006
:1048F0002D4008407FF0421043A04A407BA00010AA
:1049000000003000A7E0B540A540A540F7E0A55065
:10491000A550B550A7D030300000000000000200C4
:104920000106040106040104063FFFFE3FFFFE23CB
:104930001800021000038804079A04073204027268
:104940000422E20432C3FC3A03F81A83FC0AC204CC
:10495000024204027604033E0C073A0806000800EF
:1049600000000000000000000000003FFFFE3FFFCD
:10497000FE1FFFFE1000C8100188101F081FFE0850
:104980001FF8081000081000081000081FFF081F7B
:10499000FF081001081001081001081FFFFE3FFF6B
:1049A000FE3FFFFE000000000000000000000008C5
:1049B0000020181020181C20300E7FE00E7FF00021
:1049C0000C18000C18173FEC1777EC13E5E418A44B
:1049D000241CA424173FE4133FE430A42421A4267C
:1049E0002766262E67E62C6DE6202C0600040400C0
:1049F000000000000000400800401820401830402F
:104A0000303C7FE01C7FF0004018004008044A0C56
:104A1000045BE40FD3E41FF3243EE2247FE2246D21
:104A20007FE40B3FE40A22240E22240C23E41C27FB
:104A3000E418052400040400000000000000000049
:104A400002186002F86007E8407F88C07DFFFE25FD
:104A5000FFFE0488800C19800C190001FFFE01FF85
:104A6000FE01FFFC0104080104083FFFF83FFFF8C6
:104A700021040801040801FFFE01FFFE01000400FB
:104A8000000000000000000005012005FF2004FFD9
:104A9000200491207FFFFE7FFFFE0491200DFF6028
:104AA00009FF4009806003FFFE03FFFE01FFFC01D8
:104AB00004084104087FFFF83FFFF80104080104DF
:104AC0000803FFFC03FFFC010000020E3E7E7E3E59
:104AD0000E0240707C7E7E7C704007F00410041053
:104AE0000808080808081004200441544D5C75703B
:104AF00005C005000500050002000000BFD8CBC4BA
:104B0000D2A3DF62D6E1DD5300000000BFD8D6C6D5
:104B1000C4A3CABDB7C9D0D0CBD9B6C8B7ADB9F652
:104B2000CAB9C4DCD2A1B8CBD0A3D7BCC6A5C5E452
:104B3000CBC4D6E1D3EFD1D4D1A1D4F1D6D8D6C34A
:104B4000CDCBB3F6C0A9D5B9BFE9EF779D4C93752E
:104B500097559CCADD53D55ADF7893F19455894B0C
:104B6000B6A8B8DFCAD6B6AF84D3CEDECDB7D3D021
:104B70009F6FEE5EB5CDD6D0BFAAC6F4B9D8B1D579
:104B8000E95F86A2EA50E95DBCF2CCE5CEC4B7B1DC
:104B9000CEB4B7A2CFD6A3A1B5C6BBB7C9E3CFF1F8
:104BA000B06CAC469FF4AD68947AC1BDB8F6D2BB88
:104BB000C8A683C98280B0B4CFC2B2BDB1A3B3D6F8
:104BC000BBD8CDEAB3C9CCE1CABEA3BAD2D1A1AD9C
:104BD000CDA8D0C5CAA7B0DCC7EBCFC8D2A3BACD89
:104BE000D4D9A1A394A1D588DF62B9A6C8B7BBD692
:104BF000B8B4CEAAC4ACC8CFC9E8A3BFB45F8FCD48
:104C00009EE9D54AD44FC8A1CFFBD1D5C9ABB2E2FA
:104C1000CAD4D7CBCCACB8D0D3A6CDD3C2DDC9C112
:104C2000CBB8BEAFB1A8B5E7CDB2BAF4CEFCC1F7F0
:104C3000CBAEEE819C79D487914291AAE957A071BD
:104C400088F3EB8A00000000312E50494400000038
:104C5000332E53706565644B64000000362E446942
:104C6000726374696F6E4B6400000000322E5461F1
:104C7000726765745370656564000000322E53706E
:104C80006565644B69000000352E44697263746980
:104C90006F6E4B6900000000332E43616C696272D5
:104CA0006174696F6E000000312E53706565644B4E
:104CB00070000000342E4469726374696F6E4B702B
:104CC00000000000566563746F722043617200003B
:104CD000566563746F720000342E526573657400FC
:104CE000332E457869740000352E457869740000CC
:104CF000372E457869740000322E50617261204170
:104D0000646A757374000000312E50617261205620
:104D1000696577002B0000002D0000004F4B00005C
:104D2000404D000000F0FF1F1C01000004010000C6
:104D30005C4E00001CF1FF1F5C1000002001000011
:104D400000B4C404005A6202005A6202000000006B
:104D50000000000000000000000000000000000053
:104D60000000000000000000000000000000010042
:104D70000C4B0000FC4A00000100000000FEFF1F79
:104D8000C44C000000000000000000000000000013
:104D900000000000A84C00007C4C0000504C0000BB
:104DA000B44C0000884C00005C4C0000F04C00004B
:104DB000084D0000F84C0000984C0000D84C000052
:104DC000E84C0000484C00006C4C0000E04C000037
:104DD0000000000000000000800000004000000013
:104DE0000300000000000000D04C0000760000002E
:104DF0000E0000000A000000320000000000000069
:104E0000030000000000000000000000000000009F
:104E100000000000040000002E000000240000003C
:104E20000E000000144D00000100000057000000BB
:104E30002E000000240000000E000000184D0000AD
:104E4000010000002E0000002E00000024000000E1
:0C4E50000E0000001C4D000001000000DE
:04000005000000C136
:00000001FF
