:020000040000FA
:10000000680800204B010000570100005901000062
:1000100000000000000000000000000000000000E0
:100020000000000000000000000000005B01000074
:1000300000000000000000005D01000075390000B4
:100040006101000061010000610100006101000028
:100050006101000061010000610100006101000018
:100060006101000061010000610100006101000008
:100070000D3B0000B53B0000B73B000081120000C3
:1000800061010000610100006101000061010000E8
:100090006101000061010000652F00008D2F00004C
:1000A000512B00009D2B0000610100006101000048
:1000B00061010000610100006101000061010000B8
:1000C00000F002F800F030F80CA030C8083824180E
:1000D0002D18A246671EAB4654465D46AC4201D180
:1000E00000F022F87E460F3E0FCCB6460126334282
:1000F00000D0FB1AA246AB463343184734970000A2
:10010000549700000023002400250026103A01D354
:1001100078C1FBD8520700D330C100D50B607047BF
:100120001FB51FBD10B510BD01F028F81146FFF72F
:10013000F7FF06F00BF901F040F803B4FFF7F2FF08
:1001400003BC03F046FD000070470948804709489A
:10015000804709480047FEE7FEE7FEE7FEE7FEE7C7
:10016000FEE7000005480649044A064B70470000B8
:10017000093A000049010000C100000068070020A2
:1001800068080020680700207047000030B5441C54
:1001900003E00178401C00290DD08107F9D10B4BF9
:1001A000DD0104C8D11A91432940FAD0001B0A0688
:1001B00003D0C01E30BD001B30BD0A0401D0801E1C
:1001C00030BD0902FCD0401E30BD0000010101011C
:1001D00001E004C0091F0429FBD28B0701D502806E
:1001E000801CC90700D00270704700290BD0C307DC
:1001F00002D00270401C491E022904D3830702D595
:100200000280801C891EE3E70022EEE70022DFE780
:10021000002203098B422CD3030A8B4211D3002303
:100220009C464EE003460B433CD4002243088B42DD
:1002300031D303098B421CD3030A8B4201D394466A
:100240003FE0C3098B4201D3CB01C01A524183095D
:100250008B4201D38B01C01A524143098B4201D317
:100260004B01C01A524103098B4201D30B01C01A42
:100270005241C3088B4201D3CB00C01A52418308BC
:100280008B4201D38B00C01A524143088B4201D3E9
:100290004B00C01A5241411A00D201465241104649
:1002A00070475DE0CA0F00D04942031000D34042BE
:1002B000534000229C4603098B422DD3030A8B42F4
:1002C00012D3FC22890112BA030A8B420CD3890192
:1002D00092118B4208D3890192118B4204D3890178
:1002E0003AD0921100E08909C3098B4201D3CB01B6
:1002F000C01A524183098B4201D38B01C01A52416B
:1003000043098B4201D34B01C01A524103098B426E
:1003100001D30B01C01A5241C3088B4201D3CB0059
:10032000C01A524183088B4201D38B00C01A52413C
:10033000D9D243088B4201D34B00C01A5241411A13
:1003400000D20146634652415B10104601D3404241
:10035000002B00D54942704763465B1000D34042F2
:1003600001B50020C046C04602BD704770477047C7
:100370000246C80FC00781434B0030B54B405B00BD
:100380009B0D20D01923DB06C91801231B059942B8
:1003900020DB0324A40704251346AB400BD3002B1A
:1003A00004D1EB0613409B00E34204D4012464070C
:1003B000002312195941FF231B0599420BD2C90092
:1003C0000143500F09E0CB0204D501430803024367
:1003D00005D0054830BDFF21C905084330BD08469A
:1003E00007210905884330BD0000C07F7047000029
:1003F00010B5024800F0E9FE10BD00000000C07F0B
:10040000FFFFFFFFFFFFFFFFFFFFFFFFFFFFFEFEFE
:10041000F0B50C46871A9C410D46861A9D4103D2C1
:10042000C01BA141D21963410D0D1F0DC94EEC1B1C
:10043000AE435CD07F057F0D0026002F51D02D05E7
:10044000AC46A943DD020123ED0A1B051D43202311
:100450001B1B24D41746E740381871412F46E7404C
:10046000CC199D402818314661410C0D27D16144BB
:100470009A4013D50023401C594152000ED1400828
:10048000400001224B005205D34207D3052040070C
:10049000C14201D5B04900E0B0493046F0BD6B0023
:1004A000002A00D001229A181F23203C1B1B01D5D3
:1004B000002302E0E540281871410C0DD7D001243B
:1004C00024050919C407CD0740084908E40F28434B
:1004D0006144002CD5D00024401C61419A40D0D109
:1004E000CDE76A05520DD9D1C90FC907D5E79C4D93
:1004F0004E00002801D0012400E0002434195F00E0
:10050000002A01D0012600E00026BE19954FAC421A
:100510000CD8AE420AD8B44206D001256D05EC4293
:10052000BCD010461946F0BD9942FCD00020394697
:10053000F0BDF0B51FB40C460F46811A9F41254609
:10054000861A9D4106D20125ED076F40401ABC4135
:1005500052187B41210D1E0D8D1BAC467D4D8D43E8
:100560007ED075056D0D7CD00D05AE46AC431B03EA
:100570001B0B794D52429D41202366469B1B14D391
:100580001746F740381800260090744160462F4601
:100590000741E41900989D402818664116D4714619
:1005A00071189A4025D5012320E093182A466A4104
:1005B0005200002B00D0521C1E23203E9B1B002B00
:1005C00061DD3541EE1728186641E8D500187641FF
:1005D0005B1C9A4000D3401C4B05F3181524E340E4
:1005E00010D3002B52D071467118D30FC01802D30C
:1005F000491C05B0F0BD0123DB079A42F9D1400840
:100600004000F6E701225205B21801D1002853D06C
:100610000123CC0ADB029943891E002A08D1020C6F
:1006200003D0020C0004103902E0024600202039F9
:100630000023550B05D112020823550B01D152019D
:100640000D23550C01D112011B1DD50C01D19200B7
:100650009B1C150D01D152005B1C2025EE1A01E0F8
:100660002CE022E00546F54015439840CA1AE10700
:1006700069181305C918002ABBDA032040070818B7
:10068000C10FC9070FE071466118B2E7F1074008D2
:100690000843711071444A000CD001235B059A4253
:1006A000A7D2C90FC9070020A3E74905490D26D1E4
:1006B000002001E00028F4D100219AE7284D6600CF
:1006C000002801D0012100E0002171185F00002AFC
:1006D00001D0012600E00026BE19224FA94210D801
:1006E000AE420ED8B14208D001256D05E94206D0D0
:1006F0001946A802414010467BE79C4201D02146A2
:1007000077E70020394674E710B50C465C4005D504
:100710000124E4076340FFF70CFF10BDFFF778FEEC
:1007200010BD30B40C465C4004D50124E40763409E
:1007300030BC6DE630BCFCE670B50124E4076140D6
:100740000D465D4002D4FFF763FE70BD6340FFF7C6
:10075000F0FE70BDFF0700000000F0FF0000F07F1A
:100760000000E0FF0000F87FF0B5F94D0C091E090C
:100770002C402E402F468BB0A7437DD0B543FCD0F4
:10078000002E7AD0002CFCD00D465D40ED0F2543A5
:10079000AC1BFF25AD0464190894C502440DC902C1
:1007A0002143500DDC0204430120C00701430443F0
:1007B000D2020191200C110C00958C4601042346B5
:1007C0008B430A9161460904E24D8A430991010A6B
:1007D0007D4449198039097805464D4301266D1835
:1007E000F605751B6943C90C640B891C4C436418DE
:1007F000B5012C1B250C2E04B4434C434D43210C56
:10080000691889090591009DE90701D00121C907EF
:1008100004912C4601996708CD072F434C08059D8C
:10082000E10B4D432D0C29466646754302950D4656
:1008300045432E46029D7D1BB44100950D465D4308
:1008400001942C0C2F040D465543AE462D0C3D4310
:10085000029503947546049C2D04641B049406D2EF
:10086000029C039D641C002675410395029401AC13
:1008700070CC009F7D1B01E03EE162E1B4410904C0
:100880000095079101940599A4086143090C0C4651
:100890004443650BE7040C4666467443A646640B66
:1008A0003C43039502947446049DE4042C1B049479
:1008B00006D2029C039D641C002675410395029498
:1008C00001AC70CC009F7D1BB44101940C465C438D
:1008D0000095650FE7000C465443A646640F3C4361
:1008E000039502947446049DE4002C1B049406D2E4
:1008F000029C039D641C002675410395029401AC83
:1009000070CC009F7D1BB441AE09AF06049DC900A9
:10091000AD092F43049DA406AD060495079D3443FD
:1009200069180791059DE10B4D432D0C294666463C
:10093000754302950D4645432E46029D7D1BB441ED
:1009400000950D465D4301942C0C2F040D46554334
:10095000AE462D0C3D43029503947546049C2D0430
:10096000641B049406D2029C039D641C00267541FE
:100970000395029401AC70CC009F7D1BB44101949F
:100980008C050694079C890A611800950791019CC3
:100990000599A4086143090C0D464543680BEF0413
:1009A0000D46644665436C0B3C43049FED047D1B80
:1009B000AC4602D20025641C6841009E019D371B95
:1009C00085410846584301950C46460FC5005443DF
:1009D000600F28436546E4002C1B02D20025401C12
:1009E0006E41019D3F1AB5412846BD098006284346
:1009F0008446A009BF064E020699A406761807434E
:100A0000079D002068410A99079019430020099B1F
:100A100000906046FF1913434041E20F64003A43DF
:100A2000A4460446D71A8C41A04203D90120009065
:100A300020463A46C70F941840416246D20F2243DF
:100A4000644664000494009CBE466400D71AA44621
:100A5000044602978C417746002F01D1A04204D969
:100A60006046401C8446029A2046C40FA64694184D
:100A70004041049A0546D20F224364466400D31ACB
:100A80008D417146002901D1A84202D928461A4653
:100A9000641C10430122002800D01643610200208C
:100AA000079B891904465C410223002C02DB49188C
:100AB00013466441089DCE0A2D145D194B05670548
:100AC000E10A2C050D1908993E43C9076940002B1E
:100AD00008D0934006D30022761C5141002B01D14F
:100AE000760876001C4A002D43DB154241D0AA430C
:100AF0003FD030460BB0F0BD06180D464D41174CA7
:100B00007642AC411AD395181C465C41134A6D429B
:100B1000A24113D3012252054C00D4420AD15C00F9
:100B2000D4420BD04B4002D592021143E2E7490078
:100B30004908DFE75940C90FC90718E000200849F4
:100B4000D8E7054801420DD10342F7D0F2E7000093
:100B50000000FF074E8D00000000F07F0000E0FF66
:100B60000000F87F114859400143C0124140002065
:100B7000C0E70123089A9B069A4205DC032252072C
:100B80008918C90FC907B5E7052252078918074A0E
:100B90001143D2125140ADE770B515461C460246CE
:100BA0000B4628462146FFF7DFFD70BDFFFFFF7FA4
:100BB0001F22030C02D10F22000402D0030E03D027
:100BC00004E00020014670470002083A030F01D1FB
:100BD0000001121F830F01D18000921E002801DB4B
:100BE0004000521E120551184205C012411810460D
:100BF0007047C10FC90700D040420122920711433C
:100C0000D6E701218907D3E7F0B58B4C0F092546BC
:100C100089B0BD437BD01D092646AE43FAD00E46AF
:100C20005E402740F60F3E43254071D0240121420B
:100C3000FBD0FF24AD19A4042D1B039501252D0520
:100C4000DB02DB0AC9022B43C90A29431E01090141
:100C5000040F130F050121431701880B82039143F1
:100C60002D098C46A90B1E438A039543B30B9A03A7
:100C700096433F09BA0B9403A74302962E467E4340
:100C80000497B6464E19D7190C460196544305975A
:100C90007E43371B7646BF1B3601B646BE0B361960
:100CA00000967646BC043719009C01D3641C00945E
:100CB0006400002F01D001263443029E049F754337
:100CC00066467E430496760034196E00341900940B
:100CD000029C019E1C196643751BAE460694654630
:100CE0004519059C05956C43594375460891691A49
:100CF0000191049E01465143A41B0491611A009C7A
:100D00000791E10605D061090122114302E072E07A
:100D10006EE06109089D00272C0A2D066918049DC4
:100D20007C412A0A2D066918019D6241AC0DAD0275
:100D30006D185441079A910D920255196141029A1A
:100D4000644658435443069B059A5A43121A131B90
:100D50009A0E9B015B187A41010B0005C3185141A3
:100D6000220A200644195A419A4200D2491C012005
:100D70004002814203D315230226F64302E01423E6
:100D80000326F6432020C51AA9401746AF40DA4093
:100D90000A4320460399D8400914731819055118BD
:100DA000039A3843D2075140AC4009D00122944005
:100DB00006D30022401C5141002C01D140084000C4
:100DC0001E4A934212D3012203989206904207DBF7
:100DD0000520400709181A480143C012414004E0A9
:100DE000032040070818C10FC907002009B0F0BD53
:100DF0000020F107FAE705180C464C4111486D42F6
:100E0000A04115D394181A465A410E4864429041A5
:100E10000ED301204A004005824209D35A00824283
:100E200006D35940C90F084AC90700201143DDE71E
:100E300000200649DAE700000000FF07FE07000077
:100E4000FFFFFF7F0000E0FF0000F07F0000F87F61
:100E50000121C9050123411842001B06D3185B0E6E
:100E60000AD0C1100722D206891840075242D14247
:100E700001D5520089187047090208D50146002A99
:100E800003D0C10FC90700207047104670474202C7
:100E900002D0002002497047072109050143F4E709
:100EA0000000F87FF0B5FF252D04C609C209FF2711
:100EB00004462E400137CB093E4348402A402B4090
:100EC0000746002A6BD0002B69D0AA4267D0AB42FC
:100ED00065D0002800DA32460125ED0529432C4370
:100EE00009022002090AD21A4B0C7F24E31A434C50
:100EF000000A7C44E35C7D242404121914145B0072
:100F0000A218884201D3521C00E0400049420C461E
:100F10005C4324115C43DB016415E318040A5C4361
:100F2000C502200D0C4644436419250A5D43230382
:100F3000EC0C0D46654300030019EB184C42A3422C
:100F400001D35B18401CD4052018002B07D05B0090
:100F5000C91804D3401C002901D1400840003F219A
:100F600089048A4209D3002A08DC1106090F04D03B
:100F7000032149074018C00FC007F0BD01224100FE
:100F8000120689187F2252069142F6D2052149079E
:100F9000C84201D59010F0BDFF20C005F0BD002F64
:100FA00000DA32461648AA4207D2AB4205D21902ED
:100FB000090E17D0F80FC007F0BDFF2563002D06FE
:100FC000AB42F9D84900A942F6D8AB4201D1A942B7
:100FD000F2D0A94201D1002101E061004908D00509
:100FE0000843F0BD1102090EFBD0FF200243D005DB
:100FF000F0BD0A460146104654E70000AC860000EA
:101000000000C07F10B501469E240002CA15A30748
:10101000002A02D01843002A04DBA21A002A0CDDA1
:10102000D04010BD1206120E01D140004008A21A95
:1010300003D4D04040420028F3DDFF2248001206CE
:10104000904201D9002010BDC817C043584010BDC0
:101050000102C21504D00123DB071943002A0ADB71
:101060009E239A1A02D40846D0407047FF224100BE
:101070001206914201D900207047C017C043704743
:101080001F22030C02D10F2200041CD0030E01D139
:101090000002083A030F01D10001121F830F01D192
:1010A0008000921E002801DB4000521ED20551181C
:1010B000021251181922904004D3491C002801D172
:1010C0004908490008467047C10FC90700D040428F
:1010D000012292071143D3E701218907D0E70000DD
:1010E00010B5FF231B0644009C421DD84C009C42B7
:1010F0001AD80346124A0B4307D4401A02D3EFF31F
:10110000008010BDEFF3008010BD081A06D2EFF387
:10111000008001219043C907084302E0EFF30080FB
:10112000904380F3008810BD0D231B041A4204D0A5
:101130001146002000F006F810BDFFF759F910BD68
:1011400000000090C80212D54803400F002804D0C8
:10115000C803C043012188407047EFF300800001BD
:10116000000903210907084380F300887047002025
:101170007047000000487047040700207546FFF7DD
:10118000F9FFAE46050069465346C008C0008546D3
:1011900018B020B5FEF7E6FF60BC00274908B64648
:1011A0000026C0C5C0C5C0C5C0C5C0C5C0C5C0C576
:1011B000C0C5403D49008D46704710B50446C04645
:1011C000C0462046FEF7B9FF10BD10B50C4611070A
:1011D000090F092904D00A290AD008290CD104E0F2
:1011E00011460820FFF7AEFF06E0510606D501E0E4
:1011F000510601D50120C007214610BDD10607D5F3
:1012000001010909CC084907000E0006044309E062
:10121000410F20024907000A0143200E00061D224B
:10122000D14101430846E7E770B58C180578401CAA
:101230006B075B0F01D10378401C2A1106D102789D
:10124000401C03E00678401C0E70491C5B1EF9D15F
:101250002B0705D40023521E0DD40B70491CFAE74E
:101260000378401CCB1A921C03E01D780D70491CBA
:101270005B1C521EF9D5A142D8D3002070BD0000DE
:1012800030B5094A0020064C0649137804E022696B
:101290004500401C4A53C0B29842F8D330BD00000C
:1012A00000B0034018F6FF1F84F0FF1F70B51B4C01
:1012B000E08B401CE083A088401CA08000F022FC52
:1012C000A08A401CA08200F0B1F8E08B002503004A
:1012D00002F072FC061F040712151B1F02F04CFDE2
:1012E00070BD6088401C80B260800A28F8D3658099
:1012F000A58000F08FFB70BD03F01EFC70BD00F0F8
:10130000E5F9A58200F020F870BD00F0E3F8E58370
:1013100070BDE5836580A580A58270BD00F0FF1FCC
:1013200010B50121024A084603F032FD10BD00004D
:10133000AD12000010B50021252004F099FB01201A
:1013400003F0A0FD10BD0000F8B5334E334CB06F74
:10135000A16A05F0CDFB616B05F0CAFB0746A16EE3
:1013600005F0C6FC02460090304639465C3804F071
:1013700059FD30468038C16C294B1A029942C16C24
:1013800000D35140456D9D42456D00D3554000202E
:10139000E066384605F01CFCFFF734FE07B229462C
:1013A000009805F015FCFFF72DFE1B4905B24031F2
:1013B0002620085E1D30FFF787FE1A4905F008FC5D
:1013C000FFF720FEE18A00B22183FFF77DFE009047
:1013D0003846FFF779FE07462846FFF775FE1249A3
:1013E00005F0F6FB0146002005F082FB394605F0CA
:1013F0007FFB009905F07CFBFFF704FEE082812172
:10140000B06FC905884205DA7F21C905C84201D2FB
:101410000021E182A066F8BD7CF5FF1F00F0FF1FF0
:1014200000008080CDCCCC3D3333333F70B5074DC9
:101430001421E88A2C8B695E001B00B2491C4843CA
:101440000521FEF7EFFE0019688270BD00F0FF1F56
:10145000F8B5FFF739FE1849C96805F049FC174E81
:101460000446B06CFFF7F4FC154A164BFFF7CCFBB3
:10147000FEF77EFF07462046FFF7EAFC124A134BB1
:10148000FFF7C2FB04460D463846FFF7E1FC224653
:101490002B46FFF739F9FEF76BFF0D49B0640A6878
:1014A0000121C9074A400146104605F091FBFFF7AC
:1014B000A9FD00B2F8BD0000FCF5FF1F00F0FF1F02
:1014C000666666666666E63F333333333333D33F4F
:1014D000FCF4FF1F70B5164D164B6889698A2A8A7D
:1014E0004018511A14229A5E00B2544209B223B233
:1014F000824201DA104602E0844200DD18468A4248
:1015000001DA114602E08C4200DD1946094A403AF0
:10151000108151811A22AA5E022A06DD00210846A6
:1015200002F05AFE02F0C2FB70BD02F055FE70BD23
:1015300000F0FF1FFCF5FF1FFEB52E4D0024AC6729
:101540007F26B602EC670ECE2846274600948038E8
:101550000C3E019405F078F9274BF06898633169E7
:10156000D96372691A642E46803E244BB763F363D5
:10157000234B7363234BB362234B7362234BF3649C
:10158000234B73653346583307C328465C3804F051
:10159000FFFDFD235B0214206043811908464030A3
:1015A0000A460786603217715771C784CF66E1001B
:1015B000C9180A880285641C8988E4B24185052C13
:1015C000E9D3962028826F82A8840A48EF844030AD
:1015D00007814781EF642F656F653F20C002AF65CB
:1015E00001680448044A803081601162094981829F
:1015F000FEBD00007CF5FF1F00F0FF1F0000C8418A
:1016000000007041000048420000204300004041BB
:1016100000003443B60300001FB500200090019085
:1016200002900390064880680090FC2004F034F893
:10163000042200236946FC2004F074F81FBD00005A
:10164000FCF5FF1F70470000F8B5FFF73DFD184996
:10165000096905F04DFB174E0446F06CFFF7F8FBE7
:10166000154A164BFFF7D0FAFEF782FE07462046D2
:10167000FFF7EEFB124A134BFFF7C6FA04460D467E
:101680003846FFF7E5FB22462B46FFF73DF8FEF70D
:101690006FFE0D49F0640A680121C9074A400146FE
:1016A000104605F095FAFFF7ADFC00B2F8BD00005A
:1016B000FCF5FF1F00F0FF1F666666666666E63F84
:1016C000333333333333D33FFCF4FF1FF8B5884D46
:1016D000884CE88C0A2811D2688F0A2802D2608BC5
:1016E000401C60837F26F6053146E06A05F000FA6B
:1016F000E0623146206B05F0FBF920637E48E16A29
:10170000814207DD7D4860640A220221062002F042
:10171000B5FA09E0216B814206DD0A22022106208A
:1017200002F0ACFA76486064E88C102836D9616B18
:101730004800000E28D0A08B0122401C80B2D205A8
:10174000A08391420DDB0A21401CFEF761FDFFF7EB
:10175000C3FC616C0D4605F03BFA294605F0C8FA5A
:1017600010E0FF22D205D14214D30A21401CFEF71B
:101770004FFDFFF7B1FC616C0D4605F029FA2946D3
:1017800005F0B6F9606305E05949A06B40398865FA
:101790000020A0830020E062206301E0606C6063B1
:1017A000534D2078403D2E46FF35052780360135C4
:1017B000030002F001FA0604395E778992902868E6
:1017C0000125ED05A84205DB7F21C905206D05F047
:1017D0008FF90AE0FF21C905C84201D2206D05E05A
:1017E0007F21C905206D05F083FA206545498842AF
:1017F00003DCFF218905C84215D903F05BFBE065D6
:1018000001202070052211460A2002F037FAFF213C
:10181000206DC905C84201D3012002E0A84202DBC5
:10182000022002F068FCF8BD03F044FBE16D401AB1
:101830007D21C900884200D927702D68206D294676
:10184000074605F0C5F901462F488142EBD3874290
:1018500001D3032001E00220C043FFF735FCA06262
:10186000306F6565A06503F025FB206602202070BF
:10187000F8BD03F01FFB216E401A7D21090188424B
:1018800000D92770306FA16D05F032FA04F02AFA02
:101890001E498842ECDD0020A06203F00BFB60666D
:1018A0000320E4E703F006FB616E401A1849884202
:1018B00000D927702968606D05F08AF90121C905F2
:1018C0008842D5DB0420D2E728684000000E02D011
:1018D000F08E5A28CCD92770F8BD002002F0FAFB10
:1018E000002020656065A065E065A062BFE700009C
:1018F0003CF5FF1F00F0FF1F000020410000A04149
:101900000000A0C100004040000080800000204294
:10191000881300007CB5354C354DA089002815D1C1
:10192000384934A08861A868A062084601F09CF894
:1019300020462C3000F0FBFB2046443000F0F7FB43
:1019400020465C3000F0F3FB0120A0812E487F266A
:101950000078F605072822D001282AD0042837D09D
:10196000224801212C3000F032FB20480121443074
:1019700000F02DFB18250C2324A210210A2000952D
:1019800004F008FFA06AFFF763FB02460C200090FA
:10199000022310210195582004F068FE7CBD1348F5
:1019A00000212C3000F013FB3146A06A05F0A0F8AE
:1019B0000CE00E480021443000F009FB0121A06A30
:1019C000C9058842D6DB314605F092F9A062D1E71D
:1019D000A06AA8600020A081FFF71EFE03F072FD40
:1019E000022004F05FFFFFF79BFCC3E748F4FF1FF2
:1019F000FCF5FF1F53657420546172676574537062
:101A000070656400E8F3FF1F45F4FF1F53706565C0
:101A1000643A0000F8B53648364D0646403E344636
:101A2000FF36C18C01368034B768322905D9408F22
:101A3000322802D9F76037610DE0A16F686A05F0BE
:101A4000C7F83946009005F053F8F0603946009821
:101A500005F042F93061E06CFFF7CBF80022264B2D
:101A6000FFF7D2F80022254BFFF7CEF80022244BD7
:101A7000FEF77AFEFEF77CFC60650A2003F0DCFFCF
:101A80000126F607002802D1606D704060650027CE
:101A9000E764E8882881606DFFF7B4FA00B2FFF7C9
:101AA000D7FCE880206DFFF7A4F80022124BFFF767
:101AB000ABF80022114BFFF7A7F80022104BFEF7FE
:101AC00053FEFEF755FCA065262003F0B5FF012864
:101AD00002D1A06D7040A0652765A889E881A06D3E
:101AE000FFF790FA00B2FFF7AFFDA881F8BD000044
:101AF0003CF5FF1F00F0FF1F0000A43F00003D4029
:101B00000000514070B50C4C3221E0882689A58830
:101B1000801B00B26D1C6843FEF784FB8019608156
:101B2000A089E6893221801B00B26843FEF77AFB68
:101B30008019208270BD000000F0FF1F7CB5334C7F
:101B4000334D6089002815D1364932A08861286E4E
:101B50006062084600F088FF20462C3000F0E7FA6B
:101B60002046443000F0E3FA20465C3000F0DFFA13
:101B7000012060812C482D4E0078072822D00128B2
:101B80002AD0042833D0214801212C3000F01FFA3C
:101B90001E480121443000F01AFA18250C2324A213
:101BA00010211420009504F0F5FD606AFFF750FA4B
:101BB00002460C2000900423102101953A2004F0E5
:101BC00055FD7CBD114800212C3000F000FA314653
:101BD000606A04F08DFF08E00C480021443000F0FA
:101BE000F6F93146606A05F083F86062D5E7606A0D
:101BF000286604F035FE0020608103F063FC0220BB
:101C000004F050FEFFF78CFBC7E7000048F4FF1F0D
:101C1000FCF4FF1F446972656374696F6E204B6446
:101C200000000000E8F3FF1F45F4FF1F0000A04084
:101C30004B643A007CB5354C354DE088002815D111
:101C4000384934A08861A86DE061084600F00CFFB7
:101C500020462C3000F06BFA2046443000F067FA42
:101C600020465C3000F063FA0120E0802E483F26D9
:101C700000783606012825D007282DD0042836D034
:101C8000224801212C3000F0A2F9204801214430E3
:101C900000F09DF918250C2324A210211420009592
:101CA00004F078FD2249E06904F092FFFFF7D0F9D3
:101CB00002460C2000900423102101953A2004F0E4
:101CC000D5FC7CBD114800212C3000F080F9314654
:101CD000E06905F00DF808E00C480021443000F000
:101CE00076F93146E06904F003FFE061D2E7E0698C
:101CF000A86504F0B5FD0020E08003F0E3FB0220BE
:101D000004F0D0FDFFF70CFBC4E7000048F4FF1F10
:101D1000FCF4FF1F446972656374696F6E204B7039
:101D200000000000E8F3FF1F45F4FF1F4B703A006E
:101D300000002041F8B5244C05462078002841D009
:101D4000284604F07FFA60610021A0616956814253
:101D500001DD002028701C482978007D1A4C401AAB
:101D6000C6B2583468782169884200D800261648DF
:101D70006661583000F078FE1348743086616978E7
:101D8000016100F0E3FD20696978C7B2814200D2A9
:101D90000F4600240AE030191C2148434219200153
:101DA000011B1E20133100F04DFC641CBC42F2DB11
:101DB00005491C228869504340190122086182703C
:101DC00000200870F8BD000090F3FF1FF8B5002A4E
:101DD0007ED0540054438718012B41D0861A022B21
:101DE0007BD0032B76D0042B72D1154600260091B0
:101DF0000098069AC1B2B8B200F000FD0098761CB7
:101E0000401E00906800024671006A4371435118F9
:101E1000091B081A401C002801DD6D1E7F1EAE4202
:101E2000E6DB0098069AC1B2B8B200F0E7FC28469B
:101E3000410070006D1E891E024669437243891875
:101E4000091B0818401C7F1E002803DC0098401E58
:101E5000761C0090002DE4DC0098C1B2B8B276E0A8
:101E600000970D46164600270098E9B280B2069A00
:101E700000F0C4FC70007F1C01467A0071437A4375
:101E80008918091B081A401C6D1C002803DD0098E6
:101E9000401E761E0090B742E6DB0098E9B280B2A1
:101EA000069A00F0ABFC00993046491E00914100B3
:101EB0007800761E891E024671437A438918091BF1
:101EC0000818401C002801DC6D1C7F1C002E02E05D
:101ED00040E002E03FE0E0DC75E0154600270091BD
:101EE0000098069AC1B2B0B200F088FC00987F1C3E
:101EF000401C00906800024679006A4379435118FB
:101F0000091B081A401C002801DD6D1E761CAF421B
:101F1000E6DB0098069AC1B2B0B200F06FFC28462A
:101F2000410078006D1E891E024669437A43891874
:101F3000091B0818401C761C002803DC0098401C74
:101F40007F1C0090002DE4DC0098C1B2B0B2069A6C
:101F500000F054FCF8BD00960D4616460027009888
:101F6000E9B280B2069A00F049FC70007F1C02467C
:101F70007900724379435118091B081A401C6D1EE1
:101F8000002803DD0098401C761E0090B742E6DB77
:101F90000098E9B280B2069A00F030FC0099304611
:101FA000491C009141007800761E891E024671434B
:101FB0007A438918091B0818401C002801DC6D1E93
:101FC0007F1C002EE4DC0098E9B280B2BFE77CB54C
:101FD0000446C0680D460E287DD3A0681E287AD31B
:101FE000206904F028F9A168884274D825750C2668
:101FF00061682068002D11D00122801D891D00F02C
:102000002EF9206904F017F9A168081A2188400800
:102010004018002180B2009601916CE00022801DE2
:10202000891D00F01CF901250095206861680323D3
:102030000622801D891DFFF7C9FE0095A168206852
:1020400042186168801D0B46D21F00F094FA00957B
:10205000A16820680423401861680622C01F891DFA
:10206000FFF7B4FE0095E1686068A2684118206837
:102070004B1E8218801D491ED21F00F07CFA00956D
:10208000E1686068A2684118206801238018062270
:10209000C01FC91FFFF79AFE00956168E0680B1822
:1020A0002068891D0246DB1F00F065FA0095E16893
:1020B00060680223411820680622801DC91FFFF7AF
:1020C00085FE00956168E068A2680B18206880189A
:1020D000421E401E00E018E0891DDB1F00F04BFA95
:1020E000206904F0A8F8A168081A2188400840185F
:1020F00080B200960195E168A2880C394908511810
:1021000089B20C23226904F065FC7CBD10B504F093
:10211000E3F910BD38B51446C9B280B26A4600F082
:10212000AAFB6846017801206140884338BD7CB530
:102130000446C0680E287BD3A0681E2878D3206987
:1021400004F079F8A168884272D8012500952068CA
:10215000616803230622801D891DFFF737FE009565
:10216000A168206842186168801D0B46D21F00F0EC
:1021700002FA0095A16820680423401861680622CD
:10218000C01F891DFFF722FE0095E1686068A26804
:10219000411820684B1E8218801D491ED21F00F076
:1021A000EAF90095E1686068A26841182068012397
:1021B00080180622C01FC91FFFF708FE009561683E
:1021C000E0680B182068891D0246DB1F00F0D3F978
:1021D0000095E16860680223411820680622801D8E
:1021E000C91FFFF7F3FD00956168E068A2680B184E
:1021F0002068891D8018421E401EDB1F00F0BBF9BD
:10220000207D0C26002814D0206861680122801DE2
:10221000891D00F024F8206904F00DF8A168081A5F
:10222000218840084018002180B2009601910BE0FF
:1022300014E0206903F0FFFFA168081A2188400814
:10224000401880B200960195E168A2880C394908CF
:10225000511889B20C23226904F0BCFB7CBDF7B590
:10226000D8B00C460546802874D2402C72D2E1B218
:10227000A8B250AA00F0FFFA50A802785A98D107E5
:10228000C007C90FC00F814264D02146284655942B
:1022900000F0CCFA0646569050A80278214628460F
:1022A00000F0F1FA54908019400829940194289084
:1022B00001240090254601E0002D7BD0E90028A8EC
:1022C00008188038816F5291C66F50A86D1E027831
:1022D000EDB23146529800F0A9FA539050A8027816
:1022E0003146529800F0CFFA519050A80278761CEF
:1022F00031465298FFF70EFF002804D050A802780C
:102300003146529815E0539F08E050A802783146B4
:102310003846FFF7FFFE002803D17F1C5198874203
:10232000F3D951988742C7D850A8529702783146BE
:10233000384600F0A8FA519050A8027831465298D9
:1023400000F074FA5390142C1FD2471E58975990DE
:10235000074617E07EE050A80278711E3846FFF766
:10236000D9FE002827D059995898884207D058910B
:10237000E00069460F504018641CE4B24660142C1B
:1023800003D27F1C51988742E5D9539951985A9BA3
:102390004018400852905198F1B282B2539880B2DE
:1023A00000F0D5F8142DA0D2539F59977F1E58974F
:1023B000599F19E01FE05997E1E750A80278711C76
:1023C0003846FFF7A7FE002813D05999589888423D
:1023D00007D05891E80028A90F5040186D1CEDB2A5
:1023E0004660142D81D27F1C5198874200D97CE72A
:1023F000E3E75997F5E7002C20D0E100684608187C
:102400008038816F5291C66F50A8641E0278E4B282
:102410003146529800F00AFA539050A8027831469B
:10242000529800F030FA074650A80278761E3146DE
:102430005298FFF76FFE00280ED020E0002D00D04C
:102440003AE754985A9B82B25598C1B2569880B2D6
:1024500000F07DF85BB0F0BD539809E050A8027819
:1024600031465198FFF756FE002804D15198401C80
:102470005190B842F2D95198B842BCD8529050A865
:1024800002783146529800F0FEF9074650A80278CB
:102490003146529800F0CAF95390142D20D2599029
:1024A000401E5890599818E050A80278711C519815
:1024B000FFF730FE002826D059995898884208D056
:1024C0005891E80028A9519A0A5040186D1CEDB2A5
:1024D0004660142D04D25198401C5190B842E3D963
:1024E0005398BAB23818400852905398F1B280B25B
:1024F0005A9B00F02CF8142C96D253985990401EF9
:10250000589059981BE051985990E2E750A80278EA
:10251000711E5198FFF7FEFD002815D05999589863
:10252000884208D05891E0006946519A0A504018F4
:10253000641CE4B24660142CDED25198401C5190C9
:10254000B84200D970E7E1E751985990F3E7F8B540
:1025500015461E460F460446A84202D9D0B225466B
:10256000044632463946204600F048F9641CA4B2BD
:10257000A542F6D2F8BDFFB583B0054605980C46D6
:10258000411B06980027021BFF43002902DD0120A2
:10259000029002E0002904DA0297002A09DD0127EF
:1025A00011E0C2B2E1B2A8B20C9B00F02CF907B066
:1025B000F0BD002A07DB0598E1B282B2A8B20C9BFD
:1025C000FFF7C5FFF3E702984843394651434200FD
:1025D00000924A00019288421CDB161A0098101AD9
:1025E00000900EE0E1B2A8B20C9A00F007F9029850
:1025F0002D18002E02DA0198361802E0009886198C
:10260000E41905988542EDD1E1B2A8B20C9A00F028
:10261000F5F8CCE70098461A801A01900EE0E1B276
:10262000A8B20C9A00F0EAF8E419002E02DA009839
:10263000361803E00198861902982D1806988442EE
:10264000EDD1E1E7FEB514460D460646802805D8D3
:10265000402D03D8022D01D3122E01D20020FEBD41
:10266000E0680028FBD0A27830461023A91E12385B
:102670000C27002A12D06268002A04D0C9B2C0B266
:10268000009304F030F8002001900097A9B2B0B296
:102690000C23E26804F09EF90120FEBDA268002A26
:1026A00005D00093C9B2C0B2102304F01CF8012079
:1026B000EAE7000010B5002902D00121002401E062
:1026C000002101240448FFF782FC0348214618300A
:1026D000FFF77DFC10BD000058F3FF1FFEB58168B9
:1026E000044614293CD3E068142839D325686A18B5
:1026F000802A35D861680B18402B31D8002728462E
:10270000521E5B1E009700F0F4F8012500956168E9
:10271000E068A2680B1820685B1E8218521E00F049
:10272000CAF820882189304B4118491E8AB2217984
:1027300080B20E31C9B21B78FFF709FF0095A1687E
:10274000206842186168521E0B460D3300F0D1F824
:10275000206903F085FD0246A068811E8A4201D9E6
:102760000020FEBD80B20C26019700960290A08842
:102770003346401C81B22088226980B204F082F97D
:102780001A480775A16901612168491D0160E26865
:1027900061688918C268891A091F4160FFF7C7FC80
:1027A000124818300575E1690161A268216889182D
:1027B0008268891A891F0160E26861688918C268A5
:1027C000891A091F4160FFF7B2FC00960195A088A5
:1027D0000C23113081B220886269801D80B204F020
:1027E000F9F80120FEBD000054F3FF1F58F3FF1F4E
:1027F0000148007D7047000058F3FF1F10B5C0B2BC
:1028000003F080FE10BDF8B515461E4607460C467F
:10281000A94201D90D461446324621463846FFF7F3
:10282000EDFF641CE4B2A542F6D2F8BDF8B5D507B9
:10283000441EED0F0E46002C0ED0F1B2A0B26A4637
:1028400000F019F868460078C007C00FA84201D010
:10285000601CF8BD641EF0D1F1B200206A4600F0A1
:102860000AF868460078C007C00FA84201D00120CE
:10287000F8BD0020F8BD10B51446C0B203F05EFEEE
:102880002070002010BDF8B5441CD5070E46ED0F92
:102890000DE0F1B2A0B26A46FFF7EDFF684600789E
:1028A000C007C00FA84201D0601EF8BD641C802C78
:1028B000EFD38020F8BDF8B51C4615460E460746F6
:1028C00092B2C9B280B2069BFFF741FEAAB2E1B252
:1028D000B8B2069BFFF73BFEE2B2F1B2B8B2069B7C
:1028E000FFF791FFE2B2F1B2A8B2069BFFF78BFFB0
:1028F000F8BDF8B517461E460C460546B84201D944
:1029000015460746B44201D91C460E46B44206D1CC
:10291000BAB2E1B2A8B2069BFFF719FEF8BDBD42FC
:102920000DD1F2B2E1B2A8B2069BFFF76CFFF8BD81
:10293000BAB2E1B2A8B2069BFFF709FE641CB4422A
:10294000F6D9F8BD10B503F00DFE10BDF8B50400C2
:1029500052D0A2680A2A4FD3E06814284CD301252C
:10296000009561680B1820685B1E8218521EFFF7E5
:10297000A2FF082600962089217808384008081808
:102980002179C0B2491CC9B233461C4A03F0ABFEE0
:1029900000962079217B227840180938C1B220891D
:1029A0000823083840081018144AC0B2083203F04F
:1029B0009AFE0095A168206842186168521E09318C
:1029C0000B46FFF7D8FD0095E1686068A2684118E2
:1029D00020680A3982180B46521EFFF7CCFDE068CA
:1029E0006269216914388A4202D25043FDF710FC13
:1029F000E061204600F004F8F8BD0000F294000009
:102A0000FEB504468189808B091A14398EB221885B
:102A1000491C8AB20192A188721E0A318DB28018B7
:102A2000218900220092C91E019A89B280B25718EA
:102A30002B183A4629460198FFF75BFF2169606928
:102A4000814201D8002005E0A069491E7043FDF7CE
:102A5000DFFB80B2012100912918E2690198531827
:102A60003A46FFF746FFFEBDFEB5816804461429CD
:102A70003BD3E368142B38D320684218802A34D81B
:102A80006168CB18402B30D80025521E5B1E009584
:102A9000FFF72FFF012600966168E068A2680B1817
:102AA00020685B1E8218521EFFF705FF20882189CF
:102AB000174B4118491E8AB2217980B20E31C9B232
:102AC0001B78FFF744FD0096A168206842186168F2
:102AD000521E0B460D33FFF70CFFA06903F0C7FB36
:102AE0000246A068811E8A4201D90020FEBD80B244
:102AF0000C21019500910290A0880C23401C81B20A
:102B00002088A26980B203F0BDFF0120FEBD000055
:102B100054F3FF1F10B5242002F08EFF012801D0CE
:102B2000012010BD002010BD10B51C2002F084FF54
:102B3000012801D0012010BD002010BD10B51B20C0
:102B400002F07AFF012801D0012010BD002010BD45
:102B5000F8B50F4D0024A8680E4E000712D50E4F91
:102B6000387884420ED2E96820460C22504332580D
:102B7000114204D080198068002800D08047641C6E
:102B8000E4B2EDE7A86824210843A860F8BD00007E
:102B900000900740A8F6FF1F9EF0FF1FF8B50F4DED
:102BA0000024A8680E4E000712D50E4F38788442D4
:102BB0000ED2E96820460C2250433258114204D00C
:102BC00080198068002800D08047641CE4B2EDE7DB
:102BD000A86824210843A860F8BD000000A00740B1
:102BE000A8F6FF1F9EF0FF1F10B52C2002F024FF57
:102BF00010BD10B501212D2002F03AFF10BD10B517
:102C000000212D2002F034FF10BD10B501212C2031
:102C100002F02EFF10BD10B500212C2002F028FF7D
:102C200010BD08B500206A46D07050702C2111707C
:102C30009070684602F03CFE08BD08B500206A4668
:102C4000D070012151702C2111709070684602F0F3
:102C50002FFE08BDF0B50021124D134F134B0A464D
:102C600005261C204843401946708C00827047603E
:102C700082601C5902614261491CC9B2C460826110
:102C80000529EED30120A870094828610948E862A7
:102C900004480A498C3068630748686601488030F8
:102CA0000160F0BDF004002002950000C8F3FF1F92
:102CB000C562000095620000C56800007D620000EA
:102CC000F8B5674E7068FFF735F866490027087851
:102CD000002800D0F760624C5834012802D0072841
:102CE00055D159E03E237522122101200097FFF7AC
:102CF00000FEB0691C21484371684018306187703C
:102D0000B069401CB06172685178491E814200DC94
:102D1000B161B0691C214843801801213061817084
:102D200072681078401C43B21370204651782469B1
:102D3000A14205D80D468B420EDB491E11700BE0F7
:102D4000E5B2641EA34207D914700269891A426968
:102D5000914201D9521C4261002410E040481C21DC
:102D6000583040694843716841181C2060430A1874
:102D70002001011B1E201331FFF764FC641CAC42D0
:102D8000ECDB3748B16974308161FFF739FE3548B3
:102D90000078042849D04DE03E23752212210120FD
:102DA0000097FFF7A6FDB1691C225143726888188D
:102DB00030618770B069401EB061002800DCB761E7
:102DC000B0691C214843716840180121306181704D
:102DD00071680878401E42B20A704D782369204617
:102DE0009D4203D8002A0ADA0F7008E0DDB2002AFB
:102DF00005DA0F704169002901D0491E6161002484
:102E000010E017481C215830406948437168411848
:102E10001C2060430A182001011B1E201331FFF7FC
:102E200011FC641CAC42ECDBABE7306900690028A4
:102E300000D08047F068411CF16064280FDDF76026
:102E400030694169002908D0877070691C214843A6
:102E50007168401801213061817002F031FFF8BDC6
:102E600090F3FF1F45F4FF1F8307FF22DB0E9A40FC
:102E70008907090E994000280BDA0007000F08386F
:102E8000830808489B001818C36993430B43C36128
:102E90007047830804489B001818036893430B434A
:102EA0000360704700ED00E000E400E08307FF22CC
:102EB000DB0E9A408907090E994000280BDA0007BB
:102EC000000F0838830808489B001818C36993430B
:102ED0000B43C3617047830804489B0018180368BC
:102EE00093430B430360704700ED00E000E400E013
:102EF000F0B50021134B144C144E0A4605251C2036
:102F00004843C01882610261446082608F00827011
:102F100045704261491CF759C9B2C7600529EED313
:102F2000012098700A4818610A48D8620A489864D3
:102F30000A480449586603488C3980308160084942
:102F40000160F0BD0806002002950000ACF3FF1FF1
:102F50002163000009630000F1620000D9620000F3
:102F60009562000010B5074CE068C00704D0064821
:102F70000068002800D08047E06801210843E06035
:102F800010BD0000007103407CF0FF1F10B5074C1E
:102F9000E069C00704D006484068002800D0804798
:102FA000E06901210843E06110BD000000710340A9
:102FB0007CF0FF1FF0B50021114C124B124E0A4657
:102FC00003251C204843001945708261026143605B
:102FD0008F00826082704261491CF759C9B2C76094
:102FE0000329EED301200649A0708C31A161074866
:102FF00020610749E16202498C392165A064F0BD76
:103000007C05002002950000DCF3FF1F95620000A4
:103010003963000010B5074C6078002808D0201DE7
:10302000FFF722FD20462030FFF790FC0020607063
:1030300010BD0000BCF4FF1FF0B585B0FFF7EAFF3C
:10304000FD4EFC490020F71D085606250C210124E1
:10305000F9378036002806D0012870D002286FD0BA
:1030600003286ED0E8E20C2000900623F3A20F2183
:10307000032003F08FFB0C200190EF4800954030B7
:103080000290C28C03230F211B2003F0EFFA0C20C7
:1030900000900623EBA20F21412003F07BFB0C20C4
:1030A000019002980095428F03230F215F2003F0C7
:1030B000DDFA0C2000900623E4A21B21032003F07C
:1030C00069FB0C20019000951B21F289032308461F
:1030D00003F0CCFA0C2000900623DEA21B21412035
:1030E00003F058FB0C2001900095728C03231B21E8
:1030F0005F2003F0BBFA0C2000900623D7A2272103
:10310000032003F047FBFF21B06FC905C84219D364
:103110000C20009006232D22272101941B2003F070
:1031200045FA0121B06FC9074840FDF76BFF02B2B5
:103130000C20032327210190009521200BE07AE049
:10314000CEE143E2FDF75EFF02B20C2001900423C2
:10315000272100951B2003F089FA0C2000900623FC
:10316000C0A22721412003F015FBFF21F06FC90504
:10317000C84216D30C20009006232D22272101944B
:103180005A2003F013FA0121F06FC9074840FDF7F8
:1031900039FF02B20C200323272101900095602003
:1031A00008E0FDF72FFF02B20C2001900423272135
:1031B00000955A2003F05AFA0C2000900623ABA287
:1031C0003321032003F0E6FA0C200190362200950B
:1031D000B25E032333211B2003F048FA0C20009039
:1031E0000623A3A23321412003F0D4FAFF2039683B
:1031F000C005C1420CD30C2606232D2233215A20B0
:103200000096019403F0D2F938687107484009E04C
:103210000C260623202233215A200096019403F025
:10322000C5F93868FDF7EEFE02B2032333216020B2
:1032300001960095FEE10C20009006238DA20F213F
:10324000032003F0A7FAF06C00280EDA0C2000909F
:1032500006232D220F210194152003F0A7F90C203D
:1032600000950190F06C42420CE00C200090062387
:1032700020220F210194152003F098F90C200095CD
:103280000190F26C04230F211B2003F0EFF90C20B6
:103290000090062378A20F213D2003F07BFA306DC9
:1032A00000280EDA0C20009006232D220F21019415
:1032B0004F2003F07BF90C2000950190306D4242C5
:1032C0000CE00C200090062320220F2101944F20B7
:1032D00003F06CF90C2000950190326D04230F214E
:1032E000552003F0C3F90C200090062363A221218E
:1032F000032003F04FFA504E0820C036305E0028FD
:1033000012DA0C20009006232D2232210194152080
:1033100003F04CF90C20019000950820305E042346
:1033200042423221252010E00C200090062320226A
:1033300032210194152003F039F90C200190082264
:103340000095B25E042321211B2003F08FF90C208D
:10335000009006234AA221213D2003F01BFA0A20F7
:10336000305E002811DA0C20009006232D22322135
:1033700001944F2003F01AF90C20019000950A20C7
:10338000305E0423424232210FE00C2000900623DD
:103390002022212101944F2003F008F90C200A2259
:1033A00000950190B25E04232121552003F05EF9BF
:1033B0007E683046FDF726FE0A2102904843FDF75D
:1033C00083FE314603F088FC2E4903F001FCFDF733
:1033D00019FE0C26039006232BA23321009603200E
:1033E00003F0D8F9FF207968C005C14250D3029894
:1033F00006234042029003982D2247423321272082
:103400000096019403F0D2F802230196009533212F
:103410002D20029A03F02AF906232E223321392087
:103420000096019403F0C2F802233A4601960095F3
:103430004AE00000BCF4FF1FFCF4FF1F48464C3A72
:10344000000000004846523A0000000048424C3A52
:10345000000000004842523A000000004841453A4E
:10346000000000005641453A00000000484D3A0077
:1034700041453A004C453A0052453A004C503A001A
:1034800052503A000000C84253706565643A00002B
:1034900006232022332127200096019403F086F88A
:1034A00002230196009533212D20029A03F0DEF8C5
:1034B00006232E22332139200096019403F076F85A
:1034C000039A02230196009533213F2003F0CEF8A2
:1034D000062376A233214E20009603F05BF9ABE081
:1034E0000E460091062372A20F21032003F052F929
:1034F00071487249006803F06BFBFDF7A9FD0246B5
:1035000004230F211B200196009503F0AFF806233A
:103510006BA20F213720009603F03CF966486749FB
:10352000406803F055FBFDF793FD024604230F218D
:1035300055200196009503F099F8062362A22121F7
:103540000320009603F026F95B48806DFDF780FDAF
:103550000246042321211B200196009503F086F8E2
:1035600006235BA221213720009603F013F952486D
:10357000006EFDF76DFD02460423212155200196C2
:10358000009503F073F8062353A23221032000961E
:1035900003F000F9F868FDF75BFD024603233221D2
:1035A0001B200196009503F061F806234BA23221FF
:1035B0003720009603F0EEF83869FDF749FD024622
:1035C0000323322155200196009533E00E460091E9
:1035D00014210623424A084603F0DCF83968FF202C
:1035E000C005C142009601940AD306232D2214215E
:1035F000262002F0DBFF01213868C907484006E0B9
:10360000062320221421262002F0D0FF3868FDF77F
:103610001FFD0246022314212C200196009503F081
:1036200025F81820019024480096E030027D1E21E4
:103630000123084603F01AF82A482B490078072886
:103640000AD0012820D0042804D1081F447000208B
:1036500003F028F905B0F0BD234A121F1078401E70
:1036600040B210705470002801DA032016E00020E8
:103670001056002816D0012812D0022814D0032892
:10368000E8D11AA08861E5E7174A121F1078401C9C
:1036900040B2107054700328E9DD00201070E6E796
:1036A00015A0EFE719A0EDE71DA0EBE7522F53009F
:1036B000534B503A00000000FCF4FF1F0000204173
:1036C000534B493A00000000444B503A00000000C0
:1036D000444B443A000000004C543A0052543A0023
:1036E0007034000045F4FF1FC0F4FF1F526F616487
:1036F00020446574656374004D6F746F722050616F
:1037000072616D65746572730000000053656E73BD
:103710006F7220506172616D657465727300000094
:1037200050494420506172616D6574657273000088
:10373000F0B50346084649008C465C5A15E0521E17
:10374000904203DA5100595AA142F8D251009042F6
:1037500004DA5D5AA54201D8401CF8E7904204DA29
:1037600046009D5B5F5A9F535D529042E8DB4100EB
:103770005D5A62469D525C52F0BD00007CB5354CEE
:10378000354D6088002815D1374934A088616868B4
:1037900060610846FFF768F920462C30FEF7C7FC49
:1037A00020464430FEF7C3FC20465C30FEF7BFFCE9
:1037B000012060802D483F2600783606012825D05C
:1037C00007282DD0042836D0224801212C30FEF7BE
:1037D000FEFB204801214430FEF7F9FB18250C239D
:1037E00023A210211420009502F0D4FF2149606922
:1037F00003F0EEF9FDF72CFC02460C2000900423A8
:10380000102101953A2002F031FF7CBD11480021C2
:103810002C30FEF7DCFB3146606903F069FA08E002
:103820000C4800214430FEF7D2FB3146606903F0BA
:103830005FF96061D2E76069686003F011F8002009
:10384000608001F03FFE022003F02CF8FDF768FDD8
:10385000C4E7000048F4FF1FFCF4FF1F53706565C8
:1038600064204B6900000000E8F3FF1F45F4FF1FD0
:103870004B693A00000020417CB5354C354D20881D
:10388000002815D1374934A088612868206108468E
:10389000FFF7EAF820462C30FEF749FC204644307A
:1038A000FEF745FC20465C30FEF741FC01202080FD
:1038B0002D483F2600783606012825D007282DD030
:1038C000042836D0224801212C30FEF780FB204806
:1038D00001214430FEF77BFB18250C2323A2102185
:1038E0001420009502F056FF2149206903F070F979
:1038F000FDF7AEFB02460C20009004231021019539
:103900003A2002F0B3FE7CBD114800212C30FEF7B6
:103910005EFB3146206903F0EBF908E00C4800211A
:103920004430FEF754FB3146206903F0E1F8206192
:10393000D2E72069286002F093FF0020208001F088
:10394000C1FD022002F0AEFFFDF7EAFCC4E7000073
:1039500048F4FF1FFCF4FF1F5370656564204B7033
:1039600000000000E8F3FF1F45F4FF1F4B703A0012
:103970000000204110B500F001F810BD70B51E4ADE
:1039800000245068002805D05068401E506001D1C6
:10399000012010709068401C9060916817480025C5
:1039A000814200D1956016499068FCF73BFC1548B0
:1039B000002902D18188491C818081883B2903D953
:1039C00085804188491C418041883B2903D9458035
:1039D0000188491C01800188172900D90580094DFB
:1039E000883D14206043401901F09CFA641CE4B245
:1039F000062CF6D370BD0000A4F0FF1FFFFFFF7F71
:103A0000DE03000010FCFF1F10480F4981800121D8
:103A100041702321017011200D49000548620D48B5
:103A2000002141700C4A962111701A210170017910
:103A3000C906FCD401790907890FFBD10749086839
:103A4000400848608860704703E800000020054097
:103A500000800440004006400050064070F0FF1F08
:103A600070B5284C6078002805D101206070204690
:103A70009430FEF733FE244D2878072810D12148D2
:103A800000219430FEF716FE1E4800219430FEF708
:103A900011FEFEF757FF1B2001F0CEFF0028FAD0E1
:103AA0002878012810D1174801219430FEF702FE32
:103AB000144801219430FEF7FDFDFEF743FF24205A
:103AC00001F0BAFF0028FAD02878042811D100208C
:103AD00060701C2001F0B0FF0028FAD00948943033
:103AE000FEF786FE012805D001F0ECFC022002F072
:103AF000D9FE70BD01F0E6FC022002F0D3FEFDF716
:103B0000A1FD70BD90F3FF1F45F4FF1FF8B5254AD6
:103B100000201379014613799B063ED5D279224DB8
:103B200000262B78214C002B14D0012B17D0022B10
:103B30001DD0032B1ED0E7787F1D9F4202D9E2548F
:103B40005B1C2B70E3782F785A1DBA4225D12E705A
:103B50001A1D17E0AA2AF5D12270012205E0AF2A2A
:103B600001D02E70EEE7627002222A70EAE7A2709E
:103B70000322FAE7E2700422F7E7275C7918401C79
:103B8000C9B2C0B28242F8D80848001D185C884209
:103B900001D06E7001E0A0786870054801F008FA65
:103BA000F8BD000000A00640B0F0FF1F7E0200201C
:103BB00060F9FF1F7047704730B47446641E257863
:103BC000641CAB4200D21D46635D5B00E31830BC51
:103BD00018470020704710B501F072FD01F070F930
:103BE00062B601F0B5F900F0A7FD00F05DFA00F053
:103BF00096F901F08DF800F0BDFA00F09BF800F0A6
:103C000085FF00F003F800F01BFB10BD38B508205D
:103C1000694608700120487000248C70684601F0E5
:103C200047FE0121082001F023FF092069460870A2
:103C3000684601F03DFE0121092001F019FF01480D
:103C4000047338BD7002002010B501221146052012
:103C500000F014F810BD000010B5074800210170F5
:103C60008188002902D0C088002803D101210920C1
:103C700001F0FEFE10BD00007002002010B500280B
:103C800010D0094B1C7B012C0CD058809980DA8015
:103C900000205881188158700120187000210920D7
:103CA00001F0E6FE10BD00007002002010B5FFF725
:103CB000D3FF02490120087310BD000070020020EC
:103CC00070B51B4C207800281DD0A288002A1AD07D
:103CD000207B012817D0204600896178401C0025F0
:103CE00080B2002910D001290DD1208190420AD341
:103CF000E088002814D06189491C89B26181814221
:103D00000ED32570A58070BD208161888842FAD3CA
:103D10000121092001F0ACFE25810120607070BDF9
:103D2000258165700021092001F0A2FE70BD000010
:103D30007002002008B500206946C87048700A204B
:103D4000087001208870684601F0B2FD262069469F
:103D50000870684601F0ACFD002002F02BF801204D
:103D600002F028F801210A2001F028FE0121262076
:103D700001F024FE08BD000010B507480749026D98
:103D80004B68D2180265064AC36C54681B19C36499
:103D900000204860506010BD7CF5FF1F008003408C
:103DA00000900340F8B5089C0D461E46079FA047AB
:103DB000A847B047052001F043F8B847052001F0B7
:103DC0003FF8A047F8BDF8B5089C0D461646079F7A
:103DD000A047A847B047052001F032F8B8470520B2
:103DE00001F02EF8A047F8BD0FB4FEB500250898E5
:103DF0002C460D9F0C9E80470E988047052001F0B1
:103E00001FF8B8476006040EB047012801D1641CB2
:103E1000E4B2032001F014F86D1CEDB2082DEBD3D1
:103E20000F9808AD00280E980197009602900FCDCC
:103E300006D0FFF7B7FF2046FEBC08BC04B0184709
:103E4000FFF7C1FFF7E70FB4F8B5174600240C9E43
:103E50000D9D8847B047E80901D0B84701E00998AF
:103E600080476806050E052000F0EAFF0B988047A2
:103E7000052000F0E5FFB047022000F0E1FF641CE0
:103E8000E4B2082CE7D3F8BC08BC04B01847F8B576
:103E900014461D46089F079E8847A047B047042048
:103EA00000F0CEFFA847042000F0CAFFB847F8BDD5
:103EB000F8B514461D46089F079E8847B847A8478F
:103EC000042000F0BDFFB047A047042000F0B8FF79
:103ED000F8BD0FB4FEB50CACE0CC089800248047C8
:103EE0000A988047012000F0ABFFB047012000F0A6
:103EF000A7FF0EE0641CE4B2FA2C0AD96846E0C0C1
:103F000008AC0FCCFFF7D4FF0120FEBC08BC04B006
:103F10001847A8470028EDD1B8470020F5E710B5AD
:103F200000F084F800F05CF810BD0000F8B506461B
:103F30002A49000144182068804772000521B518FD
:103F400000270028207935D0052801D22171F8BD3D
:103F50000A2802D2401C2071F8BD7100A07A7618A0
:103F6000761C002806D10120A072F0B200F084F87F
:103F7000FFF76AFE21890029EED0E088884208D246
:103F8000401C80B2E08021898842E5D1ED1CE8B276
:103F90000BE0E07A0028DFD0207B401CC0B2207309
:103FA000E17A8842D8D32773F0B200F065F8FFF7C2
:103FB0004BFEF8BD052801D921710CE0002802D084
:103FC000401E207107E0A07A012804D1AD1CA77221
:103FD000E8B200F051F82773E780F8BD28FCFF1F16
:103FE00070B50E4800210346817232240C3302253D
:103FF0000A46C1720A260801C0180481057182723E
:10400000491C0273C9B2C6720329F4D3044818606C
:10401000044818610448186270BD00001CFCFF1FB2
:104020003D2B0000292B0000152B000008B51B209C
:104030000090684601F03CFC1C2069460870684608
:1040400001F036FC242069460870684601F030FC17
:1040500008BD0000074A917AD07A814201D1002040
:104060007047505C491CC9B291720A29F8D30021EB
:10407000917270471CFCFF1F0549CA7A8854C87AA0
:10408000401CC0B2C8720A2801D30020C872704711
:104090001CFCFF1F10B500242046FFF747FF641CDF
:1040A000E4B2032CF8D310BD08B518206946087097
:1040B0000120887048700020C870684601F0F8FB45
:1040C000192069460870684601F0F2FB002000F0F4
:1040D00001F808BD10B5002805D0012806D0022837
:1040E00008D1002104E00021084601E00021012060
:1040F00000F02DF810BD10B5002807D0012808D019
:10410000022802D1012100F022F810BD0121002077
:10411000F9E701210846F6E710B5002803D0012889
:1041200001D0022801D100F001F810BD10B500281F
:1041300004D0012807D0022808D102E0182001F09D
:1041400089FC192000E0182001F084FC10BD10B596
:104150000C46002804D001280AD0022807D103E029
:10416000182001F085FC2146192001F081FC10BDCA
:104170001820FAE73EB500246946CC720120487247
:10418000252008728C7202A801F092FB00212520E4
:1041900001F06EFC0E48694608800F200871CC8043
:1041A000684601F0E9FA0A486946423008806846E4
:1041B00001F0E2FA074869460880684601F0DCFA37
:1041C00003486946E8300880684601F0D5FA3EBDEC
:1041D00030A40000F6A8000070B50C46054600218A
:1041E000252001F045FC1448144E002D04DBA9B233
:1041F00001F044FB002104E0002101F03FFB684294
:1042000081B2304601F03AFB0C480C4DE838A63D2F
:10421000002C04DBA1B201F031FB002104E00021FD
:1042200001F02CFB604281B2284601F027FB0121FE
:10423000252001F01DFC70BDF6A8000018A50000A7
:1042400010B500F093F800F0C8F9032000F0D6F99B
:10425000002000F0C8F9642000F0F5F900216A2080
:1042600000F008FA0021232000F004FA8021372012
:1042700000F000FA0021382000F0FCF9752000F071
:1042800029F9682801D0012010BD01216B2000F020
:10429000F1F900216C2000F0EDF9642000F0D3F971
:1042A000064801F027FD0548A83801F023FD034822
:1042B000A83001F01FFD002010BD000020010020EB
:1042C000F8B5264A911E881E00F06EF9234C242072
:1042D000263C205E401CFCF7F7FE05462620205EAB
:1042E0001D30FCF7F1FE47248F262406F60507460D
:1042F000A54204DD3146284602F0FAFC0546A742F5
:1043000004DD3146384602F0F3FC07462846FCF748
:104310009FFD134D134E2A463346FCF725FAFCF752
:1043200027F804463846FCF793FD2A463346FCF747
:104330001BFAFCF71DF80C4E314602F049FC074D04
:10434000663D296F02F0D4FB28673146204602F013
:104350003FFCA96E02F0CCFBA866F8BDE2F5FF1F9A
:1043600066666666666630400AD7A33B08B50020DD
:104370006A46D070012151702C21117090706846EE
:1043800001F096FA2D206A461070684601F090FA06
:104390000848074941610849816108498160084925
:1043A000C16008490160084941600849016108BDD0
:1043B000F32B000058000020FF2B00000B2C000006
:1043C000172C0000232C00003B2C0000E92B0000E0
:1043D000F0B53F4C154620460F46103007C885B053
:1043E0001E466B4607C30FCC103CFFF750FDD02094
:1043F0001034039007CC6B4607C31C3C0FCC103C19
:10440000FFF721FD103407CC6B4607C31C3C0FCCD3
:10441000103CFFF75EFD00280AD02046103007C888
:104420006B4607C30FCCFFF743FD012005B0F0BD7D
:1044300020461030039707C86B4607C30FCC103CCB
:10444000FFF701FD103407CC6B4607C31C3C0FCCB3
:10445000103CFFF73EFD103407CC6B4607C31C3CF5
:104460000FCC103CFFF713FDD1201034039007CC84
:104470006B4607C31C3C0FCC103CFFF7E4FC103428
:1044800007CC6B4607C31C3C0FCC103CFFF721FD4B
:1044900010E0012D1AD0012003902046103007C8EB
:1044A0006B4607C30FCC103CFFF79EFC6D1E3070AF
:1044B000EDB2761C002DECD12046103007C86B46BB
:1044C00007C30FCCFFF7F4FC0020AFE70020E3E7C1
:1044D000580000207FB5334C05462046103007C8F1
:1044E0006B4607C30FCC103CFFF7D1FCD020103433
:1044F000039007CC6B4607C31C3C0FCC103CFFF766
:10450000A2FC103407CC6B4607C31C3C0FCC103CFC
:10451000FFF7DFFC1034039507CC6B4607C31C3C48
:104520000FCC103CFFF78FFC103407CC6B4607C351
:104530001C3C0FCC103CFFF7CCFC103407CC6B4676
:1045400007C31C3C0FCC103CFFF7A1FCD12010345A
:10455000039007CC6B4607C31C3C0FCC103CFFF705
:1045600072FC103407CC6B4607C31C3C0FCC103CCC
:10457000FFF7AFFC00201034039007CC6B4607C355
:104580001C3C0FCC103CFFF72FFC0546103407CC29
:104590006B4607C31C3C0FCCFFF78AFC284604B0CF
:1045A00070BD0000580000207CB514460D4606463C
:1045B0006B46062243216820FFF70AFF00280BD133
:1045C0006946098849BA31806946498849BA2980CB
:1045D0006946898849BA21807CBD10B580216B204D
:1045E00000F048F810BD10B5032801D9012010BD16
:1045F000C006010E1C2000F03DF810BD10B50328C8
:1046000001D9012010BDC006010E1B2000F032F8B8
:1046100010BD10B5BC2801D3012110E0622801D3E0
:1046200002210CE02A2801D3032108E0142801D339
:10463000042104E00A2801D3052100E006211A2004
:1046400000F018F810BD10B504467D20C00084426B
:1046500001D9044602E0042C00D204242146FBF7D1
:10466000D7FD401EC1B2192000F004F86008FFF722
:10467000D0FF10BD7FB52F4C064620460D461030AA
:1046800007C86B4607C30FCC103CFFF700FCD020D7
:104690001034039007CC6B4607C31C3C0FCC103C76
:1046A000FFF7D1FB103407CC6B4607C31C3C0FCC83
:1046B000103CFFF70EFC002827D12046103003964F
:1046C00007C86B4607C30FCC103CFFF7BCFB103488
:1046D00007CC6B4607C31C3C0FCC103CFFF7F9FB23
:1046E0001034039507CC6B4607C31C3C0FCC103C21
:1046F000FFF7A9FB103407CC6B4607C31C3C0FCC5B
:10470000103CFFF7E6FB00280AD02046103007C80F
:104710006B4607C30FCCFFF7CBFB012004B070BD85
:104720002046103007C86B4607C30FCCFFF7C0FB0D
:104730000020F3E75800002010B500F07DF80121BB
:10474000432001F095F9642000F06AFB002143202A
:1047500001F08EF9642000F063FB0121432001F099
:1047600087F90021AE2002F043F80021D52002F0A5
:104770003FF80021502002F03BF80021A82002F071
:1047800037F800213F2002F033F80021D32002F057
:104790002FF80021084602F02BF80021402002F0FB
:1047A00027F800218D2002F023F80021142002F0C8
:1047B0001FF80021202002F01BF80021084602F01B
:1047C00017F80021A02002F013F80021CF2002F0FA
:1047D0000FF80021DA2002F00BF80021122002F07D
:1047E00007F80021812002F003F80021EF2001F0FA
:1047F000FFFF0021D92001F0FBFF0021F12001F093
:10480000F7FF0021DB2001F0F3FF0021302001F051
:10481000EFFF0021A42001F0EBFF0021A62001F012
:10482000E7FF0021AF2001F0E3FF01F055FE00217A
:10483000084600F026F810BD08B500206A46D07082
:1048400001215170232111709070684601F030F8F9
:1048500042206A461070684601F02AF817206A461E
:104860001070684601F024F843206A4610706846CC
:1048700001F01EF816206A461070684601F018F81C
:1048800008BD10B50446B031C8B2002101F0B0FF38
:1048900020090021103001F0ABFF2007000F01219B
:1048A0000843002101F0A4FF10BD0000F0B58DB059
:1048B0000027282102A80C97FBF7A8FC0C24002154
:1048C000062383A20846009401F064FF01200190B2
:1048D0000623252200210094642001F067FE01F0E8
:1048E00041FE0020800000227F1C02A9BFB20A50B6
:1048F0000A2FF9D37A4B00201D46A0351C466034A0
:10490000014614267143C91800224031401C0A8513
:1049100080B24A850528F3D398E000263300FFF7DC
:104920004BF90504132234445200012000214002B7
:1049300000F00CFE61794A0069495118403108863F
:104940006079401C60713EE001200021800300F08E
:10495000FDFD617E4A006249511880318880607E89
:10496000401C60762FE001200021800200F0EEFD67
:1049700001465B488030427B5300594A9A18803286
:104980001183417B491C41731DE001200021C003BC
:1049900000F0DCFD01466878420051481018803074
:1049A00081856878401C68700DE001200021C002FC
:1049B00000F0CCFD697D4A0049495118C03108809A
:1049C000687D401C687514203146414344480818EE
:1049D000009060304179042901D300214171009891
:1049E00003220021703002F070F800984030028DF0
:1049F000C18E8A4200D20185428D018E8A4200D941
:104A00004185761CB6B2052E88D30C980A21401C2D
:104A100080B20C90FBF7FCFB002904D10020FFF7CB
:104A20007BFB01F09FFD1E21781CFBF7F1FB02468A
:104A30000C2106200191009003230021542001F055
:104A400015FE052000F0ECF97F1CBFB22548874217
:104A500000D262E7224C002002AB14214143091925
:104A6000C20040310D8D9D50D218401C498D80B23E
:104A700051600528F1D30C2406231BA221460020F7
:104A8000009401F087FE06231BA218210020009449
:104A900001F080FE01F066FD7D25ED00284600F066
:104AA000BFF9FD2000F0F8FD0023282202A9FD2017
:104AB00000F038FE062313A224210020009401F008
:104AC00069FE01F04FFD284600F0AAF90DB0F0BDD7
:104AD00043616C6962726174696F6E2E2E2E0000E4
:104AE000FCF4FF1FB80B000043616C6962726174D3
:104AF000696F6E204F4B2100536176696E672E2ED1
:104B00002E00000053617665642121000EB509482E
:104B1000009000206A46907101211171917210720B
:104B2000507160235372D172D071684600F028FD35
:104B30000EBD000002CF0000F0B56F4E00273446D6
:104B4000203C254685B0203D3B00FFF735F80504A5
:104B500014243444530001200021400200F0F6FCEC
:104B600069794A006449A03951184031088668794A
:104B7000401C68713EE001200021800300F0E6FC4B
:104B8000697E4A005C49A039511880318880687E6E
:104B9000401C68762EE001200021800200F0D6FC47
:104BA000617B4A005449A039511880310883607BE9
:104BB000401C60731EE001200021C00300F0C6FC11
:104BC00071784A004C49A039511880318885707835
:104BD000401C70700EE001200021C00200F0B6FC05
:104BE000717D4A004449A0395118C0310880707D58
:104BF000401C70751420394641433F48A0380818BE
:104C0000009060304179042901D30021417100995D
:104C1000042208467030663101F0BAF8E0890528B0
:104C200001D20520E081608C052801D20520608436
:104C3000009840300190018D408D0290081AFCF7D9
:104C400043FA03900198C18C0298081AFCF73CFAC9
:104C50000399FCF727F900997F1CFFB2C866052F5E
:104C600000D271E724482568A038C66E2846314630
:104C700001F03EFF07463146284602F039F8394632
:104C8000FCF710F91D4D294601F0A2FFA0676769E6
:104C9000A66A3946304601F02BFF0090394630466F
:104CA00002F026F80099FCF7FDF8294601F090FF84
:104CB0001349E067884204DA1249884201D2002091
:104CC000E0673620205E502801DA0020E067FCF71C
:104CD000FBF9E16F01F07CFF2946FCF7E3F8064998
:104CE000094A60310860904204D2084A904201DAD1
:104CF0000020086005B0F0BD9CF5FF1F0000C84211
:104D00000000F0410000F0C10000A0C10000A0417F
:104D100008B500206946C870487028200870012036
:104D20008870684600F0C4FD0121282000F046FE8E
:104D30000121282000F09CFE292069460870684661
:104D400000F0B6FD0121292000F038FE01212920C4
:104D500000F08EFE342069460870684600F0A8FD19
:104D60000121342000F02AFE0121342000F080FED1
:104D7000372069460870684600F09AFD0121372007
:104D800000F01CFE0121372000F072FE08BD00007B
:104D9000F0B585B01546022803D90020C04305B000
:104DA000F0BD104EC400325D012A17D06A46107063
:104DB000012757700320107268460395019100F097
:104DC0006DFE3755A019456001211620FEF76EF8DB
:104DD00003211720FEF76AF80020E0E70120C04316
:104DE000DDE7000000FCFF1F70B5062802D9002097
:104DF000C04370BD1424094D60434419267B012E25
:104E000009D06160002666702B5401202073A160D8
:104E10003046226170BD0120C04370BD88FBFF1F7A
:104E2000002809D0012800D1022004494860002050
:104E3000087008780128FCD170470000A4F0FF1F1B
:104E4000F8B50D4E0746756900240D480B490068FA
:104E5000FBF7DEF97843B1690246B0698842FCD0BD
:104E6000884201D2091A01E02B1A59180C1901467F
:104E70009442F2D3F8BD000000E000E040420F0091
:104E800070F0FF1F70B5022802D90020C04370BD2A
:104E9000074DC400295D002906D000F05BFE00200C
:104EA00028556119486070BD0120C04370BD0000E5
:104EB00000FCFF1F0148806870470000A4F0FF1F3E
:104EC00070B50021134B0C4614224A43D01844609D
:104ED000846044709C54491C0461C9B2047306295F
:104EE000F2D30C487D2188300480448084800A48B5
:104EF000C9000068FBF78CF90849401E884208D8B1
:104F0000074D68610321081FFDF7D0FFAC61072042
:104F1000286170BD88FBFF1F70F0FF1FFFFFFF00BF
:104F200000E000E04168002910D04168491E41605E
:104F30000CD1012141700178012903D181684160C0
:104F4000002141700069002800D000477047000030
:104F50001FB500F051F8E1204002009001200390BD
:104F60000C206946488100200881C880094C88804F
:104F7000204600F027FE08480168C8782022104328
:104F8000C8700649D00108600121204600F0FEFDEE
:104F90001FBD000000A0064060F9FF1F00E100E017
:104FA000012801D0002070470048704760F9FF1FBA
:104FB00001680A79120701D50A79CA790A790A794A
:104FC000120612D5828A002A10D0438A4268D25C27
:104FD000CA71418A491C89B241828289914201D3B6
:104FE00000214182818A491E81827047C87840062B
:104FF000400EC870704700000B480A4901600B4919
:105000008160014628314160FF210131C1818181E8
:10501000002141830183C182818241824162C16159
:105020000162704700A0064060F9FF1F88FAFF1F69
:10503000F8B50023FFF7B4FF002820D0002517E0C3
:105040008489878A6E4637803688B442F9D9CC5C29
:10505000078A4668F455048A641CA4B204828689CF
:10506000B44200D30582848A641C84825B1C9BB298
:105070009342E5D30068C17880221143C170F8BD26
:1050800010B500F007F800F0DBF900F0B1F800F01F
:1050900059F810BD10B5104C607800281AD01328AC
:1050A00014D008DC02280BD010280CD011280DD009
:1050B00012280DD10AE0142808D0152808D105E0DF
:1050C00000F04AF904E000F0EDF8102000F094F947
:1050D0000020607010BD0000B0F0FF1F70B588B0F8
:1050E0000E460446154620216846FBF78FF81B2D17
:1050F00002D9002008B070BDAA2069460870487027
:105100008E70CD7000216846431908E0625C461835
:1051100032711A79465C9219491C1A71C9B2A942B6
:10512000F4D32C462A1D05E01979065D8919641C03
:105130001971E4B29442F7D301466A1D0120FFF7CA
:1051400077FFD6E730B589B020216846FBF75EF8D7
:1051500024486A46818B0B1213705170C18B0B125D
:105160009370D170018C0B1213715171418C0B1221
:105170009371D171818C0B1213725172C08C011218
:105180009172D072122202216846FFF7A7FF154CD8
:10519000154D403C2946E06E01F01AFDFBF732FF49
:1051A0000104090E6A46117050702946A06E01F084
:1051B0000FFDFBF727FF0104090E6A469170D070BE
:1051C0000A49206F01F004FDFBF71CFF0104090EE2
:1051D0006A46117150710C2201216846FFF77EFF6B
:1051E00009B030BDBCF5FF1F0000C84200002041DF
:1051F00000B589B020216846FBF708F827486946C2
:10520000028913120B704A70408902128A70234A75
:10521000C870403AD06C030E0B7103144B7103122B
:105220008B71C871106D020E0A7202144A7202125A
:105230008A72C87219481A494030406801F0C8FCA7
:10524000FBF7E0FE01040A0E69460A73487313482F
:10525000C038C06CFBF7D6FE0004000E69468873A8
:105260000E48C038C06CFBF7CDFE6946C8730B48CA
:10527000C038406DFBF7C6FE0004000E6946087496
:105280000648C038406DFBF7BDFE694648741222DF
:10529000F1216846FFF722FF09B000BDBCF5FF1FF2
:1052A0000000C84270B528484179027908021043CD
:1052B00040BA00B2FBF708FF244D2946FBF7F2FD88
:1052C000234CA0652048C17982790802104340BA76
:1052D00000B2FBF7F9FE2946FBF7E4FDE0651A484A
:1052E000417A027A0802104340BA00B2FBF7ECFEA2
:1052F00020661548C17A827A0802104340BA00B28B
:10530000FBF7E2FE134D2946FBF7CCFD20600E486B
:10531000417B027B0802104340BA00B2FBF7D4FE87
:105320002946FBF7BFFD60600748C17B827B08020E
:10533000104340BA00B2FBF7C7FE2946FBF7B2FDA7
:10534000A06001F08DFA70BD7E02002000002041B7
:10535000FCF4FF1F0000C84230B585B01421684638
:10536000FAF754FF214C224DA06D294601F030FC84
:10537000FBF748FE01126A46117050702946E06D35
:1053800001F026FCFBF73EFE01126A469170D070D8
:10539000206EFBF737FE01126A461171154D5071F0
:1053A0002946206801F014FCFBF72CFE01126A4626
:1053B0009171D0712946606801F00AFCFBF722FE6A
:1053C00001126A46117250722946A06801F000FC71
:1053D000FBF718FE01126A469172D0721222102158
:1053E0006846FFF77BFE05B030BD0000FCF4FF1FF0
:1053F000000020410000C8421CB50021009101912D
:10540000AA216A4611705170EF2191700721D17065
:1054100010710A48C178001D085C5071002069466F
:105420000B5C8A79401CD218C0B28A710728F7D366
:1054300007220120FFF7FCFD1CBD00007E020020BA
:1054400010B588B020216846FAF7E0FE1C496A468C
:10545000C88C0C46030A137050704034E089030A6C
:105460009370D070608C030A13715071488F010AD9
:105470009171D071A06FFBF7C5FD0104090E6A465A
:1054800011725072E06FFBF7BDFD0104090E6A4610
:105490009172D072204680300068FBF7B3FD0104A2
:1054A000090E6A4611735073E08E010A9173D0732E
:1054B0001022F2216846FFF711FE08B010BD00006F
:1054C0003CF5FF1F10B5FDF7C5FBFDF773FDFDF7BC
:1054D0000FFD002001F0E6F910BD000010B5FEF749
:1054E000B9FD194C0028607007D02078002804D13D
:1054F000022001F0D7F90020607020780300FEF749
:105500005BFB0A09200C060F1215181B1E20FDF765
:1055100093FD16E000F054FF13E0FDF7D1FB10E01F
:10552000FEF7AAF90DE0FEF729F90AE0FCF782FB85
:1055300007E0FCF703FB04E0FCF7ECF901E0FEF701
:105540008FFAFDF7FFF910BD44F4FF1F0022034658
:10555000D340DB0703D1521C92B2102AF7D307487D
:10556000836849000B438360D106C90E016001685E
:105570000906FCD500690005000D704700B0034026
:10558000F8B50546002069460880064604460746E9
:105590000121480700F0EEFA3B4B98696946088004
:1055A0000888002802D00888C043088068462988F7
:1055B00000880143684601800088C1436846018035
:1055C0009969008801409961A879697A400001438E
:1055D000A87A084398605868E97A08435860287A9E
:1055E000012800D1202669794020012903D10643F2
:1055F000264A41021160E979002902D0D9680143A5
:10560000D9602868D9682A79521ED2B21143D9606C
:105610001F490246E240D207D20F11D0E206D20E55
:10562000194B32431A601B4B01221B78A2409C4647
:105630009B00CA5063465B1C164A7F1C1370FFB266
:105640002A79BA4203D9641CE4B2102CE1D3C20314
:105650000BD510220C4B32431A600E4B01241A78E2
:10566000240495004C51521C1A7080030BD516204F
:10567000064305480660074A012310785B0484004E
:105680000B51401C1070F8BD00B0034000E100E079
:1056900048F6FF1F84F0FF1F410210B507480022A3
:1056A00042700A2343720B0C037201234370090AF0
:1056B0004172027200F020F8002010BD000002408C
:1056C00010B50121080300F055FA084C6079000676
:1056D000FCD5084806490068FAF79AFD401E800686
:1056E000800E4030E0703020607110BD000002403C
:1056F00040420F0074F0FF1F10B572B63020074C07
:1057000060710749481F0160601D884762B6607973
:105710003321084000D0012010BD000000000240ED
:1057200091F0FF1FF8B50026400217460C46C51839
:105730001CE010480021417006214172290C0172C1
:1057400001214170290A41720572022141702178BC
:1057500001726178417203214170A1780172E17890
:105760004172241D2D1DFFF7C7FF361DBE42E0D339
:105770000020F8BD00000240F1B582B0029800247C
:1057800000888206930F8205120F0092010702051E
:105790008504090F920FAD0FC00B8446334847694B
:1057A0006E1D0120B040314E0743776160460028EE
:1057B00015D007D030698B409843306130698A40FA
:1057C000104330612A480668029801797D20C000A4
:1057D00041430F46300CFAF71BFD01460BE0234E08
:1057E000F0688B409843F060F0688A401043F060A6
:1057F000E8E7641CE4B20846E040FAD1072C33D84D
:1058000030463946E040FAF703FD86B21949680090
:105810000E520298711CC08848437D21C900FAF7D6
:1058200001FD80B28646144AA80011588E60009986
:105830001358C9008C460C315E580427BE435E5095
:105840001658282373506107490F135808311960FF
:105850000021022D01D19368D9641558634674461E
:105860001033EC5010584160FEBD00000080044031
:1058700074F0FF1F86F0FF1FCC6D000070B582052D
:10588000150F8004840F084A6000105A401C4843DA
:105890007D21C900FAF7C6FC044AA1005258E9006C
:1058A00080B21031505070BD86F0FF1FCC6D0000EB
:1058B000F0B501783E4BCD064A09ED0E92009C589A
:1058C000A6690121A9400E43A6619C5865698D43D4
:1058D00065614478002C02D0012C05D00EE09C5864
:1058E000A5698D43A56109E09C58A6690D4635431D
:1058F000A5619C5866690D463543656185782D4ED6
:105900002D4C012D15D12B4F9D58403FBD4203D149
:10591000A5680D43A5600CE0B54203D1E5680D43D1
:10592000E56006E0234F4037BD4202D125690D43B3
:105930002561C17801293AD19958B1420BD1027839
:10594000382A04D0392A06D16269802301E06269CD
:1059500040231A436261B1420BD10278202A04D05D
:10596000212A06D16269202301E0626910231A43CB
:105970006261104B403B99420BD10278182A04D047
:10598000192A06D16269082501E0626904252A43C3
:10599000626199420BD100780C2804D00D2806D101
:1059A0006069022101E06069012108436061F0BD86
:1059B000C06D000040F00F4000900440F0B51C4D59
:1059C0001B4E43091B4F9B00184A194C4035403E63
:1059D000FB58002915D0C106C90E01208840B342EA
:1059E00003D1916801439160F0BDA34203D1D16816
:1059F0000143D160F0BDAB42FCD11169014311619B
:105A0000F0BD01218140B34203D19068884390608A
:105A1000F0BDA34203D1D0688843D060F0BDAB4253
:105A2000FCD1106988431061F0BD00000090044073
:105A300040F00F40C06D0000C2064109D20E880040
:105A4000034908580069D040C007C00F70470000E4
:105A5000C06D0000C1064209C90E0448920080587A
:105A6000C26801238B401A43C2607047C06D0000BA
:105A7000420910B59300C006074C0122C00E8240B7
:105A8000E058002903D041681143416010BD81688E
:105A90001143816010BD0000C06D000070B5044668
:105AA0000121022000F066F8254801680225A9437B
:105AB000016024487D21C9000068FAF7A9FB6168EC
:105AC0004143207802012048121811602178090111
:105AD0000918CB6801221343CB602178090109180A
