:020000040000FA
:10000000980600204B010000570100005901000034
:1000100000000000000000000000000000000000E0
:100020000000000000000000000000005B01000074
:1000300000000000000000005D01000031330000FE
:100040006101000061010000610100006101000028
:100050006101000061010000610100006101000018
:100060006101000061010000610100006101000008
:10007000893400003135000033350000390E0000AE
:1000800061010000610100006101000061010000E8
:100090006101000061010000612B0000892B00005C
:1000A00099270000E52700006101000061010000C0
:1000B00061010000610100006101000061010000B8
:1000C00000F002F800F030F80CA030C8083824180E
:1000D0002D18A246671EAB4654465D46AC4201D180
:1000E00000F022F87E460F3E0FCCB6460126334282
:1000F00000D0FB1AA246AB4633431847948B00004E
:10010000B48B00000023002400250026103A01D300
:1001100078C1FBD8520700D330C100D50B607047BF
:100120001FB51FBD10B510BD00F004FE1146FFF74E
:10013000F7FF05F0D9FB00F01CFE03B4FFF7F2FF58
:1001400003BC03F004FA00007047094880470948DF
:10015000804709480047FEE7FEE7FEE7FEE7FEE7C7
:10016000FEE7000005480649044A064B70470000B8
:100170008533000049010000C100000098050020FF
:1001800098060020980500207047000030B5441CF8
:1001900003E00178401C00290DD08107F9D10B4BF9
:1001A000DD0104C8D11A91432940FAD0001B0A0688
:1001B00003D0C01E30BD001B30BD0A0401D0801E1C
:1001C00030BD0902FCD0401E30BD0000010101011C
:1001D00001E004C0091F0429FBD28B0701D502806E
:1001E000801CC90700D00270704700290BD0C307DC
:1001F00002D00270401C491E022904D3830702D595
:100200000280801C891EE3E70022EEE70022DFE780
:10021000002203098B422CD3030A8B4211D3002303
:100220009C464EE003460B433CD4002243088B42DD
:1002300031D303098B421CD3030A8B4201D394466A
:100240003FE0C3098B4201D3CB01C01A524183095D
:100250008B4201D38B01C01A524143098B4201D317
:100260004B01C01A524103098B4201D30B01C01A42
:100270005241C3088B4201D3CB00C01A52418308BC
:100280008B4201D38B00C01A524143088B4201D3E9
:100290004B00C01A5241411A00D201465241104649
:1002A00070475DE0CA0F00D04942031000D34042BE
:1002B000534000229C4603098B422DD3030A8B42F4
:1002C00012D3FC22890112BA030A8B420CD3890192
:1002D00092118B4208D3890192118B4204D3890178
:1002E0003AD0921100E08909C3098B4201D3CB01B6
:1002F000C01A524183098B4201D38B01C01A52416B
:1003000043098B4201D34B01C01A524103098B426E
:1003100001D30B01C01A5241C3088B4201D3CB0059
:10032000C01A524183088B4201D38B00C01A52413C
:10033000D9D243088B4201D34B00C01A5241411A13
:1003400000D20146634652415B10104601D3404241
:10035000002B00D54942704763465B1000D34042F2
:1003600001B50020C046C04602BD704770477047C7
:100370000246C80FC00781434B0030B54B405B00BD
:100380009B0D20D01923DB06C91801231B059942B8
:1003900020DB0324A40704251346AB400BD3002B1A
:1003A00004D1EB0613409B00E34204D4012464070C
:1003B000002312195941FF231B0599420BD2C90092
:1003C0000143500F09E0CB0204D501430803024367
:1003D00005D0054830BDFF21C905084330BD08469A
:1003E00007210905884330BD0000C07F7047000029
:1003F00010B5024800F0C5FC10BD00000000C07F31
:10040000FFFFFFFFFFFFFFFFFFFFFFFFFFFFFEFEFE
:10041000F0B50C46871A9C410D46861A9D4103D2C1
:10042000C01BA141D21963410D0D1F0DC94EEC1B1C
:10043000AE435CD07F057F0D0026002F51D02D05E7
:10044000AC46A943DD020123ED0A1B051D43202311
:100450001B1B24D41746E740381871412F46E7404C
:10046000CC199D402818314661410C0D27D16144BB
:100470009A4013D50023401C594152000ED1400828
:10048000400001224B005205D34207D3052040070C
:10049000C14201D5B04900E0B0493046F0BD6B0023
:1004A000002A00D001229A181F23203C1B1B01D5D3
:1004B000002302E0E540281871410C0DD7D001243B
:1004C00024050919C407CD0740084908E40F28434B
:1004D0006144002CD5D00024401C61419A40D0D109
:1004E000CDE76A05520DD9D1C90FC907D5E79C4D93
:1004F0004E00002801D0012400E0002434195F00E0
:10050000002A01D0012600E00026BE19954FAC421A
:100510000CD8AE420AD8B44206D001256D05EC4293
:10052000BCD010461946F0BD9942FCD00020394697
:10053000F0BDF0B51FB40C460F46811A9F41254609
:10054000861A9D4106D20125ED076F40401ABC4135
:1005500052187B41210D1E0D8D1BAC467D4D8D43E8
:100560007ED075056D0D7CD00D05AE46AC431B03EA
:100570001B0B794D52429D41202366469B1B14D391
:100580001746F740381800260090744160462F4601
:100590000741E41900989D402818664116D4714619
:1005A00071189A4025D5012320E093182A466A4104
:1005B0005200002B00D0521C1E23203E9B1B002B00
:1005C00061DD3541EE1728186641E8D500187641FF
:1005D0005B1C9A4000D3401C4B05F3181524E340E4
:1005E00010D3002B52D071467118D30FC01802D30C
:1005F000491C05B0F0BD0123DB079A42F9D1400840
:100600004000F6E701225205B21801D1002853D06C
:100610000123CC0ADB029943891E002A08D1020C6F
:1006200003D0020C0004103902E0024600202039F9
:100630000023550B05D112020823550B01D152019D
:100640000D23550C01D112011B1DD50C01D19200B7
:100650009B1C150D01D152005B1C2025EE1A01E0F8
:100660002CE022E00546F54015439840CA1AE10700
:1006700069181305C918002ABBDA032040070818B7
:10068000C10FC9070FE071466118B2E7F1074008D2
:100690000843711071444A000CD001235B059A4253
:1006A000A7D2C90FC9070020A3E74905490D26D1E4
:1006B000002001E00028F4D100219AE7284D6600CF
:1006C000002801D0012100E0002171185F00002AFC
:1006D00001D0012600E00026BE19224FA94210D801
:1006E000AE420ED8B14208D001256D05E94206D0D0
:1006F0001946A802414010467BE79C4201D02146A2
:1007000077E70020394674E710B50C465C4005D504
:100710000124E4076340FFF70CFF10BDFFF778FEEC
:1007200010BD30B40C465C4004D50124E40763409E
:1007300030BC6DE630BCFCE670B50124E4076140D6
:100740000D465D4002D4FFF763FE70BD6340FFF7C6
:10075000F0FE70BDFF0700000000F0FF0000F07F1A
:100760000000E0FF0000F87F1F22030C02D10F22DF
:10077000000402D0030E03D004E0002001467047BD
:100780000002083A030F01D10001121F830F01D1AB
:100790008000921E002801DB4000521E12055118F5
:1007A0004205C012411810467047C10FC90700D05A
:1007B0004042012292071143D6E701218907D3E77E
:1007C000F0B58B4C0F09254689B0BD437BD01D0980
:1007D0002646AE43FAD00E465E402740F60F3E4313
:1007E000254071D024012142FBD0FF24AD19A4047F
:1007F0002D1B039501252D05DB02DB0AC9022B43C6
:10080000C90A29431E010901040F130F05012143E1
:100810001701880B820391432D098C46A90B1E43B7
:100820008A039543B30B9A0396433F09BA0B94038B
:10083000A74302962E467E430497B6464E19D71913
:100840000C460196544305977E43371B7646BF1BE3
:100850003601B646BE0B361900967646BC043719EB
:10086000009C01D3641C00946400002F01D0012679
:100870003443029E049F754366467E430496760089
:1008800034196E0034190094029C019E1C196643B1
:10089000751BAE46069465464519059C05956C4347
:1008A000594375460891691A0191049E01465143C6
:1008B000A41B0491611A009C0791E10605D061090F
:1008C0000122114302E072E06EE06109089D0027F9
:1008D0002C0A2D066918049D7C412A0A2D066918E8
:1008E000019D6241AC0DAD026D185441079A910D06
:1008F000920255196141029A644658435443069B3B
:10090000059A5A43121A131B9A0E9B015B187A41DF
:10091000010B0005C3185141220A200644195A410F
:100920009A4200D2491C01204002814203D3152380
:100930000226F64302E014230326F6432020C51ABC
:10094000A9401746AF40DA400A4320460399D840F1
:100950000914731819055118039A3843D2075140E6
:10096000AC4009D00122944006D30022401C5141E2
:10097000002C01D1400840001E4A934212D30122AC
:1009800003989206904207DB0520400709181A4891
:100990000143C012414004E0032040070818C10F82
:1009A000C907002009B0F0BD0020F107FAE70518DB
:1009B0000C464C4111486D42A04115D394181A467B
:1009C0005A410E48644290410ED301204A0040052E
:1009D000824209D35A00824206D35940C90F084ABD
:1009E000C90700201143DDE700200649DAE70000CF
:1009F0000000FF07FE070000FFFFFF7F0000E0FF91
:100A00000000F07F0000F87F0121C9050123411893
:100A100042001B06D3185B0E0AD0C1100722D20673
:100A2000891840075242D14201D5520089187047B7
:100A3000090208D50146002A03D0C10FC9070020CA
:100A4000704710467047420202D0002002497047AA
:100A5000072109050143F4E70000F87FF0B5FF2501
:100A60002D04C609C209FF2704462E400137CB09D1
:100A70003E4348402A402B400746002A6BD0002BBB
:100A800069D0AA4267D0AB4265D0002800DA32466E
:100A90000125ED0529432C4309022002090AD21A37
:100AA0004B0C7F24E31A434C000A7C44E35C7D2416
:100AB0002404121914145B00A218884201D3521C9A
:100AC00000E0400049420C465C4324115C43DB01DA
:100AD0006415E318040A5C43C502200D0C46444328
:100AE0006419250A5D432303EC0C0D46654300039E
:100AF0000019EB184C42A34201D35B18401CD405EB
:100B00002018002B07D05B00C91804D3401C002913
:100B100001D1400840003F2189048A4209D3002ABC
:100B200008DC1106090F04D0032149074018C00F43
:100B3000C007F0BD01224100120689187F2252062B
:100B40009142F6D205214907C84201D59010F0BD67
:100B5000FF20C005F0BD002F00DA32461648AA4239
:100B600007D2AB4205D21902090E17D0F80FC00701
:100B7000F0BDFF2563002D06AB42F9D84900A9421C
:100B8000F6D8AB4201D1A942F2D0A94201D100214D
:100B900001E061004908D0050843F0BD1102090ECB
:100BA000FBD0FF200243D005F0BD0A4601461046A7
:100BB00054E70000607F00000000C07F10B50146D0
:100BC0009E240002CA15A307002A02D01843002A57
:100BD00004DBA21A002A0CDDD04010BD1206120E52
:100BE00001D140004008A21A03D4D040404200285E
:100BF000F3DDFF2248001206904201D9002010BD0B
:100C0000C817C043584010BD0102C21504D00123CB
:100C1000DB071943002A0ADB9E239A1A02D40846EE
:100C2000D0407047FF2241001206914201D90020B6
:100C30007047C017C04370471F22030C02D10F2218
:100C400000041CD0030E01D10002083A030F01D1A9
:100C50000001121F830F01D18000921E002801DBCA
:100C60004000521ED205511802125118192290400C
:100C700004D3491C002801D149084900084670479F
:100C8000C10FC90700D04042012292071143D3E7A8
:100C900001218907D0E7000010B5FF231B0644009F
:100CA0009C421DD84C009C421AD80346124A0B4362
:100CB00007D4401A02D3EFF3008010BDEFF3008099
:100CC00010BD081A06D2EFF3008001219043C90736
:100CD000084302E0EFF30080904380F3008810BDEA
:100CE0000D231B041A4204D01146002000F006F820
:100CF00010BDFFF77DFB10BD00000090C80212D5AB
:100D00004803400F002804D0C803C0430121884095
:100D10007047EFF300800001000903210907084331
:100D200080F300887047002070470000004870473B
:100D3000340500207546FFF7F9FFAE460500694609
:100D40005346C008C000854618B020B5FFF70AFA20
:100D500060BC00274908B6460026C0C5C0C5C0C54E
:100D6000C0C5C0C5C0C5C0C5C0C5403D49008D4651
:100D7000704710B50446C046C0462046FFF7DDF96F
:100D800010BD10B50C461107090F092904D00A2916
:100D90000AD008290CD104E011460820FFF7AEFF65
:100DA00006E0510606D501E0510601D50120C00735
:100DB000214610BDD10607D501010909CC08490714
:100DC000000E0006044309E0410F20024907000A13
:100DD0000143200E00061D22D14101430846E7E7EA
:100DE00070B58C180578401C6B075B0F01D1037838
:100DF000401C2A1106D10278401C03E00678401CF2
:100E00000E70491C5B1EF9D12B0705D40023521E1E
:100E10000DD40B70491CFAE70378401CCB1A921CC6
:100E200003E01D780D70491C5B1C521EF9D5A142D0
:100E3000D8D3002070BD000030B5074900200978E4
:100E4000064A074B04E014694500401C5C53C0B2DD
:100E50008842F8D330BD000060F0FF1F00B00340AF
:100E600060F6FF1F70B51E4CE08B401CE08360886D
:100E7000401C608000F062FCE08A401CE08200F0D0
:100E8000C7F8E08B0025030002F054FB062404079A
:100E90001215202402F004FC70BD2088401C80B292
:100EA00020800228F8D32580658000F07BFB70BD90
:100EB00003F03AFA70BDA08A401C00B2A08201285B
:100EC000F8DBA582E58200F021F870BD00F03EF964
:100ED000E58370BDE583A58225806580E58270BDD0
:100EE00000F0FF1F10B50121024A084603F01CFB69
:100EF00010BD0000650E000010B50021252004F093
:100F000017F9012003F082FB10BD0000FEB53C4D37
:100F10003C4CAE6EE16B304605F066F9024620644B
:100F200028463146E83804F04FFAE81FF938016CDA
:100F3000354B1A029942016C00D35140866C9E4297
:100F4000866C00D356402E484038428B142A05D276
:100F5000C08D142802D2A08B401CA08300206064A6
:100F6000AD6E0746284605F0AFF8FFF727FE00B242
:100F700000903146206C05F0A7F8FFF71FFE2049CE
:100F800006B240311A20085E2A30FFF779FE1F4969
:100F900005F09AF8FFF712FE218B00B26183FFF78C
:100FA0006FFE01900098FFF76BFE02903046FFF74E
:100FB00067FE0646A16C7F20C005009105F014F97C
:100FC000314605F081F806463946009805F07CF870
:100FD000314605F009F8029905F006F8019905F087
:100FE00003F8FFF7EBFD20838120C005854205DA79
:100FF0007F20C005C54201D200202083E563FEBDED
:10100000D8F5FF1F00F0FF1F000080800AD7A33D26
:1010100070B5074C1621208B658B615E401B00B2BA
:10102000491C48430521FFF7FDF84019608270BD57
:1010300000F0FF1FF0B587B00021019103910591E9
:101040000291FFF71DFE3549C96F05F0CDF8344C0C
:101050000490606AFFF7D8FC324A334BFFF7B0FBCD
:10106000FFF786F907460498FFF7CEFC2F4A304B6E
:10107000FFF7A6FB05460E463846FFF7C5FC2A4695
:101080003346FFF741FBFFF773F9054660622949D4
:101090000498884207DA2849884204D82946A06A79
:1010A00004F0A2FFA0622549A06A884202DC24491C
:1010B000884200D9A1622946E06A05F095F80190BE
:1010C00020480168039141680591806802901E499B
:1010D0000498884205DDFF218905039804F0F4FF98
:1010E00003900299019804F0EFFF06460599A06A63
:1010F00004F0EAFF074601210398C9074840294642
:1011000004F0E2FF394605F06FF8314604F06CFF59
:10111000FFF754FDE56200B207B0F0BDD8F5FF1F40
:1011200000F0FF1F666666666666E63F333333335C
:101130003333D33F00002041000020C100803B45F5
:1011400000803BC5D8F4FF1F0000A04070B5144BD1
:10115000144C1889598ADA894018511A0422A25E5F
:1011600000B2554209B22CB2824201DA104602E0C6
:10117000854200DD20468A4201DA114602E08D42B6
:1011800000DD2146074A803AD087403211809A8B91
:10119000022A01D90021084602F07CFC70BD000043
:1011A00000F0FF1F58F6FF1FF8B57F2080023F4C6C
:1011B00001682160416861608168A160C168E16087
:1011C0000269226140693A4B236300256061002374
:1011D000E362384BA362E361374BA361374B23646F
:1011E000374BA3642265E16460652046183004F043
:1011F0009DFA344F34482767E0663448A066344887
:10120000E065A0652646334880363060324870601D
:10121000B7602068F06060683061A0687061204647
:10122000583004F083FA28483763F0622748B062E8
:101230002748F061B0612748306427487064B7647C
:101240002068F06460683065A0687065204698305A
:1012500004F06CFAE21D0020F9329066FD26760259
:10126000D066142169430B191946C0318884087669
:101270004876488380331866EB009B191F888F835C
:101280006D1C9B88EDB2CB83052DEAD30A21918793
:101290001249D0870880488088809064D0640B48C9
:1012A00090670E480E4940308180F8BDD8F4FF1F8A
:1012B0000000C841000020410000B442000040414D
:1012C000000034430000A041CDCC4C3E0000F04172
:1012D000000048420000D041CDCCCC3D18F6FF1FA5
:1012E000B603000010B588B020216846FEF78EFFD7
:1012F000174CA06FFFF788FC020E69460A70020CBB
:101300004A70020A8A70C870E06FFFF77DFC020E17
:1013100069460A71020C4A71020A8A71C871204634
:1013200080300068FFF770FC020E69460A72020CFA
:101330004A72020A8A72C872FC2003F00DFD002373
:1013400030226946FC2003F04DFD08B010BD0000BE
:10135000D8F5FF1F08480749C1600849416108499D
:1013600001607F21C9058160FF3006490130816736
:10137000704700000000F041D8F4FF1F00009643C2
:10138000000075430000A041F0B587B00021019135
:10139000039105910291FFF773FC3549096804F048
:1013A00023FF344C0490206BFFF72EFB324A334B63
:1013B000FFF706FAFEF7DCFF07460498FFF724FB69
:1013C0002F4A304BFFF7FCF905460E463846FFF72B
:1013D0001BFB2A463346FFF797F9FEF7C9FF054680
:1013E000206329490498884207DA2849884204D8AA
:1013F0002946606B04F0F8FD60632946A06B04F099
:10140000F3FE01902249606B884202DC2149884248
:1014100000D96163204801680391416805918068A3
:1014200002901E490498884205DDFF218905039832
:1014300004F04AFE03900299019804F045FE064626
:101440000599606B04F040FE074601210398C90727
:101450004840294604F038FE394604F0C5FE3146BE
:1014600004F0C2FDFFF7AAFBA56300B207B0F0BD10
:1014700058F6FF1F00F0FF1F666666666666E63F69
:10148000333333333333D33F00002041000020C1D6
:1014900000803B4500803BC5D8F4FF1F0000A04002
:1014A00010B5022002F0B6FA10BD00007CB5334C36
:1014B000334DA089002815D1364932A08861A86F24
:1014C000A062084601F0F4F820462C3000F04BFCF6
:1014D0002046443000F047FC20465C3000F043FCDE
:1014E0000120A0812C487F260078F605012822D013
:1014F00007282AD0042833D0204801212C3000F0BE
:1015000082FB1E480121443000F07DFB18250C238E
:1015100022A210210A20009504F0E0FBA06AFFF748
:1015200073FB0C21024600910223019510215820E3
:1015300004F042FB7CBD114800212C3000F063FB1D
:101540003146A06A04F050FD08E00C480021443008
:1015500000F059FB3146A06A04F046FEA062D5E7D0
:10156000A06AA8670020A081FFF7BCFE03F014FB6F
:10157000022004F01BFCFFF7B5FCC7E724F4FF1FB3
:10158000D8F5FF1F536574205461726765745370FA
:1015900070656400C4F3FF1F21F4FF1F537065657D
:1015A000643A0000F0B55F4C5F4AE51FF93D2846FC
:1015B000C030FF35216F478BC68D813589B0914290
:1015C00002DC5A4881425CD9594B1020185E0290C7
:1015D000401C00B20890BA1B186A142A20DD04F0DF
:1015E00073FD079003900A210298FEF71BFE0A2163
:1015F0004843089923300291FFF742FB039904F016
:10160000F3FCE067079803900A210298FEF70AFEB0
:101610000A2148430299464A491C1182193022E0A6
:10162000F21B142A25DD04F04FFD079004900A21D7
:101630000298FEF7F7FD81004018089919300291D1
:10164000FFF71EFB049904F0CFFCE06707980390B6
:101650000A210298FEF7E6FD810040180299344AFB
:10166000491C11822330FFF70BFB039904F0BCFDEA
:1016700028602F481021415E0A2908DB0A210182D7
:1016800005E02B49002008822A48E0672860552F92
:1016900004D9552E02D92748E0672860214E022040
:1016A0004036305EFFF781F80022234BFFF788F8C1
:1016B000FEF75EFEA0640A2003F01EFD0127FF076F
:1016C000002802D1A06C7840A0640020184D7080E2
:1016D000A888E880A06CFFF771FA00B2FFF7AAFCB7
:1016E000A8800420305EFFF760F80022124BFFF75D
:1016F00067F8FEF73DFEE064262003F0FDFC0128BC
:1017000002D1E06C7840E0640020B0806889A88154
:10171000E06CFFF753FA00B2FFF736FE688109B0BC
:10172000F0BD0000D8F5FF1F0000A0410000A0C1DF
:1017300000F0FF1F000034420000C93F70B50C4CA0
:101740000A21A088E6886588801B00B26D1C68436A
:10175000FEF768FD801920816089A6890A21801B17
:1017600000B26843FEF75EFD8019E08170BD0000A5
:1017700000F0FF1F7CB5334C334D6089002815D134
:10178000364932A0886168696062084600F090FFBF
:1017900020462C3000F0E7FA2046443000F0E3FA0F
:1017A00020465C3000F0DFFA012060812C482D4E8D
:1017B0000078012822D007282AD0042833D02148D5
:1017C00001212C3000F01FFA1E480121443000F0A6
:1017D0001AFA18250C2324A210211420009504F0D5
:1017E0007DFA606AFFF710FA0C210246009104238B
:1017F000019510213A2004F0DFF97CBD1148002149
:101800002C3000F000FA3146606A04F0EDFB08E08D
:101810000C480021443000F0F6F93146606A04F0CB
:10182000E3FC6062D5E7606A686104F0B1FA002009
:10183000608103F0B1F9022004F0B8FAFFF752FB1F
:10184000C7E7000024F4FF1FD8F4FF1F4469726546
:101850006374696F6E204B6400000000C4F3FF1FC7
:1018600021F4FF1F0000A0404B643A007CB5354CCA
:10187000354DE088002815D1384934A08861E868E2
:10188000E061084600F014FF20462C3000F06BFAAF
:101890002046443000F067FA20465C3000F063FADE
:1018A0000120E0802E483F2600783606012825D00A
:1018B00007282DD0042836D0224801212C3000F0F2
:1018C000A2F920480121443000F09DF918250C238D
:1018D00024A210211420009504F000FA2249E069A6
:1018E00004F0F2FBFFF790F90C210246009104236B
:1018F000019510213A2004F05FF97CBD11480021C8
:101900002C3000F080F93146E06904F06DFB08E00E
:101910000C480021443000F076F93146E06904F0CB
:1019200063FCE061D2E7E069E86004F031FA00208E
:10193000E08003F031F9022004F038FAFFF7D2FA20
:10194000C4E7000024F4FF1FD8F4FF1F4469726548
:101950006374696F6E204B7000000000C4F3FF1FBA
:1019600021F4FF1F4B703A0000002041F8B5244DD0
:1019700004462878002841D0204603F031FF6861F2
:101980000021A8616156814201DD002020701C48C1
:101990002178007D1A4D401AC6B258356078296901
:1019A000884200D8002616486E61583000F080FE4C
:1019B0001348743086616178016100F0E9FD29699E
:1019C0006078CFB2884200D2074600250AE070193D
:1019D0001C21484302192801411B1E20133100F02D
:1019E00055FC6D1CBD42F2DB05481C228169514348
:1019F0000919012201618A7000210170F8BD0000FF
:101A00006CF3FF1FF8B5002A7ED0560056438718A6
:101A1000012B41D0851A022B7BD0032B76D0042BCF
:101A200072D11446002500910098069AC1B2B8B24E
:101A300000F006FD00986D1C401E009060000146FD
:101A40006A0061436A438918891B081A401C0028F0
:101A500001DD641E7F1EA542E6DB0098069AC1B236
:101A6000B8B200F0EDFC204641006800641E891EFB
:101A7000024661436A438918891B0818401C7F1E6F
:101A8000002803DC0098401E6D1C0090002CE4DC54
:101A90000098C1B2B8B276E000970C461546002710
:101AA0000098E1B280B2069A00F0CAFC68007F1C80
:101AB00001467A0069437A438918891B081A401C39
:101AC000641C002803DD0098401E6D1E0090AF428C
:101AD000E6DB0098E1B280B2069A00F0B1FC009813
:101AE0002946401E0090490078006D1E891E02465E
:101AF00069437A438918891B0818401C002801DCB7
:101B0000641C7F1C002D02E040E002E03FE0E0DCCE
:101B100075E01446002700910098069AC1B2A8B259
:101B200000F08EFC00987F1C401C00906000014675
:101B30007A0061437A438918891B081A401C0028DF
:101B400001DD641E6D1CA742E6DB0098069AC1B257
:101B5000A8B200F075FC204641007800641E891E82
:101B6000024661437A438918891B0818401C6D1C82
:101B7000002803DC0098401C7F1C0090002CE4DC53
:101B80000098C1B2A8B2069A00F05AFCF8BD0095C0
:101B90000C46154600270098E1B280B2069A00F084
:101BA0004FFC68007F1C024679006A437943511854
:101BB000891B081A401C641E002803DD0098401C85
:101BC0006D1E0090AF42E6DB0098E1B280B2069A4B
:101BD00000F036FC00982946401C0090490078002F
:101BE0006D1E891E024669437A438918891B0818AD
:101BF000401C002801DC641E7F1C002DE4DC0098E2
:101C0000E1B280B2BFE77CB50446C0680D460E283D
:101C10007DD3A0681E287AD3206903F0DAFDA1687D
:101C2000884274D825750C2661682068002D11D073
:101C30000122801D891D00F02EF9206903F0C9FDE5
:101C4000A168081A218840084018002180B2009637
:101C500001916CE00022801D891D00F01CF9012516
:101C600000952068616803230622801D891DFFF707
:101C7000C9FE0095A168206842186168801D0B4666
:101C8000D21F00F094FA0095A16820680423401840
:101C900061680622C01F891DFFF7B4FE0095E16848
:101CA0006068A268411820684B1E8218801D491E7A
:101CB000D21F00F07CFA0095E1686068A2684118C4
:101CC0002068012380180622C01FC91FFFF79AFE53
:101CD00000956168E0680B182068891D0246DB1FCB
:101CE00000F065FA0095E1686068022341182068F9
:101CF0000622801DC91FFFF785FE00956168E06818
:101D0000A2680B1820688018421E401E00E018E0F0
:101D1000891DDB1F00F04BFA206903F05AFDA16812
:101D2000081A21884008401880B200960195E168A1
:101D3000A2880C394908511889B20C23226904F091
:101D4000CBF87CBD10B503F06DFE10BD38B5144660
:101D5000C9B280B26A4600F0B0FB68460178012043
:101D60006140884338BD7CB50446C0680E287BD3EB
:101D7000A0681E2878D3206903F02BFDA168884253
:101D800072D8012500952068616803230622801D12
:101D9000891DFFF737FE0095A16820684218616829
:101DA000801D0B46D21F00F002FA0095A168206842
:101DB0000423401861680622C01F891DFFF722FE18
:101DC0000095E1686068A268411820684B1E82187F
:101DD000801D491ED21F00F0EAF90095E168606895
:101DE000A26841182068012380180622C01FC91F5D
:101DF000FFF708FE00956168E0680B182068891DF0
:101E00000246DB1F00F0D3F90095E1686068022309
:101E1000411820680622801DC91FFFF7F3FD0095B9
:101E20006168E068A2680B182068891D8018421E4E
:101E3000401EDB1F00F0BBF9207D0C26002814D0CB
:101E4000206861680122801D891D00F024F8206946
:101E500003F0BFFCA168081A21884008401800213F
:101E600080B2009601910BE014E0206903F0B1FC10
:101E7000A168081A21884008401880B20096019590
:101E8000E168A2880C394908511889B20C232269EB
:101E900004F022F87CBDF7B5DEB00C46054680287C
:101EA00070D2402C6ED2E1B2A8B252AA00F005FB6B
:101EB00050A8027A6098D107C007C90FC00F8142AD
:101EC00060D0214628465C9400F0D2FA06465B902A
:101ED00050A8027A2146284600F0F7FA5A90801955
:101EE0004008019400900125299428902C4601E097
:101EF000002C77D0E100684608188038816F549133
:101F0000C76F50A8641E027AE4B23946549800F0B4
:101F1000AFFA559050A8027A3946549800F0D5FA95
:101F2000064650A8027A7F1C39465498FFF70EFFE8
:101F3000002812D1559809E050A8027A39465098E5
:101F4000FFF704FF002804D15098401C5090B04285
:101F5000F2D95098B042CBD8549050A8027A394662
:101F6000549800F0B2FA064650A8027A39465498BE
:101F700000F07EFA5590142D21D25F90401E5E90A5
:101F80005F9819E082E050A8027A791E5098FFF716
:101F9000DDFE002827D05F995E98884208D05E91C8
:101FA000E90028A8509A425008186D1CEDB247600D
:101FB000142D04D25098401C5090B042E3D955984B
:101FC000B2B23018400854905598F9B280B2609B74
:101FD00000F0D9F8142CA4D255985F90401E5E9062
:101FE0005F981CE023E050985F90E1E750A8027AE8
:101FF000791C5098FFF7AAFE002815D05F995E98CB
:10200000884208D05E91E0006946509A0A50401814
:10201000641CE4B24760142C83D25098401C50904A
:10202000B04200D97DE7E1E750985F90F3E7002DDB
:1020300020D0E90028A808188038816F5491C76F14
:1020400050A86D1E027AEDB23946549800F010FA8D
:10205000559050A8027A3946549800F036FA064650
:1020600050A8027A7F1E39465498FFF76FFE002869
:102070000ED020E0002C00D03AE75A98609B82B244
:102080005C98C1B25B9880B200F07DF861B0F0BDA1
:10209000559809E050A8027A39465098FFF756FE45
:1020A000002804D15098401C5090B042F2D950986A
:1020B000B042BCD8549050A8027A3946549800F0E7
:1020C00004FA064650A8027A3946549800F0D0F92E
:1020D0005590142C20D25F90401E5E905F9818E0BF
:1020E00050A8027A791C5098FFF730FE002826D0BD
:1020F0005F995E98884208D05E91E0006946509AE8
:102100000A504018641CE4B24760142C04D2509862
:10211000401C5090B042E3D95598B2B230184008F4
:1021200054905598F9B280B2609B00F02CF8142DB1
:1021300096D255985F90401E5E905F981BE0509835
:102140005F90E2E750A8027A791E5098FFF7FEFDF3
:10215000002815D05F995E98884208D05E91E9000A
:1021600028A8509A425008186D1CEDB24760142DF3
:10217000DED25098401C5090B04200D970E7E1E7A1
:1021800050985F90F3E7F8B515461E460F46044693
:10219000A84202D9D0B225460446324639462046E6
:1021A00000F04EF9641CA4B2A542F6D2F8BDFFB50A
:1021B00083B0054605980C46421B06980026011B75
:1021C000F643002A01DD012702E0002A04DA37463F
:1021D000002909DD012611E0C2B2E1B2A8B20C9BD0
:1021E00000F033F907B0F0BD002907DB0598E1B234
:1021F00082B2A8B20C9BFFF7C6FFF3E77A43500008
:1022000071430190480000908A4221DB801A0290BD
:1022100000990198081A019011E0E1B2A8B20C9A55
:1022200000F00EF90298ED19002803DA0099401821
:10223000029004E0029901984018A41902900598B0
:102240008542EAD1E1B2A8B20C9A00F0F9F8C9E7E8
:102250000198401A029001990098081A009011E024
:10226000E1B2A8B20C9A00F0EBF80298A419002889
:1022700003DA01994018029004E00299009840188E
:10228000ED19029006988442EAD1DBE7FEB51646C6
:102290000C460546802805D8402C03D8022C01D3D3
:1022A000122D01D20020FEBDF0680028FBD0B278CC
:1022B00028461023A11E12380C27002A12D072685B
:1022C000002A04D0C9B2C0B2009303F0B0FC0020D1
:1022D00001900097A1B2A8B20C23F26803F0FCFDB4
:1022E0000120FEBDB268002A05D00093C9B2C0B279
:1022F000102303F09CFC0120EAE7000010B5002940
:1023000002D00121002401E0002101240448FFF74C
:102310007AFC034821461830FFF775FC10BD000019
:1023200034F3FF1FFEB58168044614293BD3E368EC
:10233000142B38D320684218802A34D86168CB180F
:10234000402B30D80027521E5B1E009700F0F3F898
:10235000012500956168E068A2680B1820685B1E83
:102360008218521E00F0C9F8208821892F4B41188D
:10237000491E8AB2217980B20E31C9B21B78FFF7AB
:1023800002FF0095A168206842186168521E0B4642
:102390000D3300F0D0F8206903F030FA0246A0684F
:1023A000811E8A4201D90020FEBD80B20C26019711
:1023B00000960290A0883346401C81B22088226992
:1023C00080B203F0DAFD1A480775A169016121683E
:1023D000491D0160E26861688918C268891A091F8D
:1023E0004160FFF7C0FC124818300575E1690161D2
:1023F000A268216889188268891A891F0160E268C9
:1024000061688918C268891A091F4160FFF7ABFC2F
:1024100000960195A0880C23113081B22088626952
:10242000801D80B203F058FD0120FEBD30F3FF1F78
:1024300034F3FF1F0148007D7047000034F3FF1F95
:1024400010B5C0B203F004FB10BDF8B515461E462A
:1024500007460C46A94201D90D461446324621468C
:102460003846FFF7EDFF641CE4B2A542F6D2F8BD92
:10247000F8B5D607441EF60F0D46002C0ED0E9B273
:10248000A0B26A4600F019F868460078C007C00F8D
:10249000B04201D0601CF8BD641EF0D1E9B200204A
:1024A0006A4600F00AF868460078C007C00FB042DC
:1024B00001D00120F8BD0020F8BD10B51446C0B20F
:1024C00003F0E2FA2070002010BDF8B5441CD607D6
:1024D0000D46F60F0DE0E9B2A0B26A46FFF7EDFF38
:1024E00068460078C007C00FB04201D0601EF8BD3A
:1024F000641C802CEFD38020F8BDF8B51C4615462F
:102500000E46074692B2C9B280B2069BFFF73BFE69
:10251000AAB2E1B2B8B2069BFFF735FEE2B2F1B261
:10252000B8B2069BFFF791FFE2B2F1B2A8B2069BE8
:10253000FFF78BFFF8BDF8B517461E460D4604465B
:10254000B84201D914460746B54201D91D460E4688
:10255000B54206D1BAB2E9B2A0B2069BFFF713FEAC
:10256000F8BDBC420DD1F2B2E9B2A0B2069BFFF7B2
:102570006CFFF8BDBAB2E9B2A0B2069BFFF703FE4A
:102580006D1CB542F6D9F8BD10B503F091FA10BD37
:10259000F8B5040054D0A2680A2A51D3E068142880
:1025A0004ED30125009561680B1820685B1E8218C8
:1025B000521EFFF7A2FF08260096208921780838CE
:1025C000400808182179C0B2491CC9B233461D4AD7
:1025D00003F02DFB00962079217B227840180938E2
:1025E000C1B220890823083840081018154AC0B223
:1025F000083203F01CFB0095A1682068636842184C
:1026000009331946521EFFF7D2FD0095E168606854
:10261000A268411820680A3982180B46521EFFF73B
:10262000C6FDE26821696069143A884201D3E2611B
:1026300003E05043FDF7ECFDE061204600F004F8B4
:10264000F8BD0000DE890000FEB504468089A28B3B
:10265000801A143887B22088401C81B20191A0886A
:10266000791E0A3086B25118208989B27318C01EAB
:10267000019980B20D18002200922A463146019835
:10268000FFF759FF21696069814201D8002005E008
:10269000A069491E7843FDF7BBFD80B2012100917E
:1026A0003118E269019853182A46FFF744FFFEBD2E
:1026B000FEB58168044614293BD3E368142B38D354
:1026C00020684218802A34D86168CB18402B30D853
:1026D0000025521E5B1E0095FFF72DFF0126009678
:1026E0006168E068A2680B1820685B1E8218521EA1
:1026F000FFF703FF20882189174B4118491E8AB232
:10270000217980B20E31C9B21B78FFF73CFD0096EB
:10271000A168206842186168521E0B460D33FFF70E
:102720000AFFA06903F071F80246A068811E8A4280
:1027300001D90020FEBD80B20C21019500910290CC
:10274000A0880C23401C81B22088A26980B203F0CB
:1027500014FC0120FEBD000030F3FF1F10B5242043
:1027600002F0CAFC012801D0012010BD002010BDDC
:1027700010B51C2002F0C0FC012801D0012010BDC2
:10278000002010BD10B51B2002F0B6FC012801D0BE
:10279000012010BD002010BDF8B50F4D0024A86821
:1027A0000E4E000712D50E4F387884420ED2E968DB
:1027B00020460C2250433258114204D080198068C0
:1027C000002800D08047641CE4B2EDE7A86824210B
:1027D0000843A860F8BD000000900740F0F6FF1F16
:1027E0007AF0FF1FF8B50F4D0024A8680E4E0007C1
:1027F00012D50E4F387884420ED2E96820460C225A
:1028000050433258114204D080198068002800D00B
:102810008047641CE4B2EDE7A86824210843A8605F
:10282000F8BD000000A00740F0F6FF1F7AF0FF1F80
:1028300010B52C2002F060FC10BD10B501212D2038
:1028400002F076FC10BD10B500212D2002F070FCC6
:1028500010BD10B501212C2002F06AFC10BD10B58E
:1028600000212C2002F064FC10BD08B50020694650
:10287000C87048702C20087001208870684602F0EB
:1028800077FB08BD08B500206946C8700120487074
:102890002C220A708870684602F06AFB08BD0000AE
:1028A000F0B50021104A114E114C0B4604251C2096
:1028B0004843801845708F00837046608360E759F5
:1028C00003614361491CC9B2C76083610429EED327
:1028D00001209070074810610748D06202488C3090
:1028E000506306485066F0BD20030020EE890000CA
:1028F000A4F3FF1F61580000315800001958000070
:10290000F8B5674C6068FFF731F86649002508782C
:10291000002800D0E560624E583601285BD00728B9
:1029200054D13E237522122101200095FFF703FEAA
:10293000A0691C2148436168401820618570A06926
:10294000401CA06161684A78521E824200DCA2618C
:10295000A0691C22504340180121206181706268E7
:102960001078401C43B21370517837693046B94231
:1029700005D80E468B420EDB491E11700BE0FEB2ED
:102980007F1EBB4207D917700269891A42699142BA
:1029900001D9521C4261002710E041481C215830E7
:1029A00040694843616841181C2078430A1838017F
:1029B000C11B1E201331FFF769FC7F1CB742ECDB03
:1029C0003748A16974308161FFF73EFE35480078D1
:1029D000042849D04DE03E237522122101200095A4
:1029E000FFF7A9FDA1691C22514362688818206184
:1029F0008570A069401EA061002800DCA561A06967
:102A00001C21484361684018012120618170616880
:102A10000878401E42B20A704F78336930469F42B0
:102A200003D8002A0ADA0D7008E0DFB2002A05DABE
:102A30000D704169002901D0491E7161002610E026
:102A400017481C21583040694843616841181C20D0
:102A500070430A183001811B1E201331FFF716FC4A
:102A6000761CBE42ECDBABE720690069002800D091
:102A70008047E068411CE16064280FDDE560206963
:102A80004169002908D0857060691C21484361684C
:102A9000401801212061817002F072FCF8BD000035
:102AA0006CF3FF1F21F4FF1F8307FF22DB0E9A4008
:102AB0008907090E994000280BDA0007000F083833
:102AC000830808489B001818C36993430B43C361EC
:102AD0007047830804489B001B18186890430843FC
:102AE0001860704700ED00E000E400E0F0B5002061
:102AF000134A144C144E034605251C2141438918E2
:102B00008B610B614C608B6087008B704D704B61EB
:102B1000401CF759C0B2CF600528EED30120907059
:102B20000A4810610A48D0620A4890640A48044979
:102B3000506603488C398030816008490160F0BDDF
:102B400038040020EE89000088F3FF1FBD58000004
:102B5000A55800008D58000075580000315800003D
:102B600010B5074CE068C00704D00648006800288C
:102B700000D08047E06801210843E06010BD0000FC
:102B80000071034058F0FF1F10B5074CE069C00703
:102B900004D006484068002800D08047E069012141
:102BA0000843E06110BD00000071034058F0FF1FB2
:102BB000F0B50021114A124C124E0B4603251C2081
:102BC0004843801845708361036144608F008360CF
:102BD00083704361491CF759C9B2C7600329EED31A
:102BE0000120064990708C319161074810610749B6
:102BF000D16202498C3911659064F0BDAC030020AC
:102C0000EE890000B8F3FF1F31580000D5580000CE
:102C100010B5074C6078002808D0201DFFF748FD4C
:102C200020462030FFF7B4FC0020607010BD00008B
:102C300098F4FF1FFEB5FFF7EBFFF54EF3490020B8
:102C4000F51D085601270C24F935C036002804D09C
:102C500001287DD002287CD0A3E10623EDA20F211C
:102C60000320009403F03AF8062000900194728B40
:102C700003230F211B2002F09FFF0623E7A20F2151
:102C80004120009403F02AF8062000900194F28D70
:102C900003230F215F2002F08FFF0623E1A22121F1
:102CA0000320009403F01AF80620009001946A882B
:102CB000032321211B2002F07FFF0623DBA2212119
:102CC0004120009403F00AF8062000900194EA8A5B
:102CD000032321215F2002F06FFF0623D5A23221BA
:102CE0000320009402F0FAFFFF21C905A86E0E022E
:102CF000C84213D306232D2232211B2001970094B2
:102D000002F0FAFEA86E7040FDF758FF02B20620EE
:102D10000323322100900194212008E0FDF74EFFAB
:102D200002B2062000900323322101941B2002F0FE
:102D300043FF0623C1A232214120009402F0CEFFBE
:102D4000FF21E86EC905C84216D306232D2201E0F3
:102D50001CE0ADE032215A200197009402F0CCFE35
:102D6000E86E7040FDF72AFF02B2062003233221ED
:102D700000900194602012E1FDF720FF02B20620CE
:102D800003233221009001945A2008E10C20009086
:102D90000623ACA20F21032002F0A0FF0C21062085
:102DA000AA4C019100900222A25E04230F211B2055
:102DB00002F002FF0C2000900623A5A20F2137206D
:102DC00002F08CFF0C210620019100900422A25EEB
:102DD00004230F21552002F0EFFE0C200090062363
:102DE0009DA22121032002F079FF3E22AA5E002A43
:102DF00013DA0C20009006232D22322101971B208C
:102E000002F07AFE06200C21009001913E20285EFF
:102E1000032342423221212006E00C2106200191A9
:102E20000090042321211B2002F0C6FE0C2506235E
:102E30008BA221213720009502F050FF0022A25ED4
:102E4000002A11DA06232D22322155200197009500
:102E500002F052FE0620009001950020205E032320
:102E6000424232215B2005E006200090042321210C
:102E70000195552002F0A0FE06237BA232210320FB
:102E8000009502F02BFF062401950094B28B0323DA
:102E900032211B2002F090FE062373A2322137203C
:102EA000009502F01BFF01950094B28B032374E0A0
:102EB00006236FA20F210320009402F00FFF544855
:102EC0006D49006803F000F9FDF79EFE02460626F4
:102ED00004230F211B200096019402F06DFE0623AF
:102EE00066A20F213720009402F0F8FE484862499C
:102EF000406803F0E9F8FDF787FE024604230F213E
:102F000055200096019402F057FE06235DA2212170
:102F10000320009402F0E2FE3D48C068FDF774FE15
:102F20000246042321211B200096019402F044FE56
:102F3000062356A221213720009402F0CFFE344808
:102F40004069FDF761FE02460423212155200096C9
:102F5000019402F031FE06234EA232210320009498
:102F600002F0BCFEE86FFDF74FFE0246032332215C
:102F70001B200096019402F01FFE062346A2322178
:102F80003720009402F0AAFE304840300068FDF778
:102F90003BFE03230246009601943221552002F0A5
:102FA0000BFE3E4819490078091D072809D0012861
:102FB0001CD0042804D1081F4770002002F0F6FE40
:102FC000FEBD12480278521E52B202704770002AAB
:102FD00001DA022213E000228256002A11D0012ACF
:102FE00011D0022AECD12EA08861FEBD07480278DC
:102FF000521C52B202704770022AECDD00220270AD
:10300000E9E72BA0F0E72FA0EEE7000098F4FF1F00
:10301000D8F4FF1F48464C3A000000004846523A98
:103020000000000048424C3A000000004842523A7A
:10303000000000004841453A000000005641453A72
:10304000000000004C5F453A0000000018F6FF1F2A
:10305000525F453A000000004C5F503A000000000B
:10306000525F503A000000004E6F723A00000000BC
:10307000534B503A0000000000002041534B493AA6
:1030800000000000444B503A00000000444B443A1A
:10309000000000004C543A0052543A0021F4FF1F43
:1030A00050494420506172616D657465727300000F
:1030B0004D6F746F7220506172616D6574657273CB
:1030C0000000000053656E736F7220506172616D75
:1030D0006574657273000000F0B5034608464E0043
:1030E000995B17E0521E904203DA54001C5B8C423D
:1030F000F8D25400904204DA1D5B8D4201D8401C86
:10310000F8E7904206DA45005F5BBC461F5B5F5301
:1031100067461F539042E6DB42009C5A9C539952EB
:10312000F0BD0000034A10B5911E881E00F03CFE61
:1031300010BD000032F6FF1F7CB5354C354D608860
:10314000002815D1374934A0886168686061084655
:10315000FFF7AEFA20462C30FEF705FE204644303D
:10316000FEF701FE20465C30FEF7FDFD0120608089
:103170002D483F2600783606012825D007282DD077
:10318000042836D0224801212C30FEF73CFD20488F
:1031900001214430FEF737FD18250C2323A210210E
:1031A0001420009502F09AFD2149606902F08CFF1D
:1031B000FDF72AFD0C210246009104230195102100
:1031C0003A2002F0F9FC7CBD114800212C30FEF7BA
:1031D0001AFD3146606902F007FF08E00C48002143
:1031E0004430FEF710FD3146606902F0FDFF60617A
:1031F000D2E76069686002F0CBFD0020608001F0DA
:10320000CBFC022002F0D2FDFDF76CFEC4E700000B
:1032100024F4FF1FD8F4FF1F5370656564204B69C9
:1032200000000000C4F3FF1F21F4FF1F4B693A00A8
:10323000000020417CB5354C354D2088002815D143
:10324000374934A08861286820610846FFF730FAC2
:1032500020462C30FEF787FD20464430FEF783FDE4
:1032600020465C30FEF77FFD012020802D483F2660
:1032700000783606012825D007282DD0042836D01E
:10328000224801212C30FEF7BEFC204801214430A9
:10329000FEF7B9FC18250C2323A210211420009559
:1032A00002F01CFD2149206902F00EFFFDF7ACFC85
:1032B0000C21024600910423019510213A2002F0CE
:1032C0007BFC7CBD114800212C30FEF79CFC314674
:1032D000206902F089FE08E00C4800214430FEF726
:1032E00092FC3146206902F07FFF2061D2E720691D
:1032F000286002F04DFD0020208001F04DFC0220EE
:1033000002F054FDFDF7EEFDC4E7000024F4FF1FBA
:10331000D8F4FF1F5370656564204B7000000000F7
:10332000C4F3FF1F21F4FF1F4B703A00000020413F
:1033300010B500F001F810BD70B50F4800244168C9
:10334000002905D04168491E416001D10121017069
:103350008168491C81608168084A914201D100213D
:103360008160074D14206043401901F09BF9641CF3
:10337000E4B2062CF6D370BD80F0FF1FFFFFFF7F85
:10338000D0FBFF1F10480F4981800121417023218C
:10339000017011200D49000548620D48002141705F
:1033A0000C4A962111701A2101700179C906FCD4CA
:1033B00001790907890FFBD1074801684908416075
:1033C0008160704703E80000002005400080044051
:1033D00000400640005006404CF0FF1F70B5284CDE
:1033E0006078002805D10120607020469430FEF7F7
:1033F00099FF244D2878072810D1214800219430C6
:10340000FEF77CFF1E4800219430FEF777FFFFF7A0
:10341000BBF81B2001F070FE0028FAD028780128A4
:1034200010D1174801219430FEF768FF144801219C
:103430009430FEF763FFFFF7A7F8242001F05CFE4D
:103440000028FAD02878042811D1002060701C20B0
:1034500001F052FE0028FAD009489430FEF7EAFF46
:10346000012805D001F098FB022002F09FFC70BDFE
:1034700001F092FB022002F099FCFDF76BFF70BD9A
:103480006CF3FF1F21F4FF1FF8B5254800230179D5
:103490001C46017989063ED5C27922480026057866
:1034A0002149002D14D0012D17D0022D1DD0032D40
:1034B0001ED0CF787F1DAF4202D94A556D1C0570D2
:1034C000CA780778551DBD4225D10670151D17E035
:1034D000AA2AF5D10A70012205E0AF2A01D00670B0
:1034E000EEE74A7002220270EAE78A700322FAE7E6
:1034F000CA700422F7E7CF5C3C195B1CE4B2DBB274
:103500009D42F8D8084B1B1DD25CA24201D04670E8
:1035100001E089784170054801F012F9F8BD00001A
:1035200000A006408DF0FF1FB0000020A8F9FF1F8B
:103530007047704730B47446641E2578641CAB42F3
:1035400000D21D46635D5B00E31830BC18470020C5
:1035500070470000064920228A60C006C00E08603D
:1035600008680006FCD508690005000D70470000DA
:1035700000B0034010B501F003FC01F05FF801F06A
:10358000A7F800F0CBFC00F01BFA00F05BF900F0AC
:103590008BFF00F0AFFA00F04FFA00F03DF800F0BA
:1035A000AFFE00F01BF862B610BD000010B5074872
:1035B0000078FDF76DFB064902F086FD0549FDF731
:1035C0004DFA0549FDF74AFA10BD00008CF0FF1FC7
:1035D0000000A04000007F433ECFF33E08B5082026
:1035E00069460870012048708870684601F0C0FC88
:1035F0000121082001F09CFD0920694608706846F9
:1036000001F0B6FC00F001F808BD10B50121092059
:1036100001F08EFD10BD000038B51E484169202222
:1036200011434161C168032212069143C160C16820
:10363000012212061143C16017490A6892089200DC
:103640000A600A6818231A430A6000224A60416926
:10365000402421434161C168DC05A143C160C168C8
:103660000124E4062143C1600C480168016001683F
:103670001943016042606846C27042700A210170BD
:103680000121817001F074FC26216846017001F06F
:103690006FFC38BD00800440008003400090034070
:1036A00010B50748074982884B68D2188280064ABD
:1036B000438854681B19438000204860506010BD47
:1036C00018F6FF1F0080034000900340F8B5089CE7
:1036D0000D461E46079FA047A847B047052000F0AB
:1036E00073FFB847052000F06FFFA047F8BDF8B59D
:1036F000089C0D461646079FA047A847B0470520DF
:1037000000F062FFB847052000F05EFFA047F8BD5B
:103710000FB4FEB5002508982C460D9F0C9E8047DF
:103720000E988047052000F04FFFB8476006040E52
:10373000B047012801D1641CE4B2032000F044FF2B
:103740006D1CEDB2082DEBD30F9808AD00280E9834
:103750000197009602900FCD06D0FFF7B7FF2046E5
:10376000FEBC08BC04B01847FFF7C1FFF7E70FB471
:10377000F8B500250B9F0D9E0C9C8847A047F009CB
:1037800001D0089800E0099880477006060E0520D1
:1037900000F01AFFB847052000F016FFA0470220EE
:1037A00000F012FF6D1CEDB2082DE8D3F8BC08BC88
:1037B00004B01847F8B514461D46089F079E884771
:1037C000A047B047042000F0FFFEA847042000F007
:1037D000FBFEB847F8BDF8B514461D46089F079E86
:1037E0008847B847A847042000F0EEFEB047A0473E
:1037F000042000F0E9FEF8BD0FB4FEB50CACE0CC3F
:103800000898002480470A988047012000F0DCFED9
:10381000B047012000F0D8FE0EE0641CE4B2FA2CA0
:103820000AD96846E0C008AC0FCCFFF7D4FF0120EE
:10383000FEBC08BC04B01847A8470028EDD1B84723
:103840000020F5E710B500F07FF800F057F810BD44
:1038500070B5064628490001441820688047720068
:103860000521B31800250028207931D0052801D280
:10387000217170BD0A2802D2401C207170BD7100F8
:10388000A07A7618761C002804D10120A072F0B22C
:1038900000F07EF821890029F0D0E088884208D223
:1038A000401C80B2E08021898842E7D1DB1CD8B27D
:1038B0000BE0E07A0028E1D0207B401CC0B22073EE
:1038C000E17A8842DAD32573F0B200F061F870BD76
:1038D000052801D921710CE0002802D0401E20717A
:1038E00007E0A07A012804D19B1CA572D8B200F091
:1038F0004FF82573E58070BD64FCFF1F70B50E495D
:1039000000200B46887232240C3302250246C8720E
:103910000A260101C9180C810D718A72401C0A73B4
:10392000C0B2CE720328F4D304481860044818616A
:103930000448186270BD000058FCFF1F8527000076
:10394000712700005D27000008B51B200090684625
:1039500001F00EFB1C216846017001F009FB2421D7
:103960006846017001F004FB08BD000007498A7A2F
:10397000C87A824201D100207047885C521CD2B2C2
:103980008A720A2AF8D300228A72704758FCFF1FF5
:103990000549CA7A8854C87A401CC0B2C8720A283D
:1039A00001D30020C872704758FCFF1F10B50024D7
:1039B0002046FFF74DFF641CE4B2032CF8D310BD82
:1039C00008B51820694608700120887048700020EA
:1039D000C870684601F0CCFA19206946087068463C
:1039E00001F0C6FA002000F001F808BD10B500286B
:1039F00004D001280BD0022808D103E000211820B0
:103A000001F096FB0021192001F092FB10BD00216E
:103A10001820F9E710B5002804D0012809D00228A1
:103A200006D102E0182001F075FB192001F072FBAD
:103A300010BD1820FAE700003EB500246846C472A5
:103A40000121417225210172847202A801F090FACD
:103A50000021252001F06CFB0C49684601801421EF
:103A60000171C48001F0E8F90849684642310180DB
:103A700001F0E2F906496846018001F0DDF90349E9
:103A80006846E831018001F0D7F93EBD30A400005E
:103A9000F6A80000F8B5154F05461448423703262E
:103AA0000C46002905DBCC1CA1B201F047FA03212A
:103AB00004E0032101F042FA301B81B2384601F0E4
:103AC0003DFA0A4C0A48E834002D05DBED1CA9B28A
:103AD00001F034FA032104E0032101F02FFA701BF6
:103AE00081B2204601F02AFAF8BD000030A400009F
:103AF000F6A8000010B500F039F880216B2000F026
:103B0000ABF9C82000F050FD00216B2000F0A4F9B3
:103B1000032000F069F9002000F05FF9642000F054
:103B200084F900216A2000F097F90021232000F099
:103B300093F98021372000F08FF90021382000F020
:103B40008BF9752000F0C6F8682801D0012010BD5F
:103B500001216B2000F080F900216C2000F07CF93D
:103B6000642000F062F9002010BD000008B50020BC
:103B70006946C870012048702C220A708870684617
:103B800001F0F6F92D2069460870684601F0F0F959
:103B9000084807494161084981610849816008492D
:103BA000C16008490160084941600849016108BDD8
:103BB0003B28000094000020472800005328000004
:103BC0005F2800006B2800008528000031280000D5
:103BD000F0B53F4C154620460F46103007C885B05B
:103BE0001E466B4607C30FCC103CFFF7E3FDD02009
:103BF0001034039007CC6B4607C31C3C0FCC103C21
:103C0000FFF7B5FD103407CC6B4607C31C3C0FCC47
:103C1000103CFFF7F1FD00280AD02046103007C8FD
:103C20006B4607C30FCCFFF7D6FD012005B0F0BDF2
:103C300020461030039707C86B4607C30FCC103CD3
:103C4000FFF795FD103407CC6B4607C31C3C0FCC27
:103C5000103CFFF7D1FD103407CC6B4607C31C3C6A
:103C60000FCC103CFFF7A6FDD1201034039007CCF9
:103C70006B4607C31C3C0FCC103CFFF778FD10349B
:103C800007CC6B4607C31C3C0FCC103CFFF7B4FDC0
:103C900010E0012D1AD0012003902046103007C8F3
:103CA0006B4607C30FCC103CFFF732FD6D1E307022
:103CB000EDB2761C002DECD12046103007C86B46C3
:103CC00007C30FCCFFF787FD0020AFE70020E3E735
:103CD000940000207FB5334C05462046103007C8BD
:103CE0006B4607C30FCC103CFFF764FDD0201034A7
:103CF000039007CC6B4607C31C3C0FCC103CFFF76E
:103D000036FD103407CC6B4607C31C3C0FCC103C6F
:103D1000FFF772FD1034039507CC6B4607C31C3CBC
:103D20000FCC103CFFF723FD103407CC6B4607C3C4
:103D30001C3C0FCC103CFFF75FFD103407CC6B46EA
:103D400007C31C3C0FCC103CFFF734FDD1201034CE
:103D5000039007CC6B4607C31C3C0FCC103CFFF70D
:103D600006FD103407CC6B4607C31C3C0FCC103C3F
:103D7000FFF742FD00201034039007CC6B4607C3C9
:103D80001C3C0FCC103CFFF7C3FC0546103407CC9D
:103D90006B4607C31C3C0FCCFFF71DFD284604B043
:103DA00070BD0000940000207CB514460D46064608
:103DB0006B46062243216820FFF70AFF00280BD13B
:103DC0006946098849BA31806946498849BA2980D3
:103DD0006946898849BA21807CBDC00610B5010EAC
:103DE0001C2000F039F810BDC00610B5010E1B20D4
:103DF00000F032F810BD10B5BC2801D3012110E04D
:103E0000622801D302210CE02A2801D3032108E013
:103E1000142801D3042104E00A2801D3052100E07D
:103E200006211A2000F018F810BD10B504467D20B8
:103E3000C000844201D9044602E0042C00D20424CC
:103E40002146FCF7E5F9401EC1B2192000F004F844
:103E50006008FFF7D0FF10BD7FB52F4C0646204607
:103E60000D46103007C86B4607C30FCC103CFFF758
:103E7000A1FCD0201034039007CC6B4607C31C3C38
:103E80000FCC103CFFF773FC103407CC6B4607C314
:103E90001C3C0FCC103CFFF7AFFC002827D120467C
:103EA0001030039607C86B4607C30FCC103CFFF7D2
:103EB0005EFC103407CC6B4607C31C3C0FCC103C97
:103EC000FFF79AFC1034039507CC6B4607C31C3CE4
:103ED0000FCC103CFFF74BFC103407CC6B4607C3EC
:103EE0001C3C0FCC103CFFF787FC00280AD0204672
:103EF000103007C86B4607C30FCCFFF76CFC0120DE
:103F000004B070BD2046103007C86B4607C30FCC05
:103F1000FFF761FC0020F3E79400002010B500F0EB
:103F20007DF80121432001F003F9642000F03CFBFF
:103F30000021432001F0FCF8642000F035FB012152
:103F4000432001F0F5F80021AE2001F0F5FE00213C
:103F5000D52001F0F1FE0021502001F0EDFE0021FE
:103F6000A82001F0E9FE00213F2001F0E5FE00213C
:103F7000D32001F0E1FE0021084601F0DDFE002122
:103F8000402001F0D9FE00218D2001F0D5FE002156
:103F9000142001F0D1FE0021202001F0CDFE0021EF
:103FA000022001F0C9FE0021A12001F0C5FE002180
:103FB000C02001F0C1FE0021DA2001F0BDFE002189
:103FC000122001F0B9FE0021812001F0B5FE002190
:103FD000EF2001F0B1FE0021D92001F0ADFE00215B
:103FE000F12001F0A9FE0021DB2001F0A5FE002157
:103FF000302001F0A1FE0021A42001F09DFE00214F
:10400000A62001F099FE0021AF2001F095FE01F0FD
:1040100009FD0021084600F026F810BD08B5002073
:104020006946C87001224A7023220A708870684667
:1040300000F09EFF422069460870684600F098FF35
:10404000172069460870684600F092FF43206946D1
:104050000870684600F08CFF1620694608706846B4
:1040600000F086FF08BD10B50446B031C8B200218B
:1040700001F062FE20090021103001F05DFE2007F2
:10408000000F01210843002101F056FE10BD000081
:10409000F0B58FB00024282102A80C94FCF7B6F8E4
:1040A0000C250021062386A20846009501F016FE85
:1040B000012001900623252200210095642001F0B3
:1040C0001BFD01F0F5FC002080000021641C02AA09
:1040D000A4B211500A2CF9D37D4A0020D31DF93324
:1040E0000D93142343439B180021C033401C998334
:1040F00080B2D9830528F4D3A0E0754E0025C036E0
:1041000006E02B00FFF716FA05041425384B5B0078
:1041100001200021800300F07FFD0246707E4100F7
:104120006B480918C0318A84717E491C717646E05B
:1041300001200021C00200F06FFD6549E0314A7B9B
:104140005300634A9A18C0321087487B401C48735A
:1041500035E001200021C00300F05EFD0D99497893
:104160004A005B495118FF31013188810D980D9942
:104170004078401C487022E001200021800200F0BD
:104180004BFD0D99497D4A0051495118FF310131CC
:1041900008840D980D99407D401C48750FE0012062
:1041A0000021400200F038FD4A494A7A5300484A4B
:1041B0009A18FF3201329086487A401C48721420C7
:1041C0004349684340180746C0377A7E042A01D322
:1041D00000227A7603220021E43001F0F1FEB98B4F
:1041E000788D814200D2B883F98BB88C814200D996
:1041F000F8836D1CADB2052D83D30C980A21401CA9
:1042000080B20C90FCF704F8002904D10020FFF7DD
:1042100001FC01F04DFC1E21601CFBF7F9FF02467A
:104220000C2106200191009003230021542001F06D
:10423000C3FC052000F0B8F9641CA4B226488442EF
:1042400000D25AE7224B002002AA14214143C91888
:10425000C400C0318D8B1551A418401CC98B80B28D
:1042600061600528F1D30C2406231CA221460020FE
:10427000009401F033FD06231CA2182100200094B5
:1042800001F02CFD01F014FC7D25ED00284600F026
:104290008BF9FD2000F060FD0023282202A9FD20FB
:1042A00000F0A0FD062314A224210020009401F0B8
:1042B00015FD01F0FDFB284600F076F90FB0F0BDCA
:1042C00043616C6962726174696F6E2E2E2E0000FC
:1042D000D8F4FF1FF8F5FF1FB80B000043616C69AD
:1042E00062726174696F6E204F4B21005361766971
:1042F0006E672E2E2E00000053617665642121002A
:104300000EB50848009001216A4611710020907294
:104310001072507120235372D172D071684600F030
:10432000A3FC0EBD02CE0000F0B55C4D00265A4F36
:10433000EC1D87B0F9340021022000F06DFC3870CC
:104340003300FFF7F7F80504142433424F0001202F
:104350000021800300F060FC5049C0314A7E5200C9
:104360005219C0329084487E401C48763AE00120C1
:104370000021C00200F050FC4849E0314A7B520065
:104380005219C0321087487B401C48732AE0012034
:104390000021C00300F040FC617849004919FF3159
:1043A000013188816078401C60701BE00120002191
:1043B000800200F031FC617D49004919FF31013173
:1043C0000884607D401C60750CE00820FFF7C2F88F
:1043D00033494A7A52005219FF3201329086487AA4
:1043E000401C48721420704340190590C03003905F
:1043F000407E042802D303980021417605990422C7
:104400000846E430DA3100F0CDFF0398818BC08B91
:104410000190081AFCF734FC00900398418B019836
:10442000081AFCF72DFC0099FCF718FB0599761C7F
:104430008031F6B20866052E00D27CE7174880303E
:10444000066E476F3146384601F0CEFD05463146CF
:10445000384601F0C9FE2946FCF700FB114901F07E
:1044600033FEA066A768E66905463946304601F086
:10447000BBFD02903946304601F0B6FE0299FCF7CA
:10448000EDFA084901F020FE0146E066284601F0F9
:10449000ABFE206707B0F0BD8CF0FF1FD8F4FF1F04
:1044A000F8F5FF1F0000C84208B500206946C87033
:1044B00048702820087001208870684600F058FD78
:1044C0000121282000F0DAFD0121282000F030FE33
:1044D000292069460870684600F04AFD012129201C
:1044E00000F0CCFD0121292000F022FE3420694695
:1044F0000870684600F03CFD0121342000F0BEFD4C
:104500000121342000F014FE372069460870684607
:1045100000F02EFD0121372000F0B0FD01213720F1
:1045200000F006FE08BD0000F0B585B01646022872
:1045300003D90020C04305B0F0BD0C4CC500625D3E
:10454000012A0FD06A46107001275770032010729D
:1045500068460396019100F001FE675528194660F0
:104560000020E8E70120C043E5E7000048FCFF1F0A
:1045700070B5062802D90020C04370BD1424094D2F
:1045800060434419267B012E09D0616000266670C5
:104590002B5401202073A1603046226170BD0120A0
:1045A000C04370BDD0FBFF1F002809D0012800D1F7
:1045B0000220044948600020087008780128FCD1D6
:1045C0007047000080F0FF1FF8B50D4D07466E697B
:1045D00000240D480B490068FBF71AFE7843024699
:1045E000A869A9698142FCD0814201D2401A01E048
:1045F000731A1818041908469442F2D3F8BD000043
:1046000000E000E040420F004CF0FF1F70B50228B0
:1046100002D90020C04370BD074DC400295D0029A8
:1046200006D000F0F7FD002028556119486070BDE4
:104630000120C04370BD000048FCFF1F70B5002082
:10464000134A0446142141430B4689184C608C6080
:104650004C70D454401C0C61C0B20C730628F1D3CA
:104660000C487D21C9000068FBF7D2FD0A49401EB5
:1046700088420BD80949486109480722C3691B02CF
:104680001B0A4D042B43C3618C610A6170BD00009D
:10469000D0FBFF1F4CF0FF1FFFFFFF0000E000E01A
:1046A00004ED00E04168002910D04168491E4160D6
:1046B0000CD1012141700178012903D18168416049
:1046C000002141700069002800D0004770470000B9
:1046D0001FB50121022000F0D1FC0121032000F0D0
:1046E000CDFC00F051F8E120400200900120039041
:1046F0000C206946488100200881C880094C8880C8
:10470000204600F0BFFD08480168C8782022104309
:10471000C8700649D00108600121204600F096FDCE
:104720001FBD000000A00640A8F9FF1F00E100E047
:10473000012801D00020704700487047A8F9FF1FEA
:1047400001680A79120701D50A79CA790A790A79C2
:10475000120612D5828A002A10D0438A4268D25C9F
:10476000CA71418A491C89B241828289914201D32E
:1047700000214182818A491E81827047C8784006A3
:10478000400EC870704700000B480A4901600B4991
:104790008160014628314160FF210131C181818161
:1047A000002141830183C182818241824162C161D2
:1047B0000162704700A00640A8F9FF1FD0FAFF1F52
:1047C000F8B50023FFF7B4FF002820D0002517E03C
:1047D0008489878A6E4637803688B442F9D9CC5CA2
:1047E000078A4668F455048A641CA4B20482868948
:1047F000B44200D30582848A641C84825B1C9BB211
:104800009342E5D30068C17880221143C170F8BD9E
:1048100010B5074C2078012809D00120207000F045
:1048200009F800F06DF900F05DF80020207010BD6F
:104830007FF0FF1F10B5104C607800281AD01328A5
:1048400014D008DC02280BD010280CD011280DD071
:1048500012280DD10AE0142808D0152808D105E047
:1048600000F0DEF804E000F083F8102000F024F9F6
:104870000020607010BD00008DF0FF1F70B588B083
:104880000E460546144620216846FBF7BFFC1B2C4C
:1048900002D9002008B070BDAA206946087048708F
:1048A0008E70CC7000216A46131908E0685C5618B7
:1048B00030711879565C8019491C1871C9B2A1422F
:1048C000F4D32046211D05E01D79165CAD19401C6E
:1048D0001D71C0B28842F7D3621D69460120FFF7FF
:1048E0006FFFD6E710B588B020216846FBF78EFC35
:1048F0001E4C6946E08F02120A7048702046403014
:10490000008802128A70C870A06CFCF757F9010485
:104910000A0E69460A714871E06CFCF74FF9010410
:104920000A0E69468A71FF3CC871013C206CFCF795
:1049300045F90004000E69460872206CFCF73EF948
:1049400069464872A06CFCF739F90004000E69460C
:104950008872A06CFCF732F96946C8720C22F1210A
:104960006846FFF78BFF08B010BD0000D8F5FF1FA9
:1049700070B52849487909790002084340BA00B265
:10498000FCF77EF9244D2946FCF768F8234C2149B1
:10499000E060C87989790002084340BA00B2FCF7A8
:1049A0006FF92946FCF75AF81A492061487A097AC2
:1049B0000002084340BA00B2FCF762F91549606191
:1049C000C87A897A0002084340BA00B2FCF758F965
:1049D0002946FCF743F80F492060487B097B000219
:1049E000084340BA00B2FCF74BF92946FCF736F809
:1049F00008496060C87B897B0002084340BA00B266
:104A0000FCF73EF92946FCF729F8A06001F0C0F94F
:104A100070BD0000B000002000002041D8F4FF1F4E
:104A200030B585B014216846FBF7F0FB204C214DD2
:104A3000E068294601F048FBFCF7C0F801126A461D
:104A4000117050702946206901F03EFBFCF7B6F862
:104A500001126A469170D0706069FCF7AFF80112DC
:104A60006A46117150712946206801F02DFBFCF750
:104A7000A5F801126A469171D0712946606801F06B
:104A800023FBFCF79BF801126A461172507229460B
:104A9000A06801F019FBFCF791F801126A469172C7
:104AA000D072122210216846FFF7E8FE05B030BD33
:104AB000D8F4FF1F000020411CB500210091019196
:104AC000AA2269460A704A70EF228A700722CA70C9
:104AD00008710A48C178001D085C694648710020C9
:104AE0000B5C8A79401CD218C0B28A710728F7D3B0
:104AF00007220120FFF764FE1CBD0000B00000206B
:104B000070B588B020216846FBF780FB21486A46D3
:104B1000418B04460B0A13705170403461880B0AB4
:104B20009370D170E18A0B0A13715171C08D010A23
:104B30009171D071A56E2846FCF740F80104090E6A
:104B40006A4611725072E66E3046FCF737F801047F
:104B5000090E6A469172D0723146284601F044FB34
:104B6000FCF72CF80104090E6A4611735073206F8C
:104B7000FCF724F80104090E6A469173D073608D26
:104B8000010A117450741222F2216846FFF776FE72
:104B900008B070BD98F5FF1F10B5FDF781FEFEF758
:104BA00007F8FDF7A3FF10BD10B5FEF7DFFE194CA7
:104BB0000028607007D02078002804D1022001F07E
:104BC000F5F80020607020780300FEF7B3FC0A09B6
:104BD000200C060F1215181B1E20FEF72BF816E0EE
:104BE00000F0C2FE13E0FDF78BFE10E0FEF722FBA3
:104BF0000DE0FEF7A1FA0AE0FCF738FE07E0FCF74B
:104C0000B9FD04E0FCF752FC01E0FEF7E7FBFDF71D
:104C1000BBFC10BD20F4FF1F00230246DA40D20780
:104C200003D15B1C9BB2102BF7D3C20300D510231A
:104C3000800300D516230B4A906808439060906863
:104C400090609068906050685060D806C00E106008
:104C500010680006FCD51069116880B28023994362
:104C60001160704700B00340F8B5002504460121EB
:104C70002E462F46480700F0DDFA3349886922881E
:104C800092B210438861A279607A1043A27A0243FB
:104C90008A604868E27A10434860207A012800D18F
:104CA000202562794020012A03D10543274B420287
:104CB0001A60E279002A02D0CA680243CA602068FA
:104CC000CA6823795B1EDBB21A43CA600146F14011
:104CD000C907C90F12D0F106C90E1B4A294311603A
:104CE0001B4A01211278B14094469300194AD150D1
:104CF0006246521C16497F1C0A70FFB22179B942E4
:104D000003D9761CF6B2102EE0D3C1030CD51021C6
:104D10000D4A294311600E4A0124117824048E00A3
:104D20000C4B491C9C51117080030CD51620054377
:104D3000054805600649012308785B048400054A9C
:104D4000401C13510870F8BD00B0034000E100E0C2
:104D500060F0FF1F90F6FF1F410210B507480022C8
:104D600042700A2343720B0C037201234370090A39
:104D70004172027200F020F8002010BD00000240D5
:104D800010B50121080300F055FA084C60790006BF
:104D9000FCD5084806490068FBF73AFA401E800631
:104DA000800E4030E0703020607110BD0000024085
:104DB00040420F0050F0FF1F10B572B63020074C74
:104DC00060710749481F0160601D884762B66079BD
:104DD0003321084000D0012010BD00000000024037
:104DE0006DF0FF1FF8B50026400217460D46C418A7
:104DF0001CE010480021417006214172210C017213
:104E000001214170210A4172047202214170297806
:104E100001726978417203214170A9780172E978C1
:104E20004172241D2D1DFFF7C7FF361DBE42E0D382
:104E30000020F8BD00000240F1B582B002980024C5
:104E400000888206930F8205120F00920107020567
:104E50008504090F920FAD0FC00B84463348476994
:104E60006E1D0120B040074330484761604600286E
:104E700015D008D02D4E30698B4098433061306991
:104E80008A40104330612A480668029801797D20E3
:104E9000C00041430F46300CFBF7BAF90BE0234E3C
:104EA000F0688B409843F060F0688A401043F060EF
:104EB000E9E7641CE4B20146E140FAD1072C33D89B
:104EC00030463946E040FBF7A3F986B2194968003D
:104ED0000E520298711CC08848437D21C900FBF71F
:104EE000A1F980B286461448A90042589660009AFB
:104EF0004358D20094460C329E580427BE439E501D
:104F000046582823B3506207520F435808321A609C
:104F10000022022D01D18368DA6445586346744645
:104F20001033EC5040584260FEBD00000080044049
:104F300050F0FF1F62F0FF1FC462000070B58205D1
:104F4000140F8004850F084A6800105A401C48431B
:104F50007D21C900FBF766F9044AA9005258E10017
:104F600080B21031505070BD62F0FF1FC46200006B
:104F7000F0B50178CD064A09ED0E93003C4AD458AD
:104F8000A6690121A9400E43A661D45865698D43E5
:104F900065614478002C02D0012C05D00EE0D55874
:104FA000AC698C43AC6109E0D658B5690C462C431A
:104FB000B461D5586E690C4634436C6186782D4DCA
:104FC0002D4C012E15D12B4FD658403FBE4203D158
:104FD000A6680E43A6600CE0AE4203D1E6680E431D
:104FE000E66006E0234F4037BE4202D126690E43F9
:104FF0002661C17801293AD1D158A9420BD1027852
:10500000382A04D0392A06D16269802301E0626916
:1050100040231A436261A9420BD10278202A04D0AE
:10502000212A06D16269202301E0626910231A4314
:105030006261104A403A91420BD10378182B04D098
:10504000192B06D16369082501E0636904252B4308
:10505000636191420BD100780C2804D00D2806D151
:105060006069022101E06069012108436061F0BDCF
:10507000B862000040F00F4000900440F0B51C4DB5
:105080001B4E43091B4F9B00184A194C4035403EAC
:10509000FB58002915D0C106C90E01208840B34233
:1050A00003D1916801439160F0BDA34203D1D1685F
:1050B0000143D160F0BDAB42FCD1116901431161E4
:1050C000F0BD01218140B34203D1906888439060D4
:1050D000F0BDA34203D1D0688843D060F0BDAB429D
:1050E000FCD1106988431061F0BD000000900440BD
:1050F00040F00F40B8620000C1064209C90E90009E
:10510000034A10580069C840C007C00F704700002C
:10511000B86200004109C006C00E8A0003498958E0
:10512000CA68012383401A43CA607047B86200000E
:10513000420910B59300C006074C0122C00E824000
:10514000E058002903D041681143416010BD8168D7
:105150001143816010BD0000B862000070B50446C4
:105160000121022000F066F8254801680225A943C4
:10517000016024487D21C9000068FBF749F8616897
:10518000414320780201204812181160217809015A
:105190000A18D36801210B43D36022781201121838
:1051A00093688B4393602278120112189368AB4383
:1051B000936022781201121893680B439360617810
:1051C000012916D1217809010818816829438160D5
:1051D00021780E4A8900E068505021780C48002957
:1051E00008D0012905D1C9050160217A1720FDF7F2
:1051F0005BFC70BD012189050160217A1620F6E76C
:105200000070034050F0FF1F0071034058F0FF1F73
:1052100000E100E0012809D8010105480818C1682B
:1052200001221143C1608168914381607047000091
:1052300000710340044A0029516901D0014300E094
:105240008143516170470000008004400A4A10B554
:10525000904202D10120000504E0084A904204D1A6
:1052600001204005FFF7E6FF10BD054A9042FBD143
:1052700001208005F6E7000000A0064000B00640CF
:1052800000C00640F8B5044623480D46844202D1CA
:10529000012108050AE02148844202D10121480584
:1052A00004E01F48844203D101218805FFF7C2FFB3
:1052B000297B204600F03AF8E078F3210840E070BE
:1052C000A078297A0843A070A07829790843A070B3
:1052D000A078A9790843A070124800680090296856
:1052E000060948083018FAF793FF81B20E48814248
:1052F00000D9014620784009400120702078CA0476
:10530000D20E104320706170E078AA7A1043E070EA
:105310003046FAF77DFFF8BD00A0064000B0064019
:1053200000C0064050F0FF1FFF1F000001290ED8EB
:105330000E4B0F4A98420BD1D068CB011843D06076
:10534000012904D10B4881680C2211438160704708
:10535000094B984202D11069090304E0074B9842B7
:10536000F5D11069490308431061704700A0064059
:10537000008004400090044000B0064000C0064099
:1053800010B5074C0548606021465831A068886117
:10539000002000F00BFD0120207010BD2003002034
:1053A0006CF3FF1F70B50C4601460023184604E05D
:1053B0005D004D5B28185B1C9BB29342F8D31146ED
:1053C000FAF726FF208070BDF7B500228CB00446A6
:1053D00005920B92D14E8C460092019210461546D2
:1053E0000292CE4F8300543F00223946FA501C31BE
:1053F000CA501C31401CCA50C0B2F2500728F0D32A
:10540000A1680027604600F05FFE0590E1680E98F5
:1054100000F05AFE0B9038460C214843C049421810
:10542000936809585268059800F0A0F9BB49BA0082
:10543000543988504000000E05D0B848A9001C38E7
:105440006D1C4750EDB27F1CFFB2072FE3D306E07F
:10545000B2490020AA001C396D1C8850EDB2072DFE
:10546000F6D300273D4628460C214843AC49421854
:105470009368095852680B9800F078F90146A748DC
:10548000AA00383881504900090E03D0B9007F1CAA
:105490007550FFB26D1CEDB2072DE4D304E000217E
:1054A000BA007F1CB150FFB2072FF8D300250026A9
:1054B000A8000590994805991C3847581C2099491F
:1054C000784341189548B2008058800004900858ED
:1054D000FBF7D6FB02909149049838390958B80077
:1054E0008E4F543F385800F0EFFD0490029900F0C1
:1054F000EBFD019900F078FD01900099049800F00F
:1055000073FD761CF6B20090072ED3D36D1CEDB25E
:10551000072DCCD34000844D000E03D00099019894
:10552000FBF79CFA0290E069029900F0CDFD029031
:10553000216900F021FE206906D36840029900F03D
:105540001BFE02D2206968400290A06A029900F016
:105550004BFDA0627449606B4840A16A00F00CFEEC
:1055600003D27149606B4840A062616BA06A00F091
:1055700003FE01D2606BA06200250026A800059002
:10558000664805991C38475866491C207843C43141
:1055900041186248B2008058800002900858FBF71A
:1055A0006FFB03905D49029838390958B8005B4F8A
:1055B000543F385800F088FD0490039900F084FDB2
:1055C000019900F011FD01900099049800F00CFD84
:1055D000761CF6B20090072ED2D36D1CEDB2072DCB
:1055E000CBD34000000E03D000990198FBF736FAA8
:1055F0000290206A029900F067FD0290616900F054
:10560000BBFD606907D3484D0299684000F0B4FDC6
:1056100002D2606968400290E06A029900F0E4FCFE
:10562000E0624149A06B4840E16A00F0A5FD03D269
:105630003D49A06B4840E062A16BE06A00F09CFD30
:1056400001D2A06BE0620020009005460190002688
:10565000A8000590314805991C38475830491C204E
:105660007843C43941182D48B20080588000049016
:105670000858FBF705FB0290284904983839095867
:105680002648BA005438805800F01EFD074602999B
:1056900000F01AFD019900F0A7FC0190384600992E
:1056A00000F0A2FC761CF6B20090072ED2D36D1C3F
:1056B000EDB2072DCBD34000000E03D00099019826
:1056C000FBF7CCF90290606A029900F0FDFC0290B1
:1056D000A16900F051FDA06907D3134D02996840FC
:1056E00000F04AFD02D2A06968400290206B029946
:1056F00000F07AFC20630C4DE06B216B684000F0F9
:105700003BFD02D2E06B68402063E16B206B00F050
:1057100033FD01D2E06B20630FB0F0BD0403002025
:10572000DCF2FF1F90F0FF1F0000008070B50E4DEF
:10573000044601682846FBF791F9A0602846616895
:10574000FBF78CF9E06029462069FBF787F9E061F7
:1057500029466069FBF782F920622946A069FBF7B8
:105760007DF9606270BD000000004040FFB581B06F
:105770001E4617460D460024019800F0FDFC0ED889
:105780003946019800F076FC09D82946384600F0E1
:105790002BFD04462946019800F026FD12E039460B
:1057A000019800F0E9FC11D23146019800F062FC4A
:1057B0000CD83946304600F017FD044631460198B2
:1057C00000F006FD2146FBF749F90446204605B0E6
:1057D000F0BD10B5FAF7DAFC0621484380B210BDDF
:1057E0000021427806E01C234B431B189B78012BB9
:1057F00002D0491C8A42F6DCC8B2704710B5FAF7ED
:10580000C5FC0621484380B210BD10B5FAF7BEFCB6
:105810000621484380B210BD10B5FBF76DFB09208F
:1058200000F0C4FA01490120087010BD6CF3FF1F9D
:105830000A4801698A69002A08D04260C96802469C
:105840005832891C91610121017070470869002854
:10585000FBD049690029F8D1004700006CF3FF1F15
:1058600010B5032000F0A2FA01490120087010BD14
:105870006CF3FF1F10B5FBF73FFB072000F096FA13
:1058800001490120087010BD6CF3FF1F10B5FBF734
:1058900033FB062000F08AFA01490120087010BD90
:1058A0006CF3FF1F10B5FBF727FB052000F07EFA15
:1058B00001490120087010BD6CF3FF1F10B5FBF704
:1058C0001BFB042000F072FA01490120087010BD92
:1058D0006CF3FF1F10B5082000F068FA01490120A1
:1058E000087010BD6CF3FF1FFDF744FEFBF75CFC76
:1058F000FFF752F91C20FFF7FFFB002801D1FEF74C
:10590000C7FB0123134A33210020FEF731FE012398
:10591000114A15211846FEF72BFE01230F4AC82114
:105920000220FEF725FE01210D4A0846FEF7FCFD88
:105930000C4A05210020FEF7F7FD01212520FFF785
:10594000F7FB002000F032FAFFF72EF96420FEF793
:105950002BFEF9E711480000AD390000A11400004A
:10596000650E0000253100007CB516200021009056
:1059700018231F4A084600F05AF9182000900C23FB
:105980001CA21E211A2000F0A9F9FDF70FFE1B49E9
:1059900000F02AFC1A49FBF761F81A4900F094FB61
:1059A000FBF732F9C0B2184C00256070632801D3B0
:1059B00063206070C0B20C2148436321FAF728FCD1
:1059C0001421484311490A23421810200090042151
:1059D000642000F02CF90C21062001910090032393
:1059E000627807216E2000F0E7F825707CBD00008A
:1059F00092880000566563746F7200009A99D940CE
:105A00009899993F0000C84222F4FF1FDA880000ED
:105A10000246012000E050430B46491EC9B2002B4C
:105A2000F9D1704710B50021084B0A460020C40088
:105A3000E4186254401CC0B28028F8D3491CC9B293
:105A40000829F3D300F034F810BD000094FCFF1FC8
:105A500010B57F2814D83F2912D8CB080724E31AA1
:105A60002140641A0121A140064CC0000019DBB29C
:105A7000002AC25CC9B201D00A4300E08A43C25482
:105A800010BD000094FCFF1F3F22511AC9B2CA0882
:105A90004907490F01238B40D9B2044BC000C018FD
:105AA000805C084000D001207047000094FCFF1F7C
:105AB00070B5104E00242046B030C0B2002100F076
:105AC0003BF90021084600F037F90021102000F0D2
:105AD00033F90025E8008019005D012100F02CF960
