:020000040000FA
:10000000B00200204B010000570100005901000020
:1000100000000000000000000000000000000000E0
:100020000000000000000000000000005B01000074
:1000300000000000000000005D010000F13200003F
:100040006101000061010000610100006101000028
:100050006101000061010000610100006101000018
:100060006101000061010000610100006101000008
:1000700049340000F1340000F33400003D0D00006D
:1000800061010000610100006101000061010000E8
:100090006101000061010000492A0000712A00008E
:1000A00081260000CD2600006101000061010000F2
:1000B00061010000610100006101000061010000B8
:1000C00000F002F800F030F80CA030C8083824180E
:1000D0002D18A246671EAB4654465D46AC4201D180
:1000E00000F022F87E460F3E0FCCB6460126334282
:1000F00000D0FB1AA246AB4633431847E085000008
:10010000008600000023002400250026103A01D3B9
:1001100078C1FBD8520700D330C100D50B607047BF
:100120001FB51FBD10B510BD00F0B5FD1146FFF79E
:10013000F7FF05F077F900F0CDFD03B4FFF7F2FF0C
:1001400003BC03F0E4F90000704709488047094800
:10015000804709480047FEE7FEE7FEE7FEE7FEE7C7
:10016000FEE7000005480649044A064B70470000B8
:100170004533000049010000C1000000B00100202B
:10018000B0020020B00100207047000030B5441CD0
:1001900003E00178401C00290DD08107F9D10B4BF9
:1001A000DD0104C8D11A91432940FAD0001B0A0688
:1001B00003D0C01E30BD001B30BD0A0401D0801E1C
:1001C00030BD0902FCD0401E30BD0000010101011C
:1001D00001E004C0091F0429FBD28B0701D502806E
:1001E000801CC90700D00270704700290BD0C307DC
:1001F00002D00270401C491E022904D3830702D595
:100200000280801C891EE3E70022EEE70022DFE780
:10021000002203098B422CD3030A8B4211D3002303
:100220009C464EE003460B433CD4002243088B42DD
:1002300031D303098B421CD3030A8B4201D394466A
:100240003FE0C3098B4201D3CB01C01A524183095D
:100250008B4201D38B01C01A524143098B4201D317
:100260004B01C01A524103098B4201D30B01C01A42
:100270005241C3088B4201D3CB00C01A52418308BC
:100280008B4201D38B00C01A524143088B4201D3E9
:100290004B00C01A5241411A00D201465241104649
:1002A00070475DE0CA0F00D04942031000D34042BE
:1002B000534000229C4603098B422DD3030A8B42F4
:1002C00012D3FC22890112BA030A8B420CD3890192
:1002D00092118B4208D3890192118B4204D3890178
:1002E0003AD0921100E08909C3098B4201D3CB01B6
:1002F000C01A524183098B4201D38B01C01A52416B
:1003000043098B4201D34B01C01A524103098B426E
:1003100001D30B01C01A5241C3088B4201D3CB0059
:10032000C01A524183088B4201D38B00C01A52413C
:10033000D9D243088B4201D34B00C01A5241411A13
:1003400000D20146634652415B10104601D3404241
:10035000002B00D54942704763465B1000D34042F2
:1003600001B50020C046C04602BD704770477047C7
:100370000246C80FC00781434B0030B54B405B00BD
:100380009B0D20D01923DB06C91801231B059942B8
:1003900020DB0324A40704251346AB400BD3002B1A
:1003A00004D1EB0613409B00E34204D4012464070C
:1003B000002312195941FF231B0599420BD2C90092
:1003C0000143500F09E0CB0204D501430803024367
:1003D00005D0054830BDFF21C905084330BD08469A
:1003E00007210905884330BD0000C07F7047000029
:1003F000004870474C01002010B505F087F810BD8B
:10040000FFFFFFFFFFFFFFFFFFFFFFFFFFFFFEFEFE
:10041000F0B50C46871A9C410D46861A9D4103D2C1
:10042000C01BA141D21963410D0D1F0DC94EEC1B1C
:10043000AE435CD07F057F0D0026002F51D02D05E7
:10044000AC46A943DD020123ED0A1B051D43202311
:100450001B1B24D41746E740381871412F46E7404C
:10046000CC199D402818314661410C0D27D16144BB
:100470009A4013D50023401C594152000ED1400828
:10048000400001224B005205D34207D3052040070C
:10049000C14201D5B04900E0B0493046F0BD6B0023
:1004A000002A00D001229A181F23203C1B1B01D5D3
:1004B000002302E0E540281871410C0DD7D001243B
:1004C00024050919C407CD0740084908E40F28434B
:1004D0006144002CD5D00024401C61419A40D0D109
:1004E000CDE76A05520DD9D1C90FC907D5E79C4D93
:1004F0004E00002801D0012400E0002434195F00E0
:10050000002A01D0012600E00026BE19954FAC421A
:100510000CD8AE420AD8B44206D001256D05EC4293
:10052000BCD010461946F0BD9942FCD00020394697
:10053000F0BDF0B51FB40C460F46811A9F41254609
:10054000861A9D4106D20125ED076F40401ABC4135
:1005500052187B41210D1E0D8D1BAC467D4D8D43E8
:100560007ED075056D0D7CD00D05AE46AC431B03EA
:100570001B0B794D52429D41202366469B1B14D391
:100580001746F740381800260090744160462F4601
:100590000741E41900989D402818664116D4714619
:1005A00071189A4025D5012320E093182A466A4104
:1005B0005200002B00D0521C1E23203E9B1B002B00
:1005C00061DD3541EE1728186641E8D500187641FF
:1005D0005B1C9A4000D3401C4B05F3181524E340E4
:1005E00010D3002B52D071467118D30FC01802D30C
:1005F000491C05B0F0BD0123DB079A42F9D1400840
:100600004000F6E701225205B21801D1002853D06C
:100610000123CC0ADB029943891E002A08D1020C6F
:1006200003D0020C0004103902E0024600202039F9
:100630000023550B05D112020823550B01D152019D
:100640000D23550C01D112011B1DD50C01D19200B7
:100650009B1C150D01D152005B1C2025EE1A01E0F8
:100660002CE022E00546F54015439840CA1AE10700
:1006700069181305C918002ABBDA032040070818B7
:10068000C10FC9070FE071466118B2E7F1074008D2
:100690000843711071444A000CD001235B059A4253
:1006A000A7D2C90FC9070020A3E74905490D26D1E4
:1006B000002001E00028F4D100219AE7284D6600CF
:1006C000002801D0012100E0002171185F00002AFC
:1006D00001D0012600E00026BE19224FA94210D801
:1006E000AE420ED8B14208D001256D05E94206D0D0
:1006F0001946A802414010467BE79C4201D02146A2
:1007000077E70020394674E710B50C465C4005D504
:100710000124E4076340FFF70CFF10BDFFF778FEEC
:1007200010BD30B40C465C4004D50124E40763409E
:1007300030BC6DE630BCFCE670B50124E4076140D6
:100740000D465D4002D4FFF763FE70BD6340FFF7C6
:10075000F0FE70BDFF0700000000F0FF0000F07F1A
:100760000000E0FF0000F87F1F22030C02D10F22DF
:10077000000402D0030E03D004E0002001467047BD
:100780000002083A030F01D10001121F830F01D1AB
:100790008000921E002801DB4000521E12055118F5
:1007A0004205C012411810467047C10FC90700D05A
:1007B0004042012292071143D6E701218907D3E77E
:1007C000F0B58B4C0F09254689B0BD437BD01D0980
:1007D0002646AE43FAD00E465E402740F60F3E4313
:1007E000254071D024012142FBD0FF24AD19A4047F
:1007F0002D1B039501252D05DB02DB0AC9022B43C6
:10080000C90A29431E010901040F130F05012143E1
:100810001701880B820391432D098C46A90B1E43B7
:100820008A039543B30B9A0396433F09BA0B94038B
:10083000A74302962E467E430497B6464E19D71913
:100840000C460196544305977E43371B7646BF1BE3
:100850003601B646BE0B361900967646BC043719EB
:10086000009C01D3641C00946400002F01D0012679
:100870003443029E049F754366467E430496760089
:1008800034196E0034190094029C019E1C196643B1
:10089000751BAE46069465464519059C05956C4347
:1008A000594375460891691A0191049E01465143C6
:1008B000A41B0491611A009C0791E10605D061090F
:1008C0000122114302E072E06EE06109089D0027F9
:1008D0002C0A2D066918049D7C412A0A2D066918E8
:1008E000019D6241AC0DAD026D185441079A910D06
:1008F000920255196141029A644658435443069B3B
:10090000059A5A43121A131B9A0E9B015B187A41DF
:10091000010B0005C3185141220A200644195A410F
:100920009A4200D2491C01204002814203D3152380
:100930000226F64302E014230326F6432020C51ABC
:10094000A9401746AF40DA400A4320460399D840F1
:100950000914731819055118039A3843D2075140E6
:10096000AC4009D00122944006D30022401C5141E2
:10097000002C01D1400840001E4A934212D30122AC
:1009800003989206904207DB0520400709181A4891
:100990000143C012414004E0032040070818C10F82
:1009A000C907002009B0F0BD0020F107FAE70518DB
:1009B0000C464C4111486D42A04115D394181A467B
:1009C0005A410E48644290410ED301204A0040052E
:1009D000824209D35A00824206D35940C90F084ABD
:1009E000C90700201143DDE700200649DAE70000CF
:1009F0000000FF07FE070000FFFFFF7F0000E0FF91
:100A00000000F07F0000F87F0121C9050123411893
:100A100042001B06D3185B0E0AD0C1100722D20673
:100A2000891840075242D14201D5520089187047B7
:100A3000090208D50146002A03D0C10FC9070020CA
:100A4000704710467047420202D0002002497047AA
:100A5000072109050143F4E70000F87FF0B5FF2501
:100A60002D04C609C209FF2704462E400137CB09D1
:100A70003E4348402A402B400746002A6BD0002BBB
:100A800069D0AA4267D0AB4265D0002800DA32466E
:100A90000125ED0529432C4309022002090AD21A37
:100AA0004B0C7F24E31A434C000A7C44E35C7D2416
:100AB0002404121914145B00A218884201D3521C9A
:100AC00000E0400049420C465C4324115C43DB01DA
:100AD0006415E318040A5C43C502200D0C46444328
:100AE0006419250A5D432303EC0C0D46654300039E
:100AF0000019EB184C42A34201D35B18401CD405EB
:100B00002018002B07D05B00C91804D3401C002913
:100B100001D1400840003F2189048A4209D3002ABC
:100B200008DC1106090F04D0032149074018C00F43
:100B3000C007F0BD01224100120689187F2252062B
:100B40009142F6D205214907C84201D59010F0BD67
:100B5000FF20C005F0BD002F00DA32461648AA4239
:100B600007D2AB4205D21902090E17D0F80FC00701
:100B7000F0BDFF2563002D06AB42F9D84900A9421C
:100B8000F6D8AB4201D1A942F2D0A94201D100214D
:100B900001E061004908D0050843F0BD1102090ECB
:100BA000FBD0FF200243D005F0BD0A4601461046A7
:100BB00054E70000AC7900000000C07F10B501468A
:100BC0009E240002CA15A307002A02D01843002A57
:100BD00004DBA21A002A0CDDD04010BD1206120E52
:100BE00001D140004008A21A03D4D040404200285E
:100BF000F3DDFF2248001206904201D9002010BD0B
:100C0000C817C043584010BD0102C21504D00123CB
:100C1000DB071943002A0ADB9E239A1A02D40846EE
:100C2000D0407047FF2241001206914201D90020B6
:100C30007047C017C04370471F22030C02D10F2218
:100C400000041CD0030E01D10002083A030F01D1A9
:100C50000001121F830F01D18000921E002801DBCA
:100C60004000521ED205511802125118192290400C
:100C700004D3491C002801D149084900084670479F
:100C8000C10FC90700D04042012292071143D3E7A8
:100C900001218907D0E77546FFF7AAFBAE4605009C
:100CA00069465346C008C000854618B020B5FFF716
:100CB00059FA60BC00274908B6460026C0C5C0C521
:100CC000C0C5C0C5C0C5C0C5C0C5C0C5403D490040
:100CD0008D46704710B50446C046C0462046FFF713
:100CE0002CFA10BD70B58C180578401C6B075B0F93
:100CF00001D10378401C2A1106D10278401C03E080
:100D00000678401C0E70491C5B1EF9D12B0705D4D8
:100D10000023521E0DD40B70491CFAE70378401CC7
:100D2000CB1A921C03E01D780D70491C5B1C521EEF
:100D3000F9D5A142D8D3002070BD000030B5094AD2
:100D40000020064C0649137804E022694500401C47
:100D50004A53C0B29842F8D330BD000000B00340FF
:100D6000F0F2FF1F50F0FF1FF8B5434EF08C401C0F
:100D7000F084B088401CB08000F0D4FBF08A401CA6
:100D8000F08200F017F93D4FB08B3C4600258034CF
:100D900002280BD90021084602F038FE256465645C
:100DA0007582758335837D61FD60F8BD788BF98D23
:100DB000334B471A334A0F2F0FDD3078401CC0B237
:100DC00030700F2804D23048E36320642F4802E0DB
:100DD000E2632F482264606411E0081A0F2810DDD6
:100DE0007078401CC0B270700F2804D2E3632648AC
:100DF0006364206403E0E263254862642064F58351
:100E00000CE0F08B401C80B2F083357075700328C5
:100E100004D92048E063204820646064F08C03001B
:100E200002F068FB062404071215202402F0D0FB10
:100E3000F8BD7088401C80B270800228F8D375809D
:100E4000B58000F025FBF8BD03F016FAF8BDB08AB6
:100E5000401C00B2B0820128F8DBB582F58200F0B8
:100E600031F8F8BD00F020F9F584F8BDF584B582BD
:100E70007580B580F582F8BD00F0FF1F24F2FF1FDA
:100E8000000020410000C8410000A04000008C424A
:100E900000000C42000034420000204210B5012145
:100EA000024A084603F0EAFA10BD0000690D00008E
:100EB00010B50021252004F0DDF8012003F050FBDF
:100EC00010BD0000FEB5384C20200027205EFFF743
:100ED000D7FE364EF569294604F0A0FEFFF76EFEF8
:100EE00000B260840190304680384269C168029245
:100EF000428B092A05D2C08D092802D2A08B401C42
:100F0000A083A784284604F031FEFFF757FE00B205
:100F100000900198FFF7B4FE029904F027FEFFF756
:100F20004DFE07B20A20305E2A30FFF7A9FE2049A5
:100F300004F01CFEFFF742FE218B00B26183FFF735
:100F40009FFE01900098FFF79BFE00903846FFF748
:100F500097FE0646A16B7F200F46C00504F06AFE8F
:100F6000314604F003FE06460020394604F0FEFD3B
:100F7000314604F0B5FD009904F0B2FD019904F08A
:100F8000AFFDFFF71BFE20838120C005854205DAF7
:100F90007F20C005C54201D2002020832846FFF7EC
:100FA0000DFE2084FEBD000000F0FF1FA4F2FF1F15
:100FB000EC51B83D70B5074D1621288B6C8B695EDE
:100FC000001B00B2491C48430521FFF72BF900190B
:100FD000688270BD00F0FF1FF8B5FFF751FE27498A
:100FE000096C04F027FE264D0446A86AFFF70CFDA5
:100FF000244A254BFFF7E4FBFFF7BAF9009020469F
:10100000FFF702FD214A224BFFF7DAFB06460F46A7
:101010000098FFF7F9FC32463B46FFF775FBFFF7F8
:10102000A7F90646A8621B48844204DB1A4884429A
:1010300001D9E86A04E03146E86A04F051FDE8624B
:101040001649884202DC1649884200D9E9620B49F8
:101050001448803942020F6849685740E86A04F032
:1010600085FD04463846314604F080FD214604F0F3
:10107000E1FDFFF7A3FD00B2F8BD0000A4F2FF1FE1
:1010800000F0FF1F666666666666E63F33333333FD
:101090003333D33F0000C8420000C8C200803B4544
:1010A00000803BC50000404010B5114A114B5089EB
:1010B000518A128A4018511A08229A5E00B254428C
:1010C00009B223B2824201DA104602E0844200DD16
:1010D00018468A4201DA114602E08C4200DD1946C8
:1010E000044A803A5085918502F090FC10BD0000C2
:1010F00000F0FF1FE4F2FF1FF0B5214A00217F201E
:10110000D161800216461162803E036833604368F5
:1011100073608368B360C368F360036933614069D7
:10112000FD270D467F027061142048438019858495
:10113000CB00057645764583DB1905621C888483E0
:10114000491C9B88C9B2C3830429EDD30C480A21EA
:101150004038018545858585C585058675670948BB
:10116000B567D0631064506405481921203845776D
:10117000057749016030018101201076F0BD000043
:10118000A4F2FF1F0000C84110B588B020216846B6
:10119000FFF73CF8164CE06BFFF736FD020E694690
:1011A0000A70020C4A70020A8A70C870206CFFF73D
:1011B0002BFD020E69460A71020C4A71020A8A71FD
:1011C000C871606CFFF720FD020E69460A72020CBE
:1011D0004A72020A8A72C872FC2003F05FFD002383
:1011E00030226946FC2003F09FFD08B010BD0000CE
:1011F000A4F2FF1F07480649C1600749416107493A
:1012000001607F21C905816005498030C163704755
:101210000000F04124F2FF1F0000964300007543D8
:101220000000A041F8B5FFF72BFD2749496C04F0F9
:1012300001FD264D0446286BFFF7E6FB244A254BAB
:10124000FFF7BEFAFFF794F800902046FFF7DCFBAB
:10125000214A224BFFF7B4FA06460F460098FFF7E3
:10126000D3FB32463B46FFF74FFAFFF781F80646BD
:1012700028631B48844204DB1A48844201D9686B06
:1012800004E03146686B04F02BFC68631649884221
:1012900002DC1649884200D969630B491448803939
:1012A00042020F6849685740686B04F05FFC0446CF
:1012B0003846314604F05AFC214604F0BBFCFFF7E7
:1012C0007DFC00B2F8BD0000A4F2FF1F00F0FF1F7C
:1012D000666666666666E63F333333333333D33F41
:1012E00000002041000020C100803B4500803BC53C
:1012F0000000404010B5022002F044FB10BD000089
:10130000FEB5594C594FA089002815D15C4958A009
:101310008861F86BA062084601F04CF920462C3039
:1013200000F0ABFC2046443000F0A7FC20465C30C7
:1013300000F0A3FC0120A0815248182500780C265B
:10134000012824D003282DD007284ED0092858D0B2
:1013500004287AD0444801212C3000F0E2FB4248B6
:101360000121443000F0DDFB0C2347A210210A20AC
:10137000009504F029FAA06AFFF746FC0246022312
:10138000102158200096019504F08AF9FEBD3648D8
:1013900000212C3000F0C5FB7F21C905A06A04F0B4
:1013A0009FFB2CE0304800212C3000F0BAFB7F2757
:1013B000FF0514E03946A06A04F092FBA0620A20FF
:1013C00003F09CF8A06AFFF71FFC024602231021DD
:1013D00058200096019504F063F901F059F81B209C
:1013E00003F02CFE0028E5D0BEE71F480021443062
:1013F00000F097FB7F21C905A06A04F01BFCA062E6
:10140000B2E719480021443000F08BFB7F27FF052D
:1014100014E03946A06A04F00DFCA0620A2003F033
:101420006DF8A06AFFF7F0FB024602231021582056
:101430000096019504F034F901F02AF8242003F015
:10144000FDFD0028E5D08FE7FFE7A06AF8630020E4
:10145000A081FFF799FE03F043FB022004F01CFA81
:10146000FFF71CFD80E7000070F1FF1FA4F2FF1FD3
:1014700053657420546172676574537070656400BD
:1014800010F1FF1F6DF1FF1F53706565643A000096
:10149000F8B5214C2E20205EFFF787F900221F4B64
:1014A000FFF78EF9FEF764FF2546403D68670A2086
:1014B00003F0C4FD0127FF07002802D1686F7840C0
:1014C00068670020164EE085F0883081686FFFF76E
:1014D00075FB00B2FFF780FDF0803020205EFFF743
:1014E00064F900220D4BFFF76BF9FEF741FFA86787
:1014F000262003F0A3FD012802D1A86F7840A86739
:1015000000202086B089F081A86FFFF757FB00B25A
:10151000FFF788FEB081F8BD64F2FF1F0000C93FED
:1015200000F0FF1F70B50C4C0A21E0882689A588C1
:10153000801B00B26D1C6843FEF774FE8019608149
:10154000A089E6890A21801B00B26843FEF76AFE83
:101550008019208270BD000000F0FF1FFEB5574CBF
:101560006089002816D15A4955A0886159484069B8
:101570006062084601F01EF820462C3000F07DFB2A
:101580002046443000F079FB20465C3000F075FBCB
:10159000012060815048514F007818250C26012801
:1015A00024D003282CD007284BD0092854D0042855
:1015B00074D0424801212C3000F0B3FA3F48012199
:1015C000443000F0AEFA0C2345A2102114200095FF
:1015D00004F0FAF8606AFFF717FB024604231021B3
:1015E0003A200096019504F05BF8FEBD33480021D7
:1015F0002C3000F096FA3946606A04F071FA29E05E
:101600002E4800212C3000F08CFA14E03946606A34
:1016100004F066FA60620A2002F070FF606AFFF769
:10162000F3FA0246042310213A200096019504F0B3
:1016300037F800F02DFF1B2003F000FD0028E5D057
:10164000C1E71E480021443000F06BFA3946606A59
:1016500004F0F0FA6062B6E718480021443000F068
:1016600060FA14E03946606A04F0E4FA60620A2025
:1016700002F044FF606AFFF7C7FA02460423102114
:101680003A200096019504F00BF800F001FF2420A9
:1016900003F0D4FC0028E5D095E7FFE70D48616A28
:1016A000416104F0EBF80020608103F019FA022098
:1016B00004F0F2F8FFF7F2FB85E7000070F1FF1F7E
:1016C000446972656374696F6E204B6400000000AA
:1016D00010F1FF1F24F2FF1F6DF1FF1F0000A0405B
:1016E0004B643A00FEB55E4CE088002816D1614993
:1016F0005CA088616048C068E061084600F05AFF5D
:1017000020462C3000F0B9FA2046443000F0B5FAFB
:1017100020465C3000F0B1FA0120E08057483F27B6
:1017200000783F0618250C26012827D003282FD043
:10173000072853D009285CD004287CD048480121D0
:101740002C3000F0EEF946480121443000F0E9F970
:101750000C234BA210211420009504F035F84949C0
:10176000E06904F003FAFFF74FFA02460423102160
:101770003A200096019503F093FFFEBD3848002102
:101780002C3000F0CEF93946E06904F0A9F92EE0DA
:10179000334800212C3000F0C4F93A4F18E03F21C3
:1017A0000906E06904F09CF9E0610A2002F0A6FE57
:1017B0003946E06904F0DAF9FFF726FA0246042315
:1017C00010213A200096019503F06AFF00F060FEB8
:1017D0001B2003F033FC0028E1D0B9E720480021AA
:1017E000443000F09EF93946E06904F023FAE061E4
:1017F000AEE71B480021443000F093F9214F18E078
:101800003F210906E06904F015FAE0610A2002F0C0
:1018100075FE3946E06904F0A9F9FFF7F5F90246CB
:10182000042310213A200096019503F039FF00F0BF
:101830002FFE242000E004E003F000FC0028DFD0AD
:1018400086E70D48E169C16004F018F80020E080E7
:1018500003F046F9022004F01FF8FFF71FFB77E7BB
:1018600070F1FF1F446972656374696F6E204B707D
:101870000000000010F1FF1F24F2FF1F6DF1FF1F99
:101880004B703A0000002041F8B5244C0546207802
:10189000002841D0284603F040FD60610021A0618E
:1018A0006956814201DD002028701C482978007D9E
:1018B0001A4C401AC6B2583468782169884200D858
:1018C000002616486661583000F074FE13487430E4
:1018D00086616978016100F0DFFD20696978C7B22F
:1018E000814200D20F4600240AE030191C214843EF
:1018F00042192001011B1E20133100F049FC641C19
:10190000BC42F2DB05491C22886950434019012280
:101910000861827000200870F8BD0000B8F0FF1F59
:10192000F8B5002A7ED0540054438718012B41D0CB
:10193000861A022B7BD0032B76D0042B72D115464E
:10194000002600910098069AC1B2B8B200F0FCFCE3
:101950000098761C401E00906800024671006A43A1
:1019600071435118091B081A401C002801DD6D1E27
:101970007F1EAE42E6DB0098069AC1B2B8B200F014
:10198000E3FC2846410070006D1E891E0246694333
:1019900072438918091B0818401C7F1E002803DCAD
:1019A0000098401E761C0090002DE4DC0098C1B227
:1019B000B8B276E000970D46164600270098E9B2C7
:1019C00080B2069A00F0C0FC70007F1C01467A00CD
:1019D00071437A438918091B081A401C6D1C0028A2
:1019E00003DD0098401E761E0090B742E6DB0098AB
:1019F000E9B280B2069A00F0A7FC00993046491E71
:101A0000009141007800761E891E024671437A4398
:101A10008918091B0818401C002801DC6D1C7F1C5C
:101A2000002E02E040E002E03FE0E0DC75E0154619
:101A3000002700910098069AC1B2B0B200F084FC71
:101A400000987F1C401C00906800024679006A43A1
:101A500079435118091B081A401C002801DD6D1E2E
:101A6000761CAF42E6DB0098069AC1B2B0B200F035
:101A70006BFC2846410078006D1E891E02466943B2
:101A80007A438918091B0818401C761C002803DCBF
:101A90000098401C7F1C0090002DE4DC0098C1B22F
:101AA000B0B2069A00F050FCF8BD00960D461646FE
:101AB00000270098E9B280B2069A00F045FC700059
:101AC0007F1C02467900724379435118091B081A9A
:101AD000401C6D1E002803DD0098401C761E0090FF
:101AE000B742E6DB0098E9B280B2069A00F02CFC1F
:101AF00000993046491C009141007800761E891EED
:101B0000024671437A438918091B0818401C0028B3
:101B100001DC6D1E7F1C002EE4DC0098E9B280B26F
:101B2000BFE77CB50446C0680D460E287DD3A0688B
:101B30001E287AD3206903F0E9FBA168884274D893
:101B400025750C2661682068002D11D00122801DAA
:101B5000891D00F02AF9206903F0D8FBA168081A52
:101B6000218840084018002180B2009601916CE065
:101B70000022801D891D00F018F9012500952068BC
:101B8000616803230622801D891DFFF7C9FE0095A9
:101B9000A168206842186168801D0B46D21F00F0C2
:101BA00090FA0095A1682068042340186168062215
:101BB000C01F891DFFF7B4FE0095E1686068A26848
:101BC000411820684B1E8218801D491ED21F00F04C
:101BD00078FA0095E1686068A268411820680123DE
:101BE00080180622C01FC91FFFF79AFE0095616882
:101BF000E0680B182068891D0246DB1F00F061FABF
:101C00000095E16860680223411820680622801D63
:101C1000C91FFFF785FE00956168E068A2680B1890
:101C200020688018421E401E00E018E0891DDB1F5E
:101C300000F047FA206903F069FBA168081A2188BF
:101C40004008401880B200960195E168A2880C39DE
:101C50004908511889B20C23226903F0B3FE7CBDF8
:101C600038B51446C9B280B26A4600F0AAFB68468D
:101C7000017801206140884338BD7CB50446C068C6
:101C80000E287BD3A0681E2878D3206903F03EFB82
:101C9000A168884272D801250095206861680323F5
:101CA0000622801D891DFFF73BFE0095A168206874
:101CB00042186168801D0B46D21F00F002FA0095A1
:101CC000A16820680423401861680622C01F891D8E
:101CD000FFF726FE0095E1686068A2684118206859
:101CE0004B1E8218801D491ED21F00F0EAF9009594
:101CF000E1686068A2684118206801238018062204
:101D0000C01FC91FFFF70CFE00956168E0680B1843
:101D10002068891D0246DB1F00F0D3F90095E168B9
:101D200060680223411820680622801DC91FFFF742
:101D3000F7FD00956168E068A2680B182068891DAE
:101D40008018421E401EDB1F00F0BBF9207D0C26D0
:101D5000002814D0206861680122801D891D00F0D0
:101D600024F8206903F0D2FAA168081A21884008F3
:101D70004018002180B2009601910BE014E0206928
:101D800003F0C4FAA168081A21884008401880B2FC
:101D900000960195E168A2880C394908511889B26A
:101DA0000C23226903F00EFE7CBDF7B5D8B00C46BB
:101DB0000546802874D2402C72D2E1B2A8B250AA53
:101DC00000F0FFFA50A802785A98D107C007C90F4F
:101DD000C00F814264D021462846559400F0CCFAC9
:101DE0000646569050A802782146284600F0F1FA9F
:101DF000549080194008299401942890012400905F
:101E0000254601E0002D7BD0E90028A8081880387D
:101E1000816F5291C66F50A86D1E0278EDB23146A7
:101E2000529800F0A9FA539050A80278314652987F
:101E300000F0CFFA519050A80278761C31465298A3
:101E4000FFF70EFF002804D050A8027831465298C0
:101E500015E0539F08E050A8027831463846FFF756
:101E6000FFFE002803D17F1C51988742F3D9519877
:101E70008742C7D850A8529702783146384600F0BA
:101E8000A8FA519050A802783146529800F074FA9E
:101E90005390142C1FD2471E58975990074617E0AD
:101EA0007EE050A80278711E3846FFF7D9FE002860
:101EB00027D059995898884207D05891E000694630
:101EC0000F504018641CE4B24660142C03D27F1CEF
:101ED00051988742E5D9539951985A9B4018400828
:101EE00052905198F1B282B2539880B200F0D5F876
:101EF000142DA0D2539F59977F1E5897599F19E0D0
:101F00001FE05997E1E750A80278711C3846FFF7A7
:101F1000A7FE002813D059995898884207D05891A5
:101F2000E80028A90F5040186D1CEDB24660142D32
:101F300081D27F1C5198874200D97CE7E3E759970B
:101F4000F5E7002C20D0E100684608188038816F42
:101F50005291C66F50A8641E0278E4B2314652987E
:101F600000F00AFA539050A802783146529800F0D7
:101F700030FA074650A80278761E31465298FFF78D
:101F80006FFE00280ED020E0002D00D03AE75498D4
:101F90005A9B82B25598C1B2569880B200F07DF833
:101FA0005BB0F0BD539809E050A8027831465198D3
:101FB000FFF756FE002804D15198401C5190B842BA
:101FC000F2D95198B842BCD8529050A80278314604
:101FD000529800F0FEF9074650A802783146529810
:101FE00000F0CAF95390142D20D25990401E5890F9
:101FF000599818E050A80278711C5198FFF730FEEC
:10200000002826D059995898884208D05891E8005D
:1020100028A9519A0A5040186D1CEDB24660142D43
:1020200004D25198401C5190B842E3D95398BAB2A7
:102030003818400852905398F1B280B25A9B00F081
:102040002CF8142C96D253985990401E58905998B9
:102050001BE051985990E2E750A80278711E519800
:10206000FFF7FEFD002815D059995898884208D0EE
:102070005891E0006946519A0A504018641CE4B235
:102080004660142CDED25198401C5190B84200D9C1
:1020900070E7E1E751985990F3E7F8B515461E4609
:1020A0000F460446A84202D9D0B22546044632461D
:1020B0003946204600F048F9641CA4B2A542F6D285
:1020C000F8BDFFB583B0054605980C46411B069840
:1020D0000027021BFF43002902DD0120029002E0DD
:1020E000002904DA0297002A09DD012711E0C2B2B3
:1020F000E1B2A8B20C9B00F02CF907B0F0BD002AA9
:1021000007DB0598E1B282B2A8B20C9BFFF7C5FFCE
:10211000F3E70298484339465143420000924A008F
:10212000019288421CDB161A0098101A00900EE0EB
:10213000E1B2A8B20C9A00F007F902982D18002E0F
:1021400002DA0198361802E000988619E419059819
:102150008542EDD1E1B2A8B20C9A00F0F5F8CCE7D7
:102160000098461A801A01900EE0E1B2A8B20C9ACB
:1021700000F0EAF8E419002E02DA0098361803E0BD
:102180000198861902982D1806988442EDD1E1E74E
:10219000FEB514460D460646802805D8402D03D8C6
:1021A000022D01D3122E01D20020FEBDE0680028CE
:1021B000FBD0A27830461023A91E12380C27002A23
:1021C00012D06268002A04D0C9B2C0B2009303F0F2
:1021D000A4FA002001900097A9B2B0B20C23E268E3
:1021E00003F0F0FB0120FEBDA268002A05D0009399
:1021F000C9B2C0B2102303F090FA0120EAE7000050
:1022000010B5002902D00121002401E000210124A1
:102210000448FFF786FC034821461830FFF781FC8D
:1022200010BD000080F0FF1FFEB581680446142930
:102230003CD3E068142839D325686A18802A35D839
:1022400061680B18402B31D800272846521E5B1EB0
:10225000009700F0F4F8012500956168E068A26835
:102260000B1820685B1E8218521E00F0CAF82088E6
:102270002189304B4118491E8AB2217980B20E3132
:10228000C9B21B78FFF709FF0095A16820684218C2
:102290006168521E0B460D3300F0D1F8206903F03F
:1022A0004AF80246A068811E8A4201D90020FEBD7C
:1022B00080B20C26019700960290A0883346401CFD
:1022C00081B22088226980B203F0D4FB1A480775D6
:1022D000A16901612168491D0160E268616889188E
:1022E000C268891A091F4160FFF7C7FC12481830FD
:1022F0000575E1690161A268216889188268891AF7
:10230000891F0160E26861688918C268891A091F1B
:102310004160FFF7B2FC00960195A0880C231130B4
:1023200081B220886269801D80B203F04BFB0120DE
:10233000FEBD00007EF0FF1F80F0FF1F0148007D02
:102340007047000080F0FF1F10B5C0B203F0F4F832
:1023500010BDF8B515461E4607460C46A94201D9E0
:102360000D461446324621463846FFF7EDFF641C01
:10237000E4B2A542F6D2F8BDF8B5D507441EED0F7C
:102380000E46002C0ED0F1B2A0B26A4600F019F849
:1023900068460078C007C00FA84201D0601CF8BD95
:1023A000641EF0D1F1B200206A4600F00AF86846D7
:1023B0000078C007C00FA84201D00120F8BD00205E
:1023C000F8BD10B51446C0B203F0D2F8207000205A
:1023D00010BDF8B5441CD5070E46ED0F0DE0F1B267
:1023E000A0B26A46FFF7EDFF68460078C007C00F4D
:1023F000A84201D0601EF8BD641C802CEFD3802061
:10240000F8BDF8B51C4615460E46074692B2C9B24D
:1024100080B2069BFFF741FEAAB2E1B2B8B2069BBA
:10242000FFF73BFEE2B2F1B2B8B2069BFFF791FFB5
:10243000E2B2F1B2A8B2069BFFF78BFFF8BDF8B588
:1024400017461E460C460546B84201D915460746B2
:10245000B44201D91C460E46B44206D1BAB2E1B22A
:10246000A8B2069BFFF719FEF8BDBD420DD1F2B22E
:10247000E1B2A8B2069BFFF76CFFF8BDBAB2E1B2B9
:10248000A8B2069BFFF709FE641CB442F6D9F8BD5A
:1024900010B503F081F810BDF8B5040052D0A26861
:1024A0000A2A4FD3E06814284CD3012500956168AF
:1024B0000B1820685B1E8218521EFFF7A2FF082629
:1024C0000096208921780838400808182179C0B280
:1024D000491CC9B233461C4A03F01FF90096207903
:1024E000217B227840180938C1B220890823083896
:1024F00040081018144AC0B2083203F00EF90095D3
:10250000A168206842186168521E09310B46FFF726
:10251000D8FD0095E1686068A268411820680A3912
:1025200082180B46521EFFF7CCFDE06862692169F4
:1025300014388A4202D25043FDF76AFEE061204619
:1025400000F004F8F8BD00002A840000FEB504463F
:102550008189808B091A14398EB22188491C8AB26C
:102560000192A188721E0A318DB280182189002241
:102570000092C91E019A89B280B257182B183A46A8
:1025800029460198FFF75BFF21696069814201D804
:10259000002005E0A069491E7043FDF739FE80B2B6
:1025A000012100912918E269019853183A46FFF772
:1025B00046FFFEBDFEB58168044614293BD3E3689F
:1025C000142B38D320684218802A34D86168CB187D
:1025D000402B30D80025521E5B1E0095FFF72FFFC1
:1025E000012600966168E068A2680B1820685B1EEF
:1025F0008218521EFFF705FF20882189174B4118CA
:10260000491E8AB2217980B20E31C9B21B78FFF718
:1026100044FD0096A168206842186168521E0B466E
:102620000D33FFF70CFFA06902F08CFE0246A06894
:10263000811E8A4201D90020FEBD80B20C21019585
:1026400000910290A0880C23401C81B22088A269CE
:1026500080B203F00FFA0120FEBD00007EF0FF1FE4
:1026600010B5242002F0EAFC10BD10B51C2002F0C9
:10267000E5FC10BD10B51B2002F0E0FC10BD000011
:10268000F8B50F4D0024A8680E4E000712D50E4F66
:10269000387884420ED2E96820460C2250433258E2
:1026A000114204D080198068002800D08047641C43
:1026B000E4B2EDE7A86824210843A860F8BD000053
:1026C0000090074080F3FF1F6AF0FF1FF8B50F4D21
:1026D0000024A8680E4E000712D50E4F38788442A9
:1026E0000ED2E96820460C2250433258114204D0E1
:1026F00080198068002800D08047641CE4B2EDE7B0
:10270000A86824210843A860F8BD000000A0074085
:1027100080F3FF1F6AF0FF1F10B52C2002F08EFC23
:1027200010BD10B501212D2002F0A4FC10BD10B584
:1027300000212D2002F09EFC10BD10B501212C209F
:1027400002F098FC10BD10B500212C2002F092FC84
:1027500010BD08B500206946C87048702C2008706C
:1027600001208870684602F0A5FB08BD08B500206E
:102770006A46D070012050702C211170907068460C
:1027800002F098FB08BD0000F0B50021104D114F7C
:10279000114B0A4604261C204843401946708C0001
:1027A0008270476082601C5902614261491CC9B253
:1027B000C46082610429EED30120A8700748286113
:1027C0000748E86202488C30686306486866F0BDD6
:1027D00038FFFF1F3A840000F0F0FF1F9D530000F8
:1027E0006D53000055530000F8B5674E7068FFF751
:1027F0004BF8664900270878002800D0F760624C43
:10280000583401285BD0072854D13E237522122169
:1028100001200097FFF713FEB0691C21484371683F
:10282000401830618770B069401CB061726851789F
:10283000491E814200DCB161B0691C214843801807
:1028400001213061817072681078401C43B21370AE
:10285000204651782469A14205D80D468B420EDBF3
:10286000491E11700BE0E5B2641EA34207D9147033
:102870000269891A4269914201D9521C42610024BD
:1028800010E041481C2158304069484371684118A4
:102890001C2060430A182001011B1E201331FFF782
:1028A00077FC641CAC42ECDB3748B1697430816161
:1028B000FFF74CFE35480078042849D04DE03E2310
:1028C0007522122101200097FFF7B9FDB1691C2282
:1028D00051437268881830618770B069401EB061DA
:1028E000002800DCB761B0691C21484371684018BA
:1028F00001213061817071680878401E42B20A700F
:102900004D78236920469D4203D8002A0ADA0F70C9
:1029100008E0DDB2002A05DA0F704169002901D014
:10292000491E6161002410E017481C21583040699D
:102930004843716841181C2060430A182001011B9C
:102940001E201331FFF724FC641CAC42ECDBABE728
:1029500030690069002800D08047F068411CF160B0
:1029600064280FDDF76030694169002908D087705D
:1029700070691C21484371684018012130618170E1
:1029800002F0A0FCF8BD0000B8F0FF1F6DF1FF1FC2
:102990008307FF22DB0E9A408907090E9940002821
:1029A0000BDA0007000F0838830808489B00181846
:1029B000C36993430B43C3617047830804489B007A
:1029C0001818036893430B430360704700ED00E061
:1029D00000E400E0F0B50021134B144C144E0A46FD
:1029E00005251C204843C018826102614460826052
:1029F0008F00827045704261491CF759C9B2C760A7
:102A00000529EED3012098700A4818610A48D86257
:102A10000A4898640A480449586603488C3980304B
:102A2000816008490160F0BD500000203A84000038
:102A3000D4F0FF1FF9530000E1530000C953000018
:102A4000B15300006D53000010B5074CE068C0079B
:102A500004D006480068002800D08047E0680121C3
:102A60000843E06010BD00000071034048F0FF1F04
:102A700010B5074CE069C00704D00648406800283C
:102A800000D08047E06901210843E06110BD0000EB
:102A90000071034048F0FF1FF0B50021114C124BAC
:102AA000124E0A4603251C204843001945708261D6
:102AB000026143608F00826082704261491CF75955
:102AC000C9B2C7600329EED301200649A0708C313A
:102AD000A161074820610749E16202498C392165FB
:102AE000A064F0BDC4FFFF1F3A84000004F1FF1F83
:102AF0006D5300001154000010B5074C6078002899
:102B000008D0201DFFF756FD20462030FFF7C4FCFB
:102B10000020607010BD0000E4F1FF1FFEB5FFF75C
:102B2000EBFFDA4ED84900200856354634460C27CC
:102B300080354034002804D001287DD002287CD084
:102B40006DE10623D2A20F210320009702F03CFE84
:102B5000062000900197728B03230F211B2002F0A7
:102B60009FFD0623CCA20F214120009702F02CFEEE
:102B7000062000900197F28D03230F215F2002F0C1
:102B80008FFD0623C6A221210320009702F01CFE20
:102B90000620009001976288032321211B2002F068
:102BA0007FFD0623C0A221214120009702F00CFEE8
:102BB000062000900197E28A032321215F2002F082
:102BC0006FFD0623BAA232210320009702F0FCFD1C
:102BD000FF21E869C905C84212D3062403232D2228
:102BE00032211B200197009402F0FAFCE869FDF7FE
:102BF000E5FF02B20323322121200197009408E06F
:102C0000FDF7DCFF02B2062000900323322101977A
:102C10001B2002F045FD0623A7A232214120009788
:102C200002F0D2FD286AFDF7C9FF02B20620032395
:102C300032210197009001E002E07DE05F20ECE0AE
:102C400006239FA20F210320009702F0BDFD062559
:102C50002E2201970095A25E04230F211B2002F073
:102C60001FFD062398A20F213720009702F0ACFD2C
:102C7000302201970095A25E04230F21552002F017
:102C80000FFD062392A221210320009702F09CFD54
:102C90002A22A25E0197002A00950DDA03232D2235
:102CA00032211B2002F09CFC2A220197009503236D
:102CB0003221A25E212002E0042321211B2002F008
:102CC000EFFC062384A221213720009702F07CFD2F
:102CD0002C22A25E0197002A00950DDA03232D22F3
:102CE0003221552002F07CFC2C2201970095032311
:102CF0003221A25E5B2002E004232121552002F054
:102D0000CFFC062376A232210320009702F05CFD5F
:102D100001970095B28B032332211B2002F0C0FCE7
:102D200006236FA232213720009702F04DFD019754
:102D30000095B28B03236EE006236BA20F210320C4
:102D4000009702F041FD6A49306802F00FFFFDF77D
:102D50005BFF0246062404230F211B2001970094E9
:102D600002F09EFC062363A20F213720009702F099
:102D70002BFD5F49706802F0F9FEFDF745FF024642
:102D800004230F2155200197009402F089FC0623AB
:102D90005AA221210320009702F016FDF068FDF7EA
:102DA00033FF0246042321211B200197009402F0E7
:102DB00077FC062353A221213720009702F004FD5F
:102DC0007069FDF721FF0246042321215520019758
:102DD000009402F065FC06234CA2322103200097E8
:102DE00002F0F2FC286CFDF70FFF024602233221AD
:102DF0001B200197009402F053FC062344A23221C9
:102E00003720009702F0E0FC686CFDF7FDFE0246FB
:102E10000223019700943221552002F041FC3D48E5
:102E2000194900780123091D072809D001281CD061
:102E3000042804D1081F4370002002F02DFDFEBDC0
:102E4000114A1078401E40B210705370002801DA09
:102E5000022013E000201056002811D0012811D0C4
:102E60000228ECD12CA08861FEBD074A1078401CD6
:102E700040B2107053700228ECDD00201070E9E7BA
:102E800029A0F0E72DA0EEE7E4F1FF1F24F2FF1FD9
:102E9000485F4C3A00000000485F523A00000000D2
:102EA000565F4C3A00000000565F523A00000000A6
:102EB0004841453A000000005641453A00000000F4
:102EC0004C5F453A00000000525F453A00000000A8
:102ED0004C5F503A00000000525F503A0000000082
:102EE0004E6F723A00000000534B503A0000000051
:102EF00000002041534B493A00000000444B503A37
:102F000000000000444B443A000000004C543A00DA
:102F100052543A006DF1FF1F5049442050617261D4
:102F20006D657465727300004D6F746F722050612F
:102F300072616D65746572730000000053656E7395
:102F40006F7220506172616D65746572730000006C
:102F5000F0B50346084649008C465C5A15E0521EFF
:102F6000904203DA5100595AA142F8D251009042DE
:102F700004DA5D5AA54201D8401CF8E7904204DA11
:102F800046009D5B5F5A9F535D529042E8DB4100D3
:102F90005D5A62469D525C52F0BD0000034A10B576
:102FA000911E881E00F0BCFE10BD0000AEF2FF1F97
:102FB000FEB55E4C6088002816D160495CA088612F
:102FC0005F48406860610846FFF7F4FA20462C30FD
:102FD000FEF753FE20464430FEF74FFE20465C309D
:102FE000FEF74BFE0120608056483F2700783F06E1
:102FF00018250C26012827D003282FD0072853D0C6
:1030000009285CD004287CD0484801212C30FEF7E8
:1030100088FD464801214430FEF783FD0C234AA277
:1030200010211420009502F0CFFB4849606902F09E
:103030009DFDFDF7E9FD0246042310213A2000968C
:10304000019502F02DFBFEBD384800212C30FEF723
:1030500068FD3946606902F043FD2EE033480021E7
:103060002C30FEF75EFD394F18E03F2109066069FC
:1030700002F036FD60610A2001F040FA39466069CD
:1030800002F074FDFDF7C0FD0246042310213A2032
:103090000096019502F004FBFFF7FAF91B2001F0FE
:1030A000CDFF0028E1D0B9E7204800214430FEF7E9
:1030B00038FD3946606902F0BDFD6061AEE71B482E
:1030C00000214430FEF72DFD204F18E03F21090676
:1030D000606902F0AFFD60610A2001F00FFA394625
:1030E000606902F043FDFDF78FFD024604231021C5
:1030F0003A200096019502F0D3FAFFF7C9F924208F
:1031000000E004E001F09AFF0028DFD086E70C48D9
:103110006169416002F0B2FB0020608001F0E0FCD8
:10312000022002F0B9FBFDF7B9FE77E770F1FF1F4F
:103130005370656564204B690000000010F1FF1FAB
:1031400024F2FF1F6DF1FF1F4B693A000000204180
:10315000FEB55E4C2088002816D160495CA08861CD
:103160005F48006820610846FFF724FA20462C30AB
:10317000FEF783FD20464430FEF77FFD20465C309D
:10318000FEF77BFD0120208056483F2700783F0650
:1031900018250C26012827D003282FD0072853D024
:1031A00009285CD004287CD0484801212C30FEF747
:1031B000B8FC464801214430FEF7B3FC0C234AA278
:1031C00010211420009502F0FFFA4849206902F00E
:1031D000CDFCFDF719FD0246042310213A2000968C
:1031E000019502F05DFAFEBD384800212C30FEF753
:1031F00098FC3946206902F073FC2EE03348002128
:103200002C30FEF78EFC394F18E03F21090620696B
:1032100002F066FC20610A2001F070F9394620694D
:1032200002F0A4FCFDF7F0FC0246042310213A2032
:103230000096019502F034FAFFF72AF91B2001F0FD
:10324000FDFE0028E1D0B9E7204800214430FEF718
:1032500068FC3946206902F0EDFC2061AEE71B48AE
:1032600000214430FEF75DFC204F18E03F210906A5
:10327000206902F0DFFC20610A2001F03FF93946A5
:10328000206902F073FCFDF7BFFC02460423102105
:103290003A200096019502F003FAFFF7F9F824208E
:1032A00000E004E001F0CAFE0028DFD086E70C4809
:1032B0002169016002F0E2FA0020208001F010FC98
:1032C000022002F0E9FAFDF7E9FD77E770F1FF1F50
:1032D0005370656564204B700000000010F1FF1F03
:1032E00024F2FF1F6DF1FF1F4B703A0000002041D8
:1032F00010B500F001F810BD70B50F490024486802
:10330000002805D04868401E486001D1012008709F
:103310008868401C88608868084A904201D1002073
:103320008860074D14206043401901F063F9641C64
:10333000E4B2062CF6D370BD70F0FF1FFFFFFF7FD5
:1033400060F8FF1F10480F4981800121417023213F
:10335000017011200D49000548620D48002141709F
:103360000C4A962111701A2101700179C906FCD40A
:1033700001790907890FFBD10749086840084860AF
:103380008860704703E8000000200540008004408A
:1033900000400640005006403CF0FF1F70B5284C2E
:1033A0006078002805D10120607020469430FEF737
:1033B0003BFF244D2878072810D121480021943064
:1033C000FEF71EFF1E4800219430FEF719FFFFF79D
:1033D0005FF81B2001F032FE0028FAD0287801287F
:1033E00010D1174801219430FEF70AFF144801213B
:1033F0009430FEF705FFFFF74BF8242001F01EFE86
:103400000028FAD02878042811D1002060701C20F0
:1034100001F014FE0028FAD009489430FEF78EFF20
:10342000012805D001F05CFB022002F035FA70BDE6
:1034300001F056FB022002F02FFAFDF7DBFE70BD13
:10344000B8F0FF1F6DF1FF1FF8B5254A0020137972
:10345000014613799B063ED5D279224D00262B7862
:10346000214C002B14D0012B17D0022B1DD0032B85
:103470001ED0E7787F1D9F4202D9E2545B1C2B705F
:10348000E3782F785A1DBA4225D12E701A1D17E005
:10349000AA2AF5D12270012205E0AF2A01D02E70B0
:1034A000EEE7627002222A70EAE7A2700322FAE7CE
:1034B000E2700422F7E7275C7918401CC9B2C0B259
:1034C0008242F8D80848001D185C884201D06E700E
:1034D00001E0A0786870054801F0DAF8F8BD000056
:1034E00000A006407CF0FF1F38FDFF1F38F6FF1FCD
:1034F0007047704730B47446641E2578641CAB4234
:1035000000D21D46635D5B00E31830BC1847002005
:10351000704710B501F0D6FB01F03AF801F080F8E1
:1035200000F0B8FC00F004FA00F025F900F066FFA6
:1035300000F09CFA00F038FA00F004F800F088FE81
:1035400062B610BD38B51F48416920221143416160
:10355000C168032212069143C160C16801221206AC
:103560001143C16018490A68920892000A600A680B
:1035700018231A430A6000224A604169402421430B
:103580004161C168DC05A143C160C1680124E40652
:103590002143C1600D480168016001681943016061
:1035A00042606946CA704A700A200870012088701B
:1035B000684601F07FFC262069460870684601F0E5
:1035C00079FC38BD00800440008003400090034037
:1035D00010B50748074A018E5368C9180186064B83
:1035E000C18D5C680919C18500205060586010BD0C
:1035F00064F2FF1F0080034000900340F8B5089C70
:103600000D461E46079FA047A847B047052000F07B
:1036100085FFB847052000F081FFA047F8BDF8B549
:10362000089C0D461646079FA047A847B0470520AF
:1036300000F074FFB847052000F070FFA047F8BD08
:103640000FB4FEB5002508982C460D9F0C9E8047B0
:103650000E988047052000F061FFB8476006040E11
:10366000B047012801D1641CE4B2032000F056FFEA
:103670006D1CEDB2082DEBD30F9808AD00280E9805
:103680000197009602900FCD06D0FFF7B7FF2046B6
:10369000FEBC08BC04B01847FFF7C1FFF7E70FB442
:1036A000F8B5174600240C9E0D9D8847B047E809E1
:1036B00001D0B84701E0099880476806050E05204B
:1036C00000F02CFF0B988047052000F027FFB04743
:1036D000022000F023FF641CE4B2082CE7D3F8BCFE
:1036E00008BC04B01847F8B514461D46089F079E4D
:1036F0008847A047B047042000F010FFA8470420E7
:1037000000F00CFFB847F8BDF8B514461D46089FF9
:10371000079E8847B847A847042000F0FFFEB0473F
:10372000A047042000F0FAFEF8BD0FB4FEB50CACC3
:10373000E0CC0898002480470A988047012000F0D8
:10374000EDFEB047012000F0E9FE0EE0641CE4B29B
:10375000FA2C0AD96846E0C008AC0FCCFFF7D4FFBA
:103760000120FEBC08BC04B01847A8470028EDD1D2
:10377000B8470020F5E708B51B206A461070002006
:10378000507001219170D070684601F093FB0121C7
:103790001B2001F06FFC1C206A461070684601F087
:1037A00089FB01211C2001F065FC24206A46107071
:1037B000684601F07FFB0121242001F05BFC00F052
:1037C00057F808BD70B505460C20284968434418D1
:1037D000206880476A0005210026AB180028207960
:1037E00003D0052830D921713CE0052801D2217190
:1037F00070BD0A2802D2401C207170BD690060793A
:103800006D186D1C012803D16671E8B200F06AF8EA
:103810006089002809D02089401C80B220816189FC
:103820008842EAD1DB1CD8B20BE0A0790028E4D0B2
:10383000E079401CC0B2E071A1798842DDD3E67125
:10384000E8B200F04FF870BD002802D0401E207191
:1038500008E06079002805D1012060719B1CD8B276
:1038600000F040F8E671268170BD0000F8F8FF1FF7
:1038700070B50F4800218172C172012403460170A6
:10388000322510330A46047302260C204843C01820
:10389000458106714471491CC271C9B28271032904
:1038A000F3D3044818600448D8600448986170BD98
:1038B000E8F8FF1F752600006B2600006126000057
:1038C000074A917AD07A814201D100207047505C3A
:1038D000491CC9B291720A29F8D30021917270472C
:1038E000E8F8FF1F09280AD80549CA7A8854C87A17
:1038F000401CC0B2C8720A2801D30020C8727047A9
:10390000E8F8FF1F10B5002401211B2001F0B2FBD5
:1039100001211C2001F0AEFB0121242001F0AAFBB3
:103920002046FFF74FFF641CE4B2032CF8D310BD10
:1039300008B518206946087001208870487000207A
:10394000C870684601F0B6FA1920694608706846E2
:1039500001F0B0FA002000F001F808BD10B5002811
:1039600004D001280BD0022808D103E00021182040
:1039700001F080FB0021192001F07CFB10BD00212B
:103980001820F9E710B5002804D0012809D0022832
:1039900006D102E0182001F05FFB192001F05CFB6A
:1039A00010BD1820FAE700003EB500246946CC722D
:1039B00001204872252008728C7202A801F07AFA60
:1039C0000021252001F056FB0E486946088014208E
:1039D0000871CC80684601F0D1F90A486946423046
:1039E0000880684601F0CAF90748694608806846B9
:1039F00001F0C4F903486946E8300880684601F0E0
:103A0000BDF93EBD30A40000F6A80000F8B5154F82
:103A100005461448423703260C46002905DBCC1C1A
:103A2000A1B201F02DFA032104E0032101F028FAEC
:103A3000301B81B2384601F023FA0A4C0A48E834B8
:103A4000002D05DBED1CA9B201F01AFA032104E0F8
:103A5000032101F015FA701B81B2204601F010FA23
:103A6000F8BD000030A40000F6A8000010B500F07A
:103A700039F880216B2000F0ABF9C82000F03EFD42
:103A800000216B2000F0A4F9032000F069F9002068
:103A900000F05FF9642000F084F900216A2000F052
:103AA00097F90021232000F093F98021372000F0BE
:103AB0008FF90021382000F08BF9752000F0C6F84E
:103AC000682801D0012010BD01216B2000F080F991
:103AD00000216C2000F07CF9642000F062F90020E5
:103AE00010BD000008B500206A46D070012050705B
:103AF0002C2111709070684601F0DCF92D206A4687
:103B00001070684601F0D6F9084807494161084934
:103B10008161084981600849C1600849016008491C
:103B200041600849016108BD232700001CFDFF1FFB
:103B30002F2700003B2700004727000053270000E5
:103B40006D27000019270000F0B53F4C15462046B0
:103B50000F46103007C885B01E466B4607C30FCC12
:103B6000103CFFF7C0FDD0201034039007CC6B460B
:103B700007C31C3C0FCC103CFFF791FD103407CC61
:103B80006B4607C31C3C0FCC103CFFF7CEFD002852
:103B90000AD02046103007C86B4607C30FCCFFF78A
:103BA000B3FD012005B0F0BD20461030039707C8D3
:103BB0006B4607C30FCC103CFFF771FD103407CCE8
:103BC0006B4607C31C3C0FCC103CFFF7AEFD103416
:103BD00007CC6B4607C31C3C0FCC103CFFF783FDA2
:103BE000D1201034039007CC6B4607C31C3C0FCC8C
:103BF000103CFFF754FD103407CC6B4607C31C3C48
:103C00000FCC103CFFF791FD10E0012D1AD00120E0
:103C100003902046103007C86B4607C30FCC103CFA
:103C2000FFF70EFD6D1E3070EDB2761C002DECD14D
:103C30002046103007C86B4607C30FCCFFF764FD62
:103C40000020AFE70020E3E71CFDFF1F7FB5334CEA
:103C500005462046103007C86B4607C30FCC103C02
:103C6000FFF741FDD0201034039007CC6B4607C30B
:103C70001C3C0FCC103CFFF712FD103407CC6B46F8
:103C800007C31C3C0FCC103CFFF74FFD10340395CD
:103C900007CC6B4607C31C3C0FCC103CFFF7FFFC66
:103CA000103407CC6B4607C31C3C0FCC103CFFF70D
:103CB0003CFD103407CC6B4607C31C3C0FCC103CBA
:103CC000FFF711FDD1201034039007CC6B4607C3DA
:103CD0001C3C0FCC103CFFF7E2FC103407CC6B46C9
:103CE00007C31C3C0FCC103CFFF71FFD0020103415
:103CF000039007CC6B4607C31C3C0FCC103CFFF76E
:103D00009FFC0546103407CC6B4607C31C3C0FCC08
:103D1000FFF7FAFC284604B070BD00001CFDFF1F31
:103D20007CB514460D4606466B46062243216820A4
:103D3000FFF70AFF00280BD16946098849BA31808C
:103D40006946498849BA29806946898849BA2180E3
:103D50007CBDC00610B5010E1C2000F039F810BD66
:103D6000C00610B5010E1B2000F032F810BD10B5D2
:103D7000BC2801D3012110E0622801D302210CE00C
:103D80002A2801D3032108E0142801D3042104E0E8
:103D90000A2801D3052100E006211A2000F018F8B6
:103DA00010BD10B504467D20C000844201D90446F0
:103DB00002E0042C00D204242146FCF729FA401E1C
:103DC000C1B2192000F004F86008FFF7D0FF10BD61
:103DD0007FB52F4C064620460D46103007C86B466F
:103DE00007C30FCC103CFFF77EFCD02010340390AB
:103DF00007CC6B4607C31C3C0FCC103CFFF74FFCB5
:103E0000103407CC6B4607C31C3C0FCC103CFFF7AB
:103E10008CFC002827D120461030039607C86B463B
:103E200007C30FCC103CFFF73AFC103407CC6B46AD
:103E300007C31C3C0FCC103CFFF777FC10340395F4
:103E400007CC6B4607C31C3C0FCC103CFFF727FC8C
:103E5000103407CC6B4607C31C3C0FCC103CFFF75B
:103E600064FC00280AD02046103007C86B4607C300
:103E70000FCCFFF749FC012004B070BD2046103084
:103E800007C86B4607C30FCCFFF73EFC0020F3E7E3
:103E90001CFDFF1F10B500F07DF80121432001F04B
:103EA000E9F8642000F02AFB0021432001F0E2F849
:103EB000642000F023FB0121432001F0DBF8002106
:103EC000AE2001F0AFFC0021D52001F0ABFC0021B9
:103ED000502001F0A7FC0021A82001F0A3FC002144
:103EE0003F2001F09FFC0021D32001F09BFC00212A
:103EF000084601F097FC0021402001F093FC0021CE
:103F00008D2001F08FFC0021142001F08BFC00219A
:103F1000202001F087FC0021022001F083FC002119
:103F2000A12001F07FFC0021C02001F07BFC0021DA
:103F3000DA2001F077FC0021122001F073FC00214F
:103F4000812001F06FFC0021EF2001F06BFC0021CB
:103F5000D92001F067FC0021F12001F063FC002171
:103F6000DB2001F05FFC0021302001F05BFC002130
:103F7000A42001F057FC0021A62001F053FC0021F1
:103F8000AF2001F04FFC01F0C1FA0021084600F01B
:103F900026F810BD08B500206A46D0700121517086
:103FA000232111709070684600F084FF42206A4619
:103FB0001070684600F07EFF17206A461070684651
:103FC00000F078FF43206A461070684600F072FFE8
:103FD00016206A461070684600F06CFF08BD10B5E8
:103FE0000446B031C8B2002101F01CFC20090021B8
:103FF000103001F017FC2007000F012108430021B9
:1040000001F010FC10BD0000F0B58DB00025282196
:1040100002A80C95FCF7FAF800267F480C2486626B
:10402000C6620663466306237CA23146304600948E
:1040300001F0CAFB012001900623252200210094F3
:10404000642001F0CDFA01F0A7FA002080006D1C79
:1040500002A9ADB20E50102DF9D36F4B0020803B5A
:104060001C4640340146142779430022C918401CDD
:104070008A8380B2CA830428F4D38AE00027002F01
:1040800006D0012F14D0022F24D0032F41D131E0CC
:1040900001200021800300F063FD01465E48803866
:1040A000427E520012189184417E491C417630E0D4
:1040B00001200021C00200F053FD0146564860383F
:1040C000427B53000246203A9A181187417B491CD3
:1040D00041731EE001200021C00300F041FD617822
:1040E0004A004D4980395118403188816078401C20
:1040F00060700EE001200021800200F031FD617D42
:104100004A0045498039511840310884607D401C7F
:1041100060751420394641433F4880380E18707E40
:10412000042801D300207076304624300322002179
:1041300001F0C3FCB18B708D814200D2B083F18B52
:10414000B08C814200D9F0837F1CBFB2042F96D37C
:104150000C980A21401C80B20C90FCF759F80029F9
:1041600004D10020FFF70EFC01F016FA1E21681C96
:10417000FCF74EF802460C21062001910090032323
:104180000021542001F08CFA052000F0B7F96D1CD5
:10419000ADB27D20C000854200D26FE71E4C0020EA
:1041A00002AB803C14214143C20009198D8B9D5004
:1041B000D218401CC98B80B251600428F2D30C2461
:1041C00006231AA218210020009401F0FDFA06230C
:1041D0001AA224210020009401F0F6FA01F0DCF983
:1041E0007D25ED00284600F089F9FD2000F056FD00
:1041F0000023202202A9FD2000F096FD062312A232
:1042000030210020009401F0DFFA01F0C5F92846C2
:1042100000F074F90DB0F0BDA4F2FF1F43616C69AA
:1042200062726174696F6E2E2E2E000043616C699C
:1042300062726174696F6E204F4B21005361766921
:104240006E672E2E2E0000005361766564212100DA
:104250000EB5CF200002009001216A4611710020A6
:1042600090721072507120235372D172D0716846CF
:1042700000F09EFC0EBD0000FEB55E4F00263D46E0
:104280004035002E06D0012E11D0022E1ED0032E56
:1042900037D129E001200021800300F061FC797E04
:1042A0004900C9198884787E401C787629E001206D
:1042B0000021C00200F054FC4E4920314A7B5200DC
:1042C000D2191087487B401C48731AE00120002156
:1042D000C00300F045FC69784900C9194031888164
:1042E0006878401C68700CE001200021800200F01A
:1042F00037FC697D4900C91940310884687D401C3C
:10430000687514207043C419607E042801D300200E
:104310006076214620461A312430042200F0E4FF62
:10432000A18BE08B0090081AFCF7AAFC0190618B2E
:104330000098081AFCF7A4FC0199FCF78FFB761C87
:10434000F6B22062042E9CD33D6A7C6B294620463F
:1043500001F0C6FB06462946204601F06BFC3146BB
:10436000FCF77CFB244901F001FC224C064680341A
:10437000E061BD6CFF6D2946384601F0B1FB00904D
:104380002946384601F056FC0099FCF767FB1A49AC
:1043900001F0ECFB2062E76A05463946A06A01F0AD
:1043A00049FC00903946304601F044FC0099FCF786
:1043B00055FB666B07463146206B01F03BFC0090D5
:1043C0003146284601F036FC0099FCF747FB0546CC
:1043D0000146384601F084FB06462946384601F07E
:1043E00029FC054901F0C2FB3146FCF737FB60624E
:1043F000FEBD000024F2FF1F0000C84208B50020E7
:104400006946C87048702820087001208870684686
:1044100000F050FD0121282000F0D2FD01212820CC
:1044200000F028FE292069460870684600F042FD29
:104430000121292000F0C4FD0121292000F01AFEED
:10444000342069460870684600F034FD01213420AC
:1044500000F0B6FD0121342000F00CFE3720694643
:104460000870684600F026FD0121372000F0A8FD05
:104470000121372000F0FEFD08BD0000F0B585B039
:104480001546022803D90020C04305B0F0BD0C4EEC
:10449000C400325D012A0FD06A46107001275770A0
:1044A0000320107268460395019100F0F9FD37551D
:1044B000A01945600020E8E70120C043E5E70000BF
:1044C000D8F8FF1F70B5062802D90020C04370BD80
:1044D0001424094D60434419267B012E09D06160E4
:1044E000002666702B5401202073A16030462261A3
:1044F00070BD0120C04370BD60F8FF1F002809D0C7
:10450000012800D102200449486000200870087882
:104510000128FCD17047000070F0FF1FF8B50D4E68
:104520000746756900240D480B490068FBF770FECB
:104530007843B1690246B0698842FCD0884201D212
:10454000091A01E02B1A59180C1901469442F2D3AA
:10455000F8BD000000E000E040420F003CF0FF1F0B
:1045600070B5022802D90020C04370BD074DC400B9
:10457000295D002906D000F0EFFD002028556119C3
:10458000486070BD0120C04370BD0000D8F8FF1F17
:1045900070B50021124B0C4614224A43D0184460D7
:1045A000846044709C54491C0461C9B20473062998
:1045B000F2D30C487D21C9000068FBF729FE0A49A7
:1045C000401E88420BD80949486109480723C2693F
:1045D0001202120A4D042A43C2618C610B6170BD44
:1045E00060F8FF1F3CF0FF1FFFFFFF0000E000E04E
:1045F00004ED00E04168002910D04168491E416087
:104600000CD1012141700178012903D181684160F9
:10461000002141700069002800D000477047000069
:104620001FB50121022000F0CBFC0121032000F086
:10463000C7FC00F051F8E1204002009001200390F7
:104640000C206946488100200881C880094C888078
:10465000204600F0B9FD08480168C87820221043C0
:10466000C8700649D00108600121204600F090FD85
:104670001FBD000000A0064038F6FF1F00E100E06B
:10468000012801D0002070470048704738F6FF1F0E
:1046900001680A79120701D50A79CA790A790A7973
:1046A000120612D5828A002A10D0438A4268D25C50
:1046B000CA71418A491C89B241828289914201D3DF
:1046C00000214182818A491E81827047C878400654
:1046D000400EC870704700000B480A4901600B4942
:1046E0008160014628314160FF210131C181818112
:1046F000002141830183C182818241824162C16183
:104700000162704700A0064038F6FF1F60F7FF1FE8
:10471000F8B50023FFF7B4FF002820D0002517E0EC
:104720008489878A6E4637803688B442F9D9CC5C52
:10473000078A4668F455048A641CA4B204828689F8
:10474000B44200D30582848A641C84825B1C9BB2C1
:104750009342E5D30068C17880221143C170F8BD4F
:1047600010B5074C2078012809D00120207000F0F6
:1047700009F800F06BF900F05DF80020207010BD22
:104780006FF0FF1F10B5104C607800281AD0132866
:1047900014D008DC02280BD010280CD011280DD022
:1047A00012280DD10AE0142808D0152808D105E0F8
:1047B00000F0DEF804E000F083F8102000F022F9A9
:1047C0000020607010BD00007CF0FF1F70B588B045
:1047D0000E460446154620216846FBF717FD1B2DA3
:1047E00002D9002008B070BDAA2069460870487040
:1047F0008E70CD7000216846431908E0625C46184F
:1048000032711A79465C9219491C1A71C9B2A942CF
:10481000F4D32C462A1D05E01979065D8919641C1C
:104820001971E4B29442F7D301466A1D0120FFF7E3
:104830006FFFD6E710B588B020216846FBF7E6FC8D
:104840001D486A46418D1D4C0B1213705170818DAD
:104850000B129370D1702E21415E0B0E13710B144D
:1048600053710B129371D1713021415E080E107299
:1048700008145072081290720F48D1724038406F7D
:10488000214601F073F9FCF799F901126A46117398
:104890005073094821464038806F01F067F9FCF7F2
:1048A0008DF901126A469173D0731022F121684686
:1048B000FFF78CFF08B010BD64F2FF1F000020411D
:1048C00070B52848417902790802104340BA00B215
:1048D000FCF7D6F9244D2946FCF7C0F8234CE060DC
:1048E0002048C17982790802104340BA00B2FCF72F
:1048F000C7F92946FCF7B2F820611A48417A027AD2
:104900000802104340BA00B2FCF7BAF960611548DA
:10491000C17A827A0802104340BA00B2FCF7B0F9BB
:104920002946FCF79BF820600E48417B027B080279
:10493000104340BA00B2FCF7A3F92946FCF78EF801
:1049400060600848C17B827B0802104340BA00B215
:10495000FCF796F92946FCF781F8A06000F08EFF7D
:1049600070BD000038FDFF1F0000204124F2FF1F32
:1049700030B585B014216846FBF748FC1F4C204D2C
:10498000E068294601F0F2F8FCF718F902126946CE
:104990000A7048702946206901F0E8F8FCF70EF922
:1049A000021269468A70C8706069FCF707F9021242
:1049B00069460A7148712946206801F0D7F8FCF76A
:1049C000FDF8021269468A71C8712946606801F0D3
:1049D000CDF8FCF7F3F8021269460A724872A06833
:1049E000FCF7ECF8021269468A72C8721222102192
:1049F0006846FFF7EBFE05B030BD000024F2FF1F54
:104A0000000020411CB5002100910191AA216A46B5
:104A100011705170EF2191700721D17010710A4807
:104A2000C178001D085C5071002069460B5C8A79D2
:104A3000401CD218C0B28A710728F7D30722012080
:104A4000FFF766FE1CBD000038FDFF1F70B588B083
:104A500020216846FBF7DAFB204B6A46588B010A97
:104A600011701946507040314888040A9470D07013
:104A7000C88A1C46010A11715071D88D8034010A10
:104A80009171D071E5692846FCF798F80104090E88
:104A90006A4611725072266A3046FCF78FF801049C
:104AA000090E6A469172D0723146284601F0C2F86A
:104AB000FCF784F80104090E6A4611735073606AAA
:104AC000FCF77CF80104090E6A469173D07310223A
:104AD000F2216846FFF77AFE08B070BD24F2FF1F8E
:104AE00010B5FDF751FEFDF7D7FFFDF773FF10BDC1
:104AF00010B5FEF7E5FE194C0028607007D020784D
:104B0000002804D1022000F0C7FE00206070207849
:104B10000300FEF7EFFC0A09200C060F1215181B04
:104B20001E20FDF7FBFF16E000F0BCFC13E0FDF7D4
:104B30005BFE10E0FEF70CFB0DE0FEF739FA0AE031
:104B4000FCF7D0FD07E0FCF709FD04E0FCF7D8FB1B
:104B500001E0FEF723FCFDF79BFC10BD6CF1FF1F8D
:104B600000220346D340DB0703D1521C92B2102A25
:104B7000F7D3C30300D51022800300D516220B4BB8
:104B80009868084398609868986098689860586832
:104B90005860D006C00E186018680006FCD5186969
:104BA000196880B2802291431960704700B00340B9
:104BB000F8B500260546012134463746480700F07F
:104BC000DBFA324B9869298889B208439861A87941
:104BD000697A0143A87A084398605868E97A0843DB
:104BE0005860287A012800D12026697940200129BF
:104BF00003D10643264A41021160E979002902D017
:104C0000D9680143D9602868D9682A79521ED2B27E
:104C10001143D9601F490246E240D207D20F11D09A
:104C2000E206D20E194B32431A601B4B01221B784D
:104C3000A2409C469B00CA5063465B1C164A7F1CE0
:104C40001370FFB22A79BA4203D9641CE4B2102C63
:104C5000E1D3C2030BD510220C4B32431A600E4B2A
:104C600001241A78240495004C51521C1A708003B8
:104C70000BD51620064305480660074A0123107825
:104C80005B0484000B51401C1070F8BD00B0034061
:104C900000E100E020F3FF1F50F0FF1F410210B5BC
:104CA0000748002242700A2343720B0C037201234F
:104CB0004370090A4172027200F020F8002010BD12
:104CC0000000024010B50121080300F055FA084C1D
:104CD00060790006FCD5084806490068FBF798FA99
:104CE000401E8006800E4030E0703020607110BDA4
:104CF0000000024040420F0040F0FF1F10B572B6A6
:104D00003020074C60710749481F0160601D8847CB
:104D100062B660793321084000D0012010BD000048
:104D2000000002405DF0FF1FF8B500264002174664
:104D30000C46C5181CE01048002141700621417244
:104D4000290C017201214170290A41720572022168
:104D50004170217801726178417203214170A1781C
:104D60000172E1784172241D2D1DFFF7C7FF361D2A
:104D7000BE42E0D30020F8BD00000240F1B582B091
:104D80000298002400888206930F8205120F009279
:104D9000010702058504090F920FAD0FC00B844671
:104DA000334847696E1D0120B040314E074377619B
:104DB0006046002815D007D030698B409843306199
:104DC00030698A40104330612A48066802980179A8
:104DD0007D20C00041430F46300CFBF719FA014615
:104DE0000BE0234EF0688B409843F060F0688A40F7
:104DF0001043F060E8E7641CE4B20846E040FAD1F2
:104E0000072C33D830463946E040FBF701FA86B22A
:104E1000194968000E520298711CC08848437D21D0
:104E2000C900FBF7FFF980B28646144AA800115862
:104E30008E6000991358C9008C460C315E580427C7
:104E4000BE435E501658282373506107490F13580C
:104E5000083119600021022D01D19368D9641558D9
:104E6000634674461033EC5010584160FEBD00009C
:104E70000080044040F0FF1F52F0FF1F105D000053
:104E800070B58205150F8004840F084A6000105A1F
:104E9000401C48437D21C900FBF7C4F9044AA10026
:104EA0005258E90080B21031505070BD52F0FF1FCF
:104EB000105D0000F0B501783E4BCD064A09ED0EBD
:104EC00092009C58A6690121A9400E43A6619C58F6
:104ED00065698D4365614478002C02D0012C05D0B2
:104EE0000EE09C58A5698D43A56109E09C58A66910
:104EF0000D463543A5619C5866690D46354365618D
:104F000085782D4E2D4C012D15D12B4F9D58403FAE
:104F1000BD4203D1A5680D43A5600CE0B54203D1A5
:104F2000E5680D43E56006E0234F4037BD4202D1FE
:104F300025690D432561C17801293AD19958B142BB
:104F40000BD10278382A04D0392A06D1626980232D
:104F500001E0626940231A436261B1420BD10278D9
:104F6000202A04D0212A06D16269202301E0626947
:104F700010231A436261104B403B99420BD10278D7
:104F8000182A04D0192A06D16269082501E062694D
:104F900004252A43626199420BD100780C2804D081
:104FA0000D2806D16069022101E0606901210843F2
:104FB0006061F0BD045D000040F00F4000900440CF
:104FC000F0B51C4D1B4E43091B4F9B00184A194C52
:104FD0004035403EFB58002915D0C106C90E0120BE
:104FE0008840B34203D1916801439160F0BDA34270
:104FF00003D1D1680143D160F0BDAB42FCD111694E
:1050000001431161F0BD01218140B34203D1906899
:1050100088439060F0BDA34203D1D0688843D0603C
:10502000F0BDAB42FCD1106988431061F0BD0000B7
:105030000090044040F00F40045D0000C2064109AA
:10504000D20E8800034908580069D040C007C00F3D
:1050500070470000045D0000C1064209C90E044803
:1050600092008058C26801238B401A43C260704787
:10507000045D0000420910B59300C006074C0122F0
:10508000C00E8240E058002903D0416811434160BE
:1050900010BD81681143816010BD0000045D0000F7
:1050A00070B504460121022000F066F82548016829
:1050B0000225A943016024487D21C9000068FBF74F
:1050C000A7F8616841432078020120481218116056
:1050D000217809010918CB6801221343CB6021789C
:1050E000090109188B6893438B602178090109181D
:1050F0008B68AB438B602178090109188B681343D7
:105100008B606178012916D121780901081881681E
:105110002943816021780E4A8900E0685050207848
:105120000C49002808D0012805D1C0050860217A63
:105130001720FDF72DFC70BD012080050860217A45
:105140001620F6E70070034040F0FF1F0071034097
:1051500048F0FF1F00E100E0012809D801010548DF
:105160000818C16801221143C160816891438160C0
:105170007047000000710340044A0029516901D0C2
:10518000014300E08143516170470000008004400A
:105190000A4A10B5904202D10120000504E0084AF5
:1051A000904204D101204005FFF7E6FF10BD054AFB
:1051B0009042FBD101208005F6E7000000A00640E8
:1051C00000B0064000C00640F8B5044623480D462E
:1051D000844202D1012108050AE02148844202D11B
:1051E0000121480504E01F48844203D101218805BC
:1051F000FFF7C2FF297B204600F03AF8E078F32160
:105200000840E070A078297A0843A070A078297936
:105210000843A070A078A9790843A07012480068DC
:1052200000902968060948083018FAF7F1FF81B2A2
:105230000E48814200D90146207840094001207083
:105240002078CA04D20E104320706170E078AA7AE8
:105250001043E0703046FAF7DBFFF8BD00A00640CF
:1052600000B0064000C0064040F0FF1FFF1F0000D6
:1052700001290ED80E4B0F4A98420BD1D068CB01B2
:105280001843D060012904D10B4881680C221143D6
:1052900081607047094B984202D11069090304E00C
:1052A000074B9842F5D110694903084310617047D4
:1052B00000A00640008004400090044000B006407A
:1052C00000C0064010B5074C0548606021465831C3
:1052D000A0688861002000F0DFFA0120207010BD76
:1052E00038FFFF1FB8F0FF1F70B50C4603460021C2
:1052F000084604E04D005D5B2818491C89B29142C4
:10530000F8D31146FAF784FF208070BD10B5FAF784
:105310003DFF0621484380B210BD0021427806E0DF
:105320001C234B431B189B78012B02D0491C8A423B
:10533000F6DCC8B2704710B5FAF728FF06214843DB
:1053400080B210BD10B5FAF721FF0621484380B2A4
:1053500010BD000010B5FBF7ABFD092000F09CFA72
:1053600001490120087010BDB8F0FF1F0A4A1069FA
:105370008169002908D05160C06811465831801CED
:10538000886101201070704701690029FBD04069D5
:105390000028F8D108470000B8F0FF1F10B503201F
:1053A00000F07AFA01490120087010BDB8F0FF1F23
:1053B00010B5FBF77DFD072000F06EFA01490120D2
:1053C000087010BDB8F0FF1F10B5FBF771FD062087
:1053D00000F062FA01490120087010BDB8F0FF1F0B
:1053E00010B5FBF765FD052000F056FA01490120D4
:1053F000087010BDB8F0FF1F10B5FBF759FD042071
:1054000000F04AFA01490120087010BDB8F0FF1FF2
:1054100010B5082000F040FA01490120087010BDC5
:10542000B8F0FF1FFEF775F8FBF766FEFFF758FBB5
:105430001C20FFF703FE002801D1FEF7E5FD012344
:10544000134A33210020FFF73DF80123114A1521AB
:105450001846FFF737F801230F4AC8210220FFF74B
:1054600031F801210D4A0846FFF708F80C4A0521DA
:105470000020FFF703F801212520FFF7FBFD0020A6
:1054800000F00AFAFFF734FB6420FFF737F8F9E77A
:105490006147000005390000F5120000690D0000A9
:1054A0009D2F000038B50F4C2078002819D010200F
:1054B00000900A230C4A04216C2000F02EF91620DB
:1054C000002100901823094A084600F026F9182008
:1054D00000900C2306A21E211A2000F075F900206E
:1054E000207038BD6EF1FF1F16840000DE820000C0
:1054F000566563746F7200000346012000E0584354
:105500000A46491EC9B2002AF9D1704710B50021D8
:10551000084C0A460020C3001B195A54401CC0B254
:105520008028F8D3491CC9B20829F3D300F034F815
:1055300010BD00001CF9FF1F10B57F2814D83F29AB
:1055400012D8CB080724E31A2140641A0121A14094
:10555000064CC0000019DBB2002AC25CC9B201D0FF
:105560000A4300E08A43C25410BD00001CF9FF1F2B
:105570003F22511AC9B2CA084907490F01238B407B
:10558000D9B2044BC000C018805C084000D0012094
:10559000704700001CF9FF1F70B5104E002528460B
:1055A000B030C0B2002100F03DF90021084600F003
:1055B00039F90021102000F035F90024E0008019AD
:1055C000405D012100F02EF9641CE4B2802CF5D37B
:1055D0006D1CEDB2082DE2D370BD00001CF9FF1F59
:1055E000FFB583B00C9F0E460191F908780700D0F3
:1055F0000120081806994843C0B2203A0290D0B260
:105600000025059040E0069806280FD00C283ED1D2
:10561000182F3CD10598242148431E494018445D69
:105620000020009020060FD50D9A11E0082F06D01B
:105630000C2F2CD105980C2148431749EEE705980B
:10564000062148431549E9E70D98002812D00022A9
:1056500031460398FFF770FF6006040E761C019830
:10566000F6B2301AB84207D10398019E401CC0B26E
:10567000039007E00122EBE70098401CC0B20090C5
:105680000828CFD36D1CEDB202988542BBD307B07A
:10569000F0BD0000CA630000565F00001C5D000002
:1056A000FFB583B000261D4634460C9F31E0281B11
:1056B000401EC1B20A20FFF71FFF01460598FAF706
:1056C000A7FD0A21FAF7A4FD002E05D1681E844229
:1056D00002DA00290DD0012601220D983031019205
:1056E0000090CAB23846039960434018C0B23B46A6
:1056F0000AE001210D98019100903846039960431A
:105700004018C0B23B4620220499FFF769FF641C91
:10571000E4B2AC42CBD307B0F0BDFFB586B00F9872
:105720000C460193009106990290C918802903D96B
:105730008021C91AC9B201912118402903D94021F9
:10574000091AC9B20291C108400700D00120081807
:1057500004900298C108400700D001200818059065
:1057600000202BE0002723E0049948430899C91939
:10577000465C0025300601D5012200E000222146CA
:105780000698FFF7D9FE7006060E641C0098E4B276
:10579000211A0298814205D10698009C401CC0B293
:1057A000069003E06D1CEDB2082DE3D37F1CFFB221
:1057B000059887420398D7D3401CC0B20199039043
:1057C0008842CFD30AB0F0BDFFB585B004460D4680
:1057D00008988021081A0E9F03904020C01B16468F
:1057E000029019E00398A04202DA0024E819C5B239
:1057F0000298A84203DA00242546FFF787FE01201D
:1058000001900097327829462046089BFFF7E8FE72
:1058100008982018C4B2761C307820385E28E1D968
:1058200009B0F0BD70B50546002900D00121162051
:10583000FFF720FC00211720FFF71CFC00240021AB
:105840002320FFF717FC280601D5012100E00021E5
:105850004220FFF70FFC01212320FFF70BFC680615
:10586000641C050EE4B2082CE9D301211720FFF7D0
:1058700001FC01211620FFF7FDFB70BD10B5FE20D5
:10588000FFF70CFA002330220249FE20FFF74CFA02
:1058900010BD000024F2FF1F10B505490028087054
:1058A00002D1044901200870FAF7A6FD10BD0000DE
:1058B0006CF1FF1F6EF1FF1FFFB585B00E9F0C4608
:1058C0000291F9081646780700D0012008180899B7
:1058D0004843C0B20390084637490C2807D018281F
:1058E00068D1182F66D148680025009011E00C2F70
:1058F00060D10868F8E7009968000A5C31788A424C
:1059000005D10099401841787078814207D06D1C0C
:10591000ADB20098FAF73AFC4008A842EBD80098DC
:10592000FAF734FC4008A84244D900203EE0089829
:105930000C2802D0182806D00DE00C2F0BD118200F
:1059400068431E4904E0182F05D148201C496843CC
:10595000411800980E5C00200190300604D505988F
:10596000E1B2C0B20F9A06E00F98002813D00022CF
:105970000598E1B2C0B2FFF7DFFD7006060E641CA9
:105980000298A4B2201AB84207D10598029C401C84
:1059900080B2059007E00122EAE70198401CC0B2FE
:1059A00001900828D9D30098401CC0B203990090F8
:1059B0008842BCD309B0F0BDB0F0FF1F26710000D3
:1059C000C67F0000FFB587B004460020109E0D463C
:1059D0000590700802A931C117461EE005980028FD
:1059E00020D0002005900398801B8030A04203DA6D
:1059F000A819801C039C85B20498801B4030A842E3
:105A00000EDB1198009601903A46294620460A9BE3
:105A1000FFF752FFA01984B2BF1C3A78002ADDD1EB
:105A20000BB0F0BD802A02D901200590F5E703995B
:105A30000298081A8030A04202DAA81985B20C46F2
:105A40000498801B4030A842EADB0D2A0DD0119843
:105A5000009601900A98E9B24308E0B2FFF7C0FD52
:105A60000298001984B27F1CD7E7A81985B20C46AA
:105A70007F1CF5E7FFB583B007460D9E0E9D0C9C7D
:105A80000598FAF783FB6108414388B2A84205D91B
:105A900004AD019600940ECD38460AE0281AC10FD5
:105AA0000818C0030196009404A9000C0EC9C0197F
:105AB00080B2FFF787FF07B0F0BDF0B515460E4680
:105AC0000746A9420BDAFDF743FA0446421E314667
:105AD0003846FFF7F2FF2A46611C3846EEE7F0BD74
