:020000040000FA
:10000000D80600204B0100005701000059010000F4
:1000100000000000000000000000000000000000E0
:100020000000000000000000000000005B01000074
:1000300000000000000000005D0100009938000091
:100040006101000061010000610100006101000028
:100050006101000061010000610100006101000018
:100060006101000061010000610100006101000008
:10007000093A0000213A0000233A0000C5120000AE
:1000800061010000610100006101000061010000E8
:100090006101000061010000752E00009D2E00002E
:1000A000612A0000AD2A000061010000610100002A
:1000B00061010000610100006101000061010000B8
:1000C00000F002F800F030F80CA030C8083824180E
:1000D0002D18A246671EAB4654465D46AC4201D180
:1000E00000F022F87E460F3E0FCCB6460126334282
:1000F00000D0FB1AA246AB46334318473C9400009D
:100100005C9400000023002400250026103A01D34F
:1001100078C1FBD8520700D330C100D50B607047BF
:100120001FB51FBD10B510BD01F04AF81146FFF70D
:10013000F7FF05F071FF01F062F803B4FFF7F2FF7B
:1001400003BC03F07CFC0000704709488047094865
:10015000804709480047FEE7FEE7FEE7FEE7FEE7C7
:10016000FEE7000005480649044A064B70470000B8
:100170002D39000049010000C1000000D805002011
:10018000D8060020D80500207047000030B5441C78
:1001900003E00178401C00290DD08107F9D10B4BF9
:1001A000DD0104C8D11A91432940FAD0001B0A0688
:1001B00003D0C01E30BD001B30BD0A0401D0801E1C
:1001C00030BD0902FCD0401E30BD0000010101011C
:1001D00001E004C0091F0429FBD28B0701D502806E
:1001E000801CC90700D00270704700290BD0C307DC
:1001F00002D00270401C491E022904D3830702D595
:100200000280801C891EE3E70022EEE70022DFE780
:10021000002203098B422CD3030A8B4211D3002303
:100220009C464EE003460B433CD4002243088B42DD
:1002300031D303098B421CD3030A8B4201D394466A
:100240003FE0C3098B4201D3CB01C01A524183095D
:100250008B4201D38B01C01A524143098B4201D317
:100260004B01C01A524103098B4201D30B01C01A42
:100270005241C3088B4201D3CB00C01A52418308BC
:100280008B4201D38B00C01A524143088B4201D3E9
:100290004B00C01A5241411A00D201465241104649
:1002A00070475DE0CA0F00D04942031000D34042BE
:1002B000534000229C4603098B422DD3030A8B42F4
:1002C00012D3FC22890112BA030A8B420CD3890192
:1002D00092118B4208D3890192118B4204D3890178
:1002E0003AD0921100E08909C3098B4201D3CB01B6
:1002F000C01A524183098B4201D38B01C01A52416B
:1003000043098B4201D34B01C01A524103098B426E
:1003100001D30B01C01A5241C3088B4201D3CB0059
:10032000C01A524183088B4201D38B00C01A52413C
:10033000D9D243088B4201D34B00C01A5241411A13
:1003400000D20146634652415B10104601D3404241
:10035000002B00D54942704763465B1000D34042F2
:1003600001B50020C046C04602BD704770477047C7
:100370000246C80FC00781434B0030B54B405B00BD
:100380009B0D20D01923DB06C91801231B059942B8
:1003900020DB0324A40704251346AB400BD3002B1A
:1003A00004D1EB0613409B00E34204D4012464070C
:1003B000002312195941FF231B0599420BD2C90092
:1003C0000143500F09E0CB0204D501430803024367
:1003D00005D0054830BDFF21C905084330BD08469A
:1003E00007210905884330BD0000C07F7047000029
:1003F00010B5024800F00BFF10BD00000000C07FE8
:10040000FFFFFFFFFFFFFFFFFFFFFFFFFFFFFEFEFE
:10041000F0B50C46871A9C410D46861A9D4103D2C1
:10042000C01BA141D21963410D0D1F0DC94EEC1B1C
:10043000AE435CD07F057F0D0026002F51D02D05E7
:10044000AC46A943DD020123ED0A1B051D43202311
:100450001B1B24D41746E740381871412F46E7404C
:10046000CC199D402818314661410C0D27D16144BB
:100470009A4013D50023401C594152000ED1400828
:10048000400001224B005205D34207D3052040070C
:10049000C14201D5B04900E0B0493046F0BD6B0023
:1004A000002A00D001229A181F23203C1B1B01D5D3
:1004B000002302E0E540281871410C0DD7D001243B
:1004C00024050919C407CD0740084908E40F28434B
:1004D0006144002CD5D00024401C61419A40D0D109
:1004E000CDE76A05520DD9D1C90FC907D5E79C4D93
:1004F0004E00002801D0012400E0002434195F00E0
:10050000002A01D0012600E00026BE19954FAC421A
:100510000CD8AE420AD8B44206D001256D05EC4293
:10052000BCD010461946F0BD9942FCD00020394697
:10053000F0BDF0B51FB40C460F46811A9F41254609
:10054000861A9D4106D20125ED076F40401ABC4135
:1005500052187B41210D1E0D8D1BAC467D4D8D43E8
:100560007ED075056D0D7CD00D05AE46AC431B03EA
:100570001B0B794D52429D41202366469B1B14D391
:100580001746F740381800260090744160462F4601
:100590000741E41900989D402818664116D4714619
:1005A00071189A4025D5012320E093182A466A4104
:1005B0005200002B00D0521C1E23203E9B1B002B00
:1005C00061DD3541EE1728186641E8D500187641FF
:1005D0005B1C9A4000D3401C4B05F3181524E340E4
:1005E00010D3002B52D071467118D30FC01802D30C
:1005F000491C05B0F0BD0123DB079A42F9D1400840
:100600004000F6E701225205B21801D1002853D06C
:100610000123CC0ADB029943891E002A08D1020C6F
:1006200003D0020C0004103902E0024600202039F9
:100630000023550B05D112020823550B01D152019D
:100640000D23550C01D112011B1DD50C01D19200B7
:100650009B1C150D01D152005B1C2025EE1A01E0F8
:100660002CE022E00546F54015439840CA1AE10700
:1006700069181305C918002ABBDA032040070818B7
:10068000C10FC9070FE071466118B2E7F1074008D2
:100690000843711071444A000CD001235B059A4253
:1006A000A7D2C90FC9070020A3E74905490D26D1E4
:1006B000002001E00028F4D100219AE7284D6600CF
:1006C000002801D0012100E0002171185F00002AFC
:1006D00001D0012600E00026BE19224FA94210D801
:1006E000AE420ED8B14208D001256D05E94206D0D0
:1006F0001946A802414010467BE79C4201D02146A2
:1007000077E70020394674E710B50C465C4005D504
:100710000124E4076340FFF70CFF10BDFFF778FEEC
:1007200010BD30B40C465C4004D50124E40763409E
:1007300030BC6DE630BCFCE670B50124E4076140D6
:100740000D465D4002D4FFF763FE70BD6340FFF7C6
:10075000F0FE70BDFF0700000000F0FF0000F07F1A
:100760000000E0FF0000F87FF0B5F94D0C091E090C
:100770002C402E402F468BB0A7437DD0B543FCD0F4
:10078000002E7AD0002CFCD00D465D40ED0F2543A5
:10079000AC1BFF25AD0464190894C502440DC902C1
:1007A0002143500DDC0204430120C00701430443F0
:1007B000D2020191200C110C00958C4601042346B5
:1007C0008B430A9161460904E24D8A430991010A6B
:1007D0007D4449198039097805464D4301266D1835
:1007E000F605751B6943C90C640B891C4C436418DE
:1007F000B5012C1B250C2E04B4434C434D43210C56
:10080000691889090591009DE90701D00121C907EF
:1008100004912C4601996708CD072F434C08059D8C
:10082000E10B4D432D0C29466646754302950D4656
:1008300045432E46029D7D1BB44100950D465D4308
:1008400001942C0C2F040D465543AE462D0C3D4310
:10085000029503947546049C2D04641B049406D2EF
:10086000029C039D641C002675410395029401AC13
:1008700070CC009F7D1B01E03EE162E1B4410904C0
:100880000095079101940599A4086143090C0C4651
:100890004443650BE7040C4666467443A646640B66
:1008A0003C43039502947446049DE4042C1B049479
:1008B00006D2029C039D641C002675410395029498
:1008C00001AC70CC009F7D1BB44101940C465C438D
:1008D0000095650FE7000C465443A646640F3C4361
:1008E000039502947446049DE4002C1B049406D2E4
:1008F000029C039D641C002675410395029401AC83
:1009000070CC009F7D1BB441AE09AF06049DC900A9
:10091000AD092F43049DA406AD060495079D3443FD
:1009200069180791059DE10B4D432D0C294666463C
:10093000754302950D4645432E46029D7D1BB441ED
:1009400000950D465D4301942C0C2F040D46554334
:10095000AE462D0C3D43029503947546049C2D0430
:10096000641B049406D2029C039D641C00267541FE
:100970000395029401AC70CC009F7D1BB44101949F
:100980008C050694079C890A611800950791019CC3
:100990000599A4086143090C0D464543680BEF0413
:1009A0000D46644665436C0B3C43049FED047D1B80
:1009B000AC4602D20025641C6841009E019D371B95
:1009C00085410846584301950C46460FC5005443DF
:1009D000600F28436546E4002C1B02D20025401C12
:1009E0006E41019D3F1AB5412846BD098006284346
:1009F0008446A009BF064E020699A406761807434E
:100A0000079D002068410A99079019430020099B1F
:100A100000906046FF1913434041E20F64003A43DF
:100A2000A4460446D71A8C41A04203D90120009065
:100A300020463A46C70F941840416246D20F2243DF
:100A4000644664000494009CBE466400D71AA44621
:100A5000044602978C417746002F01D1A04204D969
:100A60006046401C8446029A2046C40FA64694184D
:100A70004041049A0546D20F224364466400D31ACB
:100A80008D417146002901D1A84202D928461A4653
:100A9000641C10430122002800D01643610200208C
:100AA000079B891904465C410223002C02DB49188C
:100AB00013466441089DCE0A2D145D194B05670548
:100AC000E10A2C050D1908993E43C9076940002B1E
:100AD00008D0934006D30022761C5141002B01D14F
:100AE000760876001C4A002D43DB154241D0AA430C
:100AF0003FD030460BB0F0BD06180D464D41174CA7
:100B00007642AC411AD395181C465C41134A6D429B
:100B1000A24113D3012252054C00D4420AD15C00F9
:100B2000D4420BD04B4002D592021143E2E7490078
:100B30004908DFE75940C90FC90718E000200849F4
:100B4000D8E7054801420DD10342F7D0F2E7000093
:100B50000000FF07568A00000000F07F0000E0FF61
:100B60000000F87F114859400143C0124140002065
:100B7000C0E70123089A9B069A4205DC032252072C
:100B80008918C90FC907B5E7052252078918074A0E
:100B90001143D2125140ADE770B515461C460246CE
:100BA0000B4628462146FFF7DFFD70BDFFFFFF7FA4
:100BB0001F22030C02D10F22000402D0030E03D027
:100BC00004E00020014670470002083A030F01D1FB
:100BD0000001121F830F01D18000921E002801DB4B
:100BE0004000521E120551184205C012411810460D
:100BF0007047C10FC90700D040420122920711433C
:100C0000D6E701218907D3E7F0B58B4C0F092546BC
:100C100089B0BD437BD01D092646AE43FAD00E46AF
:100C20005E402740F60F3E43254071D0240121420B
:100C3000FBD0FF24AD19A4042D1B039501252D0520
:100C4000DB02DB0AC9022B43C90A29431E01090141
:100C5000040F130F050121431701880B82039143F1
:100C60002D098C46A90B1E438A039543B30B9A03A7
:100C700096433F09BA0B9403A74302962E467E4340
:100C80000497B6464E19D7190C460196544305975A
:100C90007E43371B7646BF1B3601B646BE0B361960
:100CA00000967646BC043719009C01D3641C00945E
:100CB0006400002F01D001263443029E049F754337
:100CC00066467E430496760034196E00341900940B
:100CD000029C019E1C196643751BAE460694654630
:100CE0004519059C05956C43594375460891691A49
:100CF0000191049E01465143A41B0491611A009C7A
:100D00000791E10605D061090122114302E072E07A
:100D10006EE06109089D00272C0A2D066918049DC4
:100D20007C412A0A2D066918019D6241AC0DAD0275
:100D30006D185441079A910D920255196141029A1A
:100D4000644658435443069B059A5A43121A131B90
:100D50009A0E9B015B187A41010B0005C3185141A3
:100D6000220A200644195A419A4200D2491C012005
:100D70004002814203D315230226F64302E01423E6
:100D80000326F6432020C51AA9401746AF40DA4093
:100D90000A4320460399D8400914731819055118BD
:100DA000039A3843D2075140AC4009D00122944005
:100DB00006D30022401C5141002C01D140084000C4
:100DC0001E4A934212D3012203989206904207DBF7
:100DD0000520400709181A480143C012414004E0A9
:100DE000032040070818C10FC907002009B0F0BD53
:100DF0000020F107FAE705180C464C4111486D42F6
:100E0000A04115D394181A465A410E4864429041A5
:100E10000ED301204A004005824209D35A00824283
:100E200006D35940C90F084AC90700201143DDE71E
:100E300000200649DAE700000000FF07FE07000077
:100E4000FFFFFF7F0000E0FF0000F07F0000F87F61
:100E50000121C9050123411842001B06D3185B0E6E
:100E60000AD0C1100722D206891840075242D14247
:100E700001D5520089187047090208D50146002A99
:100E800003D0C10FC90700207047104670474202C7
:100E900002D0002002497047072109050143F4E709
:100EA0000000F87FF0B5FF252D04C609C209FF2711
:100EB00004462E400137CB093E4348402A402B4090
:100EC0000746002A6BD0002B69D0AA4267D0AB42FC
:100ED00065D0002800DA32460125ED0529432C4370
:100EE00009022002090AD21A4B0C7F24E31A434C50
:100EF000000A7C44E35C7D242404121914145B0072
:100F0000A218884201D3521C00E0400049420C461E
:100F10005C4324115C43DB016415E318040A5C4361
:100F2000C502200D0C4644436419250A5D43230382
:100F3000EC0C0D46654300030019EB184C42A3422C
:100F400001D35B18401CD4052018002B07D05B0090
:100F5000C91804D3401C002901D1400840003F219A
:100F600089048A4209D3002A08DC1106090F04D03B
:100F7000032149074018C00FC007F0BD01224100FE
:100F8000120689187F2252069142F6D2052149079E
:100F9000C84201D59010F0BDFF20C005F0BD002F64
:100FA00000DA32461648AA4207D2AB4205D21902ED
:100FB000090E17D0F80FC007F0BDFF2563002D06FE
:100FC000AB42F9D84900A942F6D8AB4201D1A942B7
:100FD000F2D0A94201D1002101E061004908D00509
:100FE0000843F0BD1102090EFBD0FF200243D005DB
:100FF000F0BD0A460146104654E70000B4830000E5
:101000000000C07F10B501469E240002CA15A30748
:10101000002A02D01843002A04DBA21A002A0CDDA1
:10102000D04010BD1206120E01D140004008A21A95
:1010300003D4D04040420028F3DDFF2248001206CE
:10104000904201D9002010BDC817C043584010BDC0
:101050000102C21504D00123DB071943002A0ADB71
:101060009E239A1A02D40846D0407047FF224100BE
:101070001206914201D900207047C017C043704743
:101080001F22030C02D10F2200041CD0030E01D139
:101090000002083A030F01D10001121F830F01D192
:1010A0008000921E002801DB4000521ED20551181C
:1010B000021251181922904004D3491C002801D172
:1010C0004908490008467047C10FC90700D040428F
:1010D000012292071143D3E701218907D0E70000DD
:1010E00010B5FF22C30D134009D05A4007D09142DA
:1010F00005DA5C42A14202DDC905081810BDC40F23
:10110000E407002B06D0002A06D0002902DBFF20CE
:10111000C0050443204610BD4102FCD0004810BD6C
:101120000000C07F10B5FF231B0644009C421DD861
:101130004C009C421AD80346124A0B4307D4401A6B
:1011400002D3EFF3008010BDEFF3008010BD081A4A
:1011500006D2EFF3008001219043C907084302E063
:10116000EFF30080904380F3008810BD0D231B0433
:101170001A4204D01146002000F006F810BDFFF717
:1011800037F910BD00000090C80212D54803400F87
:10119000002804D0C803C043012188407047EFF302
:1011A00000800001000903210907084380F300883B
:1011B0007047002070470000004870477405002009
:1011C0007546FFF7F9FFAE46050069465346C0086D
:1011D000C000854618B020B5FEF7C4FF60BC0027EC
:1011E0004908B6460026C0C5C0C5C0C5C0C5C0C5F3
:1011F000C0C5C0C5C0C5403D49008D46704710B54B
:101200000446C046C0462046FEF797FF10BD10B505
:101210000C461107090F092904D00A290AD0082908
:101220000CD104E011460820FFF7AEFF06E051069E
:1012300006D501E0510601D50120C007214610BDA9
:10124000D10607D501010909CC084907000E00069F
:10125000044309E0410F20024907000A0143200E20
:1012600000061D22D14101430846E7E770B58C18FE
:101270000578401C6B075B0F01D10378401C2A11D5
:1012800006D10278401C03E00678401C0E70491C11
:101290005B1EF9D12B0705D40023521E0DD40B7011
:1012A000491CFAE70378401CCB1A921C03E01D7816
:1012B0000D70491C5B1C521EF9D5A142D8D30020E9
:1012C00070BD000030B5094A0020064C064913786D
:1012D00004E022694500401C4A53C0B29842F8D34A
:1012E00030BD000000B003405CF6FF1F80F0FF1F20
:1012F00070B5184C6089401C6081E088401CE0801B
:1013000000F0A0F860890025030002F08BFB061EA8
:10131000100411141A1E6088401C80B260800628D8
:1013200005D36580A58002F03DFD00F031FB70BD66
:1013300003F0CEFB70BD00F0F7F9E58000F020F877
:1013400070BD00F0D3F8658170BD65816580A580B2
:10135000E58070BD00F0FF1F10B50121024A08466C
:1013600003F0DCFC10BD0000F112000010B50121FB
:10137000252004F01BFA012003F04AFD10BD0000F7
:10138000FEB52A4C2A4E206C716B05F03BFA0746DD
:10139000716E05F037FB0246009020463946B8389A
:1013A00004F0A6FBE01FF938016F224B1A029942A4
:1013B000016F00D35140856F9D42856F00D355402A
:1013C000384605F08FFA01902946009805F08AFA10
:1013D00000903220205E1D30FFF776FE164905F0A2
:1013E00081FA0290B06AF0621449009805F07AFA26
:1013F00005461349B06E05F075FA294605F002FA64
:10140000019905F0FFF9029905F0FCF9B06281211C
:10141000206CC905884205DA7F21C905C84201D27E
:101420000020B06277660098B066FEBDF4F5FF1F3D
:1014300000F0FF1F00008080EC51B83D3333333F94
:101440009A99993E70B50B4CE16AA06A0D4605F079
:10145000D9FA06460620205E401CFFF735FE3146CD
:1014600005F040FA0449FFF71DFD294605F0CAF9C9
:10147000606270BD00F0FF1F0000A040F8B5144985
:10148000896D05F0B3FA134E0446706CFFF7E0FC6B
:10149000114A124BFFF7B8FBFEF76AFF07462046DA
:1014A000FFF7D6FC0E4A0F4BFFF7AEFB04460D4686
:1014B0003846FFF7CDFC22462B46FFF725F9FEF70D
:1014C00057FF01467064084805F01EF8F8BD00009B
:1014D000F4F5FF1F00F0FF1F666666666666E63F6E
:1014E000333333333333D33FF4F4FF1FF8B51B4D9D
:1014F000696A286A0F46064605F084F9FFF782FDFF
:1015000004B23946304605F07DFAFFF77BFD01B2A3
:10151000134A2020105E43421AB2A04201DA044668
:1015200002E0A34200DD1446884201DA014602E0EF
:101530008B4200DD11460A4840388482C18208206F
:10154000285E022806DD0021084602F057FE02F060
:10155000B1FBF8BD204602F051FEF8BD00F0FF1FC0
:1015600034F6FF1FFEB500252D4C2E46256465641C
:10157000E5642C4FA564E01F00953346324639469A
:10158000F938019504F0E8FF2046009633463246CC
:101590003946DC38019604F0DFFF2449244ACE6343
:1015A00021480A648863E71F2249F93FF964224908
:1015B000B96438672149B967F86720468038066002
:1015C00042601F4838660020F8651E48B86520460E
:1015D000B83804F043FCFD235B0214206843C019B3
:1015E0008030E900868206724681C91806610A8841
:1015F00082816D1C8988EDB2C181072DEDD3A68251
:10160000E682A661E66126628320C005074966621C
:101610006065086302480C4940300184FEBD00004B
:10162000F4F5FF1F000020430000184200F0FF1FE8
:1016300000002A4400004842000016430000114404
:10164000000008433333F340B60300001FB5002009
:1016500000900190029003900648406D0090FC209D
:1016600003F0B8FE042200236946FC2003F0F8FED4
:101670001FBD0000F4F5FF1F10B50C480A490167B3
:101680000B49816700210B4A4160026081608162E1
:101690004262C162FF3008490130416504F068FFD1
:1016A000FFF7D4FF10BD000000001842F4F4FF1F44
:1016B000000066430000484300008841F8B5144923
:1016C000C96D05F093F9134E0446B06CFFF7C0FBEB
:1016D000114A124BFFF798FAFEF74AFE07462046DA
:1016E000FFF7B6FB0E4A0F4BFFF78EFA04460D4686
:1016F0003846FFF7ADFB22462B46FFF705F8FEF70D
:1017000037FE0146B0640248DC3804F0FDFEF8BD47
:10171000F4F5FF1F00F0FF1F666666666666E63F2B
:10172000333333333333D33FF8B55348534D4189C3
:101730000A2905D2C08B0A2802D22889401C288198
:101740004D4C2878803405264D4FA26C030002F0E2
:1017500069F9060432566F818987484801247F2140
:10176000E405C905C06CA24202DB05F04BF805E0B8
:10177000BA4201D2E86C02E005F044F9E86441495C
:10178000884203DCFF218905C84213D903F058FBC6
:10179000A86501202870052211460A2002F09CFA53
:1017A000E86CB84201D3012002E0A04202DB022033
:1017B00002F0B3FCF8BD03F043FBA96D401A7D2194
:1017C000C900884200D92E70A66CE86C31460090A2
:1017D00005F088F8B842EDD30098B84201D346200E
:1017E00001E04520C043FFF76FFC6863E06B2E65A6
:1017F000686503F025FBE86502202870F8BD03F05A
:101800001FFBE96D401A7D210901884200D92E7025
:10181000E06B696D05F0F6F804F002F91A498842A8
:10182000ECDD0020686303F00BFB28660320E4E78F
:1018300003F006FB296E401A1449884200D92E7025
:10184000A16C286D05F04EF80121C9058842D5DB51
:101850000420D2E75000000E02D060885A28CDD96B
:101860002E70F8BD002002F047FC0020E8642865D7
:101870006865A8656863C0E774F5FF1F00F0FF1F87
:1018800000008080000040400000204288130000DB
:101890007CB5354C354DA089002815D1384934A088
:1018A0008861686DA062084601F066F820462C3019
:1018B00000F0C5FB2046443000F0C1FB20465C3000
:1018C00000F0BDFB0120A0812E487F260078F605A0
:1018D000072822D001282AD0042837D02248012105
:1018E0002C3000F0FCFA20480121443000F0F7FAD7
:1018F00018250C2324A210210A20009504F0AAFD2B
:10190000A06AFFF7A5FB02460C20009002231021DD
:101910000195582004F00AFD7CBD134800212C30AD
:1019200000F0DDFA3146A06A04F06CFF0CE00E48CE
:101930000021443000F0D3FA0121A06AC905884291
:10194000D6DB314605F05EF8A062D1E7A06A686593
:101950000020A081FFF77AFE03F052FC022004F081
:101960002BFEFFF7F9FCC3E740F4FF1FF4F5FF1F60
:1019700053657420546172676574537070656400B8
:10198000E0F3FF1F3DF4FF1F53706565643A0000EC
:10199000F8B5284C606DA065E065A069FFF729F9EE
:1019A000254F264B3A46FFF72FF90022244BFFF72D
:1019B0002BF90022234BFEF7D7FEFEF7D9FC20625D
:1019C000092003F0D7FEFE070028206A01D17040ED
:1019D0002062FFF753FD1C4D696904F013FF686135
:1019E000E069FFF706F93A46144BFFF70DF90022BC
:1019F000134BFFF709F90022124BFEF7B5FEFEF775
:101A0000B7FC6062262003F0B5FE012802D1606AAF
:101A100070406062616A206A04F0F4FE0021C943EC
:101A2000FFF75EFB2065FFF749FE296A04F0EAFE36
:101A30002862F8BDF4F5FF1FABAAAAAAAAAAB03F74
:101A400000003D400000514000F0FF1F7CB5334CCA
:101A5000334D6089002815D1364932A08861686805
:101A60006062084600F088FF20462C3000F0E7FA5C
:101A70002046443000F0E3FA20465C3000F0DFFA04
:101A8000012060812C482D4E0078072822D00128A3
:101A90002AD0042833D0214801212C3000F01FFA2D
:101AA0001E480121443000F01AFA18250C2324A204
:101AB00010211420009504F0CDFC606AFFF7C8FAED
:101AC00002460C2000900423102101953A2004F0D6
:101AD0002DFC7CBD114800212C3000F000FA31466D
:101AE000606A04F08FFE08E00C480021443000F0EA
:101AF000F6F93146606A04F085FF6062D5E7606AF6
:101B0000686004F035FD0020608103F079FB02205D
:101B100004F052FDFFF720FCC7E7000040F4FF1F70
:101B200074F5FF1F446972656374696F6E204B64BE
:101B300000000000E0F3FF1F3DF4FF1F0000A04085
:101B40004B643A007CB5354C354DE088002815D102
:101B5000384934A08861E86FE061084600F00CFF66
:101B600020462C3000F06BFA2046443000F067FA33
:101B700020465C3000F063FA0120E0802E483F26CA
:101B800000783606012825D007282DD0042836D025
:101B9000224801212C3000F0A2F9204801214430D4
:101BA00000F09DF918250C2324A210211420009583
:101BB00004F050FC2249E06904F094FEFFF748FA73
:101BC00002460C2000900423102101953A2004F0D5
:101BD000ADFB7CBD114800212C3000F080F931466E
:101BE000E06904F00FFF08E00C480021443000F0E9
:101BF00076F93146E06904F005FEE061D2E7E0697C
:101C0000E86704F0B5FC0020E08003F0F9FA022058
:101C100004F0D2FCFFF7A0FBC4E7000040F4FF1F74
:101C2000F4F4FF1F446972656374696F6E204B7032
:101C300000000000E0F3FF1F3DF4FF1F4B703A006F
:101C400000002041F8B5244C05462078002841D0FA
:101C5000284604F05DF960610021A0616956814267
:101C600001DD002028701C482978007D1A4C401A9C
:101C7000C6B2583468782169884200D800261648D0
:101C80006661583000F078FE1348743086616978D8
:101C9000016100F0E3FD20696978C7B2814200D29A
:101CA0000F4600240AE030191C2148434219200144
:101CB000011B1E20133100F04DFC641CBC42F2DB02
:101CC00005491C228869504340190122086182702D
:101CD00000200870F8BD000088F3FF1FF8B5002A47
:101CE0007ED0540054438718012B41D0861A022B12
:101CF0007BD0032B76D0042B72D1154600260091A1
:101D00000098069AC1B2B8B200F000FD0098761CA7
:101D1000401E00906800024671006A4371435118EA
:101D2000091B081A401C002801DD6D1E7F1EAE42F3
:101D3000E6DB0098069AC1B2B8B200F0E7FC28468C
:101D4000410070006D1E891E024669437243891866
:101D5000091B0818401C7F1E002803DC0098401E49
:101D6000761C0090002DE4DC0098C1B2B8B276E099
:101D700000970D46164600270098E9B280B2069AF1
:101D800000F0C4FC70007F1C01467A0071437A4366
:101D90008918091B081A401C6D1C002803DD0098D7
:101DA000401E761E0090B742E6DB0098E9B280B292
:101DB000069A00F0ABFC00993046491E00914100A4
:101DC0007800761E891E024671437A438918091BE2
:101DD0000818401C002801DC6D1C7F1C002E02E04E
:101DE00040E002E03FE0E0DC75E0154600270091AE
:101DF0000098069AC1B2B0B200F088FC00987F1C2F
:101E0000401C00906800024679006A4379435118EB
:101E1000091B081A401C002801DD6D1E761CAF420C
:101E2000E6DB0098069AC1B2B0B200F06FFC28461B
:101E3000410078006D1E891E024669437A43891865
:101E4000091B0818401C761C002803DC0098401C65
:101E50007F1C0090002DE4DC0098C1B2B0B2069A5D
:101E600000F054FCF8BD00960D4616460027009879
:101E7000E9B280B2069A00F049FC70007F1C02466D
:101E80007900724379435118091B081A401C6D1ED2
:101E9000002803DD0098401C761E0090B742E6DB68
:101EA0000098E9B280B2069A00F030FC0099304602
:101EB000491C009141007800761E891E024671433C
:101EC0007A438918091B0818401C002801DC6D1E84
:101ED0007F1C002EE4DC0098E9B280B2BFE77CB53D
:101EE0000446C0680D460E287DD3A0681E287AD30C
:101EF000206904F006F8A168884274D825750C267C
:101F000061682068002D11D00122801D891D00F01C
:101F10002EF9206903F0F5FFA168081A218840080E
:101F20004018002180B2009601916CE00022801DD3
:101F3000891D00F01CF901250095206861680323C4
:101F40000622801D891DFFF7C9FE0095A168206843
:101F500042186168801D0B46D21F00F094FA00956C
:101F6000A16820680423401861680622C01F891DEB
:101F7000FFF7B4FE0095E1686068A2684118206828
:101F80004B1E8218801D491ED21F00F07CFA00955E
:101F9000E1686068A2684118206801238018062261
:101FA000C01FC91FFFF79AFE00956168E0680B1813
:101FB0002068891D0246DB1F00F065FA0095E16884
:101FC00060680223411820680622801DC91FFFF7A0
:101FD00085FE00956168E068A2680B18206880188B
:101FE000421E401E00E018E0891DDB1F00F04BFA86
:101FF000206903F086FFA168081A2188400840186C
:1020000080B200960195E168A2880C394908511800
:1020100089B20C23226904F067FB7CBD10B504F083
:10202000BBF810BD38B51446C9B280B26A4600F09C
:10203000AAFB6846017801206140884338BD7CB521
:102040000446C0680E287BD3A0681E2878D3206978
:1020500003F057FFA168884272D8012500952068D7
:10206000616803230622801D891DFFF737FE009556
:10207000A168206842186168801D0B46D21F00F0DD
:1020800002FA0095A16820680423401861680622BE
:10209000C01F891DFFF722FE0095E1686068A268F5
:1020A000411820684B1E8218801D491ED21F00F067
:1020B000EAF90095E1686068A26841182068012388
:1020C00080180622C01FC91FFFF708FE009561682F
:1020D000E0680B182068891D0246DB1F00F0D3F969
:1020E0000095E16860680223411820680622801D7F
:1020F000C91FFFF7F3FD00956168E068A2680B183F
:102100002068891D8018421E401EDB1F00F0BBF9AD
:10211000207D0C26002814D0206861680122801DD3
:10212000891D00F024F8206903F0EBFEA168081A6D
:10213000218840084018002180B2009601910BE0F0
:1021400014E0206903F0DDFEA168081A2188400828
:10215000401880B200960195E168A2880C394908C0
:10216000511889B20C23226904F0BEFA7CBDF7B580
:10217000D8B00C460546802874D2402C72D2E1B209
:10218000A8B250AA00F0FFFA50A802785A98D107D6
:10219000C007C90FC00F814264D02146284655941C
:1021A00000F0CCFA0646569050A802782146284600
:1021B00000F0F1FA54908019400829940194289075
:1021C00001240090254601E0002D7BD0E90028A8DD
:1021D00008188038816F5291C66F50A86D1E027822
:1021E000EDB23146529800F0A9FA539050A8027807
:1021F0003146529800F0CFFA519050A80278761CE0
:1022000031465298FFF70EFF002804D050A80278FC
:102210003146529815E0539F08E050A802783146A5
:102220003846FFF7FFFE002803D17F1C51988742F4
:10223000F3D951988742C7D850A8529702783146AF
:10224000384600F0A8FA519050A8027831465298CA
:1022500000F074FA5390142C1FD2471E58975990CF
:10226000074617E07EE050A80278711E3846FFF757
:10227000D9FE002827D059995898884207D05891FC
:10228000E00069460F504018641CE4B24660142C0C
:1022900003D27F1C51988742E5D9539951985A9B94
:1022A0004018400852905198F1B282B2539880B2CF
:1022B00000F0D5F8142DA0D2539F59977F1E589740
:1022C000599F19E01FE05997E1E750A80278711C67
:1022D0003846FFF7A7FE002813D05999589888422E
:1022E00007D05891E80028A90F5040186D1CEDB296
:1022F0004660142D81D27F1C5198874200D97CE71B
:10230000E3E75997F5E7002C20D0E100684608186C
:102310008038816F5291C66F50A8641E0278E4B273
:102320003146529800F00AFA539050A8027831468C
:10233000529800F030FA074650A80278761E3146CF
:102340005298FFF76FFE00280ED020E0002D00D03D
:102350003AE754985A9B82B25598C1B2569880B2C7
:1023600000F07DF85BB0F0BD539809E050A802780A
:1023700031465198FFF756FE002804D15198401C71
:102380005190B842F2D95198B842BCD8529050A856
:1023900002783146529800F0FEF9074650A80278BC
:1023A0003146529800F0CAF95390142D20D259901A
:1023B000401E5890599818E050A80278711C519806
:1023C000FFF730FE002826D059995898884208D047
:1023D0005891E80028A9519A0A5040186D1CEDB296
:1023E0004660142D04D25198401C5190B842E3D954
:1023F0005398BAB23818400852905398F1B280B24C
:102400005A9B00F02CF8142C96D253985990401EE9
:10241000589059981BE051985990E2E750A80278DB
:10242000711E5198FFF7FEFD002815D05999589854
:10243000884208D05891E0006946519A0A504018E5
:10244000641CE4B24660142CDED25198401C5190BA
:10245000B84200D970E7E1E751985990F3E7F8B531
:1024600015461E460F460446A84202D9D0B225465C
:10247000044632463946204600F048F9641CA4B2AE
:10248000A542F6D2F8BDFFB583B0054605980C46C7
:10249000411B06980027021BFF43002902DD012093
:1024A000029002E0002904DA0297002A09DD0127E0
:1024B00011E0C2B2E1B2A8B20C9B00F02CF907B057
:1024C000F0BD002A07DB0598E1B282B2A8B20C9BEE
:1024D000FFF7C5FFF3E702984843394651434200EE
:1024E00000924A00019288421CDB161A0098101ACA
:1024F00000900EE0E1B2A8B20C9A00F007F9029841
:102500002D18002E02DA0198361802E0009886197C
:10251000E41905988542EDD1E1B2A8B20C9A00F019
:10252000F5F8CCE70098461A801A01900EE0E1B267
:10253000A8B20C9A00F0EAF8E419002E02DA00982A
:10254000361803E00198861902982D1806988442DF
:10255000EDD1E1E7FEB514460D460646802805D8C4
:10256000402D03D8022D01D3122E01D20020FEBD32
:10257000E0680028FBD0A27830461023A91E12384C
:102580000C27002A12D06268002A04D0C9B2C0B257
:10259000009303F008FF002001900097A9B2B0B2A9
:1025A0000C23E26804F0A0F80120FEBDA268002A16
:1025B00005D00093C9B2C0B2102303F0F4FE01208D
:1025C000EAE7000010B5002902D00121002401E053
:1025D000002101240448FFF782FC034821461830FB
:1025E000FFF77DFC10BD000050F3FF1FFEB58168B2
:1025F000044614293CD3E068142839D325686A18A6
:10260000802A35D861680B18402B31D8002728461E
:10261000521E5B1E009700F0F4F8012500956168DA
:10262000E068A2680B1820685B1E8218521E00F03A
:10263000CAF820882189304B4118491E8AB2217975
:1026400080B20E31C9B21B78FFF709FF0095A1686F
:10265000206842186168521E0B460D3300F0D1F815
:10266000206903F063FC0246A068811E8A4201D9FA
:102670000020FEBD80B20C26019700960290A08833
:102680003346401C81B22088226980B204F084F86D
:102690001A480775A16901612168491D0160E26856
:1026A00061688918C268891A091F4160FFF7C7FC71
:1026B000124818300575E1690161A268216889181E
:1026C0008268891A891F0160E26861688918C26896
:1026D000891A091F4160FFF7B2FC00960195A08896
:1026E0000C23113081B220886269801D80B203F012
:1026F000FBFF0120FEBD00004EF3FF1F50F3FF1F44
:102700000148007D7047000050F3FF1F10B5C0B2B4
:1027100003F058FD10BDF8B515461E4607460C4699
:10272000A94201D90D461446324621463846FFF7E4
:10273000EDFF641CE4B2A542F6D2F8BDF8B5D507AA
:10274000441EED0F0E46002C0ED0F1B2A0B26A4628
:1027500000F019F868460078C007C00FA84201D001
:10276000601CF8BD641EF0D1F1B200206A4600F092
:102770000AF868460078C007C00FA84201D00120BF
:10278000F8BD0020F8BD10B51446C0B203F036FD08
:102790002070002010BDF8B5441CD5070E46ED0F83
:1027A0000DE0F1B2A0B26A46FFF7EDFF684600788F
:1027B000C007C00FA84201D0601EF8BD641C802C69
:1027C000EFD38020F8BDF8B51C4615460E460746E7
:1027D00092B2C9B280B2069BFFF741FEAAB2E1B243
:1027E000B8B2069BFFF73BFEE2B2F1B2B8B2069B6D
:1027F000FFF791FFE2B2F1B2A8B2069BFFF78BFFA1
:10280000F8BDF8B517461E460C460546B84201D934
:1028100015460746B44201D91C460E46B44206D1BD
:10282000BAB2E1B2A8B2069BFFF719FEF8BDBD42ED
:102830000DD1F2B2E1B2A8B2069BFFF76CFFF8BD72
:10284000BAB2E1B2A8B2069BFFF709FE641CB4421B
:10285000F6D9F8BD10B503F0E5FC10BDF8B50400DD
:1028600052D0A2680A2A4FD3E06814284CD301251D
:10287000009561680B1820685B1E8218521EFFF7D6
:10288000A2FF0826009620892178083840080818F9
:102890002179C0B2491CC9B233461C4A03F083FDFA
:1028A00000962079217B227840180938C1B220890E
:1028B0000823083840081018144AC0B2083203F040
:1028C00072FD0095A168206842186168521E0931A6
:1028D0000B46FFF7D8FD0095E1686068A2684118D3
:1028E00020680A3982180B46521EFFF7CCFDE068BB
:1028F0006269216914388A4202D25043FDF788FC8C
:10290000E061204600F004F8F8BD0000FA910000F4
:10291000FEB504468189808B091A14398EB221884C
:10292000491C8AB20192A188721E0A318DB28018A8
:10293000218900220092C91E019A89B280B25718DB
:102940002B183A4629460198FFF75BFF2169606919
:10295000814201D8002005E0A069491E7043FDF7BF
:1029600057FC80B2012100912918E269019853189F
:102970003A46FFF746FFFEBDFEB5816804461429BE
:102980003BD3E368142B38D320684218802A34D80C
:102990006168CB18402B30D80025521E5B1E009575
:1029A000FFF72FFF012600966168E068A2680B1808
:1029B00020685B1E8218521EFFF705FF20882189C0
:1029C000174B4118491E8AB2217980B20E31C9B223
:1029D0001B78FFF744FD0096A168206842186168E3
:1029E000521E0B460D33FFF70CFFA06903F0A5FA4A
:1029F0000246A068811E8A4201D90020FEBD80B235
:102A00000C21019500910290A0880C23401C81B2FA
:102A10002088A26980B203F0BFFE0120FEBD000045
:102A20004EF3FF1F10B5242002F0A4FE012801D0B0
:102A3000012010BD002010BD10B51C2002F09AFE30
:102A4000012801D0012010BD002010BD10B51B20B1
:102A500002F090FE012801D0012010BD002010BD21
:102A6000F8B50F4D0024A8680E4E000712D50E4F82
:102A7000387884420ED2E96820460C2250433258FE
:102A8000114204D080198068002800D08047641C5F
:102A9000E4B2EDE7A86824210843A860F8BD00006F
:102AA00000900740ECF6FF1F9AF0FF1FF8B50F4D9E
:102AB0000024A8680E4E000712D50E4F38788442C5
:102AC0000ED2E96820460C2250433258114204D0FD
:102AD00080198068002800D08047641CE4B2EDE7CC
:102AE000A86824210843A860F8BD000000A00740A2
:102AF000ECF6FF1F9AF0FF1F10B52C2002F03AFEF3
:102B000010BD10B501212D2002F050FE10BD10B5F2
:102B100000212D2002F04AFE10BD10B501212C200D
:102B200002F044FE10BD10B500212C2002F03EFE44
:102B300010BD08B500206A46D07050702C2111706D
:102B40009070684602F052FD08BD08B500206A4644
:102B5000D070012151702C2111709070684602F0E4
:102B600045FD08BDF0B50021124D134F134B0A4629
:102B700005261C204843401946708C00827047602F
:102B800082601C5902614261491CC9B2C460826101
:102B90000529EED30120A870094828610948E86298
:102BA00004480A498C3068630748686601488030E9
:102BB0000160F0BD600300200A920000C0F3FF1F17
:102BC000915F0000615F0000D9650000495F00006F
:102BD000F8B5674E7068FFF735F866490027087842
:102BE000002800D0F760624C5834012802D0072832
:102BF00055D159E03E237522122101200097FFF79D
:102C000000FEB0691C21484371684018306187702C
:102C1000B069401CB06172685178491E814200DC85
:102C2000B161B0691C214843801801213061817075
:102C300072681078401C43B21370204651782469A2
:102C4000A14205D80D468B420EDB491E11700BE0E8
:102C5000E5B2641EA34207D914700269891A426959
:102C6000914201D9521C4261002410E040481C21CD
:102C7000583040694843716841181C2060430A1865
:102C80002001011B1E201331FFF764FC641CAC42C1
:102C9000ECDB3748B16974308161FFF739FE3548A4
:102CA0000078042849D04DE03E23752212210120EE
:102CB0000097FFF7A6FDB1691C225143726888187E
:102CC00030618770B069401EB061002800DCB761D8
:102CD000B0691C214843716840180121306181703E
:102CE00071680878401E42B20A704D782369204608
:102CF0009D4203D8002A0ADA0F7008E0DDB2002AEC
:102D000005DA0F704169002901D0491E6161002474
:102D100010E017481C215830406948437168411839
:102D20001C2060430A182001011B1E201331FFF7ED
:102D300011FC641CAC42ECDBABE730690069002895
:102D400000D08047F068411CF16064280FDDF76017
:102D500030694169002908D0877070691C21484397
:102D60007168401801213061817002F047FEF8BDA2
:102D700088F3FF1F3DF4FF1F8307FF22DB0E9A40FD
:102D80008907090E994000280BDA0007000F083860
:102D9000830808489B001818C36993430B43C36119
:102DA0007047830804489B001818036893430B433B
:102DB0000360704700ED00E000E400E08307FF22BD
:102DC000DB0E9A408907090E994000280BDA0007AC
:102DD000000F0838830808489B001818C3699343FC
:102DE0000B43C3617047830804489B0018180368AD
:102DF00093430B430360704700ED00E000E400E004
:102E0000F0B50021134B144C144E0A4605251C2026
:102E10004843C01882610261446082608F00827002
:102E200045704261491CF759C9B2C7600529EED304
:102E3000012098700A4818610A48D8620A489864C4
:102E40000A480449586603488C3980308160084933
:102E50000160F0BD780400200A920000A4F3FF1F77
:102E6000ED5F0000D55F0000BD5F0000A55F0000C2
:102E7000615F000010B5074CE068C00704D0064849
:102E80000068002800D08047E06801210843E06026
:102E900010BD00000071034078F0FF1F10B5074C13
:102EA000E069C00704D006484068002800D0804789
:102EB000E06901210843E06110BD0000007103409A
:102EC00078F0FF1FF0B50021114C124B124E0A464C
:102ED00003251C204843001945708261026143604C
:102EE0008F00826082704261491CF759C9B2C76085
:102EF0000329EED301200649A0708C31A161074857
:102F000020610749E16202498C392165A064F0BD66
:102F1000EC0300200A920000D4F3FF1F615F000061
:102F20000560000010B5074C6078002808D0201D0F
:102F3000FFF722FD20462030FFF790FC0020607054
:102F400010BD0000B4F4FF1FF0B585B0FFF7EAFF35
:102F5000FC490020FC4C08562146C031FF340626AF
:102F60000C27012501340291002808D001287DD0CA
:102F700002287CD003287BD004287AD0E3E2062301
:102F8000F2A20F210320009703F064FAEE480197A4
:102F9000803000960390428903230F211B2003F009
:102FA000C5F90623EBA20F214120009703F052FA46
:102FB000039801970096C28B03230F215F2003F033
:102FC000B5F90623E5A21B210320009703F042FA7E
:102FD000039801970096428E1B210323084603F0B5
:102FE000A5F90623DFA21B214120009703F032FA46
:102FF000029801970096C28803231B215F2003F0EB
:1030000095F90623D9A227210320009703F022FA7D
:10301000FF21206CC905C84214D306232D22272185
:103020001B200097019503F021F90121206CC907AD
:103030004840FDF7E7FF02B2032327212120019733
:10304000009607E0FDF7DEFF02B2042327211B20D4
:103050000197009603F06AF90623C6A227214120B2
:10306000009703F0F7F9FF21C90503E05AE09AE061
:10307000CAE13EE2606CC84214D306232D22272108
:103080005A200097019503F0F1F80121606CC907FF
:103090004840FDF7B7FF02B20323272160200197C4
:1030A000009607E0FDF7AEFF02B2042327215A2065
:1030B0000197009603F03AF90623B0A233210320CA
:1030C000009703F0C7F9022201970096A25E03233E
:1030D00033211B2003F02AF90623A9A23321412022
:1030E000009703F0B7F9E16CFF20C005C1420097DB
:1030F000019507D306232D2233215A2003F0B6F879
:10310000E06C44E00623202233215A2003F0AEF87D
:10311000E06CFDF777FF02B20323332160200197B3
:1031200000960EE2062397A20F210320009703F0DA
:1031300091F9029801970096428B03230F211B20DF
:1031400003F0F4F8062391A20F214120009703F029
:1031500081F9029801970096C28D03230F215F2009
:1031600003F0E4F806238BA233214120009703F0FB
:1031700071F9A16CFF20C005C142009701950AD3E7
:1031800006232D2233215A2003F070F8A06C012170
:10319000C9074840BDE70623202233215A2003F007
:1031A00065F8A06CB5E706237CA20F2103200097E9
:1031B00003F050F9A0690097002801950ADA062368
:1031C0002D220F21152003F051F801970096A069D8
:1031D000424208E0062320220F21152003F046F882
:1031E00001970096A26904230F211B2003F09EF88B
:1031F00006236BA20F213D20009703F02BF9E06915
:103200000097002801950ADA06232D220F214F206E
:1032100003F02CF801970096E069424208E006238B
:1032200020220F214F2003F021F801970096E26938
:1032300004230F21552003F079F8062359A22121F8
:103240000320009703F006F91420205E0097002861
:1032500001950EDA06232D223221152003F006F8FF
:10326000142001970096205E04234242322125203B
:103270000CE0062320223221152002F0F7FF142251
:1032800001970096A25E042321211B2003F04EF833
:10329000062345A221213D20009703F0DBF81620EC
:1032A000205E0097002801950DDA06232D22322199
:1032B0004F2002F0DBFF162001970096205E0423CA
:1032C000424232210BE00623202221214F2002F02E
:1032D000CDFF162201970096A25E042321215520DE
:1032E00003F024F8206D0090FDF78CFE0A21039076
:1032F0004843FDF7E9FE009903F078FB2B4903F002
:10330000F1FAFDF77FFE0290062329A233210097F0
:10331000032003F09FF8FF20216DC005C1424BD36D
:1033200003980623444202982D2240420290332102
:1033300000970195272002F099FF0223224601976A
:10334000009645E0B4F4FF1FF4F4FF1F46484C3AE2
:10335000000000004648523A0000000042484C3A43
:10336000000000004248523A000000004641453A41
:10337000000000004241453A00000000484D3A007C
:1033800041453A0046564C3A000000004656523A33
:10339000000000005641453A000000004C453A004C
:1033A00052453A004C503A0052503A000000C84290
:1033B00053706565643A00000623202233212720DC
:1033C0000097019502F052FF039A0223019700969D
:1033D00033212D2002F0AAFF06232E22332139208B
:1033E0000097019502F042FF0223019700963321D6
:1033F0003F20029A02F09AFF062375A233214E2045
:10340000009703F027F89EE0062372A20F21032005
:10341000009703F01FF871487149006803F062FAE1
:10342000FDF716FE024604230F211B20019700968C
:1034300002F07CFF06236BA20F213720009703F0D8
:1034400009F866486649406803F04CFAFDF700FE4B
:10345000024604230F2155200197009602F066FFD3
:10346000062362A221210320009702F0F3FF5B48AC
:10347000006FFDF7EDFD0246042321211B2001977B
:10348000009602F053FF06235AA22121372000970D
:1034900002F0E0FF5148806FFDF7DAFD0246042399
:1034A000212155200197009602F040FF062353A2E8
:1034B00032210320009702F0CDFFA06DFDF7C8FD7B
:1034C0000246032332211B200197009602F02EFFB3
:1034D00006234BA232213720009702F0BBFFE06D9C
:1034E000FDF7B6FD024603233221552001970096D1
:1034F00027E014210623434A0846009702F0AAFF5A
:10350000E16CFF20C005C142009701950AD3062354
:103510002D221421262002F0A9FE0121E06CC9070A
:10352000484006E0062320221421262002F09EFEB9
:10353000E06CFDF78DFD0246022314212C2001973B
:10354000009602F0F3FE30483049007807280AD090
:1035500001281FD0042804D1081F4570002003F063
:103560002BF805B0F0BD294A121F1078401E40B25A
:1035700010705570002801DA0420107000201056D9
:10358000030000F04FFA052020221C1E0400E8E78B
:103590008861E6E71D4A121F1078401C40B2107087
:1035A0005570042801DD00201070002010560028FE
:1035B00009D0012805D0022807D00328D1D114A0B2
:1035C000E6E716A0E4E71AA0E2E71EA0E0E70000A5
:1035D000522F5300534B503A00000000F4F4FF1FE9
:1035E00000002041534B493A00000000444B503A40
:1035F00000000000444B443A000000004C543A00E4
:1036000052543A00803300003DF4FF1FB8F4FF1F0E
:10361000526F616420446574656374004D6F746F0C
:103620007220506172616D657465727300000000F4
:1036300053656E736F7220506172616D657465724F
:103640007300000050494420506172616D657465DB
:1036500072730000F0B50346084649008C465C5A78
:1036600015E0521E904203DA5100595AA142F8D295
:103670005100904204DA5D5AA54201D8401CF8E797
:10368000904204DA46009D5B5F5A9F535D52904220
:10369000E8DB41005D5A62469D525C52F0BD00007D
:1036A0007CB5354C354D6088002815D1374934A09C
:1036B0008861686860610846FFF75EF920462C3033
:1036C000FEF7BDFC20464430FEF7B9FC20465C30D6
:1036D000FEF7B5FC012060802D483F2600783606B5
:1036E000012825D007282DD0042836D022480121D2
:1036F0002C30FEF7F4FB204801214430FEF7EFFBAD
:1037000018250C2323A210211420009502F0A2FEFC
:103710002149606903F0E6F8FDF79AFC02460C20A7
:1037200000900423102101953A2002F0FFFD7CBD9A
:10373000114800212C30FEF7D2FB3146606903F0BE
:1037400061F908E00C4800214430FEF7C8FB31461F
:10375000606903F057F86061D2E76069686002F061
:1037600007FF0020608001F04BFD022002F024FFE3
:10377000FDF7F2FDC4E7000040F4FF1FF4F4FF1F63
:103780005370656564204B6900000000E0F3FF1F83
:103790003DF4FF1F4B693A00000020417CB5354CD9
:1037A000354D2088002815D1374934A08861286814
:1037B00020610846FFF7E0F820462C30FEF73FFC7A
:1037C00020464430FEF73BFC20465C30FEF737FCD9
:1037D000012020802D483F2600783606012825D07C
:1037E00007282DD0042836D0224801212C30FEF79E
:1037F00076FB204801214430FEF771FB18250C238D
:1038000023A210211420009502F024FE21492069F2
:1038100003F068F8FDF71CFC02460C20009004231E
:10382000102101953A2002F081FD7CBD1148002154
:103830002C30FEF754FB3146206903F0E3F808E032
:103840000C4800214430FEF74AFB3146206902F063
:10385000D9FF2061D2E72069286002F089FE0020AC
:10386000208001F0CDFC022002F0A6FEFDF774FDE1
:10387000C4E7000040F4FF1FF4F4FF1F53706565B8
:1038800064204B7000000000E0F3FF1F3DF4FF1FB9
:103890004B703A000000204110B500F001F810BD57
:1038A00070B51E4A00245068002805D05068401E9C
:1038B000506001D1012010709068401C90609168A8
:1038C00017480025814200D1956016499068FCF7A1
:1038D000A9FC1548002902D18188491C8180818872
:1038E0003B2903D985804188491C418041883B2977
:1038F00003D945800188491C01800188172900D916
:103900000580094D883D14206043401901F0D0FA2C
:10391000641CE4B2062CF6D370BD0000A0F0FF1FBB
:10392000FFFFFF7FDE03000054FCFF1F10480F491C
:103930008180012141702321017011200D49000572
:1039400048620D48002141700C4A962111701A21DD
:1039500001700179C906FCD401790907890FFBD1EF
:1039600007490868400848608860704703E800001D
:103970000020054000800440004006400050064002
:103980006CF0FF1F70B51E4C6078002805D1012037
:10399000607020469430FEF729FE1A4D28780728DB
:1039A00006D1174800219430FEF70CFEFEF752FFB7
:1039B0002878012806D1124801219430FEF702FE32
:1039C000FEF748FF2878042811D1002060701C20E1
:1039D00001F0D0FE0028FAD009489430FEF790FE9E
:1039E000012805D001F00CFC022002F0E5FD70BDBD
:1039F00001F006FC022002F0DFFDFDF73DFE70BD88
:103A000088F3FF1F3DF4FF1F10B5034800790348FA
:103A100001F094FA10BD000000A00640A4F9FF1FB9
:103A20007047704730B47446641E2578641CAB42FE
:103A300000D21D46635D5B00E31830BC18470020D0
:103A4000704710B500F0DCF801F098FB01F054FB72
:103A500001F0FEFA10BD00000E4930B50B46203BC8
:103A6000DC781A7900205934A4184C7106E01D182E
:103A70006D79E4B26419401C4C71C0B28242F6D830
:103A80000448E1B21B38105C814201D1012030BDF5
:103A9000002030BD5803002070B588B00E460446A3
:103AA000154620216846FCF7B1FB1B2D02D90020EA
:103AB00008B070BDAA206946087048708E70CD703D
:103AC00000216846431908E0625C461832711A7991
:103AD000465C9219491C1A71C9B2A942F4D32C460A
:103AE0002A1D05E01979065D8919641C1971E4B273
:103AF0009442F7D301466A1D012001F080FAD6E70F
:103B000070B586B014216846FCF780FB224C234E2A
:103B1000E06F314602F0E6FEFDF774FA01126A46E4
:103B200011702546507080353146286802F0DAFE63
:103B3000FDF768FA01126A469170D0706868FDF767
:103B400061FA01126A461171154D507129462068BB
:103B500002F0C8FEFDF756FA01126A469171D07163
:103B60002946606802F0BEFEFDF74CFA01126A4673
:103B7000117250722946A06802F0B4FEFDF742FAB5
:103B800001126A469172D072122210216846FFF724
:103B900083FF06B070BD0000F4F4FF1F0000204159
:103BA0000000C84210B5144A00231178002912D031
:103BB000012914D0114B022917D0032918D04C1C0D
:103BC00014701C79641DA14204D251785B1858719D
:103BD000491C517010BDAA28FCD101200AE0AF2871
:103BE00001D0137010BD022004E0D870032001E062
:103BF00018710420107010BD4CF3FF1F3803002013
:103C000010B5FFF729FF002817D00C4CE0780028EA
:103C100013D005280CDA0300FFF704FF030A0A0398
:103C20000A006079212803DA012801D1FFF768FF33
:103C300000200349E0700870487010BD3803002070
:103C40004CF3FF1F10B501F0D9FB01F0FFF862B68D
:103C500001F044F900F080FD00F038FA00F071F94D
:103C600001F009F800F098FA00F04EF800F01AFFA1
:103C700000F004F800F0F6FA10BD000038B51A2084
:103C8000694608700120487000248C70684601F075
:103C9000ADFC01211A2001F089FD0148047338BDF3
:103CA000B802002010B501221146052000F014F8DA
:103CB00010BD000010B5074800210170818800295F
:103CC00002D0C088002803D101211A2001F06EFD26
:103CD00010BD0000B802002010B5002810D0094B1C
:103CE0001C7B012C0CD058809980DA8000205881F0
:103CF000188158700120187000211A2001F056FD1B
:103D000010BD0000B802002038B5234841692022C8
:103D100011434161C168032212069143C160C16829
:103D2000012212061143C1601C490A6892089200E0
:103D30000A600A6818231A430A6000224A6041692F
:103D4000402421434161C168DC05A143C160C168D1
:103D50000124E4062143C160114801680160016843
:103D60001943016042606946CA704A7009200870B0
:103D700001208870684601F039FC262069460870E9
:103D8000684601F033FC0121092001F0B5FC012156
:103D9000262001F0B1FC38BD0080044000800340C3
:103DA00000900340054A51680548C16105494B68C8
:103DB000836100205060486070470000008003402D
:103DC000F4F5FF1F00900340F8B5089C0D461E4611
:103DD000079FA047A847B047052000F0F7FFB84766
:103DE000052000F0F3FFA047F8BDF8B5089C0D468C
:103DF0001646079FA047A847B047052000F0E6FFFA
:103E0000B847052000F0E2FFA047F8BD0FB4FEB5AB
:103E1000002508982C460D9F0C9E80470E988047E1
:103E2000052000F0D3FFB8476006040EB047012814
:103E300001D1641CE4B2032000F0C8FF6D1CEDB298
:103E4000082DEBD30F9808AD00280E980197009627
:103E500002900FCD06D0FFF7B7FF2046FEBC08BC8E
:103E600004B01847FFF7C1FFF7E70FB4F8B51746DE
:103E700000240C9E0D9D8847B047E80901D0B84743
:103E800001E0099880476806050E052000F09EFFB6
:103E90000B988047052000F099FFB047022000F002
:103EA00095FF641CE4B2082CE7D3F8BC08BC04B04E
:103EB0001847F8B514461D46089F079E8847A04737
:103EC000B047042000F082FFA847042000F07EFFE6
:103ED000B847F8BDF8B514461D46089F079E8847A9
:103EE000B847A847042000F071FFB047A04704205E
:103EF00000F06CFFF8BD0FB4FEB50CACE0CC089838
:103F0000002480470A988047012000F05FFFB047F7
:103F1000012000F05BFF0EE0641CE4B2FA2C0AD929
:103F20006846E0C008AC0FCCFFF7D4FF0120FEBC10
:103F300008BC04B01847A8470028EDD1B8470020B6
:103F4000F5E710B500F084F800F05CF810BD000053
:103F5000F8B506462A4900014418206880477200D7
:103F60000521B51800270028207935D0052801D271
:103F70002171F8BD0A2802D2401C2071F8BD7100E1
:103F8000A07A7618761C002806D10120A072F0B223
:103F900000F084F8FFF786FE21890029EED0E08842
:103FA000884208D2401C80B2E08021898842E5D155
:103FB000ED1CE8B20BE0E07A0028DFD0207B401C4B
:103FC000C0B22073E17A8842D8D32773F0B200F0F0
:103FD00065F8FFF767FEF8BD052801D921710CE0EF
:103FE000002802D0401E207107E0A07A012804D1E9
:103FF000AD1CA772E8B200F051F82773E780F8BD56
:104000006CFCFF1F70B50E480021034681723224FC
:104010000C3302250A46C1720A260801C018048121
:1040200005718272491C0273C9B2C6720329F4D3A6
:1040300004481860044818610448186270BD000004
:1040400060FCFF1F4D2A0000392A0000252A0000CD
:1040500008B51B200090684601F0C8FA1C2069468C
:104060000870684601F0C2FA242069460870684664
:1040700001F0BCFA08BD0000074A917AD07A81426B
:1040800001D100207047505C491CC9B291720A29C5
:10409000F8D300219172704760FCFF1F0549CA7A6E
:1040A0008854C87A401CC0B2C8720A2801D30020C4
:1040B000C872704760FCFF1F10B500242046FFF750
:1040C00047FF641CE4B2032CF8D310BD08B51820D8
:1040D000694608700120887048700020C8706846E2
:1040E00001F084FA192069460870684601F07EFAEA
:1040F000002000F001F808BD10B5002805D0012807
:1041000006D0022808D1002104E00021084601E081
:104110000021012000F02DF810BD10B5002807D0B7
:10412000012808D0022802D1012100F022F810BD98
:1041300001210020F9E701210846F6E710B5002823
:1041400003D0012801D0022801D100F001F810BDF0
:1041500010B5002804D0012807D0022808D102E0B9
:10416000182001F015FB192000E0182001F010FBC9
:1041700010BD10B50C46002804D001280AD0022832
:1041800007D103E0182001F011FB2146192001F0AE
:104190000DFB10BD1820FAE73EB500246946CC722D
:1041A00001204872252008728C7202A801F01EFAC4
:1041B0000121252001F0FAFA0E48694608800D20F9
:1041C0000871CC80684601F075F90A4869464230AA
:1041D0000880684601F06EF907486946088068461D
:1041E00001F068F903486946E8300880684601F044
:1041F00061F93EBD30A40000F6A8000070B50C4681
:1042000005460121252001F0D1FA1448144E002D55
:1042100004DBA9B201F0D0F9002104E0002101F093
:10422000CBF9684281B2304601F0C6F90C480C4D1A
:10423000E838A63D002C04DBA1B201F0BDF9002155
:1042400004E0002101F0B8F9604281B2284601F093
:10425000B3F90021252001F0A9FA70BDF6A80000ED
:1042600018A5000010B500F091F800F0C6F9032081
:1042700000F0D4F9002000F0C6F9642000F0F3F952
:1042800000216A2000F006FA0021232000F002FA43
:104290008021372000F0FEF90021382000F0FAF9E3
:1042A000752000F027F9682801D0012010BD0121F8
:1042B0006B2000F0EFF900216C2000F0EBF9642096
:1042C00000F0D1F9064801F0B3FB0548A83801F029
:1042D000AFFB0348A83001F0ABFB002010BD00008D
:1042E00068010020F8B5254A911E881E00F06CF97F
:1042F000224C3020323C205E401CFCF7E5FE064696
:104300003220205E1D30FCF7DFFE47273F060546C2
:10431000BE4205DD8F21C905304602F073FB06461B
:10432000BD4205DD8F21C905284602F06BFB05461D
:104330003046FCF78DFD124F124B3A46FCF714FA4B
:10434000FCF716F806462846FCF782FD3A460D4B68
:10435000FCF70AFAFCF70CF80B4D294602F0C2FAFA
:10436000E16B02F04FFAE0632946304602F0BAFAF8
:10437000616B02F047FA6063F8BD000026F6FF1F8C
:1043800066666666666630400AD7A33B08B50020BD
:104390006A46D070012151702C21117090706846CE
:1043A00001F024F92D206A461070684601F01EF9CC
:1043B0000848074941610849816108498160084905
:1043C000C16008490160084941600849016108BDB0
:1043D000032B0000A00000200F2B00001B2B00006F
:1043E000272B0000332B00004B2B0000F92A000084
:1043F000F0B53F4C154620460F46103007C885B033
:104400001E466B4607C30FCC103CFFF752FDD02071
:104410001034039007CC6B4607C31C3C0FCC103CF8
:10442000FFF723FD103407CC6B4607C31C3C0FCCB1
:10443000103CFFF760FD00280AD02046103007C866
:104440006B4607C30FCCFFF745FD012005B0F0BD5B
:1044500020461030039707C86B4607C30FCC103CAB
:10446000FFF703FD103407CC6B4607C31C3C0FCC91
:10447000103CFFF740FD103407CC6B4607C31C3CD3
:104480000FCC103CFFF715FDD1201034039007CC62
:104490006B4607C31C3C0FCC103CFFF7E6FC103406
:1044A00007CC6B4607C31C3C0FCC103CFFF723FD29
:1044B00010E0012D1AD0012003902046103007C8CB
:1044C0006B4607C30FCC103CFFF7A0FC6D1E30708D
:1044D000EDB2761C002DECD12046103007C86B469B
:1044E00007C30FCCFFF7F6FC0020AFE70020E3E79F
:1044F000A00000207FB5334C05462046103007C889
:104500006B4607C30FCC103CFFF7D3FCD020103410
:10451000039007CC6B4607C31C3C0FCC103CFFF745
:10452000A4FC103407CC6B4607C31C3C0FCC103CDA
:10453000FFF7E1FC1034039507CC6B4607C31C3C26
:104540000FCC103CFFF791FC103407CC6B4607C32F
:104550001C3C0FCC103CFFF7CEFC103407CC6B4654
:1045600007C31C3C0FCC103CFFF7A3FCD120103438
:10457000039007CC6B4607C31C3C0FCC103CFFF7E5
:1045800074FC103407CC6B4607C31C3C0FCC103CAA
:10459000FFF7B1FC00201034039007CC6B4607C333
:1045A0001C3C0FCC103CFFF731FC0546103407CC07
:1045B0006B4607C31C3C0FCCFFF78CFC284604B0AD
:1045C00070BD0000A00000207CB514460D460646D4
:1045D0006B46062243216820FFF70AFF00280BD113
:1045E0006946098849BA31806946498849BA2980AB
:1045F0006946898849BA21807CBD10B580216B202D
:1046000000F048F810BD10B5032801D9012010BDF5
:10461000C006010E1C2000F03DF810BD10B50328A7
:1046200001D9012010BDC006010E1B2000F032F898
:1046300010BD10B5BC2801D3012110E0622801D3C0
:1046400002210CE02A2801D3032108E0142801D319
:10465000042104E00A2801D3052100E006211A20E4
:1046600000F018F810BD10B504467D20C00084424B
:1046700001D9044602E0042C00D204242146FBF7B1
:10468000C7FD401EC1B2192000F004F86008FFF712
:10469000D0FF10BD7FB52F4C064620460D4610308A
:1046A00007C86B4607C30FCC103CFFF702FCD020B5
:1046B0001034039007CC6B4607C31C3C0FCC103C56
:1046C000FFF7D3FB103407CC6B4607C31C3C0FCC61
:1046D000103CFFF710FC002827D12046103003962D
:1046E00007C86B4607C30FCC103CFFF7BEFB103466
:1046F00007CC6B4607C31C3C0FCC103CFFF7FBFB01
:104700001034039507CC6B4607C31C3C0FCC103C00
:10471000FFF7ABFB103407CC6B4607C31C3C0FCC38
:10472000103CFFF7E8FB00280AD02046103007C8ED
:104730006B4607C30FCCFFF7CDFB012004B070BD63
:104740002046103007C86B4607C30FCCFFF7C2FBEB
:104750000020F3E7A000002010B500F07DF8012153
:10476000432001F023F8642000F020FB00214320C7
:1047700001F01CF8642000F019FB0121432001F036
:1047800015F80021AE2001F093FE0021D52001F0A4
:104790008FFE0021502001F08BFE0021A82001F0A7
:1047A00087FE00213F2001F083FE0021D32001F08D
:1047B0007FFE0021084601F07BFE0021402001F031
:1047C00077FE00218D2001F073FE0021142001F0FE
:1047D0006FFE0021202001F06BFE0021084601F051
:1047E00067FE0021A02001F063FE0021CF2001F030
:1047F0005FFE0021DA2001F05BFE0021122001F0B3
:1048000057FE0021812001F053FE0021EF2001F02E
:104810004FFE0021D92001F04BFE0021F12001F0D4
:1048200047FE0021DB2001F043FE0021302001F093
:104830003FFE0021A42001F03BFE0021A62001F054
:1048400037FE0021AF2001F033FE01F0A5FC00216E
:10485000084600F026F810BD08B500206A46D07062
:1048600001215170232111709070684600F0BEFE46
:1048700042206A461070684600F0B8FE17206A466B
:104880001070684600F0B2FE43206A461070684619
:1048900000F0ACFE16206A461070684600F0A6FED6
:1048A00008BD10B50446B031C8B2002101F000FEC9
:1048B00020090021103001F0FBFD2007000F01212D
:1048C0000843002101F0F4FD10BD0000F0B591B0E7
:1048D00000201090382102A8FBF798FC0C2400213E
:1048E000062361A20846009401F0B4FD0120019066
:1048F0000623252200210094642001F0B7FC01F07A
:1049000091FC002001468300401C02AA80B2D150D5
:104910000E28F8D3584A0020142141438918002357
:104920008031401C8B8180B2CB810728F4D30026D4
:104930000025E8B200F07CF9002100F0A5FC024659
:104940001420294641434C480F1838468030017ADC
:10495000BC464B00FF18491C942301720446FA52CE
:10496000007A042801D3002020726046424F0322BF
:104970000021943001F033FFA189608B814200D285
:10498000A081E189A08A814200D9E0816D1CADB28D
:10499000072DCED310980A21401C80B21090FBF74F
:1049A00037FC002904D10020FFF7C8FB01F03AFCD6
:1049B0001E21701CFBF72CFC02460C2106200191E5
:1049C000009003230021542001F0B0FC052000F0EA
:1049D000EDF9761C2948B6B28642A9D3264896221C
:1049E000C03082830021C18302864186084602AB23
:1049F00014214143C919C20080318C899C50D218BE
:104A0000401CC98980B251600728F1D30C240623C9
:104A10001BA221460020009401F01CFD06231CA2CD
:104A200018210020009401F015FD01F0FBFB7D250D
:104A3000ED00284600F0BAF9FD2000F0CBFC002381
:104A4000382202A9FD2000F00BFD062313A2242129
:104A50000020009401F0FEFC01F0E4FB284600F089
:104A6000A5F911B0F0BD000043616C696272617418
:104A7000696F6E2E2E2E0000F4F4FF1FB80B00009D
:104A800043616C6962726174696F6E204F4B2100E3
:104A9000536176696E672E2E2E0000005361766595
:104AA000642121000EB50948009000206A469071EB
:104AB0000121117191721072507160235372D17281
:104AC000D071684600F0FAFB0EBD000080CF0000F8
:104AD000FEB500252F46284600F0AAF8002100F078
:104AE000D3FB02461420294641434A48081804468D
:104AF0008034217A4B00C618491C94232172F2524B
:104B0000217A042900D3277201468A310422943085
:104B100000F0DCFF6089052801D205206081A089B2
:104B2000E689801BFCF7D0FA00906089801BFCF7B7
:104B3000CBFA0099FCF7B6F96D1CEDB22061072D98
:104B4000C9D3344D80352C696E6A2146304601F058
:104B500059FE00902146304601F054FF0099FCF7C1
:104B6000A1F92D4901F0BEFE2C4680342064A86BCB
:104B70000090EE6C0146304601F044FE0190304654
:104B8000009901F03FFF0199FCF78CF9224901F0EF
:104B9000A9FE60642E6E6D6F3146284601F032FE2C
:104BA00000903146284601F02DFF0099FCF77AF974
:104BB000194901F097FEA0640021022000F064FB77
:104BC000FCF71FF80022154BFCF71EF80022144BCF
:104BD000FBF7CAFD01229207124BFBF7C5FDFBF75D
:104BE000C7FB60660220205E502801DA0020A7641F
:104BF000FCF76AFAA16C01F075FE0749FCF752F95F
:104C00000949A064884203D20849884200DAA764AF
:104C1000FEBD0000F4F4FF1F0000C8420000144075
:104C200000E06F403333DB3F0000A0C10000A04133
:104C3000014600B50020072900D900BD0B00FEF792
:104C4000F1FE0706080B0E1417110500F5E780208A
:104C500000BD0120C00200BDFF20013000BD0120C9
:104C6000400200BD0120C00300BD0120800300BD43
:104C70000120800200BD08B500206946C870487058
:104C80002820087001208870684600F0AFFC0121E0
:104C9000282000F031FD0121282000F087FD292087
:104CA00069460870684600F0A1FC0121292000F047
:104CB00023FD0121292000F079FD34206946087088
:104CC000684600F093FC0121342000F015FD01211D
:104CD000342000F06BFD372069460870684600F00C
:104CE00085FC0121372000F007FD0121372000F06D
:104CF0005DFD2A2069460870684600F077FC0121B6
:104D00002A2000F053FD2B2069460870684600F009
:104D10006DFC01212B2000F049FD08BDF0B585B0E8
:104D20001546022803D90020C04305B0F0BD104E3F
:104D3000C400325D012A17D06A46107001275770EF
:104D40000320107268460395019100F045FD375528
:104D5000A019456001211620FEF730F80321172025
:104D6000FEF72CF80020E0E70120C043DDE700005B
:104D700044FCFF1F70B5062802D90020C04370BD57
:104D80001424094D60434419267B012E09D061602B
:104D9000002666702B5401202073A16030462261EA
:104DA00070BD0120C04370BDCCFBFF1F002809D09F
:104DB000012800D1022004494860002008700878CA
:104DC0000128FCD170470000A0F0FF1FF8B50D4E80
:104DD0000746756900240D480B490068FBF718FA6F
:104DE0007843B1690246B0698842FCD0884201D25A
:104DF000091A01E02B1A59180C1901469442F2D3F2
:104E0000F8BD000000E000E040420F006CF0FF1F22
:104E100070B5022802D90020C04370BD074DC40000
:104E2000295D002906D000F033FD002028556119C6
:104E3000486070BD0120C04370BD000044FCFF1FEE
:104E40000148806870470000A0F0FF1F70B5002186
:104E5000134B0C4614224A43D018446084604470BB
:104E60009C54491C0461C9B204730629F2D30C484E
:104E70007D2188300480448084800A48C90000680D
:104E8000FBF7C6F90849401E884208D8074D6861FB
:104E90000321081FFDF792FFAC610720286170BD58
:104EA000CCFBFF1F6CF0FF1FFFFFFF0000E000E0E6
:104EB0004168002910D04168491E41600CD1012190
:104EC00041700178012903D181684160002141705E
:104ED0000069002800D00047704700001FB500F0AF
:104EE0005FF8E12040020090012003900C20694609
:104EF000488100200881C880094C8880204600F045
:104F0000FFFC08480168C87820221043C870064991
:104F1000D00108600121204600F0D6FC1FBD000032
:104F200000A00640A4F9FF1F00E100E0012801D025
:104F30000020704700487047A4F9FF1F70B5044671
:104F400000680179890607D5C5792846FEF72AFE4B
:104F50002946204600F040F820680179090701D56C
:104F60000179C17901790179090612D5A18A00294F
:104F700010D0628A6168895CC171608A401C80B20D
:104F80006082A189884201D300206082A08A401EED
:104F9000A08270BDC1784906490EC17070BD000085
:104FA0000B480A4901600B49816001462831416084
:104FB000FF210131C1818181002141830183C182AF
:104FC000818241824162C1610162704700A0064056
:104FD000A4F9FF1FCCFAFF1FC38A8268D154C18A8B
:104FE000491C8AB2C282C1898A4201D30022C2828C
:104FF000428B8A4202D2418B491C41837047F8B5EB
:105000000023FFF793FF002820D0002517E08489B4
:10501000878A6E4637803688B442F9D9CC5C078AD5
:105020004668F455048A641CA4B204828689B4429A
:1050300000D30582848A641C84825B1C9BB29342E9
:10504000E5D30068C17880221143C170F8BD00002B
:1050500030B589B020216846FBF7D8F8234C6A4662
:10506000208D011211705070608D01129170D070FE
:10507000A08D011211715071E08D01129171D071EA
:10508000208E011211725072608E01129172D072D4
:10509000122202216846FEF7FFFC154DA06B29463F
:1050A00001F020FCFBF7AEFF0104090E6A46117007
:1050B00050702946606B01F015FCFBF7A3FF01045B
:1050C000090E6A469170D0700A49E06B01F00AFC43
:1050D000FBF798FF0104090E6A46117150710C220A
:1050E00001216846FEF7D8FC09B030BDF4F5FF1F7A
:1050F0000000C8420000204110B588B02021684659
:10510000FBF784F81C4C6946A08A02120A704870AA
:10511000E08A02128A70C870A069020E0A71021435
:105120004A7102128A71C871E069020E0A72021491
:105130004A7202128A72C872206DFBF763FF010483
:105140000A0E69460A734873206AFBF75BFF010485
:105150000A0E69468A73C873606AFBF753FF01043D
:105160000A0E69460A7448741222F1216846FEF755
:1051700093FC08B010BD0000F4F5FF1F10B588B017
:1051800020216846FBF742F81C496B464889020A11
:105190001A700A4658704032508B040A9C70D870BE
:1051A000D08D164C020A1A715871C88B8034010ACE
:1051B0009971D871206CFBF725FF0104090E6B462D
:1051C00019725872A06CFBF71DFF0104090E6B46A3
:1051D0009972D872E06CFBF715FF0104090E6B465B
:1051E0001973587360881022010A9973D873F221D9
:1051F0006846FEF751FC08B010BD000074F5FF1FB3
:1052000010B5FDF7AFFCFDF75DFEFDF7F9FD0020E1
:1052100001F0D2F910BD000010B5FEF72DFF194CBA
:105220000028607007D02078002804D1022001F007
:10523000C3F90020607020780300FEF7F3FB0A0931
:10524000200C060F1215181B1E20FDF77DFE16E020
:1052500000F018FF13E0FDF7BBFC10E0FEF79EFA2C
:105260000DE0FEF71DFA0AE0FCF76CFC07E0FCF726
:10527000EDFB04E0FCF70CFB01E0FEF783FBFDF720
:10528000E9FA10BD3CF4FF1F00220346D340DB07C0
:1052900003D1521C92B2102AF7D307488368490001
:1052A0000B438360D106C90E016001680906FCD575
:1052B00000690005000D704700B00340F8B50546D1
:1052C0000020694608800646044607460121480733
:1052D00000F0EEFA3B4B9869694608800888002880
:1052E00002D00888C04308806846298800880143A6
:1052F000684601800088C14368460180996900883A
:1053000001409961A879697A40000143A87A08436D
:1053100098605868E97A08435860287A012800D1D3
:10532000202669794020012903D10643264A4102FB
:105330001160E979002902D0D9680143D960286851
:10534000D9682A79521ED2B21143D9601F49024648
:10535000E240D207D20F11D0E206D20E194B3243EF
:105360001A601B4B01221B78A2409C469B00CA502E
:1053700063465B1C164A7F1C1370FFB22A79BA423F
:1053800003D9641CE4B2102CE1D3C2030BD5102264
:105390000C4B32431A600E4B01241A7824049500FA
:1053A0004C51521C1A7080030BD516200643054839
:1053B0000660074A012310785B0484000B51401CEF
:1053C0001070F8BD00B0034000E100E08CF6FF1F54
:1053D00080F0FF1F410210B50748002242700A23E7
:1053E00043720B0C037201234370090A417202726B
:1053F00000F020F8002010BD0000024010B501218F
:10540000080300F055FA084C60790006FCD50848FE
:1054100006490068FAF7FCFE401E8006800E403008
:10542000E0703020607110BD0000024040420F006B
:1054300070F0FF1F10B572B63020074C607107493D
:10544000481F0160601D884762B6607933210840BB
:1054500000D0012010BD0000000002408DF0FF1FB1
:10546000F8B50026400217460C46C5181CE0104847
:105470000021417006214172290C01720121417005
:10548000290A417205720221417021780172617806
:10549000417203214170A1780172E1784172241DAB
:1054A0002D1DFFF7C7FF361DBE42E0D30020F8BD1B
:1054B00000000240F1B582B0029800240088820604
:1054C000930F8205120F0092010702058504090F50
:1054D000920FAD0FC00B8446334847696E1D012003
:1054E000B040314E074377616046002815D007D0A1
:1054F00030698B409843306130698A401043306195
:105500002A480668029801797D20C00041430F4671
:10551000300CFAF77DFE01460BE0234EF0688B401D
:105520009843F060F0688A401043F060E8E7641C3C
:10553000E4B20846E040FAD1072C33D83046394669
:10554000E040FAF765FE86B2194968000E520298EB
:10555000711CC08848437D21C900FAF763FE80B200
:105560008646144AA80011588E6000991358C90045
:105570008C460C315E580427BE435E5016582823D3
:1055800073506107490F1358083119600021022D2B
:1055900001D19368D9641558634674461033EC50B2
:1055A00010584160FEBD00000080044070F0FF1FF5
:1055B00082F0FF1FE06A000070B58205150F8004BD
:1055C000840F084A6000105A401C48437D21C900DE
:1055D000FAF728FE044AA1005258E90080B21031BF
:1055E000505070BD82F0FF1FE06A0000F0B50178F6
:1055F0003E4BCD064A09ED0E92009C58A66901214A
:10560000A9400E43A6619C5865698D436561447845
:10561000002C02D0012C05D00EE09C58A5698D43CA
:10562000A56109E09C58A6690D463543A5619C58C3
:1056300066690D463543656185782D4E2D4C012DEB
:1056400015D12B4F9D58403FBD4203D1A5680D4356
:10565000A5600CE0B54203D1E5680D43E56006E0C6
:10566000234F4037BD4202D125690D432561C178E2
:1056700001293AD19958B1420BD10278382A04D085
:10568000392A06D16269802301E0626940231A4306
:105690006261B1420BD10278202A04D0212A06D1BE
:1056A0006269202301E0626910231A436261104B92
:1056B000403B99420BD10278182A04D0192A06D10E
:1056C0006269082501E0626904252A436261994202
:1056D0000BD100780C2804D00D2806D16069022176
:1056E00001E06069012108436061F0BDD46A0000F7
:1056F00040F00F4000900440F0B51C4D1B4E430994
:105700001B4F9B00184A194C4035403EFB5800295E
:1057100015D0C106C90E01208840B34203D191685B
:1057200001439160F0BDA34203D1D1680143D16030
:10573000F0BDAB42FCD1116901431161F0BD012103
:105740008140B34203D1906888439060F0BDA3428A
:1057500003D1D0688843D060F0BDAB42FCD1106962
:1057600088431061F0BD00000090044040F00F40FD
:10577000D46A0000C2064109D20E880003490858C5
:105780000069D040C007C00F70470000D46A000015
:10579000C1064209C90E044892008058C26801231C
:1057A0008B401A43C2607047D46A0000420910B5AA
:1057B0009300C006074C0122C00E8240E058002929
:1057C00003D041681143416010BD8168114381607D
:1057D00010BD0000D46A000070B50446012102200B
:1057E00000F066F8254801680225A94301602448B5
:1057F0007D21C9000068FAF70BFD616841432078FC
:105800000201204812181160217809010918CB689B
:1058100001221343CB602178090109188B68934357
:105820008B602178090109188B68AB438B60217864
:10583000090109188B6813438B606178012916D11F
:1058400021780901081881682943816021780E4A6E
:105850008900E068505020780C49002808D00128C1
:1058600005D1C0050860217A1720FDF785FA70BDC3
:10587000012080050860217A1620F6E700700340B9
:1058800070F0FF1F0071034078F0FF1F00E100E09F
:10589000012809D8010105480818C16801221143EF
:1058A000C1608168914381607047000000710340CE
:1058B000044A0029516901D0014300E0814351614C
:1058C00070470000008004400A4A10B5904202D19F
:1058D0000120000504E0084A904204D1012040055F
:1058E000FFF7E6FF10BD054A9042FBD1012080057D
:1058F000F6E7000000A0064000B0064000C00640E9
:10590000F8B5044623480D46844202D1012108051A
:105910000AE02148844202D10121480504E01F48E1
:10592000844203D101218805FFF7C2FF297B20466D
:1059300000F03AF8E078F3210840E070A078297A86
:105940000843A070A07829790843A070A078A979AD
:105950000843A070124800680090296806094808AA
:105960003018FAF755FC81B20E48814200D9014641
:1059700020784009400120702078CA04D20E1043DC
:1059800020706170E078AA7A1043E0703046FAF730
:105990003FFCF8BD00A0064000B0064000C0064035
:1059A00070F0FF1FFF1F000001290ED80E4B0F4A99
:1059B00098420BD1D068CB011843D060012904D1A3
:1059C0000B4881680C22114381607047094B984253
:1059D00002D11069090304E0074B9842F5D1106920
:1059E000490308431061704700A00640008004404E
:1059F0000090044000B0064000C0064010B5074CBF
:105A00000548606021465831A0688861002000F098
:105A1000D3FD0120207010BD6003002088F3FF1F1C
:105A2000FF21C905C84201D3090248407047000060
:105A300010B500210A4606C00160416003461A4ABB
:105A400078331A491A625962194C44610023036180
:105A5000184C0362C46143628261154CC462836264
:105A6000026341630021C1638164C16401654464D0
:105A700083630A46026441652246C26581650E4A17
:105A80000E490266416600218166C1660167416771
:105A90000B4903460B4A783306C300220A49783083
:105AA0001A60C16010BD00007B14AE47E17A743FFC
:105AB0000000F03FE17A74BFFCA9F1D24D62503F83
:105AC000FA7E6ABC7493683F0000E03F70B50C46F4
:105AD00003460021084604E04D005D5B2818491C80
